{
	"contracts/Blockchain_task.sol": {
		"Crowdfunding": {
			"abi": [
				{
					"inputs": [
						{
							"internalType": "uint256",
							"name": "_campaignFee",
							"type": "uint256"
						}
					],
					"stateMutability": "nonpayable",
					"type": "constructor"
				},
				{
					"anonymous": false,
					"inputs": [
						{
							"indexed": false,
							"internalType": "uint256",
							"name": "campaignId",
							"type": "uint256"
						},
						{
							"indexed": false,
							"internalType": "address",
							"name": "entrepreneur",
							"type": "address"
						},
						{
							"indexed": false,
							"internalType": "string",
							"name": "title",
							"type": "string"
						}
					],
					"name": "CampaignCancelled",
					"type": "event"
				},
				{
					"anonymous": false,
					"inputs": [
						{
							"indexed": false,
							"internalType": "uint256",
							"name": "campaignId",
							"type": "uint256"
						},
						{
							"indexed": false,
							"internalType": "address",
							"name": "entrepreneur",
							"type": "address"
						},
						{
							"indexed": false,
							"internalType": "string",
							"name": "title",
							"type": "string"
						}
					],
					"name": "CampaignCompleted",
					"type": "event"
				},
				{
					"anonymous": false,
					"inputs": [
						{
							"indexed": false,
							"internalType": "uint256",
							"name": "campaignId",
							"type": "uint256"
						},
						{
							"indexed": false,
							"internalType": "address",
							"name": "entrepreneur",
							"type": "address"
						},
						{
							"indexed": false,
							"internalType": "string",
							"name": "title",
							"type": "string"
						}
					],
					"name": "CampaignCreated",
					"type": "event"
				},
				{
					"anonymous": false,
					"inputs": [
						{
							"indexed": false,
							"internalType": "address",
							"name": "owner",
							"type": "address"
						},
						{
							"indexed": false,
							"internalType": "uint256",
							"name": "amount",
							"type": "uint256"
						}
					],
					"name": "FeesWithdrawn",
					"type": "event"
				},
				{
					"anonymous": false,
					"inputs": [
						{
							"indexed": false,
							"internalType": "address",
							"name": "investor",
							"type": "address"
						},
						{
							"indexed": false,
							"internalType": "uint256",
							"name": "amount",
							"type": "uint256"
						}
					],
					"name": "InvestorRefunded",
					"type": "event"
				},
				{
					"anonymous": false,
					"inputs": [
						{
							"indexed": false,
							"internalType": "uint256",
							"name": "campaignId",
							"type": "uint256"
						},
						{
							"indexed": false,
							"internalType": "address",
							"name": "investor",
							"type": "address"
						},
						{
							"indexed": false,
							"internalType": "uint256",
							"name": "shares",
							"type": "uint256"
						}
					],
					"name": "SharesPurchased",
					"type": "event"
				},
				{
					"inputs": [
						{
							"internalType": "address",
							"name": "investor",
							"type": "address"
						}
					],
					"name": "banInvestor",
					"outputs": [],
					"stateMutability": "nonpayable",
					"type": "function"
				},
				{
					"inputs": [
						{
							"internalType": "uint256",
							"name": "",
							"type": "uint256"
						}
					],
					"name": "bannedAddresses",
					"outputs": [
						{
							"internalType": "address",
							"name": "",
							"type": "address"
						}
					],
					"stateMutability": "view",
					"type": "function"
				},
				{
					"inputs": [],
					"name": "bannedCounter",
					"outputs": [
						{
							"internalType": "uint256",
							"name": "",
							"type": "uint256"
						}
					],
					"stateMutability": "view",
					"type": "function"
				},
				{
					"inputs": [
						{
							"internalType": "address",
							"name": "",
							"type": "address"
						}
					],
					"name": "bannedList",
					"outputs": [
						{
							"internalType": "bool",
							"name": "",
							"type": "bool"
						}
					],
					"stateMutability": "view",
					"type": "function"
				},
				{
					"inputs": [],
					"name": "campaignFee",
					"outputs": [
						{
							"internalType": "uint256",
							"name": "",
							"type": "uint256"
						}
					],
					"stateMutability": "view",
					"type": "function"
				},
				{
					"inputs": [
						{
							"internalType": "uint256",
							"name": "numberOfShares",
							"type": "uint256"
						},
						{
							"internalType": "uint256",
							"name": "campaignId",
							"type": "uint256"
						}
					],
					"name": "campaignFunding",
					"outputs": [],
					"stateMutability": "payable",
					"type": "function"
				},
				{
					"inputs": [
						{
							"internalType": "uint256",
							"name": "",
							"type": "uint256"
						}
					],
					"name": "campaigns",
					"outputs": [
						{
							"internalType": "uint256",
							"name": "campaignId",
							"type": "uint256"
						},
						{
							"internalType": "address",
							"name": "entrepreneur",
							"type": "address"
						},
						{
							"internalType": "string",
							"name": "title",
							"type": "string"
						},
						{
							"internalType": "uint256",
							"name": "sharePrice",
							"type": "uint256"
						},
						{
							"internalType": "uint256",
							"name": "totalShares",
							"type": "uint256"
						},
						{
							"internalType": "uint256",
							"name": "currentShares",
							"type": "uint256"
						},
						{
							"internalType": "bool",
							"name": "isActive",
							"type": "bool"
						},
						{
							"internalType": "bool",
							"name": "isCancelled",
							"type": "bool"
						},
						{
							"internalType": "bool",
							"name": "isCompleted",
							"type": "bool"
						}
					],
					"stateMutability": "view",
					"type": "function"
				},
				{
					"inputs": [
						{
							"internalType": "uint256",
							"name": "campaignId",
							"type": "uint256"
						}
					],
					"name": "cancelCampaign",
					"outputs": [],
					"stateMutability": "nonpayable",
					"type": "function"
				},
				{
					"inputs": [
						{
							"internalType": "address",
							"name": "newOwner",
							"type": "address"
						}
					],
					"name": "changeOwner",
					"outputs": [],
					"stateMutability": "nonpayable",
					"type": "function"
				},
				{
					"inputs": [
						{
							"internalType": "uint256",
							"name": "campaignId",
							"type": "uint256"
						}
					],
					"name": "completeCampaign",
					"outputs": [],
					"stateMutability": "nonpayable",
					"type": "function"
				},
				{
					"inputs": [
						{
							"internalType": "string",
							"name": "title",
							"type": "string"
						},
						{
							"internalType": "uint256",
							"name": "sharePrice",
							"type": "uint256"
						},
						{
							"internalType": "uint256",
							"name": "totalShares",
							"type": "uint256"
						}
					],
					"name": "createCampaign",
					"outputs": [],
					"stateMutability": "payable",
					"type": "function"
				},
				{
					"inputs": [],
					"name": "destroyContract",
					"outputs": [],
					"stateMutability": "nonpayable",
					"type": "function"
				},
				{
					"inputs": [],
					"name": "getActiveCampaigns",
					"outputs": [
						{
							"components": [
								{
									"internalType": "uint256",
									"name": "campaignId",
									"type": "uint256"
								},
								{
									"internalType": "address",
									"name": "entrepreneur",
									"type": "address"
								},
								{
									"internalType": "string",
									"name": "title",
									"type": "string"
								},
								{
									"internalType": "uint256",
									"name": "pledgeCost",
									"type": "uint256"
								},
								{
									"internalType": "uint256",
									"name": "pledgesNeeded",
									"type": "uint256"
								},
								{
									"internalType": "uint256",
									"name": "pledgesCount",
									"type": "uint256"
								},
								{
									"internalType": "bool",
									"name": "fulfilled",
									"type": "bool"
								},
								{
									"internalType": "bool",
									"name": "cancelled",
									"type": "bool"
								}
							],
							"internalType": "struct Crowdfunding.CampaignInfo[]",
							"name": "",
							"type": "tuple[]"
						}
					],
					"stateMutability": "view",
					"type": "function"
				},
				{
					"inputs": [],
					"name": "getActiveCount",
					"outputs": [
						{
							"internalType": "uint256",
							"name": "",
							"type": "uint256"
						}
					],
					"stateMutability": "view",
					"type": "function"
				},
				{
					"inputs": [],
					"name": "getBannedInvestors",
					"outputs": [
						{
							"internalType": "address[]",
							"name": "",
							"type": "address[]"
						}
					],
					"stateMutability": "view",
					"type": "function"
				},
				{
					"inputs": [],
					"name": "getCancelledCampaigns",
					"outputs": [
						{
							"components": [
								{
									"internalType": "uint256",
									"name": "campaignId",
									"type": "uint256"
								},
								{
									"internalType": "address",
									"name": "entrepreneur",
									"type": "address"
								},
								{
									"internalType": "string",
									"name": "title",
									"type": "string"
								},
								{
									"internalType": "uint256",
									"name": "pledgeCost",
									"type": "uint256"
								},
								{
									"internalType": "uint256",
									"name": "pledgesNeeded",
									"type": "uint256"
								},
								{
									"internalType": "uint256",
									"name": "pledgesCount",
									"type": "uint256"
								},
								{
									"internalType": "bool",
									"name": "fulfilled",
									"type": "bool"
								},
								{
									"internalType": "bool",
									"name": "cancelled",
									"type": "bool"
								}
							],
							"internalType": "struct Crowdfunding.CampaignInfo[]",
							"name": "",
							"type": "tuple[]"
						}
					],
					"stateMutability": "view",
					"type": "function"
				},
				{
					"inputs": [],
					"name": "getCompletedCampaigns",
					"outputs": [
						{
							"components": [
								{
									"internalType": "uint256",
									"name": "campaignId",
									"type": "uint256"
								},
								{
									"internalType": "address",
									"name": "entrepreneur",
									"type": "address"
								},
								{
									"internalType": "string",
									"name": "title",
									"type": "string"
								},
								{
									"internalType": "uint256",
									"name": "pledgeCost",
									"type": "uint256"
								},
								{
									"internalType": "uint256",
									"name": "pledgesNeeded",
									"type": "uint256"
								},
								{
									"internalType": "uint256",
									"name": "pledgesCount",
									"type": "uint256"
								},
								{
									"internalType": "bool",
									"name": "fulfilled",
									"type": "bool"
								},
								{
									"internalType": "bool",
									"name": "cancelled",
									"type": "bool"
								}
							],
							"internalType": "struct Crowdfunding.CampaignInfo[]",
							"name": "",
							"type": "tuple[]"
						}
					],
					"stateMutability": "view",
					"type": "function"
				},
				{
					"inputs": [
						{
							"internalType": "uint256",
							"name": "campaignId",
							"type": "uint256"
						}
					],
					"name": "getInvestorsAndShares",
					"outputs": [
						{
							"internalType": "address[]",
							"name": "investors",
							"type": "address[]"
						},
						{
							"internalType": "uint256[]",
							"name": "shares",
							"type": "uint256[]"
						}
					],
					"stateMutability": "view",
					"type": "function"
				},
				{
					"inputs": [],
					"name": "getTotalFees",
					"outputs": [
						{
							"internalType": "uint256",
							"name": "totalFees",
							"type": "uint256"
						}
					],
					"stateMutability": "view",
					"type": "function"
				},
				{
					"inputs": [],
					"name": "owner",
					"outputs": [
						{
							"internalType": "address",
							"name": "",
							"type": "address"
						}
					],
					"stateMutability": "view",
					"type": "function"
				},
				{
					"inputs": [
						{
							"internalType": "address",
							"name": "investor",
							"type": "address"
						}
					],
					"name": "refundInvestor",
					"outputs": [],
					"stateMutability": "nonpayable",
					"type": "function"
				},
				{
					"inputs": [
						{
							"internalType": "address",
							"name": "",
							"type": "address"
						}
					],
					"name": "refunds",
					"outputs": [
						{
							"internalType": "uint256",
							"name": "",
							"type": "uint256"
						}
					],
					"stateMutability": "view",
					"type": "function"
				},
				{
					"inputs": [],
					"name": "totalFeesCollected",
					"outputs": [
						{
							"internalType": "uint256",
							"name": "",
							"type": "uint256"
						}
					],
					"stateMutability": "view",
					"type": "function"
				},
				{
					"inputs": [],
					"name": "withdrawFees",
					"outputs": [],
					"stateMutability": "nonpayable",
					"type": "function"
				}
			],
			"devdoc": {
				"kind": "dev",
				"methods": {},
				"version": 1
			},
			"evm": {
				"assembly": "    /* \"contracts/Blockchain_task.sol\":61:15390  contract Crowdfunding {... */\n  mstore(0x40, 0x80)\n    /* \"contracts/Blockchain_task.sol\":3458:3596  constructor(uint256 _campaignFee) {... */\n  callvalue\n  dup1\n  iszero\n  tag_1\n  jumpi\n  0x00\n  dup1\n  revert\ntag_1:\n  pop\n  mload(0x40)\n  sub(codesize, bytecodeSize)\n  dup1\n  bytecodeSize\n  dup4\n  codecopy\n  dup2\n  dup2\n  add\n  0x40\n  mstore\n  dup2\n  add\n  swap1\n  tag_2\n  swap2\n  swap1\n  tag_3\n  jump\t// in\ntag_2:\n    /* \"contracts/Blockchain_task.sol\":3510:3520  msg.sender */\n  caller\n    /* \"contracts/Blockchain_task.sol\":3502:3507  owner */\n  0x00\n  dup1\n    /* \"contracts/Blockchain_task.sol\":3502:3520  owner = msg.sender */\n  0x0100\n  exp\n  dup2\n  sload\n  dup2\n  0xffffffffffffffffffffffffffffffffffffffff\n  mul\n  not\n  and\n  swap1\n  dup4\n  0xffffffffffffffffffffffffffffffffffffffff\n  and\n  mul\n  or\n  swap1\n  sstore\n  pop\n    /* \"contracts/Blockchain_task.sol\":3544:3556  _campaignFee */\n  dup1\n    /* \"contracts/Blockchain_task.sol\":3530:3541  campaignFee */\n  0x01\n    /* \"contracts/Blockchain_task.sol\":3530:3556  campaignFee = _campaignFee */\n  dup2\n  swap1\n  sstore\n  pop\n    /* \"contracts/Blockchain_task.sol\":3585:3589  true */\n  0x01\n    /* \"contracts/Blockchain_task.sol\":3566:3582  isContractActive */\n  0x09\n  0x00\n    /* \"contracts/Blockchain_task.sol\":3566:3589  isContractActive = true */\n  0x0100\n  exp\n  dup2\n  sload\n  dup2\n  0xff\n  mul\n  not\n  and\n  swap1\n  dup4\n  iszero\n  iszero\n  mul\n  or\n  swap1\n  sstore\n  pop\n    /* \"contracts/Blockchain_task.sol\":3458:3596  constructor(uint256 _campaignFee) {... */\n  pop\n    /* \"contracts/Blockchain_task.sol\":61:15390  contract Crowdfunding {... */\n  jump(tag_6)\n    /* \"#utility.yul\":88:205   */\ntag_8:\n    /* \"#utility.yul\":197:198   */\n  0x00\n    /* \"#utility.yul\":194:195   */\n  dup1\n    /* \"#utility.yul\":187:199   */\n  revert\n    /* \"#utility.yul\":334:411   */\ntag_10:\n    /* \"#utility.yul\":371:378   */\n  0x00\n    /* \"#utility.yul\":400:405   */\n  dup2\n    /* \"#utility.yul\":389:405   */\n  swap1\n  pop\n    /* \"#utility.yul\":334:411   */\n  swap2\n  swap1\n  pop\n  jump\t// out\n    /* \"#utility.yul\":417:539   */\ntag_11:\n    /* \"#utility.yul\":490:514   */\n  tag_19\n    /* \"#utility.yul\":508:513   */\n  dup2\n    /* \"#utility.yul\":490:514   */\n  tag_10\n  jump\t// in\ntag_19:\n    /* \"#utility.yul\":483:488   */\n  dup2\n    /* \"#utility.yul\":480:515   */\n  eq\n    /* \"#utility.yul\":470:533   */\n  tag_20\n  jumpi\n    /* \"#utility.yul\":529:530   */\n  0x00\n    /* \"#utility.yul\":526:527   */\n  dup1\n    /* \"#utility.yul\":519:531   */\n  revert\n    /* \"#utility.yul\":470:533   */\ntag_20:\n    /* \"#utility.yul\":417:539   */\n  pop\n  jump\t// out\n    /* \"#utility.yul\":545:688   */\ntag_12:\n    /* \"#utility.yul\":602:607   */\n  0x00\n    /* \"#utility.yul\":633:639   */\n  dup2\n    /* \"#utility.yul\":627:640   */\n  mload\n    /* \"#utility.yul\":618:640   */\n  swap1\n  pop\n    /* \"#utility.yul\":649:682   */\n  tag_22\n    /* \"#utility.yul\":676:681   */\n  dup2\n    /* \"#utility.yul\":649:682   */\n  tag_11\n  jump\t// in\ntag_22:\n    /* \"#utility.yul\":545:688   */\n  swap3\n  swap2\n  pop\n  pop\n  jump\t// out\n    /* \"#utility.yul\":694:1045   */\ntag_3:\n    /* \"#utility.yul\":764:770   */\n  0x00\n    /* \"#utility.yul\":813:815   */\n  0x20\n    /* \"#utility.yul\":801:810   */\n  dup3\n    /* \"#utility.yul\":792:799   */\n  dup5\n    /* \"#utility.yul\":788:811   */\n  sub\n    /* \"#utility.yul\":784:816   */\n  slt\n    /* \"#utility.yul\":781:900   */\n  iszero\n  tag_24\n  jumpi\n    /* \"#utility.yul\":819:898   */\n  tag_25\n  tag_8\n  jump\t// in\ntag_25:\n    /* \"#utility.yul\":781:900   */\ntag_24:\n    /* \"#utility.yul\":939:940   */\n  0x00\n    /* \"#utility.yul\":964:1028   */\n  tag_26\n    /* \"#utility.yul\":1020:1027   */\n  dup5\n    /* \"#utility.yul\":1011:1017   */\n  dup3\n    /* \"#utility.yul\":1000:1009   */\n  dup6\n    /* \"#utility.yul\":996:1018   */\n  add\n    /* \"#utility.yul\":964:1028   */\n  tag_12\n  jump\t// in\ntag_26:\n    /* \"#utility.yul\":954:1028   */\n  swap2\n  pop\n    /* \"#utility.yul\":910:1038   */\n  pop\n    /* \"#utility.yul\":694:1045   */\n  swap3\n  swap2\n  pop\n  pop\n  jump\t// out\n    /* \"contracts/Blockchain_task.sol\":61:15390  contract Crowdfunding {... */\ntag_6:\n  dataSize(sub_0)\n  dup1\n  dataOffset(sub_0)\n  0x00\n  codecopy\n  0x00\n  return\nstop\n\nsub_0: assembly {\n        /* \"contracts/Blockchain_task.sol\":61:15390  contract Crowdfunding {... */\n      mstore(0x40, 0x80)\n      jumpi(tag_1, lt(calldatasize, 0x04))\n      shr(0xe0, calldataload(0x00))\n      dup1\n      0x8da5cb5b\n      gt\n      tag_26\n      jumpi\n      dup1\n      0xbd424ee7\n      gt\n      tag_27\n      jumpi\n      dup1\n      0xbd424ee7\n      eq\n      tag_20\n      jumpi\n      dup1\n      0xc0751ba4\n      eq\n      tag_21\n      jumpi\n      dup1\n      0xc362b156\n      eq\n      tag_22\n      jumpi\n      dup1\n      0xde564098\n      eq\n      tag_23\n      jumpi\n      dup1\n      0xed68b685\n      eq\n      tag_24\n      jumpi\n      dup1\n      0xff53c5a3\n      eq\n      tag_25\n      jumpi\n      jump(tag_1)\n    tag_27:\n      dup1\n      0x8da5cb5b\n      eq\n      tag_14\n      jumpi\n      dup1\n      0x9553f180\n      eq\n      tag_15\n      jumpi\n      dup1\n      0xa6f9dae1\n      eq\n      tag_16\n      jumpi\n      dup1\n      0xad59be99\n      eq\n      tag_17\n      jumpi\n      dup1\n      0xb41ead0a\n      eq\n      tag_18\n      jumpi\n      dup1\n      0xbc3da535\n      eq\n      tag_19\n      jumpi\n      jump(tag_1)\n    tag_26:\n      dup1\n      0x476343ee\n      gt\n      tag_28\n      jumpi\n      dup1\n      0x476343ee\n      eq\n      tag_8\n      jumpi\n      dup1\n      0x60c6d8ae\n      eq\n      tag_9\n      jumpi\n      dup1\n      0x626e1ae7\n      eq\n      tag_10\n      jumpi\n      dup1\n      0x63338b17\n      eq\n      tag_11\n      jumpi\n      dup1\n      0x8a5be9b7\n      eq\n      tag_12\n      jumpi\n      dup1\n      0x8bc95413\n      eq\n      tag_13\n      jumpi\n      jump(tag_1)\n    tag_28:\n      dup1\n      0x092a5cce\n      eq\n      tag_2\n      jumpi\n      dup1\n      0x141961bc\n      eq\n      tag_3\n      jumpi\n      dup1\n      0x2b7393fb\n      eq\n      tag_4\n      jumpi\n      dup1\n      0x3020580b\n      eq\n      tag_5\n      jumpi\n      dup1\n      0x3c3ae5b8\n      eq\n      tag_6\n      jumpi\n      dup1\n      0x45598b4a\n      eq\n      tag_7\n      jumpi\n    tag_1:\n      0x00\n      dup1\n      revert\n        /* \"contracts/Blockchain_task.sol\":14584:15388  function destroyContract() public onlyOwner {... */\n    tag_2:\n      callvalue\n      dup1\n      iszero\n      tag_29\n      jumpi\n      0x00\n      dup1\n      revert\n    tag_29:\n      pop\n      tag_30\n      tag_31\n      jump\t// in\n    tag_30:\n      stop\n        /* \"contracts/Blockchain_task.sol\":1030:1075  mapping(uint256 => Campaign) public campaigns */\n    tag_3:\n      callvalue\n      dup1\n      iszero\n      tag_32\n      jumpi\n      0x00\n      dup1\n      revert\n    tag_32:\n      pop\n      tag_33\n      0x04\n      dup1\n      calldatasize\n      sub\n      dup2\n      add\n      swap1\n      tag_34\n      swap2\n      swap1\n      tag_35\n      jump\t// in\n    tag_34:\n      tag_36\n      jump\t// in\n    tag_33:\n      mload(0x40)\n      tag_37\n      swap10\n      swap9\n      swap8\n      swap7\n      swap6\n      swap5\n      swap4\n      swap3\n      swap2\n      swap1\n      tag_38\n      jump\t// in\n    tag_37:\n      mload(0x40)\n      dup1\n      swap2\n      sub\n      swap1\n      return\n        /* \"contracts/Blockchain_task.sol\":4415:5314  function campaignFunding(uint256 numberOfShares, uint256 campaignId)... */\n    tag_4:\n      tag_39\n      0x04\n      dup1\n      calldatasize\n      sub\n      dup2\n      add\n      swap1\n      tag_40\n      swap2\n      swap1\n      tag_41\n      jump\t// in\n    tag_40:\n      tag_42\n      jump\t// in\n    tag_39:\n      stop\n        /* \"contracts/Blockchain_task.sol\":3649:4382  function createCampaign(... */\n    tag_5:\n      tag_43\n      0x04\n      dup1\n      calldatasize\n      sub\n      dup2\n      add\n      swap1\n      tag_44\n      swap2\n      swap1\n      tag_45\n      jump\t// in\n    tag_44:\n      tag_46\n      jump\t// in\n    tag_43:\n      stop\n        /* \"contracts/Blockchain_task.sol\":9935:11221  function getCompletedCampaigns()... */\n    tag_6:\n      callvalue\n      dup1\n      iszero\n      tag_47\n      jumpi\n      0x00\n      dup1\n      revert\n    tag_47:\n      pop\n      tag_48\n      tag_49\n      jump\t// in\n    tag_48:\n      mload(0x40)\n      tag_50\n      swap2\n      swap1\n      tag_51\n      jump\t// in\n    tag_50:\n      mload(0x40)\n      dup1\n      swap2\n      sub\n      swap1\n      return\n        /* \"contracts/Blockchain_task.sol\":5346:6277  function cancelCampaign(uint256 campaignId)... */\n    tag_7:\n      callvalue\n      dup1\n      iszero\n      tag_52\n      jumpi\n      0x00\n      dup1\n      revert\n    tag_52:\n      pop\n      tag_53\n      0x04\n      dup1\n      calldatasize\n      sub\n      dup2\n      add\n      swap1\n      tag_54\n      swap2\n      swap1\n      tag_35\n      jump\t// in\n    tag_54:\n      tag_55\n      jump\t// in\n    tag_53:\n      stop\n        /* \"contracts/Blockchain_task.sol\":8031:8319  function withdrawFees() public onlyOwner activeContract {... */\n    tag_8:\n      callvalue\n      dup1\n      iszero\n      tag_56\n      jumpi\n      0x00\n      dup1\n      revert\n    tag_56:\n      pop\n      tag_57\n      tag_58\n      jump\t// in\n    tag_57:\n      stop\n        /* \"contracts/Blockchain_task.sol\":847:880  uint256 public totalFeesCollected */\n    tag_9:\n      callvalue\n      dup1\n      iszero\n      tag_59\n      jumpi\n      0x00\n      dup1\n      revert\n    tag_59:\n      pop\n      tag_60\n      tag_61\n      jump\t// in\n    tag_60:\n      mload(0x40)\n      tag_62\n      swap2\n      swap1\n      tag_63\n      jump\t// in\n    tag_62:\n      mload(0x40)\n      dup1\n      swap2\n      sub\n      swap1\n      return\n        /* \"contracts/Blockchain_task.sol\":12480:13175  function getTotalFees() public view returns (uint256 totalFees) {... */\n    tag_10:\n      callvalue\n      dup1\n      iszero\n      tag_64\n      jumpi\n      0x00\n      dup1\n      revert\n    tag_64:\n      pop\n      tag_65\n      tag_66\n      jump\t// in\n    tag_65:\n      mload(0x40)\n      tag_67\n      swap2\n      swap1\n      tag_63\n      jump\t// in\n    tag_67:\n      mload(0x40)\n      dup1\n      swap2\n      sub\n      swap1\n      return\n        /* \"contracts/Blockchain_task.sol\":8325:8634  function getActiveCount() public view returns (uint256) {... */\n    tag_11:\n      callvalue\n      dup1\n      iszero\n      tag_68\n      jumpi\n      0x00\n      dup1\n      revert\n    tag_68:\n      pop\n      tag_69\n      tag_70\n      jump\t// in\n    tag_69:\n      mload(0x40)\n      tag_71\n      swap2\n      swap1\n      tag_63\n      jump\t// in\n    tag_71:\n      mload(0x40)\n      dup1\n      swap2\n      sub\n      swap1\n      return\n        /* \"contracts/Blockchain_task.sol\":762:788  uint256 public campaignFee */\n    tag_12:\n      callvalue\n      dup1\n      iszero\n      tag_72\n      jumpi\n      0x00\n      dup1\n      revert\n    tag_72:\n      pop\n      tag_73\n      tag_74\n      jump\t// in\n    tag_73:\n      mload(0x40)\n      tag_75\n      swap2\n      swap1\n      tag_63\n      jump\t// in\n    tag_75:\n      mload(0x40)\n      dup1\n      swap2\n      sub\n      swap1\n      return\n        /* \"contracts/Blockchain_task.sol\":14121:14349  function banInvestor(address investor) public onlyOwner notBanned {... */\n    tag_13:\n      callvalue\n      dup1\n      iszero\n      tag_76\n      jumpi\n      0x00\n      dup1\n      revert\n    tag_76:\n      pop\n      tag_77\n      0x04\n      dup1\n      calldatasize\n      sub\n      dup2\n      add\n      swap1\n      tag_78\n      swap2\n      swap1\n      tag_79\n      jump\t// in\n    tag_78:\n      tag_80\n      jump\t// in\n    tag_77:\n      stop\n        /* \"contracts/Blockchain_task.sol\":691:711  address public owner */\n    tag_14:\n      callvalue\n      dup1\n      iszero\n      tag_81\n      jumpi\n      0x00\n      dup1\n      revert\n    tag_81:\n      pop\n      tag_82\n      tag_83\n      jump\t// in\n    tag_82:\n      mload(0x40)\n      tag_84\n      swap2\n      swap1\n      tag_85\n      jump\t// in\n    tag_84:\n      mload(0x40)\n      dup1\n      swap2\n      sub\n      swap1\n      return\n        /* \"contracts/Blockchain_task.sol\":7107:7995  function completeCampaign(uint256 campaignId)... */\n    tag_15:\n      callvalue\n      dup1\n      iszero\n      tag_86\n      jumpi\n      0x00\n      dup1\n      revert\n    tag_86:\n      pop\n      tag_87\n      0x04\n      dup1\n      calldatasize\n      sub\n      dup2\n      add\n      swap1\n      tag_88\n      swap2\n      swap1\n      tag_35\n      jump\t// in\n    tag_88:\n      tag_89\n      jump\t// in\n    tag_87:\n      stop\n        /* \"contracts/Blockchain_task.sol\":14384:14554  function changeOwner(address newOwner) public onlyOwner {... */\n    tag_16:\n      callvalue\n      dup1\n      iszero\n      tag_90\n      jumpi\n      0x00\n      dup1\n      revert\n    tag_90:\n      pop\n      tag_91\n      0x04\n      dup1\n      calldatasize\n      sub\n      dup2\n      add\n      swap1\n      tag_92\n      swap2\n      swap1\n      tag_79\n      jump\t// in\n    tag_92:\n      tag_93\n      jump\t// in\n    tag_91:\n      stop\n        /* \"contracts/Blockchain_task.sol\":1124:1152  uint256 public bannedCounter */\n    tag_17:\n      callvalue\n      dup1\n      iszero\n      tag_94\n      jumpi\n      0x00\n      dup1\n      revert\n    tag_94:\n      pop\n      tag_95\n      tag_96\n      jump\t// in\n    tag_95:\n      mload(0x40)\n      tag_97\n      swap2\n      swap1\n      tag_63\n      jump\t// in\n    tag_97:\n      mload(0x40)\n      dup1\n      swap2\n      sub\n      swap1\n      return\n        /* \"contracts/Blockchain_task.sol\":13358:14073  function getInvestorsAndShares(uint256 campaignId)... */\n    tag_18:\n      callvalue\n      dup1\n      iszero\n      tag_98\n      jumpi\n      0x00\n      dup1\n      revert\n    tag_98:\n      pop\n      tag_99\n      0x04\n      dup1\n      calldatasize\n      sub\n      dup2\n      add\n      swap1\n      tag_100\n      swap2\n      swap1\n      tag_35\n      jump\t// in\n    tag_100:\n      tag_101\n      jump\t// in\n    tag_99:\n      mload(0x40)\n      tag_102\n      swap3\n      swap2\n      swap1\n      tag_103\n      jump\t// in\n    tag_102:\n      mload(0x40)\n      dup1\n      swap2\n      sub\n      swap1\n      return\n        /* \"contracts/Blockchain_task.sol\":1285:1327  mapping(address => uint256) public refunds */\n    tag_19:\n      callvalue\n      dup1\n      iszero\n      tag_104\n      jumpi\n      0x00\n      dup1\n      revert\n    tag_104:\n      pop\n      tag_105\n      0x04\n      dup1\n      calldatasize\n      sub\n      dup2\n      add\n      swap1\n      tag_106\n      swap2\n      swap1\n      tag_79\n      jump\t// in\n    tag_106:\n      tag_107\n      jump\t// in\n    tag_105:\n      mload(0x40)\n      tag_108\n      swap2\n      swap1\n      tag_63\n      jump\t// in\n    tag_108:\n      mload(0x40)\n      dup1\n      swap2\n      sub\n      swap1\n      return\n        /* \"contracts/Blockchain_task.sol\":1158:1200  mapping(address => bool) public bannedList */\n    tag_20:\n      callvalue\n      dup1\n      iszero\n      tag_109\n      jumpi\n      0x00\n      dup1\n      revert\n    tag_109:\n      pop\n      tag_110\n      0x04\n      dup1\n      calldatasize\n      sub\n      dup2\n      add\n      swap1\n      tag_111\n      swap2\n      swap1\n      tag_79\n      jump\t// in\n    tag_111:\n      tag_112\n      jump\t// in\n    tag_110:\n      mload(0x40)\n      tag_113\n      swap2\n      swap1\n      tag_114\n      jump\t// in\n    tag_113:\n      mload(0x40)\n      dup1\n      swap2\n      sub\n      swap1\n      return\n        /* \"contracts/Blockchain_task.sol\":11254:12462  function getCancelledCampaigns()... */\n    tag_21:\n      callvalue\n      dup1\n      iszero\n      tag_115\n      jumpi\n      0x00\n      dup1\n      revert\n    tag_115:\n      pop\n      tag_116\n      tag_117\n      jump\t// in\n    tag_116:\n      mload(0x40)\n      tag_118\n      swap2\n      swap1\n      tag_51\n      jump\t// in\n    tag_118:\n      mload(0x40)\n      dup1\n      swap2\n      sub\n      swap1\n      return\n        /* \"contracts/Blockchain_task.sol\":8682:9902  function getActiveCampaigns() public view returns (CampaignInfo[] memory) {... */\n    tag_22:\n      callvalue\n      dup1\n      iszero\n      tag_119\n      jumpi\n      0x00\n      dup1\n      revert\n    tag_119:\n      pop\n      tag_120\n      tag_121\n      jump\t// in\n    tag_120:\n      mload(0x40)\n      tag_122\n      swap2\n      swap1\n      tag_51\n      jump\t// in\n    tag_122:\n      mload(0x40)\n      dup1\n      swap2\n      sub\n      swap1\n      return\n        /* \"contracts/Blockchain_task.sol\":13205:13313  function getBannedInvestors() public view returns (address[] memory) {... */\n    tag_23:\n      callvalue\n      dup1\n      iszero\n      tag_123\n      jumpi\n      0x00\n      dup1\n      revert\n    tag_123:\n      pop\n      tag_124\n      tag_125\n      jump\t// in\n    tag_124:\n      mload(0x40)\n      tag_126\n      swap2\n      swap1\n      tag_127\n      jump\t// in\n    tag_126:\n      mload(0x40)\n      dup1\n      swap2\n      sub\n      swap1\n      return\n        /* \"contracts/Blockchain_task.sol\":1247:1279  address[] public bannedAddresses */\n    tag_24:\n      callvalue\n      dup1\n      iszero\n      tag_128\n      jumpi\n      0x00\n      dup1\n      revert\n    tag_128:\n      pop\n      tag_129\n      0x04\n      dup1\n      calldatasize\n      sub\n      dup2\n      add\n      swap1\n      tag_130\n      swap2\n      swap1\n      tag_35\n      jump\t// in\n    tag_130:\n      tag_131\n      jump\t// in\n    tag_129:\n      mload(0x40)\n      tag_132\n      swap2\n      swap1\n      tag_85\n      jump\t// in\n    tag_132:\n      mload(0x40)\n      dup1\n      swap2\n      sub\n      swap1\n      return\n        /* \"contracts/Blockchain_task.sol\":6283:7071  function refundInvestor(address investor) public {... */\n    tag_25:\n      callvalue\n      dup1\n      iszero\n      tag_133\n      jumpi\n      0x00\n      dup1\n      revert\n    tag_133:\n      pop\n      tag_134\n      0x04\n      dup1\n      calldatasize\n      sub\n      dup2\n      add\n      swap1\n      tag_135\n      swap2\n      swap1\n      tag_79\n      jump\t// in\n    tag_135:\n      tag_136\n      jump\t// in\n    tag_134:\n      stop\n        /* \"contracts/Blockchain_task.sol\":14584:15388  function destroyContract() public onlyOwner {... */\n    tag_31:\n        /* \"contracts/Blockchain_task.sol\":2067:2072  owner */\n      0x00\n      dup1\n      sload\n      swap1\n      0x0100\n      exp\n      swap1\n      div\n      0xffffffffffffffffffffffffffffffffffffffff\n      and\n        /* \"contracts/Blockchain_task.sol\":2053:2072  msg.sender == owner */\n      0xffffffffffffffffffffffffffffffffffffffff\n      and\n        /* \"contracts/Blockchain_task.sol\":2053:2063  msg.sender */\n      caller\n        /* \"contracts/Blockchain_task.sol\":2053:2072  msg.sender == owner */\n      0xffffffffffffffffffffffffffffffffffffffff\n      and\n      eq\n        /* \"contracts/Blockchain_task.sol\":2032:2138  require(... */\n      tag_138\n      jumpi\n      mload(0x40)\n      0x08c379a000000000000000000000000000000000000000000000000000000000\n      dup2\n      mstore\n      0x04\n      add\n      tag_139\n      swap1\n      tag_140\n      jump\t// in\n    tag_139:\n      mload(0x40)\n      dup1\n      swap2\n      sub\n      swap1\n      revert\n    tag_138:\n        /* \"contracts/Blockchain_task.sol\":14643:14652  uint256 i */\n      0x00\n        /* \"contracts/Blockchain_task.sol\":14638:15382  for (uint256 i = 0; i < campaignCounter; i++) {... */\n    tag_142:\n        /* \"contracts/Blockchain_task.sol\":14662:14677  campaignCounter */\n      sload(0x03)\n        /* \"contracts/Blockchain_task.sol\":14658:14659  i */\n      dup2\n        /* \"contracts/Blockchain_task.sol\":14658:14677  i < campaignCounter */\n      lt\n        /* \"contracts/Blockchain_task.sol\":14638:15382  for (uint256 i = 0; i < campaignCounter; i++) {... */\n      iszero\n      tag_143\n      jumpi\n        /* \"contracts/Blockchain_task.sol\":14698:14723  Campaign storage campaign */\n      0x00\n        /* \"contracts/Blockchain_task.sol\":14726:14735  campaigns */\n      0x04\n        /* \"contracts/Blockchain_task.sol\":14726:14738  campaigns[i] */\n      0x00\n        /* \"contracts/Blockchain_task.sol\":14736:14737  i */\n      dup4\n        /* \"contracts/Blockchain_task.sol\":14726:14738  campaigns[i] */\n      dup2\n      mstore\n      0x20\n      add\n      swap1\n      dup2\n      mstore\n      0x20\n      add\n      0x00\n      keccak256\n        /* \"contracts/Blockchain_task.sol\":14698:14738  Campaign storage campaign = campaigns[i] */\n      swap1\n      pop\n        /* \"contracts/Blockchain_task.sol\":14818:14826  campaign */\n      dup1\n        /* \"contracts/Blockchain_task.sol\":14818:14838  campaign.isCancelled */\n      0x06\n      add\n      0x01\n      swap1\n      sload\n      swap1\n      0x0100\n      exp\n      swap1\n      div\n      0xff\n      and\n        /* \"contracts/Blockchain_task.sol\":14818:14862  campaign.isCancelled || campaign.isCompleted */\n      dup1\n      tag_145\n      jumpi\n      pop\n        /* \"contracts/Blockchain_task.sol\":14842:14850  campaign */\n      dup1\n        /* \"contracts/Blockchain_task.sol\":14842:14862  campaign.isCompleted */\n      0x06\n      add\n      0x02\n      swap1\n      sload\n      swap1\n      0x0100\n      exp\n      swap1\n      div\n      0xff\n      and\n        /* \"contracts/Blockchain_task.sol\":14818:14862  campaign.isCancelled || campaign.isCompleted */\n    tag_145:\n        /* \"contracts/Blockchain_task.sol\":14814:14905  if (campaign.isCancelled || campaign.isCompleted) {... */\n      iszero\n      tag_146\n      jumpi\n        /* \"contracts/Blockchain_task.sol\":14882:14890  continue */\n      pop\n      jump(tag_144)\n        /* \"contracts/Blockchain_task.sol\":14814:14905  if (campaign.isCancelled || campaign.isCompleted) {... */\n    tag_146:\n        /* \"contracts/Blockchain_task.sol\":14939:14944  false */\n      0x00\n        /* \"contracts/Blockchain_task.sol\":14919:14927  campaign */\n      dup2\n        /* \"contracts/Blockchain_task.sol\":14919:14936  campaign.isActive */\n      0x06\n      add\n      0x00\n        /* \"contracts/Blockchain_task.sol\":14919:14944  campaign.isActive = false */\n      0x0100\n      exp\n      dup2\n      sload\n      dup2\n      0xff\n      mul\n      not\n      and\n      swap1\n      dup4\n      iszero\n      iszero\n      mul\n      or\n      swap1\n      sstore\n      pop\n        /* \"contracts/Blockchain_task.sol\":14981:14985  true */\n      0x01\n        /* \"contracts/Blockchain_task.sol\":14958:14966  campaign */\n      dup2\n        /* \"contracts/Blockchain_task.sol\":14958:14978  campaign.isCancelled */\n      0x06\n      add\n      0x01\n        /* \"contracts/Blockchain_task.sol\":14958:14985  campaign.isCancelled = true */\n      0x0100\n      exp\n      dup2\n      sload\n      dup2\n      0xff\n      mul\n      not\n      and\n      swap1\n      dup4\n      iszero\n      iszero\n      mul\n      or\n      swap1\n      sstore\n      pop\n        /* \"contracts/Blockchain_task.sol\":15069:15078  uint256 j */\n      0x00\n        /* \"contracts/Blockchain_task.sol\":15064:15372  for (uint256 j = 0; j < campaign.backers.length; j++) {... */\n    tag_147:\n        /* \"contracts/Blockchain_task.sol\":15088:15096  campaign */\n      dup2\n        /* \"contracts/Blockchain_task.sol\":15088:15104  campaign.backers */\n      0x07\n      add\n        /* \"contracts/Blockchain_task.sol\":15088:15111  campaign.backers.length */\n      dup1\n      sload\n      swap1\n      pop\n        /* \"contracts/Blockchain_task.sol\":15084:15085  j */\n      dup2\n        /* \"contracts/Blockchain_task.sol\":15084:15111  j < campaign.backers.length */\n      lt\n        /* \"contracts/Blockchain_task.sol\":15064:15372  for (uint256 j = 0; j < campaign.backers.length; j++) {... */\n      iszero\n      tag_148\n      jumpi\n        /* \"contracts/Blockchain_task.sol\":15136:15150  address backer */\n      0x00\n        /* \"contracts/Blockchain_task.sol\":15153:15161  campaign */\n      dup3\n        /* \"contracts/Blockchain_task.sol\":15153:15169  campaign.backers */\n      0x07\n      add\n        /* \"contracts/Blockchain_task.sol\":15170:15171  j */\n      dup3\n        /* \"contracts/Blockchain_task.sol\":15153:15172  campaign.backers[j] */\n      dup2\n      sload\n      dup2\n      lt\n      tag_150\n      jumpi\n      tag_151\n      tag_152\n      jump\t// in\n    tag_151:\n    tag_150:\n      swap1\n      0x00\n      mstore\n      keccak256(0x00, 0x20)\n      add\n      0x00\n      swap1\n      sload\n      swap1\n      0x0100\n      exp\n      swap1\n      div\n      0xffffffffffffffffffffffffffffffffffffffff\n      and\n        /* \"contracts/Blockchain_task.sol\":15136:15172  address backer = campaign.backers[j] */\n      swap1\n      pop\n        /* \"contracts/Blockchain_task.sol\":15190:15204  uint256 shares */\n      0x00\n        /* \"contracts/Blockchain_task.sol\":15207:15215  campaign */\n      dup4\n        /* \"contracts/Blockchain_task.sol\":15207:15231  campaign.sharesPerBacker */\n      0x08\n      add\n        /* \"contracts/Blockchain_task.sol\":15207:15239  campaign.sharesPerBacker[backer] */\n      0x00\n        /* \"contracts/Blockchain_task.sol\":15232:15238  backer */\n      dup4\n        /* \"contracts/Blockchain_task.sol\":15207:15239  campaign.sharesPerBacker[backer] */\n      0xffffffffffffffffffffffffffffffffffffffff\n      and\n      0xffffffffffffffffffffffffffffffffffffffff\n      and\n      dup2\n      mstore\n      0x20\n      add\n      swap1\n      dup2\n      mstore\n      0x20\n      add\n      0x00\n      keccak256\n      sload\n        /* \"contracts/Blockchain_task.sol\":15190:15239  uint256 shares = campaign.sharesPerBacker[backer] */\n      swap1\n      pop\n        /* \"contracts/Blockchain_task.sol\":15257:15277  uint256 refundAmount */\n      0x00\n        /* \"contracts/Blockchain_task.sol\":15289:15297  campaign */\n      dup5\n        /* \"contracts/Blockchain_task.sol\":15289:15308  campaign.sharePrice */\n      0x03\n      add\n      sload\n        /* \"contracts/Blockchain_task.sol\":15280:15286  shares */\n      dup3\n        /* \"contracts/Blockchain_task.sol\":15280:15308  shares * campaign.sharePrice */\n      tag_154\n      swap2\n      swap1\n      tag_155\n      jump\t// in\n    tag_154:\n        /* \"contracts/Blockchain_task.sol\":15257:15308  uint256 refundAmount = shares * campaign.sharePrice */\n      swap1\n      pop\n        /* \"contracts/Blockchain_task.sol\":15345:15357  refundAmount */\n      dup1\n        /* \"contracts/Blockchain_task.sol\":15326:15333  refunds */\n      0x08\n        /* \"contracts/Blockchain_task.sol\":15326:15341  refunds[backer] */\n      0x00\n        /* \"contracts/Blockchain_task.sol\":15334:15340  backer */\n      dup6\n        /* \"contracts/Blockchain_task.sol\":15326:15341  refunds[backer] */\n      0xffffffffffffffffffffffffffffffffffffffff\n      and\n      0xffffffffffffffffffffffffffffffffffffffff\n      and\n      dup2\n      mstore\n      0x20\n      add\n      swap1\n      dup2\n      mstore\n      0x20\n      add\n      0x00\n      keccak256\n      0x00\n        /* \"contracts/Blockchain_task.sol\":15326:15357  refunds[backer] += refundAmount */\n      dup3\n      dup3\n      sload\n      tag_156\n      swap2\n      swap1\n      tag_157\n      jump\t// in\n    tag_156:\n      swap3\n      pop\n      pop\n      dup2\n      swap1\n      sstore\n      pop\n        /* \"contracts/Blockchain_task.sol\":15118:15372  {... */\n      pop\n      pop\n      pop\n        /* \"contracts/Blockchain_task.sol\":15113:15116  j++ */\n      dup1\n      dup1\n      0x01\n      add\n      swap2\n      pop\n      pop\n        /* \"contracts/Blockchain_task.sol\":15064:15372  for (uint256 j = 0; j < campaign.backers.length; j++) {... */\n      jump(tag_147)\n    tag_148:\n      pop\n        /* \"contracts/Blockchain_task.sol\":14684:15382  {... */\n      pop\n        /* \"contracts/Blockchain_task.sol\":14638:15382  for (uint256 i = 0; i < campaignCounter; i++) {... */\n    tag_144:\n        /* \"contracts/Blockchain_task.sol\":14679:14682  i++ */\n      dup1\n      dup1\n      0x01\n      add\n      swap2\n      pop\n      pop\n        /* \"contracts/Blockchain_task.sol\":14638:15382  for (uint256 i = 0; i < campaignCounter; i++) {... */\n      jump(tag_142)\n    tag_143:\n      pop\n        /* \"contracts/Blockchain_task.sol\":14584:15388  function destroyContract() public onlyOwner {... */\n      jump\t// out\n        /* \"contracts/Blockchain_task.sol\":1030:1075  mapping(uint256 => Campaign) public campaigns */\n    tag_36:\n      mstore(0x20, 0x04)\n      dup1\n      0x00\n      mstore\n      keccak256(0x00, 0x40)\n      0x00\n      swap2\n      pop\n      swap1\n      pop\n      dup1\n      0x00\n      add\n      sload\n      swap1\n      dup1\n      0x01\n      add\n      0x00\n      swap1\n      sload\n      swap1\n      0x0100\n      exp\n      swap1\n      div\n      0xffffffffffffffffffffffffffffffffffffffff\n      and\n      swap1\n      dup1\n      0x02\n      add\n      dup1\n      sload\n      tag_158\n      swap1\n      tag_159\n      jump\t// in\n    tag_158:\n      dup1\n      0x1f\n      add\n      0x20\n      dup1\n      swap2\n      div\n      mul\n      0x20\n      add\n      mload(0x40)\n      swap1\n      dup2\n      add\n      0x40\n      mstore\n      dup1\n      swap3\n      swap2\n      swap1\n      dup2\n      dup2\n      mstore\n      0x20\n      add\n      dup3\n      dup1\n      sload\n      tag_160\n      swap1\n      tag_159\n      jump\t// in\n    tag_160:\n      dup1\n      iszero\n      tag_161\n      jumpi\n      dup1\n      0x1f\n      lt\n      tag_162\n      jumpi\n      0x0100\n      dup1\n      dup4\n      sload\n      div\n      mul\n      dup4\n      mstore\n      swap2\n      0x20\n      add\n      swap2\n      jump(tag_161)\n    tag_162:\n      dup3\n      add\n      swap2\n      swap1\n      0x00\n      mstore\n      keccak256(0x00, 0x20)\n      swap1\n    tag_163:\n      dup2\n      sload\n      dup2\n      mstore\n      swap1\n      0x01\n      add\n      swap1\n      0x20\n      add\n      dup1\n      dup4\n      gt\n      tag_163\n      jumpi\n      dup3\n      swap1\n      sub\n      0x1f\n      and\n      dup3\n      add\n      swap2\n    tag_161:\n      pop\n      pop\n      pop\n      pop\n      pop\n      swap1\n      dup1\n      0x03\n      add\n      sload\n      swap1\n      dup1\n      0x04\n      add\n      sload\n      swap1\n      dup1\n      0x05\n      add\n      sload\n      swap1\n      dup1\n      0x06\n      add\n      0x00\n      swap1\n      sload\n      swap1\n      0x0100\n      exp\n      swap1\n      div\n      0xff\n      and\n      swap1\n      dup1\n      0x06\n      add\n      0x01\n      swap1\n      sload\n      swap1\n      0x0100\n      exp\n      swap1\n      div\n      0xff\n      and\n      swap1\n      dup1\n      0x06\n      add\n      0x02\n      swap1\n      sload\n      swap1\n      0x0100\n      exp\n      swap1\n      div\n      0xff\n      and\n      swap1\n      pop\n      dup10\n      jump\t// out\n        /* \"contracts/Blockchain_task.sol\":4415:5314  function campaignFunding(uint256 numberOfShares, uint256 campaignId)... */\n    tag_42:\n        /* \"contracts/Blockchain_task.sol\":2338:2343  owner */\n      0x00\n      dup1\n      sload\n      swap1\n      0x0100\n      exp\n      swap1\n      div\n      0xffffffffffffffffffffffffffffffffffffffff\n      and\n        /* \"contracts/Blockchain_task.sol\":2324:2343  msg.sender != owner */\n      0xffffffffffffffffffffffffffffffffffffffff\n      and\n        /* \"contracts/Blockchain_task.sol\":2324:2334  msg.sender */\n      caller\n        /* \"contracts/Blockchain_task.sol\":2324:2343  msg.sender != owner */\n      0xffffffffffffffffffffffffffffffffffffffff\n      and\n      sub\n        /* \"contracts/Blockchain_task.sol\":2303:2417  require(... */\n      tag_165\n      jumpi\n      mload(0x40)\n      0x08c379a000000000000000000000000000000000000000000000000000000000\n      dup2\n      mstore\n      0x04\n      add\n      tag_166\n      swap1\n      tag_167\n      jump\t// in\n    tag_166:\n      mload(0x40)\n      dup1\n      swap2\n      sub\n      swap1\n      revert\n    tag_165:\n        /* \"contracts/Blockchain_task.sol\":2481:2491  bannedList */\n      0x06\n        /* \"contracts/Blockchain_task.sol\":2481:2503  bannedList[msg.sender] */\n      0x00\n        /* \"contracts/Blockchain_task.sol\":2492:2502  msg.sender */\n      caller\n        /* \"contracts/Blockchain_task.sol\":2481:2503  bannedList[msg.sender] */\n      0xffffffffffffffffffffffffffffffffffffffff\n      and\n      0xffffffffffffffffffffffffffffffffffffffff\n      and\n      dup2\n      mstore\n      0x20\n      add\n      swap1\n      dup2\n      mstore\n      0x20\n      add\n      0x00\n      keccak256\n      0x00\n      swap1\n      sload\n      swap1\n      0x0100\n      exp\n      swap1\n      div\n      0xff\n      and\n        /* \"contracts/Blockchain_task.sol\":2480:2503  !bannedList[msg.sender] */\n      iszero\n        /* \"contracts/Blockchain_task.sol\":2472:2525  require(!bannedList[msg.sender], \"Address is banned\") */\n      tag_169\n      jumpi\n      mload(0x40)\n      0x08c379a000000000000000000000000000000000000000000000000000000000\n      dup2\n      mstore\n      0x04\n      add\n      tag_170\n      swap1\n      tag_171\n      jump\t// in\n    tag_170:\n      mload(0x40)\n      dup1\n      swap2\n      sub\n      swap1\n      revert\n    tag_169:\n        /* \"contracts/Blockchain_task.sol\":4573:4583  campaignId */\n      dup1\n        /* \"contracts/Blockchain_task.sol\":2611:2620  campaigns */\n      0x04\n        /* \"contracts/Blockchain_task.sol\":2611:2632  campaigns[campaignId] */\n      0x00\n        /* \"contracts/Blockchain_task.sol\":2621:2631  campaignId */\n      dup3\n        /* \"contracts/Blockchain_task.sol\":2611:2632  campaigns[campaignId] */\n      dup2\n      mstore\n      0x20\n      add\n      swap1\n      dup2\n      mstore\n      0x20\n      add\n      0x00\n      keccak256\n        /* \"contracts/Blockchain_task.sol\":2611:2641  campaigns[campaignId].isActive */\n      0x06\n      add\n      0x00\n      swap1\n      sload\n      swap1\n      0x0100\n      exp\n      swap1\n      div\n      0xff\n      and\n        /* \"contracts/Blockchain_task.sol\":2603:2668  require(campaigns[campaignId].isActive, \"Campaign is not active\") */\n      tag_173\n      jumpi\n      mload(0x40)\n      0x08c379a000000000000000000000000000000000000000000000000000000000\n      dup2\n      mstore\n      0x04\n      add\n      tag_174\n      swap1\n      tag_175\n      jump\t// in\n    tag_174:\n      mload(0x40)\n      dup1\n      swap2\n      sub\n      swap1\n      revert\n    tag_173:\n        /* \"contracts/Blockchain_task.sol\":4606:4616  campaignId */\n      dup2\n        /* \"contracts/Blockchain_task.sol\":2753:2762  campaigns */\n      0x04\n        /* \"contracts/Blockchain_task.sol\":2753:2774  campaigns[campaignId] */\n      0x00\n        /* \"contracts/Blockchain_task.sol\":2763:2773  campaignId */\n      dup3\n        /* \"contracts/Blockchain_task.sol\":2753:2774  campaigns[campaignId] */\n      dup2\n      mstore\n      0x20\n      add\n      swap1\n      dup2\n      mstore\n      0x20\n      add\n      0x00\n      keccak256\n        /* \"contracts/Blockchain_task.sol\":2753:2786  campaigns[campaignId].isCancelled */\n      0x06\n      add\n      0x01\n      swap1\n      sload\n      swap1\n      0x0100\n      exp\n      swap1\n      div\n      0xff\n      and\n        /* \"contracts/Blockchain_task.sol\":2752:2786  !campaigns[campaignId].isCancelled */\n      iszero\n        /* \"contracts/Blockchain_task.sol\":2744:2812  require(!campaigns[campaignId].isCancelled, \"Campaign is cancelled\") */\n      tag_177\n      jumpi\n      mload(0x40)\n      0x08c379a000000000000000000000000000000000000000000000000000000000\n      dup2\n      mstore\n      0x04\n      add\n      tag_178\n      swap1\n      tag_179\n      jump\t// in\n    tag_178:\n      mload(0x40)\n      dup1\n      swap2\n      sub\n      swap1\n      revert\n    tag_177:\n        /* \"contracts/Blockchain_task.sol\":4639:4649  campaignId */\n      dup3\n        /* \"contracts/Blockchain_task.sol\":2910:2919  campaigns */\n      0x04\n        /* \"contracts/Blockchain_task.sol\":2910:2931  campaigns[campaignId] */\n      0x00\n        /* \"contracts/Blockchain_task.sol\":2920:2930  campaignId */\n      dup3\n        /* \"contracts/Blockchain_task.sol\":2910:2931  campaigns[campaignId] */\n      dup2\n      mstore\n      0x20\n      add\n      swap1\n      dup2\n      mstore\n      0x20\n      add\n      0x00\n      keccak256\n        /* \"contracts/Blockchain_task.sol\":2910:2943  campaigns[campaignId].isCompleted */\n      0x06\n      add\n      0x02\n      swap1\n      sload\n      swap1\n      0x0100\n      exp\n      swap1\n      div\n      0xff\n      and\n        /* \"contracts/Blockchain_task.sol\":2909:2943  !campaigns[campaignId].isCompleted */\n      iszero\n        /* \"contracts/Blockchain_task.sol\":2888:2998  require(... */\n      tag_181\n      jumpi\n      mload(0x40)\n      0x08c379a000000000000000000000000000000000000000000000000000000000\n      dup2\n      mstore\n      0x04\n      add\n      tag_182\n      swap1\n      tag_183\n      jump\t// in\n    tag_182:\n      mload(0x40)\n      dup1\n      swap2\n      sub\n      swap1\n      revert\n    tag_181:\n        /* \"contracts/Blockchain_task.sol\":2206:2222  isContractActive */\n      0x09\n      0x00\n      swap1\n      sload\n      swap1\n      0x0100\n      exp\n      swap1\n      div\n      0xff\n      and\n        /* \"contracts/Blockchain_task.sol\":2198:2249  require(isContractActive, \"Contract is not active\") */\n      tag_185\n      jumpi\n      mload(0x40)\n      0x08c379a000000000000000000000000000000000000000000000000000000000\n      dup2\n      mstore\n      0x04\n      add\n      tag_186\n      swap1\n      tag_187\n      jump\t// in\n    tag_186:\n      mload(0x40)\n      dup1\n      swap2\n      sub\n      swap1\n      revert\n    tag_185:\n        /* \"contracts/Blockchain_task.sol\":4688:4713  Campaign storage campaign */\n      0x00\n        /* \"contracts/Blockchain_task.sol\":4716:4725  campaigns */\n      0x04\n        /* \"contracts/Blockchain_task.sol\":4716:4737  campaigns[campaignId] */\n      0x00\n        /* \"contracts/Blockchain_task.sol\":4726:4736  campaignId */\n      dup7\n        /* \"contracts/Blockchain_task.sol\":4716:4737  campaigns[campaignId] */\n      dup2\n      mstore\n      0x20\n      add\n      swap1\n      dup2\n      mstore\n      0x20\n      add\n      0x00\n      keccak256\n        /* \"contracts/Blockchain_task.sol\":4688:4737  Campaign storage campaign = campaigns[campaignId] */\n      swap1\n      pop\n        /* \"contracts/Blockchain_task.sol\":4782:4790  campaign */\n      dup1\n        /* \"contracts/Blockchain_task.sol\":4782:4803  campaign.entrepreneur */\n      0x01\n      add\n      0x00\n      swap1\n      sload\n      swap1\n      0x0100\n      exp\n      swap1\n      div\n      0xffffffffffffffffffffffffffffffffffffffff\n      and\n        /* \"contracts/Blockchain_task.sol\":4768:4803  msg.sender != campaign.entrepreneur */\n      0xffffffffffffffffffffffffffffffffffffffff\n      and\n        /* \"contracts/Blockchain_task.sol\":4768:4778  msg.sender */\n      caller\n        /* \"contracts/Blockchain_task.sol\":4768:4803  msg.sender != campaign.entrepreneur */\n      0xffffffffffffffffffffffffffffffffffffffff\n      and\n      sub\n        /* \"contracts/Blockchain_task.sol\":4747:4856  require(... */\n      tag_189\n      jumpi\n      mload(0x40)\n      0x08c379a000000000000000000000000000000000000000000000000000000000\n      dup2\n      mstore\n      0x04\n      add\n      tag_190\n      swap1\n      tag_191\n      jump\t// in\n    tag_190:\n      mload(0x40)\n      dup1\n      swap2\n      sub\n      swap1\n      revert\n    tag_189:\n        /* \"contracts/Blockchain_task.sol\":4867:4884  uint256 totalCost */\n      0x00\n        /* \"contracts/Blockchain_task.sol\":4909:4923  numberOfShares */\n      dup7\n        /* \"contracts/Blockchain_task.sol\":4887:4895  campaign */\n      dup3\n        /* \"contracts/Blockchain_task.sol\":4887:4906  campaign.sharePrice */\n      0x03\n      add\n      sload\n        /* \"contracts/Blockchain_task.sol\":4887:4923  campaign.sharePrice * numberOfShares */\n      tag_192\n      swap2\n      swap1\n      tag_155\n      jump\t// in\n    tag_192:\n        /* \"contracts/Blockchain_task.sol\":4867:4923  uint256 totalCost = campaign.sharePrice * numberOfShares */\n      swap1\n      pop\n        /* \"contracts/Blockchain_task.sol\":5040:5049  totalCost */\n      dup1\n        /* \"contracts/Blockchain_task.sol\":5027:5036  msg.value */\n      callvalue\n        /* \"contracts/Blockchain_task.sol\":5027:5049  msg.value == totalCost */\n      eq\n        /* \"contracts/Blockchain_task.sol\":5019:5078  require(msg.value == totalCost, \"Incorrect Wei value sent\") */\n      tag_193\n      jumpi\n      mload(0x40)\n      0x08c379a000000000000000000000000000000000000000000000000000000000\n      dup2\n      mstore\n      0x04\n      add\n      tag_194\n      swap1\n      tag_195\n      jump\t// in\n    tag_194:\n      mload(0x40)\n      dup1\n      swap2\n      sub\n      swap1\n      revert\n    tag_193:\n        /* \"contracts/Blockchain_task.sol\":5115:5129  numberOfShares */\n      dup7\n        /* \"contracts/Blockchain_task.sol\":5089:5097  campaign */\n      dup3\n        /* \"contracts/Blockchain_task.sol\":5089:5111  campaign.currentShares */\n      0x05\n      add\n      0x00\n        /* \"contracts/Blockchain_task.sol\":5089:5129  campaign.currentShares += numberOfShares */\n      dup3\n      dup3\n      sload\n      tag_196\n      swap2\n      swap1\n      tag_157\n      jump\t// in\n    tag_196:\n      swap3\n      pop\n      pop\n      dup2\n      swap1\n      sstore\n      pop\n        /* \"contracts/Blockchain_task.sol\":5179:5193  numberOfShares */\n      dup7\n        /* \"contracts/Blockchain_task.sol\":5139:5147  campaign */\n      dup3\n        /* \"contracts/Blockchain_task.sol\":5139:5163  campaign.sharesPerBacker */\n      0x08\n      add\n        /* \"contracts/Blockchain_task.sol\":5139:5175  campaign.sharesPerBacker[msg.sender] */\n      0x00\n        /* \"contracts/Blockchain_task.sol\":5164:5174  msg.sender */\n      caller\n        /* \"contracts/Blockchain_task.sol\":5139:5175  campaign.sharesPerBacker[msg.sender] */\n      0xffffffffffffffffffffffffffffffffffffffff\n      and\n      0xffffffffffffffffffffffffffffffffffffffff\n      and\n      dup2\n      mstore\n      0x20\n      add\n      swap1\n      dup2\n      mstore\n      0x20\n      add\n      0x00\n      keccak256\n      0x00\n        /* \"contracts/Blockchain_task.sol\":5139:5193  campaign.sharesPerBacker[msg.sender] += numberOfShares */\n      dup3\n      dup3\n      sload\n      tag_197\n      swap2\n      swap1\n      tag_157\n      jump\t// in\n    tag_197:\n      swap3\n      pop\n      pop\n      dup2\n      swap1\n      sstore\n      pop\n        /* \"contracts/Blockchain_task.sol\":5203:5211  campaign */\n      dup2\n        /* \"contracts/Blockchain_task.sol\":5203:5219  campaign.backers */\n      0x07\n      add\n        /* \"contracts/Blockchain_task.sol\":5225:5235  msg.sender */\n      caller\n        /* \"contracts/Blockchain_task.sol\":5203:5236  campaign.backers.push(msg.sender) */\n      swap1\n      dup1\n      0x01\n      dup2\n      sload\n      add\n      dup1\n      dup3\n      sstore\n      dup1\n      swap2\n      pop\n      pop\n      0x01\n      swap1\n      sub\n      swap1\n      0x00\n      mstore\n      keccak256(0x00, 0x20)\n      add\n      0x00\n      swap1\n      swap2\n      swap1\n      swap2\n      swap1\n      swap2\n      0x0100\n      exp\n      dup2\n      sload\n      dup2\n      0xffffffffffffffffffffffffffffffffffffffff\n      mul\n      not\n      and\n      swap1\n      dup4\n      0xffffffffffffffffffffffffffffffffffffffff\n      and\n      mul\n      or\n      swap1\n      sstore\n      pop\n        /* \"contracts/Blockchain_task.sol\":5252:5307  SharesPurchased(campaignId, msg.sender, numberOfShares) */\n      0xd4a7a37d339805413b4085e0f8e0932dfb0a4f84f08f98a6e53673b5ee8eee15\n        /* \"contracts/Blockchain_task.sol\":5268:5278  campaignId */\n      dup7\n        /* \"contracts/Blockchain_task.sol\":5280:5290  msg.sender */\n      caller\n        /* \"contracts/Blockchain_task.sol\":5292:5306  numberOfShares */\n      dup10\n        /* \"contracts/Blockchain_task.sol\":5252:5307  SharesPurchased(campaignId, msg.sender, numberOfShares) */\n      mload(0x40)\n      tag_199\n      swap4\n      swap3\n      swap2\n      swap1\n      tag_200\n      jump\t// in\n    tag_199:\n      mload(0x40)\n      dup1\n      swap2\n      sub\n      swap1\n      log1\n        /* \"contracts/Blockchain_task.sol\":4678:5314  {... */\n      pop\n      pop\n        /* \"contracts/Blockchain_task.sol\":2822:2823  _ */\n      pop\n        /* \"contracts/Blockchain_task.sol\":2678:2679  _ */\n      pop\n        /* \"contracts/Blockchain_task.sol\":2535:2536  _ */\n      pop\n        /* \"contracts/Blockchain_task.sol\":4415:5314  function campaignFunding(uint256 numberOfShares, uint256 campaignId)... */\n      pop\n      pop\n      jump\t// out\n        /* \"contracts/Blockchain_task.sol\":3649:4382  function createCampaign(... */\n    tag_46:\n        /* \"contracts/Blockchain_task.sol\":2338:2343  owner */\n      0x00\n      dup1\n      sload\n      swap1\n      0x0100\n      exp\n      swap1\n      div\n      0xffffffffffffffffffffffffffffffffffffffff\n      and\n        /* \"contracts/Blockchain_task.sol\":2324:2343  msg.sender != owner */\n      0xffffffffffffffffffffffffffffffffffffffff\n      and\n        /* \"contracts/Blockchain_task.sol\":2324:2334  msg.sender */\n      caller\n        /* \"contracts/Blockchain_task.sol\":2324:2343  msg.sender != owner */\n      0xffffffffffffffffffffffffffffffffffffffff\n      and\n      sub\n        /* \"contracts/Blockchain_task.sol\":2303:2417  require(... */\n      tag_202\n      jumpi\n      mload(0x40)\n      0x08c379a000000000000000000000000000000000000000000000000000000000\n      dup2\n      mstore\n      0x04\n      add\n      tag_203\n      swap1\n      tag_167\n      jump\t// in\n    tag_203:\n      mload(0x40)\n      dup1\n      swap2\n      sub\n      swap1\n      revert\n    tag_202:\n        /* \"contracts/Blockchain_task.sol\":2481:2491  bannedList */\n      0x06\n        /* \"contracts/Blockchain_task.sol\":2481:2503  bannedList[msg.sender] */\n      0x00\n        /* \"contracts/Blockchain_task.sol\":2492:2502  msg.sender */\n      caller\n        /* \"contracts/Blockchain_task.sol\":2481:2503  bannedList[msg.sender] */\n      0xffffffffffffffffffffffffffffffffffffffff\n      and\n      0xffffffffffffffffffffffffffffffffffffffff\n      and\n      dup2\n      mstore\n      0x20\n      add\n      swap1\n      dup2\n      mstore\n      0x20\n      add\n      0x00\n      keccak256\n      0x00\n      swap1\n      sload\n      swap1\n      0x0100\n      exp\n      swap1\n      div\n      0xff\n      and\n        /* \"contracts/Blockchain_task.sol\":2480:2503  !bannedList[msg.sender] */\n      iszero\n        /* \"contracts/Blockchain_task.sol\":2472:2525  require(!bannedList[msg.sender], \"Address is banned\") */\n      tag_205\n      jumpi\n      mload(0x40)\n      0x08c379a000000000000000000000000000000000000000000000000000000000\n      dup2\n      mstore\n      0x04\n      add\n      tag_206\n      swap1\n      tag_171\n      jump\t// in\n    tag_206:\n      mload(0x40)\n      dup1\n      swap2\n      sub\n      swap1\n      revert\n    tag_205:\n        /* \"contracts/Blockchain_task.sol\":3073:3084  campaignFee */\n      sload(0x01)\n        /* \"contracts/Blockchain_task.sol\":3060:3069  msg.value */\n      callvalue\n        /* \"contracts/Blockchain_task.sol\":3060:3084  msg.value == campaignFee */\n      eq\n        /* \"contracts/Blockchain_task.sol\":3052:3111  require(msg.value == campaignFee, \"Incorrect campaign fee\") */\n      tag_208\n      jumpi\n      mload(0x40)\n      0x08c379a000000000000000000000000000000000000000000000000000000000\n      dup2\n      mstore\n      0x04\n      add\n      tag_209\n      swap1\n      tag_210\n      jump\t// in\n    tag_209:\n      mload(0x40)\n      dup1\n      swap2\n      sub\n      swap1\n      revert\n    tag_208:\n        /* \"contracts/Blockchain_task.sol\":3869:3880  totalShares */\n      dup1\n        /* \"contracts/Blockchain_task.sol\":3200:3201  0 */\n      0x00\n        /* \"contracts/Blockchain_task.sol\":3191:3197  shares */\n      dup2\n        /* \"contracts/Blockchain_task.sol\":3191:3201  shares > 0 */\n      gt\n        /* \"contracts/Blockchain_task.sol\":3183:3244  require(shares > 0, \"Total shares must be greater than zero\") */\n      tag_212\n      jumpi\n      mload(0x40)\n      0x08c379a000000000000000000000000000000000000000000000000000000000\n      dup2\n      mstore\n      0x04\n      add\n      tag_213\n      swap1\n      tag_214\n      jump\t// in\n    tag_213:\n      mload(0x40)\n      dup1\n      swap2\n      sub\n      swap1\n      revert\n    tag_212:\n        /* \"contracts/Blockchain_task.sol\":2206:2222  isContractActive */\n      0x09\n      0x00\n      swap1\n      sload\n      swap1\n      0x0100\n      exp\n      swap1\n      div\n      0xff\n      and\n        /* \"contracts/Blockchain_task.sol\":2198:2249  require(isContractActive, \"Contract is not active\") */\n      tag_216\n      jumpi\n      mload(0x40)\n      0x08c379a000000000000000000000000000000000000000000000000000000000\n      dup2\n      mstore\n      0x04\n      add\n      tag_217\n      swap1\n      tag_187\n      jump\t// in\n    tag_217:\n      mload(0x40)\n      dup1\n      swap2\n      sub\n      swap1\n      revert\n    tag_216:\n        /* \"contracts/Blockchain_task.sol\":3919:3947  Campaign storage newCampaign */\n      0x00\n        /* \"contracts/Blockchain_task.sol\":3950:3959  campaigns */\n      0x04\n        /* \"contracts/Blockchain_task.sol\":3950:3976  campaigns[campaignCounter] */\n      0x00\n        /* \"contracts/Blockchain_task.sol\":3960:3975  campaignCounter */\n      sload(0x03)\n        /* \"contracts/Blockchain_task.sol\":3950:3976  campaigns[campaignCounter] */\n      dup2\n      mstore\n      0x20\n      add\n      swap1\n      dup2\n      mstore\n      0x20\n      add\n      0x00\n      keccak256\n        /* \"contracts/Blockchain_task.sol\":3919:3976  Campaign storage newCampaign = campaigns[campaignCounter] */\n      swap1\n      pop\n        /* \"contracts/Blockchain_task.sol\":4011:4026  campaignCounter */\n      sload(0x03)\n        /* \"contracts/Blockchain_task.sol\":3986:3997  newCampaign */\n      dup2\n        /* \"contracts/Blockchain_task.sol\":3986:4008  newCampaign.campaignId */\n      0x00\n      add\n        /* \"contracts/Blockchain_task.sol\":3986:4026  newCampaign.campaignId = campaignCounter */\n      dup2\n      swap1\n      sstore\n      pop\n        /* \"contracts/Blockchain_task.sol\":4063:4073  msg.sender */\n      caller\n        /* \"contracts/Blockchain_task.sol\":4036:4047  newCampaign */\n      dup2\n        /* \"contracts/Blockchain_task.sol\":4036:4060  newCampaign.entrepreneur */\n      0x01\n      add\n      0x00\n        /* \"contracts/Blockchain_task.sol\":4036:4073  newCampaign.entrepreneur = msg.sender */\n      0x0100\n      exp\n      dup2\n      sload\n      dup2\n      0xffffffffffffffffffffffffffffffffffffffff\n      mul\n      not\n      and\n      swap1\n      dup4\n      0xffffffffffffffffffffffffffffffffffffffff\n      and\n      mul\n      or\n      swap1\n      sstore\n      pop\n        /* \"contracts/Blockchain_task.sol\":4103:4108  title */\n      dup5\n        /* \"contracts/Blockchain_task.sol\":4083:4094  newCampaign */\n      dup2\n        /* \"contracts/Blockchain_task.sol\":4083:4100  newCampaign.title */\n      0x02\n      add\n        /* \"contracts/Blockchain_task.sol\":4083:4108  newCampaign.title = title */\n      swap1\n      dup2\n      tag_219\n      swap2\n      swap1\n      tag_220\n      jump\t// in\n    tag_219:\n      pop\n        /* \"contracts/Blockchain_task.sol\":4143:4153  sharePrice */\n      dup4\n        /* \"contracts/Blockchain_task.sol\":4118:4129  newCampaign */\n      dup2\n        /* \"contracts/Blockchain_task.sol\":4118:4140  newCampaign.sharePrice */\n      0x03\n      add\n        /* \"contracts/Blockchain_task.sol\":4118:4153  newCampaign.sharePrice = sharePrice */\n      dup2\n      swap1\n      sstore\n      pop\n        /* \"contracts/Blockchain_task.sol\":4189:4200  totalShares */\n      dup3\n        /* \"contracts/Blockchain_task.sol\":4163:4174  newCampaign */\n      dup2\n        /* \"contracts/Blockchain_task.sol\":4163:4186  newCampaign.totalShares */\n      0x04\n      add\n        /* \"contracts/Blockchain_task.sol\":4163:4200  newCampaign.totalShares = totalShares */\n      dup2\n      swap1\n      sstore\n      pop\n        /* \"contracts/Blockchain_task.sol\":4233:4237  true */\n      0x01\n        /* \"contracts/Blockchain_task.sol\":4210:4221  newCampaign */\n      dup2\n        /* \"contracts/Blockchain_task.sol\":4210:4230  newCampaign.isActive */\n      0x06\n      add\n      0x00\n        /* \"contracts/Blockchain_task.sol\":4210:4237  newCampaign.isActive = true */\n      0x0100\n      exp\n      dup2\n      sload\n      dup2\n      0xff\n      mul\n      not\n      and\n      swap1\n      dup4\n      iszero\n      iszero\n      mul\n      or\n      swap1\n      sstore\n      pop\n        /* \"contracts/Blockchain_task.sol\":4247:4262  campaignCounter */\n      0x03\n      0x00\n        /* \"contracts/Blockchain_task.sol\":4247:4264  campaignCounter++ */\n      dup2\n      sload\n      dup1\n      swap3\n      swap2\n      swap1\n      tag_221\n      swap1\n      tag_222\n      jump\t// in\n    tag_221:\n      swap2\n      swap1\n      pop\n      sstore\n      pop\n        /* \"contracts/Blockchain_task.sol\":4297:4308  campaignFee */\n      sload(0x01)\n        /* \"contracts/Blockchain_task.sol\":4275:4293  totalFeesCollected */\n      0x02\n      0x00\n        /* \"contracts/Blockchain_task.sol\":4275:4308  totalFeesCollected += campaignFee */\n      dup3\n      dup3\n      sload\n      tag_223\n      swap2\n      swap1\n      tag_157\n      jump\t// in\n    tag_223:\n      swap3\n      pop\n      pop\n      dup2\n      swap1\n      sstore\n      pop\n        /* \"contracts/Blockchain_task.sol\":4324:4375  CampaignCreated(campaignCounter, msg.sender, title) */\n      0xc04c663886cae794dc52158f70fe6c8ee3b0140d4f48647282f9b693ff688a65\n        /* \"contracts/Blockchain_task.sol\":4340:4355  campaignCounter */\n      sload(0x03)\n        /* \"contracts/Blockchain_task.sol\":4357:4367  msg.sender */\n      caller\n        /* \"contracts/Blockchain_task.sol\":4369:4374  title */\n      dup8\n        /* \"contracts/Blockchain_task.sol\":4324:4375  CampaignCreated(campaignCounter, msg.sender, title) */\n      mload(0x40)\n      tag_224\n      swap4\n      swap3\n      swap2\n      swap1\n      tag_225\n      jump\t// in\n    tag_224:\n      mload(0x40)\n      dup1\n      swap2\n      sub\n      swap1\n      log1\n        /* \"contracts/Blockchain_task.sol\":3909:4382  {... */\n      pop\n        /* \"contracts/Blockchain_task.sol\":3121:3122  _ */\n      pop\n        /* \"contracts/Blockchain_task.sol\":3649:4382  function createCampaign(... */\n      pop\n      pop\n      pop\n      jump\t// out\n        /* \"contracts/Blockchain_task.sol\":9935:11221  function getCompletedCampaigns()... */\n    tag_49:\n        /* \"contracts/Blockchain_task.sol\":10013:10034  CampaignInfo[] memory */\n      0x60\n        /* \"contracts/Blockchain_task.sol\":10050:10069  uint256 activeCount */\n      0x00\n        /* \"contracts/Blockchain_task.sol\":10126:10135  uint256 i */\n      dup1\n        /* \"contracts/Blockchain_task.sol\":10121:10296  for (uint256 i = 0; i < campaignCounter; i++) {... */\n    tag_227:\n        /* \"contracts/Blockchain_task.sol\":10145:10160  campaignCounter */\n      sload(0x03)\n        /* \"contracts/Blockchain_task.sol\":10141:10142  i */\n      dup2\n        /* \"contracts/Blockchain_task.sol\":10141:10160  i < campaignCounter */\n      lt\n        /* \"contracts/Blockchain_task.sol\":10121:10296  for (uint256 i = 0; i < campaignCounter; i++) {... */\n      iszero\n      tag_228\n      jumpi\n        /* \"contracts/Blockchain_task.sol\":10185:10194  campaigns */\n      0x04\n        /* \"contracts/Blockchain_task.sol\":10185:10197  campaigns[i] */\n      0x00\n        /* \"contracts/Blockchain_task.sol\":10195:10196  i */\n      dup3\n        /* \"contracts/Blockchain_task.sol\":10185:10197  campaigns[i] */\n      dup2\n      mstore\n      0x20\n      add\n      swap1\n      dup2\n      mstore\n      0x20\n      add\n      0x00\n      keccak256\n        /* \"contracts/Blockchain_task.sol\":10185:10209  campaigns[i].isCompleted */\n      0x06\n      add\n      0x02\n      swap1\n      sload\n      swap1\n      0x0100\n      exp\n      swap1\n      div\n      0xff\n      and\n        /* \"contracts/Blockchain_task.sol\":10185:10238  campaigns[i].isCompleted && !campaigns[i].isCancelled */\n      dup1\n      iszero\n      tag_230\n      jumpi\n      pop\n        /* \"contracts/Blockchain_task.sol\":10214:10223  campaigns */\n      0x04\n        /* \"contracts/Blockchain_task.sol\":10214:10226  campaigns[i] */\n      0x00\n        /* \"contracts/Blockchain_task.sol\":10224:10225  i */\n      dup3\n        /* \"contracts/Blockchain_task.sol\":10214:10226  campaigns[i] */\n      dup2\n      mstore\n      0x20\n      add\n      swap1\n      dup2\n      mstore\n      0x20\n      add\n      0x00\n      keccak256\n        /* \"contracts/Blockchain_task.sol\":10214:10238  campaigns[i].isCancelled */\n      0x06\n      add\n      0x01\n      swap1\n      sload\n      swap1\n      0x0100\n      exp\n      swap1\n      div\n      0xff\n      and\n        /* \"contracts/Blockchain_task.sol\":10213:10238  !campaigns[i].isCancelled */\n      iszero\n        /* \"contracts/Blockchain_task.sol\":10185:10238  campaigns[i].isCompleted && !campaigns[i].isCancelled */\n    tag_230:\n        /* \"contracts/Blockchain_task.sol\":10181:10286  if (campaigns[i].isCompleted && !campaigns[i].isCancelled) {... */\n      iszero\n      tag_231\n      jumpi\n        /* \"contracts/Blockchain_task.sol\":10258:10271  activeCount++ */\n      dup2\n      dup1\n      tag_232\n      swap1\n      tag_222\n      jump\t// in\n    tag_232:\n      swap3\n      pop\n      pop\n        /* \"contracts/Blockchain_task.sol\":10181:10286  if (campaigns[i].isCompleted && !campaigns[i].isCancelled) {... */\n    tag_231:\n        /* \"contracts/Blockchain_task.sol\":10162:10165  i++ */\n      dup1\n      dup1\n      0x01\n      add\n      swap2\n      pop\n      pop\n        /* \"contracts/Blockchain_task.sol\":10121:10296  for (uint256 i = 0; i < campaignCounter; i++) {... */\n      jump(tag_227)\n    tag_228:\n      pop\n        /* \"contracts/Blockchain_task.sol\":10359:10399  CampaignInfo[] memory completedCampaigns */\n      0x00\n        /* \"contracts/Blockchain_task.sol\":10434:10445  activeCount */\n      dup2\n        /* \"contracts/Blockchain_task.sol\":10402:10455  new CampaignInfo[](... */\n      0xffffffffffffffff\n      dup2\n      gt\n      iszero\n      tag_233\n      jumpi\n      tag_234\n      tag_235\n      jump\t// in\n    tag_234:\n    tag_233:\n      mload(0x40)\n      swap1\n      dup1\n      dup3\n      mstore\n      dup1\n      0x20\n      mul\n      0x20\n      add\n      dup3\n      add\n      0x40\n      mstore\n      dup1\n      iszero\n      tag_236\n      jumpi\n      dup2\n      0x20\n      add\n    tag_237:\n      tag_238\n      tag_239\n      jump\t// in\n    tag_238:\n      dup2\n      mstore\n      0x20\n      add\n      swap1\n      0x01\n      swap1\n      sub\n      swap1\n      dup2\n      tag_237\n      jumpi\n      swap1\n      pop\n    tag_236:\n      pop\n        /* \"contracts/Blockchain_task.sol\":10359:10455  CampaignInfo[] memory completedCampaigns = new CampaignInfo[](... */\n      swap1\n      pop\n        /* \"contracts/Blockchain_task.sol\":10465:10478  uint256 index */\n      0x00\n        /* \"contracts/Blockchain_task.sol\":10547:10556  uint256 i */\n      dup1\n        /* \"contracts/Blockchain_task.sol\":10542:11179  for (uint256 i = 0; i < campaignCounter; i++) {... */\n    tag_240:\n        /* \"contracts/Blockchain_task.sol\":10566:10581  campaignCounter */\n      sload(0x03)\n        /* \"contracts/Blockchain_task.sol\":10562:10563  i */\n      dup2\n        /* \"contracts/Blockchain_task.sol\":10562:10581  i < campaignCounter */\n      lt\n        /* \"contracts/Blockchain_task.sol\":10542:11179  for (uint256 i = 0; i < campaignCounter; i++) {... */\n      iszero\n      tag_241\n      jumpi\n        /* \"contracts/Blockchain_task.sol\":10606:10615  campaigns */\n      0x04\n        /* \"contracts/Blockchain_task.sol\":10606:10618  campaigns[i] */\n      0x00\n        /* \"contracts/Blockchain_task.sol\":10616:10617  i */\n      dup3\n        /* \"contracts/Blockchain_task.sol\":10606:10618  campaigns[i] */\n      dup2\n      mstore\n      0x20\n      add\n      swap1\n      dup2\n      mstore\n      0x20\n      add\n      0x00\n      keccak256\n        /* \"contracts/Blockchain_task.sol\":10606:10630  campaigns[i].isCompleted */\n      0x06\n      add\n      0x02\n      swap1\n      sload\n      swap1\n      0x0100\n      exp\n      swap1\n      div\n      0xff\n      and\n        /* \"contracts/Blockchain_task.sol\":10606:10659  campaigns[i].isCompleted && !campaigns[i].isCancelled */\n      dup1\n      iszero\n      tag_243\n      jumpi\n      pop\n        /* \"contracts/Blockchain_task.sol\":10635:10644  campaigns */\n      0x04\n        /* \"contracts/Blockchain_task.sol\":10635:10647  campaigns[i] */\n      0x00\n        /* \"contracts/Blockchain_task.sol\":10645:10646  i */\n      dup3\n        /* \"contracts/Blockchain_task.sol\":10635:10647  campaigns[i] */\n      dup2\n      mstore\n      0x20\n      add\n      swap1\n      dup2\n      mstore\n      0x20\n      add\n      0x00\n      keccak256\n        /* \"contracts/Blockchain_task.sol\":10635:10659  campaigns[i].isCancelled */\n      0x06\n      add\n      0x01\n      swap1\n      sload\n      swap1\n      0x0100\n      exp\n      swap1\n      div\n      0xff\n      and\n        /* \"contracts/Blockchain_task.sol\":10634:10659  !campaigns[i].isCancelled */\n      iszero\n        /* \"contracts/Blockchain_task.sol\":10606:10659  campaigns[i].isCompleted && !campaigns[i].isCancelled */\n    tag_243:\n        /* \"contracts/Blockchain_task.sol\":10602:11169  if (campaigns[i].isCompleted && !campaigns[i].isCancelled) {... */\n      iszero\n      tag_244\n      jumpi\n        /* \"contracts/Blockchain_task.sol\":10707:11129  CampaignInfo(... */\n      mload(0x40)\n      dup1\n      0x0100\n      add\n      0x40\n      mstore\n      dup1\n        /* \"contracts/Blockchain_task.sol\":10741:10750  campaigns */\n      0x04\n        /* \"contracts/Blockchain_task.sol\":10741:10753  campaigns[i] */\n      0x00\n        /* \"contracts/Blockchain_task.sol\":10751:10752  i */\n      dup5\n        /* \"contracts/Blockchain_task.sol\":10741:10753  campaigns[i] */\n      dup2\n      mstore\n      0x20\n      add\n      swap1\n      dup2\n      mstore\n      0x20\n      add\n      0x00\n      keccak256\n        /* \"contracts/Blockchain_task.sol\":10741:10764  campaigns[i].campaignId */\n      0x00\n      add\n      sload\n        /* \"contracts/Blockchain_task.sol\":10707:11129  CampaignInfo(... */\n      dup2\n      mstore\n      0x20\n      add\n        /* \"contracts/Blockchain_task.sol\":10786:10795  campaigns */\n      0x04\n        /* \"contracts/Blockchain_task.sol\":10786:10798  campaigns[i] */\n      0x00\n        /* \"contracts/Blockchain_task.sol\":10796:10797  i */\n      dup5\n        /* \"contracts/Blockchain_task.sol\":10786:10798  campaigns[i] */\n      dup2\n      mstore\n      0x20\n      add\n      swap1\n      dup2\n      mstore\n      0x20\n      add\n      0x00\n      keccak256\n        /* \"contracts/Blockchain_task.sol\":10786:10811  campaigns[i].entrepreneur */\n      0x01\n      add\n      0x00\n      swap1\n      sload\n      swap1\n      0x0100\n      exp\n      swap1\n      div\n      0xffffffffffffffffffffffffffffffffffffffff\n      and\n        /* \"contracts/Blockchain_task.sol\":10707:11129  CampaignInfo(... */\n      0xffffffffffffffffffffffffffffffffffffffff\n      and\n      dup2\n      mstore\n      0x20\n      add\n        /* \"contracts/Blockchain_task.sol\":10833:10842  campaigns */\n      0x04\n        /* \"contracts/Blockchain_task.sol\":10833:10845  campaigns[i] */\n      0x00\n        /* \"contracts/Blockchain_task.sol\":10843:10844  i */\n      dup5\n        /* \"contracts/Blockchain_task.sol\":10833:10845  campaigns[i] */\n      dup2\n      mstore\n      0x20\n      add\n      swap1\n      dup2\n      mstore\n      0x20\n      add\n      0x00\n      keccak256\n        /* \"contracts/Blockchain_task.sol\":10833:10851  campaigns[i].title */\n      0x02\n      add\n        /* \"contracts/Blockchain_task.sol\":10707:11129  CampaignInfo(... */\n      dup1\n      sload\n      tag_245\n      swap1\n      tag_159\n      jump\t// in\n    tag_245:\n      dup1\n      0x1f\n      add\n      0x20\n      dup1\n      swap2\n      div\n      mul\n      0x20\n      add\n      mload(0x40)\n      swap1\n      dup2\n      add\n      0x40\n      mstore\n      dup1\n      swap3\n      swap2\n      swap1\n      dup2\n      dup2\n      mstore\n      0x20\n      add\n      dup3\n      dup1\n      sload\n      tag_246\n      swap1\n      tag_159\n      jump\t// in\n    tag_246:\n      dup1\n      iszero\n      tag_247\n      jumpi\n      dup1\n      0x1f\n      lt\n      tag_248\n      jumpi\n      0x0100\n      dup1\n      dup4\n      sload\n      div\n      mul\n      dup4\n      mstore\n      swap2\n      0x20\n      add\n      swap2\n      jump(tag_247)\n    tag_248:\n      dup3\n      add\n      swap2\n      swap1\n      0x00\n      mstore\n      keccak256(0x00, 0x20)\n      swap1\n    tag_249:\n      dup2\n      sload\n      dup2\n      mstore\n      swap1\n      0x01\n      add\n      swap1\n      0x20\n      add\n      dup1\n      dup4\n      gt\n      tag_249\n      jumpi\n      dup3\n      swap1\n      sub\n      0x1f\n      and\n      dup3\n      add\n      swap2\n    tag_247:\n      pop\n      pop\n      pop\n      pop\n      pop\n      dup2\n      mstore\n      0x20\n      add\n        /* \"contracts/Blockchain_task.sol\":10873:10882  campaigns */\n      0x04\n        /* \"contracts/Blockchain_task.sol\":10873:10885  campaigns[i] */\n      0x00\n        /* \"contracts/Blockchain_task.sol\":10883:10884  i */\n      dup5\n        /* \"contracts/Blockchain_task.sol\":10873:10885  campaigns[i] */\n      dup2\n      mstore\n      0x20\n      add\n      swap1\n      dup2\n      mstore\n      0x20\n      add\n      0x00\n      keccak256\n        /* \"contracts/Blockchain_task.sol\":10873:10896  campaigns[i].sharePrice */\n      0x03\n      add\n      sload\n        /* \"contracts/Blockchain_task.sol\":10707:11129  CampaignInfo(... */\n      dup2\n      mstore\n      0x20\n      add\n        /* \"contracts/Blockchain_task.sol\":10945:10954  campaigns */\n      0x04\n        /* \"contracts/Blockchain_task.sol\":10945:10957  campaigns[i] */\n      0x00\n        /* \"contracts/Blockchain_task.sol\":10955:10956  i */\n      dup5\n        /* \"contracts/Blockchain_task.sol\":10945:10957  campaigns[i] */\n      dup2\n      mstore\n      0x20\n      add\n      swap1\n      dup2\n      mstore\n      0x20\n      add\n      0x00\n      keccak256\n        /* \"contracts/Blockchain_task.sol\":10945:10971  campaigns[i].currentShares */\n      0x05\n      add\n      sload\n        /* \"contracts/Blockchain_task.sol\":10918:10927  campaigns */\n      0x04\n        /* \"contracts/Blockchain_task.sol\":10918:10930  campaigns[i] */\n      0x00\n        /* \"contracts/Blockchain_task.sol\":10928:10929  i */\n      dup6\n        /* \"contracts/Blockchain_task.sol\":10918:10930  campaigns[i] */\n      dup2\n      mstore\n      0x20\n      add\n      swap1\n      dup2\n      mstore\n      0x20\n      add\n      0x00\n      keccak256\n        /* \"contracts/Blockchain_task.sol\":10918:10942  campaigns[i].totalShares */\n      0x04\n      add\n      sload\n        /* \"contracts/Blockchain_task.sol\":10918:10971  campaigns[i].totalShares - campaigns[i].currentShares */\n      tag_250\n      swap2\n      swap1\n      tag_251\n      jump\t// in\n    tag_250:\n        /* \"contracts/Blockchain_task.sol\":10707:11129  CampaignInfo(... */\n      dup2\n      mstore\n      0x20\n      add\n        /* \"contracts/Blockchain_task.sol\":10993:11002  campaigns */\n      0x04\n        /* \"contracts/Blockchain_task.sol\":10993:11005  campaigns[i] */\n      0x00\n        /* \"contracts/Blockchain_task.sol\":11003:11004  i */\n      dup5\n        /* \"contracts/Blockchain_task.sol\":10993:11005  campaigns[i] */\n      dup2\n      mstore\n      0x20\n      add\n      swap1\n      dup2\n      mstore\n      0x20\n      add\n      0x00\n      keccak256\n        /* \"contracts/Blockchain_task.sol\":10993:11019  campaigns[i].currentShares */\n      0x05\n      add\n      sload\n        /* \"contracts/Blockchain_task.sol\":10707:11129  CampaignInfo(... */\n      dup2\n      mstore\n      0x20\n      add\n        /* \"contracts/Blockchain_task.sol\":11041:11050  campaigns */\n      0x04\n        /* \"contracts/Blockchain_task.sol\":11041:11053  campaigns[i] */\n      0x00\n        /* \"contracts/Blockchain_task.sol\":11051:11052  i */\n      dup5\n        /* \"contracts/Blockchain_task.sol\":11041:11053  campaigns[i] */\n      dup2\n      mstore\n      0x20\n      add\n      swap1\n      dup2\n      mstore\n      0x20\n      add\n      0x00\n      keccak256\n        /* \"contracts/Blockchain_task.sol\":11041:11065  campaigns[i].isCompleted */\n      0x06\n      add\n      0x02\n      swap1\n      sload\n      swap1\n      0x0100\n      exp\n      swap1\n      div\n      0xff\n      and\n        /* \"contracts/Blockchain_task.sol\":10707:11129  CampaignInfo(... */\n      iszero\n      iszero\n      dup2\n      mstore\n      0x20\n      add\n        /* \"contracts/Blockchain_task.sol\":11087:11096  campaigns */\n      0x04\n        /* \"contracts/Blockchain_task.sol\":11087:11099  campaigns[i] */\n      0x00\n        /* \"contracts/Blockchain_task.sol\":11097:11098  i */\n      dup5\n        /* \"contracts/Blockchain_task.sol\":11087:11099  campaigns[i] */\n      dup2\n      mstore\n      0x20\n      add\n      swap1\n      dup2\n      mstore\n      0x20\n      add\n      0x00\n      keccak256\n        /* \"contracts/Blockchain_task.sol\":11087:11111  campaigns[i].isCancelled */\n      0x06\n      add\n      0x01\n      swap1\n      sload\n      swap1\n      0x0100\n      exp\n      swap1\n      div\n      0xff\n      and\n        /* \"contracts/Blockchain_task.sol\":10707:11129  CampaignInfo(... */\n      iszero\n      iszero\n      dup2\n      mstore\n      pop\n        /* \"contracts/Blockchain_task.sol\":10679:10697  completedCampaigns */\n      dup4\n        /* \"contracts/Blockchain_task.sol\":10698:10703  index */\n      dup4\n        /* \"contracts/Blockchain_task.sol\":10679:10704  completedCampaigns[index] */\n      dup2\n      mload\n      dup2\n      lt\n      tag_252\n      jumpi\n      tag_253\n      tag_152\n      jump\t// in\n    tag_253:\n    tag_252:\n      0x20\n      mul\n      0x20\n      add\n      add\n        /* \"contracts/Blockchain_task.sol\":10679:11129  completedCampaigns[index] = CampaignInfo(... */\n      dup2\n      swap1\n      mstore\n      pop\n        /* \"contracts/Blockchain_task.sol\":11147:11154  index++ */\n      dup2\n      dup1\n      tag_254\n      swap1\n      tag_222\n      jump\t// in\n    tag_254:\n      swap3\n      pop\n      pop\n        /* \"contracts/Blockchain_task.sol\":10602:11169  if (campaigns[i].isCompleted && !campaigns[i].isCancelled) {... */\n    tag_244:\n        /* \"contracts/Blockchain_task.sol\":10583:10586  i++ */\n      dup1\n      dup1\n      0x01\n      add\n      swap2\n      pop\n      pop\n        /* \"contracts/Blockchain_task.sol\":10542:11179  for (uint256 i = 0; i < campaignCounter; i++) {... */\n      jump(tag_240)\n    tag_241:\n      pop\n        /* \"contracts/Blockchain_task.sol\":11196:11214  completedCampaigns */\n      dup2\n        /* \"contracts/Blockchain_task.sol\":11189:11214  return completedCampaigns */\n      swap4\n      pop\n      pop\n      pop\n      pop\n        /* \"contracts/Blockchain_task.sol\":9935:11221  function getCompletedCampaigns()... */\n      swap1\n      jump\t// out\n        /* \"contracts/Blockchain_task.sol\":5346:6277  function cancelCampaign(uint256 campaignId)... */\n    tag_55:\n        /* \"contracts/Blockchain_task.sol\":5428:5438  campaignId */\n      dup1\n        /* \"contracts/Blockchain_task.sol\":2611:2620  campaigns */\n      0x04\n        /* \"contracts/Blockchain_task.sol\":2611:2632  campaigns[campaignId] */\n      0x00\n        /* \"contracts/Blockchain_task.sol\":2621:2631  campaignId */\n      dup3\n        /* \"contracts/Blockchain_task.sol\":2611:2632  campaigns[campaignId] */\n      dup2\n      mstore\n      0x20\n      add\n      swap1\n      dup2\n      mstore\n      0x20\n      add\n      0x00\n      keccak256\n        /* \"contracts/Blockchain_task.sol\":2611:2641  campaigns[campaignId].isActive */\n      0x06\n      add\n      0x00\n      swap1\n      sload\n      swap1\n      0x0100\n      exp\n      swap1\n      div\n      0xff\n      and\n        /* \"contracts/Blockchain_task.sol\":2603:2668  require(campaigns[campaignId].isActive, \"Campaign is not active\") */\n      tag_256\n      jumpi\n      mload(0x40)\n      0x08c379a000000000000000000000000000000000000000000000000000000000\n      dup2\n      mstore\n      0x04\n      add\n      tag_257\n      swap1\n      tag_175\n      jump\t// in\n    tag_257:\n      mload(0x40)\n      dup1\n      swap2\n      sub\n      swap1\n      revert\n    tag_256:\n        /* \"contracts/Blockchain_task.sol\":5461:5471  campaignId */\n      dup2\n        /* \"contracts/Blockchain_task.sol\":2910:2919  campaigns */\n      0x04\n        /* \"contracts/Blockchain_task.sol\":2910:2931  campaigns[campaignId] */\n      0x00\n        /* \"contracts/Blockchain_task.sol\":2920:2930  campaignId */\n      dup3\n        /* \"contracts/Blockchain_task.sol\":2910:2931  campaigns[campaignId] */\n      dup2\n      mstore\n      0x20\n      add\n      swap1\n      dup2\n      mstore\n      0x20\n      add\n      0x00\n      keccak256\n        /* \"contracts/Blockchain_task.sol\":2910:2943  campaigns[campaignId].isCompleted */\n      0x06\n      add\n      0x02\n      swap1\n      sload\n      swap1\n      0x0100\n      exp\n      swap1\n      div\n      0xff\n      and\n        /* \"contracts/Blockchain_task.sol\":2909:2943  !campaigns[campaignId].isCompleted */\n      iszero\n        /* \"contracts/Blockchain_task.sol\":2888:2998  require(... */\n      tag_259\n      jumpi\n      mload(0x40)\n      0x08c379a000000000000000000000000000000000000000000000000000000000\n      dup2\n      mstore\n      0x04\n      add\n      tag_260\n      swap1\n      tag_183\n      jump\t// in\n    tag_260:\n      mload(0x40)\n      dup1\n      swap2\n      sub\n      swap1\n      revert\n    tag_259:\n        /* \"contracts/Blockchain_task.sol\":2206:2222  isContractActive */\n      0x09\n      0x00\n      swap1\n      sload\n      swap1\n      0x0100\n      exp\n      swap1\n      div\n      0xff\n      and\n        /* \"contracts/Blockchain_task.sol\":2198:2249  require(isContractActive, \"Contract is not active\") */\n      tag_262\n      jumpi\n      mload(0x40)\n      0x08c379a000000000000000000000000000000000000000000000000000000000\n      dup2\n      mstore\n      0x04\n      add\n      tag_263\n      swap1\n      tag_187\n      jump\t// in\n    tag_263:\n      mload(0x40)\n      dup1\n      swap2\n      sub\n      swap1\n      revert\n    tag_262:\n        /* \"contracts/Blockchain_task.sol\":5510:5535  Campaign storage campaign */\n      0x00\n        /* \"contracts/Blockchain_task.sol\":5538:5547  campaigns */\n      0x04\n        /* \"contracts/Blockchain_task.sol\":5538:5559  campaigns[campaignId] */\n      0x00\n        /* \"contracts/Blockchain_task.sol\":5548:5558  campaignId */\n      dup6\n        /* \"contracts/Blockchain_task.sol\":5538:5559  campaigns[campaignId] */\n      dup2\n      mstore\n      0x20\n      add\n      swap1\n      dup2\n      mstore\n      0x20\n      add\n      0x00\n      keccak256\n        /* \"contracts/Blockchain_task.sol\":5510:5559  Campaign storage campaign = campaigns[campaignId] */\n      swap1\n      pop\n        /* \"contracts/Blockchain_task.sol\":5604:5612  campaign */\n      dup1\n        /* \"contracts/Blockchain_task.sol\":5604:5625  campaign.entrepreneur */\n      0x01\n      add\n      0x00\n      swap1\n      sload\n      swap1\n      0x0100\n      exp\n      swap1\n      div\n      0xffffffffffffffffffffffffffffffffffffffff\n      and\n        /* \"contracts/Blockchain_task.sol\":5590:5625  msg.sender == campaign.entrepreneur */\n      0xffffffffffffffffffffffffffffffffffffffff\n      and\n        /* \"contracts/Blockchain_task.sol\":5590:5600  msg.sender */\n      caller\n        /* \"contracts/Blockchain_task.sol\":5590:5625  msg.sender == campaign.entrepreneur */\n      0xffffffffffffffffffffffffffffffffffffffff\n      and\n      eq\n        /* \"contracts/Blockchain_task.sol\":5590:5648  msg.sender == campaign.entrepreneur || msg.sender == owner */\n      dup1\n      tag_265\n      jumpi\n      pop\n        /* \"contracts/Blockchain_task.sol\":5643:5648  owner */\n      0x00\n      dup1\n      sload\n      swap1\n      0x0100\n      exp\n      swap1\n      div\n      0xffffffffffffffffffffffffffffffffffffffff\n      and\n        /* \"contracts/Blockchain_task.sol\":5629:5648  msg.sender == owner */\n      0xffffffffffffffffffffffffffffffffffffffff\n      and\n        /* \"contracts/Blockchain_task.sol\":5629:5639  msg.sender */\n      caller\n        /* \"contracts/Blockchain_task.sol\":5629:5648  msg.sender == owner */\n      0xffffffffffffffffffffffffffffffffffffffff\n      and\n      eq\n        /* \"contracts/Blockchain_task.sol\":5590:5648  msg.sender == campaign.entrepreneur || msg.sender == owner */\n    tag_265:\n        /* \"contracts/Blockchain_task.sol\":5569:5729  require(... */\n      tag_266\n      jumpi\n      mload(0x40)\n      0x08c379a000000000000000000000000000000000000000000000000000000000\n      dup2\n      mstore\n      0x04\n      add\n      tag_267\n      swap1\n      tag_268\n      jump\t// in\n    tag_267:\n      mload(0x40)\n      dup1\n      swap2\n      sub\n      swap1\n      revert\n    tag_266:\n        /* \"contracts/Blockchain_task.sol\":5760:5765  false */\n      0x00\n        /* \"contracts/Blockchain_task.sol\":5740:5748  campaign */\n      dup2\n        /* \"contracts/Blockchain_task.sol\":5740:5757  campaign.isActive */\n      0x06\n      add\n      0x00\n        /* \"contracts/Blockchain_task.sol\":5740:5765  campaign.isActive = false */\n      0x0100\n      exp\n      dup2\n      sload\n      dup2\n      0xff\n      mul\n      not\n      and\n      swap1\n      dup4\n      iszero\n      iszero\n      mul\n      or\n      swap1\n      sstore\n      pop\n        /* \"contracts/Blockchain_task.sol\":5798:5802  true */\n      0x01\n        /* \"contracts/Blockchain_task.sol\":5775:5783  campaign */\n      dup2\n        /* \"contracts/Blockchain_task.sol\":5775:5795  campaign.isCancelled */\n      0x06\n      add\n      0x01\n        /* \"contracts/Blockchain_task.sol\":5775:5802  campaign.isCancelled = true */\n      0x0100\n      exp\n      dup2\n      sload\n      dup2\n      0xff\n      mul\n      not\n      and\n      swap1\n      dup4\n      iszero\n      iszero\n      mul\n      or\n      swap1\n      sstore\n      pop\n        /* \"contracts/Blockchain_task.sol\":5915:5924  uint256 i */\n      0x00\n        /* \"contracts/Blockchain_task.sol\":5910:6198  for (uint256 i = 0; i < campaign.backers.length; i++) {... */\n    tag_269:\n        /* \"contracts/Blockchain_task.sol\":5934:5942  campaign */\n      dup2\n        /* \"contracts/Blockchain_task.sol\":5934:5950  campaign.backers */\n      0x07\n      add\n        /* \"contracts/Blockchain_task.sol\":5934:5957  campaign.backers.length */\n      dup1\n      sload\n      swap1\n      pop\n        /* \"contracts/Blockchain_task.sol\":5930:5931  i */\n      dup2\n        /* \"contracts/Blockchain_task.sol\":5930:5957  i < campaign.backers.length */\n      lt\n        /* \"contracts/Blockchain_task.sol\":5910:6198  for (uint256 i = 0; i < campaign.backers.length; i++) {... */\n      iszero\n      tag_270\n      jumpi\n        /* \"contracts/Blockchain_task.sol\":5978:5992  address backer */\n      0x00\n        /* \"contracts/Blockchain_task.sol\":5995:6003  campaign */\n      dup3\n        /* \"contracts/Blockchain_task.sol\":5995:6011  campaign.backers */\n      0x07\n      add\n        /* \"contracts/Blockchain_task.sol\":6012:6013  i */\n      dup3\n        /* \"contracts/Blockchain_task.sol\":5995:6014  campaign.backers[i] */\n      dup2\n      sload\n      dup2\n      lt\n      tag_272\n      jumpi\n      tag_273\n      tag_152\n      jump\t// in\n    tag_273:\n    tag_272:\n      swap1\n      0x00\n      mstore\n      keccak256(0x00, 0x20)\n      add\n      0x00\n      swap1\n      sload\n      swap1\n      0x0100\n      exp\n      swap1\n      div\n      0xffffffffffffffffffffffffffffffffffffffff\n      and\n        /* \"contracts/Blockchain_task.sol\":5978:6014  address backer = campaign.backers[i] */\n      swap1\n      pop\n        /* \"contracts/Blockchain_task.sol\":6028:6042  uint256 shares */\n      0x00\n        /* \"contracts/Blockchain_task.sol\":6045:6053  campaign */\n      dup4\n        /* \"contracts/Blockchain_task.sol\":6045:6069  campaign.sharesPerBacker */\n      0x08\n      add\n        /* \"contracts/Blockchain_task.sol\":6045:6077  campaign.sharesPerBacker[backer] */\n      0x00\n        /* \"contracts/Blockchain_task.sol\":6070:6076  backer */\n      dup4\n        /* \"contracts/Blockchain_task.sol\":6045:6077  campaign.sharesPerBacker[backer] */\n      0xffffffffffffffffffffffffffffffffffffffff\n      and\n      0xffffffffffffffffffffffffffffffffffffffff\n      and\n      dup2\n      mstore\n      0x20\n      add\n      swap1\n      dup2\n      mstore\n      0x20\n      add\n      0x00\n      keccak256\n      sload\n        /* \"contracts/Blockchain_task.sol\":6028:6077  uint256 shares = campaign.sharesPerBacker[backer] */\n      swap1\n      pop\n        /* \"contracts/Blockchain_task.sol\":6091:6111  uint256 refundAmount */\n      0x00\n        /* \"contracts/Blockchain_task.sol\":6123:6131  campaign */\n      dup5\n        /* \"contracts/Blockchain_task.sol\":6123:6142  campaign.sharePrice */\n      0x03\n      add\n      sload\n        /* \"contracts/Blockchain_task.sol\":6114:6120  shares */\n      dup3\n        /* \"contracts/Blockchain_task.sol\":6114:6142  shares * campaign.sharePrice */\n      tag_275\n      swap2\n      swap1\n      tag_155\n      jump\t// in\n    tag_275:\n        /* \"contracts/Blockchain_task.sol\":6091:6142  uint256 refundAmount = shares * campaign.sharePrice */\n      swap1\n      pop\n        /* \"contracts/Blockchain_task.sol\":6175:6187  refundAmount */\n      dup1\n        /* \"contracts/Blockchain_task.sol\":6156:6163  refunds */\n      0x08\n        /* \"contracts/Blockchain_task.sol\":6156:6171  refunds[backer] */\n      0x00\n        /* \"contracts/Blockchain_task.sol\":6164:6170  backer */\n      dup6\n        /* \"contracts/Blockchain_task.sol\":6156:6171  refunds[backer] */\n      0xffffffffffffffffffffffffffffffffffffffff\n      and\n      0xffffffffffffffffffffffffffffffffffffffff\n      and\n      dup2\n      mstore\n      0x20\n      add\n      swap1\n      dup2\n      mstore\n      0x20\n      add\n      0x00\n      keccak256\n      0x00\n        /* \"contracts/Blockchain_task.sol\":6156:6187  refunds[backer] += refundAmount */\n      dup3\n      dup3\n      sload\n      tag_276\n      swap2\n      swap1\n      tag_157\n      jump\t// in\n    tag_276:\n      swap3\n      pop\n      pop\n      dup2\n      swap1\n      sstore\n      pop\n        /* \"contracts/Blockchain_task.sol\":5964:6198  {... */\n      pop\n      pop\n      pop\n        /* \"contracts/Blockchain_task.sol\":5959:5962  i++ */\n      dup1\n      dup1\n      0x01\n      add\n      swap2\n      pop\n      pop\n        /* \"contracts/Blockchain_task.sol\":5910:6198  for (uint256 i = 0; i < campaign.backers.length; i++) {... */\n      jump(tag_269)\n    tag_270:\n      pop\n        /* \"contracts/Blockchain_task.sol\":6213:6270  CampaignCancelled(campaignId, msg.sender, campaign.title) */\n      0x57bf3fc7e1999f61d60bf6bf729b85a5423c5d0883a1629cf9794f2162ae2aba\n        /* \"contracts/Blockchain_task.sol\":6231:6241  campaignId */\n      dup5\n        /* \"contracts/Blockchain_task.sol\":6243:6253  msg.sender */\n      caller\n        /* \"contracts/Blockchain_task.sol\":6255:6263  campaign */\n      dup4\n        /* \"contracts/Blockchain_task.sol\":6255:6269  campaign.title */\n      0x02\n      add\n        /* \"contracts/Blockchain_task.sol\":6213:6270  CampaignCancelled(campaignId, msg.sender, campaign.title) */\n      mload(0x40)\n      tag_277\n      swap4\n      swap3\n      swap2\n      swap1\n      tag_278\n      jump\t// in\n    tag_277:\n      mload(0x40)\n      dup1\n      swap2\n      sub\n      swap1\n      log1\n        /* \"contracts/Blockchain_task.sol\":5500:6277  {... */\n      pop\n        /* \"contracts/Blockchain_task.sol\":2678:2679  _ */\n      pop\n        /* \"contracts/Blockchain_task.sol\":5346:6277  function cancelCampaign(uint256 campaignId)... */\n      pop\n      pop\n      jump\t// out\n        /* \"contracts/Blockchain_task.sol\":8031:8319  function withdrawFees() public onlyOwner activeContract {... */\n    tag_58:\n        /* \"contracts/Blockchain_task.sol\":2067:2072  owner */\n      0x00\n      dup1\n      sload\n      swap1\n      0x0100\n      exp\n      swap1\n      div\n      0xffffffffffffffffffffffffffffffffffffffff\n      and\n        /* \"contracts/Blockchain_task.sol\":2053:2072  msg.sender == owner */\n      0xffffffffffffffffffffffffffffffffffffffff\n      and\n        /* \"contracts/Blockchain_task.sol\":2053:2063  msg.sender */\n      caller\n        /* \"contracts/Blockchain_task.sol\":2053:2072  msg.sender == owner */\n      0xffffffffffffffffffffffffffffffffffffffff\n      and\n      eq\n        /* \"contracts/Blockchain_task.sol\":2032:2138  require(... */\n      tag_280\n      jumpi\n      mload(0x40)\n      0x08c379a000000000000000000000000000000000000000000000000000000000\n      dup2\n      mstore\n      0x04\n      add\n      tag_281\n      swap1\n      tag_140\n      jump\t// in\n    tag_281:\n      mload(0x40)\n      dup1\n      swap2\n      sub\n      swap1\n      revert\n    tag_280:\n        /* \"contracts/Blockchain_task.sol\":2206:2222  isContractActive */\n      0x09\n      0x00\n      swap1\n      sload\n      swap1\n      0x0100\n      exp\n      swap1\n      div\n      0xff\n      and\n        /* \"contracts/Blockchain_task.sol\":2198:2249  require(isContractActive, \"Contract is not active\") */\n      tag_283\n      jumpi\n      mload(0x40)\n      0x08c379a000000000000000000000000000000000000000000000000000000000\n      dup2\n      mstore\n      0x04\n      add\n      tag_284\n      swap1\n      tag_187\n      jump\t// in\n    tag_284:\n      mload(0x40)\n      dup1\n      swap2\n      sub\n      swap1\n      revert\n    tag_283:\n        /* \"contracts/Blockchain_task.sol\":8097:8111  uint256 amount */\n      0x00\n        /* \"contracts/Blockchain_task.sol\":8114:8132  totalFeesCollected */\n      sload(0x02)\n        /* \"contracts/Blockchain_task.sol\":8097:8132  uint256 amount = totalFeesCollected */\n      swap1\n      pop\n        /* \"contracts/Blockchain_task.sol\":8163:8164  0 */\n      0x00\n        /* \"contracts/Blockchain_task.sol\":8142:8160  totalFeesCollected */\n      0x02\n        /* \"contracts/Blockchain_task.sol\":8142:8164  totalFeesCollected = 0 */\n      dup2\n      swap1\n      sstore\n      pop\n        /* \"contracts/Blockchain_task.sol\":8183:8188  owner */\n      0x00\n      dup1\n      sload\n      swap1\n      0x0100\n      exp\n      swap1\n      div\n      0xffffffffffffffffffffffffffffffffffffffff\n      and\n        /* \"contracts/Blockchain_task.sol\":8175:8198  payable(owner).transfer */\n      0xffffffffffffffffffffffffffffffffffffffff\n      and\n        /* \"contracts/Blockchain_task.sol\":8175:8206  payable(owner).transfer(amount) */\n      0x08fc\n        /* \"contracts/Blockchain_task.sol\":8199:8205  amount */\n      dup3\n        /* \"contracts/Blockchain_task.sol\":8175:8206  payable(owner).transfer(amount) */\n      swap1\n      dup2\n      iszero\n      mul\n      swap1\n      mload(0x40)\n      0x00\n      mload(0x40)\n      dup1\n      dup4\n      sub\n      dup2\n      dup6\n      dup9\n      dup9\n      call\n      swap4\n      pop\n      pop\n      pop\n      pop\n      iszero\n      dup1\n      iszero\n      tag_287\n      jumpi\n      returndatasize\n      0x00\n      dup1\n      returndatacopy\n      revert(0x00, returndatasize)\n    tag_287:\n      pop\n        /* \"contracts/Blockchain_task.sol\":8216:8233  uint256 remaining */\n      0x00\n        /* \"contracts/Blockchain_task.sol\":8236:8257  address(this).balance */\n      selfbalance\n        /* \"contracts/Blockchain_task.sol\":8216:8257  uint256 remaining = address(this).balance */\n      swap1\n      pop\n        /* \"contracts/Blockchain_task.sol\":8272:8312  FeesWithdrawn(owner, amount + remaining) */\n      0xc0819c13be868895eb93e40eaceb96de976442fa1d404e5c55f14bb65a8c489a\n        /* \"contracts/Blockchain_task.sol\":8286:8291  owner */\n      0x00\n      dup1\n      sload\n      swap1\n      0x0100\n      exp\n      swap1\n      div\n      0xffffffffffffffffffffffffffffffffffffffff\n      and\n        /* \"contracts/Blockchain_task.sol\":8302:8311  remaining */\n      dup3\n        /* \"contracts/Blockchain_task.sol\":8293:8299  amount */\n      dup5\n        /* \"contracts/Blockchain_task.sol\":8293:8311  amount + remaining */\n      tag_288\n      swap2\n      swap1\n      tag_157\n      jump\t// in\n    tag_288:\n        /* \"contracts/Blockchain_task.sol\":8272:8312  FeesWithdrawn(owner, amount + remaining) */\n      mload(0x40)\n      tag_289\n      swap3\n      swap2\n      swap1\n      tag_290\n      jump\t// in\n    tag_289:\n      mload(0x40)\n      dup1\n      swap2\n      sub\n      swap1\n      log1\n        /* \"contracts/Blockchain_task.sol\":8087:8319  {... */\n      pop\n      pop\n        /* \"contracts/Blockchain_task.sol\":8031:8319  function withdrawFees() public onlyOwner activeContract {... */\n      jump\t// out\n        /* \"contracts/Blockchain_task.sol\":847:880  uint256 public totalFeesCollected */\n    tag_61:\n      sload(0x02)\n      dup2\n      jump\t// out\n        /* \"contracts/Blockchain_task.sol\":12480:13175  function getTotalFees() public view returns (uint256 totalFees) {... */\n    tag_66:\n        /* \"contracts/Blockchain_task.sol\":12525:12542  uint256 totalFees */\n      0x00\n        /* \"contracts/Blockchain_task.sol\":12554:12582  uint256 campaignCreationFees */\n      dup1\n        /* \"contracts/Blockchain_task.sol\":12603:12614  campaignFee */\n      sload(0x01)\n        /* \"contracts/Blockchain_task.sol\":12585:12600  campaignCounter */\n      sload(0x03)\n        /* \"contracts/Blockchain_task.sol\":12585:12614  campaignCounter * campaignFee */\n      tag_292\n      swap2\n      swap1\n      tag_155\n      jump\t// in\n    tag_292:\n        /* \"contracts/Blockchain_task.sol\":12554:12614  uint256 campaignCreationFees = campaignCounter * campaignFee */\n      swap1\n      pop\n        /* \"contracts/Blockchain_task.sol\":12655:12677  uint256 completionFees */\n      0x00\n        /* \"contracts/Blockchain_task.sol\":12752:12761  uint256 i */\n      dup1\n        /* \"contracts/Blockchain_task.sol\":12747:13047  for (uint256 i = 0; i < campaignCounter; i++) {... */\n    tag_293:\n        /* \"contracts/Blockchain_task.sol\":12771:12786  campaignCounter */\n      sload(0x03)\n        /* \"contracts/Blockchain_task.sol\":12767:12768  i */\n      dup2\n        /* \"contracts/Blockchain_task.sol\":12767:12786  i < campaignCounter */\n      lt\n        /* \"contracts/Blockchain_task.sol\":12747:13047  for (uint256 i = 0; i < campaignCounter; i++) {... */\n      iszero\n      tag_294\n      jumpi\n        /* \"contracts/Blockchain_task.sol\":12811:12820  campaigns */\n      0x04\n        /* \"contracts/Blockchain_task.sol\":12811:12823  campaigns[i] */\n      0x00\n        /* \"contracts/Blockchain_task.sol\":12821:12822  i */\n      dup3\n        /* \"contracts/Blockchain_task.sol\":12811:12823  campaigns[i] */\n      dup2\n      mstore\n      0x20\n      add\n      swap1\n      dup2\n      mstore\n      0x20\n      add\n      0x00\n      keccak256\n        /* \"contracts/Blockchain_task.sol\":12811:12835  campaigns[i].isCompleted */\n      0x06\n      add\n      0x02\n      swap1\n      sload\n      swap1\n      0x0100\n      exp\n      swap1\n      div\n      0xff\n      and\n        /* \"contracts/Blockchain_task.sol\":12807:13037  if (campaigns[i].isCompleted) {... */\n      iszero\n      tag_296\n      jumpi\n        /* \"contracts/Blockchain_task.sol\":12855:12876  uint256 campaignFunds */\n      0x00\n        /* \"contracts/Blockchain_task.sol\":12926:12935  campaigns */\n      0x04\n        /* \"contracts/Blockchain_task.sol\":12926:12938  campaigns[i] */\n      0x00\n        /* \"contracts/Blockchain_task.sol\":12936:12937  i */\n      dup4\n        /* \"contracts/Blockchain_task.sol\":12926:12938  campaigns[i] */\n      dup2\n      mstore\n      0x20\n      add\n      swap1\n      dup2\n      mstore\n      0x20\n      add\n      0x00\n      keccak256\n        /* \"contracts/Blockchain_task.sol\":12926:12949  campaigns[i].sharePrice */\n      0x03\n      add\n      sload\n        /* \"contracts/Blockchain_task.sol\":12879:12888  campaigns */\n      0x04\n        /* \"contracts/Blockchain_task.sol\":12879:12891  campaigns[i] */\n      0x00\n        /* \"contracts/Blockchain_task.sol\":12889:12890  i */\n      dup5\n        /* \"contracts/Blockchain_task.sol\":12879:12891  campaigns[i] */\n      dup2\n      mstore\n      0x20\n      add\n      swap1\n      dup2\n      mstore\n      0x20\n      add\n      0x00\n      keccak256\n        /* \"contracts/Blockchain_task.sol\":12879:12903  campaigns[i].totalShares */\n      0x04\n      add\n      sload\n        /* \"contracts/Blockchain_task.sol\":12879:12949  campaigns[i].totalShares *... */\n      tag_297\n      swap2\n      swap1\n      tag_155\n      jump\t// in\n    tag_297:\n        /* \"contracts/Blockchain_task.sol\":12855:12949  uint256 campaignFunds = campaigns[i].totalShares *... */\n      swap1\n      pop\n        /* \"contracts/Blockchain_task.sol\":13008:13011  100 */\n      0x64\n        /* \"contracts/Blockchain_task.sol\":13002:13004  20 */\n      0x14\n        /* \"contracts/Blockchain_task.sol\":12986:12999  campaignFunds */\n      dup3\n        /* \"contracts/Blockchain_task.sol\":12986:13004  campaignFunds * 20 */\n      tag_298\n      swap2\n      swap1\n      tag_155\n      jump\t// in\n    tag_298:\n        /* \"contracts/Blockchain_task.sol\":12985:13011  (campaignFunds * 20) / 100 */\n      tag_299\n      swap2\n      swap1\n      tag_300\n      jump\t// in\n    tag_299:\n        /* \"contracts/Blockchain_task.sol\":12967:13011  completionFees += (campaignFunds * 20) / 100 */\n      dup4\n      tag_301\n      swap2\n      swap1\n      tag_157\n      jump\t// in\n    tag_301:\n      swap3\n      pop\n        /* \"contracts/Blockchain_task.sol\":12837:13037  {... */\n      pop\n        /* \"contracts/Blockchain_task.sol\":12807:13037  if (campaigns[i].isCompleted) {... */\n    tag_296:\n        /* \"contracts/Blockchain_task.sol\":12788:12791  i++ */\n      dup1\n      dup1\n      0x01\n      add\n      swap2\n      pop\n      pop\n        /* \"contracts/Blockchain_task.sol\":12747:13047  for (uint256 i = 0; i < campaignCounter; i++) {... */\n      jump(tag_293)\n    tag_294:\n      pop\n        /* \"contracts/Blockchain_task.sol\":13154:13168  completionFees */\n      dup1\n        /* \"contracts/Blockchain_task.sol\":13131:13151  campaignCreationFees */\n      dup3\n        /* \"contracts/Blockchain_task.sol\":13131:13168  campaignCreationFees + completionFees */\n      tag_302\n      swap2\n      swap1\n      tag_157\n      jump\t// in\n    tag_302:\n        /* \"contracts/Blockchain_task.sol\":13119:13168  totalFees = campaignCreationFees + completionFees */\n      swap3\n      pop\n        /* \"contracts/Blockchain_task.sol\":12544:13175  {... */\n      pop\n      pop\n        /* \"contracts/Blockchain_task.sol\":12480:13175  function getTotalFees() public view returns (uint256 totalFees) {... */\n      swap1\n      jump\t// out\n        /* \"contracts/Blockchain_task.sol\":8325:8634  function getActiveCount() public view returns (uint256) {... */\n    tag_70:\n        /* \"contracts/Blockchain_task.sol\":8372:8379  uint256 */\n      0x00\n        /* \"contracts/Blockchain_task.sol\":8391:8410  uint256 activeCount */\n      dup1\n        /* \"contracts/Blockchain_task.sol\":8413:8414  0 */\n      0x00\n        /* \"contracts/Blockchain_task.sol\":8391:8414  uint256 activeCount = 0 */\n      swap1\n      pop\n        /* \"contracts/Blockchain_task.sol\":8429:8438  uint256 i */\n      0x00\n        /* \"contracts/Blockchain_task.sol\":8424:8600  for (uint256 i = 0; i < campaignCounter; i++) {... */\n    tag_304:\n        /* \"contracts/Blockchain_task.sol\":8448:8463  campaignCounter */\n      sload(0x03)\n        /* \"contracts/Blockchain_task.sol\":8444:8445  i */\n      dup2\n        /* \"contracts/Blockchain_task.sol\":8444:8463  i < campaignCounter */\n      lt\n        /* \"contracts/Blockchain_task.sol\":8424:8600  for (uint256 i = 0; i < campaignCounter; i++) {... */\n      iszero\n      tag_305\n      jumpi\n        /* \"contracts/Blockchain_task.sol\":8489:8498  campaigns */\n      0x04\n        /* \"contracts/Blockchain_task.sol\":8489:8501  campaigns[i] */\n      0x00\n        /* \"contracts/Blockchain_task.sol\":8499:8500  i */\n      dup3\n        /* \"contracts/Blockchain_task.sol\":8489:8501  campaigns[i] */\n      dup2\n      mstore\n      0x20\n      add\n      swap1\n      dup2\n      mstore\n      0x20\n      add\n      0x00\n      keccak256\n        /* \"contracts/Blockchain_task.sol\":8489:8513  campaigns[i].isCompleted */\n      0x06\n      add\n      0x02\n      swap1\n      sload\n      swap1\n      0x0100\n      exp\n      swap1\n      div\n      0xff\n      and\n        /* \"contracts/Blockchain_task.sol\":8488:8513  !campaigns[i].isCompleted */\n      iszero\n        /* \"contracts/Blockchain_task.sol\":8488:8542  !campaigns[i].isCompleted && !campaigns[i].isCancelled */\n      dup1\n      iszero\n      tag_307\n      jumpi\n      pop\n        /* \"contracts/Blockchain_task.sol\":8518:8527  campaigns */\n      0x04\n        /* \"contracts/Blockchain_task.sol\":8518:8530  campaigns[i] */\n      0x00\n        /* \"contracts/Blockchain_task.sol\":8528:8529  i */\n      dup3\n        /* \"contracts/Blockchain_task.sol\":8518:8530  campaigns[i] */\n      dup2\n      mstore\n      0x20\n      add\n      swap1\n      dup2\n      mstore\n      0x20\n      add\n      0x00\n      keccak256\n        /* \"contracts/Blockchain_task.sol\":8518:8542  campaigns[i].isCancelled */\n      0x06\n      add\n      0x01\n      swap1\n      sload\n      swap1\n      0x0100\n      exp\n      swap1\n      div\n      0xff\n      and\n        /* \"contracts/Blockchain_task.sol\":8517:8542  !campaigns[i].isCancelled */\n      iszero\n        /* \"contracts/Blockchain_task.sol\":8488:8542  !campaigns[i].isCompleted && !campaigns[i].isCancelled */\n    tag_307:\n        /* \"contracts/Blockchain_task.sol\":8484:8590  if (!campaigns[i].isCompleted && !campaigns[i].isCancelled) {... */\n      iszero\n      tag_308\n      jumpi\n        /* \"contracts/Blockchain_task.sol\":8562:8575  activeCount++ */\n      dup2\n      dup1\n      tag_309\n      swap1\n      tag_222\n      jump\t// in\n    tag_309:\n      swap3\n      pop\n      pop\n        /* \"contracts/Blockchain_task.sol\":8484:8590  if (!campaigns[i].isCompleted && !campaigns[i].isCancelled) {... */\n    tag_308:\n        /* \"contracts/Blockchain_task.sol\":8465:8468  i++ */\n      dup1\n      dup1\n      0x01\n      add\n      swap2\n      pop\n      pop\n        /* \"contracts/Blockchain_task.sol\":8424:8600  for (uint256 i = 0; i < campaignCounter; i++) {... */\n      jump(tag_304)\n    tag_305:\n      pop\n        /* \"contracts/Blockchain_task.sol\":8616:8627  activeCount */\n      dup1\n        /* \"contracts/Blockchain_task.sol\":8609:8627  return activeCount */\n      swap2\n      pop\n      pop\n        /* \"contracts/Blockchain_task.sol\":8325:8634  function getActiveCount() public view returns (uint256) {... */\n      swap1\n      jump\t// out\n        /* \"contracts/Blockchain_task.sol\":762:788  uint256 public campaignFee */\n    tag_74:\n      sload(0x01)\n      dup2\n      jump\t// out\n        /* \"contracts/Blockchain_task.sol\":14121:14349  function banInvestor(address investor) public onlyOwner notBanned {... */\n    tag_80:\n        /* \"contracts/Blockchain_task.sol\":2067:2072  owner */\n      0x00\n      dup1\n      sload\n      swap1\n      0x0100\n      exp\n      swap1\n      div\n      0xffffffffffffffffffffffffffffffffffffffff\n      and\n        /* \"contracts/Blockchain_task.sol\":2053:2072  msg.sender == owner */\n      0xffffffffffffffffffffffffffffffffffffffff\n      and\n        /* \"contracts/Blockchain_task.sol\":2053:2063  msg.sender */\n      caller\n        /* \"contracts/Blockchain_task.sol\":2053:2072  msg.sender == owner */\n      0xffffffffffffffffffffffffffffffffffffffff\n      and\n      eq\n        /* \"contracts/Blockchain_task.sol\":2032:2138  require(... */\n      tag_311\n      jumpi\n      mload(0x40)\n      0x08c379a000000000000000000000000000000000000000000000000000000000\n      dup2\n      mstore\n      0x04\n      add\n      tag_312\n      swap1\n      tag_140\n      jump\t// in\n    tag_312:\n      mload(0x40)\n      dup1\n      swap2\n      sub\n      swap1\n      revert\n    tag_311:\n        /* \"contracts/Blockchain_task.sol\":2481:2491  bannedList */\n      0x06\n        /* \"contracts/Blockchain_task.sol\":2481:2503  bannedList[msg.sender] */\n      0x00\n        /* \"contracts/Blockchain_task.sol\":2492:2502  msg.sender */\n      caller\n        /* \"contracts/Blockchain_task.sol\":2481:2503  bannedList[msg.sender] */\n      0xffffffffffffffffffffffffffffffffffffffff\n      and\n      0xffffffffffffffffffffffffffffffffffffffff\n      and\n      dup2\n      mstore\n      0x20\n      add\n      swap1\n      dup2\n      mstore\n      0x20\n      add\n      0x00\n      keccak256\n      0x00\n      swap1\n      sload\n      swap1\n      0x0100\n      exp\n      swap1\n      div\n      0xff\n      and\n        /* \"contracts/Blockchain_task.sol\":2480:2503  !bannedList[msg.sender] */\n      iszero\n        /* \"contracts/Blockchain_task.sol\":2472:2525  require(!bannedList[msg.sender], \"Address is banned\") */\n      tag_314\n      jumpi\n      mload(0x40)\n      0x08c379a000000000000000000000000000000000000000000000000000000000\n      dup2\n      mstore\n      0x04\n      add\n      tag_315\n      swap1\n      tag_171\n      jump\t// in\n    tag_315:\n      mload(0x40)\n      dup1\n      swap2\n      sub\n      swap1\n      revert\n    tag_314:\n        /* \"contracts/Blockchain_task.sol\":14273:14277  true */\n      0x01\n        /* \"contracts/Blockchain_task.sol\":14250:14260  bannedList */\n      0x06\n        /* \"contracts/Blockchain_task.sol\":14250:14270  bannedList[investor] */\n      0x00\n        /* \"contracts/Blockchain_task.sol\":14261:14269  investor */\n      dup4\n        /* \"contracts/Blockchain_task.sol\":14250:14270  bannedList[investor] */\n      0xffffffffffffffffffffffffffffffffffffffff\n      and\n      0xffffffffffffffffffffffffffffffffffffffff\n      and\n      dup2\n      mstore\n      0x20\n      add\n      swap1\n      dup2\n      mstore\n      0x20\n      add\n      0x00\n      keccak256\n      0x00\n        /* \"contracts/Blockchain_task.sol\":14250:14277  bannedList[investor] = true */\n      0x0100\n      exp\n      dup2\n      sload\n      dup2\n      0xff\n      mul\n      not\n      and\n      swap1\n      dup4\n      iszero\n      iszero\n      mul\n      or\n      swap1\n      sstore\n      pop\n        /* \"contracts/Blockchain_task.sol\":14287:14302  bannedAddresses */\n      0x07\n        /* \"contracts/Blockchain_task.sol\":14308:14316  investor */\n      dup2\n        /* \"contracts/Blockchain_task.sol\":14287:14317  bannedAddresses.push(investor) */\n      swap1\n      dup1\n      0x01\n      dup2\n      sload\n      add\n      dup1\n      dup3\n      sstore\n      dup1\n      swap2\n      pop\n      pop\n      0x01\n      swap1\n      sub\n      swap1\n      0x00\n      mstore\n      keccak256(0x00, 0x20)\n      add\n      0x00\n      swap1\n      swap2\n      swap1\n      swap2\n      swap1\n      swap2\n      0x0100\n      exp\n      dup2\n      sload\n      dup2\n      0xffffffffffffffffffffffffffffffffffffffff\n      mul\n      not\n      and\n      swap1\n      dup4\n      0xffffffffffffffffffffffffffffffffffffffff\n      and\n      mul\n      or\n      swap1\n      sstore\n      pop\n        /* \"contracts/Blockchain_task.sol\":14327:14340  bannedCounter */\n      0x05\n      0x00\n        /* \"contracts/Blockchain_task.sol\":14327:14342  bannedCounter++ */\n      dup2\n      sload\n      dup1\n      swap3\n      swap2\n      swap1\n      tag_318\n      swap1\n      tag_222\n      jump\t// in\n    tag_318:\n      swap2\n      swap1\n      pop\n      sstore\n      pop\n        /* \"contracts/Blockchain_task.sol\":14121:14349  function banInvestor(address investor) public onlyOwner notBanned {... */\n      pop\n      jump\t// out\n        /* \"contracts/Blockchain_task.sol\":691:711  address public owner */\n    tag_83:\n      0x00\n      dup1\n      sload\n      swap1\n      0x0100\n      exp\n      swap1\n      div\n      0xffffffffffffffffffffffffffffffffffffffff\n      and\n      dup2\n      jump\t// out\n        /* \"contracts/Blockchain_task.sol\":7107:7995  function completeCampaign(uint256 campaignId)... */\n    tag_89:\n        /* \"contracts/Blockchain_task.sol\":7191:7201  campaignId */\n      dup1\n        /* \"contracts/Blockchain_task.sol\":2611:2620  campaigns */\n      0x04\n        /* \"contracts/Blockchain_task.sol\":2611:2632  campaigns[campaignId] */\n      0x00\n        /* \"contracts/Blockchain_task.sol\":2621:2631  campaignId */\n      dup3\n        /* \"contracts/Blockchain_task.sol\":2611:2632  campaigns[campaignId] */\n      dup2\n      mstore\n      0x20\n      add\n      swap1\n      dup2\n      mstore\n      0x20\n      add\n      0x00\n      keccak256\n        /* \"contracts/Blockchain_task.sol\":2611:2641  campaigns[campaignId].isActive */\n      0x06\n      add\n      0x00\n      swap1\n      sload\n      swap1\n      0x0100\n      exp\n      swap1\n      div\n      0xff\n      and\n        /* \"contracts/Blockchain_task.sol\":2603:2668  require(campaigns[campaignId].isActive, \"Campaign is not active\") */\n      tag_320\n      jumpi\n      mload(0x40)\n      0x08c379a000000000000000000000000000000000000000000000000000000000\n      dup2\n      mstore\n      0x04\n      add\n      tag_321\n      swap1\n      tag_175\n      jump\t// in\n    tag_321:\n      mload(0x40)\n      dup1\n      swap2\n      sub\n      swap1\n      revert\n    tag_320:\n        /* \"contracts/Blockchain_task.sol\":7224:7234  campaignId */\n      dup2\n        /* \"contracts/Blockchain_task.sol\":2753:2762  campaigns */\n      0x04\n        /* \"contracts/Blockchain_task.sol\":2753:2774  campaigns[campaignId] */\n      0x00\n        /* \"contracts/Blockchain_task.sol\":2763:2773  campaignId */\n      dup3\n        /* \"contracts/Blockchain_task.sol\":2753:2774  campaigns[campaignId] */\n      dup2\n      mstore\n      0x20\n      add\n      swap1\n      dup2\n      mstore\n      0x20\n      add\n      0x00\n      keccak256\n        /* \"contracts/Blockchain_task.sol\":2753:2786  campaigns[campaignId].isCancelled */\n      0x06\n      add\n      0x01\n      swap1\n      sload\n      swap1\n      0x0100\n      exp\n      swap1\n      div\n      0xff\n      and\n        /* \"contracts/Blockchain_task.sol\":2752:2786  !campaigns[campaignId].isCancelled */\n      iszero\n        /* \"contracts/Blockchain_task.sol\":2744:2812  require(!campaigns[campaignId].isCancelled, \"Campaign is cancelled\") */\n      tag_323\n      jumpi\n      mload(0x40)\n      0x08c379a000000000000000000000000000000000000000000000000000000000\n      dup2\n      mstore\n      0x04\n      add\n      tag_324\n      swap1\n      tag_179\n      jump\t// in\n    tag_324:\n      mload(0x40)\n      dup1\n      swap2\n      sub\n      swap1\n      revert\n    tag_323:\n        /* \"contracts/Blockchain_task.sol\":2206:2222  isContractActive */\n      0x09\n      0x00\n      swap1\n      sload\n      swap1\n      0x0100\n      exp\n      swap1\n      div\n      0xff\n      and\n        /* \"contracts/Blockchain_task.sol\":2198:2249  require(isContractActive, \"Contract is not active\") */\n      tag_326\n      jumpi\n      mload(0x40)\n      0x08c379a000000000000000000000000000000000000000000000000000000000\n      dup2\n      mstore\n      0x04\n      add\n      tag_327\n      swap1\n      tag_187\n      jump\t// in\n    tag_327:\n      mload(0x40)\n      dup1\n      swap2\n      sub\n      swap1\n      revert\n    tag_326:\n        /* \"contracts/Blockchain_task.sol\":7273:7298  Campaign storage campaign */\n      0x00\n        /* \"contracts/Blockchain_task.sol\":7301:7310  campaigns */\n      0x04\n        /* \"contracts/Blockchain_task.sol\":7301:7322  campaigns[campaignId] */\n      0x00\n        /* \"contracts/Blockchain_task.sol\":7311:7321  campaignId */\n      dup6\n        /* \"contracts/Blockchain_task.sol\":7301:7322  campaigns[campaignId] */\n      dup2\n      mstore\n      0x20\n      add\n      swap1\n      dup2\n      mstore\n      0x20\n      add\n      0x00\n      keccak256\n        /* \"contracts/Blockchain_task.sol\":7273:7322  Campaign storage campaign = campaigns[campaignId] */\n      swap1\n      pop\n        /* \"contracts/Blockchain_task.sol\":7367:7375  campaign */\n      dup1\n        /* \"contracts/Blockchain_task.sol\":7367:7388  campaign.entrepreneur */\n      0x01\n      add\n      0x00\n      swap1\n      sload\n      swap1\n      0x0100\n      exp\n      swap1\n      div\n      0xffffffffffffffffffffffffffffffffffffffff\n      and\n        /* \"contracts/Blockchain_task.sol\":7353:7388  msg.sender == campaign.entrepreneur */\n      0xffffffffffffffffffffffffffffffffffffffff\n      and\n        /* \"contracts/Blockchain_task.sol\":7353:7363  msg.sender */\n      caller\n        /* \"contracts/Blockchain_task.sol\":7353:7388  msg.sender == campaign.entrepreneur */\n      0xffffffffffffffffffffffffffffffffffffffff\n      and\n      eq\n        /* \"contracts/Blockchain_task.sol\":7353:7411  msg.sender == campaign.entrepreneur || msg.sender == owner */\n      dup1\n      tag_329\n      jumpi\n      pop\n        /* \"contracts/Blockchain_task.sol\":7406:7411  owner */\n      0x00\n      dup1\n      sload\n      swap1\n      0x0100\n      exp\n      swap1\n      div\n      0xffffffffffffffffffffffffffffffffffffffff\n      and\n        /* \"contracts/Blockchain_task.sol\":7392:7411  msg.sender == owner */\n      0xffffffffffffffffffffffffffffffffffffffff\n      and\n        /* \"contracts/Blockchain_task.sol\":7392:7402  msg.sender */\n      caller\n        /* \"contracts/Blockchain_task.sol\":7392:7411  msg.sender == owner */\n      0xffffffffffffffffffffffffffffffffffffffff\n      and\n      eq\n        /* \"contracts/Blockchain_task.sol\":7353:7411  msg.sender == campaign.entrepreneur || msg.sender == owner */\n    tag_329:\n        /* \"contracts/Blockchain_task.sol\":7332:7494  require(... */\n      tag_330\n      jumpi\n      mload(0x40)\n      0x08c379a000000000000000000000000000000000000000000000000000000000\n      dup2\n      mstore\n      0x04\n      add\n      tag_331\n      swap1\n      tag_332\n      jump\t// in\n    tag_331:\n      mload(0x40)\n      dup1\n      swap2\n      sub\n      swap1\n      revert\n    tag_330:\n        /* \"contracts/Blockchain_task.sol\":7551:7559  campaign */\n      dup1\n        /* \"contracts/Blockchain_task.sol\":7551:7571  campaign.totalShares */\n      0x04\n      add\n      sload\n        /* \"contracts/Blockchain_task.sol\":7525:7533  campaign */\n      dup2\n        /* \"contracts/Blockchain_task.sol\":7525:7547  campaign.currentShares */\n      0x05\n      add\n      sload\n        /* \"contracts/Blockchain_task.sol\":7525:7571  campaign.currentShares >= campaign.totalShares */\n      lt\n      iszero\n        /* \"contracts/Blockchain_task.sol\":7504:7633  require(... */\n      tag_333\n      jumpi\n      mload(0x40)\n      0x08c379a000000000000000000000000000000000000000000000000000000000\n      dup2\n      mstore\n      0x04\n      add\n      tag_334\n      swap1\n      tag_335\n      jump\t// in\n    tag_334:\n      mload(0x40)\n      dup1\n      swap2\n      sub\n      swap1\n      revert\n    tag_333:\n        /* \"contracts/Blockchain_task.sol\":7644:7670  uint256 entrepreneurPayout */\n      0x00\n        /* \"contracts/Blockchain_task.sol\":7704:7707  100 */\n      0x64\n        /* \"contracts/Blockchain_task.sol\":7698:7700  80 */\n      0x50\n        /* \"contracts/Blockchain_task.sol\":7674:7695  address(this).balance */\n      selfbalance\n        /* \"contracts/Blockchain_task.sol\":7674:7700  address(this).balance * 80 */\n      tag_336\n      swap2\n      swap1\n      tag_155\n      jump\t// in\n    tag_336:\n        /* \"contracts/Blockchain_task.sol\":7673:7707  (address(this).balance * 80) / 100 */\n      tag_337\n      swap2\n      swap1\n      tag_300\n      jump\t// in\n    tag_337:\n        /* \"contracts/Blockchain_task.sol\":7644:7707  uint256 entrepreneurPayout = (address(this).balance * 80) / 100 */\n      swap1\n      pop\n        /* \"contracts/Blockchain_task.sol\":7725:7733  campaign */\n      dup2\n        /* \"contracts/Blockchain_task.sol\":7725:7746  campaign.entrepreneur */\n      0x01\n      add\n      0x00\n      swap1\n      sload\n      swap1\n      0x0100\n      exp\n      swap1\n      div\n      0xffffffffffffffffffffffffffffffffffffffff\n      and\n        /* \"contracts/Blockchain_task.sol\":7717:7756  payable(campaign.entrepreneur).transfer */\n      0xffffffffffffffffffffffffffffffffffffffff\n      and\n        /* \"contracts/Blockchain_task.sol\":7717:7776  payable(campaign.entrepreneur).transfer(entrepreneurPayout) */\n      0x08fc\n        /* \"contracts/Blockchain_task.sol\":7757:7775  entrepreneurPayout */\n      dup3\n        /* \"contracts/Blockchain_task.sol\":7717:7776  payable(campaign.entrepreneur).transfer(entrepreneurPayout) */\n      swap1\n      dup2\n      iszero\n      mul\n      swap1\n      mload(0x40)\n      0x00\n      mload(0x40)\n      dup1\n      dup4\n      sub\n      dup2\n      dup6\n      dup9\n      dup9\n      call\n      swap4\n      pop\n      pop\n      pop\n      pop\n      iszero\n      dup1\n      iszero\n      tag_339\n      jumpi\n      returndatasize\n      0x00\n      dup1\n      returndatacopy\n      revert(0x00, returndatasize)\n    tag_339:\n      pop\n        /* \"contracts/Blockchain_task.sol\":7839:7842  100 */\n      0x64\n        /* \"contracts/Blockchain_task.sol\":7833:7835  20 */\n      0x14\n        /* \"contracts/Blockchain_task.sol\":7809:7830  address(this).balance */\n      selfbalance\n        /* \"contracts/Blockchain_task.sol\":7809:7835  address(this).balance * 20 */\n      tag_340\n      swap2\n      swap1\n      tag_155\n      jump\t// in\n    tag_340:\n        /* \"contracts/Blockchain_task.sol\":7808:7842  (address(this).balance * 20) / 100 */\n      tag_341\n      swap2\n      swap1\n      tag_300\n      jump\t// in\n    tag_341:\n        /* \"contracts/Blockchain_task.sol\":7787:7805  totalFeesCollected */\n      0x02\n        /* \"contracts/Blockchain_task.sol\":7787:7842  totalFeesCollected = (address(this).balance * 20) / 100 */\n      dup2\n      swap1\n      sstore\n      pop\n        /* \"contracts/Blockchain_task.sol\":7873:7878  false */\n      0x00\n        /* \"contracts/Blockchain_task.sol\":7853:7861  campaign */\n      dup3\n        /* \"contracts/Blockchain_task.sol\":7853:7870  campaign.isActive */\n      0x06\n      add\n      0x00\n        /* \"contracts/Blockchain_task.sol\":7853:7878  campaign.isActive = false */\n      0x0100\n      exp\n      dup2\n      sload\n      dup2\n      0xff\n      mul\n      not\n      and\n      swap1\n      dup4\n      iszero\n      iszero\n      mul\n      or\n      swap1\n      sstore\n      pop\n        /* \"contracts/Blockchain_task.sol\":7911:7915  true */\n      0x01\n        /* \"contracts/Blockchain_task.sol\":7888:7896  campaign */\n      dup3\n        /* \"contracts/Blockchain_task.sol\":7888:7908  campaign.isCompleted */\n      0x06\n      add\n      0x02\n        /* \"contracts/Blockchain_task.sol\":7888:7915  campaign.isCompleted = true */\n      0x0100\n      exp\n      dup2\n      sload\n      dup2\n      0xff\n      mul\n      not\n      and\n      swap1\n      dup4\n      iszero\n      iszero\n      mul\n      or\n      swap1\n      sstore\n      pop\n        /* \"contracts/Blockchain_task.sol\":7931:7988  CampaignCompleted(campaignId, msg.sender, campaign.title) */\n      0x8074ef78c691c15ac249ef0c702e350affe9388afdbbafd37c0d19703cd0c7db\n        /* \"contracts/Blockchain_task.sol\":7949:7959  campaignId */\n      dup6\n        /* \"contracts/Blockchain_task.sol\":7961:7971  msg.sender */\n      caller\n        /* \"contracts/Blockchain_task.sol\":7973:7981  campaign */\n      dup5\n        /* \"contracts/Blockchain_task.sol\":7973:7987  campaign.title */\n      0x02\n      add\n        /* \"contracts/Blockchain_task.sol\":7931:7988  CampaignCompleted(campaignId, msg.sender, campaign.title) */\n      mload(0x40)\n      tag_342\n      swap4\n      swap3\n      swap2\n      swap1\n      tag_278\n      jump\t// in\n    tag_342:\n      mload(0x40)\n      dup1\n      swap2\n      sub\n      swap1\n      log1\n        /* \"contracts/Blockchain_task.sol\":7263:7995  {... */\n      pop\n      pop\n        /* \"contracts/Blockchain_task.sol\":2678:2679  _ */\n      pop\n        /* \"contracts/Blockchain_task.sol\":7107:7995  function completeCampaign(uint256 campaignId)... */\n      pop\n      pop\n      jump\t// out\n        /* \"contracts/Blockchain_task.sol\":14384:14554  function changeOwner(address newOwner) public onlyOwner {... */\n    tag_93:\n        /* \"contracts/Blockchain_task.sol\":2067:2072  owner */\n      0x00\n      dup1\n      sload\n      swap1\n      0x0100\n      exp\n      swap1\n      div\n      0xffffffffffffffffffffffffffffffffffffffff\n      and\n        /* \"contracts/Blockchain_task.sol\":2053:2072  msg.sender == owner */\n      0xffffffffffffffffffffffffffffffffffffffff\n      and\n        /* \"contracts/Blockchain_task.sol\":2053:2063  msg.sender */\n      caller\n        /* \"contracts/Blockchain_task.sol\":2053:2072  msg.sender == owner */\n      0xffffffffffffffffffffffffffffffffffffffff\n      and\n      eq\n        /* \"contracts/Blockchain_task.sol\":2032:2138  require(... */\n      tag_344\n      jumpi\n      mload(0x40)\n      0x08c379a000000000000000000000000000000000000000000000000000000000\n      dup2\n      mstore\n      0x04\n      add\n      tag_345\n      swap1\n      tag_140\n      jump\t// in\n    tag_345:\n      mload(0x40)\n      dup1\n      swap2\n      sub\n      swap1\n      revert\n    tag_344:\n        /* \"contracts/Blockchain_task.sol\":14478:14479  0 */\n      0x00\n        /* \"contracts/Blockchain_task.sol\":14458:14480  newOwner != address(0) */\n      0xffffffffffffffffffffffffffffffffffffffff\n      and\n        /* \"contracts/Blockchain_task.sol\":14458:14466  newOwner */\n      dup2\n        /* \"contracts/Blockchain_task.sol\":14458:14480  newOwner != address(0) */\n      0xffffffffffffffffffffffffffffffffffffffff\n      and\n      sub\n        /* \"contracts/Blockchain_task.sol\":14450:14521  require(newOwner != address(0), \"New owner cannot be the zero address\") */\n      tag_347\n      jumpi\n      mload(0x40)\n      0x08c379a000000000000000000000000000000000000000000000000000000000\n      dup2\n      mstore\n      0x04\n      add\n      tag_348\n      swap1\n      tag_349\n      jump\t// in\n    tag_348:\n      mload(0x40)\n      dup1\n      swap2\n      sub\n      swap1\n      revert\n    tag_347:\n        /* \"contracts/Blockchain_task.sol\":14539:14547  newOwner */\n      dup1\n        /* \"contracts/Blockchain_task.sol\":14531:14536  owner */\n      0x00\n      dup1\n        /* \"contracts/Blockchain_task.sol\":14531:14547  owner = newOwner */\n      0x0100\n      exp\n      dup2\n      sload\n      dup2\n      0xffffffffffffffffffffffffffffffffffffffff\n      mul\n      not\n      and\n      swap1\n      dup4\n      0xffffffffffffffffffffffffffffffffffffffff\n      and\n      mul\n      or\n      swap1\n      sstore\n      pop\n        /* \"contracts/Blockchain_task.sol\":14384:14554  function changeOwner(address newOwner) public onlyOwner {... */\n      pop\n      jump\t// out\n        /* \"contracts/Blockchain_task.sol\":1124:1152  uint256 public bannedCounter */\n    tag_96:\n      sload(0x05)\n      dup2\n      jump\t// out\n        /* \"contracts/Blockchain_task.sol\":13358:14073  function getInvestorsAndShares(uint256 campaignId)... */\n    tag_101:\n        /* \"contracts/Blockchain_task.sol\":13489:13515  address[] memory investors */\n      0x60\n        /* \"contracts/Blockchain_task.sol\":13517:13540  uint256[] memory shares */\n      dup1\n        /* \"contracts/Blockchain_task.sol\":13460:13470  campaignId */\n      dup3\n        /* \"contracts/Blockchain_task.sol\":3355:3356  0 */\n      0x00\n        /* \"contracts/Blockchain_task.sol\":3342:3352  campaignId */\n      dup2\n        /* \"contracts/Blockchain_task.sol\":3342:3356  campaignId > 0 */\n      gt\n        /* \"contracts/Blockchain_task.sol\":3342:3389  campaignId > 0 && campaignId <= campaignCounter */\n      dup1\n      iszero\n      tag_351\n      jumpi\n      pop\n        /* \"contracts/Blockchain_task.sol\":3374:3389  campaignCounter */\n      sload(0x03)\n        /* \"contracts/Blockchain_task.sol\":3360:3370  campaignId */\n      dup2\n        /* \"contracts/Blockchain_task.sol\":3360:3389  campaignId <= campaignCounter */\n      gt\n      iszero\n        /* \"contracts/Blockchain_task.sol\":3342:3389  campaignId > 0 && campaignId <= campaignCounter */\n    tag_351:\n        /* \"contracts/Blockchain_task.sol\":3321:3434  require(... */\n      tag_352\n      jumpi\n      mload(0x40)\n      0x08c379a000000000000000000000000000000000000000000000000000000000\n      dup2\n      mstore\n      0x04\n      add\n      tag_353\n      swap1\n      tag_354\n      jump\t// in\n    tag_353:\n      mload(0x40)\n      dup1\n      swap2\n      sub\n      swap1\n      revert\n    tag_352:\n        /* \"contracts/Blockchain_task.sol\":13556:13581  Campaign storage campaign */\n      0x00\n        /* \"contracts/Blockchain_task.sol\":13584:13593  campaigns */\n      0x04\n        /* \"contracts/Blockchain_task.sol\":13584:13605  campaigns[campaignId] */\n      0x00\n        /* \"contracts/Blockchain_task.sol\":13594:13604  campaignId */\n      dup7\n        /* \"contracts/Blockchain_task.sol\":13584:13605  campaigns[campaignId] */\n      dup2\n      mstore\n      0x20\n      add\n      swap1\n      dup2\n      mstore\n      0x20\n      add\n      0x00\n      keccak256\n        /* \"contracts/Blockchain_task.sol\":13556:13605  Campaign storage campaign = campaigns[campaignId] */\n      swap1\n      pop\n        /* \"contracts/Blockchain_task.sol\":13714:13735  uint256 investorCount */\n      0x00\n        /* \"contracts/Blockchain_task.sol\":13738:13746  campaign */\n      dup2\n        /* \"contracts/Blockchain_task.sol\":13738:13754  campaign.backers */\n      0x07\n      add\n        /* \"contracts/Blockchain_task.sol\":13738:13761  campaign.backers.length */\n      dup1\n      sload\n      swap1\n      pop\n        /* \"contracts/Blockchain_task.sol\":13714:13761  uint256 investorCount = campaign.backers.length */\n      swap1\n      pop\n        /* \"contracts/Blockchain_task.sol\":13797:13810  investorCount */\n      dup1\n        /* \"contracts/Blockchain_task.sol\":13783:13811  new address[](investorCount) */\n      0xffffffffffffffff\n      dup2\n      gt\n      iszero\n      tag_356\n      jumpi\n      tag_357\n      tag_235\n      jump\t// in\n    tag_357:\n    tag_356:\n      mload(0x40)\n      swap1\n      dup1\n      dup3\n      mstore\n      dup1\n      0x20\n      mul\n      0x20\n      add\n      dup3\n      add\n      0x40\n      mstore\n      dup1\n      iszero\n      tag_358\n      jumpi\n      dup2\n      0x20\n      add\n      0x20\n      dup3\n      mul\n      dup1\n      calldatasize\n      dup4\n      calldatacopy\n      dup1\n      dup3\n      add\n      swap2\n      pop\n      pop\n      swap1\n      pop\n    tag_358:\n      pop\n        /* \"contracts/Blockchain_task.sol\":13771:13811  investors = new address[](investorCount) */\n      swap5\n      pop\n        /* \"contracts/Blockchain_task.sol\":13844:13857  investorCount */\n      dup1\n        /* \"contracts/Blockchain_task.sol\":13830:13858  new uint256[](investorCount) */\n      0xffffffffffffffff\n      dup2\n      gt\n      iszero\n      tag_359\n      jumpi\n      tag_360\n      tag_235\n      jump\t// in\n    tag_360:\n    tag_359:\n      mload(0x40)\n      swap1\n      dup1\n      dup3\n      mstore\n      dup1\n      0x20\n      mul\n      0x20\n      add\n      dup3\n      add\n      0x40\n      mstore\n      dup1\n      iszero\n      tag_361\n      jumpi\n      dup2\n      0x20\n      add\n      0x20\n      dup3\n      mul\n      dup1\n      calldatasize\n      dup4\n      calldatacopy\n      dup1\n      dup3\n      add\n      swap2\n      pop\n      pop\n      swap1\n      pop\n    tag_361:\n      pop\n        /* \"contracts/Blockchain_task.sol\":13821:13858  shares = new uint256[](investorCount) */\n      swap4\n      pop\n        /* \"contracts/Blockchain_task.sol\":13874:13883  uint256 i */\n      0x00\n        /* \"contracts/Blockchain_task.sol\":13869:14067  for (uint256 i = 0; i < investorCount; i++) {... */\n    tag_362:\n        /* \"contracts/Blockchain_task.sol\":13893:13906  investorCount */\n      dup2\n        /* \"contracts/Blockchain_task.sol\":13889:13890  i */\n      dup2\n        /* \"contracts/Blockchain_task.sol\":13889:13906  i < investorCount */\n      lt\n        /* \"contracts/Blockchain_task.sol\":13869:14067  for (uint256 i = 0; i < investorCount; i++) {... */\n      iszero\n      tag_363\n      jumpi\n        /* \"contracts/Blockchain_task.sol\":13927:13941  address backer */\n      0x00\n        /* \"contracts/Blockchain_task.sol\":13944:13952  campaign */\n      dup4\n        /* \"contracts/Blockchain_task.sol\":13944:13960  campaign.backers */\n      0x07\n      add\n        /* \"contracts/Blockchain_task.sol\":13961:13962  i */\n      dup3\n        /* \"contracts/Blockchain_task.sol\":13944:13963  campaign.backers[i] */\n      dup2\n      sload\n      dup2\n      lt\n      tag_365\n      jumpi\n      tag_366\n      tag_152\n      jump\t// in\n    tag_366:\n    tag_365:\n      swap1\n      0x00\n      mstore\n      keccak256(0x00, 0x20)\n      add\n      0x00\n      swap1\n      sload\n      swap1\n      0x0100\n      exp\n      swap1\n      div\n      0xffffffffffffffffffffffffffffffffffffffff\n      and\n        /* \"contracts/Blockchain_task.sol\":13927:13963  address backer = campaign.backers[i] */\n      swap1\n      pop\n        /* \"contracts/Blockchain_task.sol\":13992:13998  backer */\n      dup1\n        /* \"contracts/Blockchain_task.sol\":13977:13986  investors */\n      dup8\n        /* \"contracts/Blockchain_task.sol\":13987:13988  i */\n      dup4\n        /* \"contracts/Blockchain_task.sol\":13977:13989  investors[i] */\n      dup2\n      mload\n      dup2\n      lt\n      tag_368\n      jumpi\n      tag_369\n      tag_152\n      jump\t// in\n    tag_369:\n    tag_368:\n      0x20\n      mul\n      0x20\n      add\n      add\n        /* \"contracts/Blockchain_task.sol\":13977:13998  investors[i] = backer */\n      swap1\n      0xffffffffffffffffffffffffffffffffffffffff\n      and\n      swap1\n      dup2\n      0xffffffffffffffffffffffffffffffffffffffff\n      and\n      dup2\n      mstore\n      pop\n      pop\n        /* \"contracts/Blockchain_task.sol\":14024:14032  campaign */\n      dup4\n        /* \"contracts/Blockchain_task.sol\":14024:14048  campaign.sharesPerBacker */\n      0x08\n      add\n        /* \"contracts/Blockchain_task.sol\":14024:14056  campaign.sharesPerBacker[backer] */\n      0x00\n        /* \"contracts/Blockchain_task.sol\":14049:14055  backer */\n      dup3\n        /* \"contracts/Blockchain_task.sol\":14024:14056  campaign.sharesPerBacker[backer] */\n      0xffffffffffffffffffffffffffffffffffffffff\n      and\n      0xffffffffffffffffffffffffffffffffffffffff\n      and\n      dup2\n      mstore\n      0x20\n      add\n      swap1\n      dup2\n      mstore\n      0x20\n      add\n      0x00\n      keccak256\n      sload\n        /* \"contracts/Blockchain_task.sol\":14012:14018  shares */\n      dup7\n        /* \"contracts/Blockchain_task.sol\":14019:14020  i */\n      dup4\n        /* \"contracts/Blockchain_task.sol\":14012:14021  shares[i] */\n      dup2\n      mload\n      dup2\n      lt\n      tag_370\n      jumpi\n      tag_371\n      tag_152\n      jump\t// in\n    tag_371:\n    tag_370:\n      0x20\n      mul\n      0x20\n      add\n      add\n        /* \"contracts/Blockchain_task.sol\":14012:14056  shares[i] = campaign.sharesPerBacker[backer] */\n      dup2\n      dup2\n      mstore\n      pop\n      pop\n        /* \"contracts/Blockchain_task.sol\":13913:14067  {... */\n      pop\n        /* \"contracts/Blockchain_task.sol\":13908:13911  i++ */\n      dup1\n      dup1\n      0x01\n      add\n      swap2\n      pop\n      pop\n        /* \"contracts/Blockchain_task.sol\":13869:14067  for (uint256 i = 0; i < investorCount; i++) {... */\n      jump(tag_362)\n    tag_363:\n      pop\n        /* \"contracts/Blockchain_task.sol\":13546:14073  {... */\n      pop\n      pop\n        /* \"contracts/Blockchain_task.sol\":13358:14073  function getInvestorsAndShares(uint256 campaignId)... */\n      pop\n      swap2\n      pop\n      swap2\n      jump\t// out\n        /* \"contracts/Blockchain_task.sol\":1285:1327  mapping(address => uint256) public refunds */\n    tag_107:\n      mstore(0x20, 0x08)\n      dup1\n      0x00\n      mstore\n      keccak256(0x00, 0x40)\n      0x00\n      swap2\n      pop\n      swap1\n      pop\n      sload\n      dup2\n      jump\t// out\n        /* \"contracts/Blockchain_task.sol\":1158:1200  mapping(address => bool) public bannedList */\n    tag_112:\n      mstore(0x20, 0x06)\n      dup1\n      0x00\n      mstore\n      keccak256(0x00, 0x40)\n      0x00\n      swap2\n      pop\n      sload\n      swap1\n      0x0100\n      exp\n      swap1\n      div\n      0xff\n      and\n      dup2\n      jump\t// out\n        /* \"contracts/Blockchain_task.sol\":11254:12462  function getCancelledCampaigns()... */\n    tag_117:\n        /* \"contracts/Blockchain_task.sol\":11332:11353  CampaignInfo[] memory */\n      0x60\n        /* \"contracts/Blockchain_task.sol\":11369:11391  uint256 cancelledCount */\n      0x00\n        /* \"contracts/Blockchain_task.sol\":11448:11457  uint256 i */\n      dup1\n        /* \"contracts/Blockchain_task.sol\":11443:11592  for (uint256 i = 0; i < campaignCounter; i++) {... */\n    tag_373:\n        /* \"contracts/Blockchain_task.sol\":11467:11482  campaignCounter */\n      sload(0x03)\n        /* \"contracts/Blockchain_task.sol\":11463:11464  i */\n      dup2\n        /* \"contracts/Blockchain_task.sol\":11463:11482  i < campaignCounter */\n      lt\n        /* \"contracts/Blockchain_task.sol\":11443:11592  for (uint256 i = 0; i < campaignCounter; i++) {... */\n      iszero\n      tag_374\n      jumpi\n        /* \"contracts/Blockchain_task.sol\":11507:11516  campaigns */\n      0x04\n        /* \"contracts/Blockchain_task.sol\":11507:11519  campaigns[i] */\n      0x00\n        /* \"contracts/Blockchain_task.sol\":11517:11518  i */\n      dup3\n        /* \"contracts/Blockchain_task.sol\":11507:11519  campaigns[i] */\n      dup2\n      mstore\n      0x20\n      add\n      swap1\n      dup2\n      mstore\n      0x20\n      add\n      0x00\n      keccak256\n        /* \"contracts/Blockchain_task.sol\":11507:11531  campaigns[i].isCancelled */\n      0x06\n      add\n      0x01\n      swap1\n      sload\n      swap1\n      0x0100\n      exp\n      swap1\n      div\n      0xff\n      and\n        /* \"contracts/Blockchain_task.sol\":11503:11582  if (campaigns[i].isCancelled) {... */\n      iszero\n      tag_376\n      jumpi\n        /* \"contracts/Blockchain_task.sol\":11551:11567  cancelledCount++ */\n      dup2\n      dup1\n      tag_377\n      swap1\n      tag_222\n      jump\t// in\n    tag_377:\n      swap3\n      pop\n      pop\n        /* \"contracts/Blockchain_task.sol\":11503:11582  if (campaigns[i].isCancelled) {... */\n    tag_376:\n        /* \"contracts/Blockchain_task.sol\":11484:11487  i++ */\n      dup1\n      dup1\n      0x01\n      add\n      swap2\n      pop\n      pop\n        /* \"contracts/Blockchain_task.sol\":11443:11592  for (uint256 i = 0; i < campaignCounter; i++) {... */\n      jump(tag_373)\n    tag_374:\n      pop\n        /* \"contracts/Blockchain_task.sol\":11655:11695  CampaignInfo[] memory cancelledCampaigns */\n      0x00\n        /* \"contracts/Blockchain_task.sol\":11730:11744  cancelledCount */\n      dup2\n        /* \"contracts/Blockchain_task.sol\":11698:11754  new CampaignInfo[](... */\n      0xffffffffffffffff\n      dup2\n      gt\n      iszero\n      tag_378\n      jumpi\n      tag_379\n      tag_235\n      jump\t// in\n    tag_379:\n    tag_378:\n      mload(0x40)\n      swap1\n      dup1\n      dup3\n      mstore\n      dup1\n      0x20\n      mul\n      0x20\n      add\n      dup3\n      add\n      0x40\n      mstore\n      dup1\n      iszero\n      tag_380\n      jumpi\n      dup2\n      0x20\n      add\n    tag_381:\n      tag_382\n      tag_239\n      jump\t// in\n    tag_382:\n      dup2\n      mstore\n      0x20\n      add\n      swap1\n      0x01\n      swap1\n      sub\n      swap1\n      dup2\n      tag_381\n      jumpi\n      swap1\n      pop\n    tag_380:\n      pop\n        /* \"contracts/Blockchain_task.sol\":11655:11754  CampaignInfo[] memory cancelledCampaigns = new CampaignInfo[](... */\n      swap1\n      pop\n        /* \"contracts/Blockchain_task.sol\":11764:11777  uint256 index */\n      0x00\n        /* \"contracts/Blockchain_task.sol\":11846:11855  uint256 i */\n      dup1\n        /* \"contracts/Blockchain_task.sol\":11841:12420  for (uint256 i = 0; i < campaignCounter; i++) {... */\n    tag_383:\n        /* \"contracts/Blockchain_task.sol\":11865:11880  campaignCounter */\n      sload(0x03)\n        /* \"contracts/Blockchain_task.sol\":11861:11862  i */\n      dup2\n        /* \"contracts/Blockchain_task.sol\":11861:11880  i < campaignCounter */\n      lt\n        /* \"contracts/Blockchain_task.sol\":11841:12420  for (uint256 i = 0; i < campaignCounter; i++) {... */\n      iszero\n      tag_384\n      jumpi\n        /* \"contracts/Blockchain_task.sol\":11905:11914  campaigns */\n      0x04\n        /* \"contracts/Blockchain_task.sol\":11905:11917  campaigns[i] */\n      0x00\n        /* \"contracts/Blockchain_task.sol\":11915:11916  i */\n      dup3\n        /* \"contracts/Blockchain_task.sol\":11905:11917  campaigns[i] */\n      dup2\n      mstore\n      0x20\n      add\n      swap1\n      dup2\n      mstore\n      0x20\n      add\n      0x00\n      keccak256\n        /* \"contracts/Blockchain_task.sol\":11905:11929  campaigns[i].isCancelled */\n      0x06\n      add\n      0x01\n      swap1\n      sload\n      swap1\n      0x0100\n      exp\n      swap1\n      div\n      0xff\n      and\n        /* \"contracts/Blockchain_task.sol\":11901:12410  if (campaigns[i].isCancelled) {... */\n      iszero\n      tag_386\n      jumpi\n        /* \"contracts/Blockchain_task.sol\":11977:12370  CampaignInfo(... */\n      mload(0x40)\n      dup1\n      0x0100\n      add\n      0x40\n      mstore\n      dup1\n        /* \"contracts/Blockchain_task.sol\":12011:12020  campaigns */\n      0x04\n        /* \"contracts/Blockchain_task.sol\":12011:12023  campaigns[i] */\n      0x00\n        /* \"contracts/Blockchain_task.sol\":12021:12022  i */\n      dup5\n        /* \"contracts/Blockchain_task.sol\":12011:12023  campaigns[i] */\n      dup2\n      mstore\n      0x20\n      add\n      swap1\n      dup2\n      mstore\n      0x20\n      add\n      0x00\n      keccak256\n        /* \"contracts/Blockchain_task.sol\":12011:12034  campaigns[i].campaignId */\n      0x00\n      add\n      sload\n        /* \"contracts/Blockchain_task.sol\":11977:12370  CampaignInfo(... */\n      dup2\n      mstore\n      0x20\n      add\n        /* \"contracts/Blockchain_task.sol\":12056:12065  campaigns */\n      0x04\n        /* \"contracts/Blockchain_task.sol\":12056:12068  campaigns[i] */\n      0x00\n        /* \"contracts/Blockchain_task.sol\":12066:12067  i */\n      dup5\n        /* \"contracts/Blockchain_task.sol\":12056:12068  campaigns[i] */\n      dup2\n      mstore\n      0x20\n      add\n      swap1\n      dup2\n      mstore\n      0x20\n      add\n      0x00\n      keccak256\n        /* \"contracts/Blockchain_task.sol\":12056:12081  campaigns[i].entrepreneur */\n      0x01\n      add\n      0x00\n      swap1\n      sload\n      swap1\n      0x0100\n      exp\n      swap1\n      div\n      0xffffffffffffffffffffffffffffffffffffffff\n      and\n        /* \"contracts/Blockchain_task.sol\":11977:12370  CampaignInfo(... */\n      0xffffffffffffffffffffffffffffffffffffffff\n      and\n      dup2\n      mstore\n      0x20\n      add\n        /* \"contracts/Blockchain_task.sol\":12103:12112  campaigns */\n      0x04\n        /* \"contracts/Blockchain_task.sol\":12103:12115  campaigns[i] */\n      0x00\n        /* \"contracts/Blockchain_task.sol\":12113:12114  i */\n      dup5\n        /* \"contracts/Blockchain_task.sol\":12103:12115  campaigns[i] */\n      dup2\n      mstore\n      0x20\n      add\n      swap1\n      dup2\n      mstore\n      0x20\n      add\n      0x00\n      keccak256\n        /* \"contracts/Blockchain_task.sol\":12103:12121  campaigns[i].title */\n      0x02\n      add\n        /* \"contracts/Blockchain_task.sol\":11977:12370  CampaignInfo(... */\n      dup1\n      sload\n      tag_387\n      swap1\n      tag_159\n      jump\t// in\n    tag_387:\n      dup1\n      0x1f\n      add\n      0x20\n      dup1\n      swap2\n      div\n      mul\n      0x20\n      add\n      mload(0x40)\n      swap1\n      dup2\n      add\n      0x40\n      mstore\n      dup1\n      swap3\n      swap2\n      swap1\n      dup2\n      dup2\n      mstore\n      0x20\n      add\n      dup3\n      dup1\n      sload\n      tag_388\n      swap1\n      tag_159\n      jump\t// in\n    tag_388:\n      dup1\n      iszero\n      tag_389\n      jumpi\n      dup1\n      0x1f\n      lt\n      tag_390\n      jumpi\n      0x0100\n      dup1\n      dup4\n      sload\n      div\n      mul\n      dup4\n      mstore\n      swap2\n      0x20\n      add\n      swap2\n      jump(tag_389)\n    tag_390:\n      dup3\n      add\n      swap2\n      swap1\n      0x00\n      mstore\n      keccak256(0x00, 0x20)\n      swap1\n    tag_391:\n      dup2\n      sload\n      dup2\n      mstore\n      swap1\n      0x01\n      add\n      swap1\n      0x20\n      add\n      dup1\n      dup4\n      gt\n      tag_391\n      jumpi\n      dup3\n      swap1\n      sub\n      0x1f\n      and\n      dup3\n      add\n      swap2\n    tag_389:\n      pop\n      pop\n      pop\n      pop\n      pop\n      dup2\n      mstore\n      0x20\n      add\n        /* \"contracts/Blockchain_task.sol\":12143:12152  campaigns */\n      0x04\n        /* \"contracts/Blockchain_task.sol\":12143:12155  campaigns[i] */\n      0x00\n        /* \"contracts/Blockchain_task.sol\":12153:12154  i */\n      dup5\n        /* \"contracts/Blockchain_task.sol\":12143:12155  campaigns[i] */\n      dup2\n      mstore\n      0x20\n      add\n      swap1\n      dup2\n      mstore\n      0x20\n      add\n      0x00\n      keccak256\n        /* \"contracts/Blockchain_task.sol\":12143:12166  campaigns[i].sharePrice */\n      0x03\n      add\n      sload\n        /* \"contracts/Blockchain_task.sol\":11977:12370  CampaignInfo(... */\n      dup2\n      mstore\n      0x20\n      add\n        /* \"contracts/Blockchain_task.sol\":12188:12197  campaigns */\n      0x04\n        /* \"contracts/Blockchain_task.sol\":12188:12200  campaigns[i] */\n      0x00\n        /* \"contracts/Blockchain_task.sol\":12198:12199  i */\n      dup5\n        /* \"contracts/Blockchain_task.sol\":12188:12200  campaigns[i] */\n      dup2\n      mstore\n      0x20\n      add\n      swap1\n      dup2\n      mstore\n      0x20\n      add\n      0x00\n      keccak256\n        /* \"contracts/Blockchain_task.sol\":12188:12212  campaigns[i].totalShares */\n      0x04\n      add\n      sload\n        /* \"contracts/Blockchain_task.sol\":11977:12370  CampaignInfo(... */\n      dup2\n      mstore\n      0x20\n      add\n        /* \"contracts/Blockchain_task.sol\":12234:12243  campaigns */\n      0x04\n        /* \"contracts/Blockchain_task.sol\":12234:12246  campaigns[i] */\n      0x00\n        /* \"contracts/Blockchain_task.sol\":12244:12245  i */\n      dup5\n        /* \"contracts/Blockchain_task.sol\":12234:12246  campaigns[i] */\n      dup2\n      mstore\n      0x20\n      add\n      swap1\n      dup2\n      mstore\n      0x20\n      add\n      0x00\n      keccak256\n        /* \"contracts/Blockchain_task.sol\":12234:12260  campaigns[i].currentShares */\n      0x05\n      add\n      sload\n        /* \"contracts/Blockchain_task.sol\":11977:12370  CampaignInfo(... */\n      dup2\n      mstore\n      0x20\n      add\n        /* \"contracts/Blockchain_task.sol\":12282:12291  campaigns */\n      0x04\n        /* \"contracts/Blockchain_task.sol\":12282:12294  campaigns[i] */\n      0x00\n        /* \"contracts/Blockchain_task.sol\":12292:12293  i */\n      dup5\n        /* \"contracts/Blockchain_task.sol\":12282:12294  campaigns[i] */\n      dup2\n      mstore\n      0x20\n      add\n      swap1\n      dup2\n      mstore\n      0x20\n      add\n      0x00\n      keccak256\n        /* \"contracts/Blockchain_task.sol\":12282:12306  campaigns[i].isCompleted */\n      0x06\n      add\n      0x02\n      swap1\n      sload\n      swap1\n      0x0100\n      exp\n      swap1\n      div\n      0xff\n      and\n        /* \"contracts/Blockchain_task.sol\":11977:12370  CampaignInfo(... */\n      iszero\n      iszero\n      dup2\n      mstore\n      0x20\n      add\n        /* \"contracts/Blockchain_task.sol\":12328:12337  campaigns */\n      0x04\n        /* \"contracts/Blockchain_task.sol\":12328:12340  campaigns[i] */\n      0x00\n        /* \"contracts/Blockchain_task.sol\":12338:12339  i */\n      dup5\n        /* \"contracts/Blockchain_task.sol\":12328:12340  campaigns[i] */\n      dup2\n      mstore\n      0x20\n      add\n      swap1\n      dup2\n      mstore\n      0x20\n      add\n      0x00\n      keccak256\n        /* \"contracts/Blockchain_task.sol\":12328:12352  campaigns[i].isCancelled */\n      0x06\n      add\n      0x01\n      swap1\n      sload\n      swap1\n      0x0100\n      exp\n      swap1\n      div\n      0xff\n      and\n        /* \"contracts/Blockchain_task.sol\":11977:12370  CampaignInfo(... */\n      iszero\n      iszero\n      dup2\n      mstore\n      pop\n        /* \"contracts/Blockchain_task.sol\":11949:11967  cancelledCampaigns */\n      dup4\n        /* \"contracts/Blockchain_task.sol\":11968:11973  index */\n      dup4\n        /* \"contracts/Blockchain_task.sol\":11949:11974  cancelledCampaigns[index] */\n      dup2\n      mload\n      dup2\n      lt\n      tag_392\n      jumpi\n      tag_393\n      tag_152\n      jump\t// in\n    tag_393:\n    tag_392:\n      0x20\n      mul\n      0x20\n      add\n      add\n        /* \"contracts/Blockchain_task.sol\":11949:12370  cancelledCampaigns[index] = CampaignInfo(... */\n      dup2\n      swap1\n      mstore\n      pop\n        /* \"contracts/Blockchain_task.sol\":12388:12395  index++ */\n      dup2\n      dup1\n      tag_394\n      swap1\n      tag_222\n      jump\t// in\n    tag_394:\n      swap3\n      pop\n      pop\n        /* \"contracts/Blockchain_task.sol\":11901:12410  if (campaigns[i].isCancelled) {... */\n    tag_386:\n        /* \"contracts/Blockchain_task.sol\":11882:11885  i++ */\n      dup1\n      dup1\n      0x01\n      add\n      swap2\n      pop\n      pop\n        /* \"contracts/Blockchain_task.sol\":11841:12420  for (uint256 i = 0; i < campaignCounter; i++) {... */\n      jump(tag_383)\n    tag_384:\n      pop\n        /* \"contracts/Blockchain_task.sol\":12437:12455  cancelledCampaigns */\n      dup2\n        /* \"contracts/Blockchain_task.sol\":12430:12455  return cancelledCampaigns */\n      swap4\n      pop\n      pop\n      pop\n      pop\n        /* \"contracts/Blockchain_task.sol\":11254:12462  function getCancelledCampaigns()... */\n      swap1\n      jump\t// out\n        /* \"contracts/Blockchain_task.sol\":8682:9902  function getActiveCampaigns() public view returns (CampaignInfo[] memory) {... */\n    tag_121:\n        /* \"contracts/Blockchain_task.sol\":8733:8754  CampaignInfo[] memory */\n      0x60\n        /* \"contracts/Blockchain_task.sol\":8766:8785  uint256 activeCount */\n      0x00\n        /* \"contracts/Blockchain_task.sol\":8839:8848  uint256 i */\n      dup1\n        /* \"contracts/Blockchain_task.sol\":8834:9010  for (uint256 i = 0; i < campaignCounter; i++) {... */\n    tag_396:\n        /* \"contracts/Blockchain_task.sol\":8858:8873  campaignCounter */\n      sload(0x03)\n        /* \"contracts/Blockchain_task.sol\":8854:8855  i */\n      dup2\n        /* \"contracts/Blockchain_task.sol\":8854:8873  i < campaignCounter */\n      lt\n        /* \"contracts/Blockchain_task.sol\":8834:9010  for (uint256 i = 0; i < campaignCounter; i++) {... */\n      iszero\n      tag_397\n      jumpi\n        /* \"contracts/Blockchain_task.sol\":8899:8908  campaigns */\n      0x04\n        /* \"contracts/Blockchain_task.sol\":8899:8911  campaigns[i] */\n      0x00\n        /* \"contracts/Blockchain_task.sol\":8909:8910  i */\n      dup3\n        /* \"contracts/Blockchain_task.sol\":8899:8911  campaigns[i] */\n      dup2\n      mstore\n      0x20\n      add\n      swap1\n      dup2\n      mstore\n      0x20\n      add\n      0x00\n      keccak256\n        /* \"contracts/Blockchain_task.sol\":8899:8923  campaigns[i].isCompleted */\n      0x06\n      add\n      0x02\n      swap1\n      sload\n      swap1\n      0x0100\n      exp\n      swap1\n      div\n      0xff\n      and\n        /* \"contracts/Blockchain_task.sol\":8898:8923  !campaigns[i].isCompleted */\n      iszero\n        /* \"contracts/Blockchain_task.sol\":8898:8952  !campaigns[i].isCompleted && !campaigns[i].isCancelled */\n      dup1\n      iszero\n      tag_399\n      jumpi\n      pop\n        /* \"contracts/Blockchain_task.sol\":8928:8937  campaigns */\n      0x04\n        /* \"contracts/Blockchain_task.sol\":8928:8940  campaigns[i] */\n      0x00\n        /* \"contracts/Blockchain_task.sol\":8938:8939  i */\n      dup3\n        /* \"contracts/Blockchain_task.sol\":8928:8940  campaigns[i] */\n      dup2\n      mstore\n      0x20\n      add\n      swap1\n      dup2\n      mstore\n      0x20\n      add\n      0x00\n      keccak256\n        /* \"contracts/Blockchain_task.sol\":8928:8952  campaigns[i].isCancelled */\n      0x06\n      add\n      0x01\n      swap1\n      sload\n      swap1\n      0x0100\n      exp\n      swap1\n      div\n      0xff\n      and\n        /* \"contracts/Blockchain_task.sol\":8927:8952  !campaigns[i].isCancelled */\n      iszero\n        /* \"contracts/Blockchain_task.sol\":8898:8952  !campaigns[i].isCompleted && !campaigns[i].isCancelled */\n    tag_399:\n        /* \"contracts/Blockchain_task.sol\":8894:9000  if (!campaigns[i].isCompleted && !campaigns[i].isCancelled) {... */\n      iszero\n      tag_400\n      jumpi\n        /* \"contracts/Blockchain_task.sol\":8972:8985  activeCount++ */\n      dup2\n      dup1\n      tag_401\n      swap1\n      tag_222\n      jump\t// in\n    tag_401:\n      swap3\n      pop\n      pop\n        /* \"contracts/Blockchain_task.sol\":8894:9000  if (!campaigns[i].isCompleted && !campaigns[i].isCancelled) {... */\n    tag_400:\n        /* \"contracts/Blockchain_task.sol\":8875:8878  i++ */\n      dup1\n      dup1\n      0x01\n      add\n      swap2\n      pop\n      pop\n        /* \"contracts/Blockchain_task.sol\":8834:9010  for (uint256 i = 0; i < campaignCounter; i++) {... */\n      jump(tag_396)\n    tag_397:\n      pop\n        /* \"contracts/Blockchain_task.sol\":9073:9110  CampaignInfo[] memory activeCampaigns */\n      0x00\n        /* \"contracts/Blockchain_task.sol\":9132:9143  activeCount */\n      dup2\n        /* \"contracts/Blockchain_task.sol\":9113:9144  new CampaignInfo[](activeCount) */\n      0xffffffffffffffff\n      dup2\n      gt\n      iszero\n      tag_402\n      jumpi\n      tag_403\n      tag_235\n      jump\t// in\n    tag_403:\n    tag_402:\n      mload(0x40)\n      swap1\n      dup1\n      dup3\n      mstore\n      dup1\n      0x20\n      mul\n      0x20\n      add\n      dup3\n      add\n      0x40\n      mstore\n      dup1\n      iszero\n      tag_404\n      jumpi\n      dup2\n      0x20\n      add\n    tag_405:\n      tag_406\n      tag_239\n      jump\t// in\n    tag_406:\n      dup2\n      mstore\n      0x20\n      add\n      swap1\n      0x01\n      swap1\n      sub\n      swap1\n      dup2\n      tag_405\n      jumpi\n      swap1\n      pop\n    tag_404:\n      pop\n        /* \"contracts/Blockchain_task.sol\":9073:9144  CampaignInfo[] memory activeCampaigns = new CampaignInfo[](activeCount) */\n      swap1\n      pop\n        /* \"contracts/Blockchain_task.sol\":9154:9167  uint256 index */\n      0x00\n        /* \"contracts/Blockchain_task.sol\":9233:9242  uint256 i */\n      dup1\n        /* \"contracts/Blockchain_task.sol\":9228:9863  for (uint256 i = 0; i < campaignCounter; i++) {... */\n    tag_407:\n        /* \"contracts/Blockchain_task.sol\":9252:9267  campaignCounter */\n      sload(0x03)\n        /* \"contracts/Blockchain_task.sol\":9248:9249  i */\n      dup2\n        /* \"contracts/Blockchain_task.sol\":9248:9267  i < campaignCounter */\n      lt\n        /* \"contracts/Blockchain_task.sol\":9228:9863  for (uint256 i = 0; i < campaignCounter; i++) {... */\n      iszero\n      tag_408\n      jumpi\n        /* \"contracts/Blockchain_task.sol\":9293:9302  campaigns */\n      0x04\n        /* \"contracts/Blockchain_task.sol\":9293:9305  campaigns[i] */\n      0x00\n        /* \"contracts/Blockchain_task.sol\":9303:9304  i */\n      dup3\n        /* \"contracts/Blockchain_task.sol\":9293:9305  campaigns[i] */\n      dup2\n      mstore\n      0x20\n      add\n      swap1\n      dup2\n      mstore\n      0x20\n      add\n      0x00\n      keccak256\n        /* \"contracts/Blockchain_task.sol\":9293:9317  campaigns[i].isCompleted */\n      0x06\n      add\n      0x02\n      swap1\n      sload\n      swap1\n      0x0100\n      exp\n      swap1\n      div\n      0xff\n      and\n        /* \"contracts/Blockchain_task.sol\":9292:9317  !campaigns[i].isCompleted */\n      iszero\n        /* \"contracts/Blockchain_task.sol\":9292:9346  !campaigns[i].isCompleted && !campaigns[i].isCancelled */\n      dup1\n      iszero\n      tag_410\n      jumpi\n      pop\n        /* \"contracts/Blockchain_task.sol\":9322:9331  campaigns */\n      0x04\n        /* \"contracts/Blockchain_task.sol\":9322:9334  campaigns[i] */\n      0x00\n        /* \"contracts/Blockchain_task.sol\":9332:9333  i */\n      dup3\n        /* \"contracts/Blockchain_task.sol\":9322:9334  campaigns[i] */\n      dup2\n      mstore\n      0x20\n      add\n      swap1\n      dup2\n      mstore\n      0x20\n      add\n      0x00\n      keccak256\n        /* \"contracts/Blockchain_task.sol\":9322:9346  campaigns[i].isCancelled */\n      0x06\n      add\n      0x01\n      swap1\n      sload\n      swap1\n      0x0100\n      exp\n      swap1\n      div\n      0xff\n      and\n        /* \"contracts/Blockchain_task.sol\":9321:9346  !campaigns[i].isCancelled */\n      iszero\n        /* \"contracts/Blockchain_task.sol\":9292:9346  !campaigns[i].isCompleted && !campaigns[i].isCancelled */\n    tag_410:\n        /* \"contracts/Blockchain_task.sol\":9288:9853  if (!campaigns[i].isCompleted && !campaigns[i].isCancelled) {... */\n      iszero\n      tag_411\n      jumpi\n        /* \"contracts/Blockchain_task.sol\":9391:9813  CampaignInfo(... */\n      mload(0x40)\n      dup1\n      0x0100\n      add\n      0x40\n      mstore\n      dup1\n        /* \"contracts/Blockchain_task.sol\":9425:9434  campaigns */\n      0x04\n        /* \"contracts/Blockchain_task.sol\":9425:9437  campaigns[i] */\n      0x00\n        /* \"contracts/Blockchain_task.sol\":9435:9436  i */\n      dup5\n        /* \"contracts/Blockchain_task.sol\":9425:9437  campaigns[i] */\n      dup2\n      mstore\n      0x20\n      add\n      swap1\n      dup2\n      mstore\n      0x20\n      add\n      0x00\n      keccak256\n        /* \"contracts/Blockchain_task.sol\":9425:9448  campaigns[i].campaignId */\n      0x00\n      add\n      sload\n        /* \"contracts/Blockchain_task.sol\":9391:9813  CampaignInfo(... */\n      dup2\n      mstore\n      0x20\n      add\n        /* \"contracts/Blockchain_task.sol\":9470:9479  campaigns */\n      0x04\n        /* \"contracts/Blockchain_task.sol\":9470:9482  campaigns[i] */\n      0x00\n        /* \"contracts/Blockchain_task.sol\":9480:9481  i */\n      dup5\n        /* \"contracts/Blockchain_task.sol\":9470:9482  campaigns[i] */\n      dup2\n      mstore\n      0x20\n      add\n      swap1\n      dup2\n      mstore\n      0x20\n      add\n      0x00\n      keccak256\n        /* \"contracts/Blockchain_task.sol\":9470:9495  campaigns[i].entrepreneur */\n      0x01\n      add\n      0x00\n      swap1\n      sload\n      swap1\n      0x0100\n      exp\n      swap1\n      div\n      0xffffffffffffffffffffffffffffffffffffffff\n      and\n        /* \"contracts/Blockchain_task.sol\":9391:9813  CampaignInfo(... */\n      0xffffffffffffffffffffffffffffffffffffffff\n      and\n      dup2\n      mstore\n      0x20\n      add\n        /* \"contracts/Blockchain_task.sol\":9517:9526  campaigns */\n      0x04\n        /* \"contracts/Blockchain_task.sol\":9517:9529  campaigns[i] */\n      0x00\n        /* \"contracts/Blockchain_task.sol\":9527:9528  i */\n      dup5\n        /* \"contracts/Blockchain_task.sol\":9517:9529  campaigns[i] */\n      dup2\n      mstore\n      0x20\n      add\n      swap1\n      dup2\n      mstore\n      0x20\n      add\n      0x00\n      keccak256\n        /* \"contracts/Blockchain_task.sol\":9517:9535  campaigns[i].title */\n      0x02\n      add\n        /* \"contracts/Blockchain_task.sol\":9391:9813  CampaignInfo(... */\n      dup1\n      sload\n      tag_412\n      swap1\n      tag_159\n      jump\t// in\n    tag_412:\n      dup1\n      0x1f\n      add\n      0x20\n      dup1\n      swap2\n      div\n      mul\n      0x20\n      add\n      mload(0x40)\n      swap1\n      dup2\n      add\n      0x40\n      mstore\n      dup1\n      swap3\n      swap2\n      swap1\n      dup2\n      dup2\n      mstore\n      0x20\n      add\n      dup3\n      dup1\n      sload\n      tag_413\n      swap1\n      tag_159\n      jump\t// in\n    tag_413:\n      dup1\n      iszero\n      tag_414\n      jumpi\n      dup1\n      0x1f\n      lt\n      tag_415\n      jumpi\n      0x0100\n      dup1\n      dup4\n      sload\n      div\n      mul\n      dup4\n      mstore\n      swap2\n      0x20\n      add\n      swap2\n      jump(tag_414)\n    tag_415:\n      dup3\n      add\n      swap2\n      swap1\n      0x00\n      mstore\n      keccak256(0x00, 0x20)\n      swap1\n    tag_416:\n      dup2\n      sload\n      dup2\n      mstore\n      swap1\n      0x01\n      add\n      swap1\n      0x20\n      add\n      dup1\n      dup4\n      gt\n      tag_416\n      jumpi\n      dup3\n      swap1\n      sub\n      0x1f\n      and\n      dup3\n      add\n      swap2\n    tag_414:\n      pop\n      pop\n      pop\n      pop\n      pop\n      dup2\n      mstore\n      0x20\n      add\n        /* \"contracts/Blockchain_task.sol\":9557:9566  campaigns */\n      0x04\n        /* \"contracts/Blockchain_task.sol\":9557:9569  campaigns[i] */\n      0x00\n        /* \"contracts/Blockchain_task.sol\":9567:9568  i */\n      dup5\n        /* \"contracts/Blockchain_task.sol\":9557:9569  campaigns[i] */\n      dup2\n      mstore\n      0x20\n      add\n      swap1\n      dup2\n      mstore\n      0x20\n      add\n      0x00\n      keccak256\n        /* \"contracts/Blockchain_task.sol\":9557:9580  campaigns[i].sharePrice */\n      0x03\n      add\n      sload\n        /* \"contracts/Blockchain_task.sol\":9391:9813  CampaignInfo(... */\n      dup2\n      mstore\n      0x20\n      add\n        /* \"contracts/Blockchain_task.sol\":9629:9638  campaigns */\n      0x04\n        /* \"contracts/Blockchain_task.sol\":9629:9641  campaigns[i] */\n      0x00\n        /* \"contracts/Blockchain_task.sol\":9639:9640  i */\n      dup5\n        /* \"contracts/Blockchain_task.sol\":9629:9641  campaigns[i] */\n      dup2\n      mstore\n      0x20\n      add\n      swap1\n      dup2\n      mstore\n      0x20\n      add\n      0x00\n      keccak256\n        /* \"contracts/Blockchain_task.sol\":9629:9655  campaigns[i].currentShares */\n      0x05\n      add\n      sload\n        /* \"contracts/Blockchain_task.sol\":9602:9611  campaigns */\n      0x04\n        /* \"contracts/Blockchain_task.sol\":9602:9614  campaigns[i] */\n      0x00\n        /* \"contracts/Blockchain_task.sol\":9612:9613  i */\n      dup6\n        /* \"contracts/Blockchain_task.sol\":9602:9614  campaigns[i] */\n      dup2\n      mstore\n      0x20\n      add\n      swap1\n      dup2\n      mstore\n      0x20\n      add\n      0x00\n      keccak256\n        /* \"contracts/Blockchain_task.sol\":9602:9626  campaigns[i].totalShares */\n      0x04\n      add\n      sload\n        /* \"contracts/Blockchain_task.sol\":9602:9655  campaigns[i].totalShares - campaigns[i].currentShares */\n      tag_417\n      swap2\n      swap1\n      tag_251\n      jump\t// in\n    tag_417:\n        /* \"contracts/Blockchain_task.sol\":9391:9813  CampaignInfo(... */\n      dup2\n      mstore\n      0x20\n      add\n        /* \"contracts/Blockchain_task.sol\":9677:9686  campaigns */\n      0x04\n        /* \"contracts/Blockchain_task.sol\":9677:9689  campaigns[i] */\n      0x00\n        /* \"contracts/Blockchain_task.sol\":9687:9688  i */\n      dup5\n        /* \"contracts/Blockchain_task.sol\":9677:9689  campaigns[i] */\n      dup2\n      mstore\n      0x20\n      add\n      swap1\n      dup2\n      mstore\n      0x20\n      add\n      0x00\n      keccak256\n        /* \"contracts/Blockchain_task.sol\":9677:9703  campaigns[i].currentShares */\n      0x05\n      add\n      sload\n        /* \"contracts/Blockchain_task.sol\":9391:9813  CampaignInfo(... */\n      dup2\n      mstore\n      0x20\n      add\n        /* \"contracts/Blockchain_task.sol\":9725:9734  campaigns */\n      0x04\n        /* \"contracts/Blockchain_task.sol\":9725:9737  campaigns[i] */\n      0x00\n        /* \"contracts/Blockchain_task.sol\":9735:9736  i */\n      dup5\n        /* \"contracts/Blockchain_task.sol\":9725:9737  campaigns[i] */\n      dup2\n      mstore\n      0x20\n      add\n      swap1\n      dup2\n      mstore\n      0x20\n      add\n      0x00\n      keccak256\n        /* \"contracts/Blockchain_task.sol\":9725:9749  campaigns[i].isCompleted */\n      0x06\n      add\n      0x02\n      swap1\n      sload\n      swap1\n      0x0100\n      exp\n      swap1\n      div\n      0xff\n      and\n        /* \"contracts/Blockchain_task.sol\":9391:9813  CampaignInfo(... */\n      iszero\n      iszero\n      dup2\n      mstore\n      0x20\n      add\n        /* \"contracts/Blockchain_task.sol\":9771:9780  campaigns */\n      0x04\n        /* \"contracts/Blockchain_task.sol\":9771:9783  campaigns[i] */\n      0x00\n        /* \"contracts/Blockchain_task.sol\":9781:9782  i */\n      dup5\n        /* \"contracts/Blockchain_task.sol\":9771:9783  campaigns[i] */\n      dup2\n      mstore\n      0x20\n      add\n      swap1\n      dup2\n      mstore\n      0x20\n      add\n      0x00\n      keccak256\n        /* \"contracts/Blockchain_task.sol\":9771:9795  campaigns[i].isCancelled */\n      0x06\n      add\n      0x01\n      swap1\n      sload\n      swap1\n      0x0100\n      exp\n      swap1\n      div\n      0xff\n      and\n        /* \"contracts/Blockchain_task.sol\":9391:9813  CampaignInfo(... */\n      iszero\n      iszero\n      dup2\n      mstore\n      pop\n        /* \"contracts/Blockchain_task.sol\":9366:9381  activeCampaigns */\n      dup4\n        /* \"contracts/Blockchain_task.sol\":9382:9387  index */\n      dup4\n        /* \"contracts/Blockchain_task.sol\":9366:9388  activeCampaigns[index] */\n      dup2\n      mload\n      dup2\n      lt\n      tag_418\n      jumpi\n      tag_419\n      tag_152\n      jump\t// in\n    tag_419:\n    tag_418:\n      0x20\n      mul\n      0x20\n      add\n      add\n        /* \"contracts/Blockchain_task.sol\":9366:9813  activeCampaigns[index] = CampaignInfo(... */\n      dup2\n      swap1\n      mstore\n      pop\n        /* \"contracts/Blockchain_task.sol\":9831:9838  index++ */\n      dup2\n      dup1\n      tag_420\n      swap1\n      tag_222\n      jump\t// in\n    tag_420:\n      swap3\n      pop\n      pop\n        /* \"contracts/Blockchain_task.sol\":9288:9853  if (!campaigns[i].isCompleted && !campaigns[i].isCancelled) {... */\n    tag_411:\n        /* \"contracts/Blockchain_task.sol\":9269:9272  i++ */\n      dup1\n      dup1\n      0x01\n      add\n      swap2\n      pop\n      pop\n        /* \"contracts/Blockchain_task.sol\":9228:9863  for (uint256 i = 0; i < campaignCounter; i++) {... */\n      jump(tag_407)\n    tag_408:\n      pop\n        /* \"contracts/Blockchain_task.sol\":9880:9895  activeCampaigns */\n      dup2\n        /* \"contracts/Blockchain_task.sol\":9873:9895  return activeCampaigns */\n      swap4\n      pop\n      pop\n      pop\n      pop\n        /* \"contracts/Blockchain_task.sol\":8682:9902  function getActiveCampaigns() public view returns (CampaignInfo[] memory) {... */\n      swap1\n      jump\t// out\n        /* \"contracts/Blockchain_task.sol\":13205:13313  function getBannedInvestors() public view returns (address[] memory) {... */\n    tag_125:\n        /* \"contracts/Blockchain_task.sol\":13256:13272  address[] memory */\n      0x60\n        /* \"contracts/Blockchain_task.sol\":13291:13306  bannedAddresses */\n      0x07\n        /* \"contracts/Blockchain_task.sol\":13284:13306  return bannedAddresses */\n      dup1\n      sload\n      dup1\n      0x20\n      mul\n      0x20\n      add\n      mload(0x40)\n      swap1\n      dup2\n      add\n      0x40\n      mstore\n      dup1\n      swap3\n      swap2\n      swap1\n      dup2\n      dup2\n      mstore\n      0x20\n      add\n      dup3\n      dup1\n      sload\n      dup1\n      iszero\n      tag_422\n      jumpi\n      0x20\n      mul\n      dup3\n      add\n      swap2\n      swap1\n      0x00\n      mstore\n      keccak256(0x00, 0x20)\n      swap1\n    tag_423:\n      dup2\n      0x00\n      swap1\n      sload\n      swap1\n      0x0100\n      exp\n      swap1\n      div\n      0xffffffffffffffffffffffffffffffffffffffff\n      and\n      0xffffffffffffffffffffffffffffffffffffffff\n      and\n      dup2\n      mstore\n      0x20\n      add\n      swap1\n      0x01\n      add\n      swap1\n      dup1\n      dup4\n      gt\n      tag_423\n      jumpi\n    tag_422:\n      pop\n      pop\n      pop\n      pop\n      pop\n      swap1\n      pop\n        /* \"contracts/Blockchain_task.sol\":13205:13313  function getBannedInvestors() public view returns (address[] memory) {... */\n      swap1\n      jump\t// out\n        /* \"contracts/Blockchain_task.sol\":1247:1279  address[] public bannedAddresses */\n    tag_131:\n      0x07\n      dup2\n      dup2\n      sload\n      dup2\n      lt\n      tag_424\n      jumpi\n      0x00\n      dup1\n      revert\n    tag_424:\n      swap1\n      0x00\n      mstore\n      keccak256(0x00, 0x20)\n      add\n      0x00\n      swap2\n      pop\n      sload\n      swap1\n      0x0100\n      exp\n      swap1\n      div\n      0xffffffffffffffffffffffffffffffffffffffff\n      and\n      dup2\n      jump\t// out\n        /* \"contracts/Blockchain_task.sol\":6283:7071  function refundInvestor(address investor) public {... */\n    tag_136:\n        /* \"contracts/Blockchain_task.sol\":6453:6461  investor */\n      dup1\n        /* \"contracts/Blockchain_task.sol\":6439:6461  msg.sender == investor */\n      0xffffffffffffffffffffffffffffffffffffffff\n      and\n        /* \"contracts/Blockchain_task.sol\":6439:6449  msg.sender */\n      caller\n        /* \"contracts/Blockchain_task.sol\":6439:6461  msg.sender == investor */\n      0xffffffffffffffffffffffffffffffffffffffff\n      and\n      eq\n        /* \"contracts/Blockchain_task.sol\":6439:6484  msg.sender == investor || msg.sender == owner */\n      dup1\n      tag_427\n      jumpi\n      pop\n        /* \"contracts/Blockchain_task.sol\":6479:6484  owner */\n      0x00\n      dup1\n      sload\n      swap1\n      0x0100\n      exp\n      swap1\n      div\n      0xffffffffffffffffffffffffffffffffffffffff\n      and\n        /* \"contracts/Blockchain_task.sol\":6465:6484  msg.sender == owner */\n      0xffffffffffffffffffffffffffffffffffffffff\n      and\n        /* \"contracts/Blockchain_task.sol\":6465:6475  msg.sender */\n      caller\n        /* \"contracts/Blockchain_task.sol\":6465:6484  msg.sender == owner */\n      0xffffffffffffffffffffffffffffffffffffffff\n      and\n      eq\n        /* \"contracts/Blockchain_task.sol\":6439:6484  msg.sender == investor || msg.sender == owner */\n    tag_427:\n        /* \"contracts/Blockchain_task.sol\":6418:6571  require(... */\n      tag_428\n      jumpi\n      mload(0x40)\n      0x08c379a000000000000000000000000000000000000000000000000000000000\n      dup2\n      mstore\n      0x04\n      add\n      tag_429\n      swap1\n      tag_430\n      jump\t// in\n    tag_429:\n      mload(0x40)\n      dup1\n      swap2\n      sub\n      swap1\n      revert\n    tag_428:\n        /* \"contracts/Blockchain_task.sol\":6647:6667  uint256 refundAmount */\n      0x00\n        /* \"contracts/Blockchain_task.sol\":6670:6677  refunds */\n      0x08\n        /* \"contracts/Blockchain_task.sol\":6670:6687  refunds[investor] */\n      0x00\n        /* \"contracts/Blockchain_task.sol\":6678:6686  investor */\n      dup4\n        /* \"contracts/Blockchain_task.sol\":6670:6687  refunds[investor] */\n      0xffffffffffffffffffffffffffffffffffffffff\n      and\n      0xffffffffffffffffffffffffffffffffffffffff\n      and\n      dup2\n      mstore\n      0x20\n      add\n      swap1\n      dup2\n      mstore\n      0x20\n      add\n      0x00\n      keccak256\n      sload\n        /* \"contracts/Blockchain_task.sol\":6647:6687  uint256 refundAmount = refunds[investor] */\n      swap1\n      pop\n        /* \"contracts/Blockchain_task.sol\":6720:6721  0 */\n      0x00\n        /* \"contracts/Blockchain_task.sol\":6705:6717  refundAmount */\n      dup2\n        /* \"contracts/Blockchain_task.sol\":6705:6721  refundAmount > 0 */\n      gt\n        /* \"contracts/Blockchain_task.sol\":6697:6763  require(refundAmount > 0, \"No refund available for this investor\") */\n      tag_431\n      jumpi\n      mload(0x40)\n      0x08c379a000000000000000000000000000000000000000000000000000000000\n      dup2\n      mstore\n      0x04\n      add\n      tag_432\n      swap1\n      tag_433\n      jump\t// in\n    tag_432:\n      mload(0x40)\n      dup1\n      swap2\n      sub\n      swap1\n      revert\n    tag_431:\n        /* \"contracts/Blockchain_task.sol\":6846:6847  0 */\n      0x00\n        /* \"contracts/Blockchain_task.sol\":6826:6833  refunds */\n      0x08\n        /* \"contracts/Blockchain_task.sol\":6826:6843  refunds[investor] */\n      0x00\n        /* \"contracts/Blockchain_task.sol\":6834:6842  investor */\n      dup5\n        /* \"contracts/Blockchain_task.sol\":6826:6843  refunds[investor] */\n      0xffffffffffffffffffffffffffffffffffffffff\n      and\n      0xffffffffffffffffffffffffffffffffffffffff\n      and\n      dup2\n      mstore\n      0x20\n      add\n      swap1\n      dup2\n      mstore\n      0x20\n      add\n      0x00\n      keccak256\n        /* \"contracts/Blockchain_task.sol\":6826:6847  refunds[investor] = 0 */\n      dup2\n      swap1\n      sstore\n      pop\n        /* \"contracts/Blockchain_task.sol\":6930:6938  investor */\n      dup2\n        /* \"contracts/Blockchain_task.sol\":6922:6948  payable(investor).transfer */\n      0xffffffffffffffffffffffffffffffffffffffff\n      and\n        /* \"contracts/Blockchain_task.sol\":6922:6962  payable(investor).transfer(refundAmount) */\n      0x08fc\n        /* \"contracts/Blockchain_task.sol\":6949:6961  refundAmount */\n      dup3\n        /* \"contracts/Blockchain_task.sol\":6922:6962  payable(investor).transfer(refundAmount) */\n      swap1\n      dup2\n      iszero\n      mul\n      swap1\n      mload(0x40)\n      0x00\n      mload(0x40)\n      dup1\n      dup4\n      sub\n      dup2\n      dup6\n      dup9\n      dup9\n      call\n      swap4\n      pop\n      pop\n      pop\n      pop\n      iszero\n      dup1\n      iszero\n      tag_435\n      jumpi\n      returndatasize\n      0x00\n      dup1\n      returndatacopy\n      revert(0x00, returndatasize)\n    tag_435:\n      pop\n        /* \"contracts/Blockchain_task.sol\":7024:7064  InvestorRefunded(investor, refundAmount) */\n      0x08d40e9c27d77b658952cbaacaa582b75d323ce97d3904729b9674ddf5d5f13e\n        /* \"contracts/Blockchain_task.sol\":7041:7049  investor */\n      dup3\n        /* \"contracts/Blockchain_task.sol\":7051:7063  refundAmount */\n      dup3\n        /* \"contracts/Blockchain_task.sol\":7024:7064  InvestorRefunded(investor, refundAmount) */\n      mload(0x40)\n      tag_436\n      swap3\n      swap2\n      swap1\n      tag_290\n      jump\t// in\n    tag_436:\n      mload(0x40)\n      dup1\n      swap2\n      sub\n      swap1\n      log1\n        /* \"contracts/Blockchain_task.sol\":6332:7071  {... */\n      pop\n        /* \"contracts/Blockchain_task.sol\":6283:7071  function refundInvestor(address investor) public {... */\n      pop\n      jump\t// out\n    tag_239:\n      mload(0x40)\n      dup1\n      0x0100\n      add\n      0x40\n      mstore\n      dup1\n      0x00\n      dup2\n      mstore\n      0x20\n      add\n      and(0xffffffffffffffffffffffffffffffffffffffff, 0x00)\n      dup2\n      mstore\n      0x20\n      add\n      0x60\n      dup2\n      mstore\n      0x20\n      add\n      0x00\n      dup2\n      mstore\n      0x20\n      add\n      0x00\n      dup2\n      mstore\n      0x20\n      add\n      0x00\n      dup2\n      mstore\n      0x20\n      add\n      iszero(iszero(0x00))\n      dup2\n      mstore\n      0x20\n      add\n      iszero(iszero(0x00))\n      dup2\n      mstore\n      pop\n      swap1\n      jump\t// out\n        /* \"#utility.yul\":7:82   */\n    tag_437:\n        /* \"#utility.yul\":40:46   */\n      0x00\n        /* \"#utility.yul\":73:75   */\n      0x40\n        /* \"#utility.yul\":67:76   */\n      mload\n        /* \"#utility.yul\":57:76   */\n      swap1\n      pop\n        /* \"#utility.yul\":7:82   */\n      swap1\n      jump\t// out\n        /* \"#utility.yul\":88:205   */\n    tag_438:\n        /* \"#utility.yul\":197:198   */\n      0x00\n        /* \"#utility.yul\":194:195   */\n      dup1\n        /* \"#utility.yul\":187:199   */\n      revert\n        /* \"#utility.yul\":211:328   */\n    tag_439:\n        /* \"#utility.yul\":320:321   */\n      0x00\n        /* \"#utility.yul\":317:318   */\n      dup1\n        /* \"#utility.yul\":310:322   */\n      revert\n        /* \"#utility.yul\":334:411   */\n    tag_440:\n        /* \"#utility.yul\":371:378   */\n      0x00\n        /* \"#utility.yul\":400:405   */\n      dup2\n        /* \"#utility.yul\":389:405   */\n      swap1\n      pop\n        /* \"#utility.yul\":334:411   */\n      swap2\n      swap1\n      pop\n      jump\t// out\n        /* \"#utility.yul\":417:539   */\n    tag_441:\n        /* \"#utility.yul\":490:514   */\n      tag_549\n        /* \"#utility.yul\":508:513   */\n      dup2\n        /* \"#utility.yul\":490:514   */\n      tag_440\n      jump\t// in\n    tag_549:\n        /* \"#utility.yul\":483:488   */\n      dup2\n        /* \"#utility.yul\":480:515   */\n      eq\n        /* \"#utility.yul\":470:533   */\n      tag_550\n      jumpi\n        /* \"#utility.yul\":529:530   */\n      0x00\n        /* \"#utility.yul\":526:527   */\n      dup1\n        /* \"#utility.yul\":519:531   */\n      revert\n        /* \"#utility.yul\":470:533   */\n    tag_550:\n        /* \"#utility.yul\":417:539   */\n      pop\n      jump\t// out\n        /* \"#utility.yul\":545:684   */\n    tag_442:\n        /* \"#utility.yul\":591:596   */\n      0x00\n        /* \"#utility.yul\":629:635   */\n      dup2\n        /* \"#utility.yul\":616:636   */\n      calldataload\n        /* \"#utility.yul\":607:636   */\n      swap1\n      pop\n        /* \"#utility.yul\":645:678   */\n      tag_552\n        /* \"#utility.yul\":672:677   */\n      dup2\n        /* \"#utility.yul\":645:678   */\n      tag_441\n      jump\t// in\n    tag_552:\n        /* \"#utility.yul\":545:684   */\n      swap3\n      swap2\n      pop\n      pop\n      jump\t// out\n        /* \"#utility.yul\":690:1019   */\n    tag_35:\n        /* \"#utility.yul\":749:755   */\n      0x00\n        /* \"#utility.yul\":798:800   */\n      0x20\n        /* \"#utility.yul\":786:795   */\n      dup3\n        /* \"#utility.yul\":777:784   */\n      dup5\n        /* \"#utility.yul\":773:796   */\n      sub\n        /* \"#utility.yul\":769:801   */\n      slt\n        /* \"#utility.yul\":766:885   */\n      iszero\n      tag_554\n      jumpi\n        /* \"#utility.yul\":804:883   */\n      tag_555\n      tag_438\n      jump\t// in\n    tag_555:\n        /* \"#utility.yul\":766:885   */\n    tag_554:\n        /* \"#utility.yul\":924:925   */\n      0x00\n        /* \"#utility.yul\":949:1002   */\n      tag_556\n        /* \"#utility.yul\":994:1001   */\n      dup5\n        /* \"#utility.yul\":985:991   */\n      dup3\n        /* \"#utility.yul\":974:983   */\n      dup6\n        /* \"#utility.yul\":970:992   */\n      add\n        /* \"#utility.yul\":949:1002   */\n      tag_442\n      jump\t// in\n    tag_556:\n        /* \"#utility.yul\":939:1002   */\n      swap2\n      pop\n        /* \"#utility.yul\":895:1012   */\n      pop\n        /* \"#utility.yul\":690:1019   */\n      swap3\n      swap2\n      pop\n      pop\n      jump\t// out\n        /* \"#utility.yul\":1025:1143   */\n    tag_443:\n        /* \"#utility.yul\":1112:1136   */\n      tag_558\n        /* \"#utility.yul\":1130:1135   */\n      dup2\n        /* \"#utility.yul\":1112:1136   */\n      tag_440\n      jump\t// in\n    tag_558:\n        /* \"#utility.yul\":1107:1110   */\n      dup3\n        /* \"#utility.yul\":1100:1137   */\n      mstore\n        /* \"#utility.yul\":1025:1143   */\n      pop\n      pop\n      jump\t// out\n        /* \"#utility.yul\":1149:1275   */\n    tag_444:\n        /* \"#utility.yul\":1186:1193   */\n      0x00\n        /* \"#utility.yul\":1226:1268   */\n      0xffffffffffffffffffffffffffffffffffffffff\n        /* \"#utility.yul\":1219:1224   */\n      dup3\n        /* \"#utility.yul\":1215:1269   */\n      and\n        /* \"#utility.yul\":1204:1269   */\n      swap1\n      pop\n        /* \"#utility.yul\":1149:1275   */\n      swap2\n      swap1\n      pop\n      jump\t// out\n        /* \"#utility.yul\":1281:1377   */\n    tag_445:\n        /* \"#utility.yul\":1318:1325   */\n      0x00\n        /* \"#utility.yul\":1347:1371   */\n      tag_561\n        /* \"#utility.yul\":1365:1370   */\n      dup3\n        /* \"#utility.yul\":1347:1371   */\n      tag_444\n      jump\t// in\n    tag_561:\n        /* \"#utility.yul\":1336:1371   */\n      swap1\n      pop\n        /* \"#utility.yul\":1281:1377   */\n      swap2\n      swap1\n      pop\n      jump\t// out\n        /* \"#utility.yul\":1383:1501   */\n    tag_446:\n        /* \"#utility.yul\":1470:1494   */\n      tag_563\n        /* \"#utility.yul\":1488:1493   */\n      dup2\n        /* \"#utility.yul\":1470:1494   */\n      tag_445\n      jump\t// in\n    tag_563:\n        /* \"#utility.yul\":1465:1468   */\n      dup3\n        /* \"#utility.yul\":1458:1495   */\n      mstore\n        /* \"#utility.yul\":1383:1501   */\n      pop\n      pop\n      jump\t// out\n        /* \"#utility.yul\":1507:1606   */\n    tag_447:\n        /* \"#utility.yul\":1559:1565   */\n      0x00\n        /* \"#utility.yul\":1593:1598   */\n      dup2\n        /* \"#utility.yul\":1587:1599   */\n      mload\n        /* \"#utility.yul\":1577:1599   */\n      swap1\n      pop\n        /* \"#utility.yul\":1507:1606   */\n      swap2\n      swap1\n      pop\n      jump\t// out\n        /* \"#utility.yul\":1612:1781   */\n    tag_448:\n        /* \"#utility.yul\":1696:1707   */\n      0x00\n        /* \"#utility.yul\":1730:1736   */\n      dup3\n        /* \"#utility.yul\":1725:1728   */\n      dup3\n        /* \"#utility.yul\":1718:1737   */\n      mstore\n        /* \"#utility.yul\":1770:1774   */\n      0x20\n        /* \"#utility.yul\":1765:1768   */\n      dup3\n        /* \"#utility.yul\":1761:1775   */\n      add\n        /* \"#utility.yul\":1746:1775   */\n      swap1\n      pop\n        /* \"#utility.yul\":1612:1781   */\n      swap3\n      swap2\n      pop\n      pop\n      jump\t// out\n        /* \"#utility.yul\":1787:2035   */\n    tag_449:\n        /* \"#utility.yul\":1869:1870   */\n      0x00\n        /* \"#utility.yul\":1879:1992   */\n    tag_567:\n        /* \"#utility.yul\":1893:1899   */\n      dup4\n        /* \"#utility.yul\":1890:1891   */\n      dup2\n        /* \"#utility.yul\":1887:1900   */\n      lt\n        /* \"#utility.yul\":1879:1992   */\n      iszero\n      tag_569\n      jumpi\n        /* \"#utility.yul\":1978:1979   */\n      dup1\n        /* \"#utility.yul\":1973:1976   */\n      dup3\n        /* \"#utility.yul\":1969:1980   */\n      add\n        /* \"#utility.yul\":1963:1981   */\n      mload\n        /* \"#utility.yul\":1959:1960   */\n      dup2\n        /* \"#utility.yul\":1954:1957   */\n      dup5\n        /* \"#utility.yul\":1950:1961   */\n      add\n        /* \"#utility.yul\":1943:1982   */\n      mstore\n        /* \"#utility.yul\":1915:1917   */\n      0x20\n        /* \"#utility.yul\":1912:1913   */\n      dup2\n        /* \"#utility.yul\":1908:1918   */\n      add\n        /* \"#utility.yul\":1903:1918   */\n      swap1\n      pop\n        /* \"#utility.yul\":1879:1992   */\n      jump(tag_567)\n    tag_569:\n        /* \"#utility.yul\":2026:2027   */\n      0x00\n        /* \"#utility.yul\":2017:2023   */\n      dup5\n        /* \"#utility.yul\":2012:2015   */\n      dup5\n        /* \"#utility.yul\":2008:2024   */\n      add\n        /* \"#utility.yul\":2001:2028   */\n      mstore\n        /* \"#utility.yul\":1849:2035   */\n      pop\n        /* \"#utility.yul\":1787:2035   */\n      pop\n      pop\n      pop\n      jump\t// out\n        /* \"#utility.yul\":2041:2143   */\n    tag_450:\n        /* \"#utility.yul\":2082:2088   */\n      0x00\n        /* \"#utility.yul\":2133:2135   */\n      0x1f\n        /* \"#utility.yul\":2129:2136   */\n      not\n        /* \"#utility.yul\":2124:2126   */\n      0x1f\n        /* \"#utility.yul\":2117:2122   */\n      dup4\n        /* \"#utility.yul\":2113:2127   */\n      add\n        /* \"#utility.yul\":2109:2137   */\n      and\n        /* \"#utility.yul\":2099:2137   */\n      swap1\n      pop\n        /* \"#utility.yul\":2041:2143   */\n      swap2\n      swap1\n      pop\n      jump\t// out\n        /* \"#utility.yul\":2149:2526   */\n    tag_451:\n        /* \"#utility.yul\":2237:2240   */\n      0x00\n        /* \"#utility.yul\":2265:2304   */\n      tag_572\n        /* \"#utility.yul\":2298:2303   */\n      dup3\n        /* \"#utility.yul\":2265:2304   */\n      tag_447\n      jump\t// in\n    tag_572:\n        /* \"#utility.yul\":2320:2391   */\n      tag_573\n        /* \"#utility.yul\":2384:2390   */\n      dup2\n        /* \"#utility.yul\":2379:2382   */\n      dup6\n        /* \"#utility.yul\":2320:2391   */\n      tag_448\n      jump\t// in\n    tag_573:\n        /* \"#utility.yul\":2313:2391   */\n      swap4\n      pop\n        /* \"#utility.yul\":2400:2465   */\n      tag_574\n        /* \"#utility.yul\":2458:2464   */\n      dup2\n        /* \"#utility.yul\":2453:2456   */\n      dup6\n        /* \"#utility.yul\":2446:2450   */\n      0x20\n        /* \"#utility.yul\":2439:2444   */\n      dup7\n        /* \"#utility.yul\":2435:2451   */\n      add\n        /* \"#utility.yul\":2400:2465   */\n      tag_449\n      jump\t// in\n    tag_574:\n        /* \"#utility.yul\":2490:2519   */\n      tag_575\n        /* \"#utility.yul\":2512:2518   */\n      dup2\n        /* \"#utility.yul\":2490:2519   */\n      tag_450\n      jump\t// in\n    tag_575:\n        /* \"#utility.yul\":2485:2488   */\n      dup5\n        /* \"#utility.yul\":2481:2520   */\n      add\n        /* \"#utility.yul\":2474:2520   */\n      swap2\n      pop\n        /* \"#utility.yul\":2241:2526   */\n      pop\n        /* \"#utility.yul\":2149:2526   */\n      swap3\n      swap2\n      pop\n      pop\n      jump\t// out\n        /* \"#utility.yul\":2532:2622   */\n    tag_452:\n        /* \"#utility.yul\":2566:2573   */\n      0x00\n        /* \"#utility.yul\":2609:2614   */\n      dup2\n        /* \"#utility.yul\":2602:2615   */\n      iszero\n        /* \"#utility.yul\":2595:2616   */\n      iszero\n        /* \"#utility.yul\":2584:2616   */\n      swap1\n      pop\n        /* \"#utility.yul\":2532:2622   */\n      swap2\n      swap1\n      pop\n      jump\t// out\n        /* \"#utility.yul\":2628:2737   */\n    tag_453:\n        /* \"#utility.yul\":2709:2730   */\n      tag_578\n        /* \"#utility.yul\":2724:2729   */\n      dup2\n        /* \"#utility.yul\":2709:2730   */\n      tag_452\n      jump\t// in\n    tag_578:\n        /* \"#utility.yul\":2704:2707   */\n      dup3\n        /* \"#utility.yul\":2697:2731   */\n      mstore\n        /* \"#utility.yul\":2628:2737   */\n      pop\n      pop\n      jump\t// out\n        /* \"#utility.yul\":2743:3906   */\n    tag_38:\n        /* \"#utility.yul\":3062:3066   */\n      0x00\n        /* \"#utility.yul\":3100:3103   */\n      0x0120\n        /* \"#utility.yul\":3089:3098   */\n      dup3\n        /* \"#utility.yul\":3085:3104   */\n      add\n        /* \"#utility.yul\":3077:3104   */\n      swap1\n      pop\n        /* \"#utility.yul\":3114:3185   */\n      tag_580\n        /* \"#utility.yul\":3182:3183   */\n      0x00\n        /* \"#utility.yul\":3171:3180   */\n      dup4\n        /* \"#utility.yul\":3167:3184   */\n      add\n        /* \"#utility.yul\":3158:3164   */\n      dup13\n        /* \"#utility.yul\":3114:3185   */\n      tag_443\n      jump\t// in\n    tag_580:\n        /* \"#utility.yul\":3195:3267   */\n      tag_581\n        /* \"#utility.yul\":3263:3265   */\n      0x20\n        /* \"#utility.yul\":3252:3261   */\n      dup4\n        /* \"#utility.yul\":3248:3266   */\n      add\n        /* \"#utility.yul\":3239:3245   */\n      dup12\n        /* \"#utility.yul\":3195:3267   */\n      tag_446\n      jump\t// in\n    tag_581:\n        /* \"#utility.yul\":3314:3323   */\n      dup2\n        /* \"#utility.yul\":3308:3312   */\n      dup2\n        /* \"#utility.yul\":3304:3324   */\n      sub\n        /* \"#utility.yul\":3299:3301   */\n      0x40\n        /* \"#utility.yul\":3288:3297   */\n      dup4\n        /* \"#utility.yul\":3284:3302   */\n      add\n        /* \"#utility.yul\":3277:3325   */\n      mstore\n        /* \"#utility.yul\":3342:3420   */\n      tag_582\n        /* \"#utility.yul\":3415:3419   */\n      dup2\n        /* \"#utility.yul\":3406:3412   */\n      dup11\n        /* \"#utility.yul\":3342:3420   */\n      tag_451\n      jump\t// in\n    tag_582:\n        /* \"#utility.yul\":3334:3420   */\n      swap1\n      pop\n        /* \"#utility.yul\":3430:3502   */\n      tag_583\n        /* \"#utility.yul\":3498:3500   */\n      0x60\n        /* \"#utility.yul\":3487:3496   */\n      dup4\n        /* \"#utility.yul\":3483:3501   */\n      add\n        /* \"#utility.yul\":3474:3480   */\n      dup10\n        /* \"#utility.yul\":3430:3502   */\n      tag_443\n      jump\t// in\n    tag_583:\n        /* \"#utility.yul\":3512:3585   */\n      tag_584\n        /* \"#utility.yul\":3580:3583   */\n      0x80\n        /* \"#utility.yul\":3569:3578   */\n      dup4\n        /* \"#utility.yul\":3565:3584   */\n      add\n        /* \"#utility.yul\":3556:3562   */\n      dup9\n        /* \"#utility.yul\":3512:3585   */\n      tag_443\n      jump\t// in\n    tag_584:\n        /* \"#utility.yul\":3595:3668   */\n      tag_585\n        /* \"#utility.yul\":3663:3666   */\n      0xa0\n        /* \"#utility.yul\":3652:3661   */\n      dup4\n        /* \"#utility.yul\":3648:3667   */\n      add\n        /* \"#utility.yul\":3639:3645   */\n      dup8\n        /* \"#utility.yul\":3595:3668   */\n      tag_443\n      jump\t// in\n    tag_585:\n        /* \"#utility.yul\":3678:3745   */\n      tag_586\n        /* \"#utility.yul\":3740:3743   */\n      0xc0\n        /* \"#utility.yul\":3729:3738   */\n      dup4\n        /* \"#utility.yul\":3725:3744   */\n      add\n        /* \"#utility.yul\":3716:3722   */\n      dup7\n        /* \"#utility.yul\":3678:3745   */\n      tag_453\n      jump\t// in\n    tag_586:\n        /* \"#utility.yul\":3755:3822   */\n      tag_587\n        /* \"#utility.yul\":3817:3820   */\n      0xe0\n        /* \"#utility.yul\":3806:3815   */\n      dup4\n        /* \"#utility.yul\":3802:3821   */\n      add\n        /* \"#utility.yul\":3793:3799   */\n      dup6\n        /* \"#utility.yul\":3755:3822   */\n      tag_453\n      jump\t// in\n    tag_587:\n        /* \"#utility.yul\":3832:3899   */\n      tag_588\n        /* \"#utility.yul\":3894:3897   */\n      0x0100\n        /* \"#utility.yul\":3883:3892   */\n      dup4\n        /* \"#utility.yul\":3879:3898   */\n      add\n        /* \"#utility.yul\":3870:3876   */\n      dup5\n        /* \"#utility.yul\":3832:3899   */\n      tag_453\n      jump\t// in\n    tag_588:\n        /* \"#utility.yul\":2743:3906   */\n      swap11\n      swap10\n      pop\n      pop\n      pop\n      pop\n      pop\n      pop\n      pop\n      pop\n      pop\n      pop\n      jump\t// out\n        /* \"#utility.yul\":3912:4386   */\n    tag_41:\n        /* \"#utility.yul\":3980:3986   */\n      0x00\n        /* \"#utility.yul\":3988:3994   */\n      dup1\n        /* \"#utility.yul\":4037:4039   */\n      0x40\n        /* \"#utility.yul\":4025:4034   */\n      dup4\n        /* \"#utility.yul\":4016:4023   */\n      dup6\n        /* \"#utility.yul\":4012:4035   */\n      sub\n        /* \"#utility.yul\":4008:4040   */\n      slt\n        /* \"#utility.yul\":4005:4124   */\n      iszero\n      tag_590\n      jumpi\n        /* \"#utility.yul\":4043:4122   */\n      tag_591\n      tag_438\n      jump\t// in\n    tag_591:\n        /* \"#utility.yul\":4005:4124   */\n    tag_590:\n        /* \"#utility.yul\":4163:4164   */\n      0x00\n        /* \"#utility.yul\":4188:4241   */\n      tag_592\n        /* \"#utility.yul\":4233:4240   */\n      dup6\n        /* \"#utility.yul\":4224:4230   */\n      dup3\n        /* \"#utility.yul\":4213:4222   */\n      dup7\n        /* \"#utility.yul\":4209:4231   */\n      add\n        /* \"#utility.yul\":4188:4241   */\n      tag_442\n      jump\t// in\n    tag_592:\n        /* \"#utility.yul\":4178:4241   */\n      swap3\n      pop\n        /* \"#utility.yul\":4134:4251   */\n      pop\n        /* \"#utility.yul\":4290:4292   */\n      0x20\n        /* \"#utility.yul\":4316:4369   */\n      tag_593\n        /* \"#utility.yul\":4361:4368   */\n      dup6\n        /* \"#utility.yul\":4352:4358   */\n      dup3\n        /* \"#utility.yul\":4341:4350   */\n      dup7\n        /* \"#utility.yul\":4337:4359   */\n      add\n        /* \"#utility.yul\":4316:4369   */\n      tag_442\n      jump\t// in\n    tag_593:\n        /* \"#utility.yul\":4306:4369   */\n      swap2\n      pop\n        /* \"#utility.yul\":4261:4379   */\n      pop\n        /* \"#utility.yul\":3912:4386   */\n      swap3\n      pop\n      swap3\n      swap1\n      pop\n      jump\t// out\n        /* \"#utility.yul\":4392:4509   */\n    tag_454:\n        /* \"#utility.yul\":4501:4502   */\n      0x00\n        /* \"#utility.yul\":4498:4499   */\n      dup1\n        /* \"#utility.yul\":4491:4503   */\n      revert\n        /* \"#utility.yul\":4515:4632   */\n    tag_455:\n        /* \"#utility.yul\":4624:4625   */\n      0x00\n        /* \"#utility.yul\":4621:4622   */\n      dup1\n        /* \"#utility.yul\":4614:4626   */\n      revert\n        /* \"#utility.yul\":4638:4818   */\n    tag_235:\n        /* \"#utility.yul\":4686:4763   */\n      0x4e487b7100000000000000000000000000000000000000000000000000000000\n        /* \"#utility.yul\":4683:4684   */\n      0x00\n        /* \"#utility.yul\":4676:4764   */\n      mstore\n        /* \"#utility.yul\":4783:4787   */\n      0x41\n        /* \"#utility.yul\":4780:4781   */\n      0x04\n        /* \"#utility.yul\":4773:4788   */\n      mstore\n        /* \"#utility.yul\":4807:4811   */\n      0x24\n        /* \"#utility.yul\":4804:4805   */\n      0x00\n        /* \"#utility.yul\":4797:4812   */\n      revert\n        /* \"#utility.yul\":4824:5105   */\n    tag_456:\n        /* \"#utility.yul\":4907:4934   */\n      tag_598\n        /* \"#utility.yul\":4929:4933   */\n      dup3\n        /* \"#utility.yul\":4907:4934   */\n      tag_450\n      jump\t// in\n    tag_598:\n        /* \"#utility.yul\":4899:4905   */\n      dup2\n        /* \"#utility.yul\":4895:4935   */\n      add\n        /* \"#utility.yul\":5037:5043   */\n      dup2\n        /* \"#utility.yul\":5025:5035   */\n      dup2\n        /* \"#utility.yul\":5022:5044   */\n      lt\n        /* \"#utility.yul\":5001:5019   */\n      0xffffffffffffffff\n        /* \"#utility.yul\":4989:4999   */\n      dup3\n        /* \"#utility.yul\":4986:5020   */\n      gt\n        /* \"#utility.yul\":4983:5045   */\n      or\n        /* \"#utility.yul\":4980:5068   */\n      iszero\n      tag_599\n      jumpi\n        /* \"#utility.yul\":5048:5066   */\n      tag_600\n      tag_235\n      jump\t// in\n    tag_600:\n        /* \"#utility.yul\":4980:5068   */\n    tag_599:\n        /* \"#utility.yul\":5088:5098   */\n      dup1\n        /* \"#utility.yul\":5084:5086   */\n      0x40\n        /* \"#utility.yul\":5077:5099   */\n      mstore\n        /* \"#utility.yul\":4867:5105   */\n      pop\n        /* \"#utility.yul\":4824:5105   */\n      pop\n      pop\n      jump\t// out\n        /* \"#utility.yul\":5111:5240   */\n    tag_457:\n        /* \"#utility.yul\":5145:5151   */\n      0x00\n        /* \"#utility.yul\":5172:5192   */\n      tag_602\n      tag_437\n      jump\t// in\n    tag_602:\n        /* \"#utility.yul\":5162:5192   */\n      swap1\n      pop\n        /* \"#utility.yul\":5201:5234   */\n      tag_603\n        /* \"#utility.yul\":5229:5233   */\n      dup3\n        /* \"#utility.yul\":5221:5227   */\n      dup3\n        /* \"#utility.yul\":5201:5234   */\n      tag_456\n      jump\t// in\n    tag_603:\n        /* \"#utility.yul\":5111:5240   */\n      swap2\n      swap1\n      pop\n      jump\t// out\n        /* \"#utility.yul\":5246:5554   */\n    tag_458:\n        /* \"#utility.yul\":5308:5312   */\n      0x00\n        /* \"#utility.yul\":5398:5416   */\n      0xffffffffffffffff\n        /* \"#utility.yul\":5390:5396   */\n      dup3\n        /* \"#utility.yul\":5387:5417   */\n      gt\n        /* \"#utility.yul\":5384:5440   */\n      iszero\n      tag_605\n      jumpi\n        /* \"#utility.yul\":5420:5438   */\n      tag_606\n      tag_235\n      jump\t// in\n    tag_606:\n        /* \"#utility.yul\":5384:5440   */\n    tag_605:\n        /* \"#utility.yul\":5458:5487   */\n      tag_607\n        /* \"#utility.yul\":5480:5486   */\n      dup3\n        /* \"#utility.yul\":5458:5487   */\n      tag_450\n      jump\t// in\n    tag_607:\n        /* \"#utility.yul\":5450:5487   */\n      swap1\n      pop\n        /* \"#utility.yul\":5542:5546   */\n      0x20\n        /* \"#utility.yul\":5536:5540   */\n      dup2\n        /* \"#utility.yul\":5532:5547   */\n      add\n        /* \"#utility.yul\":5524:5547   */\n      swap1\n      pop\n        /* \"#utility.yul\":5246:5554   */\n      swap2\n      swap1\n      pop\n      jump\t// out\n        /* \"#utility.yul\":5560:5708   */\n    tag_459:\n        /* \"#utility.yul\":5658:5664   */\n      dup3\n        /* \"#utility.yul\":5653:5656   */\n      dup2\n        /* \"#utility.yul\":5648:5651   */\n      dup4\n        /* \"#utility.yul\":5635:5665   */\n      calldatacopy\n        /* \"#utility.yul\":5699:5700   */\n      0x00\n        /* \"#utility.yul\":5690:5696   */\n      dup4\n        /* \"#utility.yul\":5685:5688   */\n      dup4\n        /* \"#utility.yul\":5681:5697   */\n      add\n        /* \"#utility.yul\":5674:5701   */\n      mstore\n        /* \"#utility.yul\":5560:5708   */\n      pop\n      pop\n      pop\n      jump\t// out\n        /* \"#utility.yul\":5714:6139   */\n    tag_460:\n        /* \"#utility.yul\":5792:5797   */\n      0x00\n        /* \"#utility.yul\":5817:5883   */\n      tag_610\n        /* \"#utility.yul\":5833:5882   */\n      tag_611\n        /* \"#utility.yul\":5875:5881   */\n      dup5\n        /* \"#utility.yul\":5833:5882   */\n      tag_458\n      jump\t// in\n    tag_611:\n        /* \"#utility.yul\":5817:5883   */\n      tag_457\n      jump\t// in\n    tag_610:\n        /* \"#utility.yul\":5808:5883   */\n      swap1\n      pop\n        /* \"#utility.yul\":5906:5912   */\n      dup3\n        /* \"#utility.yul\":5899:5904   */\n      dup2\n        /* \"#utility.yul\":5892:5913   */\n      mstore\n        /* \"#utility.yul\":5944:5948   */\n      0x20\n        /* \"#utility.yul\":5937:5942   */\n      dup2\n        /* \"#utility.yul\":5933:5949   */\n      add\n        /* \"#utility.yul\":5982:5985   */\n      dup5\n        /* \"#utility.yul\":5973:5979   */\n      dup5\n        /* \"#utility.yul\":5968:5971   */\n      dup5\n        /* \"#utility.yul\":5964:5980   */\n      add\n        /* \"#utility.yul\":5961:5986   */\n      gt\n        /* \"#utility.yul\":5958:6070   */\n      iszero\n      tag_612\n      jumpi\n        /* \"#utility.yul\":5989:6068   */\n      tag_613\n      tag_455\n      jump\t// in\n    tag_613:\n        /* \"#utility.yul\":5958:6070   */\n    tag_612:\n        /* \"#utility.yul\":6079:6133   */\n      tag_614\n        /* \"#utility.yul\":6126:6132   */\n      dup5\n        /* \"#utility.yul\":6121:6124   */\n      dup3\n        /* \"#utility.yul\":6116:6119   */\n      dup6\n        /* \"#utility.yul\":6079:6133   */\n      tag_459\n      jump\t// in\n    tag_614:\n        /* \"#utility.yul\":5798:6139   */\n      pop\n        /* \"#utility.yul\":5714:6139   */\n      swap4\n      swap3\n      pop\n      pop\n      pop\n      jump\t// out\n        /* \"#utility.yul\":6159:6499   */\n    tag_461:\n        /* \"#utility.yul\":6215:6220   */\n      0x00\n        /* \"#utility.yul\":6264:6267   */\n      dup3\n        /* \"#utility.yul\":6257:6261   */\n      0x1f\n        /* \"#utility.yul\":6249:6255   */\n      dup4\n        /* \"#utility.yul\":6245:6262   */\n      add\n        /* \"#utility.yul\":6241:6268   */\n      slt\n        /* \"#utility.yul\":6231:6353   */\n      tag_616\n      jumpi\n        /* \"#utility.yul\":6272:6351   */\n      tag_617\n      tag_454\n      jump\t// in\n    tag_617:\n        /* \"#utility.yul\":6231:6353   */\n    tag_616:\n        /* \"#utility.yul\":6389:6395   */\n      dup2\n        /* \"#utility.yul\":6376:6396   */\n      calldataload\n        /* \"#utility.yul\":6414:6493   */\n      tag_618\n        /* \"#utility.yul\":6489:6492   */\n      dup5\n        /* \"#utility.yul\":6481:6487   */\n      dup3\n        /* \"#utility.yul\":6474:6478   */\n      0x20\n        /* \"#utility.yul\":6466:6472   */\n      dup7\n        /* \"#utility.yul\":6462:6479   */\n      add\n        /* \"#utility.yul\":6414:6493   */\n      tag_460\n      jump\t// in\n    tag_618:\n        /* \"#utility.yul\":6405:6493   */\n      swap2\n      pop\n        /* \"#utility.yul\":6221:6499   */\n      pop\n        /* \"#utility.yul\":6159:6499   */\n      swap3\n      swap2\n      pop\n      pop\n      jump\t// out\n        /* \"#utility.yul\":6505:7304   */\n    tag_45:\n        /* \"#utility.yul\":6592:6598   */\n      0x00\n        /* \"#utility.yul\":6600:6606   */\n      dup1\n        /* \"#utility.yul\":6608:6614   */\n      0x00\n        /* \"#utility.yul\":6657:6659   */\n      0x60\n        /* \"#utility.yul\":6645:6654   */\n      dup5\n        /* \"#utility.yul\":6636:6643   */\n      dup7\n        /* \"#utility.yul\":6632:6655   */\n      sub\n        /* \"#utility.yul\":6628:6660   */\n      slt\n        /* \"#utility.yul\":6625:6744   */\n      iszero\n      tag_620\n      jumpi\n        /* \"#utility.yul\":6663:6742   */\n      tag_621\n      tag_438\n      jump\t// in\n    tag_621:\n        /* \"#utility.yul\":6625:6744   */\n    tag_620:\n        /* \"#utility.yul\":6811:6812   */\n      0x00\n        /* \"#utility.yul\":6800:6809   */\n      dup5\n        /* \"#utility.yul\":6796:6813   */\n      add\n        /* \"#utility.yul\":6783:6814   */\n      calldataload\n        /* \"#utility.yul\":6841:6859   */\n      0xffffffffffffffff\n        /* \"#utility.yul\":6833:6839   */\n      dup2\n        /* \"#utility.yul\":6830:6860   */\n      gt\n        /* \"#utility.yul\":6827:6944   */\n      iszero\n      tag_622\n      jumpi\n        /* \"#utility.yul\":6863:6942   */\n      tag_623\n      tag_439\n      jump\t// in\n    tag_623:\n        /* \"#utility.yul\":6827:6944   */\n    tag_622:\n        /* \"#utility.yul\":6968:7031   */\n      tag_624\n        /* \"#utility.yul\":7023:7030   */\n      dup7\n        /* \"#utility.yul\":7014:7020   */\n      dup3\n        /* \"#utility.yul\":7003:7012   */\n      dup8\n        /* \"#utility.yul\":6999:7021   */\n      add\n        /* \"#utility.yul\":6968:7031   */\n      tag_461\n      jump\t// in\n    tag_624:\n        /* \"#utility.yul\":6958:7031   */\n      swap4\n      pop\n        /* \"#utility.yul\":6754:7041   */\n      pop\n        /* \"#utility.yul\":7080:7082   */\n      0x20\n        /* \"#utility.yul\":7106:7159   */\n      tag_625\n        /* \"#utility.yul\":7151:7158   */\n      dup7\n        /* \"#utility.yul\":7142:7148   */\n      dup3\n        /* \"#utility.yul\":7131:7140   */\n      dup8\n        /* \"#utility.yul\":7127:7149   */\n      add\n        /* \"#utility.yul\":7106:7159   */\n      tag_442\n      jump\t// in\n    tag_625:\n        /* \"#utility.yul\":7096:7159   */\n      swap3\n      pop\n        /* \"#utility.yul\":7051:7169   */\n      pop\n        /* \"#utility.yul\":7208:7210   */\n      0x40\n        /* \"#utility.yul\":7234:7287   */\n      tag_626\n        /* \"#utility.yul\":7279:7286   */\n      dup7\n        /* \"#utility.yul\":7270:7276   */\n      dup3\n        /* \"#utility.yul\":7259:7268   */\n      dup8\n        /* \"#utility.yul\":7255:7277   */\n      add\n        /* \"#utility.yul\":7234:7287   */\n      tag_442\n      jump\t// in\n    tag_626:\n        /* \"#utility.yul\":7224:7287   */\n      swap2\n      pop\n        /* \"#utility.yul\":7179:7297   */\n      pop\n        /* \"#utility.yul\":6505:7304   */\n      swap3\n      pop\n      swap3\n      pop\n      swap3\n      jump\t// out\n        /* \"#utility.yul\":7310:7452   */\n    tag_462:\n        /* \"#utility.yul\":7405:7411   */\n      0x00\n        /* \"#utility.yul\":7439:7444   */\n      dup2\n        /* \"#utility.yul\":7433:7445   */\n      mload\n        /* \"#utility.yul\":7423:7445   */\n      swap1\n      pop\n        /* \"#utility.yul\":7310:7452   */\n      swap2\n      swap1\n      pop\n      jump\t// out\n        /* \"#utility.yul\":7458:7670   */\n    tag_463:\n        /* \"#utility.yul\":7585:7596   */\n      0x00\n        /* \"#utility.yul\":7619:7625   */\n      dup3\n        /* \"#utility.yul\":7614:7617   */\n      dup3\n        /* \"#utility.yul\":7607:7626   */\n      mstore\n        /* \"#utility.yul\":7659:7663   */\n      0x20\n        /* \"#utility.yul\":7654:7657   */\n      dup3\n        /* \"#utility.yul\":7650:7664   */\n      add\n        /* \"#utility.yul\":7635:7664   */\n      swap1\n      pop\n        /* \"#utility.yul\":7458:7670   */\n      swap3\n      swap2\n      pop\n      pop\n      jump\t// out\n        /* \"#utility.yul\":7676:7836   */\n    tag_464:\n        /* \"#utility.yul\":7771:7775   */\n      0x00\n        /* \"#utility.yul\":7794:7797   */\n      dup2\n        /* \"#utility.yul\":7786:7797   */\n      swap1\n      pop\n        /* \"#utility.yul\":7824:7828   */\n      0x20\n        /* \"#utility.yul\":7819:7822   */\n      dup3\n        /* \"#utility.yul\":7815:7829   */\n      add\n        /* \"#utility.yul\":7807:7829   */\n      swap1\n      pop\n        /* \"#utility.yul\":7676:7836   */\n      swap2\n      swap1\n      pop\n      jump\t// out\n        /* \"#utility.yul\":7842:7950   */\n    tag_465:\n        /* \"#utility.yul\":7919:7943   */\n      tag_631\n        /* \"#utility.yul\":7937:7942   */\n      dup2\n        /* \"#utility.yul\":7919:7943   */\n      tag_440\n      jump\t// in\n    tag_631:\n        /* \"#utility.yul\":7914:7917   */\n      dup3\n        /* \"#utility.yul\":7907:7944   */\n      mstore\n        /* \"#utility.yul\":7842:7950   */\n      pop\n      pop\n      jump\t// out\n        /* \"#utility.yul\":7956:8064   */\n    tag_466:\n        /* \"#utility.yul\":8033:8057   */\n      tag_633\n        /* \"#utility.yul\":8051:8056   */\n      dup2\n        /* \"#utility.yul\":8033:8057   */\n      tag_445\n      jump\t// in\n    tag_633:\n        /* \"#utility.yul\":8028:8031   */\n      dup3\n        /* \"#utility.yul\":8021:8058   */\n      mstore\n        /* \"#utility.yul\":7956:8064   */\n      pop\n      pop\n      jump\t// out\n        /* \"#utility.yul\":8070:8229   */\n    tag_467:\n        /* \"#utility.yul\":8144:8155   */\n      0x00\n        /* \"#utility.yul\":8178:8184   */\n      dup3\n        /* \"#utility.yul\":8173:8176   */\n      dup3\n        /* \"#utility.yul\":8166:8185   */\n      mstore\n        /* \"#utility.yul\":8218:8222   */\n      0x20\n        /* \"#utility.yul\":8213:8216   */\n      dup3\n        /* \"#utility.yul\":8209:8223   */\n      add\n        /* \"#utility.yul\":8194:8223   */\n      swap1\n      pop\n        /* \"#utility.yul\":8070:8229   */\n      swap3\n      swap2\n      pop\n      pop\n      jump\t// out\n        /* \"#utility.yul\":8235:8592   */\n    tag_468:\n        /* \"#utility.yul\":8313:8316   */\n      0x00\n        /* \"#utility.yul\":8341:8380   */\n      tag_636\n        /* \"#utility.yul\":8374:8379   */\n      dup3\n        /* \"#utility.yul\":8341:8380   */\n      tag_447\n      jump\t// in\n    tag_636:\n        /* \"#utility.yul\":8396:8457   */\n      tag_637\n        /* \"#utility.yul\":8450:8456   */\n      dup2\n        /* \"#utility.yul\":8445:8448   */\n      dup6\n        /* \"#utility.yul\":8396:8457   */\n      tag_467\n      jump\t// in\n    tag_637:\n        /* \"#utility.yul\":8389:8457   */\n      swap4\n      pop\n        /* \"#utility.yul\":8466:8531   */\n      tag_638\n        /* \"#utility.yul\":8524:8530   */\n      dup2\n        /* \"#utility.yul\":8519:8522   */\n      dup6\n        /* \"#utility.yul\":8512:8516   */\n      0x20\n        /* \"#utility.yul\":8505:8510   */\n      dup7\n        /* \"#utility.yul\":8501:8517   */\n      add\n        /* \"#utility.yul\":8466:8531   */\n      tag_449\n      jump\t// in\n    tag_638:\n        /* \"#utility.yul\":8556:8585   */\n      tag_639\n        /* \"#utility.yul\":8578:8584   */\n      dup2\n        /* \"#utility.yul\":8556:8585   */\n      tag_450\n      jump\t// in\n    tag_639:\n        /* \"#utility.yul\":8551:8554   */\n      dup5\n        /* \"#utility.yul\":8547:8586   */\n      add\n        /* \"#utility.yul\":8540:8586   */\n      swap2\n      pop\n        /* \"#utility.yul\":8317:8592   */\n      pop\n        /* \"#utility.yul\":8235:8592   */\n      swap3\n      swap2\n      pop\n      pop\n      jump\t// out\n        /* \"#utility.yul\":8598:8697   */\n    tag_469:\n        /* \"#utility.yul\":8669:8690   */\n      tag_641\n        /* \"#utility.yul\":8684:8689   */\n      dup2\n        /* \"#utility.yul\":8669:8690   */\n      tag_452\n      jump\t// in\n    tag_641:\n        /* \"#utility.yul\":8664:8667   */\n      dup3\n        /* \"#utility.yul\":8657:8691   */\n      mstore\n        /* \"#utility.yul\":8598:8697   */\n      pop\n      pop\n      jump\t// out\n        /* \"#utility.yul\":8779:10463   */\n    tag_470:\n        /* \"#utility.yul\":8894:8897   */\n      0x00\n        /* \"#utility.yul\":8930:8936   */\n      0x0100\n        /* \"#utility.yul\":8925:8928   */\n      dup4\n        /* \"#utility.yul\":8921:8937   */\n      add\n        /* \"#utility.yul\":9025:9029   */\n      0x00\n        /* \"#utility.yul\":9018:9023   */\n      dup4\n        /* \"#utility.yul\":9014:9030   */\n      add\n        /* \"#utility.yul\":9008:9031   */\n      mload\n        /* \"#utility.yul\":9044:9107   */\n      tag_643\n        /* \"#utility.yul\":9101:9105   */\n      0x00\n        /* \"#utility.yul\":9096:9099   */\n      dup7\n        /* \"#utility.yul\":9092:9106   */\n      add\n        /* \"#utility.yul\":9078:9090   */\n      dup3\n        /* \"#utility.yul\":9044:9107   */\n      tag_465\n      jump\t// in\n    tag_643:\n        /* \"#utility.yul\":8947:9117   */\n      pop\n        /* \"#utility.yul\":9207:9211   */\n      0x20\n        /* \"#utility.yul\":9200:9205   */\n      dup4\n        /* \"#utility.yul\":9196:9212   */\n      add\n        /* \"#utility.yul\":9190:9213   */\n      mload\n        /* \"#utility.yul\":9226:9289   */\n      tag_644\n        /* \"#utility.yul\":9283:9287   */\n      0x20\n        /* \"#utility.yul\":9278:9281   */\n      dup7\n        /* \"#utility.yul\":9274:9288   */\n      add\n        /* \"#utility.yul\":9260:9272   */\n      dup3\n        /* \"#utility.yul\":9226:9289   */\n      tag_466\n      jump\t// in\n    tag_644:\n        /* \"#utility.yul\":9127:9299   */\n      pop\n        /* \"#utility.yul\":9382:9386   */\n      0x40\n        /* \"#utility.yul\":9375:9380   */\n      dup4\n        /* \"#utility.yul\":9371:9387   */\n      add\n        /* \"#utility.yul\":9365:9388   */\n      mload\n        /* \"#utility.yul\":9435:9438   */\n      dup5\n        /* \"#utility.yul\":9429:9433   */\n      dup3\n        /* \"#utility.yul\":9425:9439   */\n      sub\n        /* \"#utility.yul\":9418:9422   */\n      0x40\n        /* \"#utility.yul\":9413:9416   */\n      dup7\n        /* \"#utility.yul\":9409:9423   */\n      add\n        /* \"#utility.yul\":9402:9440   */\n      mstore\n        /* \"#utility.yul\":9461:9534   */\n      tag_645\n        /* \"#utility.yul\":9529:9533   */\n      dup3\n        /* \"#utility.yul\":9515:9527   */\n      dup3\n        /* \"#utility.yul\":9461:9534   */\n      tag_468\n      jump\t// in\n    tag_645:\n        /* \"#utility.yul\":9453:9534   */\n      swap2\n      pop\n        /* \"#utility.yul\":9309:9545   */\n      pop\n        /* \"#utility.yul\":9633:9637   */\n      0x60\n        /* \"#utility.yul\":9626:9631   */\n      dup4\n        /* \"#utility.yul\":9622:9638   */\n      add\n        /* \"#utility.yul\":9616:9639   */\n      mload\n        /* \"#utility.yul\":9652:9715   */\n      tag_646\n        /* \"#utility.yul\":9709:9713   */\n      0x60\n        /* \"#utility.yul\":9704:9707   */\n      dup7\n        /* \"#utility.yul\":9700:9714   */\n      add\n        /* \"#utility.yul\":9686:9698   */\n      dup3\n        /* \"#utility.yul\":9652:9715   */\n      tag_465\n      jump\t// in\n    tag_646:\n        /* \"#utility.yul\":9555:9725   */\n      pop\n        /* \"#utility.yul\":9816:9820   */\n      0x80\n        /* \"#utility.yul\":9809:9814   */\n      dup4\n        /* \"#utility.yul\":9805:9821   */\n      add\n        /* \"#utility.yul\":9799:9822   */\n      mload\n        /* \"#utility.yul\":9835:9898   */\n      tag_647\n        /* \"#utility.yul\":9892:9896   */\n      0x80\n        /* \"#utility.yul\":9887:9890   */\n      dup7\n        /* \"#utility.yul\":9883:9897   */\n      add\n        /* \"#utility.yul\":9869:9881   */\n      dup3\n        /* \"#utility.yul\":9835:9898   */\n      tag_465\n      jump\t// in\n    tag_647:\n        /* \"#utility.yul\":9735:9908   */\n      pop\n        /* \"#utility.yul\":9998:10002   */\n      0xa0\n        /* \"#utility.yul\":9991:9996   */\n      dup4\n        /* \"#utility.yul\":9987:10003   */\n      add\n        /* \"#utility.yul\":9981:10004   */\n      mload\n        /* \"#utility.yul\":10017:10080   */\n      tag_648\n        /* \"#utility.yul\":10074:10078   */\n      0xa0\n        /* \"#utility.yul\":10069:10072   */\n      dup7\n        /* \"#utility.yul\":10065:10079   */\n      add\n        /* \"#utility.yul\":10051:10063   */\n      dup3\n        /* \"#utility.yul\":10017:10080   */\n      tag_465\n      jump\t// in\n    tag_648:\n        /* \"#utility.yul\":9918:10090   */\n      pop\n        /* \"#utility.yul\":10177:10181   */\n      0xc0\n        /* \"#utility.yul\":10170:10175   */\n      dup4\n        /* \"#utility.yul\":10166:10182   */\n      add\n        /* \"#utility.yul\":10160:10183   */\n      mload\n        /* \"#utility.yul\":10196:10253   */\n      tag_649\n        /* \"#utility.yul\":10247:10251   */\n      0xc0\n        /* \"#utility.yul\":10242:10245   */\n      dup7\n        /* \"#utility.yul\":10238:10252   */\n      add\n        /* \"#utility.yul\":10224:10236   */\n      dup3\n        /* \"#utility.yul\":10196:10253   */\n      tag_469\n      jump\t// in\n    tag_649:\n        /* \"#utility.yul\":10100:10263   */\n      pop\n        /* \"#utility.yul\":10350:10354   */\n      0xe0\n        /* \"#utility.yul\":10343:10348   */\n      dup4\n        /* \"#utility.yul\":10339:10355   */\n      add\n        /* \"#utility.yul\":10333:10356   */\n      mload\n        /* \"#utility.yul\":10369:10426   */\n      tag_650\n        /* \"#utility.yul\":10420:10424   */\n      0xe0\n        /* \"#utility.yul\":10415:10418   */\n      dup7\n        /* \"#utility.yul\":10411:10425   */\n      add\n        /* \"#utility.yul\":10397:10409   */\n      dup3\n        /* \"#utility.yul\":10369:10426   */\n      tag_469\n      jump\t// in\n    tag_650:\n        /* \"#utility.yul\":10273:10436   */\n      pop\n        /* \"#utility.yul\":10453:10457   */\n      dup1\n        /* \"#utility.yul\":10446:10457   */\n      swap2\n      pop\n        /* \"#utility.yul\":8899:10463   */\n      pop\n        /* \"#utility.yul\":8779:10463   */\n      swap3\n      swap2\n      pop\n      pop\n      jump\t// out\n        /* \"#utility.yul\":10469:10737   */\n    tag_471:\n        /* \"#utility.yul\":10594:10604   */\n      0x00\n        /* \"#utility.yul\":10629:10731   */\n      tag_652\n        /* \"#utility.yul\":10727:10730   */\n      dup4\n        /* \"#utility.yul\":10719:10725   */\n      dup4\n        /* \"#utility.yul\":10629:10731   */\n      tag_470\n      jump\t// in\n    tag_652:\n        /* \"#utility.yul\":10615:10731   */\n      swap1\n      pop\n        /* \"#utility.yul\":10469:10737   */\n      swap3\n      swap2\n      pop\n      pop\n      jump\t// out\n        /* \"#utility.yul\":10743:10884   */\n    tag_472:\n        /* \"#utility.yul\":10841:10845   */\n      0x00\n        /* \"#utility.yul\":10873:10877   */\n      0x20\n        /* \"#utility.yul\":10868:10871   */\n      dup3\n        /* \"#utility.yul\":10864:10878   */\n      add\n        /* \"#utility.yul\":10856:10878   */\n      swap1\n      pop\n        /* \"#utility.yul\":10743:10884   */\n      swap2\n      swap1\n      pop\n      jump\t// out\n        /* \"#utility.yul\":10970:12105   */\n    tag_473:\n        /* \"#utility.yul\":11145:11148   */\n      0x00\n        /* \"#utility.yul\":11174:11256   */\n      tag_655\n        /* \"#utility.yul\":11250:11255   */\n      dup3\n        /* \"#utility.yul\":11174:11256   */\n      tag_462\n      jump\t// in\n    tag_655:\n        /* \"#utility.yul\":11272:11386   */\n      tag_656\n        /* \"#utility.yul\":11379:11385   */\n      dup2\n        /* \"#utility.yul\":11374:11377   */\n      dup6\n        /* \"#utility.yul\":11272:11386   */\n      tag_463\n      jump\t// in\n    tag_656:\n        /* \"#utility.yul\":11265:11386   */\n      swap4\n      pop\n        /* \"#utility.yul\":11412:11415   */\n      dup4\n        /* \"#utility.yul\":11457:11461   */\n      0x20\n        /* \"#utility.yul\":11449:11455   */\n      dup3\n        /* \"#utility.yul\":11445:11462   */\n      mul\n        /* \"#utility.yul\":11440:11443   */\n      dup6\n        /* \"#utility.yul\":11436:11463   */\n      add\n        /* \"#utility.yul\":11487:11571   */\n      tag_657\n        /* \"#utility.yul\":11565:11570   */\n      dup6\n        /* \"#utility.yul\":11487:11571   */\n      tag_464\n      jump\t// in\n    tag_657:\n        /* \"#utility.yul\":11594:11601   */\n      dup1\n        /* \"#utility.yul\":11625:11626   */\n      0x00\n        /* \"#utility.yul\":11610:12060   */\n    tag_658:\n        /* \"#utility.yul\":11635:11641   */\n      dup6\n        /* \"#utility.yul\":11632:11633   */\n      dup2\n        /* \"#utility.yul\":11629:11642   */\n      lt\n        /* \"#utility.yul\":11610:12060   */\n      iszero\n      tag_660\n      jumpi\n        /* \"#utility.yul\":11706:11715   */\n      dup5\n        /* \"#utility.yul\":11700:11704   */\n      dup5\n        /* \"#utility.yul\":11696:11716   */\n      sub\n        /* \"#utility.yul\":11691:11694   */\n      dup10\n        /* \"#utility.yul\":11684:11717   */\n      mstore\n        /* \"#utility.yul\":11757:11763   */\n      dup2\n        /* \"#utility.yul\":11751:11764   */\n      mload\n        /* \"#utility.yul\":11785:11905   */\n      tag_661\n        /* \"#utility.yul\":11900:11904   */\n      dup6\n        /* \"#utility.yul\":11885:11898   */\n      dup3\n        /* \"#utility.yul\":11785:11905   */\n      tag_471\n      jump\t// in\n    tag_661:\n        /* \"#utility.yul\":11777:11905   */\n      swap5\n      pop\n        /* \"#utility.yul\":11928:12016   */\n      tag_662\n        /* \"#utility.yul\":12009:12015   */\n      dup4\n        /* \"#utility.yul\":11928:12016   */\n      tag_472\n      jump\t// in\n    tag_662:\n        /* \"#utility.yul\":11918:12016   */\n      swap3\n      pop\n        /* \"#utility.yul\":12045:12049   */\n      0x20\n        /* \"#utility.yul\":12040:12043   */\n      dup11\n        /* \"#utility.yul\":12036:12050   */\n      add\n        /* \"#utility.yul\":12029:12050   */\n      swap10\n      pop\n        /* \"#utility.yul\":11670:12060   */\n      pop\n        /* \"#utility.yul\":11657:11658   */\n      0x01\n        /* \"#utility.yul\":11654:11655   */\n      dup2\n        /* \"#utility.yul\":11650:11659   */\n      add\n        /* \"#utility.yul\":11645:11659   */\n      swap1\n      pop\n        /* \"#utility.yul\":11610:12060   */\n      jump(tag_658)\n    tag_660:\n        /* \"#utility.yul\":11614:11628   */\n      pop\n        /* \"#utility.yul\":12076:12080   */\n      dup3\n        /* \"#utility.yul\":12069:12080   */\n      swap8\n      pop\n        /* \"#utility.yul\":12096:12099   */\n      dup8\n        /* \"#utility.yul\":12089:12099   */\n      swap6\n      pop\n        /* \"#utility.yul\":11150:12105   */\n      pop\n      pop\n      pop\n      pop\n      pop\n        /* \"#utility.yul\":10970:12105   */\n      swap3\n      swap2\n      pop\n      pop\n      jump\t// out\n        /* \"#utility.yul\":12111:12596   */\n    tag_51:\n        /* \"#utility.yul\":12310:12314   */\n      0x00\n        /* \"#utility.yul\":12348:12350   */\n      0x20\n        /* \"#utility.yul\":12337:12346   */\n      dup3\n        /* \"#utility.yul\":12333:12351   */\n      add\n        /* \"#utility.yul\":12325:12351   */\n      swap1\n      pop\n        /* \"#utility.yul\":12397:12406   */\n      dup2\n        /* \"#utility.yul\":12391:12395   */\n      dup2\n        /* \"#utility.yul\":12387:12407   */\n      sub\n        /* \"#utility.yul\":12383:12384   */\n      0x00\n        /* \"#utility.yul\":12372:12381   */\n      dup4\n        /* \"#utility.yul\":12368:12385   */\n      add\n        /* \"#utility.yul\":12361:12408   */\n      mstore\n        /* \"#utility.yul\":12425:12589   */\n      tag_664\n        /* \"#utility.yul\":12584:12588   */\n      dup2\n        /* \"#utility.yul\":12575:12581   */\n      dup5\n        /* \"#utility.yul\":12425:12589   */\n      tag_473\n      jump\t// in\n    tag_664:\n        /* \"#utility.yul\":12417:12589   */\n      swap1\n      pop\n        /* \"#utility.yul\":12111:12596   */\n      swap3\n      swap2\n      pop\n      pop\n      jump\t// out\n        /* \"#utility.yul\":12602:12824   */\n    tag_63:\n        /* \"#utility.yul\":12695:12699   */\n      0x00\n        /* \"#utility.yul\":12733:12735   */\n      0x20\n        /* \"#utility.yul\":12722:12731   */\n      dup3\n        /* \"#utility.yul\":12718:12736   */\n      add\n        /* \"#utility.yul\":12710:12736   */\n      swap1\n      pop\n        /* \"#utility.yul\":12746:12817   */\n      tag_666\n        /* \"#utility.yul\":12814:12815   */\n      0x00\n        /* \"#utility.yul\":12803:12812   */\n      dup4\n        /* \"#utility.yul\":12799:12816   */\n      add\n        /* \"#utility.yul\":12790:12796   */\n      dup5\n        /* \"#utility.yul\":12746:12817   */\n      tag_443\n      jump\t// in\n    tag_666:\n        /* \"#utility.yul\":12602:12824   */\n      swap3\n      swap2\n      pop\n      pop\n      jump\t// out\n        /* \"#utility.yul\":12830:12952   */\n    tag_474:\n        /* \"#utility.yul\":12903:12927   */\n      tag_668\n        /* \"#utility.yul\":12921:12926   */\n      dup2\n        /* \"#utility.yul\":12903:12927   */\n      tag_445\n      jump\t// in\n    tag_668:\n        /* \"#utility.yul\":12896:12901   */\n      dup2\n        /* \"#utility.yul\":12893:12928   */\n      eq\n        /* \"#utility.yul\":12883:12946   */\n      tag_669\n      jumpi\n        /* \"#utility.yul\":12942:12943   */\n      0x00\n        /* \"#utility.yul\":12939:12940   */\n      dup1\n        /* \"#utility.yul\":12932:12944   */\n      revert\n        /* \"#utility.yul\":12883:12946   */\n    tag_669:\n        /* \"#utility.yul\":12830:12952   */\n      pop\n      jump\t// out\n        /* \"#utility.yul\":12958:13097   */\n    tag_475:\n        /* \"#utility.yul\":13004:13009   */\n      0x00\n        /* \"#utility.yul\":13042:13048   */\n      dup2\n        /* \"#utility.yul\":13029:13049   */\n      calldataload\n        /* \"#utility.yul\":13020:13049   */\n      swap1\n      pop\n        /* \"#utility.yul\":13058:13091   */\n      tag_671\n        /* \"#utility.yul\":13085:13090   */\n      dup2\n        /* \"#utility.yul\":13058:13091   */\n      tag_474\n      jump\t// in\n    tag_671:\n        /* \"#utility.yul\":12958:13097   */\n      swap3\n      swap2\n      pop\n      pop\n      jump\t// out\n        /* \"#utility.yul\":13103:13432   */\n    tag_79:\n        /* \"#utility.yul\":13162:13168   */\n      0x00\n        /* \"#utility.yul\":13211:13213   */\n      0x20\n        /* \"#utility.yul\":13199:13208   */\n      dup3\n        /* \"#utility.yul\":13190:13197   */\n      dup5\n        /* \"#utility.yul\":13186:13209   */\n      sub\n        /* \"#utility.yul\":13182:13214   */\n      slt\n        /* \"#utility.yul\":13179:13298   */\n      iszero\n      tag_673\n      jumpi\n        /* \"#utility.yul\":13217:13296   */\n      tag_674\n      tag_438\n      jump\t// in\n    tag_674:\n        /* \"#utility.yul\":13179:13298   */\n    tag_673:\n        /* \"#utility.yul\":13337:13338   */\n      0x00\n        /* \"#utility.yul\":13362:13415   */\n      tag_675\n        /* \"#utility.yul\":13407:13414   */\n      dup5\n        /* \"#utility.yul\":13398:13404   */\n      dup3\n        /* \"#utility.yul\":13387:13396   */\n      dup6\n        /* \"#utility.yul\":13383:13405   */\n      add\n        /* \"#utility.yul\":13362:13415   */\n      tag_475\n      jump\t// in\n    tag_675:\n        /* \"#utility.yul\":13352:13415   */\n      swap2\n      pop\n        /* \"#utility.yul\":13308:13425   */\n      pop\n        /* \"#utility.yul\":13103:13432   */\n      swap3\n      swap2\n      pop\n      pop\n      jump\t// out\n        /* \"#utility.yul\":13438:13660   */\n    tag_85:\n        /* \"#utility.yul\":13531:13535   */\n      0x00\n        /* \"#utility.yul\":13569:13571   */\n      0x20\n        /* \"#utility.yul\":13558:13567   */\n      dup3\n        /* \"#utility.yul\":13554:13572   */\n      add\n        /* \"#utility.yul\":13546:13572   */\n      swap1\n      pop\n        /* \"#utility.yul\":13582:13653   */\n      tag_677\n        /* \"#utility.yul\":13650:13651   */\n      0x00\n        /* \"#utility.yul\":13639:13648   */\n      dup4\n        /* \"#utility.yul\":13635:13652   */\n      add\n        /* \"#utility.yul\":13626:13632   */\n      dup5\n        /* \"#utility.yul\":13582:13653   */\n      tag_446\n      jump\t// in\n    tag_677:\n        /* \"#utility.yul\":13438:13660   */\n      swap3\n      swap2\n      pop\n      pop\n      jump\t// out\n        /* \"#utility.yul\":13666:13780   */\n    tag_476:\n        /* \"#utility.yul\":13733:13739   */\n      0x00\n        /* \"#utility.yul\":13767:13772   */\n      dup2\n        /* \"#utility.yul\":13761:13773   */\n      mload\n        /* \"#utility.yul\":13751:13773   */\n      swap1\n      pop\n        /* \"#utility.yul\":13666:13780   */\n      swap2\n      swap1\n      pop\n      jump\t// out\n        /* \"#utility.yul\":13786:13970   */\n    tag_477:\n        /* \"#utility.yul\":13885:13896   */\n      0x00\n        /* \"#utility.yul\":13919:13925   */\n      dup3\n        /* \"#utility.yul\":13914:13917   */\n      dup3\n        /* \"#utility.yul\":13907:13926   */\n      mstore\n        /* \"#utility.yul\":13959:13963   */\n      0x20\n        /* \"#utility.yul\":13954:13957   */\n      dup3\n        /* \"#utility.yul\":13950:13964   */\n      add\n        /* \"#utility.yul\":13935:13964   */\n      swap1\n      pop\n        /* \"#utility.yul\":13786:13970   */\n      swap3\n      swap2\n      pop\n      pop\n      jump\t// out\n        /* \"#utility.yul\":13976:14108   */\n    tag_478:\n        /* \"#utility.yul\":14043:14047   */\n      0x00\n        /* \"#utility.yul\":14066:14069   */\n      dup2\n        /* \"#utility.yul\":14058:14069   */\n      swap1\n      pop\n        /* \"#utility.yul\":14096:14100   */\n      0x20\n        /* \"#utility.yul\":14091:14094   */\n      dup3\n        /* \"#utility.yul\":14087:14101   */\n      add\n        /* \"#utility.yul\":14079:14101   */\n      swap1\n      pop\n        /* \"#utility.yul\":13976:14108   */\n      swap2\n      swap1\n      pop\n      jump\t// out\n        /* \"#utility.yul\":14114:14293   */\n    tag_479:\n        /* \"#utility.yul\":14183:14193   */\n      0x00\n        /* \"#utility.yul\":14204:14250   */\n      tag_682\n        /* \"#utility.yul\":14246:14249   */\n      dup4\n        /* \"#utility.yul\":14238:14244   */\n      dup4\n        /* \"#utility.yul\":14204:14250   */\n      tag_466\n      jump\t// in\n    tag_682:\n        /* \"#utility.yul\":14282:14286   */\n      0x20\n        /* \"#utility.yul\":14277:14280   */\n      dup4\n        /* \"#utility.yul\":14273:14287   */\n      add\n        /* \"#utility.yul\":14259:14287   */\n      swap1\n      pop\n        /* \"#utility.yul\":14114:14293   */\n      swap3\n      swap2\n      pop\n      pop\n      jump\t// out\n        /* \"#utility.yul\":14299:14412   */\n    tag_480:\n        /* \"#utility.yul\":14369:14373   */\n      0x00\n        /* \"#utility.yul\":14401:14405   */\n      0x20\n        /* \"#utility.yul\":14396:14399   */\n      dup3\n        /* \"#utility.yul\":14392:14406   */\n      add\n        /* \"#utility.yul\":14384:14406   */\n      swap1\n      pop\n        /* \"#utility.yul\":14299:14412   */\n      swap2\n      swap1\n      pop\n      jump\t// out\n        /* \"#utility.yul\":14448:15180   */\n    tag_481:\n        /* \"#utility.yul\":14567:14570   */\n      0x00\n        /* \"#utility.yul\":14596:14650   */\n      tag_685\n        /* \"#utility.yul\":14644:14649   */\n      dup3\n        /* \"#utility.yul\":14596:14650   */\n      tag_476\n      jump\t// in\n    tag_685:\n        /* \"#utility.yul\":14666:14752   */\n      tag_686\n        /* \"#utility.yul\":14745:14751   */\n      dup2\n        /* \"#utility.yul\":14740:14743   */\n      dup6\n        /* \"#utility.yul\":14666:14752   */\n      tag_477\n      jump\t// in\n    tag_686:\n        /* \"#utility.yul\":14659:14752   */\n      swap4\n      pop\n        /* \"#utility.yul\":14776:14832   */\n      tag_687\n        /* \"#utility.yul\":14826:14831   */\n      dup4\n        /* \"#utility.yul\":14776:14832   */\n      tag_478\n      jump\t// in\n    tag_687:\n        /* \"#utility.yul\":14855:14862   */\n      dup1\n        /* \"#utility.yul\":14886:14887   */\n      0x00\n        /* \"#utility.yul\":14871:15155   */\n    tag_688:\n        /* \"#utility.yul\":14896:14902   */\n      dup4\n        /* \"#utility.yul\":14893:14894   */\n      dup2\n        /* \"#utility.yul\":14890:14903   */\n      lt\n        /* \"#utility.yul\":14871:15155   */\n      iszero\n      tag_690\n      jumpi\n        /* \"#utility.yul\":14972:14978   */\n      dup2\n        /* \"#utility.yul\":14966:14979   */\n      mload\n        /* \"#utility.yul\":14999:15062   */\n      tag_691\n        /* \"#utility.yul\":15058:15061   */\n      dup9\n        /* \"#utility.yul\":15043:15056   */\n      dup3\n        /* \"#utility.yul\":14999:15062   */\n      tag_479\n      jump\t// in\n    tag_691:\n        /* \"#utility.yul\":14992:15062   */\n      swap8\n      pop\n        /* \"#utility.yul\":15085:15145   */\n      tag_692\n        /* \"#utility.yul\":15138:15144   */\n      dup4\n        /* \"#utility.yul\":15085:15145   */\n      tag_480\n      jump\t// in\n    tag_692:\n        /* \"#utility.yul\":15075:15145   */\n      swap3\n      pop\n        /* \"#utility.yul\":14931:15155   */\n      pop\n        /* \"#utility.yul\":14918:14919   */\n      0x01\n        /* \"#utility.yul\":14915:14916   */\n      dup2\n        /* \"#utility.yul\":14911:14920   */\n      add\n        /* \"#utility.yul\":14906:14920   */\n      swap1\n      pop\n        /* \"#utility.yul\":14871:15155   */\n      jump(tag_688)\n    tag_690:\n        /* \"#utility.yul\":14875:14889   */\n      pop\n        /* \"#utility.yul\":15171:15174   */\n      dup6\n        /* \"#utility.yul\":15164:15174   */\n      swap4\n      pop\n        /* \"#utility.yul\":14572:15180   */\n      pop\n      pop\n      pop\n        /* \"#utility.yul\":14448:15180   */\n      swap3\n      swap2\n      pop\n      pop\n      jump\t// out\n        /* \"#utility.yul\":15186:15300   */\n    tag_482:\n        /* \"#utility.yul\":15253:15259   */\n      0x00\n        /* \"#utility.yul\":15287:15292   */\n      dup2\n        /* \"#utility.yul\":15281:15293   */\n      mload\n        /* \"#utility.yul\":15271:15293   */\n      swap1\n      pop\n        /* \"#utility.yul\":15186:15300   */\n      swap2\n      swap1\n      pop\n      jump\t// out\n        /* \"#utility.yul\":15306:15490   */\n    tag_483:\n        /* \"#utility.yul\":15405:15416   */\n      0x00\n        /* \"#utility.yul\":15439:15445   */\n      dup3\n        /* \"#utility.yul\":15434:15437   */\n      dup3\n        /* \"#utility.yul\":15427:15446   */\n      mstore\n        /* \"#utility.yul\":15479:15483   */\n      0x20\n        /* \"#utility.yul\":15474:15477   */\n      dup3\n        /* \"#utility.yul\":15470:15484   */\n      add\n        /* \"#utility.yul\":15455:15484   */\n      swap1\n      pop\n        /* \"#utility.yul\":15306:15490   */\n      swap3\n      swap2\n      pop\n      pop\n      jump\t// out\n        /* \"#utility.yul\":15496:15628   */\n    tag_484:\n        /* \"#utility.yul\":15563:15567   */\n      0x00\n        /* \"#utility.yul\":15586:15589   */\n      dup2\n        /* \"#utility.yul\":15578:15589   */\n      swap1\n      pop\n        /* \"#utility.yul\":15616:15620   */\n      0x20\n        /* \"#utility.yul\":15611:15614   */\n      dup3\n        /* \"#utility.yul\":15607:15621   */\n      add\n        /* \"#utility.yul\":15599:15621   */\n      swap1\n      pop\n        /* \"#utility.yul\":15496:15628   */\n      swap2\n      swap1\n      pop\n      jump\t// out\n        /* \"#utility.yul\":15634:15813   */\n    tag_485:\n        /* \"#utility.yul\":15703:15713   */\n      0x00\n        /* \"#utility.yul\":15724:15770   */\n      tag_697\n        /* \"#utility.yul\":15766:15769   */\n      dup4\n        /* \"#utility.yul\":15758:15764   */\n      dup4\n        /* \"#utility.yul\":15724:15770   */\n      tag_465\n      jump\t// in\n    tag_697:\n        /* \"#utility.yul\":15802:15806   */\n      0x20\n        /* \"#utility.yul\":15797:15800   */\n      dup4\n        /* \"#utility.yul\":15793:15807   */\n      add\n        /* \"#utility.yul\":15779:15807   */\n      swap1\n      pop\n        /* \"#utility.yul\":15634:15813   */\n      swap3\n      swap2\n      pop\n      pop\n      jump\t// out\n        /* \"#utility.yul\":15819:15932   */\n    tag_486:\n        /* \"#utility.yul\":15889:15893   */\n      0x00\n        /* \"#utility.yul\":15921:15925   */\n      0x20\n        /* \"#utility.yul\":15916:15919   */\n      dup3\n        /* \"#utility.yul\":15912:15926   */\n      add\n        /* \"#utility.yul\":15904:15926   */\n      swap1\n      pop\n        /* \"#utility.yul\":15819:15932   */\n      swap2\n      swap1\n      pop\n      jump\t// out\n        /* \"#utility.yul\":15968:16700   */\n    tag_487:\n        /* \"#utility.yul\":16087:16090   */\n      0x00\n        /* \"#utility.yul\":16116:16170   */\n      tag_700\n        /* \"#utility.yul\":16164:16169   */\n      dup3\n        /* \"#utility.yul\":16116:16170   */\n      tag_482\n      jump\t// in\n    tag_700:\n        /* \"#utility.yul\":16186:16272   */\n      tag_701\n        /* \"#utility.yul\":16265:16271   */\n      dup2\n        /* \"#utility.yul\":16260:16263   */\n      dup6\n        /* \"#utility.yul\":16186:16272   */\n      tag_483\n      jump\t// in\n    tag_701:\n        /* \"#utility.yul\":16179:16272   */\n      swap4\n      pop\n        /* \"#utility.yul\":16296:16352   */\n      tag_702\n        /* \"#utility.yul\":16346:16351   */\n      dup4\n        /* \"#utility.yul\":16296:16352   */\n      tag_484\n      jump\t// in\n    tag_702:\n        /* \"#utility.yul\":16375:16382   */\n      dup1\n        /* \"#utility.yul\":16406:16407   */\n      0x00\n        /* \"#utility.yul\":16391:16675   */\n    tag_703:\n        /* \"#utility.yul\":16416:16422   */\n      dup4\n        /* \"#utility.yul\":16413:16414   */\n      dup2\n        /* \"#utility.yul\":16410:16423   */\n      lt\n        /* \"#utility.yul\":16391:16675   */\n      iszero\n      tag_705\n      jumpi\n        /* \"#utility.yul\":16492:16498   */\n      dup2\n        /* \"#utility.yul\":16486:16499   */\n      mload\n        /* \"#utility.yul\":16519:16582   */\n      tag_706\n        /* \"#utility.yul\":16578:16581   */\n      dup9\n        /* \"#utility.yul\":16563:16576   */\n      dup3\n        /* \"#utility.yul\":16519:16582   */\n      tag_485\n      jump\t// in\n    tag_706:\n        /* \"#utility.yul\":16512:16582   */\n      swap8\n      pop\n        /* \"#utility.yul\":16605:16665   */\n      tag_707\n        /* \"#utility.yul\":16658:16664   */\n      dup4\n        /* \"#utility.yul\":16605:16665   */\n      tag_486\n      jump\t// in\n    tag_707:\n        /* \"#utility.yul\":16595:16665   */\n      swap3\n      pop\n        /* \"#utility.yul\":16451:16675   */\n      pop\n        /* \"#utility.yul\":16438:16439   */\n      0x01\n        /* \"#utility.yul\":16435:16436   */\n      dup2\n        /* \"#utility.yul\":16431:16440   */\n      add\n        /* \"#utility.yul\":16426:16440   */\n      swap1\n      pop\n        /* \"#utility.yul\":16391:16675   */\n      jump(tag_703)\n    tag_705:\n        /* \"#utility.yul\":16395:16409   */\n      pop\n        /* \"#utility.yul\":16691:16694   */\n      dup6\n        /* \"#utility.yul\":16684:16694   */\n      swap4\n      pop\n        /* \"#utility.yul\":16092:16700   */\n      pop\n      pop\n      pop\n        /* \"#utility.yul\":15968:16700   */\n      swap3\n      swap2\n      pop\n      pop\n      jump\t// out\n        /* \"#utility.yul\":16706:17340   */\n    tag_103:\n        /* \"#utility.yul\":16927:16931   */\n      0x00\n        /* \"#utility.yul\":16965:16967   */\n      0x40\n        /* \"#utility.yul\":16954:16963   */\n      dup3\n        /* \"#utility.yul\":16950:16968   */\n      add\n        /* \"#utility.yul\":16942:16968   */\n      swap1\n      pop\n        /* \"#utility.yul\":17014:17023   */\n      dup2\n        /* \"#utility.yul\":17008:17012   */\n      dup2\n        /* \"#utility.yul\":17004:17024   */\n      sub\n        /* \"#utility.yul\":17000:17001   */\n      0x00\n        /* \"#utility.yul\":16989:16998   */\n      dup4\n        /* \"#utility.yul\":16985:17002   */\n      add\n        /* \"#utility.yul\":16978:17025   */\n      mstore\n        /* \"#utility.yul\":17042:17150   */\n      tag_709\n        /* \"#utility.yul\":17145:17149   */\n      dup2\n        /* \"#utility.yul\":17136:17142   */\n      dup6\n        /* \"#utility.yul\":17042:17150   */\n      tag_481\n      jump\t// in\n    tag_709:\n        /* \"#utility.yul\":17034:17150   */\n      swap1\n      pop\n        /* \"#utility.yul\":17197:17206   */\n      dup2\n        /* \"#utility.yul\":17191:17195   */\n      dup2\n        /* \"#utility.yul\":17187:17207   */\n      sub\n        /* \"#utility.yul\":17182:17184   */\n      0x20\n        /* \"#utility.yul\":17171:17180   */\n      dup4\n        /* \"#utility.yul\":17167:17185   */\n      add\n        /* \"#utility.yul\":17160:17208   */\n      mstore\n        /* \"#utility.yul\":17225:17333   */\n      tag_710\n        /* \"#utility.yul\":17328:17332   */\n      dup2\n        /* \"#utility.yul\":17319:17325   */\n      dup5\n        /* \"#utility.yul\":17225:17333   */\n      tag_487\n      jump\t// in\n    tag_710:\n        /* \"#utility.yul\":17217:17333   */\n      swap1\n      pop\n        /* \"#utility.yul\":16706:17340   */\n      swap4\n      swap3\n      pop\n      pop\n      pop\n      jump\t// out\n        /* \"#utility.yul\":17346:17556   */\n    tag_114:\n        /* \"#utility.yul\":17433:17437   */\n      0x00\n        /* \"#utility.yul\":17471:17473   */\n      0x20\n        /* \"#utility.yul\":17460:17469   */\n      dup3\n        /* \"#utility.yul\":17456:17474   */\n      add\n        /* \"#utility.yul\":17448:17474   */\n      swap1\n      pop\n        /* \"#utility.yul\":17484:17549   */\n      tag_712\n        /* \"#utility.yul\":17546:17547   */\n      0x00\n        /* \"#utility.yul\":17535:17544   */\n      dup4\n        /* \"#utility.yul\":17531:17548   */\n      add\n        /* \"#utility.yul\":17522:17528   */\n      dup5\n        /* \"#utility.yul\":17484:17549   */\n      tag_453\n      jump\t// in\n    tag_712:\n        /* \"#utility.yul\":17346:17556   */\n      swap3\n      swap2\n      pop\n      pop\n      jump\t// out\n        /* \"#utility.yul\":17562:17935   */\n    tag_127:\n        /* \"#utility.yul\":17705:17709   */\n      0x00\n        /* \"#utility.yul\":17743:17745   */\n      0x20\n        /* \"#utility.yul\":17732:17741   */\n      dup3\n        /* \"#utility.yul\":17728:17746   */\n      add\n        /* \"#utility.yul\":17720:17746   */\n      swap1\n      pop\n        /* \"#utility.yul\":17792:17801   */\n      dup2\n        /* \"#utility.yul\":17786:17790   */\n      dup2\n        /* \"#utility.yul\":17782:17802   */\n      sub\n        /* \"#utility.yul\":17778:17779   */\n      0x00\n        /* \"#utility.yul\":17767:17776   */\n      dup4\n        /* \"#utility.yul\":17763:17780   */\n      add\n        /* \"#utility.yul\":17756:17803   */\n      mstore\n        /* \"#utility.yul\":17820:17928   */\n      tag_714\n        /* \"#utility.yul\":17923:17927   */\n      dup2\n        /* \"#utility.yul\":17914:17920   */\n      dup5\n        /* \"#utility.yul\":17820:17928   */\n      tag_481\n      jump\t// in\n    tag_714:\n        /* \"#utility.yul\":17812:17928   */\n      swap1\n      pop\n        /* \"#utility.yul\":17562:17935   */\n      swap3\n      swap2\n      pop\n      pop\n      jump\t// out\n        /* \"#utility.yul\":17941:18168   */\n    tag_488:\n        /* \"#utility.yul\":18081:18115   */\n      0x4f6e6c792074686520636f6e7472616374206f776e65722063616e2065786563\n        /* \"#utility.yul\":18077:18078   */\n      0x00\n        /* \"#utility.yul\":18069:18075   */\n      dup3\n        /* \"#utility.yul\":18065:18079   */\n      add\n        /* \"#utility.yul\":18058:18116   */\n      mstore\n        /* \"#utility.yul\":18150:18160   */\n      0x7574652074686973000000000000000000000000000000000000000000000000\n        /* \"#utility.yul\":18145:18147   */\n      0x20\n        /* \"#utility.yul\":18137:18143   */\n      dup3\n        /* \"#utility.yul\":18133:18148   */\n      add\n        /* \"#utility.yul\":18126:18161   */\n      mstore\n        /* \"#utility.yul\":17941:18168   */\n      pop\n      jump\t// out\n        /* \"#utility.yul\":18174:18540   */\n    tag_489:\n        /* \"#utility.yul\":18316:18319   */\n      0x00\n        /* \"#utility.yul\":18337:18404   */\n      tag_717\n        /* \"#utility.yul\":18401:18403   */\n      0x28\n        /* \"#utility.yul\":18396:18399   */\n      dup4\n        /* \"#utility.yul\":18337:18404   */\n      tag_448\n      jump\t// in\n    tag_717:\n        /* \"#utility.yul\":18330:18404   */\n      swap2\n      pop\n        /* \"#utility.yul\":18413:18506   */\n      tag_718\n        /* \"#utility.yul\":18502:18505   */\n      dup3\n        /* \"#utility.yul\":18413:18506   */\n      tag_488\n      jump\t// in\n    tag_718:\n        /* \"#utility.yul\":18531:18533   */\n      0x40\n        /* \"#utility.yul\":18526:18529   */\n      dup3\n        /* \"#utility.yul\":18522:18534   */\n      add\n        /* \"#utility.yul\":18515:18534   */\n      swap1\n      pop\n        /* \"#utility.yul\":18174:18540   */\n      swap2\n      swap1\n      pop\n      jump\t// out\n        /* \"#utility.yul\":18546:18965   */\n    tag_140:\n        /* \"#utility.yul\":18712:18716   */\n      0x00\n        /* \"#utility.yul\":18750:18752   */\n      0x20\n        /* \"#utility.yul\":18739:18748   */\n      dup3\n        /* \"#utility.yul\":18735:18753   */\n      add\n        /* \"#utility.yul\":18727:18753   */\n      swap1\n      pop\n        /* \"#utility.yul\":18799:18808   */\n      dup2\n        /* \"#utility.yul\":18793:18797   */\n      dup2\n        /* \"#utility.yul\":18789:18809   */\n      sub\n        /* \"#utility.yul\":18785:18786   */\n      0x00\n        /* \"#utility.yul\":18774:18783   */\n      dup4\n        /* \"#utility.yul\":18770:18787   */\n      add\n        /* \"#utility.yul\":18763:18810   */\n      mstore\n        /* \"#utility.yul\":18827:18958   */\n      tag_720\n        /* \"#utility.yul\":18953:18957   */\n      dup2\n        /* \"#utility.yul\":18827:18958   */\n      tag_489\n      jump\t// in\n    tag_720:\n        /* \"#utility.yul\":18819:18958   */\n      swap1\n      pop\n        /* \"#utility.yul\":18546:18965   */\n      swap2\n      swap1\n      pop\n      jump\t// out\n        /* \"#utility.yul\":18971:19151   */\n    tag_152:\n        /* \"#utility.yul\":19019:19096   */\n      0x4e487b7100000000000000000000000000000000000000000000000000000000\n        /* \"#utility.yul\":19016:19017   */\n      0x00\n        /* \"#utility.yul\":19009:19097   */\n      mstore\n        /* \"#utility.yul\":19116:19120   */\n      0x32\n        /* \"#utility.yul\":19113:19114   */\n      0x04\n        /* \"#utility.yul\":19106:19121   */\n      mstore\n        /* \"#utility.yul\":19140:19144   */\n      0x24\n        /* \"#utility.yul\":19137:19138   */\n      0x00\n        /* \"#utility.yul\":19130:19145   */\n      revert\n        /* \"#utility.yul\":19157:19337   */\n    tag_490:\n        /* \"#utility.yul\":19205:19282   */\n      0x4e487b7100000000000000000000000000000000000000000000000000000000\n        /* \"#utility.yul\":19202:19203   */\n      0x00\n        /* \"#utility.yul\":19195:19283   */\n      mstore\n        /* \"#utility.yul\":19302:19306   */\n      0x11\n        /* \"#utility.yul\":19299:19300   */\n      0x04\n        /* \"#utility.yul\":19292:19307   */\n      mstore\n        /* \"#utility.yul\":19326:19330   */\n      0x24\n        /* \"#utility.yul\":19323:19324   */\n      0x00\n        /* \"#utility.yul\":19316:19331   */\n      revert\n        /* \"#utility.yul\":19343:19753   */\n    tag_155:\n        /* \"#utility.yul\":19383:19390   */\n      0x00\n        /* \"#utility.yul\":19406:19426   */\n      tag_724\n        /* \"#utility.yul\":19424:19425   */\n      dup3\n        /* \"#utility.yul\":19406:19426   */\n      tag_440\n      jump\t// in\n    tag_724:\n        /* \"#utility.yul\":19401:19426   */\n      swap2\n      pop\n        /* \"#utility.yul\":19440:19460   */\n      tag_725\n        /* \"#utility.yul\":19458:19459   */\n      dup4\n        /* \"#utility.yul\":19440:19460   */\n      tag_440\n      jump\t// in\n    tag_725:\n        /* \"#utility.yul\":19435:19460   */\n      swap3\n      pop\n        /* \"#utility.yul\":19495:19496   */\n      dup3\n        /* \"#utility.yul\":19492:19493   */\n      dup3\n        /* \"#utility.yul\":19488:19497   */\n      mul\n        /* \"#utility.yul\":19517:19547   */\n      tag_726\n        /* \"#utility.yul\":19535:19546   */\n      dup2\n        /* \"#utility.yul\":19517:19547   */\n      tag_440\n      jump\t// in\n    tag_726:\n        /* \"#utility.yul\":19506:19547   */\n      swap2\n      pop\n        /* \"#utility.yul\":19696:19697   */\n      dup3\n        /* \"#utility.yul\":19687:19694   */\n      dup3\n        /* \"#utility.yul\":19683:19698   */\n      div\n        /* \"#utility.yul\":19680:19681   */\n      dup5\n        /* \"#utility.yul\":19677:19699   */\n      eq\n        /* \"#utility.yul\":19657:19658   */\n      dup4\n        /* \"#utility.yul\":19650:19659   */\n      iszero\n        /* \"#utility.yul\":19630:19713   */\n      or\n        /* \"#utility.yul\":19607:19746   */\n      tag_727\n      jumpi\n        /* \"#utility.yul\":19726:19744   */\n      tag_728\n      tag_490\n      jump\t// in\n    tag_728:\n        /* \"#utility.yul\":19607:19746   */\n    tag_727:\n        /* \"#utility.yul\":19391:19753   */\n      pop\n        /* \"#utility.yul\":19343:19753   */\n      swap3\n      swap2\n      pop\n      pop\n      jump\t// out\n        /* \"#utility.yul\":19759:19950   */\n    tag_157:\n        /* \"#utility.yul\":19799:19802   */\n      0x00\n        /* \"#utility.yul\":19818:19838   */\n      tag_730\n        /* \"#utility.yul\":19836:19837   */\n      dup3\n        /* \"#utility.yul\":19818:19838   */\n      tag_440\n      jump\t// in\n    tag_730:\n        /* \"#utility.yul\":19813:19838   */\n      swap2\n      pop\n        /* \"#utility.yul\":19852:19872   */\n      tag_731\n        /* \"#utility.yul\":19870:19871   */\n      dup4\n        /* \"#utility.yul\":19852:19872   */\n      tag_440\n      jump\t// in\n    tag_731:\n        /* \"#utility.yul\":19847:19872   */\n      swap3\n      pop\n        /* \"#utility.yul\":19895:19896   */\n      dup3\n        /* \"#utility.yul\":19892:19893   */\n      dup3\n        /* \"#utility.yul\":19888:19897   */\n      add\n        /* \"#utility.yul\":19881:19897   */\n      swap1\n      pop\n        /* \"#utility.yul\":19916:19919   */\n      dup1\n        /* \"#utility.yul\":19913:19914   */\n      dup3\n        /* \"#utility.yul\":19910:19920   */\n      gt\n        /* \"#utility.yul\":19907:19943   */\n      iszero\n      tag_732\n      jumpi\n        /* \"#utility.yul\":19923:19941   */\n      tag_733\n      tag_490\n      jump\t// in\n    tag_733:\n        /* \"#utility.yul\":19907:19943   */\n    tag_732:\n        /* \"#utility.yul\":19759:19950   */\n      swap3\n      swap2\n      pop\n      pop\n      jump\t// out\n        /* \"#utility.yul\":19956:20136   */\n    tag_491:\n        /* \"#utility.yul\":20004:20081   */\n      0x4e487b7100000000000000000000000000000000000000000000000000000000\n        /* \"#utility.yul\":20001:20002   */\n      0x00\n        /* \"#utility.yul\":19994:20082   */\n      mstore\n        /* \"#utility.yul\":20101:20105   */\n      0x22\n        /* \"#utility.yul\":20098:20099   */\n      0x04\n        /* \"#utility.yul\":20091:20106   */\n      mstore\n        /* \"#utility.yul\":20125:20129   */\n      0x24\n        /* \"#utility.yul\":20122:20123   */\n      0x00\n        /* \"#utility.yul\":20115:20130   */\n      revert\n        /* \"#utility.yul\":20142:20462   */\n    tag_159:\n        /* \"#utility.yul\":20186:20192   */\n      0x00\n        /* \"#utility.yul\":20223:20224   */\n      0x02\n        /* \"#utility.yul\":20217:20221   */\n      dup3\n        /* \"#utility.yul\":20213:20225   */\n      div\n        /* \"#utility.yul\":20203:20225   */\n      swap1\n      pop\n        /* \"#utility.yul\":20270:20271   */\n      0x01\n        /* \"#utility.yul\":20264:20268   */\n      dup3\n        /* \"#utility.yul\":20260:20272   */\n      and\n        /* \"#utility.yul\":20291:20309   */\n      dup1\n        /* \"#utility.yul\":20281:20362   */\n      tag_736\n      jumpi\n        /* \"#utility.yul\":20347:20351   */\n      0x7f\n        /* \"#utility.yul\":20339:20345   */\n      dup3\n        /* \"#utility.yul\":20335:20352   */\n      and\n        /* \"#utility.yul\":20325:20352   */\n      swap2\n      pop\n        /* \"#utility.yul\":20281:20362   */\n    tag_736:\n        /* \"#utility.yul\":20409:20411   */\n      0x20\n        /* \"#utility.yul\":20401:20407   */\n      dup3\n        /* \"#utility.yul\":20398:20412   */\n      lt\n        /* \"#utility.yul\":20378:20396   */\n      dup2\n        /* \"#utility.yul\":20375:20413   */\n      sub\n        /* \"#utility.yul\":20372:20456   */\n      tag_737\n      jumpi\n        /* \"#utility.yul\":20428:20446   */\n      tag_738\n      tag_491\n      jump\t// in\n    tag_738:\n        /* \"#utility.yul\":20372:20456   */\n    tag_737:\n        /* \"#utility.yul\":20193:20462   */\n      pop\n        /* \"#utility.yul\":20142:20462   */\n      swap2\n      swap1\n      pop\n      jump\t// out\n        /* \"#utility.yul\":20468:20703   */\n    tag_492:\n        /* \"#utility.yul\":20608:20642   */\n      0x54686520636f6e7472616374206f776e65722063616e277420706572666f726d\n        /* \"#utility.yul\":20604:20605   */\n      0x00\n        /* \"#utility.yul\":20596:20602   */\n      dup3\n        /* \"#utility.yul\":20592:20606   */\n      add\n        /* \"#utility.yul\":20585:20643   */\n      mstore\n        /* \"#utility.yul\":20677:20695   */\n      0x206675727468657220616374696f6e7300000000000000000000000000000000\n        /* \"#utility.yul\":20672:20674   */\n      0x20\n        /* \"#utility.yul\":20664:20670   */\n      dup3\n        /* \"#utility.yul\":20660:20675   */\n      add\n        /* \"#utility.yul\":20653:20696   */\n      mstore\n        /* \"#utility.yul\":20468:20703   */\n      pop\n      jump\t// out\n        /* \"#utility.yul\":20709:21075   */\n    tag_493:\n        /* \"#utility.yul\":20851:20854   */\n      0x00\n        /* \"#utility.yul\":20872:20939   */\n      tag_741\n        /* \"#utility.yul\":20936:20938   */\n      0x30\n        /* \"#utility.yul\":20931:20934   */\n      dup4\n        /* \"#utility.yul\":20872:20939   */\n      tag_448\n      jump\t// in\n    tag_741:\n        /* \"#utility.yul\":20865:20939   */\n      swap2\n      pop\n        /* \"#utility.yul\":20948:21041   */\n      tag_742\n        /* \"#utility.yul\":21037:21040   */\n      dup3\n        /* \"#utility.yul\":20948:21041   */\n      tag_492\n      jump\t// in\n    tag_742:\n        /* \"#utility.yul\":21066:21068   */\n      0x40\n        /* \"#utility.yul\":21061:21064   */\n      dup3\n        /* \"#utility.yul\":21057:21069   */\n      add\n        /* \"#utility.yul\":21050:21069   */\n      swap1\n      pop\n        /* \"#utility.yul\":20709:21075   */\n      swap2\n      swap1\n      pop\n      jump\t// out\n        /* \"#utility.yul\":21081:21500   */\n    tag_167:\n        /* \"#utility.yul\":21247:21251   */\n      0x00\n        /* \"#utility.yul\":21285:21287   */\n      0x20\n        /* \"#utility.yul\":21274:21283   */\n      dup3\n        /* \"#utility.yul\":21270:21288   */\n      add\n        /* \"#utility.yul\":21262:21288   */\n      swap1\n      pop\n        /* \"#utility.yul\":21334:21343   */\n      dup2\n        /* \"#utility.yul\":21328:21332   */\n      dup2\n        /* \"#utility.yul\":21324:21344   */\n      sub\n        /* \"#utility.yul\":21320:21321   */\n      0x00\n        /* \"#utility.yul\":21309:21318   */\n      dup4\n        /* \"#utility.yul\":21305:21322   */\n      add\n        /* \"#utility.yul\":21298:21345   */\n      mstore\n        /* \"#utility.yul\":21362:21493   */\n      tag_744\n        /* \"#utility.yul\":21488:21492   */\n      dup2\n        /* \"#utility.yul\":21362:21493   */\n      tag_493\n      jump\t// in\n    tag_744:\n        /* \"#utility.yul\":21354:21493   */\n      swap1\n      pop\n        /* \"#utility.yul\":21081:21500   */\n      swap2\n      swap1\n      pop\n      jump\t// out\n        /* \"#utility.yul\":21506:21673   */\n    tag_494:\n        /* \"#utility.yul\":21646:21665   */\n      0x416464726573732069732062616e6e6564000000000000000000000000000000\n        /* \"#utility.yul\":21642:21643   */\n      0x00\n        /* \"#utility.yul\":21634:21640   */\n      dup3\n        /* \"#utility.yul\":21630:21644   */\n      add\n        /* \"#utility.yul\":21623:21666   */\n      mstore\n        /* \"#utility.yul\":21506:21673   */\n      pop\n      jump\t// out\n        /* \"#utility.yul\":21679:22045   */\n    tag_495:\n        /* \"#utility.yul\":21821:21824   */\n      0x00\n        /* \"#utility.yul\":21842:21909   */\n      tag_747\n        /* \"#utility.yul\":21906:21908   */\n      0x11\n        /* \"#utility.yul\":21901:21904   */\n      dup4\n        /* \"#utility.yul\":21842:21909   */\n      tag_448\n      jump\t// in\n    tag_747:\n        /* \"#utility.yul\":21835:21909   */\n      swap2\n      pop\n        /* \"#utility.yul\":21918:22011   */\n      tag_748\n        /* \"#utility.yul\":22007:22010   */\n      dup3\n        /* \"#utility.yul\":21918:22011   */\n      tag_494\n      jump\t// in\n    tag_748:\n        /* \"#utility.yul\":22036:22038   */\n      0x20\n        /* \"#utility.yul\":22031:22034   */\n      dup3\n        /* \"#utility.yul\":22027:22039   */\n      add\n        /* \"#utility.yul\":22020:22039   */\n      swap1\n      pop\n        /* \"#utility.yul\":21679:22045   */\n      swap2\n      swap1\n      pop\n      jump\t// out\n        /* \"#utility.yul\":22051:22470   */\n    tag_171:\n        /* \"#utility.yul\":22217:22221   */\n      0x00\n        /* \"#utility.yul\":22255:22257   */\n      0x20\n        /* \"#utility.yul\":22244:22253   */\n      dup3\n        /* \"#utility.yul\":22240:22258   */\n      add\n        /* \"#utility.yul\":22232:22258   */\n      swap1\n      pop\n        /* \"#utility.yul\":22304:22313   */\n      dup2\n        /* \"#utility.yul\":22298:22302   */\n      dup2\n        /* \"#utility.yul\":22294:22314   */\n      sub\n        /* \"#utility.yul\":22290:22291   */\n      0x00\n        /* \"#utility.yul\":22279:22288   */\n      dup4\n        /* \"#utility.yul\":22275:22292   */\n      add\n        /* \"#utility.yul\":22268:22315   */\n      mstore\n        /* \"#utility.yul\":22332:22463   */\n      tag_750\n        /* \"#utility.yul\":22458:22462   */\n      dup2\n        /* \"#utility.yul\":22332:22463   */\n      tag_495\n      jump\t// in\n    tag_750:\n        /* \"#utility.yul\":22324:22463   */\n      swap1\n      pop\n        /* \"#utility.yul\":22051:22470   */\n      swap2\n      swap1\n      pop\n      jump\t// out\n        /* \"#utility.yul\":22476:22648   */\n    tag_496:\n        /* \"#utility.yul\":22616:22640   */\n      0x43616d706169676e206973206e6f742061637469766500000000000000000000\n        /* \"#utility.yul\":22612:22613   */\n      0x00\n        /* \"#utility.yul\":22604:22610   */\n      dup3\n        /* \"#utility.yul\":22600:22614   */\n      add\n        /* \"#utility.yul\":22593:22641   */\n      mstore\n        /* \"#utility.yul\":22476:22648   */\n      pop\n      jump\t// out\n        /* \"#utility.yul\":22654:23020   */\n    tag_497:\n        /* \"#utility.yul\":22796:22799   */\n      0x00\n        /* \"#utility.yul\":22817:22884   */\n      tag_753\n        /* \"#utility.yul\":22881:22883   */\n      0x16\n        /* \"#utility.yul\":22876:22879   */\n      dup4\n        /* \"#utility.yul\":22817:22884   */\n      tag_448\n      jump\t// in\n    tag_753:\n        /* \"#utility.yul\":22810:22884   */\n      swap2\n      pop\n        /* \"#utility.yul\":22893:22986   */\n      tag_754\n        /* \"#utility.yul\":22982:22985   */\n      dup3\n        /* \"#utility.yul\":22893:22986   */\n      tag_496\n      jump\t// in\n    tag_754:\n        /* \"#utility.yul\":23011:23013   */\n      0x20\n        /* \"#utility.yul\":23006:23009   */\n      dup3\n        /* \"#utility.yul\":23002:23014   */\n      add\n        /* \"#utility.yul\":22995:23014   */\n      swap1\n      pop\n        /* \"#utility.yul\":22654:23020   */\n      swap2\n      swap1\n      pop\n      jump\t// out\n        /* \"#utility.yul\":23026:23445   */\n    tag_175:\n        /* \"#utility.yul\":23192:23196   */\n      0x00\n        /* \"#utility.yul\":23230:23232   */\n      0x20\n        /* \"#utility.yul\":23219:23228   */\n      dup3\n        /* \"#utility.yul\":23215:23233   */\n      add\n        /* \"#utility.yul\":23207:23233   */\n      swap1\n      pop\n        /* \"#utility.yul\":23279:23288   */\n      dup2\n        /* \"#utility.yul\":23273:23277   */\n      dup2\n        /* \"#utility.yul\":23269:23289   */\n      sub\n        /* \"#utility.yul\":23265:23266   */\n      0x00\n        /* \"#utility.yul\":23254:23263   */\n      dup4\n        /* \"#utility.yul\":23250:23267   */\n      add\n        /* \"#utility.yul\":23243:23290   */\n      mstore\n        /* \"#utility.yul\":23307:23438   */\n      tag_756\n        /* \"#utility.yul\":23433:23437   */\n      dup2\n        /* \"#utility.yul\":23307:23438   */\n      tag_497\n      jump\t// in\n    tag_756:\n        /* \"#utility.yul\":23299:23438   */\n      swap1\n      pop\n        /* \"#utility.yul\":23026:23445   */\n      swap2\n      swap1\n      pop\n      jump\t// out\n        /* \"#utility.yul\":23451:23622   */\n    tag_498:\n        /* \"#utility.yul\":23591:23614   */\n      0x43616d706169676e2069732063616e63656c6c65640000000000000000000000\n        /* \"#utility.yul\":23587:23588   */\n      0x00\n        /* \"#utility.yul\":23579:23585   */\n      dup3\n        /* \"#utility.yul\":23575:23589   */\n      add\n        /* \"#utility.yul\":23568:23615   */\n      mstore\n        /* \"#utility.yul\":23451:23622   */\n      pop\n      jump\t// out\n        /* \"#utility.yul\":23628:23994   */\n    tag_499:\n        /* \"#utility.yul\":23770:23773   */\n      0x00\n        /* \"#utility.yul\":23791:23858   */\n      tag_759\n        /* \"#utility.yul\":23855:23857   */\n      0x15\n        /* \"#utility.yul\":23850:23853   */\n      dup4\n        /* \"#utility.yul\":23791:23858   */\n      tag_448\n      jump\t// in\n    tag_759:\n        /* \"#utility.yul\":23784:23858   */\n      swap2\n      pop\n        /* \"#utility.yul\":23867:23960   */\n      tag_760\n        /* \"#utility.yul\":23956:23959   */\n      dup3\n        /* \"#utility.yul\":23867:23960   */\n      tag_498\n      jump\t// in\n    tag_760:\n        /* \"#utility.yul\":23985:23987   */\n      0x20\n        /* \"#utility.yul\":23980:23983   */\n      dup3\n        /* \"#utility.yul\":23976:23988   */\n      add\n        /* \"#utility.yul\":23969:23988   */\n      swap1\n      pop\n        /* \"#utility.yul\":23628:23994   */\n      swap2\n      swap1\n      pop\n      jump\t// out\n        /* \"#utility.yul\":24000:24419   */\n    tag_179:\n        /* \"#utility.yul\":24166:24170   */\n      0x00\n        /* \"#utility.yul\":24204:24206   */\n      0x20\n        /* \"#utility.yul\":24193:24202   */\n      dup3\n        /* \"#utility.yul\":24189:24207   */\n      add\n        /* \"#utility.yul\":24181:24207   */\n      swap1\n      pop\n        /* \"#utility.yul\":24253:24262   */\n      dup2\n        /* \"#utility.yul\":24247:24251   */\n      dup2\n        /* \"#utility.yul\":24243:24263   */\n      sub\n        /* \"#utility.yul\":24239:24240   */\n      0x00\n        /* \"#utility.yul\":24228:24237   */\n      dup4\n        /* \"#utility.yul\":24224:24241   */\n      add\n        /* \"#utility.yul\":24217:24264   */\n      mstore\n        /* \"#utility.yul\":24281:24412   */\n      tag_762\n        /* \"#utility.yul\":24407:24411   */\n      dup2\n        /* \"#utility.yul\":24281:24412   */\n      tag_499\n      jump\t// in\n    tag_762:\n        /* \"#utility.yul\":24273:24412   */\n      swap1\n      pop\n        /* \"#utility.yul\":24000:24419   */\n      swap2\n      swap1\n      pop\n      jump\t// out\n        /* \"#utility.yul\":24425:24604   */\n    tag_500:\n        /* \"#utility.yul\":24565:24596   */\n      0x43616d706169676e20697320616c726561647920636f6d706c65746564000000\n        /* \"#utility.yul\":24561:24562   */\n      0x00\n        /* \"#utility.yul\":24553:24559   */\n      dup3\n        /* \"#utility.yul\":24549:24563   */\n      add\n        /* \"#utility.yul\":24542:24597   */\n      mstore\n        /* \"#utility.yul\":24425:24604   */\n      pop\n      jump\t// out\n        /* \"#utility.yul\":24610:24976   */\n    tag_501:\n        /* \"#utility.yul\":24752:24755   */\n      0x00\n        /* \"#utility.yul\":24773:24840   */\n      tag_765\n        /* \"#utility.yul\":24837:24839   */\n      0x1d\n        /* \"#utility.yul\":24832:24835   */\n      dup4\n        /* \"#utility.yul\":24773:24840   */\n      tag_448\n      jump\t// in\n    tag_765:\n        /* \"#utility.yul\":24766:24840   */\n      swap2\n      pop\n        /* \"#utility.yul\":24849:24942   */\n      tag_766\n        /* \"#utility.yul\":24938:24941   */\n      dup3\n        /* \"#utility.yul\":24849:24942   */\n      tag_500\n      jump\t// in\n    tag_766:\n        /* \"#utility.yul\":24967:24969   */\n      0x20\n        /* \"#utility.yul\":24962:24965   */\n      dup3\n        /* \"#utility.yul\":24958:24970   */\n      add\n        /* \"#utility.yul\":24951:24970   */\n      swap1\n      pop\n        /* \"#utility.yul\":24610:24976   */\n      swap2\n      swap1\n      pop\n      jump\t// out\n        /* \"#utility.yul\":24982:25401   */\n    tag_183:\n        /* \"#utility.yul\":25148:25152   */\n      0x00\n        /* \"#utility.yul\":25186:25188   */\n      0x20\n        /* \"#utility.yul\":25175:25184   */\n      dup3\n        /* \"#utility.yul\":25171:25189   */\n      add\n        /* \"#utility.yul\":25163:25189   */\n      swap1\n      pop\n        /* \"#utility.yul\":25235:25244   */\n      dup2\n        /* \"#utility.yul\":25229:25233   */\n      dup2\n        /* \"#utility.yul\":25225:25245   */\n      sub\n        /* \"#utility.yul\":25221:25222   */\n      0x00\n        /* \"#utility.yul\":25210:25219   */\n      dup4\n        /* \"#utility.yul\":25206:25223   */\n      add\n        /* \"#utility.yul\":25199:25246   */\n      mstore\n        /* \"#utility.yul\":25263:25394   */\n      tag_768\n        /* \"#utility.yul\":25389:25393   */\n      dup2\n        /* \"#utility.yul\":25263:25394   */\n      tag_501\n      jump\t// in\n    tag_768:\n        /* \"#utility.yul\":25255:25394   */\n      swap1\n      pop\n        /* \"#utility.yul\":24982:25401   */\n      swap2\n      swap1\n      pop\n      jump\t// out\n        /* \"#utility.yul\":25407:25579   */\n    tag_502:\n        /* \"#utility.yul\":25547:25571   */\n      0x436f6e7472616374206973206e6f742061637469766500000000000000000000\n        /* \"#utility.yul\":25543:25544   */\n      0x00\n        /* \"#utility.yul\":25535:25541   */\n      dup3\n        /* \"#utility.yul\":25531:25545   */\n      add\n        /* \"#utility.yul\":25524:25572   */\n      mstore\n        /* \"#utility.yul\":25407:25579   */\n      pop\n      jump\t// out\n        /* \"#utility.yul\":25585:25951   */\n    tag_503:\n        /* \"#utility.yul\":25727:25730   */\n      0x00\n        /* \"#utility.yul\":25748:25815   */\n      tag_771\n        /* \"#utility.yul\":25812:25814   */\n      0x16\n        /* \"#utility.yul\":25807:25810   */\n      dup4\n        /* \"#utility.yul\":25748:25815   */\n      tag_448\n      jump\t// in\n    tag_771:\n        /* \"#utility.yul\":25741:25815   */\n      swap2\n      pop\n        /* \"#utility.yul\":25824:25917   */\n      tag_772\n        /* \"#utility.yul\":25913:25916   */\n      dup3\n        /* \"#utility.yul\":25824:25917   */\n      tag_502\n      jump\t// in\n    tag_772:\n        /* \"#utility.yul\":25942:25944   */\n      0x20\n        /* \"#utility.yul\":25937:25940   */\n      dup3\n        /* \"#utility.yul\":25933:25945   */\n      add\n        /* \"#utility.yul\":25926:25945   */\n      swap1\n      pop\n        /* \"#utility.yul\":25585:25951   */\n      swap2\n      swap1\n      pop\n      jump\t// out\n        /* \"#utility.yul\":25957:26376   */\n    tag_187:\n        /* \"#utility.yul\":26123:26127   */\n      0x00\n        /* \"#utility.yul\":26161:26163   */\n      0x20\n        /* \"#utility.yul\":26150:26159   */\n      dup3\n        /* \"#utility.yul\":26146:26164   */\n      add\n        /* \"#utility.yul\":26138:26164   */\n      swap1\n      pop\n        /* \"#utility.yul\":26210:26219   */\n      dup2\n        /* \"#utility.yul\":26204:26208   */\n      dup2\n        /* \"#utility.yul\":26200:26220   */\n      sub\n        /* \"#utility.yul\":26196:26197   */\n      0x00\n        /* \"#utility.yul\":26185:26194   */\n      dup4\n        /* \"#utility.yul\":26181:26198   */\n      add\n        /* \"#utility.yul\":26174:26221   */\n      mstore\n        /* \"#utility.yul\":26238:26369   */\n      tag_774\n        /* \"#utility.yul\":26364:26368   */\n      dup2\n        /* \"#utility.yul\":26238:26369   */\n      tag_503\n      jump\t// in\n    tag_774:\n        /* \"#utility.yul\":26230:26369   */\n      swap1\n      pop\n        /* \"#utility.yul\":25957:26376   */\n      swap2\n      swap1\n      pop\n      jump\t// out\n        /* \"#utility.yul\":26382:26559   */\n    tag_504:\n        /* \"#utility.yul\":26522:26551   */\n      0x54686520656e7472657072656e6575722063616e27742066756e640000000000\n        /* \"#utility.yul\":26518:26519   */\n      0x00\n        /* \"#utility.yul\":26510:26516   */\n      dup3\n        /* \"#utility.yul\":26506:26520   */\n      add\n        /* \"#utility.yul\":26499:26552   */\n      mstore\n        /* \"#utility.yul\":26382:26559   */\n      pop\n      jump\t// out\n        /* \"#utility.yul\":26565:26931   */\n    tag_505:\n        /* \"#utility.yul\":26707:26710   */\n      0x00\n        /* \"#utility.yul\":26728:26795   */\n      tag_777\n        /* \"#utility.yul\":26792:26794   */\n      0x1b\n        /* \"#utility.yul\":26787:26790   */\n      dup4\n        /* \"#utility.yul\":26728:26795   */\n      tag_448\n      jump\t// in\n    tag_777:\n        /* \"#utility.yul\":26721:26795   */\n      swap2\n      pop\n        /* \"#utility.yul\":26804:26897   */\n      tag_778\n        /* \"#utility.yul\":26893:26896   */\n      dup3\n        /* \"#utility.yul\":26804:26897   */\n      tag_504\n      jump\t// in\n    tag_778:\n        /* \"#utility.yul\":26922:26924   */\n      0x20\n        /* \"#utility.yul\":26917:26920   */\n      dup3\n        /* \"#utility.yul\":26913:26925   */\n      add\n        /* \"#utility.yul\":26906:26925   */\n      swap1\n      pop\n        /* \"#utility.yul\":26565:26931   */\n      swap2\n      swap1\n      pop\n      jump\t// out\n        /* \"#utility.yul\":26937:27356   */\n    tag_191:\n        /* \"#utility.yul\":27103:27107   */\n      0x00\n        /* \"#utility.yul\":27141:27143   */\n      0x20\n        /* \"#utility.yul\":27130:27139   */\n      dup3\n        /* \"#utility.yul\":27126:27144   */\n      add\n        /* \"#utility.yul\":27118:27144   */\n      swap1\n      pop\n        /* \"#utility.yul\":27190:27199   */\n      dup2\n        /* \"#utility.yul\":27184:27188   */\n      dup2\n        /* \"#utility.yul\":27180:27200   */\n      sub\n        /* \"#utility.yul\":27176:27177   */\n      0x00\n        /* \"#utility.yul\":27165:27174   */\n      dup4\n        /* \"#utility.yul\":27161:27178   */\n      add\n        /* \"#utility.yul\":27154:27201   */\n      mstore\n        /* \"#utility.yul\":27218:27349   */\n      tag_780\n        /* \"#utility.yul\":27344:27348   */\n      dup2\n        /* \"#utility.yul\":27218:27349   */\n      tag_505\n      jump\t// in\n    tag_780:\n        /* \"#utility.yul\":27210:27349   */\n      swap1\n      pop\n        /* \"#utility.yul\":26937:27356   */\n      swap2\n      swap1\n      pop\n      jump\t// out\n        /* \"#utility.yul\":27362:27536   */\n    tag_506:\n        /* \"#utility.yul\":27502:27528   */\n      0x496e636f7272656374205765692076616c75652073656e740000000000000000\n        /* \"#utility.yul\":27498:27499   */\n      0x00\n        /* \"#utility.yul\":27490:27496   */\n      dup3\n        /* \"#utility.yul\":27486:27500   */\n      add\n        /* \"#utility.yul\":27479:27529   */\n      mstore\n        /* \"#utility.yul\":27362:27536   */\n      pop\n      jump\t// out\n        /* \"#utility.yul\":27542:27908   */\n    tag_507:\n        /* \"#utility.yul\":27684:27687   */\n      0x00\n        /* \"#utility.yul\":27705:27772   */\n      tag_783\n        /* \"#utility.yul\":27769:27771   */\n      0x18\n        /* \"#utility.yul\":27764:27767   */\n      dup4\n        /* \"#utility.yul\":27705:27772   */\n      tag_448\n      jump\t// in\n    tag_783:\n        /* \"#utility.yul\":27698:27772   */\n      swap2\n      pop\n        /* \"#utility.yul\":27781:27874   */\n      tag_784\n        /* \"#utility.yul\":27870:27873   */\n      dup3\n        /* \"#utility.yul\":27781:27874   */\n      tag_506\n      jump\t// in\n    tag_784:\n        /* \"#utility.yul\":27899:27901   */\n      0x20\n        /* \"#utility.yul\":27894:27897   */\n      dup3\n        /* \"#utility.yul\":27890:27902   */\n      add\n        /* \"#utility.yul\":27883:27902   */\n      swap1\n      pop\n        /* \"#utility.yul\":27542:27908   */\n      swap2\n      swap1\n      pop\n      jump\t// out\n        /* \"#utility.yul\":27914:28333   */\n    tag_195:\n        /* \"#utility.yul\":28080:28084   */\n      0x00\n        /* \"#utility.yul\":28118:28120   */\n      0x20\n        /* \"#utility.yul\":28107:28116   */\n      dup3\n        /* \"#utility.yul\":28103:28121   */\n      add\n        /* \"#utility.yul\":28095:28121   */\n      swap1\n      pop\n        /* \"#utility.yul\":28167:28176   */\n      dup2\n        /* \"#utility.yul\":28161:28165   */\n      dup2\n        /* \"#utility.yul\":28157:28177   */\n      sub\n        /* \"#utility.yul\":28153:28154   */\n      0x00\n        /* \"#utility.yul\":28142:28151   */\n      dup4\n        /* \"#utility.yul\":28138:28155   */\n      add\n        /* \"#utility.yul\":28131:28178   */\n      mstore\n        /* \"#utility.yul\":28195:28326   */\n      tag_786\n        /* \"#utility.yul\":28321:28325   */\n      dup2\n        /* \"#utility.yul\":28195:28326   */\n      tag_507\n      jump\t// in\n    tag_786:\n        /* \"#utility.yul\":28187:28326   */\n      swap1\n      pop\n        /* \"#utility.yul\":27914:28333   */\n      swap2\n      swap1\n      pop\n      jump\t// out\n        /* \"#utility.yul\":28339:28781   */\n    tag_200:\n        /* \"#utility.yul\":28488:28492   */\n      0x00\n        /* \"#utility.yul\":28526:28528   */\n      0x60\n        /* \"#utility.yul\":28515:28524   */\n      dup3\n        /* \"#utility.yul\":28511:28529   */\n      add\n        /* \"#utility.yul\":28503:28529   */\n      swap1\n      pop\n        /* \"#utility.yul\":28539:28610   */\n      tag_788\n        /* \"#utility.yul\":28607:28608   */\n      0x00\n        /* \"#utility.yul\":28596:28605   */\n      dup4\n        /* \"#utility.yul\":28592:28609   */\n      add\n        /* \"#utility.yul\":28583:28589   */\n      dup7\n        /* \"#utility.yul\":28539:28610   */\n      tag_443\n      jump\t// in\n    tag_788:\n        /* \"#utility.yul\":28620:28692   */\n      tag_789\n        /* \"#utility.yul\":28688:28690   */\n      0x20\n        /* \"#utility.yul\":28677:28686   */\n      dup4\n        /* \"#utility.yul\":28673:28691   */\n      add\n        /* \"#utility.yul\":28664:28670   */\n      dup6\n        /* \"#utility.yul\":28620:28692   */\n      tag_446\n      jump\t// in\n    tag_789:\n        /* \"#utility.yul\":28702:28774   */\n      tag_790\n        /* \"#utility.yul\":28770:28772   */\n      0x40\n        /* \"#utility.yul\":28759:28768   */\n      dup4\n        /* \"#utility.yul\":28755:28773   */\n      add\n        /* \"#utility.yul\":28746:28752   */\n      dup5\n        /* \"#utility.yul\":28702:28774   */\n      tag_443\n      jump\t// in\n    tag_790:\n        /* \"#utility.yul\":28339:28781   */\n      swap5\n      swap4\n      pop\n      pop\n      pop\n      pop\n      jump\t// out\n        /* \"#utility.yul\":28787:28959   */\n    tag_508:\n        /* \"#utility.yul\":28927:28951   */\n      0x496e636f72726563742063616d706169676e2066656500000000000000000000\n        /* \"#utility.yul\":28923:28924   */\n      0x00\n        /* \"#utility.yul\":28915:28921   */\n      dup3\n        /* \"#utility.yul\":28911:28925   */\n      add\n        /* \"#utility.yul\":28904:28952   */\n      mstore\n        /* \"#utility.yul\":28787:28959   */\n      pop\n      jump\t// out\n        /* \"#utility.yul\":28965:29331   */\n    tag_509:\n        /* \"#utility.yul\":29107:29110   */\n      0x00\n        /* \"#utility.yul\":29128:29195   */\n      tag_793\n        /* \"#utility.yul\":29192:29194   */\n      0x16\n        /* \"#utility.yul\":29187:29190   */\n      dup4\n        /* \"#utility.yul\":29128:29195   */\n      tag_448\n      jump\t// in\n    tag_793:\n        /* \"#utility.yul\":29121:29195   */\n      swap2\n      pop\n        /* \"#utility.yul\":29204:29297   */\n      tag_794\n        /* \"#utility.yul\":29293:29296   */\n      dup3\n        /* \"#utility.yul\":29204:29297   */\n      tag_508\n      jump\t// in\n    tag_794:\n        /* \"#utility.yul\":29322:29324   */\n      0x20\n        /* \"#utility.yul\":29317:29320   */\n      dup3\n        /* \"#utility.yul\":29313:29325   */\n      add\n        /* \"#utility.yul\":29306:29325   */\n      swap1\n      pop\n        /* \"#utility.yul\":28965:29331   */\n      swap2\n      swap1\n      pop\n      jump\t// out\n        /* \"#utility.yul\":29337:29756   */\n    tag_210:\n        /* \"#utility.yul\":29503:29507   */\n      0x00\n        /* \"#utility.yul\":29541:29543   */\n      0x20\n        /* \"#utility.yul\":29530:29539   */\n      dup3\n        /* \"#utility.yul\":29526:29544   */\n      add\n        /* \"#utility.yul\":29518:29544   */\n      swap1\n      pop\n        /* \"#utility.yul\":29590:29599   */\n      dup2\n        /* \"#utility.yul\":29584:29588   */\n      dup2\n        /* \"#utility.yul\":29580:29600   */\n      sub\n        /* \"#utility.yul\":29576:29577   */\n      0x00\n        /* \"#utility.yul\":29565:29574   */\n      dup4\n        /* \"#utility.yul\":29561:29578   */\n      add\n        /* \"#utility.yul\":29554:29601   */\n      mstore\n        /* \"#utility.yul\":29618:29749   */\n      tag_796\n        /* \"#utility.yul\":29744:29748   */\n      dup2\n        /* \"#utility.yul\":29618:29749   */\n      tag_509\n      jump\t// in\n    tag_796:\n        /* \"#utility.yul\":29610:29749   */\n      swap1\n      pop\n        /* \"#utility.yul\":29337:29756   */\n      swap2\n      swap1\n      pop\n      jump\t// out\n        /* \"#utility.yul\":29762:29987   */\n    tag_510:\n        /* \"#utility.yul\":29902:29936   */\n      0x546f74616c20736861726573206d757374206265206772656174657220746861\n        /* \"#utility.yul\":29898:29899   */\n      0x00\n        /* \"#utility.yul\":29890:29896   */\n      dup3\n        /* \"#utility.yul\":29886:29900   */\n      add\n        /* \"#utility.yul\":29879:29937   */\n      mstore\n        /* \"#utility.yul\":29971:29979   */\n      0x6e207a65726f0000000000000000000000000000000000000000000000000000\n        /* \"#utility.yul\":29966:29968   */\n      0x20\n        /* \"#utility.yul\":29958:29964   */\n      dup3\n        /* \"#utility.yul\":29954:29969   */\n      add\n        /* \"#utility.yul\":29947:29980   */\n      mstore\n        /* \"#utility.yul\":29762:29987   */\n      pop\n      jump\t// out\n        /* \"#utility.yul\":29993:30359   */\n    tag_511:\n        /* \"#utility.yul\":30135:30138   */\n      0x00\n        /* \"#utility.yul\":30156:30223   */\n      tag_799\n        /* \"#utility.yul\":30220:30222   */\n      0x26\n        /* \"#utility.yul\":30215:30218   */\n      dup4\n        /* \"#utility.yul\":30156:30223   */\n      tag_448\n      jump\t// in\n    tag_799:\n        /* \"#utility.yul\":30149:30223   */\n      swap2\n      pop\n        /* \"#utility.yul\":30232:30325   */\n      tag_800\n        /* \"#utility.yul\":30321:30324   */\n      dup3\n        /* \"#utility.yul\":30232:30325   */\n      tag_510\n      jump\t// in\n    tag_800:\n        /* \"#utility.yul\":30350:30352   */\n      0x40\n        /* \"#utility.yul\":30345:30348   */\n      dup3\n        /* \"#utility.yul\":30341:30353   */\n      add\n        /* \"#utility.yul\":30334:30353   */\n      swap1\n      pop\n        /* \"#utility.yul\":29993:30359   */\n      swap2\n      swap1\n      pop\n      jump\t// out\n        /* \"#utility.yul\":30365:30784   */\n    tag_214:\n        /* \"#utility.yul\":30531:30535   */\n      0x00\n        /* \"#utility.yul\":30569:30571   */\n      0x20\n        /* \"#utility.yul\":30558:30567   */\n      dup3\n        /* \"#utility.yul\":30554:30572   */\n      add\n        /* \"#utility.yul\":30546:30572   */\n      swap1\n      pop\n        /* \"#utility.yul\":30618:30627   */\n      dup2\n        /* \"#utility.yul\":30612:30616   */\n      dup2\n        /* \"#utility.yul\":30608:30628   */\n      sub\n        /* \"#utility.yul\":30604:30605   */\n      0x00\n        /* \"#utility.yul\":30593:30602   */\n      dup4\n        /* \"#utility.yul\":30589:30606   */\n      add\n        /* \"#utility.yul\":30582:30629   */\n      mstore\n        /* \"#utility.yul\":30646:30777   */\n      tag_802\n        /* \"#utility.yul\":30772:30776   */\n      dup2\n        /* \"#utility.yul\":30646:30777   */\n      tag_511\n      jump\t// in\n    tag_802:\n        /* \"#utility.yul\":30638:30777   */\n      swap1\n      pop\n        /* \"#utility.yul\":30365:30784   */\n      swap2\n      swap1\n      pop\n      jump\t// out\n        /* \"#utility.yul\":30790:30931   */\n    tag_512:\n        /* \"#utility.yul\":30839:30843   */\n      0x00\n        /* \"#utility.yul\":30862:30865   */\n      dup2\n        /* \"#utility.yul\":30854:30865   */\n      swap1\n      pop\n        /* \"#utility.yul\":30885:30888   */\n      dup2\n        /* \"#utility.yul\":30882:30883   */\n      0x00\n        /* \"#utility.yul\":30875:30889   */\n      mstore\n        /* \"#utility.yul\":30919:30923   */\n      0x20\n        /* \"#utility.yul\":30916:30917   */\n      0x00\n        /* \"#utility.yul\":30906:30924   */\n      keccak256\n        /* \"#utility.yul\":30898:30924   */\n      swap1\n      pop\n        /* \"#utility.yul\":30790:30931   */\n      swap2\n      swap1\n      pop\n      jump\t// out\n        /* \"#utility.yul\":30937:31030   */\n    tag_513:\n        /* \"#utility.yul\":30974:30980   */\n      0x00\n        /* \"#utility.yul\":31021:31023   */\n      0x20\n        /* \"#utility.yul\":31016:31018   */\n      0x1f\n        /* \"#utility.yul\":31009:31014   */\n      dup4\n        /* \"#utility.yul\":31005:31019   */\n      add\n        /* \"#utility.yul\":31001:31024   */\n      div\n        /* \"#utility.yul\":30991:31024   */\n      swap1\n      pop\n        /* \"#utility.yul\":30937:31030   */\n      swap2\n      swap1\n      pop\n      jump\t// out\n        /* \"#utility.yul\":31036:31143   */\n    tag_514:\n        /* \"#utility.yul\":31080:31088   */\n      0x00\n        /* \"#utility.yul\":31130:31135   */\n      dup3\n        /* \"#utility.yul\":31124:31128   */\n      dup3\n        /* \"#utility.yul\":31120:31136   */\n      shl\n        /* \"#utility.yul\":31099:31136   */\n      swap1\n      pop\n        /* \"#utility.yul\":31036:31143   */\n      swap3\n      swap2\n      pop\n      pop\n      jump\t// out\n        /* \"#utility.yul\":31149:31542   */\n    tag_515:\n        /* \"#utility.yul\":31218:31224   */\n      0x00\n        /* \"#utility.yul\":31268:31269   */\n      0x08\n        /* \"#utility.yul\":31256:31266   */\n      dup4\n        /* \"#utility.yul\":31252:31270   */\n      mul\n        /* \"#utility.yul\":31291:31388   */\n      tag_807\n        /* \"#utility.yul\":31321:31387   */\n      0xffffffffffffffffffffffffffffffffffffffffffffffffffffffffffffffff\n        /* \"#utility.yul\":31310:31319   */\n      dup3\n        /* \"#utility.yul\":31291:31388   */\n      tag_514\n      jump\t// in\n    tag_807:\n        /* \"#utility.yul\":31409:31448   */\n      tag_808\n        /* \"#utility.yul\":31439:31447   */\n      dup7\n        /* \"#utility.yul\":31428:31437   */\n      dup4\n        /* \"#utility.yul\":31409:31448   */\n      tag_514\n      jump\t// in\n    tag_808:\n        /* \"#utility.yul\":31397:31448   */\n      swap6\n      pop\n        /* \"#utility.yul\":31481:31485   */\n      dup1\n        /* \"#utility.yul\":31477:31486   */\n      not\n        /* \"#utility.yul\":31470:31475   */\n      dup5\n        /* \"#utility.yul\":31466:31487   */\n      and\n        /* \"#utility.yul\":31457:31487   */\n      swap4\n      pop\n        /* \"#utility.yul\":31530:31534   */\n      dup1\n        /* \"#utility.yul\":31520:31528   */\n      dup7\n        /* \"#utility.yul\":31516:31535   */\n      and\n        /* \"#utility.yul\":31509:31514   */\n      dup5\n        /* \"#utility.yul\":31506:31536   */\n      or\n        /* \"#utility.yul\":31496:31536   */\n      swap3\n      pop\n        /* \"#utility.yul\":31225:31542   */\n      pop\n      pop\n        /* \"#utility.yul\":31149:31542   */\n      swap4\n      swap3\n      pop\n      pop\n      pop\n      jump\t// out\n        /* \"#utility.yul\":31548:31608   */\n    tag_516:\n        /* \"#utility.yul\":31576:31579   */\n      0x00\n        /* \"#utility.yul\":31597:31602   */\n      dup2\n        /* \"#utility.yul\":31590:31602   */\n      swap1\n      pop\n        /* \"#utility.yul\":31548:31608   */\n      swap2\n      swap1\n      pop\n      jump\t// out\n        /* \"#utility.yul\":31614:31756   */\n    tag_517:\n        /* \"#utility.yul\":31664:31673   */\n      0x00\n        /* \"#utility.yul\":31697:31750   */\n      tag_811\n        /* \"#utility.yul\":31715:31749   */\n      tag_812\n        /* \"#utility.yul\":31724:31748   */\n      tag_813\n        /* \"#utility.yul\":31742:31747   */\n      dup5\n        /* \"#utility.yul\":31724:31748   */\n      tag_440\n      jump\t// in\n    tag_813:\n        /* \"#utility.yul\":31715:31749   */\n      tag_516\n      jump\t// in\n    tag_812:\n        /* \"#utility.yul\":31697:31750   */\n      tag_440\n      jump\t// in\n    tag_811:\n        /* \"#utility.yul\":31684:31750   */\n      swap1\n      pop\n        /* \"#utility.yul\":31614:31756   */\n      swap2\n      swap1\n      pop\n      jump\t// out\n        /* \"#utility.yul\":31762:31837   */\n    tag_518:\n        /* \"#utility.yul\":31805:31808   */\n      0x00\n        /* \"#utility.yul\":31826:31831   */\n      dup2\n        /* \"#utility.yul\":31819:31831   */\n      swap1\n      pop\n        /* \"#utility.yul\":31762:31837   */\n      swap2\n      swap1\n      pop\n      jump\t// out\n        /* \"#utility.yul\":31843:32112   */\n    tag_519:\n        /* \"#utility.yul\":31953:31992   */\n      tag_816\n        /* \"#utility.yul\":31984:31991   */\n      dup4\n        /* \"#utility.yul\":31953:31992   */\n      tag_517\n      jump\t// in\n    tag_816:\n        /* \"#utility.yul\":32014:32105   */\n      tag_817\n        /* \"#utility.yul\":32063:32104   */\n      tag_818\n        /* \"#utility.yul\":32087:32103   */\n      dup3\n        /* \"#utility.yul\":32063:32104   */\n      tag_518\n      jump\t// in\n    tag_818:\n        /* \"#utility.yul\":32055:32061   */\n      dup5\n        /* \"#utility.yul\":32048:32052   */\n      dup5\n        /* \"#utility.yul\":32042:32053   */\n      sload\n        /* \"#utility.yul\":32014:32105   */\n      tag_515\n      jump\t// in\n    tag_817:\n        /* \"#utility.yul\":32008:32012   */\n      dup3\n        /* \"#utility.yul\":32001:32106   */\n      sstore\n        /* \"#utility.yul\":31919:32112   */\n      pop\n        /* \"#utility.yul\":31843:32112   */\n      pop\n      pop\n      pop\n      jump\t// out\n        /* \"#utility.yul\":32118:32191   */\n    tag_520:\n        /* \"#utility.yul\":32163:32166   */\n      0x00\n        /* \"#utility.yul\":32118:32191   */\n      swap1\n      jump\t// out\n        /* \"#utility.yul\":32197:32386   */\n    tag_521:\n        /* \"#utility.yul\":32274:32306   */\n      tag_821\n      tag_520\n      jump\t// in\n    tag_821:\n        /* \"#utility.yul\":32315:32380   */\n      tag_822\n        /* \"#utility.yul\":32373:32379   */\n      dup2\n        /* \"#utility.yul\":32365:32371   */\n      dup5\n        /* \"#utility.yul\":32359:32363   */\n      dup5\n        /* \"#utility.yul\":32315:32380   */\n      tag_519\n      jump\t// in\n    tag_822:\n        /* \"#utility.yul\":32250:32386   */\n      pop\n        /* \"#utility.yul\":32197:32386   */\n      pop\n      pop\n      jump\t// out\n        /* \"#utility.yul\":32392:32578   */\n    tag_522:\n        /* \"#utility.yul\":32452:32572   */\n    tag_824:\n        /* \"#utility.yul\":32469:32472   */\n      dup2\n        /* \"#utility.yul\":32462:32467   */\n      dup2\n        /* \"#utility.yul\":32459:32473   */\n      lt\n        /* \"#utility.yul\":32452:32572   */\n      iszero\n      tag_826\n      jumpi\n        /* \"#utility.yul\":32523:32562   */\n      tag_827\n        /* \"#utility.yul\":32560:32561   */\n      0x00\n        /* \"#utility.yul\":32553:32558   */\n      dup3\n        /* \"#utility.yul\":32523:32562   */\n      tag_521\n      jump\t// in\n    tag_827:\n        /* \"#utility.yul\":32496:32497   */\n      0x01\n        /* \"#utility.yul\":32489:32494   */\n      dup2\n        /* \"#utility.yul\":32485:32498   */\n      add\n        /* \"#utility.yul\":32476:32498   */\n      swap1\n      pop\n        /* \"#utility.yul\":32452:32572   */\n      jump(tag_824)\n    tag_826:\n        /* \"#utility.yul\":32392:32578   */\n      pop\n      pop\n      jump\t// out\n        /* \"#utility.yul\":32584:33127   */\n    tag_523:\n        /* \"#utility.yul\":32685:32687   */\n      0x1f\n        /* \"#utility.yul\":32680:32683   */\n      dup3\n        /* \"#utility.yul\":32677:32688   */\n      gt\n        /* \"#utility.yul\":32674:33120   */\n      iszero\n      tag_829\n      jumpi\n        /* \"#utility.yul\":32719:32757   */\n      tag_830\n        /* \"#utility.yul\":32751:32756   */\n      dup2\n        /* \"#utility.yul\":32719:32757   */\n      tag_512\n      jump\t// in\n    tag_830:\n        /* \"#utility.yul\":32803:32832   */\n      tag_831\n        /* \"#utility.yul\":32821:32831   */\n      dup5\n        /* \"#utility.yul\":32803:32832   */\n      tag_513\n      jump\t// in\n    tag_831:\n        /* \"#utility.yul\":32793:32801   */\n      dup2\n        /* \"#utility.yul\":32789:32833   */\n      add\n        /* \"#utility.yul\":32986:32988   */\n      0x20\n        /* \"#utility.yul\":32974:32984   */\n      dup6\n        /* \"#utility.yul\":32971:32989   */\n      lt\n        /* \"#utility.yul\":32968:33017   */\n      iszero\n      tag_832\n      jumpi\n        /* \"#utility.yul\":33007:33015   */\n      dup2\n        /* \"#utility.yul\":32992:33015   */\n      swap1\n      pop\n        /* \"#utility.yul\":32968:33017   */\n    tag_832:\n        /* \"#utility.yul\":33030:33110   */\n      tag_833\n        /* \"#utility.yul\":33086:33108   */\n      tag_834\n        /* \"#utility.yul\":33104:33107   */\n      dup6\n        /* \"#utility.yul\":33086:33108   */\n      tag_513\n      jump\t// in\n    tag_834:\n        /* \"#utility.yul\":33076:33084   */\n      dup4\n        /* \"#utility.yul\":33072:33109   */\n      add\n        /* \"#utility.yul\":33059:33070   */\n      dup3\n        /* \"#utility.yul\":33030:33110   */\n      tag_522\n      jump\t// in\n    tag_833:\n        /* \"#utility.yul\":32689:33120   */\n      pop\n      pop\n        /* \"#utility.yul\":32674:33120   */\n    tag_829:\n        /* \"#utility.yul\":32584:33127   */\n      pop\n      pop\n      pop\n      jump\t// out\n        /* \"#utility.yul\":33133:33250   */\n    tag_524:\n        /* \"#utility.yul\":33187:33195   */\n      0x00\n        /* \"#utility.yul\":33237:33242   */\n      dup3\n        /* \"#utility.yul\":33231:33235   */\n      dup3\n        /* \"#utility.yul\":33227:33243   */\n      shr\n        /* \"#utility.yul\":33206:33243   */\n      swap1\n      pop\n        /* \"#utility.yul\":33133:33250   */\n      swap3\n      swap2\n      pop\n      pop\n      jump\t// out\n        /* \"#utility.yul\":33256:33425   */\n    tag_525:\n        /* \"#utility.yul\":33300:33306   */\n      0x00\n        /* \"#utility.yul\":33333:33384   */\n      tag_837\n        /* \"#utility.yul\":33381:33382   */\n      0x00\n        /* \"#utility.yul\":33377:33383   */\n      not\n        /* \"#utility.yul\":33369:33374   */\n      dup5\n        /* \"#utility.yul\":33366:33367   */\n      0x08\n        /* \"#utility.yul\":33362:33375   */\n      mul\n        /* \"#utility.yul\":33333:33384   */\n      tag_524\n      jump\t// in\n    tag_837:\n        /* \"#utility.yul\":33329:33385   */\n      not\n        /* \"#utility.yul\":33414:33418   */\n      dup1\n        /* \"#utility.yul\":33408:33412   */\n      dup4\n        /* \"#utility.yul\":33404:33419   */\n      and\n        /* \"#utility.yul\":33394:33419   */\n      swap2\n      pop\n        /* \"#utility.yul\":33307:33425   */\n      pop\n        /* \"#utility.yul\":33256:33425   */\n      swap3\n      swap2\n      pop\n      pop\n      jump\t// out\n        /* \"#utility.yul\":33430:33725   */\n    tag_526:\n        /* \"#utility.yul\":33506:33510   */\n      0x00\n        /* \"#utility.yul\":33652:33681   */\n      tag_839\n        /* \"#utility.yul\":33677:33680   */\n      dup4\n        /* \"#utility.yul\":33671:33675   */\n      dup4\n        /* \"#utility.yul\":33652:33681   */\n      tag_525\n      jump\t// in\n    tag_839:\n        /* \"#utility.yul\":33644:33681   */\n      swap2\n      pop\n        /* \"#utility.yul\":33714:33717   */\n      dup3\n        /* \"#utility.yul\":33711:33712   */\n      0x02\n        /* \"#utility.yul\":33707:33718   */\n      mul\n        /* \"#utility.yul\":33701:33705   */\n      dup3\n        /* \"#utility.yul\":33698:33719   */\n      or\n        /* \"#utility.yul\":33690:33719   */\n      swap1\n      pop\n        /* \"#utility.yul\":33430:33725   */\n      swap3\n      swap2\n      pop\n      pop\n      jump\t// out\n        /* \"#utility.yul\":33730:35125   */\n    tag_220:\n        /* \"#utility.yul\":33847:33884   */\n      tag_841\n        /* \"#utility.yul\":33880:33883   */\n      dup3\n        /* \"#utility.yul\":33847:33884   */\n      tag_447\n      jump\t// in\n    tag_841:\n        /* \"#utility.yul\":33949:33967   */\n      0xffffffffffffffff\n        /* \"#utility.yul\":33941:33947   */\n      dup2\n        /* \"#utility.yul\":33938:33968   */\n      gt\n        /* \"#utility.yul\":33935:33991   */\n      iszero\n      tag_842\n      jumpi\n        /* \"#utility.yul\":33971:33989   */\n      tag_843\n      tag_235\n      jump\t// in\n    tag_843:\n        /* \"#utility.yul\":33935:33991   */\n    tag_842:\n        /* \"#utility.yul\":34015:34053   */\n      tag_844\n        /* \"#utility.yul\":34047:34051   */\n      dup3\n        /* \"#utility.yul\":34041:34052   */\n      sload\n        /* \"#utility.yul\":34015:34053   */\n      tag_159\n      jump\t// in\n    tag_844:\n        /* \"#utility.yul\":34100:34167   */\n      tag_845\n        /* \"#utility.yul\":34160:34166   */\n      dup3\n        /* \"#utility.yul\":34152:34158   */\n      dup3\n        /* \"#utility.yul\":34146:34150   */\n      dup6\n        /* \"#utility.yul\":34100:34167   */\n      tag_523\n      jump\t// in\n    tag_845:\n        /* \"#utility.yul\":34194:34195   */\n      0x00\n        /* \"#utility.yul\":34218:34222   */\n      0x20\n        /* \"#utility.yul\":34205:34222   */\n      swap1\n      pop\n        /* \"#utility.yul\":34250:34252   */\n      0x1f\n        /* \"#utility.yul\":34242:34248   */\n      dup4\n        /* \"#utility.yul\":34239:34253   */\n      gt\n        /* \"#utility.yul\":34267:34268   */\n      0x01\n        /* \"#utility.yul\":34262:34880   */\n      dup2\n      eq\n      tag_847\n      jumpi\n        /* \"#utility.yul\":34924:34925   */\n      0x00\n        /* \"#utility.yul\":34941:34947   */\n      dup5\n        /* \"#utility.yul\":34938:35015   */\n      iszero\n      tag_848\n      jumpi\n        /* \"#utility.yul\":34990:34999   */\n      dup3\n        /* \"#utility.yul\":34985:34988   */\n      dup8\n        /* \"#utility.yul\":34981:35000   */\n      add\n        /* \"#utility.yul\":34975:35001   */\n      mload\n        /* \"#utility.yul\":34966:35001   */\n      swap1\n      pop\n        /* \"#utility.yul\":34938:35015   */\n    tag_848:\n        /* \"#utility.yul\":35041:35108   */\n      tag_849\n        /* \"#utility.yul\":35101:35107   */\n      dup6\n        /* \"#utility.yul\":35094:35099   */\n      dup3\n        /* \"#utility.yul\":35041:35108   */\n      tag_526\n      jump\t// in\n    tag_849:\n        /* \"#utility.yul\":35035:35039   */\n      dup7\n        /* \"#utility.yul\":35028:35109   */\n      sstore\n        /* \"#utility.yul\":34897:35119   */\n      pop\n        /* \"#utility.yul\":34232:35119   */\n      jump(tag_846)\n        /* \"#utility.yul\":34262:34880   */\n    tag_847:\n        /* \"#utility.yul\":34314:34318   */\n      0x1f\n        /* \"#utility.yul\":34310:34319   */\n      not\n        /* \"#utility.yul\":34302:34308   */\n      dup5\n        /* \"#utility.yul\":34298:34320   */\n      and\n        /* \"#utility.yul\":34348:34385   */\n      tag_850\n        /* \"#utility.yul\":34380:34384   */\n      dup7\n        /* \"#utility.yul\":34348:34385   */\n      tag_512\n      jump\t// in\n    tag_850:\n        /* \"#utility.yul\":34407:34408   */\n      0x00\n        /* \"#utility.yul\":34421:34629   */\n    tag_851:\n        /* \"#utility.yul\":34435:34442   */\n      dup3\n        /* \"#utility.yul\":34432:34433   */\n      dup2\n        /* \"#utility.yul\":34429:34443   */\n      lt\n        /* \"#utility.yul\":34421:34629   */\n      iszero\n      tag_853\n      jumpi\n        /* \"#utility.yul\":34514:34523   */\n      dup5\n        /* \"#utility.yul\":34509:34512   */\n      dup10\n        /* \"#utility.yul\":34505:34524   */\n      add\n        /* \"#utility.yul\":34499:34525   */\n      mload\n        /* \"#utility.yul\":34491:34497   */\n      dup3\n        /* \"#utility.yul\":34484:34526   */\n      sstore\n        /* \"#utility.yul\":34565:34566   */\n      0x01\n        /* \"#utility.yul\":34557:34563   */\n      dup3\n        /* \"#utility.yul\":34553:34567   */\n      add\n        /* \"#utility.yul\":34543:34567   */\n      swap2\n      pop\n        /* \"#utility.yul\":34612:34614   */\n      0x20\n        /* \"#utility.yul\":34601:34610   */\n      dup6\n        /* \"#utility.yul\":34597:34615   */\n      add\n        /* \"#utility.yul\":34584:34615   */\n      swap5\n      pop\n        /* \"#utility.yul\":34458:34462   */\n      0x20\n        /* \"#utility.yul\":34455:34456   */\n      dup2\n        /* \"#utility.yul\":34451:34463   */\n      add\n        /* \"#utility.yul\":34446:34463   */\n      swap1\n      pop\n        /* \"#utility.yul\":34421:34629   */\n      jump(tag_851)\n    tag_853:\n        /* \"#utility.yul\":34657:34663   */\n      dup7\n        /* \"#utility.yul\":34648:34655   */\n      dup4\n        /* \"#utility.yul\":34645:34664   */\n      lt\n        /* \"#utility.yul\":34642:34821   */\n      iszero\n      tag_854\n      jumpi\n        /* \"#utility.yul\":34715:34724   */\n      dup5\n        /* \"#utility.yul\":34710:34713   */\n      dup10\n        /* \"#utility.yul\":34706:34725   */\n      add\n        /* \"#utility.yul\":34700:34726   */\n      mload\n        /* \"#utility.yul\":34758:34806   */\n      tag_855\n        /* \"#utility.yul\":34800:34804   */\n      0x1f\n        /* \"#utility.yul\":34792:34798   */\n      dup10\n        /* \"#utility.yul\":34788:34805   */\n      and\n        /* \"#utility.yul\":34777:34786   */\n      dup3\n        /* \"#utility.yul\":34758:34806   */\n      tag_525\n      jump\t// in\n    tag_855:\n        /* \"#utility.yul\":34750:34756   */\n      dup4\n        /* \"#utility.yul\":34743:34807   */\n      sstore\n        /* \"#utility.yul\":34665:34821   */\n      pop\n        /* \"#utility.yul\":34642:34821   */\n    tag_854:\n        /* \"#utility.yul\":34867:34868   */\n      0x01\n        /* \"#utility.yul\":34863:34864   */\n      0x02\n        /* \"#utility.yul\":34855:34861   */\n      dup9\n        /* \"#utility.yul\":34851:34865   */\n      mul\n        /* \"#utility.yul\":34847:34869   */\n      add\n        /* \"#utility.yul\":34841:34845   */\n      dup9\n        /* \"#utility.yul\":34834:34870   */\n      sstore\n        /* \"#utility.yul\":34269:34880   */\n      pop\n      pop\n      pop\n        /* \"#utility.yul\":34232:35119   */\n    tag_846:\n      pop\n        /* \"#utility.yul\":33822:35125   */\n      pop\n      pop\n      pop\n        /* \"#utility.yul\":33730:35125   */\n      pop\n      pop\n      jump\t// out\n        /* \"#utility.yul\":35131:35364   */\n    tag_222:\n        /* \"#utility.yul\":35170:35173   */\n      0x00\n        /* \"#utility.yul\":35193:35217   */\n      tag_857\n        /* \"#utility.yul\":35211:35216   */\n      dup3\n        /* \"#utility.yul\":35193:35217   */\n      tag_440\n      jump\t// in\n    tag_857:\n        /* \"#utility.yul\":35184:35217   */\n      swap2\n      pop\n        /* \"#utility.yul\":35239:35305   */\n      0xffffffffffffffffffffffffffffffffffffffffffffffffffffffffffffffff\n        /* \"#utility.yul\":35232:35237   */\n      dup3\n        /* \"#utility.yul\":35229:35306   */\n      sub\n        /* \"#utility.yul\":35226:35329   */\n      tag_858\n      jumpi\n        /* \"#utility.yul\":35309:35327   */\n      tag_859\n      tag_490\n      jump\t// in\n    tag_859:\n        /* \"#utility.yul\":35226:35329   */\n    tag_858:\n        /* \"#utility.yul\":35356:35357   */\n      0x01\n        /* \"#utility.yul\":35349:35354   */\n      dup3\n        /* \"#utility.yul\":35345:35358   */\n      add\n        /* \"#utility.yul\":35338:35358   */\n      swap1\n      pop\n        /* \"#utility.yul\":35131:35364   */\n      swap2\n      swap1\n      pop\n      jump\t// out\n        /* \"#utility.yul\":35370:35903   */\n    tag_225:\n        /* \"#utility.yul\":35539:35543   */\n      0x00\n        /* \"#utility.yul\":35577:35579   */\n      0x60\n        /* \"#utility.yul\":35566:35575   */\n      dup3\n        /* \"#utility.yul\":35562:35580   */\n      add\n        /* \"#utility.yul\":35554:35580   */\n      swap1\n      pop\n        /* \"#utility.yul\":35590:35661   */\n      tag_861\n        /* \"#utility.yul\":35658:35659   */\n      0x00\n        /* \"#utility.yul\":35647:35656   */\n      dup4\n        /* \"#utility.yul\":35643:35660   */\n      add\n        /* \"#utility.yul\":35634:35640   */\n      dup7\n        /* \"#utility.yul\":35590:35661   */\n      tag_443\n      jump\t// in\n    tag_861:\n        /* \"#utility.yul\":35671:35743   */\n      tag_862\n        /* \"#utility.yul\":35739:35741   */\n      0x20\n        /* \"#utility.yul\":35728:35737   */\n      dup4\n        /* \"#utility.yul\":35724:35742   */\n      add\n        /* \"#utility.yul\":35715:35721   */\n      dup6\n        /* \"#utility.yul\":35671:35743   */\n      tag_446\n      jump\t// in\n    tag_862:\n        /* \"#utility.yul\":35790:35799   */\n      dup2\n        /* \"#utility.yul\":35784:35788   */\n      dup2\n        /* \"#utility.yul\":35780:35800   */\n      sub\n        /* \"#utility.yul\":35775:35777   */\n      0x40\n        /* \"#utility.yul\":35764:35773   */\n      dup4\n        /* \"#utility.yul\":35760:35778   */\n      add\n        /* \"#utility.yul\":35753:35801   */\n      mstore\n        /* \"#utility.yul\":35818:35896   */\n      tag_863\n        /* \"#utility.yul\":35891:35895   */\n      dup2\n        /* \"#utility.yul\":35882:35888   */\n      dup5\n        /* \"#utility.yul\":35818:35896   */\n      tag_451\n      jump\t// in\n    tag_863:\n        /* \"#utility.yul\":35810:35896   */\n      swap1\n      pop\n        /* \"#utility.yul\":35370:35903   */\n      swap5\n      swap4\n      pop\n      pop\n      pop\n      pop\n      jump\t// out\n        /* \"#utility.yul\":35909:36103   */\n    tag_251:\n        /* \"#utility.yul\":35949:35953   */\n      0x00\n        /* \"#utility.yul\":35969:35989   */\n      tag_865\n        /* \"#utility.yul\":35987:35988   */\n      dup3\n        /* \"#utility.yul\":35969:35989   */\n      tag_440\n      jump\t// in\n    tag_865:\n        /* \"#utility.yul\":35964:35989   */\n      swap2\n      pop\n        /* \"#utility.yul\":36003:36023   */\n      tag_866\n        /* \"#utility.yul\":36021:36022   */\n      dup4\n        /* \"#utility.yul\":36003:36023   */\n      tag_440\n      jump\t// in\n    tag_866:\n        /* \"#utility.yul\":35998:36023   */\n      swap3\n      pop\n        /* \"#utility.yul\":36047:36048   */\n      dup3\n        /* \"#utility.yul\":36044:36045   */\n      dup3\n        /* \"#utility.yul\":36040:36049   */\n      sub\n        /* \"#utility.yul\":36032:36049   */\n      swap1\n      pop\n        /* \"#utility.yul\":36071:36072   */\n      dup2\n        /* \"#utility.yul\":36065:36069   */\n      dup2\n        /* \"#utility.yul\":36062:36073   */\n      gt\n        /* \"#utility.yul\":36059:36096   */\n      iszero\n      tag_867\n      jumpi\n        /* \"#utility.yul\":36076:36094   */\n      tag_868\n      tag_490\n      jump\t// in\n    tag_868:\n        /* \"#utility.yul\":36059:36096   */\n    tag_867:\n        /* \"#utility.yul\":35909:36103   */\n      swap3\n      swap2\n      pop\n      pop\n      jump\t// out\n        /* \"#utility.yul\":36109:36351   */\n    tag_527:\n        /* \"#utility.yul\":36249:36283   */\n      0x4f6e6c792074686520656e7472657072656e657572206f72206f776e65722063\n        /* \"#utility.yul\":36245:36246   */\n      0x00\n        /* \"#utility.yul\":36237:36243   */\n      dup3\n        /* \"#utility.yul\":36233:36247   */\n      add\n        /* \"#utility.yul\":36226:36284   */\n      mstore\n        /* \"#utility.yul\":36318:36343   */\n      0x616e2063616e63656c20746869732063616d706169676e000000000000000000\n        /* \"#utility.yul\":36313:36315   */\n      0x20\n        /* \"#utility.yul\":36305:36311   */\n      dup3\n        /* \"#utility.yul\":36301:36316   */\n      add\n        /* \"#utility.yul\":36294:36344   */\n      mstore\n        /* \"#utility.yul\":36109:36351   */\n      pop\n      jump\t// out\n        /* \"#utility.yul\":36357:36723   */\n    tag_528:\n        /* \"#utility.yul\":36499:36502   */\n      0x00\n        /* \"#utility.yul\":36520:36587   */\n      tag_871\n        /* \"#utility.yul\":36584:36586   */\n      0x37\n        /* \"#utility.yul\":36579:36582   */\n      dup4\n        /* \"#utility.yul\":36520:36587   */\n      tag_448\n      jump\t// in\n    tag_871:\n        /* \"#utility.yul\":36513:36587   */\n      swap2\n      pop\n        /* \"#utility.yul\":36596:36689   */\n      tag_872\n        /* \"#utility.yul\":36685:36688   */\n      dup3\n        /* \"#utility.yul\":36596:36689   */\n      tag_527\n      jump\t// in\n    tag_872:\n        /* \"#utility.yul\":36714:36716   */\n      0x40\n        /* \"#utility.yul\":36709:36712   */\n      dup3\n        /* \"#utility.yul\":36705:36717   */\n      add\n        /* \"#utility.yul\":36698:36717   */\n      swap1\n      pop\n        /* \"#utility.yul\":36357:36723   */\n      swap2\n      swap1\n      pop\n      jump\t// out\n        /* \"#utility.yul\":36729:37148   */\n    tag_268:\n        /* \"#utility.yul\":36895:36899   */\n      0x00\n        /* \"#utility.yul\":36933:36935   */\n      0x20\n        /* \"#utility.yul\":36922:36931   */\n      dup3\n        /* \"#utility.yul\":36918:36936   */\n      add\n        /* \"#utility.yul\":36910:36936   */\n      swap1\n      pop\n        /* \"#utility.yul\":36982:36991   */\n      dup2\n        /* \"#utility.yul\":36976:36980   */\n      dup2\n        /* \"#utility.yul\":36972:36992   */\n      sub\n        /* \"#utility.yul\":36968:36969   */\n      0x00\n        /* \"#utility.yul\":36957:36966   */\n      dup4\n        /* \"#utility.yul\":36953:36970   */\n      add\n        /* \"#utility.yul\":36946:36993   */\n      mstore\n        /* \"#utility.yul\":37010:37141   */\n      tag_874\n        /* \"#utility.yul\":37136:37140   */\n      dup2\n        /* \"#utility.yul\":37010:37141   */\n      tag_528\n      jump\t// in\n    tag_874:\n        /* \"#utility.yul\":37002:37141   */\n      swap1\n      pop\n        /* \"#utility.yul\":36729:37148   */\n      swap2\n      swap1\n      pop\n      jump\t// out\n        /* \"#utility.yul\":37178:38009   */\n    tag_529:\n        /* \"#utility.yul\":37263:37266   */\n      0x00\n        /* \"#utility.yul\":37300:37305   */\n      dup2\n        /* \"#utility.yul\":37294:37306   */\n      sload\n        /* \"#utility.yul\":37329:37365   */\n      tag_876\n        /* \"#utility.yul\":37355:37364   */\n      dup2\n        /* \"#utility.yul\":37329:37365   */\n      tag_159\n      jump\t// in\n    tag_876:\n        /* \"#utility.yul\":37381:37452   */\n      tag_877\n        /* \"#utility.yul\":37445:37451   */\n      dup2\n        /* \"#utility.yul\":37440:37443   */\n      dup7\n        /* \"#utility.yul\":37381:37452   */\n      tag_448\n      jump\t// in\n    tag_877:\n        /* \"#utility.yul\":37374:37452   */\n      swap5\n      pop\n        /* \"#utility.yul\":37483:37484   */\n      0x01\n        /* \"#utility.yul\":37472:37481   */\n      dup3\n        /* \"#utility.yul\":37468:37485   */\n      and\n        /* \"#utility.yul\":37499:37500   */\n      0x00\n        /* \"#utility.yul\":37494:37658   */\n      dup2\n      eq\n      tag_879\n      jumpi\n        /* \"#utility.yul\":37672:37673   */\n      0x01\n        /* \"#utility.yul\":37667:38003   */\n      dup2\n      eq\n      tag_880\n      jumpi\n        /* \"#utility.yul\":37461:38003   */\n      jump(tag_878)\n        /* \"#utility.yul\":37494:37658   */\n    tag_879:\n        /* \"#utility.yul\":37578:37582   */\n      0xff\n        /* \"#utility.yul\":37574:37583   */\n      not\n        /* \"#utility.yul\":37563:37572   */\n      dup4\n        /* \"#utility.yul\":37559:37584   */\n      and\n        /* \"#utility.yul\":37554:37557   */\n      dup7\n        /* \"#utility.yul\":37547:37585   */\n      mstore\n        /* \"#utility.yul\":37638:37644   */\n      dup2\n        /* \"#utility.yul\":37631:37645   */\n      iszero\n        /* \"#utility.yul\":37624:37646   */\n      iszero\n        /* \"#utility.yul\":37618:37622   */\n      0x20\n        /* \"#utility.yul\":37614:37647   */\n      mul\n        /* \"#utility.yul\":37609:37612   */\n      dup7\n        /* \"#utility.yul\":37605:37648   */\n      add\n        /* \"#utility.yul\":37598:37648   */\n      swap4\n      pop\n        /* \"#utility.yul\":37494:37658   */\n      jump(tag_878)\n        /* \"#utility.yul\":37667:38003   */\n    tag_880:\n        /* \"#utility.yul\":37734:37772   */\n      tag_881\n        /* \"#utility.yul\":37766:37771   */\n      dup6\n        /* \"#utility.yul\":37734:37772   */\n      tag_512\n      jump\t// in\n    tag_881:\n        /* \"#utility.yul\":37794:37795   */\n      0x00\n        /* \"#utility.yul\":37808:37962   */\n    tag_882:\n        /* \"#utility.yul\":37822:37828   */\n      dup4\n        /* \"#utility.yul\":37819:37820   */\n      dup2\n        /* \"#utility.yul\":37816:37829   */\n      lt\n        /* \"#utility.yul\":37808:37962   */\n      iszero\n      tag_884\n      jumpi\n        /* \"#utility.yul\":37896:37903   */\n      dup2\n        /* \"#utility.yul\":37890:37904   */\n      sload\n        /* \"#utility.yul\":37886:37887   */\n      dup2\n        /* \"#utility.yul\":37881:37884   */\n      dup10\n        /* \"#utility.yul\":37877:37888   */\n      add\n        /* \"#utility.yul\":37870:37905   */\n      mstore\n        /* \"#utility.yul\":37946:37947   */\n      0x01\n        /* \"#utility.yul\":37937:37944   */\n      dup3\n        /* \"#utility.yul\":37933:37948   */\n      add\n        /* \"#utility.yul\":37922:37948   */\n      swap2\n      pop\n        /* \"#utility.yul\":37844:37848   */\n      0x20\n        /* \"#utility.yul\":37841:37842   */\n      dup2\n        /* \"#utility.yul\":37837:37849   */\n      add\n        /* \"#utility.yul\":37832:37849   */\n      swap1\n      pop\n        /* \"#utility.yul\":37808:37962   */\n      jump(tag_882)\n    tag_884:\n        /* \"#utility.yul\":37991:37992   */\n      dup1\n        /* \"#utility.yul\":37986:37989   */\n      dup9\n        /* \"#utility.yul\":37982:37993   */\n      add\n        /* \"#utility.yul\":37975:37993   */\n      swap6\n      pop\n        /* \"#utility.yul\":37674:38003   */\n      pop\n      pop\n        /* \"#utility.yul\":37461:38003   */\n    tag_878:\n      pop\n        /* \"#utility.yul\":37267:38009   */\n      pop\n      pop\n        /* \"#utility.yul\":37178:38009   */\n      swap3\n      swap2\n      pop\n      pop\n      jump\t// out\n        /* \"#utility.yul\":38015:38542   */\n    tag_278:\n        /* \"#utility.yul\":38181:38185   */\n      0x00\n        /* \"#utility.yul\":38219:38221   */\n      0x60\n        /* \"#utility.yul\":38208:38217   */\n      dup3\n        /* \"#utility.yul\":38204:38222   */\n      add\n        /* \"#utility.yul\":38196:38222   */\n      swap1\n      pop\n        /* \"#utility.yul\":38232:38303   */\n      tag_886\n        /* \"#utility.yul\":38300:38301   */\n      0x00\n        /* \"#utility.yul\":38289:38298   */\n      dup4\n        /* \"#utility.yul\":38285:38302   */\n      add\n        /* \"#utility.yul\":38276:38282   */\n      dup7\n        /* \"#utility.yul\":38232:38303   */\n      tag_443\n      jump\t// in\n    tag_886:\n        /* \"#utility.yul\":38313:38385   */\n      tag_887\n        /* \"#utility.yul\":38381:38383   */\n      0x20\n        /* \"#utility.yul\":38370:38379   */\n      dup4\n        /* \"#utility.yul\":38366:38384   */\n      add\n        /* \"#utility.yul\":38357:38363   */\n      dup6\n        /* \"#utility.yul\":38313:38385   */\n      tag_446\n      jump\t// in\n    tag_887:\n        /* \"#utility.yul\":38432:38441   */\n      dup2\n        /* \"#utility.yul\":38426:38430   */\n      dup2\n        /* \"#utility.yul\":38422:38442   */\n      sub\n        /* \"#utility.yul\":38417:38419   */\n      0x40\n        /* \"#utility.yul\":38406:38415   */\n      dup4\n        /* \"#utility.yul\":38402:38420   */\n      add\n        /* \"#utility.yul\":38395:38443   */\n      mstore\n        /* \"#utility.yul\":38460:38535   */\n      tag_888\n        /* \"#utility.yul\":38530:38534   */\n      dup2\n        /* \"#utility.yul\":38521:38527   */\n      dup5\n        /* \"#utility.yul\":38460:38535   */\n      tag_529\n      jump\t// in\n    tag_888:\n        /* \"#utility.yul\":38452:38535   */\n      swap1\n      pop\n        /* \"#utility.yul\":38015:38542   */\n      swap5\n      swap4\n      pop\n      pop\n      pop\n      pop\n      jump\t// out\n        /* \"#utility.yul\":38548:38880   */\n    tag_290:\n        /* \"#utility.yul\":38669:38673   */\n      0x00\n        /* \"#utility.yul\":38707:38709   */\n      0x40\n        /* \"#utility.yul\":38696:38705   */\n      dup3\n        /* \"#utility.yul\":38692:38710   */\n      add\n        /* \"#utility.yul\":38684:38710   */\n      swap1\n      pop\n        /* \"#utility.yul\":38720:38791   */\n      tag_890\n        /* \"#utility.yul\":38788:38789   */\n      0x00\n        /* \"#utility.yul\":38777:38786   */\n      dup4\n        /* \"#utility.yul\":38773:38790   */\n      add\n        /* \"#utility.yul\":38764:38770   */\n      dup6\n        /* \"#utility.yul\":38720:38791   */\n      tag_446\n      jump\t// in\n    tag_890:\n        /* \"#utility.yul\":38801:38873   */\n      tag_891\n        /* \"#utility.yul\":38869:38871   */\n      0x20\n        /* \"#utility.yul\":38858:38867   */\n      dup4\n        /* \"#utility.yul\":38854:38872   */\n      add\n        /* \"#utility.yul\":38845:38851   */\n      dup5\n        /* \"#utility.yul\":38801:38873   */\n      tag_443\n      jump\t// in\n    tag_891:\n        /* \"#utility.yul\":38548:38880   */\n      swap4\n      swap3\n      pop\n      pop\n      pop\n      jump\t// out\n        /* \"#utility.yul\":38886:39066   */\n    tag_530:\n        /* \"#utility.yul\":38934:39011   */\n      0x4e487b7100000000000000000000000000000000000000000000000000000000\n        /* \"#utility.yul\":38931:38932   */\n      0x00\n        /* \"#utility.yul\":38924:39012   */\n      mstore\n        /* \"#utility.yul\":39031:39035   */\n      0x12\n        /* \"#utility.yul\":39028:39029   */\n      0x04\n        /* \"#utility.yul\":39021:39036   */\n      mstore\n        /* \"#utility.yul\":39055:39059   */\n      0x24\n        /* \"#utility.yul\":39052:39053   */\n      0x00\n        /* \"#utility.yul\":39045:39060   */\n      revert\n        /* \"#utility.yul\":39072:39257   */\n    tag_300:\n        /* \"#utility.yul\":39112:39113   */\n      0x00\n        /* \"#utility.yul\":39129:39149   */\n      tag_894\n        /* \"#utility.yul\":39147:39148   */\n      dup3\n        /* \"#utility.yul\":39129:39149   */\n      tag_440\n      jump\t// in\n    tag_894:\n        /* \"#utility.yul\":39124:39149   */\n      swap2\n      pop\n        /* \"#utility.yul\":39163:39183   */\n      tag_895\n        /* \"#utility.yul\":39181:39182   */\n      dup4\n        /* \"#utility.yul\":39163:39183   */\n      tag_440\n      jump\t// in\n    tag_895:\n        /* \"#utility.yul\":39158:39183   */\n      swap3\n      pop\n        /* \"#utility.yul\":39202:39203   */\n      dup3\n        /* \"#utility.yul\":39192:39227   */\n      tag_896\n      jumpi\n        /* \"#utility.yul\":39207:39225   */\n      tag_897\n      tag_530\n      jump\t// in\n    tag_897:\n        /* \"#utility.yul\":39192:39227   */\n    tag_896:\n        /* \"#utility.yul\":39249:39250   */\n      dup3\n        /* \"#utility.yul\":39246:39247   */\n      dup3\n        /* \"#utility.yul\":39242:39251   */\n      div\n        /* \"#utility.yul\":39237:39251   */\n      swap1\n      pop\n        /* \"#utility.yul\":39072:39257   */\n      swap3\n      swap2\n      pop\n      pop\n      jump\t// out\n        /* \"#utility.yul\":39263:39507   */\n    tag_531:\n        /* \"#utility.yul\":39403:39437   */\n      0x4f6e6c792074686520656e7472657072656e657572206f72206f776e65722063\n        /* \"#utility.yul\":39399:39400   */\n      0x00\n        /* \"#utility.yul\":39391:39397   */\n      dup3\n        /* \"#utility.yul\":39387:39401   */\n      add\n        /* \"#utility.yul\":39380:39438   */\n      mstore\n        /* \"#utility.yul\":39472:39499   */\n      0x616e20636f6d706c65746520746869732063616d706169676e00000000000000\n        /* \"#utility.yul\":39467:39469   */\n      0x20\n        /* \"#utility.yul\":39459:39465   */\n      dup3\n        /* \"#utility.yul\":39455:39470   */\n      add\n        /* \"#utility.yul\":39448:39500   */\n      mstore\n        /* \"#utility.yul\":39263:39507   */\n      pop\n      jump\t// out\n        /* \"#utility.yul\":39513:39879   */\n    tag_532:\n        /* \"#utility.yul\":39655:39658   */\n      0x00\n        /* \"#utility.yul\":39676:39743   */\n      tag_900\n        /* \"#utility.yul\":39740:39742   */\n      0x39\n        /* \"#utility.yul\":39735:39738   */\n      dup4\n        /* \"#utility.yul\":39676:39743   */\n      tag_448\n      jump\t// in\n    tag_900:\n        /* \"#utility.yul\":39669:39743   */\n      swap2\n      pop\n        /* \"#utility.yul\":39752:39845   */\n      tag_901\n        /* \"#utility.yul\":39841:39844   */\n      dup3\n        /* \"#utility.yul\":39752:39845   */\n      tag_531\n      jump\t// in\n    tag_901:\n        /* \"#utility.yul\":39870:39872   */\n      0x40\n        /* \"#utility.yul\":39865:39868   */\n      dup3\n        /* \"#utility.yul\":39861:39873   */\n      add\n        /* \"#utility.yul\":39854:39873   */\n      swap1\n      pop\n        /* \"#utility.yul\":39513:39879   */\n      swap2\n      swap1\n      pop\n      jump\t// out\n        /* \"#utility.yul\":39885:40304   */\n    tag_332:\n        /* \"#utility.yul\":40051:40055   */\n      0x00\n        /* \"#utility.yul\":40089:40091   */\n      0x20\n        /* \"#utility.yul\":40078:40087   */\n      dup3\n        /* \"#utility.yul\":40074:40092   */\n      add\n        /* \"#utility.yul\":40066:40092   */\n      swap1\n      pop\n        /* \"#utility.yul\":40138:40147   */\n      dup2\n        /* \"#utility.yul\":40132:40136   */\n      dup2\n        /* \"#utility.yul\":40128:40148   */\n      sub\n        /* \"#utility.yul\":40124:40125   */\n      0x00\n        /* \"#utility.yul\":40113:40122   */\n      dup4\n        /* \"#utility.yul\":40109:40126   */\n      add\n        /* \"#utility.yul\":40102:40149   */\n      mstore\n        /* \"#utility.yul\":40166:40297   */\n      tag_903\n        /* \"#utility.yul\":40292:40296   */\n      dup2\n        /* \"#utility.yul\":40166:40297   */\n      tag_532\n      jump\t// in\n    tag_903:\n        /* \"#utility.yul\":40158:40297   */\n      swap1\n      pop\n        /* \"#utility.yul\":39885:40304   */\n      swap2\n      swap1\n      pop\n      jump\t// out\n        /* \"#utility.yul\":40310:40533   */\n    tag_533:\n        /* \"#utility.yul\":40450:40484   */\n      0x43616d706169676e20646f6573206e6f74206861766520656e6f756768207368\n        /* \"#utility.yul\":40446:40447   */\n      0x00\n        /* \"#utility.yul\":40438:40444   */\n      dup3\n        /* \"#utility.yul\":40434:40448   */\n      add\n        /* \"#utility.yul\":40427:40485   */\n      mstore\n        /* \"#utility.yul\":40519:40525   */\n      0x6172657300000000000000000000000000000000000000000000000000000000\n        /* \"#utility.yul\":40514:40516   */\n      0x20\n        /* \"#utility.yul\":40506:40512   */\n      dup3\n        /* \"#utility.yul\":40502:40517   */\n      add\n        /* \"#utility.yul\":40495:40526   */\n      mstore\n        /* \"#utility.yul\":40310:40533   */\n      pop\n      jump\t// out\n        /* \"#utility.yul\":40539:40905   */\n    tag_534:\n        /* \"#utility.yul\":40681:40684   */\n      0x00\n        /* \"#utility.yul\":40702:40769   */\n      tag_906\n        /* \"#utility.yul\":40766:40768   */\n      0x24\n        /* \"#utility.yul\":40761:40764   */\n      dup4\n        /* \"#utility.yul\":40702:40769   */\n      tag_448\n      jump\t// in\n    tag_906:\n        /* \"#utility.yul\":40695:40769   */\n      swap2\n      pop\n        /* \"#utility.yul\":40778:40871   */\n      tag_907\n        /* \"#utility.yul\":40867:40870   */\n      dup3\n        /* \"#utility.yul\":40778:40871   */\n      tag_533\n      jump\t// in\n    tag_907:\n        /* \"#utility.yul\":40896:40898   */\n      0x40\n        /* \"#utility.yul\":40891:40894   */\n      dup3\n        /* \"#utility.yul\":40887:40899   */\n      add\n        /* \"#utility.yul\":40880:40899   */\n      swap1\n      pop\n        /* \"#utility.yul\":40539:40905   */\n      swap2\n      swap1\n      pop\n      jump\t// out\n        /* \"#utility.yul\":40911:41330   */\n    tag_335:\n        /* \"#utility.yul\":41077:41081   */\n      0x00\n        /* \"#utility.yul\":41115:41117   */\n      0x20\n        /* \"#utility.yul\":41104:41113   */\n      dup3\n        /* \"#utility.yul\":41100:41118   */\n      add\n        /* \"#utility.yul\":41092:41118   */\n      swap1\n      pop\n        /* \"#utility.yul\":41164:41173   */\n      dup2\n        /* \"#utility.yul\":41158:41162   */\n      dup2\n        /* \"#utility.yul\":41154:41174   */\n      sub\n        /* \"#utility.yul\":41150:41151   */\n      0x00\n        /* \"#utility.yul\":41139:41148   */\n      dup4\n        /* \"#utility.yul\":41135:41152   */\n      add\n        /* \"#utility.yul\":41128:41175   */\n      mstore\n        /* \"#utility.yul\":41192:41323   */\n      tag_909\n        /* \"#utility.yul\":41318:41322   */\n      dup2\n        /* \"#utility.yul\":41192:41323   */\n      tag_534\n      jump\t// in\n    tag_909:\n        /* \"#utility.yul\":41184:41323   */\n      swap1\n      pop\n        /* \"#utility.yul\":40911:41330   */\n      swap2\n      swap1\n      pop\n      jump\t// out\n        /* \"#utility.yul\":41336:41559   */\n    tag_535:\n        /* \"#utility.yul\":41476:41510   */\n      0x4e6577206f776e65722063616e6e6f7420626520746865207a65726f20616464\n        /* \"#utility.yul\":41472:41473   */\n      0x00\n        /* \"#utility.yul\":41464:41470   */\n      dup3\n        /* \"#utility.yul\":41460:41474   */\n      add\n        /* \"#utility.yul\":41453:41511   */\n      mstore\n        /* \"#utility.yul\":41545:41551   */\n      0x7265737300000000000000000000000000000000000000000000000000000000\n        /* \"#utility.yul\":41540:41542   */\n      0x20\n        /* \"#utility.yul\":41532:41538   */\n      dup3\n        /* \"#utility.yul\":41528:41543   */\n      add\n        /* \"#utility.yul\":41521:41552   */\n      mstore\n        /* \"#utility.yul\":41336:41559   */\n      pop\n      jump\t// out\n        /* \"#utility.yul\":41565:41931   */\n    tag_536:\n        /* \"#utility.yul\":41707:41710   */\n      0x00\n        /* \"#utility.yul\":41728:41795   */\n      tag_912\n        /* \"#utility.yul\":41792:41794   */\n      0x24\n        /* \"#utility.yul\":41787:41790   */\n      dup4\n        /* \"#utility.yul\":41728:41795   */\n      tag_448\n      jump\t// in\n    tag_912:\n        /* \"#utility.yul\":41721:41795   */\n      swap2\n      pop\n        /* \"#utility.yul\":41804:41897   */\n      tag_913\n        /* \"#utility.yul\":41893:41896   */\n      dup3\n        /* \"#utility.yul\":41804:41897   */\n      tag_535\n      jump\t// in\n    tag_913:\n        /* \"#utility.yul\":41922:41924   */\n      0x40\n        /* \"#utility.yul\":41917:41920   */\n      dup3\n        /* \"#utility.yul\":41913:41925   */\n      add\n        /* \"#utility.yul\":41906:41925   */\n      swap1\n      pop\n        /* \"#utility.yul\":41565:41931   */\n      swap2\n      swap1\n      pop\n      jump\t// out\n        /* \"#utility.yul\":41937:42356   */\n    tag_349:\n        /* \"#utility.yul\":42103:42107   */\n      0x00\n        /* \"#utility.yul\":42141:42143   */\n      0x20\n        /* \"#utility.yul\":42130:42139   */\n      dup3\n        /* \"#utility.yul\":42126:42144   */\n      add\n        /* \"#utility.yul\":42118:42144   */\n      swap1\n      pop\n        /* \"#utility.yul\":42190:42199   */\n      dup2\n        /* \"#utility.yul\":42184:42188   */\n      dup2\n        /* \"#utility.yul\":42180:42200   */\n      sub\n        /* \"#utility.yul\":42176:42177   */\n      0x00\n        /* \"#utility.yul\":42165:42174   */\n      dup4\n        /* \"#utility.yul\":42161:42178   */\n      add\n        /* \"#utility.yul\":42154:42201   */\n      mstore\n        /* \"#utility.yul\":42218:42349   */\n      tag_915\n        /* \"#utility.yul\":42344:42348   */\n      dup2\n        /* \"#utility.yul\":42218:42349   */\n      tag_536\n      jump\t// in\n    tag_915:\n        /* \"#utility.yul\":42210:42349   */\n      swap1\n      pop\n        /* \"#utility.yul\":41937:42356   */\n      swap2\n      swap1\n      pop\n      jump\t// out\n        /* \"#utility.yul\":42362:42531   */\n    tag_537:\n        /* \"#utility.yul\":42502:42523   */\n      0x496e76616c69642063616d706169676e20494400000000000000000000000000\n        /* \"#utility.yul\":42498:42499   */\n      0x00\n        /* \"#utility.yul\":42490:42496   */\n      dup3\n        /* \"#utility.yul\":42486:42500   */\n      add\n        /* \"#utility.yul\":42479:42524   */\n      mstore\n        /* \"#utility.yul\":42362:42531   */\n      pop\n      jump\t// out\n        /* \"#utility.yul\":42537:42903   */\n    tag_538:\n        /* \"#utility.yul\":42679:42682   */\n      0x00\n        /* \"#utility.yul\":42700:42767   */\n      tag_918\n        /* \"#utility.yul\":42764:42766   */\n      0x13\n        /* \"#utility.yul\":42759:42762   */\n      dup4\n        /* \"#utility.yul\":42700:42767   */\n      tag_448\n      jump\t// in\n    tag_918:\n        /* \"#utility.yul\":42693:42767   */\n      swap2\n      pop\n        /* \"#utility.yul\":42776:42869   */\n      tag_919\n        /* \"#utility.yul\":42865:42868   */\n      dup3\n        /* \"#utility.yul\":42776:42869   */\n      tag_537\n      jump\t// in\n    tag_919:\n        /* \"#utility.yul\":42894:42896   */\n      0x20\n        /* \"#utility.yul\":42889:42892   */\n      dup3\n        /* \"#utility.yul\":42885:42897   */\n      add\n        /* \"#utility.yul\":42878:42897   */\n      swap1\n      pop\n        /* \"#utility.yul\":42537:42903   */\n      swap2\n      swap1\n      pop\n      jump\t// out\n        /* \"#utility.yul\":42909:43328   */\n    tag_354:\n        /* \"#utility.yul\":43075:43079   */\n      0x00\n        /* \"#utility.yul\":43113:43115   */\n      0x20\n        /* \"#utility.yul\":43102:43111   */\n      dup3\n        /* \"#utility.yul\":43098:43116   */\n      add\n        /* \"#utility.yul\":43090:43116   */\n      swap1\n      pop\n        /* \"#utility.yul\":43162:43171   */\n      dup2\n        /* \"#utility.yul\":43156:43160   */\n      dup2\n        /* \"#utility.yul\":43152:43172   */\n      sub\n        /* \"#utility.yul\":43148:43149   */\n      0x00\n        /* \"#utility.yul\":43137:43146   */\n      dup4\n        /* \"#utility.yul\":43133:43150   */\n      add\n        /* \"#utility.yul\":43126:43173   */\n      mstore\n        /* \"#utility.yul\":43190:43321   */\n      tag_921\n        /* \"#utility.yul\":43316:43320   */\n      dup2\n        /* \"#utility.yul\":43190:43321   */\n      tag_538\n      jump\t// in\n    tag_921:\n        /* \"#utility.yul\":43182:43321   */\n      swap1\n      pop\n        /* \"#utility.yul\":42909:43328   */\n      swap2\n      swap1\n      pop\n      jump\t// out\n        /* \"#utility.yul\":43334:43582   */\n    tag_539:\n        /* \"#utility.yul\":43474:43508   */\n      0x4f6e6c792074686520696e766573746f72206f722074686520636f6e74726163\n        /* \"#utility.yul\":43470:43471   */\n      0x00\n        /* \"#utility.yul\":43462:43468   */\n      dup3\n        /* \"#utility.yul\":43458:43472   */\n      add\n        /* \"#utility.yul\":43451:43509   */\n      mstore\n        /* \"#utility.yul\":43543:43574   */\n      0x74206f776e65722063616e20696e697469617465206120726566756e64000000\n        /* \"#utility.yul\":43538:43540   */\n      0x20\n        /* \"#utility.yul\":43530:43536   */\n      dup3\n        /* \"#utility.yul\":43526:43541   */\n      add\n        /* \"#utility.yul\":43519:43575   */\n      mstore\n        /* \"#utility.yul\":43334:43582   */\n      pop\n      jump\t// out\n        /* \"#utility.yul\":43588:43954   */\n    tag_540:\n        /* \"#utility.yul\":43730:43733   */\n      0x00\n        /* \"#utility.yul\":43751:43818   */\n      tag_924\n        /* \"#utility.yul\":43815:43817   */\n      0x3d\n        /* \"#utility.yul\":43810:43813   */\n      dup4\n        /* \"#utility.yul\":43751:43818   */\n      tag_448\n      jump\t// in\n    tag_924:\n        /* \"#utility.yul\":43744:43818   */\n      swap2\n      pop\n        /* \"#utility.yul\":43827:43920   */\n      tag_925\n        /* \"#utility.yul\":43916:43919   */\n      dup3\n        /* \"#utility.yul\":43827:43920   */\n      tag_539\n      jump\t// in\n    tag_925:\n        /* \"#utility.yul\":43945:43947   */\n      0x40\n        /* \"#utility.yul\":43940:43943   */\n      dup3\n        /* \"#utility.yul\":43936:43948   */\n      add\n        /* \"#utility.yul\":43929:43948   */\n      swap1\n      pop\n        /* \"#utility.yul\":43588:43954   */\n      swap2\n      swap1\n      pop\n      jump\t// out\n        /* \"#utility.yul\":43960:44379   */\n    tag_430:\n        /* \"#utility.yul\":44126:44130   */\n      0x00\n        /* \"#utility.yul\":44164:44166   */\n      0x20\n        /* \"#utility.yul\":44153:44162   */\n      dup3\n        /* \"#utility.yul\":44149:44167   */\n      add\n        /* \"#utility.yul\":44141:44167   */\n      swap1\n      pop\n        /* \"#utility.yul\":44213:44222   */\n      dup2\n        /* \"#utility.yul\":44207:44211   */\n      dup2\n        /* \"#utility.yul\":44203:44223   */\n      sub\n        /* \"#utility.yul\":44199:44200   */\n      0x00\n        /* \"#utility.yul\":44188:44197   */\n      dup4\n        /* \"#utility.yul\":44184:44201   */\n      add\n        /* \"#utility.yul\":44177:44224   */\n      mstore\n        /* \"#utility.yul\":44241:44372   */\n      tag_927\n        /* \"#utility.yul\":44367:44371   */\n      dup2\n        /* \"#utility.yul\":44241:44372   */\n      tag_540\n      jump\t// in\n    tag_927:\n        /* \"#utility.yul\":44233:44372   */\n      swap1\n      pop\n        /* \"#utility.yul\":43960:44379   */\n      swap2\n      swap1\n      pop\n      jump\t// out\n        /* \"#utility.yul\":44385:44609   */\n    tag_541:\n        /* \"#utility.yul\":44525:44559   */\n      0x4e6f20726566756e6420617661696c61626c6520666f72207468697320696e76\n        /* \"#utility.yul\":44521:44522   */\n      0x00\n        /* \"#utility.yul\":44513:44519   */\n      dup3\n        /* \"#utility.yul\":44509:44523   */\n      add\n        /* \"#utility.yul\":44502:44560   */\n      mstore\n        /* \"#utility.yul\":44594:44601   */\n      0x6573746f72000000000000000000000000000000000000000000000000000000\n        /* \"#utility.yul\":44589:44591   */\n      0x20\n        /* \"#utility.yul\":44581:44587   */\n      dup3\n        /* \"#utility.yul\":44577:44592   */\n      add\n        /* \"#utility.yul\":44570:44602   */\n      mstore\n        /* \"#utility.yul\":44385:44609   */\n      pop\n      jump\t// out\n        /* \"#utility.yul\":44615:44981   */\n    tag_542:\n        /* \"#utility.yul\":44757:44760   */\n      0x00\n        /* \"#utility.yul\":44778:44845   */\n      tag_930\n        /* \"#utility.yul\":44842:44844   */\n      0x25\n        /* \"#utility.yul\":44837:44840   */\n      dup4\n        /* \"#utility.yul\":44778:44845   */\n      tag_448\n      jump\t// in\n    tag_930:\n        /* \"#utility.yul\":44771:44845   */\n      swap2\n      pop\n        /* \"#utility.yul\":44854:44947   */\n      tag_931\n        /* \"#utility.yul\":44943:44946   */\n      dup3\n        /* \"#utility.yul\":44854:44947   */\n      tag_541\n      jump\t// in\n    tag_931:\n        /* \"#utility.yul\":44972:44974   */\n      0x40\n        /* \"#utility.yul\":44967:44970   */\n      dup3\n        /* \"#utility.yul\":44963:44975   */\n      add\n        /* \"#utility.yul\":44956:44975   */\n      swap1\n      pop\n        /* \"#utility.yul\":44615:44981   */\n      swap2\n      swap1\n      pop\n      jump\t// out\n        /* \"#utility.yul\":44987:45406   */\n    tag_433:\n        /* \"#utility.yul\":45153:45157   */\n      0x00\n        /* \"#utility.yul\":45191:45193   */\n      0x20\n        /* \"#utility.yul\":45180:45189   */\n      dup3\n        /* \"#utility.yul\":45176:45194   */\n      add\n        /* \"#utility.yul\":45168:45194   */\n      swap1\n      pop\n        /* \"#utility.yul\":45240:45249   */\n      dup2\n        /* \"#utility.yul\":45234:45238   */\n      dup2\n        /* \"#utility.yul\":45230:45250   */\n      sub\n        /* \"#utility.yul\":45226:45227   */\n      0x00\n        /* \"#utility.yul\":45215:45224   */\n      dup4\n        /* \"#utility.yul\":45211:45228   */\n      add\n        /* \"#utility.yul\":45204:45251   */\n      mstore\n        /* \"#utility.yul\":45268:45399   */\n      tag_933\n        /* \"#utility.yul\":45394:45398   */\n      dup2\n        /* \"#utility.yul\":45268:45399   */\n      tag_542\n      jump\t// in\n    tag_933:\n        /* \"#utility.yul\":45260:45399   */\n      swap1\n      pop\n        /* \"#utility.yul\":44987:45406   */\n      swap2\n      swap1\n      pop\n      jump\t// out\n\n    auxdata: 0xa2646970667358221220e4d2dd85db3fb3ffdda0f224f75b288ca7aa4fd1a42d8617b1de9298b0a6e64f64736f6c634300081a0033\n}\n",
				"bytecode": {
					"linkReferences": {},
					"object": "608060405234801561001057600080fd5b5060405161462e38038061462e833981810160405281019061003291906100d5565b336000806101000a81548173ffffffffffffffffffffffffffffffffffffffff021916908373ffffffffffffffffffffffffffffffffffffffff160217905550806001819055506001600960006101000a81548160ff02191690831515021790555050610102565b600080fd5b6000819050919050565b6100b28161009f565b81146100bd57600080fd5b50565b6000815190506100cf816100a9565b92915050565b6000602082840312156100eb576100ea61009a565b5b60006100f9848285016100c0565b91505092915050565b61451d806101116000396000f3fe60806040526004361061014b5760003560e01c80638da5cb5b116100b6578063bd424ee71161006f578063bd424ee714610447578063c0751ba414610484578063c362b156146104af578063de564098146104da578063ed68b68514610505578063ff53c5a3146105425761014b565b80638da5cb5b146103245780639553f1801461034f578063a6f9dae114610378578063ad59be99146103a1578063b41ead0a146103cc578063bc3da5351461040a5761014b565b8063476343ee11610108578063476343ee1461023857806360c6d8ae1461024f578063626e1ae71461027a57806363338b17146102a55780638a5be9b7146102d05780638bc95413146102fb5761014b565b8063092a5cce14610150578063141961bc146101675780632b7393fb146101ac5780633020580b146101c85780633c3ae5b8146101e457806345598b4a1461020f575b600080fd5b34801561015c57600080fd5b5061016561056b565b005b34801561017357600080fd5b5061018e60048036038101906101899190612dff565b6107b7565b6040516101a399989796959493929190612f27565b60405180910390f35b6101c660048036038101906101c19190612fbb565b6108d4565b005b6101e260048036038101906101dd9190613130565b610d87565b005b3480156101f057600080fd5b506101f9611098565b6040516102069190613388565b60405180910390f35b34801561021b57600080fd5b5061023660048036038101906102319190612dff565b611402565b005b34801561024457600080fd5b5061024d6117af565b005b34801561025b57600080fd5b5061026461196f565b60405161027191906133aa565b60405180910390f35b34801561028657600080fd5b5061028f611975565b60405161029c91906133aa565b60405180910390f35b3480156102b157600080fd5b506102ba611a46565b6040516102c791906133aa565b60405180910390f35b3480156102dc57600080fd5b506102e5611ad5565b6040516102f291906133aa565b60405180910390f35b34801561030757600080fd5b50610322600480360381019061031d91906133f1565b611adb565b005b34801561033057600080fd5b50610339611ccc565b604051610346919061341e565b60405180910390f35b34801561035b57600080fd5b5061037660048036038101906103719190612dff565b611cf0565b005b34801561038457600080fd5b5061039f600480360381019061039a91906133f1565b612078565b005b3480156103ad57600080fd5b506103b66121b8565b6040516103c391906133aa565b60405180910390f35b3480156103d857600080fd5b506103f360048036038101906103ee9190612dff565b6121be565b604051610401929190613597565b60405180910390f35b34801561041657600080fd5b50610431600480360381019061042c91906133f1565b6123e2565b60405161043e91906133aa565b60405180910390f35b34801561045357600080fd5b5061046e600480360381019061046991906133f1565b6123fa565b60405161047b91906135ce565b60405180910390f35b34801561049057600080fd5b5061049961241a565b6040516104a69190613388565b60405180910390f35b3480156104bb57600080fd5b506104c4612709565b6040516104d19190613388565b60405180910390f35b3480156104e657600080fd5b506104ef612a75565b6040516104fc91906135e9565b60405180910390f35b34801561051157600080fd5b5061052c60048036038101906105279190612dff565b612b03565b604051610539919061341e565b60405180910390f35b34801561054e57600080fd5b50610569600480360381019061056491906133f1565b612b42565b005b60008054906101000a900473ffffffffffffffffffffffffffffffffffffffff1673ffffffffffffffffffffffffffffffffffffffff163373ffffffffffffffffffffffffffffffffffffffff16146105f9576040517f08c379a00000000000000000000000000000000000000000000000000000000081526004016105f09061367d565b60405180910390fd5b60005b6003548110156107b45760006004600083815260200190815260200160002090508060060160019054906101000a900460ff168061064857508060060160029054906101000a900460ff165b1561065357506107a7565b60008160060160006101000a81548160ff02191690831515021790555060018160060160016101000a81548160ff02191690831515021790555060005b81600701805490508110156107a45760008260070182815481106106b7576106b661369d565b5b9060005260206000200160009054906101000a900473ffffffffffffffffffffffffffffffffffffffff16905060008360080160008373ffffffffffffffffffffffffffffffffffffffff1673ffffffffffffffffffffffffffffffffffffffff168152602001908152602001600020549050600084600301548261073c91906136fb565b905080600860008573ffffffffffffffffffffffffffffffffffffffff1673ffffffffffffffffffffffffffffffffffffffff168152602001908152602001600020600082825461078d919061373d565b925050819055505050508080600101915050610690565b50505b80806001019150506105fc565b50565b60046020528060005260406000206000915090508060000154908060010160009054906101000a900473ffffffffffffffffffffffffffffffffffffffff1690806002018054610806906137a0565b80601f0160208091040260200160405190810160405280929190818152602001828054610832906137a0565b801561087f5780601f106108545761010080835404028352916020019161087f565b820191906000526020600020905b81548152906001019060200180831161086257829003601f168201915b5050505050908060030154908060040154908060050154908060060160009054906101000a900460ff16908060060160019054906101000a900460ff16908060060160029054906101000a900460ff16905089565b60008054906101000a900473ffffffffffffffffffffffffffffffffffffffff1673ffffffffffffffffffffffffffffffffffffffff163373ffffffffffffffffffffffffffffffffffffffff1603610962576040517f08c379a000000000000000000000000000000000000000000000000000000000815260040161095990613843565b60405180910390fd5b600660003373ffffffffffffffffffffffffffffffffffffffff1673ffffffffffffffffffffffffffffffffffffffff16815260200190815260200160002060009054906101000a900460ff16156109ef576040517f08c379a00000000000000000000000000000000000000000000000000000000081526004016109e6906138af565b60405180910390fd5b806004600082815260200190815260200160002060060160009054906101000a900460ff16610a53576040517f08c379a0000000000000000000000000000000000000000000000000000000008152600401610a4a9061391b565b60405180910390fd5b816004600082815260200190815260200160002060060160019054906101000a900460ff1615610ab8576040517f08c379a0000000000000000000000000000000000000000000000000000000008152600401610aaf90613987565b60405180910390fd5b826004600082815260200190815260200160002060060160029054906101000a900460ff1615610b1d576040517f08c379a0000000000000000000000000000000000000000000000000000000008152600401610b14906139f3565b60405180910390fd5b600960009054906101000a900460ff16610b6c576040517f08c379a0000000000000000000000000000000000000000000000000000000008152600401610b6390613a5f565b60405180910390fd5b60006004600086815260200190815260200160002090508060010160009054906101000a900473ffffffffffffffffffffffffffffffffffffffff1673ffffffffffffffffffffffffffffffffffffffff163373ffffffffffffffffffffffffffffffffffffffff1603610c15576040517f08c379a0000000000000000000000000000000000000000000000000000000008152600401610c0c90613acb565b60405180910390fd5b6000868260030154610c2791906136fb565b9050803414610c6b576040517f08c379a0000000000000000000000000000000000000000000000000000000008152600401610c6290613b37565b60405180910390fd5b86826005016000828254610c7f919061373d565b92505081905550868260080160003373ffffffffffffffffffffffffffffffffffffffff1673ffffffffffffffffffffffffffffffffffffffff1681526020019081526020016000206000828254610cd7919061373d565b9250508190555081600701339080600181540180825580915050600190039060005260206000200160009091909190916101000a81548173ffffffffffffffffffffffffffffffffffffffff021916908373ffffffffffffffffffffffffffffffffffffffff1602179055507fd4a7a37d339805413b4085e0f8e0932dfb0a4f84f08f98a6e53673b5ee8eee15863389604051610d7693929190613b57565b60405180910390a150505050505050565b60008054906101000a900473ffffffffffffffffffffffffffffffffffffffff1673ffffffffffffffffffffffffffffffffffffffff163373ffffffffffffffffffffffffffffffffffffffff1603610e15576040517f08c379a0000000000000000000000000000000000000000000000000000000008152600401610e0c90613843565b60405180910390fd5b600660003373ffffffffffffffffffffffffffffffffffffffff1673ffffffffffffffffffffffffffffffffffffffff16815260200190815260200160002060009054906101000a900460ff1615610ea2576040517f08c379a0000000000000000000000000000000000000000000000000000000008152600401610e99906138af565b60405180910390fd5b6001543414610ee6576040517f08c379a0000000000000000000000000000000000000000000000000000000008152600401610edd90613bda565b60405180910390fd5b8060008111610f2a576040517f08c379a0000000000000000000000000000000000000000000000000000000008152600401610f2190613c6c565b60405180910390fd5b600960009054906101000a900460ff16610f79576040517f08c379a0000000000000000000000000000000000000000000000000000000008152600401610f7090613a5f565b60405180910390fd5b600060046000600354815260200190815260200160002090506003548160000181905550338160010160006101000a81548173ffffffffffffffffffffffffffffffffffffffff021916908373ffffffffffffffffffffffffffffffffffffffff16021790555084816002019081610ff19190613e38565b5083816003018190555082816004018190555060018160060160006101000a81548160ff0219169083151502179055506003600081548092919061103490613f0a565b91905055506001546002600082825461104d919061373d565b925050819055507fc04c663886cae794dc52158f70fe6c8ee3b0140d4f48647282f9b693ff688a65600354338760405161108993929190613f52565b60405180910390a15050505050565b60606000805b60035481101561111a576004600082815260200190815260200160002060060160029054906101000a900460ff1680156110f957506004600082815260200190815260200160002060060160019054906101000a900460ff16155b1561110d57818061110990613f0a565b9250505b808060010191505061109e565b5060008167ffffffffffffffff81111561113757611136613005565b5b60405190808252806020026020018201604052801561117057816020015b61115d612d56565b8152602001906001900390816111555790505b5090506000805b6003548110156113f8576004600082815260200190815260200160002060060160029054906101000a900460ff1680156111d257506004600082815260200190815260200160002060060160019054906101000a900460ff16155b156113eb57604051806101000160405280600460008481526020019081526020016000206000015481526020016004600084815260200190815260200160002060010160009054906101000a900473ffffffffffffffffffffffffffffffffffffffff1673ffffffffffffffffffffffffffffffffffffffff168152602001600460008481526020019081526020016000206002018054611272906137a0565b80601f016020809104026020016040519081016040528092919081815260200182805461129e906137a0565b80156112eb5780601f106112c0576101008083540402835291602001916112eb565b820191906000526020600020905b8154815290600101906020018083116112ce57829003601f168201915b5050505050815260200160046000848152602001908152602001600020600301548152602001600460008481526020019081526020016000206005015460046000858152602001908152602001600020600401546113499190613f90565b8152602001600460008481526020019081526020016000206005015481526020016004600084815260200190815260200160002060060160029054906101000a900460ff16151581526020016004600084815260200190815260200160002060060160019054906101000a900460ff1615158152508383815181106113d1576113d061369d565b5b602002602001018190525081806113e790613f0a565b9250505b8080600101915050611177565b5081935050505090565b806004600082815260200190815260200160002060060160009054906101000a900460ff16611466576040517f08c379a000000000000000000000000000000000000000000000000000000000815260040161145d9061391b565b60405180910390fd5b816004600082815260200190815260200160002060060160029054906101000a900460ff16156114cb576040517f08c379a00000000000000000000000000000000000000000000000000000000081526004016114c2906139f3565b60405180910390fd5b600960009054906101000a900460ff1661151a576040517f08c379a000000000000000000000000000000000000000000000000000000000815260040161151190613a5f565b60405180910390fd5b60006004600085815260200190815260200160002090508060010160009054906101000a900473ffffffffffffffffffffffffffffffffffffffff1673ffffffffffffffffffffffffffffffffffffffff163373ffffffffffffffffffffffffffffffffffffffff1614806115da575060008054906101000a900473ffffffffffffffffffffffffffffffffffffffff1673ffffffffffffffffffffffffffffffffffffffff163373ffffffffffffffffffffffffffffffffffffffff16145b611619576040517f08c379a000000000000000000000000000000000000000000000000000000000815260040161161090614036565b60405180910390fd5b60008160060160006101000a81548160ff02191690831515021790555060018160060160016101000a81548160ff02191690831515021790555060005b816007018054905081101561176a57600082600701828154811061167d5761167c61369d565b5b9060005260206000200160009054906101000a900473ffffffffffffffffffffffffffffffffffffffff16905060008360080160008373ffffffffffffffffffffffffffffffffffffffff1673ffffffffffffffffffffffffffffffffffffffff168152602001908152602001600020549050600084600301548261170291906136fb565b905080600860008573ffffffffffffffffffffffffffffffffffffffff1673ffffffffffffffffffffffffffffffffffffffff1681526020019081526020016000206000828254611753919061373d565b925050819055505050508080600101915050611656565b507f57bf3fc7e1999f61d60bf6bf729b85a5423c5d0883a1629cf9794f2162ae2aba8433836002016040516117a1939291906140da565b60405180910390a150505050565b60008054906101000a900473ffffffffffffffffffffffffffffffffffffffff1673ffffffffffffffffffffffffffffffffffffffff163373ffffffffffffffffffffffffffffffffffffffff161461183d576040517f08c379a00000000000000000000000000000000000000000000000000000000081526004016118349061367d565b60405180910390fd5b600960009054906101000a900460ff1661188c576040517f08c379a000000000000000000000000000000000000000000000000000000000815260040161188390613a5f565b60405180910390fd5b60006002549050600060028190555060008054906101000a900473ffffffffffffffffffffffffffffffffffffffff1673ffffffffffffffffffffffffffffffffffffffff166108fc829081150290604051600060405180830381858888f19350505050158015611901573d6000803e3d6000fd5b5060004790507fc0819c13be868895eb93e40eaceb96de976442fa1d404e5c55f14bb65a8c489a60008054906101000a900473ffffffffffffffffffffffffffffffffffffffff168284611955919061373d565b604051611963929190614118565b60405180910390a15050565b60025481565b60008060015460035461198891906136fb565b90506000805b600354811015611a32576004600082815260200190815260200160002060060160029054906101000a900460ff1615611a25576000600460008381526020019081526020016000206003015460046000848152602001908152602001600020600401546119fb91906136fb565b90506064601482611a0c91906136fb565b611a169190614170565b83611a21919061373d565b9250505b808060010191505061198e565b508082611a3f919061373d565b9250505090565b6000806000905060005b600354811015611acd576004600082815260200190815260200160002060060160029054906101000a900460ff16158015611aac57506004600082815260200190815260200160002060060160019054906101000a900460ff16155b15611ac0578180611abc90613f0a565b9250505b8080600101915050611a50565b508091505090565b60015481565b60008054906101000a900473ffffffffffffffffffffffffffffffffffffffff1673ffffffffffffffffffffffffffffffffffffffff163373ffffffffffffffffffffffffffffffffffffffff1614611b69576040517f08c379a0000000000000000000000000000000000000000000000000000000008152600401611b609061367d565b60405180910390fd5b600660003373ffffffffffffffffffffffffffffffffffffffff1673ffffffffffffffffffffffffffffffffffffffff16815260200190815260200160002060009054906101000a900460ff1615611bf6576040517f08c379a0000000000000000000000000000000000000000000000000000000008152600401611bed906138af565b60405180910390fd5b6001600660008373ffffffffffffffffffffffffffffffffffffffff1673ffffffffffffffffffffffffffffffffffffffff16815260200190815260200160002060006101000a81548160ff0219169083151502179055506007819080600181540180825580915050600190039060005260206000200160009091909190916101000a81548173ffffffffffffffffffffffffffffffffffffffff021916908373ffffffffffffffffffffffffffffffffffffffff16021790555060056000815480929190611cc490613f0a565b919050555050565b60008054906101000a900473ffffffffffffffffffffffffffffffffffffffff1681565b806004600082815260200190815260200160002060060160009054906101000a900460ff16611d54576040517f08c379a0000000000000000000000000000000000000000000000000000000008152600401611d4b9061391b565b60405180910390fd5b816004600082815260200190815260200160002060060160019054906101000a900460ff1615611db9576040517f08c379a0000000000000000000000000000000000000000000000000000000008152600401611db090613987565b60405180910390fd5b600960009054906101000a900460ff16611e08576040517f08c379a0000000000000000000000000000000000000000000000000000000008152600401611dff90613a5f565b60405180910390fd5b60006004600085815260200190815260200160002090508060010160009054906101000a900473ffffffffffffffffffffffffffffffffffffffff1673ffffffffffffffffffffffffffffffffffffffff163373ffffffffffffffffffffffffffffffffffffffff161480611ec8575060008054906101000a900473ffffffffffffffffffffffffffffffffffffffff1673ffffffffffffffffffffffffffffffffffffffff163373ffffffffffffffffffffffffffffffffffffffff16145b611f07576040517f08c379a0000000000000000000000000000000000000000000000000000000008152600401611efe90614213565b60405180910390fd5b806004015481600501541015611f52576040517f08c379a0000000000000000000000000000000000000000000000000000000008152600401611f49906142a5565b60405180910390fd5b60006064605047611f6391906136fb565b611f6d9190614170565b90508160010160009054906101000a900473ffffffffffffffffffffffffffffffffffffffff1673ffffffffffffffffffffffffffffffffffffffff166108fc829081150290604051600060405180830381858888f19350505050158015611fd9573d6000803e3d6000fd5b506064601447611fe991906136fb565b611ff39190614170565b60028190555060008260060160006101000a81548160ff02191690831515021790555060018260060160026101000a81548160ff0219169083151502179055507f8074ef78c691c15ac249ef0c702e350affe9388afdbbafd37c0d19703cd0c7db853384600201604051612069939291906140da565b60405180910390a15050505050565b60008054906101000a900473ffffffffffffffffffffffffffffffffffffffff1673ffffffffffffffffffffffffffffffffffffffff163373ffffffffffffffffffffffffffffffffffffffff1614612106576040517f08c379a00000000000000000000000000000000000000000000000000000000081526004016120fd9061367d565b60405180910390fd5b600073ffffffffffffffffffffffffffffffffffffffff168173ffffffffffffffffffffffffffffffffffffffff1603612175576040517f08c379a000000000000000000000000000000000000000000000000000000000815260040161216c90614337565b60405180910390fd5b806000806101000a81548173ffffffffffffffffffffffffffffffffffffffff021916908373ffffffffffffffffffffffffffffffffffffffff16021790555050565b60055481565b606080826000811180156121d457506003548111155b612213576040517f08c379a000000000000000000000000000000000000000000000000000000000815260040161220a906143a3565b60405180910390fd5b60006004600086815260200190815260200160002090506000816007018054905090508067ffffffffffffffff8111156122505761224f613005565b5b60405190808252806020026020018201604052801561227e5781602001602082028036833780820191505090505b5094508067ffffffffffffffff81111561229b5761229a613005565b5b6040519080825280602002602001820160405280156122c95781602001602082028036833780820191505090505b50935060005b818110156123d95760008360070182815481106122ef576122ee61369d565b5b9060005260206000200160009054906101000a900473ffffffffffffffffffffffffffffffffffffffff169050808783815181106123305761232f61369d565b5b602002602001019073ffffffffffffffffffffffffffffffffffffffff16908173ffffffffffffffffffffffffffffffffffffffff16815250508360080160008273ffffffffffffffffffffffffffffffffffffffff1673ffffffffffffffffffffffffffffffffffffffff168152602001908152602001600020548683815181106123bf576123be61369d565b5b6020026020010181815250505080806001019150506122cf565b50505050915091565b60086020528060005260406000206000915090505481565b60066020528060005260406000206000915054906101000a900460ff1681565b60606000805b60035481101561246f576004600082815260200190815260200160002060060160019054906101000a900460ff161561246257818061245e90613f0a565b9250505b8080600101915050612420565b5060008167ffffffffffffffff81111561248c5761248b613005565b5b6040519080825280602002602001820160405280156124c557816020015b6124b2612d56565b8152602001906001900390816124aa5790505b5090506000805b6003548110156126ff576004600082815260200190815260200160002060060160019054906101000a900460ff16156126f257604051806101000160405280600460008481526020019081526020016000206000015481526020016004600084815260200190815260200160002060010160009054906101000a900473ffffffffffffffffffffffffffffffffffffffff1673ffffffffffffffffffffffffffffffffffffffff16815260200160046000848152602001908152602001600020600201805461259a906137a0565b80601f01602080910402602001604051908101604052809291908181526020018280546125c6906137a0565b80156126135780601f106125e857610100808354040283529160200191612613565b820191906000526020600020905b8154815290600101906020018083116125f657829003601f168201915b505050505081526020016004600084815260200190815260200160002060030154815260200160046000848152602001908152602001600020600401548152602001600460008481526020019081526020016000206005015481526020016004600084815260200190815260200160002060060160029054906101000a900460ff16151581526020016004600084815260200190815260200160002060060160019054906101000a900460ff1615158152508383815181106126d8576126d761369d565b5b602002602001018190525081806126ee90613f0a565b9250505b80806001019150506124cc565b5081935050505090565b60606000805b60035481101561278c576004600082815260200190815260200160002060060160029054906101000a900460ff1615801561276b57506004600082815260200190815260200160002060060160019054906101000a900460ff16155b1561277f57818061277b90613f0a565b9250505b808060010191505061270f565b5060008167ffffffffffffffff8111156127a9576127a8613005565b5b6040519080825280602002602001820160405280156127e257816020015b6127cf612d56565b8152602001906001900390816127c75790505b5090506000805b600354811015612a6b576004600082815260200190815260200160002060060160029054906101000a900460ff1615801561284557506004600082815260200190815260200160002060060160019054906101000a900460ff16155b15612a5e57604051806101000160405280600460008481526020019081526020016000206000015481526020016004600084815260200190815260200160002060010160009054906101000a900473ffffffffffffffffffffffffffffffffffffffff1673ffffffffffffffffffffffffffffffffffffffff1681526020016004600084815260200190815260200160002060020180546128e5906137a0565b80601f0160208091040260200160405190810160405280929190818152602001828054612911906137a0565b801561295e5780601f106129335761010080835404028352916020019161295e565b820191906000526020600020905b81548152906001019060200180831161294157829003601f168201915b5050505050815260200160046000848152602001908152602001600020600301548152602001600460008481526020019081526020016000206005015460046000858152602001908152602001600020600401546129bc9190613f90565b8152602001600460008481526020019081526020016000206005015481526020016004600084815260200190815260200160002060060160029054906101000a900460ff16151581526020016004600084815260200190815260200160002060060160019054906101000a900460ff161515815250838381518110612a4457612a4361369d565b5b60200260200101819052508180612a5a90613f0a565b9250505b80806001019150506127e9565b5081935050505090565b60606007805480602002602001604051908101604052809291908181526020018280548015612af957602002820191906000526020600020905b8160009054906101000a900473ffffffffffffffffffffffffffffffffffffffff1673ffffffffffffffffffffffffffffffffffffffff1681526020019060010190808311612aaf575b5050505050905090565b60078181548110612b1357600080fd5b906000526020600020016000915054906101000a900473ffffffffffffffffffffffffffffffffffffffff1681565b8073ffffffffffffffffffffffffffffffffffffffff163373ffffffffffffffffffffffffffffffffffffffff161480612bc7575060008054906101000a900473ffffffffffffffffffffffffffffffffffffffff1673ffffffffffffffffffffffffffffffffffffffff163373ffffffffffffffffffffffffffffffffffffffff16145b612c06576040517f08c379a0000000000000000000000000000000000000000000000000000000008152600401612bfd90614435565b60405180910390fd5b6000600860008373ffffffffffffffffffffffffffffffffffffffff1673ffffffffffffffffffffffffffffffffffffffff16815260200190815260200160002054905060008111612c8d576040517f08c379a0000000000000000000000000000000000000000000000000000000008152600401612c84906144c7565b60405180910390fd5b6000600860008473ffffffffffffffffffffffffffffffffffffffff1673ffffffffffffffffffffffffffffffffffffffff168152602001908152602001600020819055508173ffffffffffffffffffffffffffffffffffffffff166108fc829081150290604051600060405180830381858888f19350505050158015612d18573d6000803e3d6000fd5b507f08d40e9c27d77b658952cbaacaa582b75d323ce97d3904729b9674ddf5d5f13e8282604051612d4a929190614118565b60405180910390a15050565b60405180610100016040528060008152602001600073ffffffffffffffffffffffffffffffffffffffff168152602001606081526020016000815260200160008152602001600081526020016000151581526020016000151581525090565b6000604051905090565b600080fd5b600080fd5b6000819050919050565b612ddc81612dc9565b8114612de757600080fd5b50565b600081359050612df981612dd3565b92915050565b600060208284031215612e1557612e14612dbf565b5b6000612e2384828501612dea565b91505092915050565b612e3581612dc9565b82525050565b600073ffffffffffffffffffffffffffffffffffffffff82169050919050565b6000612e6682612e3b565b9050919050565b612e7681612e5b565b82525050565b600081519050919050565b600082825260208201905092915050565b60005b83811015612eb6578082015181840152602081019050612e9b565b60008484015250505050565b6000601f19601f8301169050919050565b6000612ede82612e7c565b612ee88185612e87565b9350612ef8818560208601612e98565b612f0181612ec2565b840191505092915050565b60008115159050919050565b612f2181612f0c565b82525050565b600061012082019050612f3d600083018c612e2c565b612f4a602083018b612e6d565b8181036040830152612f5c818a612ed3565b9050612f6b6060830189612e2c565b612f786080830188612e2c565b612f8560a0830187612e2c565b612f9260c0830186612f18565b612f9f60e0830185612f18565b612fad610100830184612f18565b9a9950505050505050505050565b60008060408385031215612fd257612fd1612dbf565b5b6000612fe085828601612dea565b9250506020612ff185828601612dea565b9150509250929050565b600080fd5b600080fd5b7f4e487b7100000000000000000000000000000000000000000000000000000000600052604160045260246000fd5b61303d82612ec2565b810181811067ffffffffffffffff8211171561305c5761305b613005565b5b80604052505050565b600061306f612db5565b905061307b8282613034565b919050565b600067ffffffffffffffff82111561309b5761309a613005565b5b6130a482612ec2565b9050602081019050919050565b82818337600083830152505050565b60006130d36130ce84613080565b613065565b9050828152602081018484840111156130ef576130ee613000565b5b6130fa8482856130b1565b509392505050565b600082601f83011261311757613116612ffb565b5b81356131278482602086016130c0565b91505092915050565b60008060006060848603121561314957613148612dbf565b5b600084013567ffffffffffffffff81111561316757613166612dc4565b5b61317386828701613102565b935050602061318486828701612dea565b925050604061319586828701612dea565b9150509250925092565b600081519050919050565b600082825260208201905092915050565b6000819050602082019050919050565b6131d481612dc9565b82525050565b6131e381612e5b565b82525050565b600082825260208201905092915050565b600061320582612e7c565b61320f81856131e9565b935061321f818560208601612e98565b61322881612ec2565b840191505092915050565b61323c81612f0c565b82525050565b60006101008301600083015161325b60008601826131cb565b50602083015161326e60208601826131da565b506040830151848203604086015261328682826131fa565b915050606083015161329b60608601826131cb565b5060808301516132ae60808601826131cb565b5060a08301516132c160a08601826131cb565b5060c08301516132d460c0860182613233565b5060e08301516132e760e0860182613233565b508091505092915050565b60006132fe8383613242565b905092915050565b6000602082019050919050565b600061331e8261319f565b61332881856131aa565b93508360208202850161333a856131bb565b8060005b85811015613376578484038952815161335785826132f2565b945061336283613306565b925060208a0199505060018101905061333e565b50829750879550505050505092915050565b600060208201905081810360008301526133a28184613313565b905092915050565b60006020820190506133bf6000830184612e2c565b92915050565b6133ce81612e5b565b81146133d957600080fd5b50565b6000813590506133eb816133c5565b92915050565b60006020828403121561340757613406612dbf565b5b6000613415848285016133dc565b91505092915050565b60006020820190506134336000830184612e6d565b92915050565b600081519050919050565b600082825260208201905092915050565b6000819050602082019050919050565b600061347183836131da565b60208301905092915050565b6000602082019050919050565b600061349582613439565b61349f8185613444565b93506134aa83613455565b8060005b838110156134db5781516134c28882613465565b97506134cd8361347d565b9250506001810190506134ae565b5085935050505092915050565b600081519050919050565b600082825260208201905092915050565b6000819050602082019050919050565b600061352083836131cb565b60208301905092915050565b6000602082019050919050565b6000613544826134e8565b61354e81856134f3565b935061355983613504565b8060005b8381101561358a5781516135718882613514565b975061357c8361352c565b92505060018101905061355d565b5085935050505092915050565b600060408201905081810360008301526135b1818561348a565b905081810360208301526135c58184613539565b90509392505050565b60006020820190506135e36000830184612f18565b92915050565b60006020820190508181036000830152613603818461348a565b905092915050565b7f4f6e6c792074686520636f6e7472616374206f776e65722063616e206578656360008201527f7574652074686973000000000000000000000000000000000000000000000000602082015250565b6000613667602883612e87565b91506136728261360b565b604082019050919050565b600060208201905081810360008301526136968161365a565b9050919050565b7f4e487b7100000000000000000000000000000000000000000000000000000000600052603260045260246000fd5b7f4e487b7100000000000000000000000000000000000000000000000000000000600052601160045260246000fd5b600061370682612dc9565b915061371183612dc9565b925082820261371f81612dc9565b91508282048414831517613736576137356136cc565b5b5092915050565b600061374882612dc9565b915061375383612dc9565b925082820190508082111561376b5761376a6136cc565b5b92915050565b7f4e487b7100000000000000000000000000000000000000000000000000000000600052602260045260246000fd5b600060028204905060018216806137b857607f821691505b6020821081036137cb576137ca613771565b5b50919050565b7f54686520636f6e7472616374206f776e65722063616e277420706572666f726d60008201527f206675727468657220616374696f6e7300000000000000000000000000000000602082015250565b600061382d603083612e87565b9150613838826137d1565b604082019050919050565b6000602082019050818103600083015261385c81613820565b9050919050565b7f416464726573732069732062616e6e6564000000000000000000000000000000600082015250565b6000613899601183612e87565b91506138a482613863565b602082019050919050565b600060208201905081810360008301526138c88161388c565b9050919050565b7f43616d706169676e206973206e6f742061637469766500000000000000000000600082015250565b6000613905601683612e87565b9150613910826138cf565b602082019050919050565b60006020820190508181036000830152613934816138f8565b9050919050565b7f43616d706169676e2069732063616e63656c6c65640000000000000000000000600082015250565b6000613971601583612e87565b915061397c8261393b565b602082019050919050565b600060208201905081810360008301526139a081613964565b9050919050565b7f43616d706169676e20697320616c726561647920636f6d706c65746564000000600082015250565b60006139dd601d83612e87565b91506139e8826139a7565b602082019050919050565b60006020820190508181036000830152613a0c816139d0565b9050919050565b7f436f6e7472616374206973206e6f742061637469766500000000000000000000600082015250565b6000613a49601683612e87565b9150613a5482613a13565b602082019050919050565b60006020820190508181036000830152613a7881613a3c565b9050919050565b7f54686520656e7472657072656e6575722063616e27742066756e640000000000600082015250565b6000613ab5601b83612e87565b9150613ac082613a7f565b602082019050919050565b60006020820190508181036000830152613ae481613aa8565b9050919050565b7f496e636f7272656374205765692076616c75652073656e740000000000000000600082015250565b6000613b21601883612e87565b9150613b2c82613aeb565b602082019050919050565b60006020820190508181036000830152613b5081613b14565b9050919050565b6000606082019050613b6c6000830186612e2c565b613b796020830185612e6d565b613b866040830184612e2c565b949350505050565b7f496e636f72726563742063616d706169676e2066656500000000000000000000600082015250565b6000613bc4601683612e87565b9150613bcf82613b8e565b602082019050919050565b60006020820190508181036000830152613bf381613bb7565b9050919050565b7f546f74616c20736861726573206d75737420626520677265617465722074686160008201527f6e207a65726f0000000000000000000000000000000000000000000000000000602082015250565b6000613c56602683612e87565b9150613c6182613bfa565b604082019050919050565b60006020820190508181036000830152613c8581613c49565b9050919050565b60008190508160005260206000209050919050565b60006020601f8301049050919050565b600082821b905092915050565b600060088302613cee7fffffffffffffffffffffffffffffffffffffffffffffffffffffffffffffffff82613cb1565b613cf88683613cb1565b95508019841693508086168417925050509392505050565b6000819050919050565b6000613d35613d30613d2b84612dc9565b613d10565b612dc9565b9050919050565b6000819050919050565b613d4f83613d1a565b613d63613d5b82613d3c565b848454613cbe565b825550505050565b600090565b613d78613d6b565b613d83818484613d46565b505050565b5b81811015613da757613d9c600082613d70565b600181019050613d89565b5050565b601f821115613dec57613dbd81613c8c565b613dc684613ca1565b81016020851015613dd5578190505b613de9613de185613ca1565b830182613d88565b50505b505050565b600082821c905092915050565b6000613e0f60001984600802613df1565b1980831691505092915050565b6000613e288383613dfe565b9150826002028217905092915050565b613e4182612e7c565b67ffffffffffffffff811115613e5a57613e59613005565b5b613e6482546137a0565b613e6f828285613dab565b600060209050601f831160018114613ea25760008415613e90578287015190505b613e9a8582613e1c565b865550613f02565b601f198416613eb086613c8c565b60005b82811015613ed857848901518255600182019150602085019450602081019050613eb3565b86831015613ef55784890151613ef1601f891682613dfe565b8355505b6001600288020188555050505b505050505050565b6000613f1582612dc9565b91507fffffffffffffffffffffffffffffffffffffffffffffffffffffffffffffffff8203613f4757613f466136cc565b5b600182019050919050565b6000606082019050613f676000830186612e2c565b613f746020830185612e6d565b8181036040830152613f868184612ed3565b9050949350505050565b6000613f9b82612dc9565b9150613fa683612dc9565b9250828203905081811115613fbe57613fbd6136cc565b5b92915050565b7f4f6e6c792074686520656e7472657072656e657572206f72206f776e6572206360008201527f616e2063616e63656c20746869732063616d706169676e000000000000000000602082015250565b6000614020603783612e87565b915061402b82613fc4565b604082019050919050565b6000602082019050818103600083015261404f81614013565b9050919050565b60008154614063816137a0565b61406d8186612e87565b94506001821660008114614088576001811461409e576140d1565b60ff1983168652811515602002860193506140d1565b6140a785613c8c565b60005b838110156140c9578154818901526001820191506020810190506140aa565b808801955050505b50505092915050565b60006060820190506140ef6000830186612e2c565b6140fc6020830185612e6d565b818103604083015261410e8184614056565b9050949350505050565b600060408201905061412d6000830185612e6d565b61413a6020830184612e2c565b9392505050565b7f4e487b7100000000000000000000000000000000000000000000000000000000600052601260045260246000fd5b600061417b82612dc9565b915061418683612dc9565b92508261419657614195614141565b5b828204905092915050565b7f4f6e6c792074686520656e7472657072656e657572206f72206f776e6572206360008201527f616e20636f6d706c65746520746869732063616d706169676e00000000000000602082015250565b60006141fd603983612e87565b9150614208826141a1565b604082019050919050565b6000602082019050818103600083015261422c816141f0565b9050919050565b7f43616d706169676e20646f6573206e6f74206861766520656e6f75676820736860008201527f6172657300000000000000000000000000000000000000000000000000000000602082015250565b600061428f602483612e87565b915061429a82614233565b604082019050919050565b600060208201905081810360008301526142be81614282565b9050919050565b7f4e6577206f776e65722063616e6e6f7420626520746865207a65726f2061646460008201527f7265737300000000000000000000000000000000000000000000000000000000602082015250565b6000614321602483612e87565b915061432c826142c5565b604082019050919050565b6000602082019050818103600083015261435081614314565b9050919050565b7f496e76616c69642063616d706169676e20494400000000000000000000000000600082015250565b600061438d601383612e87565b915061439882614357565b602082019050919050565b600060208201905081810360008301526143bc81614380565b9050919050565b7f4f6e6c792074686520696e766573746f72206f722074686520636f6e7472616360008201527f74206f776e65722063616e20696e697469617465206120726566756e64000000602082015250565b600061441f603d83612e87565b915061442a826143c3565b604082019050919050565b6000602082019050818103600083015261444e81614412565b9050919050565b7f4e6f20726566756e6420617661696c61626c6520666f72207468697320696e7660008201527f6573746f72000000000000000000000000000000000000000000000000000000602082015250565b60006144b1602583612e87565b91506144bc82614455565b604082019050919050565b600060208201905081810360008301526144e0816144a4565b905091905056fea2646970667358221220e4d2dd85db3fb3ffdda0f224f75b288ca7aa4fd1a42d8617b1de9298b0a6e64f64736f6c634300081a0033",
					"opcodes": "PUSH1 0x80 PUSH1 0x40 MSTORE CALLVALUE DUP1 ISZERO PUSH2 0x10 JUMPI PUSH1 0x0 DUP1 REVERT JUMPDEST POP PUSH1 0x40 MLOAD PUSH2 0x462E CODESIZE SUB DUP1 PUSH2 0x462E DUP4 CODECOPY DUP2 DUP2 ADD PUSH1 0x40 MSTORE DUP2 ADD SWAP1 PUSH2 0x32 SWAP2 SWAP1 PUSH2 0xD5 JUMP JUMPDEST CALLER PUSH1 0x0 DUP1 PUSH2 0x100 EXP DUP2 SLOAD DUP2 PUSH20 0xFFFFFFFFFFFFFFFFFFFFFFFFFFFFFFFFFFFFFFFF MUL NOT AND SWAP1 DUP4 PUSH20 0xFFFFFFFFFFFFFFFFFFFFFFFFFFFFFFFFFFFFFFFF AND MUL OR SWAP1 SSTORE POP DUP1 PUSH1 0x1 DUP2 SWAP1 SSTORE POP PUSH1 0x1 PUSH1 0x9 PUSH1 0x0 PUSH2 0x100 EXP DUP2 SLOAD DUP2 PUSH1 0xFF MUL NOT AND SWAP1 DUP4 ISZERO ISZERO MUL OR SWAP1 SSTORE POP POP PUSH2 0x102 JUMP JUMPDEST PUSH1 0x0 DUP1 REVERT JUMPDEST PUSH1 0x0 DUP2 SWAP1 POP SWAP2 SWAP1 POP JUMP JUMPDEST PUSH2 0xB2 DUP2 PUSH2 0x9F JUMP JUMPDEST DUP2 EQ PUSH2 0xBD JUMPI PUSH1 0x0 DUP1 REVERT JUMPDEST POP JUMP JUMPDEST PUSH1 0x0 DUP2 MLOAD SWAP1 POP PUSH2 0xCF DUP2 PUSH2 0xA9 JUMP JUMPDEST SWAP3 SWAP2 POP POP JUMP JUMPDEST PUSH1 0x0 PUSH1 0x20 DUP3 DUP5 SUB SLT ISZERO PUSH2 0xEB JUMPI PUSH2 0xEA PUSH2 0x9A JUMP JUMPDEST JUMPDEST PUSH1 0x0 PUSH2 0xF9 DUP5 DUP3 DUP6 ADD PUSH2 0xC0 JUMP JUMPDEST SWAP2 POP POP SWAP3 SWAP2 POP POP JUMP JUMPDEST PUSH2 0x451D DUP1 PUSH2 0x111 PUSH1 0x0 CODECOPY PUSH1 0x0 RETURN INVALID PUSH1 0x80 PUSH1 0x40 MSTORE PUSH1 0x4 CALLDATASIZE LT PUSH2 0x14B JUMPI PUSH1 0x0 CALLDATALOAD PUSH1 0xE0 SHR DUP1 PUSH4 0x8DA5CB5B GT PUSH2 0xB6 JUMPI DUP1 PUSH4 0xBD424EE7 GT PUSH2 0x6F JUMPI DUP1 PUSH4 0xBD424EE7 EQ PUSH2 0x447 JUMPI DUP1 PUSH4 0xC0751BA4 EQ PUSH2 0x484 JUMPI DUP1 PUSH4 0xC362B156 EQ PUSH2 0x4AF JUMPI DUP1 PUSH4 0xDE564098 EQ PUSH2 0x4DA JUMPI DUP1 PUSH4 0xED68B685 EQ PUSH2 0x505 JUMPI DUP1 PUSH4 0xFF53C5A3 EQ PUSH2 0x542 JUMPI PUSH2 0x14B JUMP JUMPDEST DUP1 PUSH4 0x8DA5CB5B EQ PUSH2 0x324 JUMPI DUP1 PUSH4 0x9553F180 EQ PUSH2 0x34F JUMPI DUP1 PUSH4 0xA6F9DAE1 EQ PUSH2 0x378 JUMPI DUP1 PUSH4 0xAD59BE99 EQ PUSH2 0x3A1 JUMPI DUP1 PUSH4 0xB41EAD0A EQ PUSH2 0x3CC JUMPI DUP1 PUSH4 0xBC3DA535 EQ PUSH2 0x40A JUMPI PUSH2 0x14B JUMP JUMPDEST DUP1 PUSH4 0x476343EE GT PUSH2 0x108 JUMPI DUP1 PUSH4 0x476343EE EQ PUSH2 0x238 JUMPI DUP1 PUSH4 0x60C6D8AE EQ PUSH2 0x24F JUMPI DUP1 PUSH4 0x626E1AE7 EQ PUSH2 0x27A JUMPI DUP1 PUSH4 0x63338B17 EQ PUSH2 0x2A5 JUMPI DUP1 PUSH4 0x8A5BE9B7 EQ PUSH2 0x2D0 JUMPI DUP1 PUSH4 0x8BC95413 EQ PUSH2 0x2FB JUMPI PUSH2 0x14B JUMP JUMPDEST DUP1 PUSH4 0x92A5CCE EQ PUSH2 0x150 JUMPI DUP1 PUSH4 0x141961BC EQ PUSH2 0x167 JUMPI DUP1 PUSH4 0x2B7393FB EQ PUSH2 0x1AC JUMPI DUP1 PUSH4 0x3020580B EQ PUSH2 0x1C8 JUMPI DUP1 PUSH4 0x3C3AE5B8 EQ PUSH2 0x1E4 JUMPI DUP1 PUSH4 0x45598B4A EQ PUSH2 0x20F JUMPI JUMPDEST PUSH1 0x0 DUP1 REVERT JUMPDEST CALLVALUE DUP1 ISZERO PUSH2 0x15C JUMPI PUSH1 0x0 DUP1 REVERT JUMPDEST POP PUSH2 0x165 PUSH2 0x56B JUMP JUMPDEST STOP JUMPDEST CALLVALUE DUP1 ISZERO PUSH2 0x173 JUMPI PUSH1 0x0 DUP1 REVERT JUMPDEST POP PUSH2 0x18E PUSH1 0x4 DUP1 CALLDATASIZE SUB DUP2 ADD SWAP1 PUSH2 0x189 SWAP2 SWAP1 PUSH2 0x2DFF JUMP JUMPDEST PUSH2 0x7B7 JUMP JUMPDEST PUSH1 0x40 MLOAD PUSH2 0x1A3 SWAP10 SWAP9 SWAP8 SWAP7 SWAP6 SWAP5 SWAP4 SWAP3 SWAP2 SWAP1 PUSH2 0x2F27 JUMP JUMPDEST PUSH1 0x40 MLOAD DUP1 SWAP2 SUB SWAP1 RETURN JUMPDEST PUSH2 0x1C6 PUSH1 0x4 DUP1 CALLDATASIZE SUB DUP2 ADD SWAP1 PUSH2 0x1C1 SWAP2 SWAP1 PUSH2 0x2FBB JUMP JUMPDEST PUSH2 0x8D4 JUMP JUMPDEST STOP JUMPDEST PUSH2 0x1E2 PUSH1 0x4 DUP1 CALLDATASIZE SUB DUP2 ADD SWAP1 PUSH2 0x1DD SWAP2 SWAP1 PUSH2 0x3130 JUMP JUMPDEST PUSH2 0xD87 JUMP JUMPDEST STOP JUMPDEST CALLVALUE DUP1 ISZERO PUSH2 0x1F0 JUMPI PUSH1 0x0 DUP1 REVERT JUMPDEST POP PUSH2 0x1F9 PUSH2 0x1098 JUMP JUMPDEST PUSH1 0x40 MLOAD PUSH2 0x206 SWAP2 SWAP1 PUSH2 0x3388 JUMP JUMPDEST PUSH1 0x40 MLOAD DUP1 SWAP2 SUB SWAP1 RETURN JUMPDEST CALLVALUE DUP1 ISZERO PUSH2 0x21B JUMPI PUSH1 0x0 DUP1 REVERT JUMPDEST POP PUSH2 0x236 PUSH1 0x4 DUP1 CALLDATASIZE SUB DUP2 ADD SWAP1 PUSH2 0x231 SWAP2 SWAP1 PUSH2 0x2DFF JUMP JUMPDEST PUSH2 0x1402 JUMP JUMPDEST STOP JUMPDEST CALLVALUE DUP1 ISZERO PUSH2 0x244 JUMPI PUSH1 0x0 DUP1 REVERT JUMPDEST POP PUSH2 0x24D PUSH2 0x17AF JUMP JUMPDEST STOP JUMPDEST CALLVALUE DUP1 ISZERO PUSH2 0x25B JUMPI PUSH1 0x0 DUP1 REVERT JUMPDEST POP PUSH2 0x264 PUSH2 0x196F JUMP JUMPDEST PUSH1 0x40 MLOAD PUSH2 0x271 SWAP2 SWAP1 PUSH2 0x33AA JUMP JUMPDEST PUSH1 0x40 MLOAD DUP1 SWAP2 SUB SWAP1 RETURN JUMPDEST CALLVALUE DUP1 ISZERO PUSH2 0x286 JUMPI PUSH1 0x0 DUP1 REVERT JUMPDEST POP PUSH2 0x28F PUSH2 0x1975 JUMP JUMPDEST PUSH1 0x40 MLOAD PUSH2 0x29C SWAP2 SWAP1 PUSH2 0x33AA JUMP JUMPDEST PUSH1 0x40 MLOAD DUP1 SWAP2 SUB SWAP1 RETURN JUMPDEST CALLVALUE DUP1 ISZERO PUSH2 0x2B1 JUMPI PUSH1 0x0 DUP1 REVERT JUMPDEST POP PUSH2 0x2BA PUSH2 0x1A46 JUMP JUMPDEST PUSH1 0x40 MLOAD PUSH2 0x2C7 SWAP2 SWAP1 PUSH2 0x33AA JUMP JUMPDEST PUSH1 0x40 MLOAD DUP1 SWAP2 SUB SWAP1 RETURN JUMPDEST CALLVALUE DUP1 ISZERO PUSH2 0x2DC JUMPI PUSH1 0x0 DUP1 REVERT JUMPDEST POP PUSH2 0x2E5 PUSH2 0x1AD5 JUMP JUMPDEST PUSH1 0x40 MLOAD PUSH2 0x2F2 SWAP2 SWAP1 PUSH2 0x33AA JUMP JUMPDEST PUSH1 0x40 MLOAD DUP1 SWAP2 SUB SWAP1 RETURN JUMPDEST CALLVALUE DUP1 ISZERO PUSH2 0x307 JUMPI PUSH1 0x0 DUP1 REVERT JUMPDEST POP PUSH2 0x322 PUSH1 0x4 DUP1 CALLDATASIZE SUB DUP2 ADD SWAP1 PUSH2 0x31D SWAP2 SWAP1 PUSH2 0x33F1 JUMP JUMPDEST PUSH2 0x1ADB JUMP JUMPDEST STOP JUMPDEST CALLVALUE DUP1 ISZERO PUSH2 0x330 JUMPI PUSH1 0x0 DUP1 REVERT JUMPDEST POP PUSH2 0x339 PUSH2 0x1CCC JUMP JUMPDEST PUSH1 0x40 MLOAD PUSH2 0x346 SWAP2 SWAP1 PUSH2 0x341E JUMP JUMPDEST PUSH1 0x40 MLOAD DUP1 SWAP2 SUB SWAP1 RETURN JUMPDEST CALLVALUE DUP1 ISZERO PUSH2 0x35B JUMPI PUSH1 0x0 DUP1 REVERT JUMPDEST POP PUSH2 0x376 PUSH1 0x4 DUP1 CALLDATASIZE SUB DUP2 ADD SWAP1 PUSH2 0x371 SWAP2 SWAP1 PUSH2 0x2DFF JUMP JUMPDEST PUSH2 0x1CF0 JUMP JUMPDEST STOP JUMPDEST CALLVALUE DUP1 ISZERO PUSH2 0x384 JUMPI PUSH1 0x0 DUP1 REVERT JUMPDEST POP PUSH2 0x39F PUSH1 0x4 DUP1 CALLDATASIZE SUB DUP2 ADD SWAP1 PUSH2 0x39A SWAP2 SWAP1 PUSH2 0x33F1 JUMP JUMPDEST PUSH2 0x2078 JUMP JUMPDEST STOP JUMPDEST CALLVALUE DUP1 ISZERO PUSH2 0x3AD JUMPI PUSH1 0x0 DUP1 REVERT JUMPDEST POP PUSH2 0x3B6 PUSH2 0x21B8 JUMP JUMPDEST PUSH1 0x40 MLOAD PUSH2 0x3C3 SWAP2 SWAP1 PUSH2 0x33AA JUMP JUMPDEST PUSH1 0x40 MLOAD DUP1 SWAP2 SUB SWAP1 RETURN JUMPDEST CALLVALUE DUP1 ISZERO PUSH2 0x3D8 JUMPI PUSH1 0x0 DUP1 REVERT JUMPDEST POP PUSH2 0x3F3 PUSH1 0x4 DUP1 CALLDATASIZE SUB DUP2 ADD SWAP1 PUSH2 0x3EE SWAP2 SWAP1 PUSH2 0x2DFF JUMP JUMPDEST PUSH2 0x21BE JUMP JUMPDEST PUSH1 0x40 MLOAD PUSH2 0x401 SWAP3 SWAP2 SWAP1 PUSH2 0x3597 JUMP JUMPDEST PUSH1 0x40 MLOAD DUP1 SWAP2 SUB SWAP1 RETURN JUMPDEST CALLVALUE DUP1 ISZERO PUSH2 0x416 JUMPI PUSH1 0x0 DUP1 REVERT JUMPDEST POP PUSH2 0x431 PUSH1 0x4 DUP1 CALLDATASIZE SUB DUP2 ADD SWAP1 PUSH2 0x42C SWAP2 SWAP1 PUSH2 0x33F1 JUMP JUMPDEST PUSH2 0x23E2 JUMP JUMPDEST PUSH1 0x40 MLOAD PUSH2 0x43E SWAP2 SWAP1 PUSH2 0x33AA JUMP JUMPDEST PUSH1 0x40 MLOAD DUP1 SWAP2 SUB SWAP1 RETURN JUMPDEST CALLVALUE DUP1 ISZERO PUSH2 0x453 JUMPI PUSH1 0x0 DUP1 REVERT JUMPDEST POP PUSH2 0x46E PUSH1 0x4 DUP1 CALLDATASIZE SUB DUP2 ADD SWAP1 PUSH2 0x469 SWAP2 SWAP1 PUSH2 0x33F1 JUMP JUMPDEST PUSH2 0x23FA JUMP JUMPDEST PUSH1 0x40 MLOAD PUSH2 0x47B SWAP2 SWAP1 PUSH2 0x35CE JUMP JUMPDEST PUSH1 0x40 MLOAD DUP1 SWAP2 SUB SWAP1 RETURN JUMPDEST CALLVALUE DUP1 ISZERO PUSH2 0x490 JUMPI PUSH1 0x0 DUP1 REVERT JUMPDEST POP PUSH2 0x499 PUSH2 0x241A JUMP JUMPDEST PUSH1 0x40 MLOAD PUSH2 0x4A6 SWAP2 SWAP1 PUSH2 0x3388 JUMP JUMPDEST PUSH1 0x40 MLOAD DUP1 SWAP2 SUB SWAP1 RETURN JUMPDEST CALLVALUE DUP1 ISZERO PUSH2 0x4BB JUMPI PUSH1 0x0 DUP1 REVERT JUMPDEST POP PUSH2 0x4C4 PUSH2 0x2709 JUMP JUMPDEST PUSH1 0x40 MLOAD PUSH2 0x4D1 SWAP2 SWAP1 PUSH2 0x3388 JUMP JUMPDEST PUSH1 0x40 MLOAD DUP1 SWAP2 SUB SWAP1 RETURN JUMPDEST CALLVALUE DUP1 ISZERO PUSH2 0x4E6 JUMPI PUSH1 0x0 DUP1 REVERT JUMPDEST POP PUSH2 0x4EF PUSH2 0x2A75 JUMP JUMPDEST PUSH1 0x40 MLOAD PUSH2 0x4FC SWAP2 SWAP1 PUSH2 0x35E9 JUMP JUMPDEST PUSH1 0x40 MLOAD DUP1 SWAP2 SUB SWAP1 RETURN JUMPDEST CALLVALUE DUP1 ISZERO PUSH2 0x511 JUMPI PUSH1 0x0 DUP1 REVERT JUMPDEST POP PUSH2 0x52C PUSH1 0x4 DUP1 CALLDATASIZE SUB DUP2 ADD SWAP1 PUSH2 0x527 SWAP2 SWAP1 PUSH2 0x2DFF JUMP JUMPDEST PUSH2 0x2B03 JUMP JUMPDEST PUSH1 0x40 MLOAD PUSH2 0x539 SWAP2 SWAP1 PUSH2 0x341E JUMP JUMPDEST PUSH1 0x40 MLOAD DUP1 SWAP2 SUB SWAP1 RETURN JUMPDEST CALLVALUE DUP1 ISZERO PUSH2 0x54E JUMPI PUSH1 0x0 DUP1 REVERT JUMPDEST POP PUSH2 0x569 PUSH1 0x4 DUP1 CALLDATASIZE SUB DUP2 ADD SWAP1 PUSH2 0x564 SWAP2 SWAP1 PUSH2 0x33F1 JUMP JUMPDEST PUSH2 0x2B42 JUMP JUMPDEST STOP JUMPDEST PUSH1 0x0 DUP1 SLOAD SWAP1 PUSH2 0x100 EXP SWAP1 DIV PUSH20 0xFFFFFFFFFFFFFFFFFFFFFFFFFFFFFFFFFFFFFFFF AND PUSH20 0xFFFFFFFFFFFFFFFFFFFFFFFFFFFFFFFFFFFFFFFF AND CALLER PUSH20 0xFFFFFFFFFFFFFFFFFFFFFFFFFFFFFFFFFFFFFFFF AND EQ PUSH2 0x5F9 JUMPI PUSH1 0x40 MLOAD PUSH32 0x8C379A000000000000000000000000000000000000000000000000000000000 DUP2 MSTORE PUSH1 0x4 ADD PUSH2 0x5F0 SWAP1 PUSH2 0x367D JUMP JUMPDEST PUSH1 0x40 MLOAD DUP1 SWAP2 SUB SWAP1 REVERT JUMPDEST PUSH1 0x0 JUMPDEST PUSH1 0x3 SLOAD DUP2 LT ISZERO PUSH2 0x7B4 JUMPI PUSH1 0x0 PUSH1 0x4 PUSH1 0x0 DUP4 DUP2 MSTORE PUSH1 0x20 ADD SWAP1 DUP2 MSTORE PUSH1 0x20 ADD PUSH1 0x0 KECCAK256 SWAP1 POP DUP1 PUSH1 0x6 ADD PUSH1 0x1 SWAP1 SLOAD SWAP1 PUSH2 0x100 EXP SWAP1 DIV PUSH1 0xFF AND DUP1 PUSH2 0x648 JUMPI POP DUP1 PUSH1 0x6 ADD PUSH1 0x2 SWAP1 SLOAD SWAP1 PUSH2 0x100 EXP SWAP1 DIV PUSH1 0xFF AND JUMPDEST ISZERO PUSH2 0x653 JUMPI POP PUSH2 0x7A7 JUMP JUMPDEST PUSH1 0x0 DUP2 PUSH1 0x6 ADD PUSH1 0x0 PUSH2 0x100 EXP DUP2 SLOAD DUP2 PUSH1 0xFF MUL NOT AND SWAP1 DUP4 ISZERO ISZERO MUL OR SWAP1 SSTORE POP PUSH1 0x1 DUP2 PUSH1 0x6 ADD PUSH1 0x1 PUSH2 0x100 EXP DUP2 SLOAD DUP2 PUSH1 0xFF MUL NOT AND SWAP1 DUP4 ISZERO ISZERO MUL OR SWAP1 SSTORE POP PUSH1 0x0 JUMPDEST DUP2 PUSH1 0x7 ADD DUP1 SLOAD SWAP1 POP DUP2 LT ISZERO PUSH2 0x7A4 JUMPI PUSH1 0x0 DUP3 PUSH1 0x7 ADD DUP3 DUP2 SLOAD DUP2 LT PUSH2 0x6B7 JUMPI PUSH2 0x6B6 PUSH2 0x369D JUMP JUMPDEST JUMPDEST SWAP1 PUSH1 0x0 MSTORE PUSH1 0x20 PUSH1 0x0 KECCAK256 ADD PUSH1 0x0 SWAP1 SLOAD SWAP1 PUSH2 0x100 EXP SWAP1 DIV PUSH20 0xFFFFFFFFFFFFFFFFFFFFFFFFFFFFFFFFFFFFFFFF AND SWAP1 POP PUSH1 0x0 DUP4 PUSH1 0x8 ADD PUSH1 0x0 DUP4 PUSH20 0xFFFFFFFFFFFFFFFFFFFFFFFFFFFFFFFFFFFFFFFF AND PUSH20 0xFFFFFFFFFFFFFFFFFFFFFFFFFFFFFFFFFFFFFFFF AND DUP2 MSTORE PUSH1 0x20 ADD SWAP1 DUP2 MSTORE PUSH1 0x20 ADD PUSH1 0x0 KECCAK256 SLOAD SWAP1 POP PUSH1 0x0 DUP5 PUSH1 0x3 ADD SLOAD DUP3 PUSH2 0x73C SWAP2 SWAP1 PUSH2 0x36FB JUMP JUMPDEST SWAP1 POP DUP1 PUSH1 0x8 PUSH1 0x0 DUP6 PUSH20 0xFFFFFFFFFFFFFFFFFFFFFFFFFFFFFFFFFFFFFFFF AND PUSH20 0xFFFFFFFFFFFFFFFFFFFFFFFFFFFFFFFFFFFFFFFF AND DUP2 MSTORE PUSH1 0x20 ADD SWAP1 DUP2 MSTORE PUSH1 0x20 ADD PUSH1 0x0 KECCAK256 PUSH1 0x0 DUP3 DUP3 SLOAD PUSH2 0x78D SWAP2 SWAP1 PUSH2 0x373D JUMP JUMPDEST SWAP3 POP POP DUP2 SWAP1 SSTORE POP POP POP POP DUP1 DUP1 PUSH1 0x1 ADD SWAP2 POP POP PUSH2 0x690 JUMP JUMPDEST POP POP JUMPDEST DUP1 DUP1 PUSH1 0x1 ADD SWAP2 POP POP PUSH2 0x5FC JUMP JUMPDEST POP JUMP JUMPDEST PUSH1 0x4 PUSH1 0x20 MSTORE DUP1 PUSH1 0x0 MSTORE PUSH1 0x40 PUSH1 0x0 KECCAK256 PUSH1 0x0 SWAP2 POP SWAP1 POP DUP1 PUSH1 0x0 ADD SLOAD SWAP1 DUP1 PUSH1 0x1 ADD PUSH1 0x0 SWAP1 SLOAD SWAP1 PUSH2 0x100 EXP SWAP1 DIV PUSH20 0xFFFFFFFFFFFFFFFFFFFFFFFFFFFFFFFFFFFFFFFF AND SWAP1 DUP1 PUSH1 0x2 ADD DUP1 SLOAD PUSH2 0x806 SWAP1 PUSH2 0x37A0 JUMP JUMPDEST DUP1 PUSH1 0x1F ADD PUSH1 0x20 DUP1 SWAP2 DIV MUL PUSH1 0x20 ADD PUSH1 0x40 MLOAD SWAP1 DUP2 ADD PUSH1 0x40 MSTORE DUP1 SWAP3 SWAP2 SWAP1 DUP2 DUP2 MSTORE PUSH1 0x20 ADD DUP3 DUP1 SLOAD PUSH2 0x832 SWAP1 PUSH2 0x37A0 JUMP JUMPDEST DUP1 ISZERO PUSH2 0x87F JUMPI DUP1 PUSH1 0x1F LT PUSH2 0x854 JUMPI PUSH2 0x100 DUP1 DUP4 SLOAD DIV MUL DUP4 MSTORE SWAP2 PUSH1 0x20 ADD SWAP2 PUSH2 0x87F JUMP JUMPDEST DUP3 ADD SWAP2 SWAP1 PUSH1 0x0 MSTORE PUSH1 0x20 PUSH1 0x0 KECCAK256 SWAP1 JUMPDEST DUP2 SLOAD DUP2 MSTORE SWAP1 PUSH1 0x1 ADD SWAP1 PUSH1 0x20 ADD DUP1 DUP4 GT PUSH2 0x862 JUMPI DUP3 SWAP1 SUB PUSH1 0x1F AND DUP3 ADD SWAP2 JUMPDEST POP POP POP POP POP SWAP1 DUP1 PUSH1 0x3 ADD SLOAD SWAP1 DUP1 PUSH1 0x4 ADD SLOAD SWAP1 DUP1 PUSH1 0x5 ADD SLOAD SWAP1 DUP1 PUSH1 0x6 ADD PUSH1 0x0 SWAP1 SLOAD SWAP1 PUSH2 0x100 EXP SWAP1 DIV PUSH1 0xFF AND SWAP1 DUP1 PUSH1 0x6 ADD PUSH1 0x1 SWAP1 SLOAD SWAP1 PUSH2 0x100 EXP SWAP1 DIV PUSH1 0xFF AND SWAP1 DUP1 PUSH1 0x6 ADD PUSH1 0x2 SWAP1 SLOAD SWAP1 PUSH2 0x100 EXP SWAP1 DIV PUSH1 0xFF AND SWAP1 POP DUP10 JUMP JUMPDEST PUSH1 0x0 DUP1 SLOAD SWAP1 PUSH2 0x100 EXP SWAP1 DIV PUSH20 0xFFFFFFFFFFFFFFFFFFFFFFFFFFFFFFFFFFFFFFFF AND PUSH20 0xFFFFFFFFFFFFFFFFFFFFFFFFFFFFFFFFFFFFFFFF AND CALLER PUSH20 0xFFFFFFFFFFFFFFFFFFFFFFFFFFFFFFFFFFFFFFFF AND SUB PUSH2 0x962 JUMPI PUSH1 0x40 MLOAD PUSH32 0x8C379A000000000000000000000000000000000000000000000000000000000 DUP2 MSTORE PUSH1 0x4 ADD PUSH2 0x959 SWAP1 PUSH2 0x3843 JUMP JUMPDEST PUSH1 0x40 MLOAD DUP1 SWAP2 SUB SWAP1 REVERT JUMPDEST PUSH1 0x6 PUSH1 0x0 CALLER PUSH20 0xFFFFFFFFFFFFFFFFFFFFFFFFFFFFFFFFFFFFFFFF AND PUSH20 0xFFFFFFFFFFFFFFFFFFFFFFFFFFFFFFFFFFFFFFFF AND DUP2 MSTORE PUSH1 0x20 ADD SWAP1 DUP2 MSTORE PUSH1 0x20 ADD PUSH1 0x0 KECCAK256 PUSH1 0x0 SWAP1 SLOAD SWAP1 PUSH2 0x100 EXP SWAP1 DIV PUSH1 0xFF AND ISZERO PUSH2 0x9EF JUMPI PUSH1 0x40 MLOAD PUSH32 0x8C379A000000000000000000000000000000000000000000000000000000000 DUP2 MSTORE PUSH1 0x4 ADD PUSH2 0x9E6 SWAP1 PUSH2 0x38AF JUMP JUMPDEST PUSH1 0x40 MLOAD DUP1 SWAP2 SUB SWAP1 REVERT JUMPDEST DUP1 PUSH1 0x4 PUSH1 0x0 DUP3 DUP2 MSTORE PUSH1 0x20 ADD SWAP1 DUP2 MSTORE PUSH1 0x20 ADD PUSH1 0x0 KECCAK256 PUSH1 0x6 ADD PUSH1 0x0 SWAP1 SLOAD SWAP1 PUSH2 0x100 EXP SWAP1 DIV PUSH1 0xFF AND PUSH2 0xA53 JUMPI PUSH1 0x40 MLOAD PUSH32 0x8C379A000000000000000000000000000000000000000000000000000000000 DUP2 MSTORE PUSH1 0x4 ADD PUSH2 0xA4A SWAP1 PUSH2 0x391B JUMP JUMPDEST PUSH1 0x40 MLOAD DUP1 SWAP2 SUB SWAP1 REVERT JUMPDEST DUP2 PUSH1 0x4 PUSH1 0x0 DUP3 DUP2 MSTORE PUSH1 0x20 ADD SWAP1 DUP2 MSTORE PUSH1 0x20 ADD PUSH1 0x0 KECCAK256 PUSH1 0x6 ADD PUSH1 0x1 SWAP1 SLOAD SWAP1 PUSH2 0x100 EXP SWAP1 DIV PUSH1 0xFF AND ISZERO PUSH2 0xAB8 JUMPI PUSH1 0x40 MLOAD PUSH32 0x8C379A000000000000000000000000000000000000000000000000000000000 DUP2 MSTORE PUSH1 0x4 ADD PUSH2 0xAAF SWAP1 PUSH2 0x3987 JUMP JUMPDEST PUSH1 0x40 MLOAD DUP1 SWAP2 SUB SWAP1 REVERT JUMPDEST DUP3 PUSH1 0x4 PUSH1 0x0 DUP3 DUP2 MSTORE PUSH1 0x20 ADD SWAP1 DUP2 MSTORE PUSH1 0x20 ADD PUSH1 0x0 KECCAK256 PUSH1 0x6 ADD PUSH1 0x2 SWAP1 SLOAD SWAP1 PUSH2 0x100 EXP SWAP1 DIV PUSH1 0xFF AND ISZERO PUSH2 0xB1D JUMPI PUSH1 0x40 MLOAD PUSH32 0x8C379A000000000000000000000000000000000000000000000000000000000 DUP2 MSTORE PUSH1 0x4 ADD PUSH2 0xB14 SWAP1 PUSH2 0x39F3 JUMP JUMPDEST PUSH1 0x40 MLOAD DUP1 SWAP2 SUB SWAP1 REVERT JUMPDEST PUSH1 0x9 PUSH1 0x0 SWAP1 SLOAD SWAP1 PUSH2 0x100 EXP SWAP1 DIV PUSH1 0xFF AND PUSH2 0xB6C JUMPI PUSH1 0x40 MLOAD PUSH32 0x8C379A000000000000000000000000000000000000000000000000000000000 DUP2 MSTORE PUSH1 0x4 ADD PUSH2 0xB63 SWAP1 PUSH2 0x3A5F JUMP JUMPDEST PUSH1 0x40 MLOAD DUP1 SWAP2 SUB SWAP1 REVERT JUMPDEST PUSH1 0x0 PUSH1 0x4 PUSH1 0x0 DUP7 DUP2 MSTORE PUSH1 0x20 ADD SWAP1 DUP2 MSTORE PUSH1 0x20 ADD PUSH1 0x0 KECCAK256 SWAP1 POP DUP1 PUSH1 0x1 ADD PUSH1 0x0 SWAP1 SLOAD SWAP1 PUSH2 0x100 EXP SWAP1 DIV PUSH20 0xFFFFFFFFFFFFFFFFFFFFFFFFFFFFFFFFFFFFFFFF AND PUSH20 0xFFFFFFFFFFFFFFFFFFFFFFFFFFFFFFFFFFFFFFFF AND CALLER PUSH20 0xFFFFFFFFFFFFFFFFFFFFFFFFFFFFFFFFFFFFFFFF AND SUB PUSH2 0xC15 JUMPI PUSH1 0x40 MLOAD PUSH32 0x8C379A000000000000000000000000000000000000000000000000000000000 DUP2 MSTORE PUSH1 0x4 ADD PUSH2 0xC0C SWAP1 PUSH2 0x3ACB JUMP JUMPDEST PUSH1 0x40 MLOAD DUP1 SWAP2 SUB SWAP1 REVERT JUMPDEST PUSH1 0x0 DUP7 DUP3 PUSH1 0x3 ADD SLOAD PUSH2 0xC27 SWAP2 SWAP1 PUSH2 0x36FB JUMP JUMPDEST SWAP1 POP DUP1 CALLVALUE EQ PUSH2 0xC6B JUMPI PUSH1 0x40 MLOAD PUSH32 0x8C379A000000000000000000000000000000000000000000000000000000000 DUP2 MSTORE PUSH1 0x4 ADD PUSH2 0xC62 SWAP1 PUSH2 0x3B37 JUMP JUMPDEST PUSH1 0x40 MLOAD DUP1 SWAP2 SUB SWAP1 REVERT JUMPDEST DUP7 DUP3 PUSH1 0x5 ADD PUSH1 0x0 DUP3 DUP3 SLOAD PUSH2 0xC7F SWAP2 SWAP1 PUSH2 0x373D JUMP JUMPDEST SWAP3 POP POP DUP2 SWAP1 SSTORE POP DUP7 DUP3 PUSH1 0x8 ADD PUSH1 0x0 CALLER PUSH20 0xFFFFFFFFFFFFFFFFFFFFFFFFFFFFFFFFFFFFFFFF AND PUSH20 0xFFFFFFFFFFFFFFFFFFFFFFFFFFFFFFFFFFFFFFFF AND DUP2 MSTORE PUSH1 0x20 ADD SWAP1 DUP2 MSTORE PUSH1 0x20 ADD PUSH1 0x0 KECCAK256 PUSH1 0x0 DUP3 DUP3 SLOAD PUSH2 0xCD7 SWAP2 SWAP1 PUSH2 0x373D JUMP JUMPDEST SWAP3 POP POP DUP2 SWAP1 SSTORE POP DUP2 PUSH1 0x7 ADD CALLER SWAP1 DUP1 PUSH1 0x1 DUP2 SLOAD ADD DUP1 DUP3 SSTORE DUP1 SWAP2 POP POP PUSH1 0x1 SWAP1 SUB SWAP1 PUSH1 0x0 MSTORE PUSH1 0x20 PUSH1 0x0 KECCAK256 ADD PUSH1 0x0 SWAP1 SWAP2 SWAP1 SWAP2 SWAP1 SWAP2 PUSH2 0x100 EXP DUP2 SLOAD DUP2 PUSH20 0xFFFFFFFFFFFFFFFFFFFFFFFFFFFFFFFFFFFFFFFF MUL NOT AND SWAP1 DUP4 PUSH20 0xFFFFFFFFFFFFFFFFFFFFFFFFFFFFFFFFFFFFFFFF AND MUL OR SWAP1 SSTORE POP PUSH32 0xD4A7A37D339805413B4085E0F8E0932DFB0A4F84F08F98A6E53673B5EE8EEE15 DUP7 CALLER DUP10 PUSH1 0x40 MLOAD PUSH2 0xD76 SWAP4 SWAP3 SWAP2 SWAP1 PUSH2 0x3B57 JUMP JUMPDEST PUSH1 0x40 MLOAD DUP1 SWAP2 SUB SWAP1 LOG1 POP POP POP POP POP POP POP JUMP JUMPDEST PUSH1 0x0 DUP1 SLOAD SWAP1 PUSH2 0x100 EXP SWAP1 DIV PUSH20 0xFFFFFFFFFFFFFFFFFFFFFFFFFFFFFFFFFFFFFFFF AND PUSH20 0xFFFFFFFFFFFFFFFFFFFFFFFFFFFFFFFFFFFFFFFF AND CALLER PUSH20 0xFFFFFFFFFFFFFFFFFFFFFFFFFFFFFFFFFFFFFFFF AND SUB PUSH2 0xE15 JUMPI PUSH1 0x40 MLOAD PUSH32 0x8C379A000000000000000000000000000000000000000000000000000000000 DUP2 MSTORE PUSH1 0x4 ADD PUSH2 0xE0C SWAP1 PUSH2 0x3843 JUMP JUMPDEST PUSH1 0x40 MLOAD DUP1 SWAP2 SUB SWAP1 REVERT JUMPDEST PUSH1 0x6 PUSH1 0x0 CALLER PUSH20 0xFFFFFFFFFFFFFFFFFFFFFFFFFFFFFFFFFFFFFFFF AND PUSH20 0xFFFFFFFFFFFFFFFFFFFFFFFFFFFFFFFFFFFFFFFF AND DUP2 MSTORE PUSH1 0x20 ADD SWAP1 DUP2 MSTORE PUSH1 0x20 ADD PUSH1 0x0 KECCAK256 PUSH1 0x0 SWAP1 SLOAD SWAP1 PUSH2 0x100 EXP SWAP1 DIV PUSH1 0xFF AND ISZERO PUSH2 0xEA2 JUMPI PUSH1 0x40 MLOAD PUSH32 0x8C379A000000000000000000000000000000000000000000000000000000000 DUP2 MSTORE PUSH1 0x4 ADD PUSH2 0xE99 SWAP1 PUSH2 0x38AF JUMP JUMPDEST PUSH1 0x40 MLOAD DUP1 SWAP2 SUB SWAP1 REVERT JUMPDEST PUSH1 0x1 SLOAD CALLVALUE EQ PUSH2 0xEE6 JUMPI PUSH1 0x40 MLOAD PUSH32 0x8C379A000000000000000000000000000000000000000000000000000000000 DUP2 MSTORE PUSH1 0x4 ADD PUSH2 0xEDD SWAP1 PUSH2 0x3BDA JUMP JUMPDEST PUSH1 0x40 MLOAD DUP1 SWAP2 SUB SWAP1 REVERT JUMPDEST DUP1 PUSH1 0x0 DUP2 GT PUSH2 0xF2A JUMPI PUSH1 0x40 MLOAD PUSH32 0x8C379A000000000000000000000000000000000000000000000000000000000 DUP2 MSTORE PUSH1 0x4 ADD PUSH2 0xF21 SWAP1 PUSH2 0x3C6C JUMP JUMPDEST PUSH1 0x40 MLOAD DUP1 SWAP2 SUB SWAP1 REVERT JUMPDEST PUSH1 0x9 PUSH1 0x0 SWAP1 SLOAD SWAP1 PUSH2 0x100 EXP SWAP1 DIV PUSH1 0xFF AND PUSH2 0xF79 JUMPI PUSH1 0x40 MLOAD PUSH32 0x8C379A000000000000000000000000000000000000000000000000000000000 DUP2 MSTORE PUSH1 0x4 ADD PUSH2 0xF70 SWAP1 PUSH2 0x3A5F JUMP JUMPDEST PUSH1 0x40 MLOAD DUP1 SWAP2 SUB SWAP1 REVERT JUMPDEST PUSH1 0x0 PUSH1 0x4 PUSH1 0x0 PUSH1 0x3 SLOAD DUP2 MSTORE PUSH1 0x20 ADD SWAP1 DUP2 MSTORE PUSH1 0x20 ADD PUSH1 0x0 KECCAK256 SWAP1 POP PUSH1 0x3 SLOAD DUP2 PUSH1 0x0 ADD DUP2 SWAP1 SSTORE POP CALLER DUP2 PUSH1 0x1 ADD PUSH1 0x0 PUSH2 0x100 EXP DUP2 SLOAD DUP2 PUSH20 0xFFFFFFFFFFFFFFFFFFFFFFFFFFFFFFFFFFFFFFFF MUL NOT AND SWAP1 DUP4 PUSH20 0xFFFFFFFFFFFFFFFFFFFFFFFFFFFFFFFFFFFFFFFF AND MUL OR SWAP1 SSTORE POP DUP5 DUP2 PUSH1 0x2 ADD SWAP1 DUP2 PUSH2 0xFF1 SWAP2 SWAP1 PUSH2 0x3E38 JUMP JUMPDEST POP DUP4 DUP2 PUSH1 0x3 ADD DUP2 SWAP1 SSTORE POP DUP3 DUP2 PUSH1 0x4 ADD DUP2 SWAP1 SSTORE POP PUSH1 0x1 DUP2 PUSH1 0x6 ADD PUSH1 0x0 PUSH2 0x100 EXP DUP2 SLOAD DUP2 PUSH1 0xFF MUL NOT AND SWAP1 DUP4 ISZERO ISZERO MUL OR SWAP1 SSTORE POP PUSH1 0x3 PUSH1 0x0 DUP2 SLOAD DUP1 SWAP3 SWAP2 SWAP1 PUSH2 0x1034 SWAP1 PUSH2 0x3F0A JUMP JUMPDEST SWAP2 SWAP1 POP SSTORE POP PUSH1 0x1 SLOAD PUSH1 0x2 PUSH1 0x0 DUP3 DUP3 SLOAD PUSH2 0x104D SWAP2 SWAP1 PUSH2 0x373D JUMP JUMPDEST SWAP3 POP POP DUP2 SWAP1 SSTORE POP PUSH32 0xC04C663886CAE794DC52158F70FE6C8EE3B0140D4F48647282F9B693FF688A65 PUSH1 0x3 SLOAD CALLER DUP8 PUSH1 0x40 MLOAD PUSH2 0x1089 SWAP4 SWAP3 SWAP2 SWAP1 PUSH2 0x3F52 JUMP JUMPDEST PUSH1 0x40 MLOAD DUP1 SWAP2 SUB SWAP1 LOG1 POP POP POP POP POP JUMP JUMPDEST PUSH1 0x60 PUSH1 0x0 DUP1 JUMPDEST PUSH1 0x3 SLOAD DUP2 LT ISZERO PUSH2 0x111A JUMPI PUSH1 0x4 PUSH1 0x0 DUP3 DUP2 MSTORE PUSH1 0x20 ADD SWAP1 DUP2 MSTORE PUSH1 0x20 ADD PUSH1 0x0 KECCAK256 PUSH1 0x6 ADD PUSH1 0x2 SWAP1 SLOAD SWAP1 PUSH2 0x100 EXP SWAP1 DIV PUSH1 0xFF AND DUP1 ISZERO PUSH2 0x10F9 JUMPI POP PUSH1 0x4 PUSH1 0x0 DUP3 DUP2 MSTORE PUSH1 0x20 ADD SWAP1 DUP2 MSTORE PUSH1 0x20 ADD PUSH1 0x0 KECCAK256 PUSH1 0x6 ADD PUSH1 0x1 SWAP1 SLOAD SWAP1 PUSH2 0x100 EXP SWAP1 DIV PUSH1 0xFF AND ISZERO JUMPDEST ISZERO PUSH2 0x110D JUMPI DUP2 DUP1 PUSH2 0x1109 SWAP1 PUSH2 0x3F0A JUMP JUMPDEST SWAP3 POP POP JUMPDEST DUP1 DUP1 PUSH1 0x1 ADD SWAP2 POP POP PUSH2 0x109E JUMP JUMPDEST POP PUSH1 0x0 DUP2 PUSH8 0xFFFFFFFFFFFFFFFF DUP2 GT ISZERO PUSH2 0x1137 JUMPI PUSH2 0x1136 PUSH2 0x3005 JUMP JUMPDEST JUMPDEST PUSH1 0x40 MLOAD SWAP1 DUP1 DUP3 MSTORE DUP1 PUSH1 0x20 MUL PUSH1 0x20 ADD DUP3 ADD PUSH1 0x40 MSTORE DUP1 ISZERO PUSH2 0x1170 JUMPI DUP2 PUSH1 0x20 ADD JUMPDEST PUSH2 0x115D PUSH2 0x2D56 JUMP JUMPDEST DUP2 MSTORE PUSH1 0x20 ADD SWAP1 PUSH1 0x1 SWAP1 SUB SWAP1 DUP2 PUSH2 0x1155 JUMPI SWAP1 POP JUMPDEST POP SWAP1 POP PUSH1 0x0 DUP1 JUMPDEST PUSH1 0x3 SLOAD DUP2 LT ISZERO PUSH2 0x13F8 JUMPI PUSH1 0x4 PUSH1 0x0 DUP3 DUP2 MSTORE PUSH1 0x20 ADD SWAP1 DUP2 MSTORE PUSH1 0x20 ADD PUSH1 0x0 KECCAK256 PUSH1 0x6 ADD PUSH1 0x2 SWAP1 SLOAD SWAP1 PUSH2 0x100 EXP SWAP1 DIV PUSH1 0xFF AND DUP1 ISZERO PUSH2 0x11D2 JUMPI POP PUSH1 0x4 PUSH1 0x0 DUP3 DUP2 MSTORE PUSH1 0x20 ADD SWAP1 DUP2 MSTORE PUSH1 0x20 ADD PUSH1 0x0 KECCAK256 PUSH1 0x6 ADD PUSH1 0x1 SWAP1 SLOAD SWAP1 PUSH2 0x100 EXP SWAP1 DIV PUSH1 0xFF AND ISZERO JUMPDEST ISZERO PUSH2 0x13EB JUMPI PUSH1 0x40 MLOAD DUP1 PUSH2 0x100 ADD PUSH1 0x40 MSTORE DUP1 PUSH1 0x4 PUSH1 0x0 DUP5 DUP2 MSTORE PUSH1 0x20 ADD SWAP1 DUP2 MSTORE PUSH1 0x20 ADD PUSH1 0x0 KECCAK256 PUSH1 0x0 ADD SLOAD DUP2 MSTORE PUSH1 0x20 ADD PUSH1 0x4 PUSH1 0x0 DUP5 DUP2 MSTORE PUSH1 0x20 ADD SWAP1 DUP2 MSTORE PUSH1 0x20 ADD PUSH1 0x0 KECCAK256 PUSH1 0x1 ADD PUSH1 0x0 SWAP1 SLOAD SWAP1 PUSH2 0x100 EXP SWAP1 DIV PUSH20 0xFFFFFFFFFFFFFFFFFFFFFFFFFFFFFFFFFFFFFFFF AND PUSH20 0xFFFFFFFFFFFFFFFFFFFFFFFFFFFFFFFFFFFFFFFF AND DUP2 MSTORE PUSH1 0x20 ADD PUSH1 0x4 PUSH1 0x0 DUP5 DUP2 MSTORE PUSH1 0x20 ADD SWAP1 DUP2 MSTORE PUSH1 0x20 ADD PUSH1 0x0 KECCAK256 PUSH1 0x2 ADD DUP1 SLOAD PUSH2 0x1272 SWAP1 PUSH2 0x37A0 JUMP JUMPDEST DUP1 PUSH1 0x1F ADD PUSH1 0x20 DUP1 SWAP2 DIV MUL PUSH1 0x20 ADD PUSH1 0x40 MLOAD SWAP1 DUP2 ADD PUSH1 0x40 MSTORE DUP1 SWAP3 SWAP2 SWAP1 DUP2 DUP2 MSTORE PUSH1 0x20 ADD DUP3 DUP1 SLOAD PUSH2 0x129E SWAP1 PUSH2 0x37A0 JUMP JUMPDEST DUP1 ISZERO PUSH2 0x12EB JUMPI DUP1 PUSH1 0x1F LT PUSH2 0x12C0 JUMPI PUSH2 0x100 DUP1 DUP4 SLOAD DIV MUL DUP4 MSTORE SWAP2 PUSH1 0x20 ADD SWAP2 PUSH2 0x12EB JUMP JUMPDEST DUP3 ADD SWAP2 SWAP1 PUSH1 0x0 MSTORE PUSH1 0x20 PUSH1 0x0 KECCAK256 SWAP1 JUMPDEST DUP2 SLOAD DUP2 MSTORE SWAP1 PUSH1 0x1 ADD SWAP1 PUSH1 0x20 ADD DUP1 DUP4 GT PUSH2 0x12CE JUMPI DUP3 SWAP1 SUB PUSH1 0x1F AND DUP3 ADD SWAP2 JUMPDEST POP POP POP POP POP DUP2 MSTORE PUSH1 0x20 ADD PUSH1 0x4 PUSH1 0x0 DUP5 DUP2 MSTORE PUSH1 0x20 ADD SWAP1 DUP2 MSTORE PUSH1 0x20 ADD PUSH1 0x0 KECCAK256 PUSH1 0x3 ADD SLOAD DUP2 MSTORE PUSH1 0x20 ADD PUSH1 0x4 PUSH1 0x0 DUP5 DUP2 MSTORE PUSH1 0x20 ADD SWAP1 DUP2 MSTORE PUSH1 0x20 ADD PUSH1 0x0 KECCAK256 PUSH1 0x5 ADD SLOAD PUSH1 0x4 PUSH1 0x0 DUP6 DUP2 MSTORE PUSH1 0x20 ADD SWAP1 DUP2 MSTORE PUSH1 0x20 ADD PUSH1 0x0 KECCAK256 PUSH1 0x4 ADD SLOAD PUSH2 0x1349 SWAP2 SWAP1 PUSH2 0x3F90 JUMP JUMPDEST DUP2 MSTORE PUSH1 0x20 ADD PUSH1 0x4 PUSH1 0x0 DUP5 DUP2 MSTORE PUSH1 0x20 ADD SWAP1 DUP2 MSTORE PUSH1 0x20 ADD PUSH1 0x0 KECCAK256 PUSH1 0x5 ADD SLOAD DUP2 MSTORE PUSH1 0x20 ADD PUSH1 0x4 PUSH1 0x0 DUP5 DUP2 MSTORE PUSH1 0x20 ADD SWAP1 DUP2 MSTORE PUSH1 0x20 ADD PUSH1 0x0 KECCAK256 PUSH1 0x6 ADD PUSH1 0x2 SWAP1 SLOAD SWAP1 PUSH2 0x100 EXP SWAP1 DIV PUSH1 0xFF AND ISZERO ISZERO DUP2 MSTORE PUSH1 0x20 ADD PUSH1 0x4 PUSH1 0x0 DUP5 DUP2 MSTORE PUSH1 0x20 ADD SWAP1 DUP2 MSTORE PUSH1 0x20 ADD PUSH1 0x0 KECCAK256 PUSH1 0x6 ADD PUSH1 0x1 SWAP1 SLOAD SWAP1 PUSH2 0x100 EXP SWAP1 DIV PUSH1 0xFF AND ISZERO ISZERO DUP2 MSTORE POP DUP4 DUP4 DUP2 MLOAD DUP2 LT PUSH2 0x13D1 JUMPI PUSH2 0x13D0 PUSH2 0x369D JUMP JUMPDEST JUMPDEST PUSH1 0x20 MUL PUSH1 0x20 ADD ADD DUP2 SWAP1 MSTORE POP DUP2 DUP1 PUSH2 0x13E7 SWAP1 PUSH2 0x3F0A JUMP JUMPDEST SWAP3 POP POP JUMPDEST DUP1 DUP1 PUSH1 0x1 ADD SWAP2 POP POP PUSH2 0x1177 JUMP JUMPDEST POP DUP2 SWAP4 POP POP POP POP SWAP1 JUMP JUMPDEST DUP1 PUSH1 0x4 PUSH1 0x0 DUP3 DUP2 MSTORE PUSH1 0x20 ADD SWAP1 DUP2 MSTORE PUSH1 0x20 ADD PUSH1 0x0 KECCAK256 PUSH1 0x6 ADD PUSH1 0x0 SWAP1 SLOAD SWAP1 PUSH2 0x100 EXP SWAP1 DIV PUSH1 0xFF AND PUSH2 0x1466 JUMPI PUSH1 0x40 MLOAD PUSH32 0x8C379A000000000000000000000000000000000000000000000000000000000 DUP2 MSTORE PUSH1 0x4 ADD PUSH2 0x145D SWAP1 PUSH2 0x391B JUMP JUMPDEST PUSH1 0x40 MLOAD DUP1 SWAP2 SUB SWAP1 REVERT JUMPDEST DUP2 PUSH1 0x4 PUSH1 0x0 DUP3 DUP2 MSTORE PUSH1 0x20 ADD SWAP1 DUP2 MSTORE PUSH1 0x20 ADD PUSH1 0x0 KECCAK256 PUSH1 0x6 ADD PUSH1 0x2 SWAP1 SLOAD SWAP1 PUSH2 0x100 EXP SWAP1 DIV PUSH1 0xFF AND ISZERO PUSH2 0x14CB JUMPI PUSH1 0x40 MLOAD PUSH32 0x8C379A000000000000000000000000000000000000000000000000000000000 DUP2 MSTORE PUSH1 0x4 ADD PUSH2 0x14C2 SWAP1 PUSH2 0x39F3 JUMP JUMPDEST PUSH1 0x40 MLOAD DUP1 SWAP2 SUB SWAP1 REVERT JUMPDEST PUSH1 0x9 PUSH1 0x0 SWAP1 SLOAD SWAP1 PUSH2 0x100 EXP SWAP1 DIV PUSH1 0xFF AND PUSH2 0x151A JUMPI PUSH1 0x40 MLOAD PUSH32 0x8C379A000000000000000000000000000000000000000000000000000000000 DUP2 MSTORE PUSH1 0x4 ADD PUSH2 0x1511 SWAP1 PUSH2 0x3A5F JUMP JUMPDEST PUSH1 0x40 MLOAD DUP1 SWAP2 SUB SWAP1 REVERT JUMPDEST PUSH1 0x0 PUSH1 0x4 PUSH1 0x0 DUP6 DUP2 MSTORE PUSH1 0x20 ADD SWAP1 DUP2 MSTORE PUSH1 0x20 ADD PUSH1 0x0 KECCAK256 SWAP1 POP DUP1 PUSH1 0x1 ADD PUSH1 0x0 SWAP1 SLOAD SWAP1 PUSH2 0x100 EXP SWAP1 DIV PUSH20 0xFFFFFFFFFFFFFFFFFFFFFFFFFFFFFFFFFFFFFFFF AND PUSH20 0xFFFFFFFFFFFFFFFFFFFFFFFFFFFFFFFFFFFFFFFF AND CALLER PUSH20 0xFFFFFFFFFFFFFFFFFFFFFFFFFFFFFFFFFFFFFFFF AND EQ DUP1 PUSH2 0x15DA JUMPI POP PUSH1 0x0 DUP1 SLOAD SWAP1 PUSH2 0x100 EXP SWAP1 DIV PUSH20 0xFFFFFFFFFFFFFFFFFFFFFFFFFFFFFFFFFFFFFFFF AND PUSH20 0xFFFFFFFFFFFFFFFFFFFFFFFFFFFFFFFFFFFFFFFF AND CALLER PUSH20 0xFFFFFFFFFFFFFFFFFFFFFFFFFFFFFFFFFFFFFFFF AND EQ JUMPDEST PUSH2 0x1619 JUMPI PUSH1 0x40 MLOAD PUSH32 0x8C379A000000000000000000000000000000000000000000000000000000000 DUP2 MSTORE PUSH1 0x4 ADD PUSH2 0x1610 SWAP1 PUSH2 0x4036 JUMP JUMPDEST PUSH1 0x40 MLOAD DUP1 SWAP2 SUB SWAP1 REVERT JUMPDEST PUSH1 0x0 DUP2 PUSH1 0x6 ADD PUSH1 0x0 PUSH2 0x100 EXP DUP2 SLOAD DUP2 PUSH1 0xFF MUL NOT AND SWAP1 DUP4 ISZERO ISZERO MUL OR SWAP1 SSTORE POP PUSH1 0x1 DUP2 PUSH1 0x6 ADD PUSH1 0x1 PUSH2 0x100 EXP DUP2 SLOAD DUP2 PUSH1 0xFF MUL NOT AND SWAP1 DUP4 ISZERO ISZERO MUL OR SWAP1 SSTORE POP PUSH1 0x0 JUMPDEST DUP2 PUSH1 0x7 ADD DUP1 SLOAD SWAP1 POP DUP2 LT ISZERO PUSH2 0x176A JUMPI PUSH1 0x0 DUP3 PUSH1 0x7 ADD DUP3 DUP2 SLOAD DUP2 LT PUSH2 0x167D JUMPI PUSH2 0x167C PUSH2 0x369D JUMP JUMPDEST JUMPDEST SWAP1 PUSH1 0x0 MSTORE PUSH1 0x20 PUSH1 0x0 KECCAK256 ADD PUSH1 0x0 SWAP1 SLOAD SWAP1 PUSH2 0x100 EXP SWAP1 DIV PUSH20 0xFFFFFFFFFFFFFFFFFFFFFFFFFFFFFFFFFFFFFFFF AND SWAP1 POP PUSH1 0x0 DUP4 PUSH1 0x8 ADD PUSH1 0x0 DUP4 PUSH20 0xFFFFFFFFFFFFFFFFFFFFFFFFFFFFFFFFFFFFFFFF AND PUSH20 0xFFFFFFFFFFFFFFFFFFFFFFFFFFFFFFFFFFFFFFFF AND DUP2 MSTORE PUSH1 0x20 ADD SWAP1 DUP2 MSTORE PUSH1 0x20 ADD PUSH1 0x0 KECCAK256 SLOAD SWAP1 POP PUSH1 0x0 DUP5 PUSH1 0x3 ADD SLOAD DUP3 PUSH2 0x1702 SWAP2 SWAP1 PUSH2 0x36FB JUMP JUMPDEST SWAP1 POP DUP1 PUSH1 0x8 PUSH1 0x0 DUP6 PUSH20 0xFFFFFFFFFFFFFFFFFFFFFFFFFFFFFFFFFFFFFFFF AND PUSH20 0xFFFFFFFFFFFFFFFFFFFFFFFFFFFFFFFFFFFFFFFF AND DUP2 MSTORE PUSH1 0x20 ADD SWAP1 DUP2 MSTORE PUSH1 0x20 ADD PUSH1 0x0 KECCAK256 PUSH1 0x0 DUP3 DUP3 SLOAD PUSH2 0x1753 SWAP2 SWAP1 PUSH2 0x373D JUMP JUMPDEST SWAP3 POP POP DUP2 SWAP1 SSTORE POP POP POP POP DUP1 DUP1 PUSH1 0x1 ADD SWAP2 POP POP PUSH2 0x1656 JUMP JUMPDEST POP PUSH32 0x57BF3FC7E1999F61D60BF6BF729B85A5423C5D0883A1629CF9794F2162AE2ABA DUP5 CALLER DUP4 PUSH1 0x2 ADD PUSH1 0x40 MLOAD PUSH2 0x17A1 SWAP4 SWAP3 SWAP2 SWAP1 PUSH2 0x40DA JUMP JUMPDEST PUSH1 0x40 MLOAD DUP1 SWAP2 SUB SWAP1 LOG1 POP POP POP POP JUMP JUMPDEST PUSH1 0x0 DUP1 SLOAD SWAP1 PUSH2 0x100 EXP SWAP1 DIV PUSH20 0xFFFFFFFFFFFFFFFFFFFFFFFFFFFFFFFFFFFFFFFF AND PUSH20 0xFFFFFFFFFFFFFFFFFFFFFFFFFFFFFFFFFFFFFFFF AND CALLER PUSH20 0xFFFFFFFFFFFFFFFFFFFFFFFFFFFFFFFFFFFFFFFF AND EQ PUSH2 0x183D JUMPI PUSH1 0x40 MLOAD PUSH32 0x8C379A000000000000000000000000000000000000000000000000000000000 DUP2 MSTORE PUSH1 0x4 ADD PUSH2 0x1834 SWAP1 PUSH2 0x367D JUMP JUMPDEST PUSH1 0x40 MLOAD DUP1 SWAP2 SUB SWAP1 REVERT JUMPDEST PUSH1 0x9 PUSH1 0x0 SWAP1 SLOAD SWAP1 PUSH2 0x100 EXP SWAP1 DIV PUSH1 0xFF AND PUSH2 0x188C JUMPI PUSH1 0x40 MLOAD PUSH32 0x8C379A000000000000000000000000000000000000000000000000000000000 DUP2 MSTORE PUSH1 0x4 ADD PUSH2 0x1883 SWAP1 PUSH2 0x3A5F JUMP JUMPDEST PUSH1 0x40 MLOAD DUP1 SWAP2 SUB SWAP1 REVERT JUMPDEST PUSH1 0x0 PUSH1 0x2 SLOAD SWAP1 POP PUSH1 0x0 PUSH1 0x2 DUP2 SWAP1 SSTORE POP PUSH1 0x0 DUP1 SLOAD SWAP1 PUSH2 0x100 EXP SWAP1 DIV PUSH20 0xFFFFFFFFFFFFFFFFFFFFFFFFFFFFFFFFFFFFFFFF AND PUSH20 0xFFFFFFFFFFFFFFFFFFFFFFFFFFFFFFFFFFFFFFFF AND PUSH2 0x8FC DUP3 SWAP1 DUP2 ISZERO MUL SWAP1 PUSH1 0x40 MLOAD PUSH1 0x0 PUSH1 0x40 MLOAD DUP1 DUP4 SUB DUP2 DUP6 DUP9 DUP9 CALL SWAP4 POP POP POP POP ISZERO DUP1 ISZERO PUSH2 0x1901 JUMPI RETURNDATASIZE PUSH1 0x0 DUP1 RETURNDATACOPY RETURNDATASIZE PUSH1 0x0 REVERT JUMPDEST POP PUSH1 0x0 SELFBALANCE SWAP1 POP PUSH32 0xC0819C13BE868895EB93E40EACEB96DE976442FA1D404E5C55F14BB65A8C489A PUSH1 0x0 DUP1 SLOAD SWAP1 PUSH2 0x100 EXP SWAP1 DIV PUSH20 0xFFFFFFFFFFFFFFFFFFFFFFFFFFFFFFFFFFFFFFFF AND DUP3 DUP5 PUSH2 0x1955 SWAP2 SWAP1 PUSH2 0x373D JUMP JUMPDEST PUSH1 0x40 MLOAD PUSH2 0x1963 SWAP3 SWAP2 SWAP1 PUSH2 0x4118 JUMP JUMPDEST PUSH1 0x40 MLOAD DUP1 SWAP2 SUB SWAP1 LOG1 POP POP JUMP JUMPDEST PUSH1 0x2 SLOAD DUP2 JUMP JUMPDEST PUSH1 0x0 DUP1 PUSH1 0x1 SLOAD PUSH1 0x3 SLOAD PUSH2 0x1988 SWAP2 SWAP1 PUSH2 0x36FB JUMP JUMPDEST SWAP1 POP PUSH1 0x0 DUP1 JUMPDEST PUSH1 0x3 SLOAD DUP2 LT ISZERO PUSH2 0x1A32 JUMPI PUSH1 0x4 PUSH1 0x0 DUP3 DUP2 MSTORE PUSH1 0x20 ADD SWAP1 DUP2 MSTORE PUSH1 0x20 ADD PUSH1 0x0 KECCAK256 PUSH1 0x6 ADD PUSH1 0x2 SWAP1 SLOAD SWAP1 PUSH2 0x100 EXP SWAP1 DIV PUSH1 0xFF AND ISZERO PUSH2 0x1A25 JUMPI PUSH1 0x0 PUSH1 0x4 PUSH1 0x0 DUP4 DUP2 MSTORE PUSH1 0x20 ADD SWAP1 DUP2 MSTORE PUSH1 0x20 ADD PUSH1 0x0 KECCAK256 PUSH1 0x3 ADD SLOAD PUSH1 0x4 PUSH1 0x0 DUP5 DUP2 MSTORE PUSH1 0x20 ADD SWAP1 DUP2 MSTORE PUSH1 0x20 ADD PUSH1 0x0 KECCAK256 PUSH1 0x4 ADD SLOAD PUSH2 0x19FB SWAP2 SWAP1 PUSH2 0x36FB JUMP JUMPDEST SWAP1 POP PUSH1 0x64 PUSH1 0x14 DUP3 PUSH2 0x1A0C SWAP2 SWAP1 PUSH2 0x36FB JUMP JUMPDEST PUSH2 0x1A16 SWAP2 SWAP1 PUSH2 0x4170 JUMP JUMPDEST DUP4 PUSH2 0x1A21 SWAP2 SWAP1 PUSH2 0x373D JUMP JUMPDEST SWAP3 POP POP JUMPDEST DUP1 DUP1 PUSH1 0x1 ADD SWAP2 POP POP PUSH2 0x198E JUMP JUMPDEST POP DUP1 DUP3 PUSH2 0x1A3F SWAP2 SWAP1 PUSH2 0x373D JUMP JUMPDEST SWAP3 POP POP POP SWAP1 JUMP JUMPDEST PUSH1 0x0 DUP1 PUSH1 0x0 SWAP1 POP PUSH1 0x0 JUMPDEST PUSH1 0x3 SLOAD DUP2 LT ISZERO PUSH2 0x1ACD JUMPI PUSH1 0x4 PUSH1 0x0 DUP3 DUP2 MSTORE PUSH1 0x20 ADD SWAP1 DUP2 MSTORE PUSH1 0x20 ADD PUSH1 0x0 KECCAK256 PUSH1 0x6 ADD PUSH1 0x2 SWAP1 SLOAD SWAP1 PUSH2 0x100 EXP SWAP1 DIV PUSH1 0xFF AND ISZERO DUP1 ISZERO PUSH2 0x1AAC JUMPI POP PUSH1 0x4 PUSH1 0x0 DUP3 DUP2 MSTORE PUSH1 0x20 ADD SWAP1 DUP2 MSTORE PUSH1 0x20 ADD PUSH1 0x0 KECCAK256 PUSH1 0x6 ADD PUSH1 0x1 SWAP1 SLOAD SWAP1 PUSH2 0x100 EXP SWAP1 DIV PUSH1 0xFF AND ISZERO JUMPDEST ISZERO PUSH2 0x1AC0 JUMPI DUP2 DUP1 PUSH2 0x1ABC SWAP1 PUSH2 0x3F0A JUMP JUMPDEST SWAP3 POP POP JUMPDEST DUP1 DUP1 PUSH1 0x1 ADD SWAP2 POP POP PUSH2 0x1A50 JUMP JUMPDEST POP DUP1 SWAP2 POP POP SWAP1 JUMP JUMPDEST PUSH1 0x1 SLOAD DUP2 JUMP JUMPDEST PUSH1 0x0 DUP1 SLOAD SWAP1 PUSH2 0x100 EXP SWAP1 DIV PUSH20 0xFFFFFFFFFFFFFFFFFFFFFFFFFFFFFFFFFFFFFFFF AND PUSH20 0xFFFFFFFFFFFFFFFFFFFFFFFFFFFFFFFFFFFFFFFF AND CALLER PUSH20 0xFFFFFFFFFFFFFFFFFFFFFFFFFFFFFFFFFFFFFFFF AND EQ PUSH2 0x1B69 JUMPI PUSH1 0x40 MLOAD PUSH32 0x8C379A000000000000000000000000000000000000000000000000000000000 DUP2 MSTORE PUSH1 0x4 ADD PUSH2 0x1B60 SWAP1 PUSH2 0x367D JUMP JUMPDEST PUSH1 0x40 MLOAD DUP1 SWAP2 SUB SWAP1 REVERT JUMPDEST PUSH1 0x6 PUSH1 0x0 CALLER PUSH20 0xFFFFFFFFFFFFFFFFFFFFFFFFFFFFFFFFFFFFFFFF AND PUSH20 0xFFFFFFFFFFFFFFFFFFFFFFFFFFFFFFFFFFFFFFFF AND DUP2 MSTORE PUSH1 0x20 ADD SWAP1 DUP2 MSTORE PUSH1 0x20 ADD PUSH1 0x0 KECCAK256 PUSH1 0x0 SWAP1 SLOAD SWAP1 PUSH2 0x100 EXP SWAP1 DIV PUSH1 0xFF AND ISZERO PUSH2 0x1BF6 JUMPI PUSH1 0x40 MLOAD PUSH32 0x8C379A000000000000000000000000000000000000000000000000000000000 DUP2 MSTORE PUSH1 0x4 ADD PUSH2 0x1BED SWAP1 PUSH2 0x38AF JUMP JUMPDEST PUSH1 0x40 MLOAD DUP1 SWAP2 SUB SWAP1 REVERT JUMPDEST PUSH1 0x1 PUSH1 0x6 PUSH1 0x0 DUP4 PUSH20 0xFFFFFFFFFFFFFFFFFFFFFFFFFFFFFFFFFFFFFFFF AND PUSH20 0xFFFFFFFFFFFFFFFFFFFFFFFFFFFFFFFFFFFFFFFF AND DUP2 MSTORE PUSH1 0x20 ADD SWAP1 DUP2 MSTORE PUSH1 0x20 ADD PUSH1 0x0 KECCAK256 PUSH1 0x0 PUSH2 0x100 EXP DUP2 SLOAD DUP2 PUSH1 0xFF MUL NOT AND SWAP1 DUP4 ISZERO ISZERO MUL OR SWAP1 SSTORE POP PUSH1 0x7 DUP2 SWAP1 DUP1 PUSH1 0x1 DUP2 SLOAD ADD DUP1 DUP3 SSTORE DUP1 SWAP2 POP POP PUSH1 0x1 SWAP1 SUB SWAP1 PUSH1 0x0 MSTORE PUSH1 0x20 PUSH1 0x0 KECCAK256 ADD PUSH1 0x0 SWAP1 SWAP2 SWAP1 SWAP2 SWAP1 SWAP2 PUSH2 0x100 EXP DUP2 SLOAD DUP2 PUSH20 0xFFFFFFFFFFFFFFFFFFFFFFFFFFFFFFFFFFFFFFFF MUL NOT AND SWAP1 DUP4 PUSH20 0xFFFFFFFFFFFFFFFFFFFFFFFFFFFFFFFFFFFFFFFF AND MUL OR SWAP1 SSTORE POP PUSH1 0x5 PUSH1 0x0 DUP2 SLOAD DUP1 SWAP3 SWAP2 SWAP1 PUSH2 0x1CC4 SWAP1 PUSH2 0x3F0A JUMP JUMPDEST SWAP2 SWAP1 POP SSTORE POP POP JUMP JUMPDEST PUSH1 0x0 DUP1 SLOAD SWAP1 PUSH2 0x100 EXP SWAP1 DIV PUSH20 0xFFFFFFFFFFFFFFFFFFFFFFFFFFFFFFFFFFFFFFFF AND DUP2 JUMP JUMPDEST DUP1 PUSH1 0x4 PUSH1 0x0 DUP3 DUP2 MSTORE PUSH1 0x20 ADD SWAP1 DUP2 MSTORE PUSH1 0x20 ADD PUSH1 0x0 KECCAK256 PUSH1 0x6 ADD PUSH1 0x0 SWAP1 SLOAD SWAP1 PUSH2 0x100 EXP SWAP1 DIV PUSH1 0xFF AND PUSH2 0x1D54 JUMPI PUSH1 0x40 MLOAD PUSH32 0x8C379A000000000000000000000000000000000000000000000000000000000 DUP2 MSTORE PUSH1 0x4 ADD PUSH2 0x1D4B SWAP1 PUSH2 0x391B JUMP JUMPDEST PUSH1 0x40 MLOAD DUP1 SWAP2 SUB SWAP1 REVERT JUMPDEST DUP2 PUSH1 0x4 PUSH1 0x0 DUP3 DUP2 MSTORE PUSH1 0x20 ADD SWAP1 DUP2 MSTORE PUSH1 0x20 ADD PUSH1 0x0 KECCAK256 PUSH1 0x6 ADD PUSH1 0x1 SWAP1 SLOAD SWAP1 PUSH2 0x100 EXP SWAP1 DIV PUSH1 0xFF AND ISZERO PUSH2 0x1DB9 JUMPI PUSH1 0x40 MLOAD PUSH32 0x8C379A000000000000000000000000000000000000000000000000000000000 DUP2 MSTORE PUSH1 0x4 ADD PUSH2 0x1DB0 SWAP1 PUSH2 0x3987 JUMP JUMPDEST PUSH1 0x40 MLOAD DUP1 SWAP2 SUB SWAP1 REVERT JUMPDEST PUSH1 0x9 PUSH1 0x0 SWAP1 SLOAD SWAP1 PUSH2 0x100 EXP SWAP1 DIV PUSH1 0xFF AND PUSH2 0x1E08 JUMPI PUSH1 0x40 MLOAD PUSH32 0x8C379A000000000000000000000000000000000000000000000000000000000 DUP2 MSTORE PUSH1 0x4 ADD PUSH2 0x1DFF SWAP1 PUSH2 0x3A5F JUMP JUMPDEST PUSH1 0x40 MLOAD DUP1 SWAP2 SUB SWAP1 REVERT JUMPDEST PUSH1 0x0 PUSH1 0x4 PUSH1 0x0 DUP6 DUP2 MSTORE PUSH1 0x20 ADD SWAP1 DUP2 MSTORE PUSH1 0x20 ADD PUSH1 0x0 KECCAK256 SWAP1 POP DUP1 PUSH1 0x1 ADD PUSH1 0x0 SWAP1 SLOAD SWAP1 PUSH2 0x100 EXP SWAP1 DIV PUSH20 0xFFFFFFFFFFFFFFFFFFFFFFFFFFFFFFFFFFFFFFFF AND PUSH20 0xFFFFFFFFFFFFFFFFFFFFFFFFFFFFFFFFFFFFFFFF AND CALLER PUSH20 0xFFFFFFFFFFFFFFFFFFFFFFFFFFFFFFFFFFFFFFFF AND EQ DUP1 PUSH2 0x1EC8 JUMPI POP PUSH1 0x0 DUP1 SLOAD SWAP1 PUSH2 0x100 EXP SWAP1 DIV PUSH20 0xFFFFFFFFFFFFFFFFFFFFFFFFFFFFFFFFFFFFFFFF AND PUSH20 0xFFFFFFFFFFFFFFFFFFFFFFFFFFFFFFFFFFFFFFFF AND CALLER PUSH20 0xFFFFFFFFFFFFFFFFFFFFFFFFFFFFFFFFFFFFFFFF AND EQ JUMPDEST PUSH2 0x1F07 JUMPI PUSH1 0x40 MLOAD PUSH32 0x8C379A000000000000000000000000000000000000000000000000000000000 DUP2 MSTORE PUSH1 0x4 ADD PUSH2 0x1EFE SWAP1 PUSH2 0x4213 JUMP JUMPDEST PUSH1 0x40 MLOAD DUP1 SWAP2 SUB SWAP1 REVERT JUMPDEST DUP1 PUSH1 0x4 ADD SLOAD DUP2 PUSH1 0x5 ADD SLOAD LT ISZERO PUSH2 0x1F52 JUMPI PUSH1 0x40 MLOAD PUSH32 0x8C379A000000000000000000000000000000000000000000000000000000000 DUP2 MSTORE PUSH1 0x4 ADD PUSH2 0x1F49 SWAP1 PUSH2 0x42A5 JUMP JUMPDEST PUSH1 0x40 MLOAD DUP1 SWAP2 SUB SWAP1 REVERT JUMPDEST PUSH1 0x0 PUSH1 0x64 PUSH1 0x50 SELFBALANCE PUSH2 0x1F63 SWAP2 SWAP1 PUSH2 0x36FB JUMP JUMPDEST PUSH2 0x1F6D SWAP2 SWAP1 PUSH2 0x4170 JUMP JUMPDEST SWAP1 POP DUP2 PUSH1 0x1 ADD PUSH1 0x0 SWAP1 SLOAD SWAP1 PUSH2 0x100 EXP SWAP1 DIV PUSH20 0xFFFFFFFFFFFFFFFFFFFFFFFFFFFFFFFFFFFFFFFF AND PUSH20 0xFFFFFFFFFFFFFFFFFFFFFFFFFFFFFFFFFFFFFFFF AND PUSH2 0x8FC DUP3 SWAP1 DUP2 ISZERO MUL SWAP1 PUSH1 0x40 MLOAD PUSH1 0x0 PUSH1 0x40 MLOAD DUP1 DUP4 SUB DUP2 DUP6 DUP9 DUP9 CALL SWAP4 POP POP POP POP ISZERO DUP1 ISZERO PUSH2 0x1FD9 JUMPI RETURNDATASIZE PUSH1 0x0 DUP1 RETURNDATACOPY RETURNDATASIZE PUSH1 0x0 REVERT JUMPDEST POP PUSH1 0x64 PUSH1 0x14 SELFBALANCE PUSH2 0x1FE9 SWAP2 SWAP1 PUSH2 0x36FB JUMP JUMPDEST PUSH2 0x1FF3 SWAP2 SWAP1 PUSH2 0x4170 JUMP JUMPDEST PUSH1 0x2 DUP2 SWAP1 SSTORE POP PUSH1 0x0 DUP3 PUSH1 0x6 ADD PUSH1 0x0 PUSH2 0x100 EXP DUP2 SLOAD DUP2 PUSH1 0xFF MUL NOT AND SWAP1 DUP4 ISZERO ISZERO MUL OR SWAP1 SSTORE POP PUSH1 0x1 DUP3 PUSH1 0x6 ADD PUSH1 0x2 PUSH2 0x100 EXP DUP2 SLOAD DUP2 PUSH1 0xFF MUL NOT AND SWAP1 DUP4 ISZERO ISZERO MUL OR SWAP1 SSTORE POP PUSH32 0x8074EF78C691C15AC249EF0C702E350AFFE9388AFDBBAFD37C0D19703CD0C7DB DUP6 CALLER DUP5 PUSH1 0x2 ADD PUSH1 0x40 MLOAD PUSH2 0x2069 SWAP4 SWAP3 SWAP2 SWAP1 PUSH2 0x40DA JUMP JUMPDEST PUSH1 0x40 MLOAD DUP1 SWAP2 SUB SWAP1 LOG1 POP POP POP POP POP JUMP JUMPDEST PUSH1 0x0 DUP1 SLOAD SWAP1 PUSH2 0x100 EXP SWAP1 DIV PUSH20 0xFFFFFFFFFFFFFFFFFFFFFFFFFFFFFFFFFFFFFFFF AND PUSH20 0xFFFFFFFFFFFFFFFFFFFFFFFFFFFFFFFFFFFFFFFF AND CALLER PUSH20 0xFFFFFFFFFFFFFFFFFFFFFFFFFFFFFFFFFFFFFFFF AND EQ PUSH2 0x2106 JUMPI PUSH1 0x40 MLOAD PUSH32 0x8C379A000000000000000000000000000000000000000000000000000000000 DUP2 MSTORE PUSH1 0x4 ADD PUSH2 0x20FD SWAP1 PUSH2 0x367D JUMP JUMPDEST PUSH1 0x40 MLOAD DUP1 SWAP2 SUB SWAP1 REVERT JUMPDEST PUSH1 0x0 PUSH20 0xFFFFFFFFFFFFFFFFFFFFFFFFFFFFFFFFFFFFFFFF AND DUP2 PUSH20 0xFFFFFFFFFFFFFFFFFFFFFFFFFFFFFFFFFFFFFFFF AND SUB PUSH2 0x2175 JUMPI PUSH1 0x40 MLOAD PUSH32 0x8C379A000000000000000000000000000000000000000000000000000000000 DUP2 MSTORE PUSH1 0x4 ADD PUSH2 0x216C SWAP1 PUSH2 0x4337 JUMP JUMPDEST PUSH1 0x40 MLOAD DUP1 SWAP2 SUB SWAP1 REVERT JUMPDEST DUP1 PUSH1 0x0 DUP1 PUSH2 0x100 EXP DUP2 SLOAD DUP2 PUSH20 0xFFFFFFFFFFFFFFFFFFFFFFFFFFFFFFFFFFFFFFFF MUL NOT AND SWAP1 DUP4 PUSH20 0xFFFFFFFFFFFFFFFFFFFFFFFFFFFFFFFFFFFFFFFF AND MUL OR SWAP1 SSTORE POP POP JUMP JUMPDEST PUSH1 0x5 SLOAD DUP2 JUMP JUMPDEST PUSH1 0x60 DUP1 DUP3 PUSH1 0x0 DUP2 GT DUP1 ISZERO PUSH2 0x21D4 JUMPI POP PUSH1 0x3 SLOAD DUP2 GT ISZERO JUMPDEST PUSH2 0x2213 JUMPI PUSH1 0x40 MLOAD PUSH32 0x8C379A000000000000000000000000000000000000000000000000000000000 DUP2 MSTORE PUSH1 0x4 ADD PUSH2 0x220A SWAP1 PUSH2 0x43A3 JUMP JUMPDEST PUSH1 0x40 MLOAD DUP1 SWAP2 SUB SWAP1 REVERT JUMPDEST PUSH1 0x0 PUSH1 0x4 PUSH1 0x0 DUP7 DUP2 MSTORE PUSH1 0x20 ADD SWAP1 DUP2 MSTORE PUSH1 0x20 ADD PUSH1 0x0 KECCAK256 SWAP1 POP PUSH1 0x0 DUP2 PUSH1 0x7 ADD DUP1 SLOAD SWAP1 POP SWAP1 POP DUP1 PUSH8 0xFFFFFFFFFFFFFFFF DUP2 GT ISZERO PUSH2 0x2250 JUMPI PUSH2 0x224F PUSH2 0x3005 JUMP JUMPDEST JUMPDEST PUSH1 0x40 MLOAD SWAP1 DUP1 DUP3 MSTORE DUP1 PUSH1 0x20 MUL PUSH1 0x20 ADD DUP3 ADD PUSH1 0x40 MSTORE DUP1 ISZERO PUSH2 0x227E JUMPI DUP2 PUSH1 0x20 ADD PUSH1 0x20 DUP3 MUL DUP1 CALLDATASIZE DUP4 CALLDATACOPY DUP1 DUP3 ADD SWAP2 POP POP SWAP1 POP JUMPDEST POP SWAP5 POP DUP1 PUSH8 0xFFFFFFFFFFFFFFFF DUP2 GT ISZERO PUSH2 0x229B JUMPI PUSH2 0x229A PUSH2 0x3005 JUMP JUMPDEST JUMPDEST PUSH1 0x40 MLOAD SWAP1 DUP1 DUP3 MSTORE DUP1 PUSH1 0x20 MUL PUSH1 0x20 ADD DUP3 ADD PUSH1 0x40 MSTORE DUP1 ISZERO PUSH2 0x22C9 JUMPI DUP2 PUSH1 0x20 ADD PUSH1 0x20 DUP3 MUL DUP1 CALLDATASIZE DUP4 CALLDATACOPY DUP1 DUP3 ADD SWAP2 POP POP SWAP1 POP JUMPDEST POP SWAP4 POP PUSH1 0x0 JUMPDEST DUP2 DUP2 LT ISZERO PUSH2 0x23D9 JUMPI PUSH1 0x0 DUP4 PUSH1 0x7 ADD DUP3 DUP2 SLOAD DUP2 LT PUSH2 0x22EF JUMPI PUSH2 0x22EE PUSH2 0x369D JUMP JUMPDEST JUMPDEST SWAP1 PUSH1 0x0 MSTORE PUSH1 0x20 PUSH1 0x0 KECCAK256 ADD PUSH1 0x0 SWAP1 SLOAD SWAP1 PUSH2 0x100 EXP SWAP1 DIV PUSH20 0xFFFFFFFFFFFFFFFFFFFFFFFFFFFFFFFFFFFFFFFF AND SWAP1 POP DUP1 DUP8 DUP4 DUP2 MLOAD DUP2 LT PUSH2 0x2330 JUMPI PUSH2 0x232F PUSH2 0x369D JUMP JUMPDEST JUMPDEST PUSH1 0x20 MUL PUSH1 0x20 ADD ADD SWAP1 PUSH20 0xFFFFFFFFFFFFFFFFFFFFFFFFFFFFFFFFFFFFFFFF AND SWAP1 DUP2 PUSH20 0xFFFFFFFFFFFFFFFFFFFFFFFFFFFFFFFFFFFFFFFF AND DUP2 MSTORE POP POP DUP4 PUSH1 0x8 ADD PUSH1 0x0 DUP3 PUSH20 0xFFFFFFFFFFFFFFFFFFFFFFFFFFFFFFFFFFFFFFFF AND PUSH20 0xFFFFFFFFFFFFFFFFFFFFFFFFFFFFFFFFFFFFFFFF AND DUP2 MSTORE PUSH1 0x20 ADD SWAP1 DUP2 MSTORE PUSH1 0x20 ADD PUSH1 0x0 KECCAK256 SLOAD DUP7 DUP4 DUP2 MLOAD DUP2 LT PUSH2 0x23BF JUMPI PUSH2 0x23BE PUSH2 0x369D JUMP JUMPDEST JUMPDEST PUSH1 0x20 MUL PUSH1 0x20 ADD ADD DUP2 DUP2 MSTORE POP POP POP DUP1 DUP1 PUSH1 0x1 ADD SWAP2 POP POP PUSH2 0x22CF JUMP JUMPDEST POP POP POP POP SWAP2 POP SWAP2 JUMP JUMPDEST PUSH1 0x8 PUSH1 0x20 MSTORE DUP1 PUSH1 0x0 MSTORE PUSH1 0x40 PUSH1 0x0 KECCAK256 PUSH1 0x0 SWAP2 POP SWAP1 POP SLOAD DUP2 JUMP JUMPDEST PUSH1 0x6 PUSH1 0x20 MSTORE DUP1 PUSH1 0x0 MSTORE PUSH1 0x40 PUSH1 0x0 KECCAK256 PUSH1 0x0 SWAP2 POP SLOAD SWAP1 PUSH2 0x100 EXP SWAP1 DIV PUSH1 0xFF AND DUP2 JUMP JUMPDEST PUSH1 0x60 PUSH1 0x0 DUP1 JUMPDEST PUSH1 0x3 SLOAD DUP2 LT ISZERO PUSH2 0x246F JUMPI PUSH1 0x4 PUSH1 0x0 DUP3 DUP2 MSTORE PUSH1 0x20 ADD SWAP1 DUP2 MSTORE PUSH1 0x20 ADD PUSH1 0x0 KECCAK256 PUSH1 0x6 ADD PUSH1 0x1 SWAP1 SLOAD SWAP1 PUSH2 0x100 EXP SWAP1 DIV PUSH1 0xFF AND ISZERO PUSH2 0x2462 JUMPI DUP2 DUP1 PUSH2 0x245E SWAP1 PUSH2 0x3F0A JUMP JUMPDEST SWAP3 POP POP JUMPDEST DUP1 DUP1 PUSH1 0x1 ADD SWAP2 POP POP PUSH2 0x2420 JUMP JUMPDEST POP PUSH1 0x0 DUP2 PUSH8 0xFFFFFFFFFFFFFFFF DUP2 GT ISZERO PUSH2 0x248C JUMPI PUSH2 0x248B PUSH2 0x3005 JUMP JUMPDEST JUMPDEST PUSH1 0x40 MLOAD SWAP1 DUP1 DUP3 MSTORE DUP1 PUSH1 0x20 MUL PUSH1 0x20 ADD DUP3 ADD PUSH1 0x40 MSTORE DUP1 ISZERO PUSH2 0x24C5 JUMPI DUP2 PUSH1 0x20 ADD JUMPDEST PUSH2 0x24B2 PUSH2 0x2D56 JUMP JUMPDEST DUP2 MSTORE PUSH1 0x20 ADD SWAP1 PUSH1 0x1 SWAP1 SUB SWAP1 DUP2 PUSH2 0x24AA JUMPI SWAP1 POP JUMPDEST POP SWAP1 POP PUSH1 0x0 DUP1 JUMPDEST PUSH1 0x3 SLOAD DUP2 LT ISZERO PUSH2 0x26FF JUMPI PUSH1 0x4 PUSH1 0x0 DUP3 DUP2 MSTORE PUSH1 0x20 ADD SWAP1 DUP2 MSTORE PUSH1 0x20 ADD PUSH1 0x0 KECCAK256 PUSH1 0x6 ADD PUSH1 0x1 SWAP1 SLOAD SWAP1 PUSH2 0x100 EXP SWAP1 DIV PUSH1 0xFF AND ISZERO PUSH2 0x26F2 JUMPI PUSH1 0x40 MLOAD DUP1 PUSH2 0x100 ADD PUSH1 0x40 MSTORE DUP1 PUSH1 0x4 PUSH1 0x0 DUP5 DUP2 MSTORE PUSH1 0x20 ADD SWAP1 DUP2 MSTORE PUSH1 0x20 ADD PUSH1 0x0 KECCAK256 PUSH1 0x0 ADD SLOAD DUP2 MSTORE PUSH1 0x20 ADD PUSH1 0x4 PUSH1 0x0 DUP5 DUP2 MSTORE PUSH1 0x20 ADD SWAP1 DUP2 MSTORE PUSH1 0x20 ADD PUSH1 0x0 KECCAK256 PUSH1 0x1 ADD PUSH1 0x0 SWAP1 SLOAD SWAP1 PUSH2 0x100 EXP SWAP1 DIV PUSH20 0xFFFFFFFFFFFFFFFFFFFFFFFFFFFFFFFFFFFFFFFF AND PUSH20 0xFFFFFFFFFFFFFFFFFFFFFFFFFFFFFFFFFFFFFFFF AND DUP2 MSTORE PUSH1 0x20 ADD PUSH1 0x4 PUSH1 0x0 DUP5 DUP2 MSTORE PUSH1 0x20 ADD SWAP1 DUP2 MSTORE PUSH1 0x20 ADD PUSH1 0x0 KECCAK256 PUSH1 0x2 ADD DUP1 SLOAD PUSH2 0x259A SWAP1 PUSH2 0x37A0 JUMP JUMPDEST DUP1 PUSH1 0x1F ADD PUSH1 0x20 DUP1 SWAP2 DIV MUL PUSH1 0x20 ADD PUSH1 0x40 MLOAD SWAP1 DUP2 ADD PUSH1 0x40 MSTORE DUP1 SWAP3 SWAP2 SWAP1 DUP2 DUP2 MSTORE PUSH1 0x20 ADD DUP3 DUP1 SLOAD PUSH2 0x25C6 SWAP1 PUSH2 0x37A0 JUMP JUMPDEST DUP1 ISZERO PUSH2 0x2613 JUMPI DUP1 PUSH1 0x1F LT PUSH2 0x25E8 JUMPI PUSH2 0x100 DUP1 DUP4 SLOAD DIV MUL DUP4 MSTORE SWAP2 PUSH1 0x20 ADD SWAP2 PUSH2 0x2613 JUMP JUMPDEST DUP3 ADD SWAP2 SWAP1 PUSH1 0x0 MSTORE PUSH1 0x20 PUSH1 0x0 KECCAK256 SWAP1 JUMPDEST DUP2 SLOAD DUP2 MSTORE SWAP1 PUSH1 0x1 ADD SWAP1 PUSH1 0x20 ADD DUP1 DUP4 GT PUSH2 0x25F6 JUMPI DUP3 SWAP1 SUB PUSH1 0x1F AND DUP3 ADD SWAP2 JUMPDEST POP POP POP POP POP DUP2 MSTORE PUSH1 0x20 ADD PUSH1 0x4 PUSH1 0x0 DUP5 DUP2 MSTORE PUSH1 0x20 ADD SWAP1 DUP2 MSTORE PUSH1 0x20 ADD PUSH1 0x0 KECCAK256 PUSH1 0x3 ADD SLOAD DUP2 MSTORE PUSH1 0x20 ADD PUSH1 0x4 PUSH1 0x0 DUP5 DUP2 MSTORE PUSH1 0x20 ADD SWAP1 DUP2 MSTORE PUSH1 0x20 ADD PUSH1 0x0 KECCAK256 PUSH1 0x4 ADD SLOAD DUP2 MSTORE PUSH1 0x20 ADD PUSH1 0x4 PUSH1 0x0 DUP5 DUP2 MSTORE PUSH1 0x20 ADD SWAP1 DUP2 MSTORE PUSH1 0x20 ADD PUSH1 0x0 KECCAK256 PUSH1 0x5 ADD SLOAD DUP2 MSTORE PUSH1 0x20 ADD PUSH1 0x4 PUSH1 0x0 DUP5 DUP2 MSTORE PUSH1 0x20 ADD SWAP1 DUP2 MSTORE PUSH1 0x20 ADD PUSH1 0x0 KECCAK256 PUSH1 0x6 ADD PUSH1 0x2 SWAP1 SLOAD SWAP1 PUSH2 0x100 EXP SWAP1 DIV PUSH1 0xFF AND ISZERO ISZERO DUP2 MSTORE PUSH1 0x20 ADD PUSH1 0x4 PUSH1 0x0 DUP5 DUP2 MSTORE PUSH1 0x20 ADD SWAP1 DUP2 MSTORE PUSH1 0x20 ADD PUSH1 0x0 KECCAK256 PUSH1 0x6 ADD PUSH1 0x1 SWAP1 SLOAD SWAP1 PUSH2 0x100 EXP SWAP1 DIV PUSH1 0xFF AND ISZERO ISZERO DUP2 MSTORE POP DUP4 DUP4 DUP2 MLOAD DUP2 LT PUSH2 0x26D8 JUMPI PUSH2 0x26D7 PUSH2 0x369D JUMP JUMPDEST JUMPDEST PUSH1 0x20 MUL PUSH1 0x20 ADD ADD DUP2 SWAP1 MSTORE POP DUP2 DUP1 PUSH2 0x26EE SWAP1 PUSH2 0x3F0A JUMP JUMPDEST SWAP3 POP POP JUMPDEST DUP1 DUP1 PUSH1 0x1 ADD SWAP2 POP POP PUSH2 0x24CC JUMP JUMPDEST POP DUP2 SWAP4 POP POP POP POP SWAP1 JUMP JUMPDEST PUSH1 0x60 PUSH1 0x0 DUP1 JUMPDEST PUSH1 0x3 SLOAD DUP2 LT ISZERO PUSH2 0x278C JUMPI PUSH1 0x4 PUSH1 0x0 DUP3 DUP2 MSTORE PUSH1 0x20 ADD SWAP1 DUP2 MSTORE PUSH1 0x20 ADD PUSH1 0x0 KECCAK256 PUSH1 0x6 ADD PUSH1 0x2 SWAP1 SLOAD SWAP1 PUSH2 0x100 EXP SWAP1 DIV PUSH1 0xFF AND ISZERO DUP1 ISZERO PUSH2 0x276B JUMPI POP PUSH1 0x4 PUSH1 0x0 DUP3 DUP2 MSTORE PUSH1 0x20 ADD SWAP1 DUP2 MSTORE PUSH1 0x20 ADD PUSH1 0x0 KECCAK256 PUSH1 0x6 ADD PUSH1 0x1 SWAP1 SLOAD SWAP1 PUSH2 0x100 EXP SWAP1 DIV PUSH1 0xFF AND ISZERO JUMPDEST ISZERO PUSH2 0x277F JUMPI DUP2 DUP1 PUSH2 0x277B SWAP1 PUSH2 0x3F0A JUMP JUMPDEST SWAP3 POP POP JUMPDEST DUP1 DUP1 PUSH1 0x1 ADD SWAP2 POP POP PUSH2 0x270F JUMP JUMPDEST POP PUSH1 0x0 DUP2 PUSH8 0xFFFFFFFFFFFFFFFF DUP2 GT ISZERO PUSH2 0x27A9 JUMPI PUSH2 0x27A8 PUSH2 0x3005 JUMP JUMPDEST JUMPDEST PUSH1 0x40 MLOAD SWAP1 DUP1 DUP3 MSTORE DUP1 PUSH1 0x20 MUL PUSH1 0x20 ADD DUP3 ADD PUSH1 0x40 MSTORE DUP1 ISZERO PUSH2 0x27E2 JUMPI DUP2 PUSH1 0x20 ADD JUMPDEST PUSH2 0x27CF PUSH2 0x2D56 JUMP JUMPDEST DUP2 MSTORE PUSH1 0x20 ADD SWAP1 PUSH1 0x1 SWAP1 SUB SWAP1 DUP2 PUSH2 0x27C7 JUMPI SWAP1 POP JUMPDEST POP SWAP1 POP PUSH1 0x0 DUP1 JUMPDEST PUSH1 0x3 SLOAD DUP2 LT ISZERO PUSH2 0x2A6B JUMPI PUSH1 0x4 PUSH1 0x0 DUP3 DUP2 MSTORE PUSH1 0x20 ADD SWAP1 DUP2 MSTORE PUSH1 0x20 ADD PUSH1 0x0 KECCAK256 PUSH1 0x6 ADD PUSH1 0x2 SWAP1 SLOAD SWAP1 PUSH2 0x100 EXP SWAP1 DIV PUSH1 0xFF AND ISZERO DUP1 ISZERO PUSH2 0x2845 JUMPI POP PUSH1 0x4 PUSH1 0x0 DUP3 DUP2 MSTORE PUSH1 0x20 ADD SWAP1 DUP2 MSTORE PUSH1 0x20 ADD PUSH1 0x0 KECCAK256 PUSH1 0x6 ADD PUSH1 0x1 SWAP1 SLOAD SWAP1 PUSH2 0x100 EXP SWAP1 DIV PUSH1 0xFF AND ISZERO JUMPDEST ISZERO PUSH2 0x2A5E JUMPI PUSH1 0x40 MLOAD DUP1 PUSH2 0x100 ADD PUSH1 0x40 MSTORE DUP1 PUSH1 0x4 PUSH1 0x0 DUP5 DUP2 MSTORE PUSH1 0x20 ADD SWAP1 DUP2 MSTORE PUSH1 0x20 ADD PUSH1 0x0 KECCAK256 PUSH1 0x0 ADD SLOAD DUP2 MSTORE PUSH1 0x20 ADD PUSH1 0x4 PUSH1 0x0 DUP5 DUP2 MSTORE PUSH1 0x20 ADD SWAP1 DUP2 MSTORE PUSH1 0x20 ADD PUSH1 0x0 KECCAK256 PUSH1 0x1 ADD PUSH1 0x0 SWAP1 SLOAD SWAP1 PUSH2 0x100 EXP SWAP1 DIV PUSH20 0xFFFFFFFFFFFFFFFFFFFFFFFFFFFFFFFFFFFFFFFF AND PUSH20 0xFFFFFFFFFFFFFFFFFFFFFFFFFFFFFFFFFFFFFFFF AND DUP2 MSTORE PUSH1 0x20 ADD PUSH1 0x4 PUSH1 0x0 DUP5 DUP2 MSTORE PUSH1 0x20 ADD SWAP1 DUP2 MSTORE PUSH1 0x20 ADD PUSH1 0x0 KECCAK256 PUSH1 0x2 ADD DUP1 SLOAD PUSH2 0x28E5 SWAP1 PUSH2 0x37A0 JUMP JUMPDEST DUP1 PUSH1 0x1F ADD PUSH1 0x20 DUP1 SWAP2 DIV MUL PUSH1 0x20 ADD PUSH1 0x40 MLOAD SWAP1 DUP2 ADD PUSH1 0x40 MSTORE DUP1 SWAP3 SWAP2 SWAP1 DUP2 DUP2 MSTORE PUSH1 0x20 ADD DUP3 DUP1 SLOAD PUSH2 0x2911 SWAP1 PUSH2 0x37A0 JUMP JUMPDEST DUP1 ISZERO PUSH2 0x295E JUMPI DUP1 PUSH1 0x1F LT PUSH2 0x2933 JUMPI PUSH2 0x100 DUP1 DUP4 SLOAD DIV MUL DUP4 MSTORE SWAP2 PUSH1 0x20 ADD SWAP2 PUSH2 0x295E JUMP JUMPDEST DUP3 ADD SWAP2 SWAP1 PUSH1 0x0 MSTORE PUSH1 0x20 PUSH1 0x0 KECCAK256 SWAP1 JUMPDEST DUP2 SLOAD DUP2 MSTORE SWAP1 PUSH1 0x1 ADD SWAP1 PUSH1 0x20 ADD DUP1 DUP4 GT PUSH2 0x2941 JUMPI DUP3 SWAP1 SUB PUSH1 0x1F AND DUP3 ADD SWAP2 JUMPDEST POP POP POP POP POP DUP2 MSTORE PUSH1 0x20 ADD PUSH1 0x4 PUSH1 0x0 DUP5 DUP2 MSTORE PUSH1 0x20 ADD SWAP1 DUP2 MSTORE PUSH1 0x20 ADD PUSH1 0x0 KECCAK256 PUSH1 0x3 ADD SLOAD DUP2 MSTORE PUSH1 0x20 ADD PUSH1 0x4 PUSH1 0x0 DUP5 DUP2 MSTORE PUSH1 0x20 ADD SWAP1 DUP2 MSTORE PUSH1 0x20 ADD PUSH1 0x0 KECCAK256 PUSH1 0x5 ADD SLOAD PUSH1 0x4 PUSH1 0x0 DUP6 DUP2 MSTORE PUSH1 0x20 ADD SWAP1 DUP2 MSTORE PUSH1 0x20 ADD PUSH1 0x0 KECCAK256 PUSH1 0x4 ADD SLOAD PUSH2 0x29BC SWAP2 SWAP1 PUSH2 0x3F90 JUMP JUMPDEST DUP2 MSTORE PUSH1 0x20 ADD PUSH1 0x4 PUSH1 0x0 DUP5 DUP2 MSTORE PUSH1 0x20 ADD SWAP1 DUP2 MSTORE PUSH1 0x20 ADD PUSH1 0x0 KECCAK256 PUSH1 0x5 ADD SLOAD DUP2 MSTORE PUSH1 0x20 ADD PUSH1 0x4 PUSH1 0x0 DUP5 DUP2 MSTORE PUSH1 0x20 ADD SWAP1 DUP2 MSTORE PUSH1 0x20 ADD PUSH1 0x0 KECCAK256 PUSH1 0x6 ADD PUSH1 0x2 SWAP1 SLOAD SWAP1 PUSH2 0x100 EXP SWAP1 DIV PUSH1 0xFF AND ISZERO ISZERO DUP2 MSTORE PUSH1 0x20 ADD PUSH1 0x4 PUSH1 0x0 DUP5 DUP2 MSTORE PUSH1 0x20 ADD SWAP1 DUP2 MSTORE PUSH1 0x20 ADD PUSH1 0x0 KECCAK256 PUSH1 0x6 ADD PUSH1 0x1 SWAP1 SLOAD SWAP1 PUSH2 0x100 EXP SWAP1 DIV PUSH1 0xFF AND ISZERO ISZERO DUP2 MSTORE POP DUP4 DUP4 DUP2 MLOAD DUP2 LT PUSH2 0x2A44 JUMPI PUSH2 0x2A43 PUSH2 0x369D JUMP JUMPDEST JUMPDEST PUSH1 0x20 MUL PUSH1 0x20 ADD ADD DUP2 SWAP1 MSTORE POP DUP2 DUP1 PUSH2 0x2A5A SWAP1 PUSH2 0x3F0A JUMP JUMPDEST SWAP3 POP POP JUMPDEST DUP1 DUP1 PUSH1 0x1 ADD SWAP2 POP POP PUSH2 0x27E9 JUMP JUMPDEST POP DUP2 SWAP4 POP POP POP POP SWAP1 JUMP JUMPDEST PUSH1 0x60 PUSH1 0x7 DUP1 SLOAD DUP1 PUSH1 0x20 MUL PUSH1 0x20 ADD PUSH1 0x40 MLOAD SWAP1 DUP2 ADD PUSH1 0x40 MSTORE DUP1 SWAP3 SWAP2 SWAP1 DUP2 DUP2 MSTORE PUSH1 0x20 ADD DUP3 DUP1 SLOAD DUP1 ISZERO PUSH2 0x2AF9 JUMPI PUSH1 0x20 MUL DUP3 ADD SWAP2 SWAP1 PUSH1 0x0 MSTORE PUSH1 0x20 PUSH1 0x0 KECCAK256 SWAP1 JUMPDEST DUP2 PUSH1 0x0 SWAP1 SLOAD SWAP1 PUSH2 0x100 EXP SWAP1 DIV PUSH20 0xFFFFFFFFFFFFFFFFFFFFFFFFFFFFFFFFFFFFFFFF AND PUSH20 0xFFFFFFFFFFFFFFFFFFFFFFFFFFFFFFFFFFFFFFFF AND DUP2 MSTORE PUSH1 0x20 ADD SWAP1 PUSH1 0x1 ADD SWAP1 DUP1 DUP4 GT PUSH2 0x2AAF JUMPI JUMPDEST POP POP POP POP POP SWAP1 POP SWAP1 JUMP JUMPDEST PUSH1 0x7 DUP2 DUP2 SLOAD DUP2 LT PUSH2 0x2B13 JUMPI PUSH1 0x0 DUP1 REVERT JUMPDEST SWAP1 PUSH1 0x0 MSTORE PUSH1 0x20 PUSH1 0x0 KECCAK256 ADD PUSH1 0x0 SWAP2 POP SLOAD SWAP1 PUSH2 0x100 EXP SWAP1 DIV PUSH20 0xFFFFFFFFFFFFFFFFFFFFFFFFFFFFFFFFFFFFFFFF AND DUP2 JUMP JUMPDEST DUP1 PUSH20 0xFFFFFFFFFFFFFFFFFFFFFFFFFFFFFFFFFFFFFFFF AND CALLER PUSH20 0xFFFFFFFFFFFFFFFFFFFFFFFFFFFFFFFFFFFFFFFF AND EQ DUP1 PUSH2 0x2BC7 JUMPI POP PUSH1 0x0 DUP1 SLOAD SWAP1 PUSH2 0x100 EXP SWAP1 DIV PUSH20 0xFFFFFFFFFFFFFFFFFFFFFFFFFFFFFFFFFFFFFFFF AND PUSH20 0xFFFFFFFFFFFFFFFFFFFFFFFFFFFFFFFFFFFFFFFF AND CALLER PUSH20 0xFFFFFFFFFFFFFFFFFFFFFFFFFFFFFFFFFFFFFFFF AND EQ JUMPDEST PUSH2 0x2C06 JUMPI PUSH1 0x40 MLOAD PUSH32 0x8C379A000000000000000000000000000000000000000000000000000000000 DUP2 MSTORE PUSH1 0x4 ADD PUSH2 0x2BFD SWAP1 PUSH2 0x4435 JUMP JUMPDEST PUSH1 0x40 MLOAD DUP1 SWAP2 SUB SWAP1 REVERT JUMPDEST PUSH1 0x0 PUSH1 0x8 PUSH1 0x0 DUP4 PUSH20 0xFFFFFFFFFFFFFFFFFFFFFFFFFFFFFFFFFFFFFFFF AND PUSH20 0xFFFFFFFFFFFFFFFFFFFFFFFFFFFFFFFFFFFFFFFF AND DUP2 MSTORE PUSH1 0x20 ADD SWAP1 DUP2 MSTORE PUSH1 0x20 ADD PUSH1 0x0 KECCAK256 SLOAD SWAP1 POP PUSH1 0x0 DUP2 GT PUSH2 0x2C8D JUMPI PUSH1 0x40 MLOAD PUSH32 0x8C379A000000000000000000000000000000000000000000000000000000000 DUP2 MSTORE PUSH1 0x4 ADD PUSH2 0x2C84 SWAP1 PUSH2 0x44C7 JUMP JUMPDEST PUSH1 0x40 MLOAD DUP1 SWAP2 SUB SWAP1 REVERT JUMPDEST PUSH1 0x0 PUSH1 0x8 PUSH1 0x0 DUP5 PUSH20 0xFFFFFFFFFFFFFFFFFFFFFFFFFFFFFFFFFFFFFFFF AND PUSH20 0xFFFFFFFFFFFFFFFFFFFFFFFFFFFFFFFFFFFFFFFF AND DUP2 MSTORE PUSH1 0x20 ADD SWAP1 DUP2 MSTORE PUSH1 0x20 ADD PUSH1 0x0 KECCAK256 DUP2 SWAP1 SSTORE POP DUP2 PUSH20 0xFFFFFFFFFFFFFFFFFFFFFFFFFFFFFFFFFFFFFFFF AND PUSH2 0x8FC DUP3 SWAP1 DUP2 ISZERO MUL SWAP1 PUSH1 0x40 MLOAD PUSH1 0x0 PUSH1 0x40 MLOAD DUP1 DUP4 SUB DUP2 DUP6 DUP9 DUP9 CALL SWAP4 POP POP POP POP ISZERO DUP1 ISZERO PUSH2 0x2D18 JUMPI RETURNDATASIZE PUSH1 0x0 DUP1 RETURNDATACOPY RETURNDATASIZE PUSH1 0x0 REVERT JUMPDEST POP PUSH32 0x8D40E9C27D77B658952CBAACAA582B75D323CE97D3904729B9674DDF5D5F13E DUP3 DUP3 PUSH1 0x40 MLOAD PUSH2 0x2D4A SWAP3 SWAP2 SWAP1 PUSH2 0x4118 JUMP JUMPDEST PUSH1 0x40 MLOAD DUP1 SWAP2 SUB SWAP1 LOG1 POP POP JUMP JUMPDEST PUSH1 0x40 MLOAD DUP1 PUSH2 0x100 ADD PUSH1 0x40 MSTORE DUP1 PUSH1 0x0 DUP2 MSTORE PUSH1 0x20 ADD PUSH1 0x0 PUSH20 0xFFFFFFFFFFFFFFFFFFFFFFFFFFFFFFFFFFFFFFFF AND DUP2 MSTORE PUSH1 0x20 ADD PUSH1 0x60 DUP2 MSTORE PUSH1 0x20 ADD PUSH1 0x0 DUP2 MSTORE PUSH1 0x20 ADD PUSH1 0x0 DUP2 MSTORE PUSH1 0x20 ADD PUSH1 0x0 DUP2 MSTORE PUSH1 0x20 ADD PUSH1 0x0 ISZERO ISZERO DUP2 MSTORE PUSH1 0x20 ADD PUSH1 0x0 ISZERO ISZERO DUP2 MSTORE POP SWAP1 JUMP JUMPDEST PUSH1 0x0 PUSH1 0x40 MLOAD SWAP1 POP SWAP1 JUMP JUMPDEST PUSH1 0x0 DUP1 REVERT JUMPDEST PUSH1 0x0 DUP1 REVERT JUMPDEST PUSH1 0x0 DUP2 SWAP1 POP SWAP2 SWAP1 POP JUMP JUMPDEST PUSH2 0x2DDC DUP2 PUSH2 0x2DC9 JUMP JUMPDEST DUP2 EQ PUSH2 0x2DE7 JUMPI PUSH1 0x0 DUP1 REVERT JUMPDEST POP JUMP JUMPDEST PUSH1 0x0 DUP2 CALLDATALOAD SWAP1 POP PUSH2 0x2DF9 DUP2 PUSH2 0x2DD3 JUMP JUMPDEST SWAP3 SWAP2 POP POP JUMP JUMPDEST PUSH1 0x0 PUSH1 0x20 DUP3 DUP5 SUB SLT ISZERO PUSH2 0x2E15 JUMPI PUSH2 0x2E14 PUSH2 0x2DBF JUMP JUMPDEST JUMPDEST PUSH1 0x0 PUSH2 0x2E23 DUP5 DUP3 DUP6 ADD PUSH2 0x2DEA JUMP JUMPDEST SWAP2 POP POP SWAP3 SWAP2 POP POP JUMP JUMPDEST PUSH2 0x2E35 DUP2 PUSH2 0x2DC9 JUMP JUMPDEST DUP3 MSTORE POP POP JUMP JUMPDEST PUSH1 0x0 PUSH20 0xFFFFFFFFFFFFFFFFFFFFFFFFFFFFFFFFFFFFFFFF DUP3 AND SWAP1 POP SWAP2 SWAP1 POP JUMP JUMPDEST PUSH1 0x0 PUSH2 0x2E66 DUP3 PUSH2 0x2E3B JUMP JUMPDEST SWAP1 POP SWAP2 SWAP1 POP JUMP JUMPDEST PUSH2 0x2E76 DUP2 PUSH2 0x2E5B JUMP JUMPDEST DUP3 MSTORE POP POP JUMP JUMPDEST PUSH1 0x0 DUP2 MLOAD SWAP1 POP SWAP2 SWAP1 POP JUMP JUMPDEST PUSH1 0x0 DUP3 DUP3 MSTORE PUSH1 0x20 DUP3 ADD SWAP1 POP SWAP3 SWAP2 POP POP JUMP JUMPDEST PUSH1 0x0 JUMPDEST DUP4 DUP2 LT ISZERO PUSH2 0x2EB6 JUMPI DUP1 DUP3 ADD MLOAD DUP2 DUP5 ADD MSTORE PUSH1 0x20 DUP2 ADD SWAP1 POP PUSH2 0x2E9B JUMP JUMPDEST PUSH1 0x0 DUP5 DUP5 ADD MSTORE POP POP POP POP JUMP JUMPDEST PUSH1 0x0 PUSH1 0x1F NOT PUSH1 0x1F DUP4 ADD AND SWAP1 POP SWAP2 SWAP1 POP JUMP JUMPDEST PUSH1 0x0 PUSH2 0x2EDE DUP3 PUSH2 0x2E7C JUMP JUMPDEST PUSH2 0x2EE8 DUP2 DUP6 PUSH2 0x2E87 JUMP JUMPDEST SWAP4 POP PUSH2 0x2EF8 DUP2 DUP6 PUSH1 0x20 DUP7 ADD PUSH2 0x2E98 JUMP JUMPDEST PUSH2 0x2F01 DUP2 PUSH2 0x2EC2 JUMP JUMPDEST DUP5 ADD SWAP2 POP POP SWAP3 SWAP2 POP POP JUMP JUMPDEST PUSH1 0x0 DUP2 ISZERO ISZERO SWAP1 POP SWAP2 SWAP1 POP JUMP JUMPDEST PUSH2 0x2F21 DUP2 PUSH2 0x2F0C JUMP JUMPDEST DUP3 MSTORE POP POP JUMP JUMPDEST PUSH1 0x0 PUSH2 0x120 DUP3 ADD SWAP1 POP PUSH2 0x2F3D PUSH1 0x0 DUP4 ADD DUP13 PUSH2 0x2E2C JUMP JUMPDEST PUSH2 0x2F4A PUSH1 0x20 DUP4 ADD DUP12 PUSH2 0x2E6D JUMP JUMPDEST DUP2 DUP2 SUB PUSH1 0x40 DUP4 ADD MSTORE PUSH2 0x2F5C DUP2 DUP11 PUSH2 0x2ED3 JUMP JUMPDEST SWAP1 POP PUSH2 0x2F6B PUSH1 0x60 DUP4 ADD DUP10 PUSH2 0x2E2C JUMP JUMPDEST PUSH2 0x2F78 PUSH1 0x80 DUP4 ADD DUP9 PUSH2 0x2E2C JUMP JUMPDEST PUSH2 0x2F85 PUSH1 0xA0 DUP4 ADD DUP8 PUSH2 0x2E2C JUMP JUMPDEST PUSH2 0x2F92 PUSH1 0xC0 DUP4 ADD DUP7 PUSH2 0x2F18 JUMP JUMPDEST PUSH2 0x2F9F PUSH1 0xE0 DUP4 ADD DUP6 PUSH2 0x2F18 JUMP JUMPDEST PUSH2 0x2FAD PUSH2 0x100 DUP4 ADD DUP5 PUSH2 0x2F18 JUMP JUMPDEST SWAP11 SWAP10 POP POP POP POP POP POP POP POP POP POP JUMP JUMPDEST PUSH1 0x0 DUP1 PUSH1 0x40 DUP4 DUP6 SUB SLT ISZERO PUSH2 0x2FD2 JUMPI PUSH2 0x2FD1 PUSH2 0x2DBF JUMP JUMPDEST JUMPDEST PUSH1 0x0 PUSH2 0x2FE0 DUP6 DUP3 DUP7 ADD PUSH2 0x2DEA JUMP JUMPDEST SWAP3 POP POP PUSH1 0x20 PUSH2 0x2FF1 DUP6 DUP3 DUP7 ADD PUSH2 0x2DEA JUMP JUMPDEST SWAP2 POP POP SWAP3 POP SWAP3 SWAP1 POP JUMP JUMPDEST PUSH1 0x0 DUP1 REVERT JUMPDEST PUSH1 0x0 DUP1 REVERT JUMPDEST PUSH32 0x4E487B7100000000000000000000000000000000000000000000000000000000 PUSH1 0x0 MSTORE PUSH1 0x41 PUSH1 0x4 MSTORE PUSH1 0x24 PUSH1 0x0 REVERT JUMPDEST PUSH2 0x303D DUP3 PUSH2 0x2EC2 JUMP JUMPDEST DUP2 ADD DUP2 DUP2 LT PUSH8 0xFFFFFFFFFFFFFFFF DUP3 GT OR ISZERO PUSH2 0x305C JUMPI PUSH2 0x305B PUSH2 0x3005 JUMP JUMPDEST JUMPDEST DUP1 PUSH1 0x40 MSTORE POP POP POP JUMP JUMPDEST PUSH1 0x0 PUSH2 0x306F PUSH2 0x2DB5 JUMP JUMPDEST SWAP1 POP PUSH2 0x307B DUP3 DUP3 PUSH2 0x3034 JUMP JUMPDEST SWAP2 SWAP1 POP JUMP JUMPDEST PUSH1 0x0 PUSH8 0xFFFFFFFFFFFFFFFF DUP3 GT ISZERO PUSH2 0x309B JUMPI PUSH2 0x309A PUSH2 0x3005 JUMP JUMPDEST JUMPDEST PUSH2 0x30A4 DUP3 PUSH2 0x2EC2 JUMP JUMPDEST SWAP1 POP PUSH1 0x20 DUP2 ADD SWAP1 POP SWAP2 SWAP1 POP JUMP JUMPDEST DUP3 DUP2 DUP4 CALLDATACOPY PUSH1 0x0 DUP4 DUP4 ADD MSTORE POP POP POP JUMP JUMPDEST PUSH1 0x0 PUSH2 0x30D3 PUSH2 0x30CE DUP5 PUSH2 0x3080 JUMP JUMPDEST PUSH2 0x3065 JUMP JUMPDEST SWAP1 POP DUP3 DUP2 MSTORE PUSH1 0x20 DUP2 ADD DUP5 DUP5 DUP5 ADD GT ISZERO PUSH2 0x30EF JUMPI PUSH2 0x30EE PUSH2 0x3000 JUMP JUMPDEST JUMPDEST PUSH2 0x30FA DUP5 DUP3 DUP6 PUSH2 0x30B1 JUMP JUMPDEST POP SWAP4 SWAP3 POP POP POP JUMP JUMPDEST PUSH1 0x0 DUP3 PUSH1 0x1F DUP4 ADD SLT PUSH2 0x3117 JUMPI PUSH2 0x3116 PUSH2 0x2FFB JUMP JUMPDEST JUMPDEST DUP2 CALLDATALOAD PUSH2 0x3127 DUP5 DUP3 PUSH1 0x20 DUP7 ADD PUSH2 0x30C0 JUMP JUMPDEST SWAP2 POP POP SWAP3 SWAP2 POP POP JUMP JUMPDEST PUSH1 0x0 DUP1 PUSH1 0x0 PUSH1 0x60 DUP5 DUP7 SUB SLT ISZERO PUSH2 0x3149 JUMPI PUSH2 0x3148 PUSH2 0x2DBF JUMP JUMPDEST JUMPDEST PUSH1 0x0 DUP5 ADD CALLDATALOAD PUSH8 0xFFFFFFFFFFFFFFFF DUP2 GT ISZERO PUSH2 0x3167 JUMPI PUSH2 0x3166 PUSH2 0x2DC4 JUMP JUMPDEST JUMPDEST PUSH2 0x3173 DUP7 DUP3 DUP8 ADD PUSH2 0x3102 JUMP JUMPDEST SWAP4 POP POP PUSH1 0x20 PUSH2 0x3184 DUP7 DUP3 DUP8 ADD PUSH2 0x2DEA JUMP JUMPDEST SWAP3 POP POP PUSH1 0x40 PUSH2 0x3195 DUP7 DUP3 DUP8 ADD PUSH2 0x2DEA JUMP JUMPDEST SWAP2 POP POP SWAP3 POP SWAP3 POP SWAP3 JUMP JUMPDEST PUSH1 0x0 DUP2 MLOAD SWAP1 POP SWAP2 SWAP1 POP JUMP JUMPDEST PUSH1 0x0 DUP3 DUP3 MSTORE PUSH1 0x20 DUP3 ADD SWAP1 POP SWAP3 SWAP2 POP POP JUMP JUMPDEST PUSH1 0x0 DUP2 SWAP1 POP PUSH1 0x20 DUP3 ADD SWAP1 POP SWAP2 SWAP1 POP JUMP JUMPDEST PUSH2 0x31D4 DUP2 PUSH2 0x2DC9 JUMP JUMPDEST DUP3 MSTORE POP POP JUMP JUMPDEST PUSH2 0x31E3 DUP2 PUSH2 0x2E5B JUMP JUMPDEST DUP3 MSTORE POP POP JUMP JUMPDEST PUSH1 0x0 DUP3 DUP3 MSTORE PUSH1 0x20 DUP3 ADD SWAP1 POP SWAP3 SWAP2 POP POP JUMP JUMPDEST PUSH1 0x0 PUSH2 0x3205 DUP3 PUSH2 0x2E7C JUMP JUMPDEST PUSH2 0x320F DUP2 DUP6 PUSH2 0x31E9 JUMP JUMPDEST SWAP4 POP PUSH2 0x321F DUP2 DUP6 PUSH1 0x20 DUP7 ADD PUSH2 0x2E98 JUMP JUMPDEST PUSH2 0x3228 DUP2 PUSH2 0x2EC2 JUMP JUMPDEST DUP5 ADD SWAP2 POP POP SWAP3 SWAP2 POP POP JUMP JUMPDEST PUSH2 0x323C DUP2 PUSH2 0x2F0C JUMP JUMPDEST DUP3 MSTORE POP POP JUMP JUMPDEST PUSH1 0x0 PUSH2 0x100 DUP4 ADD PUSH1 0x0 DUP4 ADD MLOAD PUSH2 0x325B PUSH1 0x0 DUP7 ADD DUP3 PUSH2 0x31CB JUMP JUMPDEST POP PUSH1 0x20 DUP4 ADD MLOAD PUSH2 0x326E PUSH1 0x20 DUP7 ADD DUP3 PUSH2 0x31DA JUMP JUMPDEST POP PUSH1 0x40 DUP4 ADD MLOAD DUP5 DUP3 SUB PUSH1 0x40 DUP7 ADD MSTORE PUSH2 0x3286 DUP3 DUP3 PUSH2 0x31FA JUMP JUMPDEST SWAP2 POP POP PUSH1 0x60 DUP4 ADD MLOAD PUSH2 0x329B PUSH1 0x60 DUP7 ADD DUP3 PUSH2 0x31CB JUMP JUMPDEST POP PUSH1 0x80 DUP4 ADD MLOAD PUSH2 0x32AE PUSH1 0x80 DUP7 ADD DUP3 PUSH2 0x31CB JUMP JUMPDEST POP PUSH1 0xA0 DUP4 ADD MLOAD PUSH2 0x32C1 PUSH1 0xA0 DUP7 ADD DUP3 PUSH2 0x31CB JUMP JUMPDEST POP PUSH1 0xC0 DUP4 ADD MLOAD PUSH2 0x32D4 PUSH1 0xC0 DUP7 ADD DUP3 PUSH2 0x3233 JUMP JUMPDEST POP PUSH1 0xE0 DUP4 ADD MLOAD PUSH2 0x32E7 PUSH1 0xE0 DUP7 ADD DUP3 PUSH2 0x3233 JUMP JUMPDEST POP DUP1 SWAP2 POP POP SWAP3 SWAP2 POP POP JUMP JUMPDEST PUSH1 0x0 PUSH2 0x32FE DUP4 DUP4 PUSH2 0x3242 JUMP JUMPDEST SWAP1 POP SWAP3 SWAP2 POP POP JUMP JUMPDEST PUSH1 0x0 PUSH1 0x20 DUP3 ADD SWAP1 POP SWAP2 SWAP1 POP JUMP JUMPDEST PUSH1 0x0 PUSH2 0x331E DUP3 PUSH2 0x319F JUMP JUMPDEST PUSH2 0x3328 DUP2 DUP6 PUSH2 0x31AA JUMP JUMPDEST SWAP4 POP DUP4 PUSH1 0x20 DUP3 MUL DUP6 ADD PUSH2 0x333A DUP6 PUSH2 0x31BB JUMP JUMPDEST DUP1 PUSH1 0x0 JUMPDEST DUP6 DUP2 LT ISZERO PUSH2 0x3376 JUMPI DUP5 DUP5 SUB DUP10 MSTORE DUP2 MLOAD PUSH2 0x3357 DUP6 DUP3 PUSH2 0x32F2 JUMP JUMPDEST SWAP5 POP PUSH2 0x3362 DUP4 PUSH2 0x3306 JUMP JUMPDEST SWAP3 POP PUSH1 0x20 DUP11 ADD SWAP10 POP POP PUSH1 0x1 DUP2 ADD SWAP1 POP PUSH2 0x333E JUMP JUMPDEST POP DUP3 SWAP8 POP DUP8 SWAP6 POP POP POP POP POP POP SWAP3 SWAP2 POP POP JUMP JUMPDEST PUSH1 0x0 PUSH1 0x20 DUP3 ADD SWAP1 POP DUP2 DUP2 SUB PUSH1 0x0 DUP4 ADD MSTORE PUSH2 0x33A2 DUP2 DUP5 PUSH2 0x3313 JUMP JUMPDEST SWAP1 POP SWAP3 SWAP2 POP POP JUMP JUMPDEST PUSH1 0x0 PUSH1 0x20 DUP3 ADD SWAP1 POP PUSH2 0x33BF PUSH1 0x0 DUP4 ADD DUP5 PUSH2 0x2E2C JUMP JUMPDEST SWAP3 SWAP2 POP POP JUMP JUMPDEST PUSH2 0x33CE DUP2 PUSH2 0x2E5B JUMP JUMPDEST DUP2 EQ PUSH2 0x33D9 JUMPI PUSH1 0x0 DUP1 REVERT JUMPDEST POP JUMP JUMPDEST PUSH1 0x0 DUP2 CALLDATALOAD SWAP1 POP PUSH2 0x33EB DUP2 PUSH2 0x33C5 JUMP JUMPDEST SWAP3 SWAP2 POP POP JUMP JUMPDEST PUSH1 0x0 PUSH1 0x20 DUP3 DUP5 SUB SLT ISZERO PUSH2 0x3407 JUMPI PUSH2 0x3406 PUSH2 0x2DBF JUMP JUMPDEST JUMPDEST PUSH1 0x0 PUSH2 0x3415 DUP5 DUP3 DUP6 ADD PUSH2 0x33DC JUMP JUMPDEST SWAP2 POP POP SWAP3 SWAP2 POP POP JUMP JUMPDEST PUSH1 0x0 PUSH1 0x20 DUP3 ADD SWAP1 POP PUSH2 0x3433 PUSH1 0x0 DUP4 ADD DUP5 PUSH2 0x2E6D JUMP JUMPDEST SWAP3 SWAP2 POP POP JUMP JUMPDEST PUSH1 0x0 DUP2 MLOAD SWAP1 POP SWAP2 SWAP1 POP JUMP JUMPDEST PUSH1 0x0 DUP3 DUP3 MSTORE PUSH1 0x20 DUP3 ADD SWAP1 POP SWAP3 SWAP2 POP POP JUMP JUMPDEST PUSH1 0x0 DUP2 SWAP1 POP PUSH1 0x20 DUP3 ADD SWAP1 POP SWAP2 SWAP1 POP JUMP JUMPDEST PUSH1 0x0 PUSH2 0x3471 DUP4 DUP4 PUSH2 0x31DA JUMP JUMPDEST PUSH1 0x20 DUP4 ADD SWAP1 POP SWAP3 SWAP2 POP POP JUMP JUMPDEST PUSH1 0x0 PUSH1 0x20 DUP3 ADD SWAP1 POP SWAP2 SWAP1 POP JUMP JUMPDEST PUSH1 0x0 PUSH2 0x3495 DUP3 PUSH2 0x3439 JUMP JUMPDEST PUSH2 0x349F DUP2 DUP6 PUSH2 0x3444 JUMP JUMPDEST SWAP4 POP PUSH2 0x34AA DUP4 PUSH2 0x3455 JUMP JUMPDEST DUP1 PUSH1 0x0 JUMPDEST DUP4 DUP2 LT ISZERO PUSH2 0x34DB JUMPI DUP2 MLOAD PUSH2 0x34C2 DUP9 DUP3 PUSH2 0x3465 JUMP JUMPDEST SWAP8 POP PUSH2 0x34CD DUP4 PUSH2 0x347D JUMP JUMPDEST SWAP3 POP POP PUSH1 0x1 DUP2 ADD SWAP1 POP PUSH2 0x34AE JUMP JUMPDEST POP DUP6 SWAP4 POP POP POP POP SWAP3 SWAP2 POP POP JUMP JUMPDEST PUSH1 0x0 DUP2 MLOAD SWAP1 POP SWAP2 SWAP1 POP JUMP JUMPDEST PUSH1 0x0 DUP3 DUP3 MSTORE PUSH1 0x20 DUP3 ADD SWAP1 POP SWAP3 SWAP2 POP POP JUMP JUMPDEST PUSH1 0x0 DUP2 SWAP1 POP PUSH1 0x20 DUP3 ADD SWAP1 POP SWAP2 SWAP1 POP JUMP JUMPDEST PUSH1 0x0 PUSH2 0x3520 DUP4 DUP4 PUSH2 0x31CB JUMP JUMPDEST PUSH1 0x20 DUP4 ADD SWAP1 POP SWAP3 SWAP2 POP POP JUMP JUMPDEST PUSH1 0x0 PUSH1 0x20 DUP3 ADD SWAP1 POP SWAP2 SWAP1 POP JUMP JUMPDEST PUSH1 0x0 PUSH2 0x3544 DUP3 PUSH2 0x34E8 JUMP JUMPDEST PUSH2 0x354E DUP2 DUP6 PUSH2 0x34F3 JUMP JUMPDEST SWAP4 POP PUSH2 0x3559 DUP4 PUSH2 0x3504 JUMP JUMPDEST DUP1 PUSH1 0x0 JUMPDEST DUP4 DUP2 LT ISZERO PUSH2 0x358A JUMPI DUP2 MLOAD PUSH2 0x3571 DUP9 DUP3 PUSH2 0x3514 JUMP JUMPDEST SWAP8 POP PUSH2 0x357C DUP4 PUSH2 0x352C JUMP JUMPDEST SWAP3 POP POP PUSH1 0x1 DUP2 ADD SWAP1 POP PUSH2 0x355D JUMP JUMPDEST POP DUP6 SWAP4 POP POP POP POP SWAP3 SWAP2 POP POP JUMP JUMPDEST PUSH1 0x0 PUSH1 0x40 DUP3 ADD SWAP1 POP DUP2 DUP2 SUB PUSH1 0x0 DUP4 ADD MSTORE PUSH2 0x35B1 DUP2 DUP6 PUSH2 0x348A JUMP JUMPDEST SWAP1 POP DUP2 DUP2 SUB PUSH1 0x20 DUP4 ADD MSTORE PUSH2 0x35C5 DUP2 DUP5 PUSH2 0x3539 JUMP JUMPDEST SWAP1 POP SWAP4 SWAP3 POP POP POP JUMP JUMPDEST PUSH1 0x0 PUSH1 0x20 DUP3 ADD SWAP1 POP PUSH2 0x35E3 PUSH1 0x0 DUP4 ADD DUP5 PUSH2 0x2F18 JUMP JUMPDEST SWAP3 SWAP2 POP POP JUMP JUMPDEST PUSH1 0x0 PUSH1 0x20 DUP3 ADD SWAP1 POP DUP2 DUP2 SUB PUSH1 0x0 DUP4 ADD MSTORE PUSH2 0x3603 DUP2 DUP5 PUSH2 0x348A JUMP JUMPDEST SWAP1 POP SWAP3 SWAP2 POP POP JUMP JUMPDEST PUSH32 0x4F6E6C792074686520636F6E7472616374206F776E65722063616E2065786563 PUSH1 0x0 DUP3 ADD MSTORE PUSH32 0x7574652074686973000000000000000000000000000000000000000000000000 PUSH1 0x20 DUP3 ADD MSTORE POP JUMP JUMPDEST PUSH1 0x0 PUSH2 0x3667 PUSH1 0x28 DUP4 PUSH2 0x2E87 JUMP JUMPDEST SWAP2 POP PUSH2 0x3672 DUP3 PUSH2 0x360B JUMP JUMPDEST PUSH1 0x40 DUP3 ADD SWAP1 POP SWAP2 SWAP1 POP JUMP JUMPDEST PUSH1 0x0 PUSH1 0x20 DUP3 ADD SWAP1 POP DUP2 DUP2 SUB PUSH1 0x0 DUP4 ADD MSTORE PUSH2 0x3696 DUP2 PUSH2 0x365A JUMP JUMPDEST SWAP1 POP SWAP2 SWAP1 POP JUMP JUMPDEST PUSH32 0x4E487B7100000000000000000000000000000000000000000000000000000000 PUSH1 0x0 MSTORE PUSH1 0x32 PUSH1 0x4 MSTORE PUSH1 0x24 PUSH1 0x0 REVERT JUMPDEST PUSH32 0x4E487B7100000000000000000000000000000000000000000000000000000000 PUSH1 0x0 MSTORE PUSH1 0x11 PUSH1 0x4 MSTORE PUSH1 0x24 PUSH1 0x0 REVERT JUMPDEST PUSH1 0x0 PUSH2 0x3706 DUP3 PUSH2 0x2DC9 JUMP JUMPDEST SWAP2 POP PUSH2 0x3711 DUP4 PUSH2 0x2DC9 JUMP JUMPDEST SWAP3 POP DUP3 DUP3 MUL PUSH2 0x371F DUP2 PUSH2 0x2DC9 JUMP JUMPDEST SWAP2 POP DUP3 DUP3 DIV DUP5 EQ DUP4 ISZERO OR PUSH2 0x3736 JUMPI PUSH2 0x3735 PUSH2 0x36CC JUMP JUMPDEST JUMPDEST POP SWAP3 SWAP2 POP POP JUMP JUMPDEST PUSH1 0x0 PUSH2 0x3748 DUP3 PUSH2 0x2DC9 JUMP JUMPDEST SWAP2 POP PUSH2 0x3753 DUP4 PUSH2 0x2DC9 JUMP JUMPDEST SWAP3 POP DUP3 DUP3 ADD SWAP1 POP DUP1 DUP3 GT ISZERO PUSH2 0x376B JUMPI PUSH2 0x376A PUSH2 0x36CC JUMP JUMPDEST JUMPDEST SWAP3 SWAP2 POP POP JUMP JUMPDEST PUSH32 0x4E487B7100000000000000000000000000000000000000000000000000000000 PUSH1 0x0 MSTORE PUSH1 0x22 PUSH1 0x4 MSTORE PUSH1 0x24 PUSH1 0x0 REVERT JUMPDEST PUSH1 0x0 PUSH1 0x2 DUP3 DIV SWAP1 POP PUSH1 0x1 DUP3 AND DUP1 PUSH2 0x37B8 JUMPI PUSH1 0x7F DUP3 AND SWAP2 POP JUMPDEST PUSH1 0x20 DUP3 LT DUP2 SUB PUSH2 0x37CB JUMPI PUSH2 0x37CA PUSH2 0x3771 JUMP JUMPDEST JUMPDEST POP SWAP2 SWAP1 POP JUMP JUMPDEST PUSH32 0x54686520636F6E7472616374206F776E65722063616E277420706572666F726D PUSH1 0x0 DUP3 ADD MSTORE PUSH32 0x206675727468657220616374696F6E7300000000000000000000000000000000 PUSH1 0x20 DUP3 ADD MSTORE POP JUMP JUMPDEST PUSH1 0x0 PUSH2 0x382D PUSH1 0x30 DUP4 PUSH2 0x2E87 JUMP JUMPDEST SWAP2 POP PUSH2 0x3838 DUP3 PUSH2 0x37D1 JUMP JUMPDEST PUSH1 0x40 DUP3 ADD SWAP1 POP SWAP2 SWAP1 POP JUMP JUMPDEST PUSH1 0x0 PUSH1 0x20 DUP3 ADD SWAP1 POP DUP2 DUP2 SUB PUSH1 0x0 DUP4 ADD MSTORE PUSH2 0x385C DUP2 PUSH2 0x3820 JUMP JUMPDEST SWAP1 POP SWAP2 SWAP1 POP JUMP JUMPDEST PUSH32 0x416464726573732069732062616E6E6564000000000000000000000000000000 PUSH1 0x0 DUP3 ADD MSTORE POP JUMP JUMPDEST PUSH1 0x0 PUSH2 0x3899 PUSH1 0x11 DUP4 PUSH2 0x2E87 JUMP JUMPDEST SWAP2 POP PUSH2 0x38A4 DUP3 PUSH2 0x3863 JUMP JUMPDEST PUSH1 0x20 DUP3 ADD SWAP1 POP SWAP2 SWAP1 POP JUMP JUMPDEST PUSH1 0x0 PUSH1 0x20 DUP3 ADD SWAP1 POP DUP2 DUP2 SUB PUSH1 0x0 DUP4 ADD MSTORE PUSH2 0x38C8 DUP2 PUSH2 0x388C JUMP JUMPDEST SWAP1 POP SWAP2 SWAP1 POP JUMP JUMPDEST PUSH32 0x43616D706169676E206973206E6F742061637469766500000000000000000000 PUSH1 0x0 DUP3 ADD MSTORE POP JUMP JUMPDEST PUSH1 0x0 PUSH2 0x3905 PUSH1 0x16 DUP4 PUSH2 0x2E87 JUMP JUMPDEST SWAP2 POP PUSH2 0x3910 DUP3 PUSH2 0x38CF JUMP JUMPDEST PUSH1 0x20 DUP3 ADD SWAP1 POP SWAP2 SWAP1 POP JUMP JUMPDEST PUSH1 0x0 PUSH1 0x20 DUP3 ADD SWAP1 POP DUP2 DUP2 SUB PUSH1 0x0 DUP4 ADD MSTORE PUSH2 0x3934 DUP2 PUSH2 0x38F8 JUMP JUMPDEST SWAP1 POP SWAP2 SWAP1 POP JUMP JUMPDEST PUSH32 0x43616D706169676E2069732063616E63656C6C65640000000000000000000000 PUSH1 0x0 DUP3 ADD MSTORE POP JUMP JUMPDEST PUSH1 0x0 PUSH2 0x3971 PUSH1 0x15 DUP4 PUSH2 0x2E87 JUMP JUMPDEST SWAP2 POP PUSH2 0x397C DUP3 PUSH2 0x393B JUMP JUMPDEST PUSH1 0x20 DUP3 ADD SWAP1 POP SWAP2 SWAP1 POP JUMP JUMPDEST PUSH1 0x0 PUSH1 0x20 DUP3 ADD SWAP1 POP DUP2 DUP2 SUB PUSH1 0x0 DUP4 ADD MSTORE PUSH2 0x39A0 DUP2 PUSH2 0x3964 JUMP JUMPDEST SWAP1 POP SWAP2 SWAP1 POP JUMP JUMPDEST PUSH32 0x43616D706169676E20697320616C726561647920636F6D706C65746564000000 PUSH1 0x0 DUP3 ADD MSTORE POP JUMP JUMPDEST PUSH1 0x0 PUSH2 0x39DD PUSH1 0x1D DUP4 PUSH2 0x2E87 JUMP JUMPDEST SWAP2 POP PUSH2 0x39E8 DUP3 PUSH2 0x39A7 JUMP JUMPDEST PUSH1 0x20 DUP3 ADD SWAP1 POP SWAP2 SWAP1 POP JUMP JUMPDEST PUSH1 0x0 PUSH1 0x20 DUP3 ADD SWAP1 POP DUP2 DUP2 SUB PUSH1 0x0 DUP4 ADD MSTORE PUSH2 0x3A0C DUP2 PUSH2 0x39D0 JUMP JUMPDEST SWAP1 POP SWAP2 SWAP1 POP JUMP JUMPDEST PUSH32 0x436F6E7472616374206973206E6F742061637469766500000000000000000000 PUSH1 0x0 DUP3 ADD MSTORE POP JUMP JUMPDEST PUSH1 0x0 PUSH2 0x3A49 PUSH1 0x16 DUP4 PUSH2 0x2E87 JUMP JUMPDEST SWAP2 POP PUSH2 0x3A54 DUP3 PUSH2 0x3A13 JUMP JUMPDEST PUSH1 0x20 DUP3 ADD SWAP1 POP SWAP2 SWAP1 POP JUMP JUMPDEST PUSH1 0x0 PUSH1 0x20 DUP3 ADD SWAP1 POP DUP2 DUP2 SUB PUSH1 0x0 DUP4 ADD MSTORE PUSH2 0x3A78 DUP2 PUSH2 0x3A3C JUMP JUMPDEST SWAP1 POP SWAP2 SWAP1 POP JUMP JUMPDEST PUSH32 0x54686520656E7472657072656E6575722063616E27742066756E640000000000 PUSH1 0x0 DUP3 ADD MSTORE POP JUMP JUMPDEST PUSH1 0x0 PUSH2 0x3AB5 PUSH1 0x1B DUP4 PUSH2 0x2E87 JUMP JUMPDEST SWAP2 POP PUSH2 0x3AC0 DUP3 PUSH2 0x3A7F JUMP JUMPDEST PUSH1 0x20 DUP3 ADD SWAP1 POP SWAP2 SWAP1 POP JUMP JUMPDEST PUSH1 0x0 PUSH1 0x20 DUP3 ADD SWAP1 POP DUP2 DUP2 SUB PUSH1 0x0 DUP4 ADD MSTORE PUSH2 0x3AE4 DUP2 PUSH2 0x3AA8 JUMP JUMPDEST SWAP1 POP SWAP2 SWAP1 POP JUMP JUMPDEST PUSH32 0x496E636F7272656374205765692076616C75652073656E740000000000000000 PUSH1 0x0 DUP3 ADD MSTORE POP JUMP JUMPDEST PUSH1 0x0 PUSH2 0x3B21 PUSH1 0x18 DUP4 PUSH2 0x2E87 JUMP JUMPDEST SWAP2 POP PUSH2 0x3B2C DUP3 PUSH2 0x3AEB JUMP JUMPDEST PUSH1 0x20 DUP3 ADD SWAP1 POP SWAP2 SWAP1 POP JUMP JUMPDEST PUSH1 0x0 PUSH1 0x20 DUP3 ADD SWAP1 POP DUP2 DUP2 SUB PUSH1 0x0 DUP4 ADD MSTORE PUSH2 0x3B50 DUP2 PUSH2 0x3B14 JUMP JUMPDEST SWAP1 POP SWAP2 SWAP1 POP JUMP JUMPDEST PUSH1 0x0 PUSH1 0x60 DUP3 ADD SWAP1 POP PUSH2 0x3B6C PUSH1 0x0 DUP4 ADD DUP7 PUSH2 0x2E2C JUMP JUMPDEST PUSH2 0x3B79 PUSH1 0x20 DUP4 ADD DUP6 PUSH2 0x2E6D JUMP JUMPDEST PUSH2 0x3B86 PUSH1 0x40 DUP4 ADD DUP5 PUSH2 0x2E2C JUMP JUMPDEST SWAP5 SWAP4 POP POP POP POP JUMP JUMPDEST PUSH32 0x496E636F72726563742063616D706169676E2066656500000000000000000000 PUSH1 0x0 DUP3 ADD MSTORE POP JUMP JUMPDEST PUSH1 0x0 PUSH2 0x3BC4 PUSH1 0x16 DUP4 PUSH2 0x2E87 JUMP JUMPDEST SWAP2 POP PUSH2 0x3BCF DUP3 PUSH2 0x3B8E JUMP JUMPDEST PUSH1 0x20 DUP3 ADD SWAP1 POP SWAP2 SWAP1 POP JUMP JUMPDEST PUSH1 0x0 PUSH1 0x20 DUP3 ADD SWAP1 POP DUP2 DUP2 SUB PUSH1 0x0 DUP4 ADD MSTORE PUSH2 0x3BF3 DUP2 PUSH2 0x3BB7 JUMP JUMPDEST SWAP1 POP SWAP2 SWAP1 POP JUMP JUMPDEST PUSH32 0x546F74616C20736861726573206D757374206265206772656174657220746861 PUSH1 0x0 DUP3 ADD MSTORE PUSH32 0x6E207A65726F0000000000000000000000000000000000000000000000000000 PUSH1 0x20 DUP3 ADD MSTORE POP JUMP JUMPDEST PUSH1 0x0 PUSH2 0x3C56 PUSH1 0x26 DUP4 PUSH2 0x2E87 JUMP JUMPDEST SWAP2 POP PUSH2 0x3C61 DUP3 PUSH2 0x3BFA JUMP JUMPDEST PUSH1 0x40 DUP3 ADD SWAP1 POP SWAP2 SWAP1 POP JUMP JUMPDEST PUSH1 0x0 PUSH1 0x20 DUP3 ADD SWAP1 POP DUP2 DUP2 SUB PUSH1 0x0 DUP4 ADD MSTORE PUSH2 0x3C85 DUP2 PUSH2 0x3C49 JUMP JUMPDEST SWAP1 POP SWAP2 SWAP1 POP JUMP JUMPDEST PUSH1 0x0 DUP2 SWAP1 POP DUP2 PUSH1 0x0 MSTORE PUSH1 0x20 PUSH1 0x0 KECCAK256 SWAP1 POP SWAP2 SWAP1 POP JUMP JUMPDEST PUSH1 0x0 PUSH1 0x20 PUSH1 0x1F DUP4 ADD DIV SWAP1 POP SWAP2 SWAP1 POP JUMP JUMPDEST PUSH1 0x0 DUP3 DUP3 SHL SWAP1 POP SWAP3 SWAP2 POP POP JUMP JUMPDEST PUSH1 0x0 PUSH1 0x8 DUP4 MUL PUSH2 0x3CEE PUSH32 0xFFFFFFFFFFFFFFFFFFFFFFFFFFFFFFFFFFFFFFFFFFFFFFFFFFFFFFFFFFFFFFFF DUP3 PUSH2 0x3CB1 JUMP JUMPDEST PUSH2 0x3CF8 DUP7 DUP4 PUSH2 0x3CB1 JUMP JUMPDEST SWAP6 POP DUP1 NOT DUP5 AND SWAP4 POP DUP1 DUP7 AND DUP5 OR SWAP3 POP POP POP SWAP4 SWAP3 POP POP POP JUMP JUMPDEST PUSH1 0x0 DUP2 SWAP1 POP SWAP2 SWAP1 POP JUMP JUMPDEST PUSH1 0x0 PUSH2 0x3D35 PUSH2 0x3D30 PUSH2 0x3D2B DUP5 PUSH2 0x2DC9 JUMP JUMPDEST PUSH2 0x3D10 JUMP JUMPDEST PUSH2 0x2DC9 JUMP JUMPDEST SWAP1 POP SWAP2 SWAP1 POP JUMP JUMPDEST PUSH1 0x0 DUP2 SWAP1 POP SWAP2 SWAP1 POP JUMP JUMPDEST PUSH2 0x3D4F DUP4 PUSH2 0x3D1A JUMP JUMPDEST PUSH2 0x3D63 PUSH2 0x3D5B DUP3 PUSH2 0x3D3C JUMP JUMPDEST DUP5 DUP5 SLOAD PUSH2 0x3CBE JUMP JUMPDEST DUP3 SSTORE POP POP POP POP JUMP JUMPDEST PUSH1 0x0 SWAP1 JUMP JUMPDEST PUSH2 0x3D78 PUSH2 0x3D6B JUMP JUMPDEST PUSH2 0x3D83 DUP2 DUP5 DUP5 PUSH2 0x3D46 JUMP JUMPDEST POP POP POP JUMP JUMPDEST JUMPDEST DUP2 DUP2 LT ISZERO PUSH2 0x3DA7 JUMPI PUSH2 0x3D9C PUSH1 0x0 DUP3 PUSH2 0x3D70 JUMP JUMPDEST PUSH1 0x1 DUP2 ADD SWAP1 POP PUSH2 0x3D89 JUMP JUMPDEST POP POP JUMP JUMPDEST PUSH1 0x1F DUP3 GT ISZERO PUSH2 0x3DEC JUMPI PUSH2 0x3DBD DUP2 PUSH2 0x3C8C JUMP JUMPDEST PUSH2 0x3DC6 DUP5 PUSH2 0x3CA1 JUMP JUMPDEST DUP2 ADD PUSH1 0x20 DUP6 LT ISZERO PUSH2 0x3DD5 JUMPI DUP2 SWAP1 POP JUMPDEST PUSH2 0x3DE9 PUSH2 0x3DE1 DUP6 PUSH2 0x3CA1 JUMP JUMPDEST DUP4 ADD DUP3 PUSH2 0x3D88 JUMP JUMPDEST POP POP JUMPDEST POP POP POP JUMP JUMPDEST PUSH1 0x0 DUP3 DUP3 SHR SWAP1 POP SWAP3 SWAP2 POP POP JUMP JUMPDEST PUSH1 0x0 PUSH2 0x3E0F PUSH1 0x0 NOT DUP5 PUSH1 0x8 MUL PUSH2 0x3DF1 JUMP JUMPDEST NOT DUP1 DUP4 AND SWAP2 POP POP SWAP3 SWAP2 POP POP JUMP JUMPDEST PUSH1 0x0 PUSH2 0x3E28 DUP4 DUP4 PUSH2 0x3DFE JUMP JUMPDEST SWAP2 POP DUP3 PUSH1 0x2 MUL DUP3 OR SWAP1 POP SWAP3 SWAP2 POP POP JUMP JUMPDEST PUSH2 0x3E41 DUP3 PUSH2 0x2E7C JUMP JUMPDEST PUSH8 0xFFFFFFFFFFFFFFFF DUP2 GT ISZERO PUSH2 0x3E5A JUMPI PUSH2 0x3E59 PUSH2 0x3005 JUMP JUMPDEST JUMPDEST PUSH2 0x3E64 DUP3 SLOAD PUSH2 0x37A0 JUMP JUMPDEST PUSH2 0x3E6F DUP3 DUP3 DUP6 PUSH2 0x3DAB JUMP JUMPDEST PUSH1 0x0 PUSH1 0x20 SWAP1 POP PUSH1 0x1F DUP4 GT PUSH1 0x1 DUP2 EQ PUSH2 0x3EA2 JUMPI PUSH1 0x0 DUP5 ISZERO PUSH2 0x3E90 JUMPI DUP3 DUP8 ADD MLOAD SWAP1 POP JUMPDEST PUSH2 0x3E9A DUP6 DUP3 PUSH2 0x3E1C JUMP JUMPDEST DUP7 SSTORE POP PUSH2 0x3F02 JUMP JUMPDEST PUSH1 0x1F NOT DUP5 AND PUSH2 0x3EB0 DUP7 PUSH2 0x3C8C JUMP JUMPDEST PUSH1 0x0 JUMPDEST DUP3 DUP2 LT ISZERO PUSH2 0x3ED8 JUMPI DUP5 DUP10 ADD MLOAD DUP3 SSTORE PUSH1 0x1 DUP3 ADD SWAP2 POP PUSH1 0x20 DUP6 ADD SWAP5 POP PUSH1 0x20 DUP2 ADD SWAP1 POP PUSH2 0x3EB3 JUMP JUMPDEST DUP7 DUP4 LT ISZERO PUSH2 0x3EF5 JUMPI DUP5 DUP10 ADD MLOAD PUSH2 0x3EF1 PUSH1 0x1F DUP10 AND DUP3 PUSH2 0x3DFE JUMP JUMPDEST DUP4 SSTORE POP JUMPDEST PUSH1 0x1 PUSH1 0x2 DUP9 MUL ADD DUP9 SSTORE POP POP POP JUMPDEST POP POP POP POP POP POP JUMP JUMPDEST PUSH1 0x0 PUSH2 0x3F15 DUP3 PUSH2 0x2DC9 JUMP JUMPDEST SWAP2 POP PUSH32 0xFFFFFFFFFFFFFFFFFFFFFFFFFFFFFFFFFFFFFFFFFFFFFFFFFFFFFFFFFFFFFFFF DUP3 SUB PUSH2 0x3F47 JUMPI PUSH2 0x3F46 PUSH2 0x36CC JUMP JUMPDEST JUMPDEST PUSH1 0x1 DUP3 ADD SWAP1 POP SWAP2 SWAP1 POP JUMP JUMPDEST PUSH1 0x0 PUSH1 0x60 DUP3 ADD SWAP1 POP PUSH2 0x3F67 PUSH1 0x0 DUP4 ADD DUP7 PUSH2 0x2E2C JUMP JUMPDEST PUSH2 0x3F74 PUSH1 0x20 DUP4 ADD DUP6 PUSH2 0x2E6D JUMP JUMPDEST DUP2 DUP2 SUB PUSH1 0x40 DUP4 ADD MSTORE PUSH2 0x3F86 DUP2 DUP5 PUSH2 0x2ED3 JUMP JUMPDEST SWAP1 POP SWAP5 SWAP4 POP POP POP POP JUMP JUMPDEST PUSH1 0x0 PUSH2 0x3F9B DUP3 PUSH2 0x2DC9 JUMP JUMPDEST SWAP2 POP PUSH2 0x3FA6 DUP4 PUSH2 0x2DC9 JUMP JUMPDEST SWAP3 POP DUP3 DUP3 SUB SWAP1 POP DUP2 DUP2 GT ISZERO PUSH2 0x3FBE JUMPI PUSH2 0x3FBD PUSH2 0x36CC JUMP JUMPDEST JUMPDEST SWAP3 SWAP2 POP POP JUMP JUMPDEST PUSH32 0x4F6E6C792074686520656E7472657072656E657572206F72206F776E65722063 PUSH1 0x0 DUP3 ADD MSTORE PUSH32 0x616E2063616E63656C20746869732063616D706169676E000000000000000000 PUSH1 0x20 DUP3 ADD MSTORE POP JUMP JUMPDEST PUSH1 0x0 PUSH2 0x4020 PUSH1 0x37 DUP4 PUSH2 0x2E87 JUMP JUMPDEST SWAP2 POP PUSH2 0x402B DUP3 PUSH2 0x3FC4 JUMP JUMPDEST PUSH1 0x40 DUP3 ADD SWAP1 POP SWAP2 SWAP1 POP JUMP JUMPDEST PUSH1 0x0 PUSH1 0x20 DUP3 ADD SWAP1 POP DUP2 DUP2 SUB PUSH1 0x0 DUP4 ADD MSTORE PUSH2 0x404F DUP2 PUSH2 0x4013 JUMP JUMPDEST SWAP1 POP SWAP2 SWAP1 POP JUMP JUMPDEST PUSH1 0x0 DUP2 SLOAD PUSH2 0x4063 DUP2 PUSH2 0x37A0 JUMP JUMPDEST PUSH2 0x406D DUP2 DUP7 PUSH2 0x2E87 JUMP JUMPDEST SWAP5 POP PUSH1 0x1 DUP3 AND PUSH1 0x0 DUP2 EQ PUSH2 0x4088 JUMPI PUSH1 0x1 DUP2 EQ PUSH2 0x409E JUMPI PUSH2 0x40D1 JUMP JUMPDEST PUSH1 0xFF NOT DUP4 AND DUP7 MSTORE DUP2 ISZERO ISZERO PUSH1 0x20 MUL DUP7 ADD SWAP4 POP PUSH2 0x40D1 JUMP JUMPDEST PUSH2 0x40A7 DUP6 PUSH2 0x3C8C JUMP JUMPDEST PUSH1 0x0 JUMPDEST DUP4 DUP2 LT ISZERO PUSH2 0x40C9 JUMPI DUP2 SLOAD DUP2 DUP10 ADD MSTORE PUSH1 0x1 DUP3 ADD SWAP2 POP PUSH1 0x20 DUP2 ADD SWAP1 POP PUSH2 0x40AA JUMP JUMPDEST DUP1 DUP9 ADD SWAP6 POP POP POP JUMPDEST POP POP POP SWAP3 SWAP2 POP POP JUMP JUMPDEST PUSH1 0x0 PUSH1 0x60 DUP3 ADD SWAP1 POP PUSH2 0x40EF PUSH1 0x0 DUP4 ADD DUP7 PUSH2 0x2E2C JUMP JUMPDEST PUSH2 0x40FC PUSH1 0x20 DUP4 ADD DUP6 PUSH2 0x2E6D JUMP JUMPDEST DUP2 DUP2 SUB PUSH1 0x40 DUP4 ADD MSTORE PUSH2 0x410E DUP2 DUP5 PUSH2 0x4056 JUMP JUMPDEST SWAP1 POP SWAP5 SWAP4 POP POP POP POP JUMP JUMPDEST PUSH1 0x0 PUSH1 0x40 DUP3 ADD SWAP1 POP PUSH2 0x412D PUSH1 0x0 DUP4 ADD DUP6 PUSH2 0x2E6D JUMP JUMPDEST PUSH2 0x413A PUSH1 0x20 DUP4 ADD DUP5 PUSH2 0x2E2C JUMP JUMPDEST SWAP4 SWAP3 POP POP POP JUMP JUMPDEST PUSH32 0x4E487B7100000000000000000000000000000000000000000000000000000000 PUSH1 0x0 MSTORE PUSH1 0x12 PUSH1 0x4 MSTORE PUSH1 0x24 PUSH1 0x0 REVERT JUMPDEST PUSH1 0x0 PUSH2 0x417B DUP3 PUSH2 0x2DC9 JUMP JUMPDEST SWAP2 POP PUSH2 0x4186 DUP4 PUSH2 0x2DC9 JUMP JUMPDEST SWAP3 POP DUP3 PUSH2 0x4196 JUMPI PUSH2 0x4195 PUSH2 0x4141 JUMP JUMPDEST JUMPDEST DUP3 DUP3 DIV SWAP1 POP SWAP3 SWAP2 POP POP JUMP JUMPDEST PUSH32 0x4F6E6C792074686520656E7472657072656E657572206F72206F776E65722063 PUSH1 0x0 DUP3 ADD MSTORE PUSH32 0x616E20636F6D706C65746520746869732063616D706169676E00000000000000 PUSH1 0x20 DUP3 ADD MSTORE POP JUMP JUMPDEST PUSH1 0x0 PUSH2 0x41FD PUSH1 0x39 DUP4 PUSH2 0x2E87 JUMP JUMPDEST SWAP2 POP PUSH2 0x4208 DUP3 PUSH2 0x41A1 JUMP JUMPDEST PUSH1 0x40 DUP3 ADD SWAP1 POP SWAP2 SWAP1 POP JUMP JUMPDEST PUSH1 0x0 PUSH1 0x20 DUP3 ADD SWAP1 POP DUP2 DUP2 SUB PUSH1 0x0 DUP4 ADD MSTORE PUSH2 0x422C DUP2 PUSH2 0x41F0 JUMP JUMPDEST SWAP1 POP SWAP2 SWAP1 POP JUMP JUMPDEST PUSH32 0x43616D706169676E20646F6573206E6F74206861766520656E6F756768207368 PUSH1 0x0 DUP3 ADD MSTORE PUSH32 0x6172657300000000000000000000000000000000000000000000000000000000 PUSH1 0x20 DUP3 ADD MSTORE POP JUMP JUMPDEST PUSH1 0x0 PUSH2 0x428F PUSH1 0x24 DUP4 PUSH2 0x2E87 JUMP JUMPDEST SWAP2 POP PUSH2 0x429A DUP3 PUSH2 0x4233 JUMP JUMPDEST PUSH1 0x40 DUP3 ADD SWAP1 POP SWAP2 SWAP1 POP JUMP JUMPDEST PUSH1 0x0 PUSH1 0x20 DUP3 ADD SWAP1 POP DUP2 DUP2 SUB PUSH1 0x0 DUP4 ADD MSTORE PUSH2 0x42BE DUP2 PUSH2 0x4282 JUMP JUMPDEST SWAP1 POP SWAP2 SWAP1 POP JUMP JUMPDEST PUSH32 0x4E6577206F776E65722063616E6E6F7420626520746865207A65726F20616464 PUSH1 0x0 DUP3 ADD MSTORE PUSH32 0x7265737300000000000000000000000000000000000000000000000000000000 PUSH1 0x20 DUP3 ADD MSTORE POP JUMP JUMPDEST PUSH1 0x0 PUSH2 0x4321 PUSH1 0x24 DUP4 PUSH2 0x2E87 JUMP JUMPDEST SWAP2 POP PUSH2 0x432C DUP3 PUSH2 0x42C5 JUMP JUMPDEST PUSH1 0x40 DUP3 ADD SWAP1 POP SWAP2 SWAP1 POP JUMP JUMPDEST PUSH1 0x0 PUSH1 0x20 DUP3 ADD SWAP1 POP DUP2 DUP2 SUB PUSH1 0x0 DUP4 ADD MSTORE PUSH2 0x4350 DUP2 PUSH2 0x4314 JUMP JUMPDEST SWAP1 POP SWAP2 SWAP1 POP JUMP JUMPDEST PUSH32 0x496E76616C69642063616D706169676E20494400000000000000000000000000 PUSH1 0x0 DUP3 ADD MSTORE POP JUMP JUMPDEST PUSH1 0x0 PUSH2 0x438D PUSH1 0x13 DUP4 PUSH2 0x2E87 JUMP JUMPDEST SWAP2 POP PUSH2 0x4398 DUP3 PUSH2 0x4357 JUMP JUMPDEST PUSH1 0x20 DUP3 ADD SWAP1 POP SWAP2 SWAP1 POP JUMP JUMPDEST PUSH1 0x0 PUSH1 0x20 DUP3 ADD SWAP1 POP DUP2 DUP2 SUB PUSH1 0x0 DUP4 ADD MSTORE PUSH2 0x43BC DUP2 PUSH2 0x4380 JUMP JUMPDEST SWAP1 POP SWAP2 SWAP1 POP JUMP JUMPDEST PUSH32 0x4F6E6C792074686520696E766573746F72206F722074686520636F6E74726163 PUSH1 0x0 DUP3 ADD MSTORE PUSH32 0x74206F776E65722063616E20696E697469617465206120726566756E64000000 PUSH1 0x20 DUP3 ADD MSTORE POP JUMP JUMPDEST PUSH1 0x0 PUSH2 0x441F PUSH1 0x3D DUP4 PUSH2 0x2E87 JUMP JUMPDEST SWAP2 POP PUSH2 0x442A DUP3 PUSH2 0x43C3 JUMP JUMPDEST PUSH1 0x40 DUP3 ADD SWAP1 POP SWAP2 SWAP1 POP JUMP JUMPDEST PUSH1 0x0 PUSH1 0x20 DUP3 ADD SWAP1 POP DUP2 DUP2 SUB PUSH1 0x0 DUP4 ADD MSTORE PUSH2 0x444E DUP2 PUSH2 0x4412 JUMP JUMPDEST SWAP1 POP SWAP2 SWAP1 POP JUMP JUMPDEST PUSH32 0x4E6F20726566756E6420617661696C61626C6520666F72207468697320696E76 PUSH1 0x0 DUP3 ADD MSTORE PUSH32 0x6573746F72000000000000000000000000000000000000000000000000000000 PUSH1 0x20 DUP3 ADD MSTORE POP JUMP JUMPDEST PUSH1 0x0 PUSH2 0x44B1 PUSH1 0x25 DUP4 PUSH2 0x2E87 JUMP JUMPDEST SWAP2 POP PUSH2 0x44BC DUP3 PUSH2 0x4455 JUMP JUMPDEST PUSH1 0x40 DUP3 ADD SWAP1 POP SWAP2 SWAP1 POP JUMP JUMPDEST PUSH1 0x0 PUSH1 0x20 DUP3 ADD SWAP1 POP DUP2 DUP2 SUB PUSH1 0x0 DUP4 ADD MSTORE PUSH2 0x44E0 DUP2 PUSH2 0x44A4 JUMP JUMPDEST SWAP1 POP SWAP2 SWAP1 POP JUMP INVALID LOG2 PUSH5 0x6970667358 0x22 SLT KECCAK256 0xE4 0xD2 0xDD DUP6 0xDB EXTCODEHASH 0xB3 SELFDESTRUCT 0xDD LOG0 CALLCODE 0x24 0xF7 JUMPDEST 0x28 DUP13 0xA7 0xAA 0x4F 0xD1 LOG4 0x2D DUP7 OR 0xB1 0xDE SWAP3 SWAP9 0xB0 0xA6 0xE6 0x4F PUSH5 0x736F6C6343 STOP ADDMOD BYTE STOP CALLER "
				},
				"gasEstimates": {
					"creation": {
						"codeDepositCost": "3538600",
						"executionCost": "infinite",
						"totalCost": "infinite"
					},
					"external": {
						"banInvestor(address)": "102293",
						"bannedAddresses(uint256)": "5066",
						"bannedCounter()": "2518",
						"bannedList(address)": "2867",
						"campaignFee()": "2540",
						"campaignFunding(uint256,uint256)": "infinite",
						"campaigns(uint256)": "infinite",
						"cancelCampaign(uint256)": "infinite",
						"changeOwner(address)": "26991",
						"completeCampaign(uint256)": "infinite",
						"createCampaign(string,uint256,uint256)": "infinite",
						"destroyContract()": "infinite",
						"getActiveCampaigns()": "infinite",
						"getActiveCount()": "infinite",
						"getBannedInvestors()": "infinite",
						"getCancelledCampaigns()": "infinite",
						"getCompletedCampaigns()": "infinite",
						"getInvestorsAndShares(uint256)": "infinite",
						"getTotalFees()": "infinite",
						"owner()": "2534",
						"refundInvestor(address)": "infinite",
						"refunds(address)": "2947",
						"totalFeesCollected()": "2474",
						"withdrawFees()": "infinite"
					}
				},
				"methodIdentifiers": {
					"banInvestor(address)": "8bc95413",
					"bannedAddresses(uint256)": "ed68b685",
					"bannedCounter()": "ad59be99",
					"bannedList(address)": "bd424ee7",
					"campaignFee()": "8a5be9b7",
					"campaignFunding(uint256,uint256)": "2b7393fb",
					"campaigns(uint256)": "141961bc",
					"cancelCampaign(uint256)": "45598b4a",
					"changeOwner(address)": "a6f9dae1",
					"completeCampaign(uint256)": "9553f180",
					"createCampaign(string,uint256,uint256)": "3020580b",
					"destroyContract()": "092a5cce",
					"getActiveCampaigns()": "c362b156",
					"getActiveCount()": "63338b17",
					"getBannedInvestors()": "de564098",
					"getCancelledCampaigns()": "c0751ba4",
					"getCompletedCampaigns()": "3c3ae5b8",
					"getInvestorsAndShares(uint256)": "b41ead0a",
					"getTotalFees()": "626e1ae7",
					"owner()": "8da5cb5b",
					"refundInvestor(address)": "ff53c5a3",
					"refunds(address)": "bc3da535",
					"totalFeesCollected()": "60c6d8ae",
					"withdrawFees()": "476343ee"
				}
			},
			"storageLayout": {
				"storage": [
					{
						"astId": 46,
						"contract": "contracts/Blockchain_task.sol:Crowdfunding",
						"label": "owner",
						"offset": 0,
						"slot": "0",
						"type": "t_address"
					},
					{
						"astId": 48,
						"contract": "contracts/Blockchain_task.sol:Crowdfunding",
						"label": "campaignFee",
						"offset": 0,
						"slot": "1",
						"type": "t_uint256"
					},
					{
						"astId": 50,
						"contract": "contracts/Blockchain_task.sol:Crowdfunding",
						"label": "totalFeesCollected",
						"offset": 0,
						"slot": "2",
						"type": "t_uint256"
					},
					{
						"astId": 52,
						"contract": "contracts/Blockchain_task.sol:Crowdfunding",
						"label": "campaignCounter",
						"offset": 0,
						"slot": "3",
						"type": "t_uint256"
					},
					{
						"astId": 57,
						"contract": "contracts/Blockchain_task.sol:Crowdfunding",
						"label": "campaigns",
						"offset": 0,
						"slot": "4",
						"type": "t_mapping(t_uint256,t_struct(Campaign)27_storage)"
					},
					{
						"astId": 59,
						"contract": "contracts/Blockchain_task.sol:Crowdfunding",
						"label": "bannedCounter",
						"offset": 0,
						"slot": "5",
						"type": "t_uint256"
					},
					{
						"astId": 63,
						"contract": "contracts/Blockchain_task.sol:Crowdfunding",
						"label": "bannedList",
						"offset": 0,
						"slot": "6",
						"type": "t_mapping(t_address,t_bool)"
					},
					{
						"astId": 66,
						"contract": "contracts/Blockchain_task.sol:Crowdfunding",
						"label": "bannedAddresses",
						"offset": 0,
						"slot": "7",
						"type": "t_array(t_address)dyn_storage"
					},
					{
						"astId": 70,
						"contract": "contracts/Blockchain_task.sol:Crowdfunding",
						"label": "refunds",
						"offset": 0,
						"slot": "8",
						"type": "t_mapping(t_address,t_uint256)"
					},
					{
						"astId": 72,
						"contract": "contracts/Blockchain_task.sol:Crowdfunding",
						"label": "isContractActive",
						"offset": 0,
						"slot": "9",
						"type": "t_bool"
					}
				],
				"types": {
					"t_address": {
						"encoding": "inplace",
						"label": "address",
						"numberOfBytes": "20"
					},
					"t_array(t_address)dyn_storage": {
						"base": "t_address",
						"encoding": "dynamic_array",
						"label": "address[]",
						"numberOfBytes": "32"
					},
					"t_bool": {
						"encoding": "inplace",
						"label": "bool",
						"numberOfBytes": "1"
					},
					"t_mapping(t_address,t_bool)": {
						"encoding": "mapping",
						"key": "t_address",
						"label": "mapping(address => bool)",
						"numberOfBytes": "32",
						"value": "t_bool"
					},
					"t_mapping(t_address,t_uint256)": {
						"encoding": "mapping",
						"key": "t_address",
						"label": "mapping(address => uint256)",
						"numberOfBytes": "32",
						"value": "t_uint256"
					},
					"t_mapping(t_uint256,t_struct(Campaign)27_storage)": {
						"encoding": "mapping",
						"key": "t_uint256",
						"label": "mapping(uint256 => struct Crowdfunding.Campaign)",
						"numberOfBytes": "32",
						"value": "t_struct(Campaign)27_storage"
					},
					"t_string_storage": {
						"encoding": "bytes",
						"label": "string",
						"numberOfBytes": "32"
					},
					"t_struct(Campaign)27_storage": {
						"encoding": "inplace",
						"label": "struct Crowdfunding.Campaign",
						"members": [
							{
								"astId": 3,
								"contract": "contracts/Blockchain_task.sol:Crowdfunding",
								"label": "campaignId",
								"offset": 0,
								"slot": "0",
								"type": "t_uint256"
							},
							{
								"astId": 5,
								"contract": "contracts/Blockchain_task.sol:Crowdfunding",
								"label": "entrepreneur",
								"offset": 0,
								"slot": "1",
								"type": "t_address"
							},
							{
								"astId": 7,
								"contract": "contracts/Blockchain_task.sol:Crowdfunding",
								"label": "title",
								"offset": 0,
								"slot": "2",
								"type": "t_string_storage"
							},
							{
								"astId": 9,
								"contract": "contracts/Blockchain_task.sol:Crowdfunding",
								"label": "sharePrice",
								"offset": 0,
								"slot": "3",
								"type": "t_uint256"
							},
							{
								"astId": 11,
								"contract": "contracts/Blockchain_task.sol:Crowdfunding",
								"label": "totalShares",
								"offset": 0,
								"slot": "4",
								"type": "t_uint256"
							},
							{
								"astId": 13,
								"contract": "contracts/Blockchain_task.sol:Crowdfunding",
								"label": "currentShares",
								"offset": 0,
								"slot": "5",
								"type": "t_uint256"
							},
							{
								"astId": 15,
								"contract": "contracts/Blockchain_task.sol:Crowdfunding",
								"label": "isActive",
								"offset": 0,
								"slot": "6",
								"type": "t_bool"
							},
							{
								"astId": 17,
								"contract": "contracts/Blockchain_task.sol:Crowdfunding",
								"label": "isCancelled",
								"offset": 1,
								"slot": "6",
								"type": "t_bool"
							},
							{
								"astId": 19,
								"contract": "contracts/Blockchain_task.sol:Crowdfunding",
								"label": "isCompleted",
								"offset": 2,
								"slot": "6",
								"type": "t_bool"
							},
							{
								"astId": 22,
								"contract": "contracts/Blockchain_task.sol:Crowdfunding",
								"label": "backers",
								"offset": 0,
								"slot": "7",
								"type": "t_array(t_address)dyn_storage"
							},
							{
								"astId": 26,
								"contract": "contracts/Blockchain_task.sol:Crowdfunding",
								"label": "sharesPerBacker",
								"offset": 0,
								"slot": "8",
								"type": "t_mapping(t_address,t_uint256)"
							}
						],
						"numberOfBytes": "288"
					},
					"t_uint256": {
						"encoding": "inplace",
						"label": "uint256",
						"numberOfBytes": "32"
					}
				}
			},
			"userdoc": {
				"kind": "user",
				"methods": {},
				"version": 1
			}
		}
	}
}