{
	"contracts/Blockchain_task.sol": {
		"Crowdfunding": {
			"abi": [
				{
					"inputs": [
						{
							"internalType": "uint256",
							"name": "_campaignFee",
							"type": "uint256"
						}
					],
					"stateMutability": "nonpayable",
					"type": "constructor"
				},
				{
					"anonymous": false,
					"inputs": [
						{
							"indexed": false,
							"internalType": "uint256",
							"name": "campaignId",
							"type": "uint256"
						},
						{
							"indexed": false,
							"internalType": "address",
							"name": "entrepreneur",
							"type": "address"
						},
						{
							"indexed": false,
							"internalType": "string",
							"name": "title",
							"type": "string"
						}
					],
					"name": "CampaignCancelled",
					"type": "event"
				},
				{
					"anonymous": false,
					"inputs": [
						{
							"indexed": false,
							"internalType": "uint256",
							"name": "campaignId",
							"type": "uint256"
						},
						{
							"indexed": false,
							"internalType": "address",
							"name": "entrepreneur",
							"type": "address"
						},
						{
							"indexed": false,
							"internalType": "string",
							"name": "title",
							"type": "string"
						}
					],
					"name": "CampaignCompleted",
					"type": "event"
				},
				{
					"anonymous": false,
					"inputs": [
						{
							"indexed": false,
							"internalType": "uint256",
							"name": "campaignId",
							"type": "uint256"
						},
						{
							"indexed": false,
							"internalType": "address",
							"name": "entrepreneur",
							"type": "address"
						},
						{
							"indexed": false,
							"internalType": "string",
							"name": "title",
							"type": "string"
						}
					],
					"name": "CampaignCreated",
					"type": "event"
				},
				{
					"anonymous": false,
					"inputs": [
						{
							"indexed": false,
							"internalType": "uint256",
							"name": "id",
							"type": "uint256"
						},
						{
							"indexed": false,
							"internalType": "uint256",
							"name": "fees",
							"type": "uint256"
						}
					],
					"name": "Debugging",
					"type": "event"
				},
				{
					"anonymous": false,
					"inputs": [
						{
							"indexed": false,
							"internalType": "address",
							"name": "owner",
							"type": "address"
						},
						{
							"indexed": false,
							"internalType": "uint256",
							"name": "amount",
							"type": "uint256"
						}
					],
					"name": "FeesWithdrawn",
					"type": "event"
				},
				{
					"anonymous": false,
					"inputs": [
						{
							"indexed": false,
							"internalType": "address",
							"name": "investor",
							"type": "address"
						},
						{
							"indexed": false,
							"internalType": "uint256",
							"name": "amount",
							"type": "uint256"
						}
					],
					"name": "InvestorRefunded",
					"type": "event"
				},
				{
					"anonymous": false,
					"inputs": [
						{
							"indexed": false,
							"internalType": "uint256",
							"name": "campaignId",
							"type": "uint256"
						},
						{
							"indexed": false,
							"internalType": "address",
							"name": "investor",
							"type": "address"
						},
						{
							"indexed": false,
							"internalType": "uint256",
							"name": "shares",
							"type": "uint256"
						}
					],
					"name": "SharesPurchased",
					"type": "event"
				},
				{
					"inputs": [
						{
							"internalType": "address",
							"name": "investor",
							"type": "address"
						}
					],
					"name": "banInvestor",
					"outputs": [],
					"stateMutability": "nonpayable",
					"type": "function"
				},
				{
					"inputs": [
						{
							"internalType": "uint256",
							"name": "",
							"type": "uint256"
						}
					],
					"name": "bannedAddresses",
					"outputs": [
						{
							"internalType": "address",
							"name": "",
							"type": "address"
						}
					],
					"stateMutability": "view",
					"type": "function"
				},
				{
					"inputs": [],
					"name": "bannedCounter",
					"outputs": [
						{
							"internalType": "uint256",
							"name": "",
							"type": "uint256"
						}
					],
					"stateMutability": "view",
					"type": "function"
				},
				{
					"inputs": [
						{
							"internalType": "address",
							"name": "",
							"type": "address"
						}
					],
					"name": "bannedList",
					"outputs": [
						{
							"internalType": "bool",
							"name": "",
							"type": "bool"
						}
					],
					"stateMutability": "view",
					"type": "function"
				},
				{
					"inputs": [],
					"name": "campaignFee",
					"outputs": [
						{
							"internalType": "uint256",
							"name": "",
							"type": "uint256"
						}
					],
					"stateMutability": "view",
					"type": "function"
				},
				{
					"inputs": [
						{
							"internalType": "uint256",
							"name": "numberOfShares",
							"type": "uint256"
						},
						{
							"internalType": "uint256",
							"name": "campaignId",
							"type": "uint256"
						}
					],
					"name": "campaignFunding",
					"outputs": [],
					"stateMutability": "payable",
					"type": "function"
				},
				{
					"inputs": [
						{
							"internalType": "uint256",
							"name": "",
							"type": "uint256"
						}
					],
					"name": "campaigns",
					"outputs": [
						{
							"internalType": "uint256",
							"name": "campaignId",
							"type": "uint256"
						},
						{
							"internalType": "address",
							"name": "entrepreneur",
							"type": "address"
						},
						{
							"internalType": "string",
							"name": "title",
							"type": "string"
						},
						{
							"internalType": "uint256",
							"name": "sharePrice",
							"type": "uint256"
						},
						{
							"internalType": "uint256",
							"name": "totalShares",
							"type": "uint256"
						},
						{
							"internalType": "uint256",
							"name": "currentShares",
							"type": "uint256"
						},
						{
							"internalType": "bool",
							"name": "isActive",
							"type": "bool"
						},
						{
							"internalType": "bool",
							"name": "isCancelled",
							"type": "bool"
						},
						{
							"internalType": "bool",
							"name": "isCompleted",
							"type": "bool"
						}
					],
					"stateMutability": "view",
					"type": "function"
				},
				{
					"inputs": [
						{
							"internalType": "uint256",
							"name": "campaignId",
							"type": "uint256"
						}
					],
					"name": "cancelCampaign",
					"outputs": [],
					"stateMutability": "nonpayable",
					"type": "function"
				},
				{
					"inputs": [
						{
							"internalType": "address",
							"name": "newOwner",
							"type": "address"
						}
					],
					"name": "changeOwner",
					"outputs": [],
					"stateMutability": "nonpayable",
					"type": "function"
				},
				{
					"inputs": [
						{
							"internalType": "uint256",
							"name": "campaignId",
							"type": "uint256"
						}
					],
					"name": "completeCampaign",
					"outputs": [],
					"stateMutability": "nonpayable",
					"type": "function"
				},
				{
					"inputs": [
						{
							"internalType": "string",
							"name": "title",
							"type": "string"
						},
						{
							"internalType": "uint256",
							"name": "sharePrice",
							"type": "uint256"
						},
						{
							"internalType": "uint256",
							"name": "totalShares",
							"type": "uint256"
						}
					],
					"name": "createCampaign",
					"outputs": [],
					"stateMutability": "payable",
					"type": "function"
				},
				{
					"inputs": [],
					"name": "destroyContract",
					"outputs": [],
					"stateMutability": "nonpayable",
					"type": "function"
				},
				{
					"inputs": [],
					"name": "getActiveCampaigns",
					"outputs": [
						{
							"components": [
								{
									"internalType": "uint256",
									"name": "campaignId",
									"type": "uint256"
								},
								{
									"internalType": "address",
									"name": "entrepreneur",
									"type": "address"
								},
								{
									"internalType": "string",
									"name": "title",
									"type": "string"
								},
								{
									"internalType": "uint256",
									"name": "pledgeCost",
									"type": "uint256"
								},
								{
									"internalType": "uint256",
									"name": "pledgesNeeded",
									"type": "uint256"
								},
								{
									"internalType": "uint256",
									"name": "pledgesCount",
									"type": "uint256"
								},
								{
									"internalType": "bool",
									"name": "fulfilled",
									"type": "bool"
								},
								{
									"internalType": "bool",
									"name": "cancelled",
									"type": "bool"
								}
							],
							"internalType": "struct Crowdfunding.CampaignInfo[]",
							"name": "",
							"type": "tuple[]"
						}
					],
					"stateMutability": "view",
					"type": "function"
				},
				{
					"inputs": [],
					"name": "getActiveCount",
					"outputs": [
						{
							"internalType": "uint256",
							"name": "",
							"type": "uint256"
						}
					],
					"stateMutability": "view",
					"type": "function"
				},
				{
					"inputs": [],
					"name": "getCancelledCampaigns",
					"outputs": [
						{
							"components": [
								{
									"internalType": "uint256",
									"name": "campaignId",
									"type": "uint256"
								},
								{
									"internalType": "address",
									"name": "entrepreneur",
									"type": "address"
								},
								{
									"internalType": "string",
									"name": "title",
									"type": "string"
								},
								{
									"internalType": "uint256",
									"name": "pledgeCost",
									"type": "uint256"
								},
								{
									"internalType": "uint256",
									"name": "pledgesNeeded",
									"type": "uint256"
								},
								{
									"internalType": "uint256",
									"name": "pledgesCount",
									"type": "uint256"
								},
								{
									"internalType": "bool",
									"name": "fulfilled",
									"type": "bool"
								},
								{
									"internalType": "bool",
									"name": "cancelled",
									"type": "bool"
								}
							],
							"internalType": "struct Crowdfunding.CampaignInfo[]",
							"name": "",
							"type": "tuple[]"
						}
					],
					"stateMutability": "view",
					"type": "function"
				},
				{
					"inputs": [],
					"name": "getCompletedCampaigns",
					"outputs": [
						{
							"components": [
								{
									"internalType": "uint256",
									"name": "campaignId",
									"type": "uint256"
								},
								{
									"internalType": "address",
									"name": "entrepreneur",
									"type": "address"
								},
								{
									"internalType": "string",
									"name": "title",
									"type": "string"
								},
								{
									"internalType": "uint256",
									"name": "pledgeCost",
									"type": "uint256"
								},
								{
									"internalType": "uint256",
									"name": "pledgesNeeded",
									"type": "uint256"
								},
								{
									"internalType": "uint256",
									"name": "pledgesCount",
									"type": "uint256"
								},
								{
									"internalType": "bool",
									"name": "fulfilled",
									"type": "bool"
								},
								{
									"internalType": "bool",
									"name": "cancelled",
									"type": "bool"
								}
							],
							"internalType": "struct Crowdfunding.CampaignInfo[]",
							"name": "",
							"type": "tuple[]"
						}
					],
					"stateMutability": "view",
					"type": "function"
				},
				{
					"inputs": [
						{
							"internalType": "address",
							"name": "investor",
							"type": "address"
						}
					],
					"name": "getInvestmentsByInvestor",
					"outputs": [
						{
							"internalType": "uint256[]",
							"name": "campaignIds",
							"type": "uint256[]"
						},
						{
							"internalType": "uint256[]",
							"name": "shares",
							"type": "uint256[]"
						}
					],
					"stateMutability": "view",
					"type": "function"
				},
				{
					"inputs": [
						{
							"internalType": "uint256",
							"name": "campaignId",
							"type": "uint256"
						}
					],
					"name": "getInvestorsAndShares",
					"outputs": [
						{
							"internalType": "address[]",
							"name": "investors",
							"type": "address[]"
						},
						{
							"internalType": "uint256[]",
							"name": "shares",
							"type": "uint256[]"
						}
					],
					"stateMutability": "view",
					"type": "function"
				},
				{
					"inputs": [],
					"name": "owner",
					"outputs": [
						{
							"internalType": "address",
							"name": "",
							"type": "address"
						}
					],
					"stateMutability": "view",
					"type": "function"
				},
				{
					"inputs": [
						{
							"internalType": "address",
							"name": "investor",
							"type": "address"
						}
					],
					"name": "refundInvestor",
					"outputs": [],
					"stateMutability": "nonpayable",
					"type": "function"
				},
				{
					"inputs": [
						{
							"internalType": "address",
							"name": "",
							"type": "address"
						}
					],
					"name": "refunds",
					"outputs": [
						{
							"internalType": "uint256",
							"name": "",
							"type": "uint256"
						}
					],
					"stateMutability": "view",
					"type": "function"
				},
				{
					"inputs": [],
					"name": "totalFeesCollected",
					"outputs": [
						{
							"internalType": "uint256",
							"name": "",
							"type": "uint256"
						}
					],
					"stateMutability": "view",
					"type": "function"
				},
				{
					"inputs": [],
					"name": "withdrawFees",
					"outputs": [],
					"stateMutability": "nonpayable",
					"type": "function"
				}
			],
			"devdoc": {
				"kind": "dev",
				"methods": {},
				"version": 1
			},
			"evm": {
				"assembly": "    /* \"contracts/Blockchain_task.sol\":61:15755  contract Crowdfunding {... */\n  mstore(0x40, 0x80)\n    /* \"contracts/Blockchain_task.sol\":3458:3628  constructor(uint256 _campaignFee) {... */\n  callvalue\n  dup1\n  iszero\n  tag_1\n  jumpi\n  0x00\n  dup1\n  revert\ntag_1:\n  pop\n  mload(0x40)\n  sub(codesize, bytecodeSize)\n  dup1\n  bytecodeSize\n  dup4\n  codecopy\n  dup2\n  dup2\n  add\n  0x40\n  mstore\n  dup2\n  add\n  swap1\n  tag_2\n  swap2\n  swap1\n  tag_3\n  jump\t// in\ntag_2:\n    /* \"contracts/Blockchain_task.sol\":3510:3520  msg.sender */\n  caller\n    /* \"contracts/Blockchain_task.sol\":3502:3507  owner */\n  0x00\n  dup1\n    /* \"contracts/Blockchain_task.sol\":3502:3520  owner = msg.sender */\n  0x0100\n  exp\n  dup2\n  sload\n  dup2\n  0xffffffffffffffffffffffffffffffffffffffff\n  mul\n  not\n  and\n  swap1\n  dup4\n  0xffffffffffffffffffffffffffffffffffffffff\n  and\n  mul\n  or\n  swap1\n  sstore\n  pop\n    /* \"contracts/Blockchain_task.sol\":3544:3556  _campaignFee */\n  dup1\n    /* \"contracts/Blockchain_task.sol\":3530:3541  campaignFee */\n  0x01\n    /* \"contracts/Blockchain_task.sol\":3530:3556  campaignFee = _campaignFee */\n  dup2\n  swap1\n  sstore\n  pop\n    /* \"contracts/Blockchain_task.sol\":3585:3589  true */\n  0x01\n    /* \"contracts/Blockchain_task.sol\":3566:3582  isContractActive */\n  0x09\n  0x00\n    /* \"contracts/Blockchain_task.sol\":3566:3589  isContractActive = true */\n  0x0100\n  exp\n  dup2\n  sload\n  dup2\n  0xff\n  mul\n  not\n  and\n  swap1\n  dup4\n  iszero\n  iszero\n  mul\n  or\n  swap1\n  sstore\n  pop\n    /* \"contracts/Blockchain_task.sol\":3620:3621  0 */\n  0x00\n    /* \"contracts/Blockchain_task.sol\":3599:3617  totalFeesCollected */\n  0x02\n    /* \"contracts/Blockchain_task.sol\":3599:3621  totalFeesCollected = 0 */\n  dup2\n  swap1\n  sstore\n  pop\n    /* \"contracts/Blockchain_task.sol\":3458:3628  constructor(uint256 _campaignFee) {... */\n  pop\n    /* \"contracts/Blockchain_task.sol\":61:15755  contract Crowdfunding {... */\n  jump(tag_6)\n    /* \"#utility.yul\":88:205   */\ntag_8:\n    /* \"#utility.yul\":197:198   */\n  0x00\n    /* \"#utility.yul\":194:195   */\n  dup1\n    /* \"#utility.yul\":187:199   */\n  revert\n    /* \"#utility.yul\":334:411   */\ntag_10:\n    /* \"#utility.yul\":371:378   */\n  0x00\n    /* \"#utility.yul\":400:405   */\n  dup2\n    /* \"#utility.yul\":389:405   */\n  swap1\n  pop\n    /* \"#utility.yul\":334:411   */\n  swap2\n  swap1\n  pop\n  jump\t// out\n    /* \"#utility.yul\":417:539   */\ntag_11:\n    /* \"#utility.yul\":490:514   */\n  tag_19\n    /* \"#utility.yul\":508:513   */\n  dup2\n    /* \"#utility.yul\":490:514   */\n  tag_10\n  jump\t// in\ntag_19:\n    /* \"#utility.yul\":483:488   */\n  dup2\n    /* \"#utility.yul\":480:515   */\n  eq\n    /* \"#utility.yul\":470:533   */\n  tag_20\n  jumpi\n    /* \"#utility.yul\":529:530   */\n  0x00\n    /* \"#utility.yul\":526:527   */\n  dup1\n    /* \"#utility.yul\":519:531   */\n  revert\n    /* \"#utility.yul\":470:533   */\ntag_20:\n    /* \"#utility.yul\":417:539   */\n  pop\n  jump\t// out\n    /* \"#utility.yul\":545:688   */\ntag_12:\n    /* \"#utility.yul\":602:607   */\n  0x00\n    /* \"#utility.yul\":633:639   */\n  dup2\n    /* \"#utility.yul\":627:640   */\n  mload\n    /* \"#utility.yul\":618:640   */\n  swap1\n  pop\n    /* \"#utility.yul\":649:682   */\n  tag_22\n    /* \"#utility.yul\":676:681   */\n  dup2\n    /* \"#utility.yul\":649:682   */\n  tag_11\n  jump\t// in\ntag_22:\n    /* \"#utility.yul\":545:688   */\n  swap3\n  swap2\n  pop\n  pop\n  jump\t// out\n    /* \"#utility.yul\":694:1045   */\ntag_3:\n    /* \"#utility.yul\":764:770   */\n  0x00\n    /* \"#utility.yul\":813:815   */\n  0x20\n    /* \"#utility.yul\":801:810   */\n  dup3\n    /* \"#utility.yul\":792:799   */\n  dup5\n    /* \"#utility.yul\":788:811   */\n  sub\n    /* \"#utility.yul\":784:816   */\n  slt\n    /* \"#utility.yul\":781:900   */\n  iszero\n  tag_24\n  jumpi\n    /* \"#utility.yul\":819:898   */\n  tag_25\n  tag_8\n  jump\t// in\ntag_25:\n    /* \"#utility.yul\":781:900   */\ntag_24:\n    /* \"#utility.yul\":939:940   */\n  0x00\n    /* \"#utility.yul\":964:1028   */\n  tag_26\n    /* \"#utility.yul\":1020:1027   */\n  dup5\n    /* \"#utility.yul\":1011:1017   */\n  dup3\n    /* \"#utility.yul\":1000:1009   */\n  dup6\n    /* \"#utility.yul\":996:1018   */\n  add\n    /* \"#utility.yul\":964:1028   */\n  tag_12\n  jump\t// in\ntag_26:\n    /* \"#utility.yul\":954:1028   */\n  swap2\n  pop\n    /* \"#utility.yul\":910:1038   */\n  pop\n    /* \"#utility.yul\":694:1045   */\n  swap3\n  swap2\n  pop\n  pop\n  jump\t// out\n    /* \"contracts/Blockchain_task.sol\":61:15755  contract Crowdfunding {... */\ntag_6:\n  dataSize(sub_0)\n  dup1\n  dataOffset(sub_0)\n  0x00\n  codecopy\n  0x00\n  return\nstop\n\nsub_0: assembly {\n        /* \"contracts/Blockchain_task.sol\":61:15755  contract Crowdfunding {... */\n      mstore(0x40, 0x80)\n      jumpi(tag_1, lt(calldatasize, 0x04))\n      shr(0xe0, calldataload(0x00))\n      dup1\n      0x8bc95413\n      gt\n      tag_25\n      jumpi\n      dup1\n      0xbc3da535\n      gt\n      tag_26\n      jumpi\n      dup1\n      0xbc3da535\n      eq\n      tag_19\n      jumpi\n      dup1\n      0xbd424ee7\n      eq\n      tag_20\n      jumpi\n      dup1\n      0xc0751ba4\n      eq\n      tag_21\n      jumpi\n      dup1\n      0xc362b156\n      eq\n      tag_22\n      jumpi\n      dup1\n      0xed68b685\n      eq\n      tag_23\n      jumpi\n      dup1\n      0xff53c5a3\n      eq\n      tag_24\n      jumpi\n      jump(tag_1)\n    tag_26:\n      dup1\n      0x8bc95413\n      eq\n      tag_13\n      jumpi\n      dup1\n      0x8da5cb5b\n      eq\n      tag_14\n      jumpi\n      dup1\n      0x9553f180\n      eq\n      tag_15\n      jumpi\n      dup1\n      0xa6f9dae1\n      eq\n      tag_16\n      jumpi\n      dup1\n      0xad59be99\n      eq\n      tag_17\n      jumpi\n      dup1\n      0xb41ead0a\n      eq\n      tag_18\n      jumpi\n      jump(tag_1)\n    tag_25:\n      dup1\n      0x3c3ae5b8\n      gt\n      tag_27\n      jumpi\n      dup1\n      0x3c3ae5b8\n      eq\n      tag_7\n      jumpi\n      dup1\n      0x45598b4a\n      eq\n      tag_8\n      jumpi\n      dup1\n      0x476343ee\n      eq\n      tag_9\n      jumpi\n      dup1\n      0x60c6d8ae\n      eq\n      tag_10\n      jumpi\n      dup1\n      0x63338b17\n      eq\n      tag_11\n      jumpi\n      dup1\n      0x8a5be9b7\n      eq\n      tag_12\n      jumpi\n      jump(tag_1)\n    tag_27:\n      dup1\n      0x092a5cce\n      eq\n      tag_2\n      jumpi\n      dup1\n      0x141961bc\n      eq\n      tag_3\n      jumpi\n      dup1\n      0x2b7393fb\n      eq\n      tag_4\n      jumpi\n      dup1\n      0x2cdda7d5\n      eq\n      tag_5\n      jumpi\n      dup1\n      0x3020580b\n      eq\n      tag_6\n      jumpi\n    tag_1:\n      0x00\n      dup1\n      revert\n        /* \"contracts/Blockchain_task.sol\":14900:15753  function destroyContract() public onlyOwner activeContract {... */\n    tag_2:\n      callvalue\n      dup1\n      iszero\n      tag_28\n      jumpi\n      0x00\n      dup1\n      revert\n    tag_28:\n      pop\n      tag_29\n      tag_30\n      jump\t// in\n    tag_29:\n      stop\n        /* \"contracts/Blockchain_task.sol\":1030:1075  mapping(uint256 => Campaign) public campaigns */\n    tag_3:\n      callvalue\n      dup1\n      iszero\n      tag_31\n      jumpi\n      0x00\n      dup1\n      revert\n    tag_31:\n      pop\n      tag_32\n      0x04\n      dup1\n      calldatasize\n      sub\n      dup2\n      add\n      swap1\n      tag_33\n      swap2\n      swap1\n      tag_34\n      jump\t// in\n    tag_33:\n      tag_35\n      jump\t// in\n    tag_32:\n      mload(0x40)\n      tag_36\n      swap10\n      swap9\n      swap8\n      swap7\n      swap6\n      swap5\n      swap4\n      swap3\n      swap2\n      swap1\n      tag_37\n      jump\t// in\n    tag_36:\n      mload(0x40)\n      dup1\n      swap2\n      sub\n      swap1\n      return\n        /* \"contracts/Blockchain_task.sol\":4447:5421  function campaignFunding(uint256 numberOfShares, uint256 campaignId)... */\n    tag_4:\n      tag_38\n      0x04\n      dup1\n      calldatasize\n      sub\n      dup2\n      add\n      swap1\n      tag_39\n      swap2\n      swap1\n      tag_40\n      jump\t// in\n    tag_39:\n      tag_41\n      jump\t// in\n    tag_38:\n      stop\n        /* \"contracts/Blockchain_task.sol\":13311:14323  function getInvestmentsByInvestor(address investor)... */\n    tag_5:\n      callvalue\n      dup1\n      iszero\n      tag_42\n      jumpi\n      0x00\n      dup1\n      revert\n    tag_42:\n      pop\n      tag_43\n      0x04\n      dup1\n      calldatasize\n      sub\n      dup2\n      add\n      swap1\n      tag_44\n      swap2\n      swap1\n      tag_45\n      jump\t// in\n    tag_44:\n      tag_46\n      jump\t// in\n    tag_43:\n      mload(0x40)\n      tag_47\n      swap3\n      swap2\n      swap1\n      tag_48\n      jump\t// in\n    tag_47:\n      mload(0x40)\n      dup1\n      swap2\n      sub\n      swap1\n      return\n        /* \"contracts/Blockchain_task.sol\":3681:4414  function createCampaign(... */\n    tag_6:\n      tag_49\n      0x04\n      dup1\n      calldatasize\n      sub\n      dup2\n      add\n      swap1\n      tag_50\n      swap2\n      swap1\n      tag_51\n      jump\t// in\n    tag_50:\n      tag_52\n      jump\t// in\n    tag_49:\n      stop\n        /* \"contracts/Blockchain_task.sol\":9915:11224  function getCompletedCampaigns()... */\n    tag_7:\n      callvalue\n      dup1\n      iszero\n      tag_53\n      jumpi\n      0x00\n      dup1\n      revert\n    tag_53:\n      pop\n      tag_54\n      tag_55\n      jump\t// in\n    tag_54:\n      mload(0x40)\n      tag_56\n      swap2\n      swap1\n      tag_57\n      jump\t// in\n    tag_56:\n      mload(0x40)\n      dup1\n      swap2\n      sub\n      swap1\n      return\n        /* \"contracts/Blockchain_task.sol\":5453:6384  function cancelCampaign(uint256 campaignId)... */\n    tag_8:\n      callvalue\n      dup1\n      iszero\n      tag_58\n      jumpi\n      0x00\n      dup1\n      revert\n    tag_58:\n      pop\n      tag_59\n      0x04\n      dup1\n      calldatasize\n      sub\n      dup2\n      add\n      swap1\n      tag_60\n      swap2\n      swap1\n      tag_34\n      jump\t// in\n    tag_60:\n      tag_61\n      jump\t// in\n    tag_59:\n      stop\n        /* \"contracts/Blockchain_task.sol\":7945:8233  function withdrawFees() public onlyOwner activeContract {... */\n    tag_9:\n      callvalue\n      dup1\n      iszero\n      tag_62\n      jumpi\n      0x00\n      dup1\n      revert\n    tag_62:\n      pop\n      tag_63\n      tag_64\n      jump\t// in\n    tag_63:\n      stop\n        /* \"contracts/Blockchain_task.sol\":847:880  uint256 public totalFeesCollected */\n    tag_10:\n      callvalue\n      dup1\n      iszero\n      tag_65\n      jumpi\n      0x00\n      dup1\n      revert\n    tag_65:\n      pop\n      tag_66\n      tag_67\n      jump\t// in\n    tag_66:\n      mload(0x40)\n      tag_68\n      swap2\n      swap1\n      tag_69\n      jump\t// in\n    tag_68:\n      mload(0x40)\n      dup1\n      swap2\n      sub\n      swap1\n      return\n        /* \"contracts/Blockchain_task.sol\":8239:8563  function getActiveCount() public view activeContract returns (uint256) {... */\n    tag_11:\n      callvalue\n      dup1\n      iszero\n      tag_70\n      jumpi\n      0x00\n      dup1\n      revert\n    tag_70:\n      pop\n      tag_71\n      tag_72\n      jump\t// in\n    tag_71:\n      mload(0x40)\n      tag_73\n      swap2\n      swap1\n      tag_69\n      jump\t// in\n    tag_73:\n      mload(0x40)\n      dup1\n      swap2\n      sub\n      swap1\n      return\n        /* \"contracts/Blockchain_task.sol\":762:788  uint256 public campaignFee */\n    tag_12:\n      callvalue\n      dup1\n      iszero\n      tag_74\n      jumpi\n      0x00\n      dup1\n      revert\n    tag_74:\n      pop\n      tag_75\n      tag_76\n      jump\t// in\n    tag_75:\n      mload(0x40)\n      tag_77\n      swap2\n      swap1\n      tag_69\n      jump\t// in\n    tag_77:\n      mload(0x40)\n      dup1\n      swap2\n      sub\n      swap1\n      return\n        /* \"contracts/Blockchain_task.sol\":14371:14650  function banInvestor(address investor)... */\n    tag_13:\n      callvalue\n      dup1\n      iszero\n      tag_78\n      jumpi\n      0x00\n      dup1\n      revert\n    tag_78:\n      pop\n      tag_79\n      0x04\n      dup1\n      calldatasize\n      sub\n      dup2\n      add\n      swap1\n      tag_80\n      swap2\n      swap1\n      tag_45\n      jump\t// in\n    tag_80:\n      tag_81\n      jump\t// in\n    tag_79:\n      stop\n        /* \"contracts/Blockchain_task.sol\":691:711  address public owner */\n    tag_14:\n      callvalue\n      dup1\n      iszero\n      tag_82\n      jumpi\n      0x00\n      dup1\n      revert\n    tag_82:\n      pop\n      tag_83\n      tag_84\n      jump\t// in\n    tag_83:\n      mload(0x40)\n      tag_85\n      swap2\n      swap1\n      tag_86\n      jump\t// in\n    tag_85:\n      mload(0x40)\n      dup1\n      swap2\n      sub\n      swap1\n      return\n        /* \"contracts/Blockchain_task.sol\":7032:7909  function completeCampaign(uint256 campaignId)... */\n    tag_15:\n      callvalue\n      dup1\n      iszero\n      tag_87\n      jumpi\n      0x00\n      dup1\n      revert\n    tag_87:\n      pop\n      tag_88\n      0x04\n      dup1\n      calldatasize\n      sub\n      dup2\n      add\n      swap1\n      tag_89\n      swap2\n      swap1\n      tag_34\n      jump\t// in\n    tag_89:\n      tag_90\n      jump\t// in\n    tag_88:\n      stop\n        /* \"contracts/Blockchain_task.sol\":14685:14870  function changeOwner(address newOwner) public onlyOwner activeContract {... */\n    tag_16:\n      callvalue\n      dup1\n      iszero\n      tag_91\n      jumpi\n      0x00\n      dup1\n      revert\n    tag_91:\n      pop\n      tag_92\n      0x04\n      dup1\n      calldatasize\n      sub\n      dup2\n      add\n      swap1\n      tag_93\n      swap2\n      swap1\n      tag_45\n      jump\t// in\n    tag_93:\n      tag_94\n      jump\t// in\n    tag_92:\n      stop\n        /* \"contracts/Blockchain_task.sol\":1124:1152  uint256 public bannedCounter */\n    tag_17:\n      callvalue\n      dup1\n      iszero\n      tag_95\n      jumpi\n      0x00\n      dup1\n      revert\n    tag_95:\n      pop\n      tag_96\n      tag_97\n      jump\t// in\n    tag_96:\n      mload(0x40)\n      tag_98\n      swap2\n      swap1\n      tag_69\n      jump\t// in\n    tag_98:\n      mload(0x40)\n      dup1\n      swap2\n      sub\n      swap1\n      return\n        /* \"contracts/Blockchain_task.sol\":12533:13271  function getInvestorsAndShares(uint256 campaignId)... */\n    tag_18:\n      callvalue\n      dup1\n      iszero\n      tag_99\n      jumpi\n      0x00\n      dup1\n      revert\n    tag_99:\n      pop\n      tag_100\n      0x04\n      dup1\n      calldatasize\n      sub\n      dup2\n      add\n      swap1\n      tag_101\n      swap2\n      swap1\n      tag_34\n      jump\t// in\n    tag_101:\n      tag_102\n      jump\t// in\n    tag_100:\n      mload(0x40)\n      tag_103\n      swap3\n      swap2\n      swap1\n      tag_104\n      jump\t// in\n    tag_103:\n      mload(0x40)\n      dup1\n      swap2\n      sub\n      swap1\n      return\n        /* \"contracts/Blockchain_task.sol\":1285:1327  mapping(address => uint256) public refunds */\n    tag_19:\n      callvalue\n      dup1\n      iszero\n      tag_105\n      jumpi\n      0x00\n      dup1\n      revert\n    tag_105:\n      pop\n      tag_106\n      0x04\n      dup1\n      calldatasize\n      sub\n      dup2\n      add\n      swap1\n      tag_107\n      swap2\n      swap1\n      tag_45\n      jump\t// in\n    tag_107:\n      tag_108\n      jump\t// in\n    tag_106:\n      mload(0x40)\n      tag_109\n      swap2\n      swap1\n      tag_69\n      jump\t// in\n    tag_109:\n      mload(0x40)\n      dup1\n      swap2\n      sub\n      swap1\n      return\n        /* \"contracts/Blockchain_task.sol\":1158:1200  mapping(address => bool) public bannedList */\n    tag_20:\n      callvalue\n      dup1\n      iszero\n      tag_110\n      jumpi\n      0x00\n      dup1\n      revert\n    tag_110:\n      pop\n      tag_111\n      0x04\n      dup1\n      calldatasize\n      sub\n      dup2\n      add\n      swap1\n      tag_112\n      swap2\n      swap1\n      tag_45\n      jump\t// in\n    tag_112:\n      tag_113\n      jump\t// in\n    tag_111:\n      mload(0x40)\n      tag_114\n      swap2\n      swap1\n      tag_115\n      jump\t// in\n    tag_114:\n      mload(0x40)\n      dup1\n      swap2\n      sub\n      swap1\n      return\n        /* \"contracts/Blockchain_task.sol\":11257:12488  function getCancelledCampaigns()... */\n    tag_21:\n      callvalue\n      dup1\n      iszero\n      tag_116\n      jumpi\n      0x00\n      dup1\n      revert\n    tag_116:\n      pop\n      tag_117\n      tag_118\n      jump\t// in\n    tag_117:\n      mload(0x40)\n      tag_119\n      swap2\n      swap1\n      tag_57\n      jump\t// in\n    tag_119:\n      mload(0x40)\n      dup1\n      swap2\n      sub\n      swap1\n      return\n        /* \"contracts/Blockchain_task.sol\":8611:9882  function getActiveCampaigns()... */\n    tag_22:\n      callvalue\n      dup1\n      iszero\n      tag_120\n      jumpi\n      0x00\n      dup1\n      revert\n    tag_120:\n      pop\n      tag_121\n      tag_122\n      jump\t// in\n    tag_121:\n      mload(0x40)\n      tag_123\n      swap2\n      swap1\n      tag_57\n      jump\t// in\n    tag_123:\n      mload(0x40)\n      dup1\n      swap2\n      sub\n      swap1\n      return\n        /* \"contracts/Blockchain_task.sol\":1247:1279  address[] public bannedAddresses */\n    tag_23:\n      callvalue\n      dup1\n      iszero\n      tag_124\n      jumpi\n      0x00\n      dup1\n      revert\n    tag_124:\n      pop\n      tag_125\n      0x04\n      dup1\n      calldatasize\n      sub\n      dup2\n      add\n      swap1\n      tag_126\n      swap2\n      swap1\n      tag_34\n      jump\t// in\n    tag_126:\n      tag_127\n      jump\t// in\n    tag_125:\n      mload(0x40)\n      tag_128\n      swap2\n      swap1\n      tag_86\n      jump\t// in\n    tag_128:\n      mload(0x40)\n      dup1\n      swap2\n      sub\n      swap1\n      return\n        /* \"contracts/Blockchain_task.sol\":6390:6948  function refundInvestor(address investor) notBanned public {... */\n    tag_24:\n      callvalue\n      dup1\n      iszero\n      tag_129\n      jumpi\n      0x00\n      dup1\n      revert\n    tag_129:\n      pop\n      tag_130\n      0x04\n      dup1\n      calldatasize\n      sub\n      dup2\n      add\n      swap1\n      tag_131\n      swap2\n      swap1\n      tag_45\n      jump\t// in\n    tag_131:\n      tag_132\n      jump\t// in\n    tag_130:\n      stop\n        /* \"contracts/Blockchain_task.sol\":14900:15753  function destroyContract() public onlyOwner activeContract {... */\n    tag_30:\n        /* \"contracts/Blockchain_task.sol\":2067:2072  owner */\n      0x00\n      dup1\n      sload\n      swap1\n      0x0100\n      exp\n      swap1\n      div\n      0xffffffffffffffffffffffffffffffffffffffff\n      and\n        /* \"contracts/Blockchain_task.sol\":2053:2072  msg.sender == owner */\n      0xffffffffffffffffffffffffffffffffffffffff\n      and\n        /* \"contracts/Blockchain_task.sol\":2053:2063  msg.sender */\n      caller\n        /* \"contracts/Blockchain_task.sol\":2053:2072  msg.sender == owner */\n      0xffffffffffffffffffffffffffffffffffffffff\n      and\n      eq\n        /* \"contracts/Blockchain_task.sol\":2032:2138  require(... */\n      tag_134\n      jumpi\n      mload(0x40)\n      0x08c379a000000000000000000000000000000000000000000000000000000000\n      dup2\n      mstore\n      0x04\n      add\n      tag_135\n      swap1\n      tag_136\n      jump\t// in\n    tag_135:\n      mload(0x40)\n      dup1\n      swap2\n      sub\n      swap1\n      revert\n    tag_134:\n        /* \"contracts/Blockchain_task.sol\":2206:2222  isContractActive */\n      0x09\n      0x00\n      swap1\n      sload\n      swap1\n      0x0100\n      exp\n      swap1\n      div\n      0xff\n      and\n        /* \"contracts/Blockchain_task.sol\":2198:2249  require(isContractActive, \"Contract is not active\") */\n      tag_138\n      jumpi\n      mload(0x40)\n      0x08c379a000000000000000000000000000000000000000000000000000000000\n      dup2\n      mstore\n      0x04\n      add\n      tag_139\n      swap1\n      tag_140\n      jump\t// in\n    tag_139:\n      mload(0x40)\n      dup1\n      swap2\n      sub\n      swap1\n      revert\n    tag_138:\n        /* \"contracts/Blockchain_task.sol\":14974:14983  uint256 i */\n      0x00\n        /* \"contracts/Blockchain_task.sol\":14969:15713  for (uint256 i = 0; i < campaignCounter; i++) {... */\n    tag_142:\n        /* \"contracts/Blockchain_task.sol\":14993:15008  campaignCounter */\n      sload(0x03)\n        /* \"contracts/Blockchain_task.sol\":14989:14990  i */\n      dup2\n        /* \"contracts/Blockchain_task.sol\":14989:15008  i < campaignCounter */\n      lt\n        /* \"contracts/Blockchain_task.sol\":14969:15713  for (uint256 i = 0; i < campaignCounter; i++) {... */\n      iszero\n      tag_143\n      jumpi\n        /* \"contracts/Blockchain_task.sol\":15029:15054  Campaign storage campaign */\n      0x00\n        /* \"contracts/Blockchain_task.sol\":15057:15066  campaigns */\n      0x04\n        /* \"contracts/Blockchain_task.sol\":15057:15069  campaigns[i] */\n      0x00\n        /* \"contracts/Blockchain_task.sol\":15067:15068  i */\n      dup4\n        /* \"contracts/Blockchain_task.sol\":15057:15069  campaigns[i] */\n      dup2\n      mstore\n      0x20\n      add\n      swap1\n      dup2\n      mstore\n      0x20\n      add\n      0x00\n      keccak256\n        /* \"contracts/Blockchain_task.sol\":15029:15069  Campaign storage campaign = campaigns[i] */\n      swap1\n      pop\n        /* \"contracts/Blockchain_task.sol\":15149:15157  campaign */\n      dup1\n        /* \"contracts/Blockchain_task.sol\":15149:15169  campaign.isCancelled */\n      0x06\n      add\n      0x01\n      swap1\n      sload\n      swap1\n      0x0100\n      exp\n      swap1\n      div\n      0xff\n      and\n        /* \"contracts/Blockchain_task.sol\":15149:15193  campaign.isCancelled || campaign.isCompleted */\n      dup1\n      tag_145\n      jumpi\n      pop\n        /* \"contracts/Blockchain_task.sol\":15173:15181  campaign */\n      dup1\n        /* \"contracts/Blockchain_task.sol\":15173:15193  campaign.isCompleted */\n      0x06\n      add\n      0x02\n      swap1\n      sload\n      swap1\n      0x0100\n      exp\n      swap1\n      div\n      0xff\n      and\n        /* \"contracts/Blockchain_task.sol\":15149:15193  campaign.isCancelled || campaign.isCompleted */\n    tag_145:\n        /* \"contracts/Blockchain_task.sol\":15145:15236  if (campaign.isCancelled || campaign.isCompleted) {... */\n      iszero\n      tag_146\n      jumpi\n        /* \"contracts/Blockchain_task.sol\":15213:15221  continue */\n      pop\n      jump(tag_144)\n        /* \"contracts/Blockchain_task.sol\":15145:15236  if (campaign.isCancelled || campaign.isCompleted) {... */\n    tag_146:\n        /* \"contracts/Blockchain_task.sol\":15270:15275  false */\n      0x00\n        /* \"contracts/Blockchain_task.sol\":15250:15258  campaign */\n      dup2\n        /* \"contracts/Blockchain_task.sol\":15250:15267  campaign.isActive */\n      0x06\n      add\n      0x00\n        /* \"contracts/Blockchain_task.sol\":15250:15275  campaign.isActive = false */\n      0x0100\n      exp\n      dup2\n      sload\n      dup2\n      0xff\n      mul\n      not\n      and\n      swap1\n      dup4\n      iszero\n      iszero\n      mul\n      or\n      swap1\n      sstore\n      pop\n        /* \"contracts/Blockchain_task.sol\":15312:15316  true */\n      0x01\n        /* \"contracts/Blockchain_task.sol\":15289:15297  campaign */\n      dup2\n        /* \"contracts/Blockchain_task.sol\":15289:15309  campaign.isCancelled */\n      0x06\n      add\n      0x01\n        /* \"contracts/Blockchain_task.sol\":15289:15316  campaign.isCancelled = true */\n      0x0100\n      exp\n      dup2\n      sload\n      dup2\n      0xff\n      mul\n      not\n      and\n      swap1\n      dup4\n      iszero\n      iszero\n      mul\n      or\n      swap1\n      sstore\n      pop\n        /* \"contracts/Blockchain_task.sol\":15400:15409  uint256 j */\n      0x00\n        /* \"contracts/Blockchain_task.sol\":15395:15703  for (uint256 j = 0; j < campaign.backers.length; j++) {... */\n    tag_147:\n        /* \"contracts/Blockchain_task.sol\":15419:15427  campaign */\n      dup2\n        /* \"contracts/Blockchain_task.sol\":15419:15435  campaign.backers */\n      0x07\n      add\n        /* \"contracts/Blockchain_task.sol\":15419:15442  campaign.backers.length */\n      dup1\n      sload\n      swap1\n      pop\n        /* \"contracts/Blockchain_task.sol\":15415:15416  j */\n      dup2\n        /* \"contracts/Blockchain_task.sol\":15415:15442  j < campaign.backers.length */\n      lt\n        /* \"contracts/Blockchain_task.sol\":15395:15703  for (uint256 j = 0; j < campaign.backers.length; j++) {... */\n      iszero\n      tag_148\n      jumpi\n        /* \"contracts/Blockchain_task.sol\":15467:15481  address backer */\n      0x00\n        /* \"contracts/Blockchain_task.sol\":15484:15492  campaign */\n      dup3\n        /* \"contracts/Blockchain_task.sol\":15484:15500  campaign.backers */\n      0x07\n      add\n        /* \"contracts/Blockchain_task.sol\":15501:15502  j */\n      dup3\n        /* \"contracts/Blockchain_task.sol\":15484:15503  campaign.backers[j] */\n      dup2\n      sload\n      dup2\n      lt\n      tag_150\n      jumpi\n      tag_151\n      tag_152\n      jump\t// in\n    tag_151:\n    tag_150:\n      swap1\n      0x00\n      mstore\n      keccak256(0x00, 0x20)\n      add\n      0x00\n      swap1\n      sload\n      swap1\n      0x0100\n      exp\n      swap1\n      div\n      0xffffffffffffffffffffffffffffffffffffffff\n      and\n        /* \"contracts/Blockchain_task.sol\":15467:15503  address backer = campaign.backers[j] */\n      swap1\n      pop\n        /* \"contracts/Blockchain_task.sol\":15521:15535  uint256 shares */\n      0x00\n        /* \"contracts/Blockchain_task.sol\":15538:15546  campaign */\n      dup4\n        /* \"contracts/Blockchain_task.sol\":15538:15562  campaign.sharesPerBacker */\n      0x08\n      add\n        /* \"contracts/Blockchain_task.sol\":15538:15570  campaign.sharesPerBacker[backer] */\n      0x00\n        /* \"contracts/Blockchain_task.sol\":15563:15569  backer */\n      dup4\n        /* \"contracts/Blockchain_task.sol\":15538:15570  campaign.sharesPerBacker[backer] */\n      0xffffffffffffffffffffffffffffffffffffffff\n      and\n      0xffffffffffffffffffffffffffffffffffffffff\n      and\n      dup2\n      mstore\n      0x20\n      add\n      swap1\n      dup2\n      mstore\n      0x20\n      add\n      0x00\n      keccak256\n      sload\n        /* \"contracts/Blockchain_task.sol\":15521:15570  uint256 shares = campaign.sharesPerBacker[backer] */\n      swap1\n      pop\n        /* \"contracts/Blockchain_task.sol\":15588:15608  uint256 refundAmount */\n      0x00\n        /* \"contracts/Blockchain_task.sol\":15620:15628  campaign */\n      dup5\n        /* \"contracts/Blockchain_task.sol\":15620:15639  campaign.sharePrice */\n      0x03\n      add\n      sload\n        /* \"contracts/Blockchain_task.sol\":15611:15617  shares */\n      dup3\n        /* \"contracts/Blockchain_task.sol\":15611:15639  shares * campaign.sharePrice */\n      tag_154\n      swap2\n      swap1\n      tag_155\n      jump\t// in\n    tag_154:\n        /* \"contracts/Blockchain_task.sol\":15588:15639  uint256 refundAmount = shares * campaign.sharePrice */\n      swap1\n      pop\n        /* \"contracts/Blockchain_task.sol\":15676:15688  refundAmount */\n      dup1\n        /* \"contracts/Blockchain_task.sol\":15657:15664  refunds */\n      0x08\n        /* \"contracts/Blockchain_task.sol\":15657:15672  refunds[backer] */\n      0x00\n        /* \"contracts/Blockchain_task.sol\":15665:15671  backer */\n      dup6\n        /* \"contracts/Blockchain_task.sol\":15657:15672  refunds[backer] */\n      0xffffffffffffffffffffffffffffffffffffffff\n      and\n      0xffffffffffffffffffffffffffffffffffffffff\n      and\n      dup2\n      mstore\n      0x20\n      add\n      swap1\n      dup2\n      mstore\n      0x20\n      add\n      0x00\n      keccak256\n      0x00\n        /* \"contracts/Blockchain_task.sol\":15657:15688  refunds[backer] += refundAmount */\n      dup3\n      dup3\n      sload\n      tag_156\n      swap2\n      swap1\n      tag_157\n      jump\t// in\n    tag_156:\n      swap3\n      pop\n      pop\n      dup2\n      swap1\n      sstore\n      pop\n        /* \"contracts/Blockchain_task.sol\":15449:15703  {... */\n      pop\n      pop\n      pop\n        /* \"contracts/Blockchain_task.sol\":15444:15447  j++ */\n      dup1\n      dup1\n      0x01\n      add\n      swap2\n      pop\n      pop\n        /* \"contracts/Blockchain_task.sol\":15395:15703  for (uint256 j = 0; j < campaign.backers.length; j++) {... */\n      jump(tag_147)\n    tag_148:\n      pop\n        /* \"contracts/Blockchain_task.sol\":15015:15713  {... */\n      pop\n        /* \"contracts/Blockchain_task.sol\":14969:15713  for (uint256 i = 0; i < campaignCounter; i++) {... */\n    tag_144:\n        /* \"contracts/Blockchain_task.sol\":15010:15013  i++ */\n      dup1\n      dup1\n      0x01\n      add\n      swap2\n      pop\n      pop\n        /* \"contracts/Blockchain_task.sol\":14969:15713  for (uint256 i = 0; i < campaignCounter; i++) {... */\n      jump(tag_142)\n    tag_143:\n      pop\n        /* \"contracts/Blockchain_task.sol\":15741:15746  false */\n      0x00\n        /* \"contracts/Blockchain_task.sol\":15722:15738  isContractActive */\n      0x09\n      0x00\n        /* \"contracts/Blockchain_task.sol\":15722:15746  isContractActive = false */\n      0x0100\n      exp\n      dup2\n      sload\n      dup2\n      0xff\n      mul\n      not\n      and\n      swap1\n      dup4\n      iszero\n      iszero\n      mul\n      or\n      swap1\n      sstore\n      pop\n        /* \"contracts/Blockchain_task.sol\":14900:15753  function destroyContract() public onlyOwner activeContract {... */\n      jump\t// out\n        /* \"contracts/Blockchain_task.sol\":1030:1075  mapping(uint256 => Campaign) public campaigns */\n    tag_35:\n      mstore(0x20, 0x04)\n      dup1\n      0x00\n      mstore\n      keccak256(0x00, 0x40)\n      0x00\n      swap2\n      pop\n      swap1\n      pop\n      dup1\n      0x00\n      add\n      sload\n      swap1\n      dup1\n      0x01\n      add\n      0x00\n      swap1\n      sload\n      swap1\n      0x0100\n      exp\n      swap1\n      div\n      0xffffffffffffffffffffffffffffffffffffffff\n      and\n      swap1\n      dup1\n      0x02\n      add\n      dup1\n      sload\n      tag_158\n      swap1\n      tag_159\n      jump\t// in\n    tag_158:\n      dup1\n      0x1f\n      add\n      0x20\n      dup1\n      swap2\n      div\n      mul\n      0x20\n      add\n      mload(0x40)\n      swap1\n      dup2\n      add\n      0x40\n      mstore\n      dup1\n      swap3\n      swap2\n      swap1\n      dup2\n      dup2\n      mstore\n      0x20\n      add\n      dup3\n      dup1\n      sload\n      tag_160\n      swap1\n      tag_159\n      jump\t// in\n    tag_160:\n      dup1\n      iszero\n      tag_161\n      jumpi\n      dup1\n      0x1f\n      lt\n      tag_162\n      jumpi\n      0x0100\n      dup1\n      dup4\n      sload\n      div\n      mul\n      dup4\n      mstore\n      swap2\n      0x20\n      add\n      swap2\n      jump(tag_161)\n    tag_162:\n      dup3\n      add\n      swap2\n      swap1\n      0x00\n      mstore\n      keccak256(0x00, 0x20)\n      swap1\n    tag_163:\n      dup2\n      sload\n      dup2\n      mstore\n      swap1\n      0x01\n      add\n      swap1\n      0x20\n      add\n      dup1\n      dup4\n      gt\n      tag_163\n      jumpi\n      dup3\n      swap1\n      sub\n      0x1f\n      and\n      dup3\n      add\n      swap2\n    tag_161:\n      pop\n      pop\n      pop\n      pop\n      pop\n      swap1\n      dup1\n      0x03\n      add\n      sload\n      swap1\n      dup1\n      0x04\n      add\n      sload\n      swap1\n      dup1\n      0x05\n      add\n      sload\n      swap1\n      dup1\n      0x06\n      add\n      0x00\n      swap1\n      sload\n      swap1\n      0x0100\n      exp\n      swap1\n      div\n      0xff\n      and\n      swap1\n      dup1\n      0x06\n      add\n      0x01\n      swap1\n      sload\n      swap1\n      0x0100\n      exp\n      swap1\n      div\n      0xff\n      and\n      swap1\n      dup1\n      0x06\n      add\n      0x02\n      swap1\n      sload\n      swap1\n      0x0100\n      exp\n      swap1\n      div\n      0xff\n      and\n      swap1\n      pop\n      dup10\n      jump\t// out\n        /* \"contracts/Blockchain_task.sol\":4447:5421  function campaignFunding(uint256 numberOfShares, uint256 campaignId)... */\n    tag_41:\n        /* \"contracts/Blockchain_task.sol\":2338:2343  owner */\n      0x00\n      dup1\n      sload\n      swap1\n      0x0100\n      exp\n      swap1\n      div\n      0xffffffffffffffffffffffffffffffffffffffff\n      and\n        /* \"contracts/Blockchain_task.sol\":2324:2343  msg.sender != owner */\n      0xffffffffffffffffffffffffffffffffffffffff\n      and\n        /* \"contracts/Blockchain_task.sol\":2324:2334  msg.sender */\n      caller\n        /* \"contracts/Blockchain_task.sol\":2324:2343  msg.sender != owner */\n      0xffffffffffffffffffffffffffffffffffffffff\n      and\n      sub\n        /* \"contracts/Blockchain_task.sol\":2303:2417  require(... */\n      tag_165\n      jumpi\n      mload(0x40)\n      0x08c379a000000000000000000000000000000000000000000000000000000000\n      dup2\n      mstore\n      0x04\n      add\n      tag_166\n      swap1\n      tag_167\n      jump\t// in\n    tag_166:\n      mload(0x40)\n      dup1\n      swap2\n      sub\n      swap1\n      revert\n    tag_165:\n        /* \"contracts/Blockchain_task.sol\":2481:2491  bannedList */\n      0x06\n        /* \"contracts/Blockchain_task.sol\":2481:2503  bannedList[msg.sender] */\n      0x00\n        /* \"contracts/Blockchain_task.sol\":2492:2502  msg.sender */\n      caller\n        /* \"contracts/Blockchain_task.sol\":2481:2503  bannedList[msg.sender] */\n      0xffffffffffffffffffffffffffffffffffffffff\n      and\n      0xffffffffffffffffffffffffffffffffffffffff\n      and\n      dup2\n      mstore\n      0x20\n      add\n      swap1\n      dup2\n      mstore\n      0x20\n      add\n      0x00\n      keccak256\n      0x00\n      swap1\n      sload\n      swap1\n      0x0100\n      exp\n      swap1\n      div\n      0xff\n      and\n        /* \"contracts/Blockchain_task.sol\":2480:2503  !bannedList[msg.sender] */\n      iszero\n        /* \"contracts/Blockchain_task.sol\":2472:2525  require(!bannedList[msg.sender], \"Address is banned\") */\n      tag_169\n      jumpi\n      mload(0x40)\n      0x08c379a000000000000000000000000000000000000000000000000000000000\n      dup2\n      mstore\n      0x04\n      add\n      tag_170\n      swap1\n      tag_171\n      jump\t// in\n    tag_170:\n      mload(0x40)\n      dup1\n      swap2\n      sub\n      swap1\n      revert\n    tag_169:\n        /* \"contracts/Blockchain_task.sol\":4605:4615  campaignId */\n      dup1\n        /* \"contracts/Blockchain_task.sol\":2611:2620  campaigns */\n      0x04\n        /* \"contracts/Blockchain_task.sol\":2611:2632  campaigns[campaignId] */\n      0x00\n        /* \"contracts/Blockchain_task.sol\":2621:2631  campaignId */\n      dup3\n        /* \"contracts/Blockchain_task.sol\":2611:2632  campaigns[campaignId] */\n      dup2\n      mstore\n      0x20\n      add\n      swap1\n      dup2\n      mstore\n      0x20\n      add\n      0x00\n      keccak256\n        /* \"contracts/Blockchain_task.sol\":2611:2641  campaigns[campaignId].isActive */\n      0x06\n      add\n      0x00\n      swap1\n      sload\n      swap1\n      0x0100\n      exp\n      swap1\n      div\n      0xff\n      and\n        /* \"contracts/Blockchain_task.sol\":2603:2668  require(campaigns[campaignId].isActive, \"Campaign is not active\") */\n      tag_173\n      jumpi\n      mload(0x40)\n      0x08c379a000000000000000000000000000000000000000000000000000000000\n      dup2\n      mstore\n      0x04\n      add\n      tag_174\n      swap1\n      tag_175\n      jump\t// in\n    tag_174:\n      mload(0x40)\n      dup1\n      swap2\n      sub\n      swap1\n      revert\n    tag_173:\n        /* \"contracts/Blockchain_task.sol\":4638:4648  campaignId */\n      dup2\n        /* \"contracts/Blockchain_task.sol\":2753:2762  campaigns */\n      0x04\n        /* \"contracts/Blockchain_task.sol\":2753:2774  campaigns[campaignId] */\n      0x00\n        /* \"contracts/Blockchain_task.sol\":2763:2773  campaignId */\n      dup3\n        /* \"contracts/Blockchain_task.sol\":2753:2774  campaigns[campaignId] */\n      dup2\n      mstore\n      0x20\n      add\n      swap1\n      dup2\n      mstore\n      0x20\n      add\n      0x00\n      keccak256\n        /* \"contracts/Blockchain_task.sol\":2753:2786  campaigns[campaignId].isCancelled */\n      0x06\n      add\n      0x01\n      swap1\n      sload\n      swap1\n      0x0100\n      exp\n      swap1\n      div\n      0xff\n      and\n        /* \"contracts/Blockchain_task.sol\":2752:2786  !campaigns[campaignId].isCancelled */\n      iszero\n        /* \"contracts/Blockchain_task.sol\":2744:2812  require(!campaigns[campaignId].isCancelled, \"Campaign is cancelled\") */\n      tag_177\n      jumpi\n      mload(0x40)\n      0x08c379a000000000000000000000000000000000000000000000000000000000\n      dup2\n      mstore\n      0x04\n      add\n      tag_178\n      swap1\n      tag_179\n      jump\t// in\n    tag_178:\n      mload(0x40)\n      dup1\n      swap2\n      sub\n      swap1\n      revert\n    tag_177:\n        /* \"contracts/Blockchain_task.sol\":4671:4681  campaignId */\n      dup3\n        /* \"contracts/Blockchain_task.sol\":2910:2919  campaigns */\n      0x04\n        /* \"contracts/Blockchain_task.sol\":2910:2931  campaigns[campaignId] */\n      0x00\n        /* \"contracts/Blockchain_task.sol\":2920:2930  campaignId */\n      dup3\n        /* \"contracts/Blockchain_task.sol\":2910:2931  campaigns[campaignId] */\n      dup2\n      mstore\n      0x20\n      add\n      swap1\n      dup2\n      mstore\n      0x20\n      add\n      0x00\n      keccak256\n        /* \"contracts/Blockchain_task.sol\":2910:2943  campaigns[campaignId].isCompleted */\n      0x06\n      add\n      0x02\n      swap1\n      sload\n      swap1\n      0x0100\n      exp\n      swap1\n      div\n      0xff\n      and\n        /* \"contracts/Blockchain_task.sol\":2909:2943  !campaigns[campaignId].isCompleted */\n      iszero\n        /* \"contracts/Blockchain_task.sol\":2888:2998  require(... */\n      tag_181\n      jumpi\n      mload(0x40)\n      0x08c379a000000000000000000000000000000000000000000000000000000000\n      dup2\n      mstore\n      0x04\n      add\n      tag_182\n      swap1\n      tag_183\n      jump\t// in\n    tag_182:\n      mload(0x40)\n      dup1\n      swap2\n      sub\n      swap1\n      revert\n    tag_181:\n        /* \"contracts/Blockchain_task.sol\":2206:2222  isContractActive */\n      0x09\n      0x00\n      swap1\n      sload\n      swap1\n      0x0100\n      exp\n      swap1\n      div\n      0xff\n      and\n        /* \"contracts/Blockchain_task.sol\":2198:2249  require(isContractActive, \"Contract is not active\") */\n      tag_185\n      jumpi\n      mload(0x40)\n      0x08c379a000000000000000000000000000000000000000000000000000000000\n      dup2\n      mstore\n      0x04\n      add\n      tag_186\n      swap1\n      tag_140\n      jump\t// in\n    tag_186:\n      mload(0x40)\n      dup1\n      swap2\n      sub\n      swap1\n      revert\n    tag_185:\n        /* \"contracts/Blockchain_task.sol\":4720:4745  Campaign storage campaign */\n      0x00\n        /* \"contracts/Blockchain_task.sol\":4748:4757  campaigns */\n      0x04\n        /* \"contracts/Blockchain_task.sol\":4748:4769  campaigns[campaignId] */\n      0x00\n        /* \"contracts/Blockchain_task.sol\":4758:4768  campaignId */\n      dup7\n        /* \"contracts/Blockchain_task.sol\":4748:4769  campaigns[campaignId] */\n      dup2\n      mstore\n      0x20\n      add\n      swap1\n      dup2\n      mstore\n      0x20\n      add\n      0x00\n      keccak256\n        /* \"contracts/Blockchain_task.sol\":4720:4769  Campaign storage campaign = campaigns[campaignId] */\n      swap1\n      pop\n        /* \"contracts/Blockchain_task.sol\":4814:4822  campaign */\n      dup1\n        /* \"contracts/Blockchain_task.sol\":4814:4835  campaign.entrepreneur */\n      0x01\n      add\n      0x00\n      swap1\n      sload\n      swap1\n      0x0100\n      exp\n      swap1\n      div\n      0xffffffffffffffffffffffffffffffffffffffff\n      and\n        /* \"contracts/Blockchain_task.sol\":4800:4835  msg.sender != campaign.entrepreneur */\n      0xffffffffffffffffffffffffffffffffffffffff\n      and\n        /* \"contracts/Blockchain_task.sol\":4800:4810  msg.sender */\n      caller\n        /* \"contracts/Blockchain_task.sol\":4800:4835  msg.sender != campaign.entrepreneur */\n      0xffffffffffffffffffffffffffffffffffffffff\n      and\n      sub\n        /* \"contracts/Blockchain_task.sol\":4779:4888  require(... */\n      tag_188\n      jumpi\n      mload(0x40)\n      0x08c379a000000000000000000000000000000000000000000000000000000000\n      dup2\n      mstore\n      0x04\n      add\n      tag_189\n      swap1\n      tag_190\n      jump\t// in\n    tag_189:\n      mload(0x40)\n      dup1\n      swap2\n      sub\n      swap1\n      revert\n    tag_188:\n        /* \"contracts/Blockchain_task.sol\":4899:4916  uint256 totalCost */\n      0x00\n        /* \"contracts/Blockchain_task.sol\":4941:4955  numberOfShares */\n      dup7\n        /* \"contracts/Blockchain_task.sol\":4919:4927  campaign */\n      dup3\n        /* \"contracts/Blockchain_task.sol\":4919:4938  campaign.sharePrice */\n      0x03\n      add\n      sload\n        /* \"contracts/Blockchain_task.sol\":4919:4955  campaign.sharePrice * numberOfShares */\n      tag_191\n      swap2\n      swap1\n      tag_155\n      jump\t// in\n    tag_191:\n        /* \"contracts/Blockchain_task.sol\":4899:4955  uint256 totalCost = campaign.sharePrice * numberOfShares */\n      swap1\n      pop\n        /* \"contracts/Blockchain_task.sol\":5072:5081  totalCost */\n      dup1\n        /* \"contracts/Blockchain_task.sol\":5059:5068  msg.value */\n      callvalue\n        /* \"contracts/Blockchain_task.sol\":5059:5081  msg.value == totalCost */\n      eq\n        /* \"contracts/Blockchain_task.sol\":5051:5110  require(msg.value == totalCost, \"Incorrect Wei value sent\") */\n      tag_192\n      jumpi\n      mload(0x40)\n      0x08c379a000000000000000000000000000000000000000000000000000000000\n      dup2\n      mstore\n      0x04\n      add\n      tag_193\n      swap1\n      tag_194\n      jump\t// in\n    tag_193:\n      mload(0x40)\n      dup1\n      swap2\n      sub\n      swap1\n      revert\n    tag_192:\n        /* \"contracts/Blockchain_task.sol\":5147:5161  numberOfShares */\n      dup7\n        /* \"contracts/Blockchain_task.sol\":5121:5129  campaign */\n      dup3\n        /* \"contracts/Blockchain_task.sol\":5121:5143  campaign.currentShares */\n      0x05\n      add\n      0x00\n        /* \"contracts/Blockchain_task.sol\":5121:5161  campaign.currentShares += numberOfShares */\n      dup3\n      dup3\n      sload\n      tag_195\n      swap2\n      swap1\n      tag_157\n      jump\t// in\n    tag_195:\n      swap3\n      pop\n      pop\n      dup2\n      swap1\n      sstore\n      pop\n        /* \"contracts/Blockchain_task.sol\":5215:5216  0 */\n      0x00\n        /* \"contracts/Blockchain_task.sol\":5175:5183  campaign */\n      dup3\n        /* \"contracts/Blockchain_task.sol\":5175:5199  campaign.sharesPerBacker */\n      0x08\n      add\n        /* \"contracts/Blockchain_task.sol\":5175:5211  campaign.sharesPerBacker[msg.sender] */\n      0x00\n        /* \"contracts/Blockchain_task.sol\":5200:5210  msg.sender */\n      caller\n        /* \"contracts/Blockchain_task.sol\":5175:5211  campaign.sharesPerBacker[msg.sender] */\n      0xffffffffffffffffffffffffffffffffffffffff\n      and\n      0xffffffffffffffffffffffffffffffffffffffff\n      and\n      dup2\n      mstore\n      0x20\n      add\n      swap1\n      dup2\n      mstore\n      0x20\n      add\n      0x00\n      keccak256\n      sload\n        /* \"contracts/Blockchain_task.sol\":5175:5216  campaign.sharesPerBacker[msg.sender] == 0 */\n      sub\n        /* \"contracts/Blockchain_task.sol\":5171:5276  if (campaign.sharesPerBacker[msg.sender] == 0) {... */\n      tag_196\n      jumpi\n        /* \"contracts/Blockchain_task.sol\":5232:5240  campaign */\n      dup2\n        /* \"contracts/Blockchain_task.sol\":5232:5248  campaign.backers */\n      0x07\n      add\n        /* \"contracts/Blockchain_task.sol\":5254:5264  msg.sender */\n      caller\n        /* \"contracts/Blockchain_task.sol\":5232:5265  campaign.backers.push(msg.sender) */\n      swap1\n      dup1\n      0x01\n      dup2\n      sload\n      add\n      dup1\n      dup3\n      sstore\n      dup1\n      swap2\n      pop\n      pop\n      0x01\n      swap1\n      sub\n      swap1\n      0x00\n      mstore\n      keccak256(0x00, 0x20)\n      add\n      0x00\n      swap1\n      swap2\n      swap1\n      swap2\n      swap1\n      swap2\n      0x0100\n      exp\n      dup2\n      sload\n      dup2\n      0xffffffffffffffffffffffffffffffffffffffff\n      mul\n      not\n      and\n      swap1\n      dup4\n      0xffffffffffffffffffffffffffffffffffffffff\n      and\n      mul\n      or\n      swap1\n      sstore\n      pop\n        /* \"contracts/Blockchain_task.sol\":5171:5276  if (campaign.sharesPerBacker[msg.sender] == 0) {... */\n    tag_196:\n        /* \"contracts/Blockchain_task.sol\":5325:5339  numberOfShares */\n      dup7\n        /* \"contracts/Blockchain_task.sol\":5285:5293  campaign */\n      dup3\n        /* \"contracts/Blockchain_task.sol\":5285:5309  campaign.sharesPerBacker */\n      0x08\n      add\n        /* \"contracts/Blockchain_task.sol\":5285:5321  campaign.sharesPerBacker[msg.sender] */\n      0x00\n        /* \"contracts/Blockchain_task.sol\":5310:5320  msg.sender */\n      caller\n        /* \"contracts/Blockchain_task.sol\":5285:5321  campaign.sharesPerBacker[msg.sender] */\n      0xffffffffffffffffffffffffffffffffffffffff\n      and\n      0xffffffffffffffffffffffffffffffffffffffff\n      and\n      dup2\n      mstore\n      0x20\n      add\n      swap1\n      dup2\n      mstore\n      0x20\n      add\n      0x00\n      keccak256\n      0x00\n        /* \"contracts/Blockchain_task.sol\":5285:5339  campaign.sharesPerBacker[msg.sender] += numberOfShares */\n      dup3\n      dup3\n      sload\n      tag_198\n      swap2\n      swap1\n      tag_157\n      jump\t// in\n    tag_198:\n      swap3\n      pop\n      pop\n      dup2\n      swap1\n      sstore\n      pop\n        /* \"contracts/Blockchain_task.sol\":5359:5414  SharesPurchased(campaignId, msg.sender, numberOfShares) */\n      0xd4a7a37d339805413b4085e0f8e0932dfb0a4f84f08f98a6e53673b5ee8eee15\n        /* \"contracts/Blockchain_task.sol\":5375:5385  campaignId */\n      dup7\n        /* \"contracts/Blockchain_task.sol\":5387:5397  msg.sender */\n      caller\n        /* \"contracts/Blockchain_task.sol\":5399:5413  numberOfShares */\n      dup10\n        /* \"contracts/Blockchain_task.sol\":5359:5414  SharesPurchased(campaignId, msg.sender, numberOfShares) */\n      mload(0x40)\n      tag_199\n      swap4\n      swap3\n      swap2\n      swap1\n      tag_200\n      jump\t// in\n    tag_199:\n      mload(0x40)\n      dup1\n      swap2\n      sub\n      swap1\n      log1\n        /* \"contracts/Blockchain_task.sol\":4710:5421  {... */\n      pop\n      pop\n        /* \"contracts/Blockchain_task.sol\":2822:2823  _ */\n      pop\n        /* \"contracts/Blockchain_task.sol\":2678:2679  _ */\n      pop\n        /* \"contracts/Blockchain_task.sol\":2535:2536  _ */\n      pop\n        /* \"contracts/Blockchain_task.sol\":4447:5421  function campaignFunding(uint256 numberOfShares, uint256 campaignId)... */\n      pop\n      pop\n      jump\t// out\n        /* \"contracts/Blockchain_task.sol\":13311:14323  function getInvestmentsByInvestor(address investor)... */\n    tag_46:\n        /* \"contracts/Blockchain_task.sol\":13408:13436  uint256[] memory campaignIds */\n      0x60\n        /* \"contracts/Blockchain_task.sol\":13438:13461  uint256[] memory shares */\n      dup1\n        /* \"contracts/Blockchain_task.sol\":13545:13568  uint256 investmentCount */\n      0x00\n        /* \"contracts/Blockchain_task.sol\":13588:13597  uint256 i */\n      dup1\n        /* \"contracts/Blockchain_task.sol\":13583:13751  for (uint256 i = 0; i < campaignCounter; i++) {... */\n    tag_202:\n        /* \"contracts/Blockchain_task.sol\":13607:13622  campaignCounter */\n      sload(0x03)\n        /* \"contracts/Blockchain_task.sol\":13603:13604  i */\n      dup2\n        /* \"contracts/Blockchain_task.sol\":13603:13622  i < campaignCounter */\n      lt\n        /* \"contracts/Blockchain_task.sol\":13583:13751  for (uint256 i = 0; i < campaignCounter; i++) {... */\n      iszero\n      tag_203\n      jumpi\n        /* \"contracts/Blockchain_task.sol\":13688:13689  0 */\n      0x00\n        /* \"contracts/Blockchain_task.sol\":13647:13656  campaigns */\n      0x04\n        /* \"contracts/Blockchain_task.sol\":13647:13659  campaigns[i] */\n      0x00\n        /* \"contracts/Blockchain_task.sol\":13657:13658  i */\n      dup4\n        /* \"contracts/Blockchain_task.sol\":13647:13659  campaigns[i] */\n      dup2\n      mstore\n      0x20\n      add\n      swap1\n      dup2\n      mstore\n      0x20\n      add\n      0x00\n      keccak256\n        /* \"contracts/Blockchain_task.sol\":13647:13675  campaigns[i].sharesPerBacker */\n      0x08\n      add\n        /* \"contracts/Blockchain_task.sol\":13647:13685  campaigns[i].sharesPerBacker[investor] */\n      0x00\n        /* \"contracts/Blockchain_task.sol\":13676:13684  investor */\n      dup8\n        /* \"contracts/Blockchain_task.sol\":13647:13685  campaigns[i].sharesPerBacker[investor] */\n      0xffffffffffffffffffffffffffffffffffffffff\n      and\n      0xffffffffffffffffffffffffffffffffffffffff\n      and\n      dup2\n      mstore\n      0x20\n      add\n      swap1\n      dup2\n      mstore\n      0x20\n      add\n      0x00\n      keccak256\n      sload\n        /* \"contracts/Blockchain_task.sol\":13647:13689  campaigns[i].sharesPerBacker[investor] > 0 */\n      gt\n        /* \"contracts/Blockchain_task.sol\":13643:13741  if (campaigns[i].sharesPerBacker[investor] > 0) {... */\n      iszero\n      tag_205\n      jumpi\n        /* \"contracts/Blockchain_task.sol\":13709:13726  investmentCount++ */\n      dup2\n      dup1\n      tag_206\n      swap1\n      tag_207\n      jump\t// in\n    tag_206:\n      swap3\n      pop\n      pop\n        /* \"contracts/Blockchain_task.sol\":13643:13741  if (campaigns[i].sharesPerBacker[investor] > 0) {... */\n    tag_205:\n        /* \"contracts/Blockchain_task.sol\":13624:13627  i++ */\n      dup1\n      dup1\n      0x01\n      add\n      swap2\n      pop\n      pop\n        /* \"contracts/Blockchain_task.sol\":13583:13751  for (uint256 i = 0; i < campaignCounter; i++) {... */\n      jump(tag_202)\n    tag_203:\n      pop\n        /* \"contracts/Blockchain_task.sol\":13835:13850  investmentCount */\n      dup1\n        /* \"contracts/Blockchain_task.sol\":13821:13851  new uint256[](investmentCount) */\n      0xffffffffffffffff\n      dup2\n      gt\n      iszero\n      tag_208\n      jumpi\n      tag_209\n      tag_210\n      jump\t// in\n    tag_209:\n    tag_208:\n      mload(0x40)\n      swap1\n      dup1\n      dup3\n      mstore\n      dup1\n      0x20\n      mul\n      0x20\n      add\n      dup3\n      add\n      0x40\n      mstore\n      dup1\n      iszero\n      tag_211\n      jumpi\n      dup2\n      0x20\n      add\n      0x20\n      dup3\n      mul\n      dup1\n      calldatasize\n      dup4\n      calldatacopy\n      dup1\n      dup3\n      add\n      swap2\n      pop\n      pop\n      swap1\n      pop\n    tag_211:\n      pop\n        /* \"contracts/Blockchain_task.sol\":13807:13851  campaignIds = new uint256[](investmentCount) */\n      swap3\n      pop\n        /* \"contracts/Blockchain_task.sol\":13884:13899  investmentCount */\n      dup1\n        /* \"contracts/Blockchain_task.sol\":13870:13900  new uint256[](investmentCount) */\n      0xffffffffffffffff\n      dup2\n      gt\n      iszero\n      tag_212\n      jumpi\n      tag_213\n      tag_210\n      jump\t// in\n    tag_213:\n    tag_212:\n      mload(0x40)\n      swap1\n      dup1\n      dup3\n      mstore\n      dup1\n      0x20\n      mul\n      0x20\n      add\n      dup3\n      add\n      0x40\n      mstore\n      dup1\n      iszero\n      tag_214\n      jumpi\n      dup2\n      0x20\n      add\n      0x20\n      dup3\n      mul\n      dup1\n      calldatasize\n      dup4\n      calldatacopy\n      dup1\n      dup3\n      add\n      swap2\n      pop\n      pop\n      swap1\n      pop\n    tag_214:\n      pop\n        /* \"contracts/Blockchain_task.sol\":13861:13900  shares = new uint256[](investmentCount) */\n      swap2\n      pop\n        /* \"contracts/Blockchain_task.sol\":13952:13965  uint256 index */\n      0x00\n        /* \"contracts/Blockchain_task.sol\":13984:13993  uint256 i */\n      dup1\n        /* \"contracts/Blockchain_task.sol\":13979:14278  for (uint256 i = 0; i < campaignCounter; i++) {... */\n    tag_215:\n        /* \"contracts/Blockchain_task.sol\":14003:14018  campaignCounter */\n      sload(0x03)\n        /* \"contracts/Blockchain_task.sol\":13999:14000  i */\n      dup2\n        /* \"contracts/Blockchain_task.sol\":13999:14018  i < campaignCounter */\n      lt\n        /* \"contracts/Blockchain_task.sol\":13979:14278  for (uint256 i = 0; i < campaignCounter; i++) {... */\n      iszero\n      tag_216\n      jumpi\n        /* \"contracts/Blockchain_task.sol\":14039:14061  uint256 investorShares */\n      0x00\n        /* \"contracts/Blockchain_task.sol\":14064:14073  campaigns */\n      0x04\n        /* \"contracts/Blockchain_task.sol\":14064:14076  campaigns[i] */\n      0x00\n        /* \"contracts/Blockchain_task.sol\":14074:14075  i */\n      dup4\n        /* \"contracts/Blockchain_task.sol\":14064:14076  campaigns[i] */\n      dup2\n      mstore\n      0x20\n      add\n      swap1\n      dup2\n      mstore\n      0x20\n      add\n      0x00\n      keccak256\n        /* \"contracts/Blockchain_task.sol\":14064:14092  campaigns[i].sharesPerBacker */\n      0x08\n      add\n        /* \"contracts/Blockchain_task.sol\":14064:14102  campaigns[i].sharesPerBacker[investor] */\n      0x00\n        /* \"contracts/Blockchain_task.sol\":14093:14101  investor */\n      dup9\n        /* \"contracts/Blockchain_task.sol\":14064:14102  campaigns[i].sharesPerBacker[investor] */\n      0xffffffffffffffffffffffffffffffffffffffff\n      and\n      0xffffffffffffffffffffffffffffffffffffffff\n      and\n      dup2\n      mstore\n      0x20\n      add\n      swap1\n      dup2\n      mstore\n      0x20\n      add\n      0x00\n      keccak256\n      sload\n        /* \"contracts/Blockchain_task.sol\":14039:14102  uint256 investorShares = campaigns[i].sharesPerBacker[investor] */\n      swap1\n      pop\n        /* \"contracts/Blockchain_task.sol\":14137:14138  0 */\n      0x00\n        /* \"contracts/Blockchain_task.sol\":14120:14134  investorShares */\n      dup2\n        /* \"contracts/Blockchain_task.sol\":14120:14138  investorShares > 0 */\n      gt\n        /* \"contracts/Blockchain_task.sol\":14116:14268  if (investorShares > 0) {... */\n      iszero\n      tag_218\n      jumpi\n        /* \"contracts/Blockchain_task.sol\":14179:14180  i */\n      dup2\n        /* \"contracts/Blockchain_task.sol\":14158:14169  campaignIds */\n      dup7\n        /* \"contracts/Blockchain_task.sol\":14170:14175  index */\n      dup5\n        /* \"contracts/Blockchain_task.sol\":14158:14176  campaignIds[index] */\n      dup2\n      mload\n      dup2\n      lt\n      tag_219\n      jumpi\n      tag_220\n      tag_152\n      jump\t// in\n    tag_220:\n    tag_219:\n      0x20\n      mul\n      0x20\n      add\n      add\n        /* \"contracts/Blockchain_task.sol\":14158:14180  campaignIds[index] = i */\n      dup2\n      dup2\n      mstore\n      pop\n      pop\n        /* \"contracts/Blockchain_task.sol\":14214:14228  investorShares */\n      dup1\n        /* \"contracts/Blockchain_task.sol\":14198:14204  shares */\n      dup6\n        /* \"contracts/Blockchain_task.sol\":14205:14210  index */\n      dup5\n        /* \"contracts/Blockchain_task.sol\":14198:14211  shares[index] */\n      dup2\n      mload\n      dup2\n      lt\n      tag_221\n      jumpi\n      tag_222\n      tag_152\n      jump\t// in\n    tag_222:\n    tag_221:\n      0x20\n      mul\n      0x20\n      add\n      add\n        /* \"contracts/Blockchain_task.sol\":14198:14228  shares[index] = investorShares */\n      dup2\n      dup2\n      mstore\n      pop\n      pop\n        /* \"contracts/Blockchain_task.sol\":14246:14253  index++ */\n      dup3\n      dup1\n      tag_223\n      swap1\n      tag_207\n      jump\t// in\n    tag_223:\n      swap4\n      pop\n      pop\n        /* \"contracts/Blockchain_task.sol\":14116:14268  if (investorShares > 0) {... */\n    tag_218:\n        /* \"contracts/Blockchain_task.sol\":14025:14278  {... */\n      pop\n        /* \"contracts/Blockchain_task.sol\":14020:14023  i++ */\n      dup1\n      dup1\n      0x01\n      add\n      swap2\n      pop\n      pop\n        /* \"contracts/Blockchain_task.sol\":13979:14278  for (uint256 i = 0; i < campaignCounter; i++) {... */\n      jump(tag_215)\n    tag_216:\n      pop\n        /* \"contracts/Blockchain_task.sol\":14288:14316  return (campaignIds, shares) */\n      pop\n      pop\n        /* \"contracts/Blockchain_task.sol\":13311:14323  function getInvestmentsByInvestor(address investor)... */\n      swap2\n      pop\n      swap2\n      jump\t// out\n        /* \"contracts/Blockchain_task.sol\":3681:4414  function createCampaign(... */\n    tag_52:\n        /* \"contracts/Blockchain_task.sol\":2338:2343  owner */\n      0x00\n      dup1\n      sload\n      swap1\n      0x0100\n      exp\n      swap1\n      div\n      0xffffffffffffffffffffffffffffffffffffffff\n      and\n        /* \"contracts/Blockchain_task.sol\":2324:2343  msg.sender != owner */\n      0xffffffffffffffffffffffffffffffffffffffff\n      and\n        /* \"contracts/Blockchain_task.sol\":2324:2334  msg.sender */\n      caller\n        /* \"contracts/Blockchain_task.sol\":2324:2343  msg.sender != owner */\n      0xffffffffffffffffffffffffffffffffffffffff\n      and\n      sub\n        /* \"contracts/Blockchain_task.sol\":2303:2417  require(... */\n      tag_225\n      jumpi\n      mload(0x40)\n      0x08c379a000000000000000000000000000000000000000000000000000000000\n      dup2\n      mstore\n      0x04\n      add\n      tag_226\n      swap1\n      tag_167\n      jump\t// in\n    tag_226:\n      mload(0x40)\n      dup1\n      swap2\n      sub\n      swap1\n      revert\n    tag_225:\n        /* \"contracts/Blockchain_task.sol\":2481:2491  bannedList */\n      0x06\n        /* \"contracts/Blockchain_task.sol\":2481:2503  bannedList[msg.sender] */\n      0x00\n        /* \"contracts/Blockchain_task.sol\":2492:2502  msg.sender */\n      caller\n        /* \"contracts/Blockchain_task.sol\":2481:2503  bannedList[msg.sender] */\n      0xffffffffffffffffffffffffffffffffffffffff\n      and\n      0xffffffffffffffffffffffffffffffffffffffff\n      and\n      dup2\n      mstore\n      0x20\n      add\n      swap1\n      dup2\n      mstore\n      0x20\n      add\n      0x00\n      keccak256\n      0x00\n      swap1\n      sload\n      swap1\n      0x0100\n      exp\n      swap1\n      div\n      0xff\n      and\n        /* \"contracts/Blockchain_task.sol\":2480:2503  !bannedList[msg.sender] */\n      iszero\n        /* \"contracts/Blockchain_task.sol\":2472:2525  require(!bannedList[msg.sender], \"Address is banned\") */\n      tag_228\n      jumpi\n      mload(0x40)\n      0x08c379a000000000000000000000000000000000000000000000000000000000\n      dup2\n      mstore\n      0x04\n      add\n      tag_229\n      swap1\n      tag_171\n      jump\t// in\n    tag_229:\n      mload(0x40)\n      dup1\n      swap2\n      sub\n      swap1\n      revert\n    tag_228:\n        /* \"contracts/Blockchain_task.sol\":3073:3084  campaignFee */\n      sload(0x01)\n        /* \"contracts/Blockchain_task.sol\":3060:3069  msg.value */\n      callvalue\n        /* \"contracts/Blockchain_task.sol\":3060:3084  msg.value == campaignFee */\n      eq\n        /* \"contracts/Blockchain_task.sol\":3052:3111  require(msg.value == campaignFee, \"Incorrect campaign fee\") */\n      tag_231\n      jumpi\n      mload(0x40)\n      0x08c379a000000000000000000000000000000000000000000000000000000000\n      dup2\n      mstore\n      0x04\n      add\n      tag_232\n      swap1\n      tag_233\n      jump\t// in\n    tag_232:\n      mload(0x40)\n      dup1\n      swap2\n      sub\n      swap1\n      revert\n    tag_231:\n        /* \"contracts/Blockchain_task.sol\":3901:3912  totalShares */\n      dup1\n        /* \"contracts/Blockchain_task.sol\":3200:3201  0 */\n      0x00\n        /* \"contracts/Blockchain_task.sol\":3191:3197  shares */\n      dup2\n        /* \"contracts/Blockchain_task.sol\":3191:3201  shares > 0 */\n      gt\n        /* \"contracts/Blockchain_task.sol\":3183:3244  require(shares > 0, \"Total shares must be greater than zero\") */\n      tag_235\n      jumpi\n      mload(0x40)\n      0x08c379a000000000000000000000000000000000000000000000000000000000\n      dup2\n      mstore\n      0x04\n      add\n      tag_236\n      swap1\n      tag_237\n      jump\t// in\n    tag_236:\n      mload(0x40)\n      dup1\n      swap2\n      sub\n      swap1\n      revert\n    tag_235:\n        /* \"contracts/Blockchain_task.sol\":2206:2222  isContractActive */\n      0x09\n      0x00\n      swap1\n      sload\n      swap1\n      0x0100\n      exp\n      swap1\n      div\n      0xff\n      and\n        /* \"contracts/Blockchain_task.sol\":2198:2249  require(isContractActive, \"Contract is not active\") */\n      tag_239\n      jumpi\n      mload(0x40)\n      0x08c379a000000000000000000000000000000000000000000000000000000000\n      dup2\n      mstore\n      0x04\n      add\n      tag_240\n      swap1\n      tag_140\n      jump\t// in\n    tag_240:\n      mload(0x40)\n      dup1\n      swap2\n      sub\n      swap1\n      revert\n    tag_239:\n        /* \"contracts/Blockchain_task.sol\":3951:3979  Campaign storage newCampaign */\n      0x00\n        /* \"contracts/Blockchain_task.sol\":3982:3991  campaigns */\n      0x04\n        /* \"contracts/Blockchain_task.sol\":3982:4008  campaigns[campaignCounter] */\n      0x00\n        /* \"contracts/Blockchain_task.sol\":3992:4007  campaignCounter */\n      sload(0x03)\n        /* \"contracts/Blockchain_task.sol\":3982:4008  campaigns[campaignCounter] */\n      dup2\n      mstore\n      0x20\n      add\n      swap1\n      dup2\n      mstore\n      0x20\n      add\n      0x00\n      keccak256\n        /* \"contracts/Blockchain_task.sol\":3951:4008  Campaign storage newCampaign = campaigns[campaignCounter] */\n      swap1\n      pop\n        /* \"contracts/Blockchain_task.sol\":4043:4058  campaignCounter */\n      sload(0x03)\n        /* \"contracts/Blockchain_task.sol\":4018:4029  newCampaign */\n      dup2\n        /* \"contracts/Blockchain_task.sol\":4018:4040  newCampaign.campaignId */\n      0x00\n      add\n        /* \"contracts/Blockchain_task.sol\":4018:4058  newCampaign.campaignId = campaignCounter */\n      dup2\n      swap1\n      sstore\n      pop\n        /* \"contracts/Blockchain_task.sol\":4095:4105  msg.sender */\n      caller\n        /* \"contracts/Blockchain_task.sol\":4068:4079  newCampaign */\n      dup2\n        /* \"contracts/Blockchain_task.sol\":4068:4092  newCampaign.entrepreneur */\n      0x01\n      add\n      0x00\n        /* \"contracts/Blockchain_task.sol\":4068:4105  newCampaign.entrepreneur = msg.sender */\n      0x0100\n      exp\n      dup2\n      sload\n      dup2\n      0xffffffffffffffffffffffffffffffffffffffff\n      mul\n      not\n      and\n      swap1\n      dup4\n      0xffffffffffffffffffffffffffffffffffffffff\n      and\n      mul\n      or\n      swap1\n      sstore\n      pop\n        /* \"contracts/Blockchain_task.sol\":4135:4140  title */\n      dup5\n        /* \"contracts/Blockchain_task.sol\":4115:4126  newCampaign */\n      dup2\n        /* \"contracts/Blockchain_task.sol\":4115:4132  newCampaign.title */\n      0x02\n      add\n        /* \"contracts/Blockchain_task.sol\":4115:4140  newCampaign.title = title */\n      swap1\n      dup2\n      tag_242\n      swap2\n      swap1\n      tag_243\n      jump\t// in\n    tag_242:\n      pop\n        /* \"contracts/Blockchain_task.sol\":4175:4185  sharePrice */\n      dup4\n        /* \"contracts/Blockchain_task.sol\":4150:4161  newCampaign */\n      dup2\n        /* \"contracts/Blockchain_task.sol\":4150:4172  newCampaign.sharePrice */\n      0x03\n      add\n        /* \"contracts/Blockchain_task.sol\":4150:4185  newCampaign.sharePrice = sharePrice */\n      dup2\n      swap1\n      sstore\n      pop\n        /* \"contracts/Blockchain_task.sol\":4221:4232  totalShares */\n      dup3\n        /* \"contracts/Blockchain_task.sol\":4195:4206  newCampaign */\n      dup2\n        /* \"contracts/Blockchain_task.sol\":4195:4218  newCampaign.totalShares */\n      0x04\n      add\n        /* \"contracts/Blockchain_task.sol\":4195:4232  newCampaign.totalShares = totalShares */\n      dup2\n      swap1\n      sstore\n      pop\n        /* \"contracts/Blockchain_task.sol\":4265:4269  true */\n      0x01\n        /* \"contracts/Blockchain_task.sol\":4242:4253  newCampaign */\n      dup2\n        /* \"contracts/Blockchain_task.sol\":4242:4262  newCampaign.isActive */\n      0x06\n      add\n      0x00\n        /* \"contracts/Blockchain_task.sol\":4242:4269  newCampaign.isActive = true */\n      0x0100\n      exp\n      dup2\n      sload\n      dup2\n      0xff\n      mul\n      not\n      and\n      swap1\n      dup4\n      iszero\n      iszero\n      mul\n      or\n      swap1\n      sstore\n      pop\n        /* \"contracts/Blockchain_task.sol\":4279:4294  campaignCounter */\n      0x03\n      0x00\n        /* \"contracts/Blockchain_task.sol\":4279:4296  campaignCounter++ */\n      dup2\n      sload\n      dup1\n      swap3\n      swap2\n      swap1\n      tag_244\n      swap1\n      tag_207\n      jump\t// in\n    tag_244:\n      swap2\n      swap1\n      pop\n      sstore\n      pop\n        /* \"contracts/Blockchain_task.sol\":4329:4340  campaignFee */\n      sload(0x01)\n        /* \"contracts/Blockchain_task.sol\":4307:4325  totalFeesCollected */\n      0x02\n      0x00\n        /* \"contracts/Blockchain_task.sol\":4307:4340  totalFeesCollected += campaignFee */\n      dup3\n      dup3\n      sload\n      tag_245\n      swap2\n      swap1\n      tag_157\n      jump\t// in\n    tag_245:\n      swap3\n      pop\n      pop\n      dup2\n      swap1\n      sstore\n      pop\n        /* \"contracts/Blockchain_task.sol\":4356:4407  CampaignCreated(campaignCounter, msg.sender, title) */\n      0xc04c663886cae794dc52158f70fe6c8ee3b0140d4f48647282f9b693ff688a65\n        /* \"contracts/Blockchain_task.sol\":4372:4387  campaignCounter */\n      sload(0x03)\n        /* \"contracts/Blockchain_task.sol\":4389:4399  msg.sender */\n      caller\n        /* \"contracts/Blockchain_task.sol\":4401:4406  title */\n      dup8\n        /* \"contracts/Blockchain_task.sol\":4356:4407  CampaignCreated(campaignCounter, msg.sender, title) */\n      mload(0x40)\n      tag_246\n      swap4\n      swap3\n      swap2\n      swap1\n      tag_247\n      jump\t// in\n    tag_246:\n      mload(0x40)\n      dup1\n      swap2\n      sub\n      swap1\n      log1\n        /* \"contracts/Blockchain_task.sol\":3941:4414  {... */\n      pop\n        /* \"contracts/Blockchain_task.sol\":3121:3122  _ */\n      pop\n        /* \"contracts/Blockchain_task.sol\":3681:4414  function createCampaign(... */\n      pop\n      pop\n      pop\n      jump\t// out\n        /* \"contracts/Blockchain_task.sol\":9915:11224  function getCompletedCampaigns()... */\n    tag_55:\n        /* \"contracts/Blockchain_task.sol\":10016:10037  CampaignInfo[] memory */\n      0x60\n        /* \"contracts/Blockchain_task.sol\":2206:2222  isContractActive */\n      0x09\n      0x00\n      swap1\n      sload\n      swap1\n      0x0100\n      exp\n      swap1\n      div\n      0xff\n      and\n        /* \"contracts/Blockchain_task.sol\":2198:2249  require(isContractActive, \"Contract is not active\") */\n      tag_249\n      jumpi\n      mload(0x40)\n      0x08c379a000000000000000000000000000000000000000000000000000000000\n      dup2\n      mstore\n      0x04\n      add\n      tag_250\n      swap1\n      tag_140\n      jump\t// in\n    tag_250:\n      mload(0x40)\n      dup1\n      swap2\n      sub\n      swap1\n      revert\n    tag_249:\n        /* \"contracts/Blockchain_task.sol\":10053:10072  uint256 activeCount */\n      0x00\n        /* \"contracts/Blockchain_task.sol\":10129:10138  uint256 i */\n      dup1\n        /* \"contracts/Blockchain_task.sol\":10124:10299  for (uint256 i = 0; i < campaignCounter; i++) {... */\n    tag_252:\n        /* \"contracts/Blockchain_task.sol\":10148:10163  campaignCounter */\n      sload(0x03)\n        /* \"contracts/Blockchain_task.sol\":10144:10145  i */\n      dup2\n        /* \"contracts/Blockchain_task.sol\":10144:10163  i < campaignCounter */\n      lt\n        /* \"contracts/Blockchain_task.sol\":10124:10299  for (uint256 i = 0; i < campaignCounter; i++) {... */\n      iszero\n      tag_253\n      jumpi\n        /* \"contracts/Blockchain_task.sol\":10188:10197  campaigns */\n      0x04\n        /* \"contracts/Blockchain_task.sol\":10188:10200  campaigns[i] */\n      0x00\n        /* \"contracts/Blockchain_task.sol\":10198:10199  i */\n      dup3\n        /* \"contracts/Blockchain_task.sol\":10188:10200  campaigns[i] */\n      dup2\n      mstore\n      0x20\n      add\n      swap1\n      dup2\n      mstore\n      0x20\n      add\n      0x00\n      keccak256\n        /* \"contracts/Blockchain_task.sol\":10188:10212  campaigns[i].isCompleted */\n      0x06\n      add\n      0x02\n      swap1\n      sload\n      swap1\n      0x0100\n      exp\n      swap1\n      div\n      0xff\n      and\n        /* \"contracts/Blockchain_task.sol\":10188:10241  campaigns[i].isCompleted && !campaigns[i].isCancelled */\n      dup1\n      iszero\n      tag_255\n      jumpi\n      pop\n        /* \"contracts/Blockchain_task.sol\":10217:10226  campaigns */\n      0x04\n        /* \"contracts/Blockchain_task.sol\":10217:10229  campaigns[i] */\n      0x00\n        /* \"contracts/Blockchain_task.sol\":10227:10228  i */\n      dup3\n        /* \"contracts/Blockchain_task.sol\":10217:10229  campaigns[i] */\n      dup2\n      mstore\n      0x20\n      add\n      swap1\n      dup2\n      mstore\n      0x20\n      add\n      0x00\n      keccak256\n        /* \"contracts/Blockchain_task.sol\":10217:10241  campaigns[i].isCancelled */\n      0x06\n      add\n      0x01\n      swap1\n      sload\n      swap1\n      0x0100\n      exp\n      swap1\n      div\n      0xff\n      and\n        /* \"contracts/Blockchain_task.sol\":10216:10241  !campaigns[i].isCancelled */\n      iszero\n        /* \"contracts/Blockchain_task.sol\":10188:10241  campaigns[i].isCompleted && !campaigns[i].isCancelled */\n    tag_255:\n        /* \"contracts/Blockchain_task.sol\":10184:10289  if (campaigns[i].isCompleted && !campaigns[i].isCancelled) {... */\n      iszero\n      tag_256\n      jumpi\n        /* \"contracts/Blockchain_task.sol\":10261:10274  activeCount++ */\n      dup2\n      dup1\n      tag_257\n      swap1\n      tag_207\n      jump\t// in\n    tag_257:\n      swap3\n      pop\n      pop\n        /* \"contracts/Blockchain_task.sol\":10184:10289  if (campaigns[i].isCompleted && !campaigns[i].isCancelled) {... */\n    tag_256:\n        /* \"contracts/Blockchain_task.sol\":10165:10168  i++ */\n      dup1\n      dup1\n      0x01\n      add\n      swap2\n      pop\n      pop\n        /* \"contracts/Blockchain_task.sol\":10124:10299  for (uint256 i = 0; i < campaignCounter; i++) {... */\n      jump(tag_252)\n    tag_253:\n      pop\n        /* \"contracts/Blockchain_task.sol\":10362:10402  CampaignInfo[] memory completedCampaigns */\n      0x00\n        /* \"contracts/Blockchain_task.sol\":10437:10448  activeCount */\n      dup2\n        /* \"contracts/Blockchain_task.sol\":10405:10458  new CampaignInfo[](... */\n      0xffffffffffffffff\n      dup2\n      gt\n      iszero\n      tag_258\n      jumpi\n      tag_259\n      tag_210\n      jump\t// in\n    tag_259:\n    tag_258:\n      mload(0x40)\n      swap1\n      dup1\n      dup3\n      mstore\n      dup1\n      0x20\n      mul\n      0x20\n      add\n      dup3\n      add\n      0x40\n      mstore\n      dup1\n      iszero\n      tag_260\n      jumpi\n      dup2\n      0x20\n      add\n    tag_261:\n      tag_262\n      tag_263\n      jump\t// in\n    tag_262:\n      dup2\n      mstore\n      0x20\n      add\n      swap1\n      0x01\n      swap1\n      sub\n      swap1\n      dup2\n      tag_261\n      jumpi\n      swap1\n      pop\n    tag_260:\n      pop\n        /* \"contracts/Blockchain_task.sol\":10362:10458  CampaignInfo[] memory completedCampaigns = new CampaignInfo[](... */\n      swap1\n      pop\n        /* \"contracts/Blockchain_task.sol\":10468:10481  uint256 index */\n      0x00\n        /* \"contracts/Blockchain_task.sol\":10550:10559  uint256 i */\n      dup1\n        /* \"contracts/Blockchain_task.sol\":10545:11182  for (uint256 i = 0; i < campaignCounter; i++) {... */\n    tag_264:\n        /* \"contracts/Blockchain_task.sol\":10569:10584  campaignCounter */\n      sload(0x03)\n        /* \"contracts/Blockchain_task.sol\":10565:10566  i */\n      dup2\n        /* \"contracts/Blockchain_task.sol\":10565:10584  i < campaignCounter */\n      lt\n        /* \"contracts/Blockchain_task.sol\":10545:11182  for (uint256 i = 0; i < campaignCounter; i++) {... */\n      iszero\n      tag_265\n      jumpi\n        /* \"contracts/Blockchain_task.sol\":10609:10618  campaigns */\n      0x04\n        /* \"contracts/Blockchain_task.sol\":10609:10621  campaigns[i] */\n      0x00\n        /* \"contracts/Blockchain_task.sol\":10619:10620  i */\n      dup3\n        /* \"contracts/Blockchain_task.sol\":10609:10621  campaigns[i] */\n      dup2\n      mstore\n      0x20\n      add\n      swap1\n      dup2\n      mstore\n      0x20\n      add\n      0x00\n      keccak256\n        /* \"contracts/Blockchain_task.sol\":10609:10633  campaigns[i].isCompleted */\n      0x06\n      add\n      0x02\n      swap1\n      sload\n      swap1\n      0x0100\n      exp\n      swap1\n      div\n      0xff\n      and\n        /* \"contracts/Blockchain_task.sol\":10609:10662  campaigns[i].isCompleted && !campaigns[i].isCancelled */\n      dup1\n      iszero\n      tag_267\n      jumpi\n      pop\n        /* \"contracts/Blockchain_task.sol\":10638:10647  campaigns */\n      0x04\n        /* \"contracts/Blockchain_task.sol\":10638:10650  campaigns[i] */\n      0x00\n        /* \"contracts/Blockchain_task.sol\":10648:10649  i */\n      dup3\n        /* \"contracts/Blockchain_task.sol\":10638:10650  campaigns[i] */\n      dup2\n      mstore\n      0x20\n      add\n      swap1\n      dup2\n      mstore\n      0x20\n      add\n      0x00\n      keccak256\n        /* \"contracts/Blockchain_task.sol\":10638:10662  campaigns[i].isCancelled */\n      0x06\n      add\n      0x01\n      swap1\n      sload\n      swap1\n      0x0100\n      exp\n      swap1\n      div\n      0xff\n      and\n        /* \"contracts/Blockchain_task.sol\":10637:10662  !campaigns[i].isCancelled */\n      iszero\n        /* \"contracts/Blockchain_task.sol\":10609:10662  campaigns[i].isCompleted && !campaigns[i].isCancelled */\n    tag_267:\n        /* \"contracts/Blockchain_task.sol\":10605:11172  if (campaigns[i].isCompleted && !campaigns[i].isCancelled) {... */\n      iszero\n      tag_268\n      jumpi\n        /* \"contracts/Blockchain_task.sol\":10710:11132  CampaignInfo(... */\n      mload(0x40)\n      dup1\n      0x0100\n      add\n      0x40\n      mstore\n      dup1\n        /* \"contracts/Blockchain_task.sol\":10744:10753  campaigns */\n      0x04\n        /* \"contracts/Blockchain_task.sol\":10744:10756  campaigns[i] */\n      0x00\n        /* \"contracts/Blockchain_task.sol\":10754:10755  i */\n      dup5\n        /* \"contracts/Blockchain_task.sol\":10744:10756  campaigns[i] */\n      dup2\n      mstore\n      0x20\n      add\n      swap1\n      dup2\n      mstore\n      0x20\n      add\n      0x00\n      keccak256\n        /* \"contracts/Blockchain_task.sol\":10744:10767  campaigns[i].campaignId */\n      0x00\n      add\n      sload\n        /* \"contracts/Blockchain_task.sol\":10710:11132  CampaignInfo(... */\n      dup2\n      mstore\n      0x20\n      add\n        /* \"contracts/Blockchain_task.sol\":10789:10798  campaigns */\n      0x04\n        /* \"contracts/Blockchain_task.sol\":10789:10801  campaigns[i] */\n      0x00\n        /* \"contracts/Blockchain_task.sol\":10799:10800  i */\n      dup5\n        /* \"contracts/Blockchain_task.sol\":10789:10801  campaigns[i] */\n      dup2\n      mstore\n      0x20\n      add\n      swap1\n      dup2\n      mstore\n      0x20\n      add\n      0x00\n      keccak256\n        /* \"contracts/Blockchain_task.sol\":10789:10814  campaigns[i].entrepreneur */\n      0x01\n      add\n      0x00\n      swap1\n      sload\n      swap1\n      0x0100\n      exp\n      swap1\n      div\n      0xffffffffffffffffffffffffffffffffffffffff\n      and\n        /* \"contracts/Blockchain_task.sol\":10710:11132  CampaignInfo(... */\n      0xffffffffffffffffffffffffffffffffffffffff\n      and\n      dup2\n      mstore\n      0x20\n      add\n        /* \"contracts/Blockchain_task.sol\":10836:10845  campaigns */\n      0x04\n        /* \"contracts/Blockchain_task.sol\":10836:10848  campaigns[i] */\n      0x00\n        /* \"contracts/Blockchain_task.sol\":10846:10847  i */\n      dup5\n        /* \"contracts/Blockchain_task.sol\":10836:10848  campaigns[i] */\n      dup2\n      mstore\n      0x20\n      add\n      swap1\n      dup2\n      mstore\n      0x20\n      add\n      0x00\n      keccak256\n        /* \"contracts/Blockchain_task.sol\":10836:10854  campaigns[i].title */\n      0x02\n      add\n        /* \"contracts/Blockchain_task.sol\":10710:11132  CampaignInfo(... */\n      dup1\n      sload\n      tag_269\n      swap1\n      tag_159\n      jump\t// in\n    tag_269:\n      dup1\n      0x1f\n      add\n      0x20\n      dup1\n      swap2\n      div\n      mul\n      0x20\n      add\n      mload(0x40)\n      swap1\n      dup2\n      add\n      0x40\n      mstore\n      dup1\n      swap3\n      swap2\n      swap1\n      dup2\n      dup2\n      mstore\n      0x20\n      add\n      dup3\n      dup1\n      sload\n      tag_270\n      swap1\n      tag_159\n      jump\t// in\n    tag_270:\n      dup1\n      iszero\n      tag_271\n      jumpi\n      dup1\n      0x1f\n      lt\n      tag_272\n      jumpi\n      0x0100\n      dup1\n      dup4\n      sload\n      div\n      mul\n      dup4\n      mstore\n      swap2\n      0x20\n      add\n      swap2\n      jump(tag_271)\n    tag_272:\n      dup3\n      add\n      swap2\n      swap1\n      0x00\n      mstore\n      keccak256(0x00, 0x20)\n      swap1\n    tag_273:\n      dup2\n      sload\n      dup2\n      mstore\n      swap1\n      0x01\n      add\n      swap1\n      0x20\n      add\n      dup1\n      dup4\n      gt\n      tag_273\n      jumpi\n      dup3\n      swap1\n      sub\n      0x1f\n      and\n      dup3\n      add\n      swap2\n    tag_271:\n      pop\n      pop\n      pop\n      pop\n      pop\n      dup2\n      mstore\n      0x20\n      add\n        /* \"contracts/Blockchain_task.sol\":10876:10885  campaigns */\n      0x04\n        /* \"contracts/Blockchain_task.sol\":10876:10888  campaigns[i] */\n      0x00\n        /* \"contracts/Blockchain_task.sol\":10886:10887  i */\n      dup5\n        /* \"contracts/Blockchain_task.sol\":10876:10888  campaigns[i] */\n      dup2\n      mstore\n      0x20\n      add\n      swap1\n      dup2\n      mstore\n      0x20\n      add\n      0x00\n      keccak256\n        /* \"contracts/Blockchain_task.sol\":10876:10899  campaigns[i].sharePrice */\n      0x03\n      add\n      sload\n        /* \"contracts/Blockchain_task.sol\":10710:11132  CampaignInfo(... */\n      dup2\n      mstore\n      0x20\n      add\n        /* \"contracts/Blockchain_task.sol\":10948:10957  campaigns */\n      0x04\n        /* \"contracts/Blockchain_task.sol\":10948:10960  campaigns[i] */\n      0x00\n        /* \"contracts/Blockchain_task.sol\":10958:10959  i */\n      dup5\n        /* \"contracts/Blockchain_task.sol\":10948:10960  campaigns[i] */\n      dup2\n      mstore\n      0x20\n      add\n      swap1\n      dup2\n      mstore\n      0x20\n      add\n      0x00\n      keccak256\n        /* \"contracts/Blockchain_task.sol\":10948:10974  campaigns[i].currentShares */\n      0x05\n      add\n      sload\n        /* \"contracts/Blockchain_task.sol\":10921:10930  campaigns */\n      0x04\n        /* \"contracts/Blockchain_task.sol\":10921:10933  campaigns[i] */\n      0x00\n        /* \"contracts/Blockchain_task.sol\":10931:10932  i */\n      dup6\n        /* \"contracts/Blockchain_task.sol\":10921:10933  campaigns[i] */\n      dup2\n      mstore\n      0x20\n      add\n      swap1\n      dup2\n      mstore\n      0x20\n      add\n      0x00\n      keccak256\n        /* \"contracts/Blockchain_task.sol\":10921:10945  campaigns[i].totalShares */\n      0x04\n      add\n      sload\n        /* \"contracts/Blockchain_task.sol\":10921:10974  campaigns[i].totalShares - campaigns[i].currentShares */\n      tag_274\n      swap2\n      swap1\n      tag_275\n      jump\t// in\n    tag_274:\n        /* \"contracts/Blockchain_task.sol\":10710:11132  CampaignInfo(... */\n      dup2\n      mstore\n      0x20\n      add\n        /* \"contracts/Blockchain_task.sol\":10996:11005  campaigns */\n      0x04\n        /* \"contracts/Blockchain_task.sol\":10996:11008  campaigns[i] */\n      0x00\n        /* \"contracts/Blockchain_task.sol\":11006:11007  i */\n      dup5\n        /* \"contracts/Blockchain_task.sol\":10996:11008  campaigns[i] */\n      dup2\n      mstore\n      0x20\n      add\n      swap1\n      dup2\n      mstore\n      0x20\n      add\n      0x00\n      keccak256\n        /* \"contracts/Blockchain_task.sol\":10996:11022  campaigns[i].currentShares */\n      0x05\n      add\n      sload\n        /* \"contracts/Blockchain_task.sol\":10710:11132  CampaignInfo(... */\n      dup2\n      mstore\n      0x20\n      add\n        /* \"contracts/Blockchain_task.sol\":11044:11053  campaigns */\n      0x04\n        /* \"contracts/Blockchain_task.sol\":11044:11056  campaigns[i] */\n      0x00\n        /* \"contracts/Blockchain_task.sol\":11054:11055  i */\n      dup5\n        /* \"contracts/Blockchain_task.sol\":11044:11056  campaigns[i] */\n      dup2\n      mstore\n      0x20\n      add\n      swap1\n      dup2\n      mstore\n      0x20\n      add\n      0x00\n      keccak256\n        /* \"contracts/Blockchain_task.sol\":11044:11068  campaigns[i].isCompleted */\n      0x06\n      add\n      0x02\n      swap1\n      sload\n      swap1\n      0x0100\n      exp\n      swap1\n      div\n      0xff\n      and\n        /* \"contracts/Blockchain_task.sol\":10710:11132  CampaignInfo(... */\n      iszero\n      iszero\n      dup2\n      mstore\n      0x20\n      add\n        /* \"contracts/Blockchain_task.sol\":11090:11099  campaigns */\n      0x04\n        /* \"contracts/Blockchain_task.sol\":11090:11102  campaigns[i] */\n      0x00\n        /* \"contracts/Blockchain_task.sol\":11100:11101  i */\n      dup5\n        /* \"contracts/Blockchain_task.sol\":11090:11102  campaigns[i] */\n      dup2\n      mstore\n      0x20\n      add\n      swap1\n      dup2\n      mstore\n      0x20\n      add\n      0x00\n      keccak256\n        /* \"contracts/Blockchain_task.sol\":11090:11114  campaigns[i].isCancelled */\n      0x06\n      add\n      0x01\n      swap1\n      sload\n      swap1\n      0x0100\n      exp\n      swap1\n      div\n      0xff\n      and\n        /* \"contracts/Blockchain_task.sol\":10710:11132  CampaignInfo(... */\n      iszero\n      iszero\n      dup2\n      mstore\n      pop\n        /* \"contracts/Blockchain_task.sol\":10682:10700  completedCampaigns */\n      dup4\n        /* \"contracts/Blockchain_task.sol\":10701:10706  index */\n      dup4\n        /* \"contracts/Blockchain_task.sol\":10682:10707  completedCampaigns[index] */\n      dup2\n      mload\n      dup2\n      lt\n      tag_276\n      jumpi\n      tag_277\n      tag_152\n      jump\t// in\n    tag_277:\n    tag_276:\n      0x20\n      mul\n      0x20\n      add\n      add\n        /* \"contracts/Blockchain_task.sol\":10682:11132  completedCampaigns[index] = CampaignInfo(... */\n      dup2\n      swap1\n      mstore\n      pop\n        /* \"contracts/Blockchain_task.sol\":11150:11157  index++ */\n      dup2\n      dup1\n      tag_278\n      swap1\n      tag_207\n      jump\t// in\n    tag_278:\n      swap3\n      pop\n      pop\n        /* \"contracts/Blockchain_task.sol\":10605:11172  if (campaigns[i].isCompleted && !campaigns[i].isCancelled) {... */\n    tag_268:\n        /* \"contracts/Blockchain_task.sol\":10586:10589  i++ */\n      dup1\n      dup1\n      0x01\n      add\n      swap2\n      pop\n      pop\n        /* \"contracts/Blockchain_task.sol\":10545:11182  for (uint256 i = 0; i < campaignCounter; i++) {... */\n      jump(tag_264)\n    tag_265:\n      pop\n        /* \"contracts/Blockchain_task.sol\":11199:11217  completedCampaigns */\n      dup2\n        /* \"contracts/Blockchain_task.sol\":11192:11217  return completedCampaigns */\n      swap4\n      pop\n      pop\n      pop\n      pop\n        /* \"contracts/Blockchain_task.sol\":9915:11224  function getCompletedCampaigns()... */\n      swap1\n      jump\t// out\n        /* \"contracts/Blockchain_task.sol\":5453:6384  function cancelCampaign(uint256 campaignId)... */\n    tag_61:\n        /* \"contracts/Blockchain_task.sol\":5535:5545  campaignId */\n      dup1\n        /* \"contracts/Blockchain_task.sol\":2611:2620  campaigns */\n      0x04\n        /* \"contracts/Blockchain_task.sol\":2611:2632  campaigns[campaignId] */\n      0x00\n        /* \"contracts/Blockchain_task.sol\":2621:2631  campaignId */\n      dup3\n        /* \"contracts/Blockchain_task.sol\":2611:2632  campaigns[campaignId] */\n      dup2\n      mstore\n      0x20\n      add\n      swap1\n      dup2\n      mstore\n      0x20\n      add\n      0x00\n      keccak256\n        /* \"contracts/Blockchain_task.sol\":2611:2641  campaigns[campaignId].isActive */\n      0x06\n      add\n      0x00\n      swap1\n      sload\n      swap1\n      0x0100\n      exp\n      swap1\n      div\n      0xff\n      and\n        /* \"contracts/Blockchain_task.sol\":2603:2668  require(campaigns[campaignId].isActive, \"Campaign is not active\") */\n      tag_280\n      jumpi\n      mload(0x40)\n      0x08c379a000000000000000000000000000000000000000000000000000000000\n      dup2\n      mstore\n      0x04\n      add\n      tag_281\n      swap1\n      tag_175\n      jump\t// in\n    tag_281:\n      mload(0x40)\n      dup1\n      swap2\n      sub\n      swap1\n      revert\n    tag_280:\n        /* \"contracts/Blockchain_task.sol\":5568:5578  campaignId */\n      dup2\n        /* \"contracts/Blockchain_task.sol\":2910:2919  campaigns */\n      0x04\n        /* \"contracts/Blockchain_task.sol\":2910:2931  campaigns[campaignId] */\n      0x00\n        /* \"contracts/Blockchain_task.sol\":2920:2930  campaignId */\n      dup3\n        /* \"contracts/Blockchain_task.sol\":2910:2931  campaigns[campaignId] */\n      dup2\n      mstore\n      0x20\n      add\n      swap1\n      dup2\n      mstore\n      0x20\n      add\n      0x00\n      keccak256\n        /* \"contracts/Blockchain_task.sol\":2910:2943  campaigns[campaignId].isCompleted */\n      0x06\n      add\n      0x02\n      swap1\n      sload\n      swap1\n      0x0100\n      exp\n      swap1\n      div\n      0xff\n      and\n        /* \"contracts/Blockchain_task.sol\":2909:2943  !campaigns[campaignId].isCompleted */\n      iszero\n        /* \"contracts/Blockchain_task.sol\":2888:2998  require(... */\n      tag_283\n      jumpi\n      mload(0x40)\n      0x08c379a000000000000000000000000000000000000000000000000000000000\n      dup2\n      mstore\n      0x04\n      add\n      tag_284\n      swap1\n      tag_183\n      jump\t// in\n    tag_284:\n      mload(0x40)\n      dup1\n      swap2\n      sub\n      swap1\n      revert\n    tag_283:\n        /* \"contracts/Blockchain_task.sol\":2206:2222  isContractActive */\n      0x09\n      0x00\n      swap1\n      sload\n      swap1\n      0x0100\n      exp\n      swap1\n      div\n      0xff\n      and\n        /* \"contracts/Blockchain_task.sol\":2198:2249  require(isContractActive, \"Contract is not active\") */\n      tag_286\n      jumpi\n      mload(0x40)\n      0x08c379a000000000000000000000000000000000000000000000000000000000\n      dup2\n      mstore\n      0x04\n      add\n      tag_287\n      swap1\n      tag_140\n      jump\t// in\n    tag_287:\n      mload(0x40)\n      dup1\n      swap2\n      sub\n      swap1\n      revert\n    tag_286:\n        /* \"contracts/Blockchain_task.sol\":5617:5642  Campaign storage campaign */\n      0x00\n        /* \"contracts/Blockchain_task.sol\":5645:5654  campaigns */\n      0x04\n        /* \"contracts/Blockchain_task.sol\":5645:5666  campaigns[campaignId] */\n      0x00\n        /* \"contracts/Blockchain_task.sol\":5655:5665  campaignId */\n      dup6\n        /* \"contracts/Blockchain_task.sol\":5645:5666  campaigns[campaignId] */\n      dup2\n      mstore\n      0x20\n      add\n      swap1\n      dup2\n      mstore\n      0x20\n      add\n      0x00\n      keccak256\n        /* \"contracts/Blockchain_task.sol\":5617:5666  Campaign storage campaign = campaigns[campaignId] */\n      swap1\n      pop\n        /* \"contracts/Blockchain_task.sol\":5711:5719  campaign */\n      dup1\n        /* \"contracts/Blockchain_task.sol\":5711:5732  campaign.entrepreneur */\n      0x01\n      add\n      0x00\n      swap1\n      sload\n      swap1\n      0x0100\n      exp\n      swap1\n      div\n      0xffffffffffffffffffffffffffffffffffffffff\n      and\n        /* \"contracts/Blockchain_task.sol\":5697:5732  msg.sender == campaign.entrepreneur */\n      0xffffffffffffffffffffffffffffffffffffffff\n      and\n        /* \"contracts/Blockchain_task.sol\":5697:5707  msg.sender */\n      caller\n        /* \"contracts/Blockchain_task.sol\":5697:5732  msg.sender == campaign.entrepreneur */\n      0xffffffffffffffffffffffffffffffffffffffff\n      and\n      eq\n        /* \"contracts/Blockchain_task.sol\":5697:5755  msg.sender == campaign.entrepreneur || msg.sender == owner */\n      dup1\n      tag_289\n      jumpi\n      pop\n        /* \"contracts/Blockchain_task.sol\":5750:5755  owner */\n      0x00\n      dup1\n      sload\n      swap1\n      0x0100\n      exp\n      swap1\n      div\n      0xffffffffffffffffffffffffffffffffffffffff\n      and\n        /* \"contracts/Blockchain_task.sol\":5736:5755  msg.sender == owner */\n      0xffffffffffffffffffffffffffffffffffffffff\n      and\n        /* \"contracts/Blockchain_task.sol\":5736:5746  msg.sender */\n      caller\n        /* \"contracts/Blockchain_task.sol\":5736:5755  msg.sender == owner */\n      0xffffffffffffffffffffffffffffffffffffffff\n      and\n      eq\n        /* \"contracts/Blockchain_task.sol\":5697:5755  msg.sender == campaign.entrepreneur || msg.sender == owner */\n    tag_289:\n        /* \"contracts/Blockchain_task.sol\":5676:5836  require(... */\n      tag_290\n      jumpi\n      mload(0x40)\n      0x08c379a000000000000000000000000000000000000000000000000000000000\n      dup2\n      mstore\n      0x04\n      add\n      tag_291\n      swap1\n      tag_292\n      jump\t// in\n    tag_291:\n      mload(0x40)\n      dup1\n      swap2\n      sub\n      swap1\n      revert\n    tag_290:\n        /* \"contracts/Blockchain_task.sol\":5867:5872  false */\n      0x00\n        /* \"contracts/Blockchain_task.sol\":5847:5855  campaign */\n      dup2\n        /* \"contracts/Blockchain_task.sol\":5847:5864  campaign.isActive */\n      0x06\n      add\n      0x00\n        /* \"contracts/Blockchain_task.sol\":5847:5872  campaign.isActive = false */\n      0x0100\n      exp\n      dup2\n      sload\n      dup2\n      0xff\n      mul\n      not\n      and\n      swap1\n      dup4\n      iszero\n      iszero\n      mul\n      or\n      swap1\n      sstore\n      pop\n        /* \"contracts/Blockchain_task.sol\":5905:5909  true */\n      0x01\n        /* \"contracts/Blockchain_task.sol\":5882:5890  campaign */\n      dup2\n        /* \"contracts/Blockchain_task.sol\":5882:5902  campaign.isCancelled */\n      0x06\n      add\n      0x01\n        /* \"contracts/Blockchain_task.sol\":5882:5909  campaign.isCancelled = true */\n      0x0100\n      exp\n      dup2\n      sload\n      dup2\n      0xff\n      mul\n      not\n      and\n      swap1\n      dup4\n      iszero\n      iszero\n      mul\n      or\n      swap1\n      sstore\n      pop\n        /* \"contracts/Blockchain_task.sol\":6022:6031  uint256 i */\n      0x00\n        /* \"contracts/Blockchain_task.sol\":6017:6305  for (uint256 i = 0; i < campaign.backers.length; i++) {... */\n    tag_293:\n        /* \"contracts/Blockchain_task.sol\":6041:6049  campaign */\n      dup2\n        /* \"contracts/Blockchain_task.sol\":6041:6057  campaign.backers */\n      0x07\n      add\n        /* \"contracts/Blockchain_task.sol\":6041:6064  campaign.backers.length */\n      dup1\n      sload\n      swap1\n      pop\n        /* \"contracts/Blockchain_task.sol\":6037:6038  i */\n      dup2\n        /* \"contracts/Blockchain_task.sol\":6037:6064  i < campaign.backers.length */\n      lt\n        /* \"contracts/Blockchain_task.sol\":6017:6305  for (uint256 i = 0; i < campaign.backers.length; i++) {... */\n      iszero\n      tag_294\n      jumpi\n        /* \"contracts/Blockchain_task.sol\":6085:6099  address backer */\n      0x00\n        /* \"contracts/Blockchain_task.sol\":6102:6110  campaign */\n      dup3\n        /* \"contracts/Blockchain_task.sol\":6102:6118  campaign.backers */\n      0x07\n      add\n        /* \"contracts/Blockchain_task.sol\":6119:6120  i */\n      dup3\n        /* \"contracts/Blockchain_task.sol\":6102:6121  campaign.backers[i] */\n      dup2\n      sload\n      dup2\n      lt\n      tag_296\n      jumpi\n      tag_297\n      tag_152\n      jump\t// in\n    tag_297:\n    tag_296:\n      swap1\n      0x00\n      mstore\n      keccak256(0x00, 0x20)\n      add\n      0x00\n      swap1\n      sload\n      swap1\n      0x0100\n      exp\n      swap1\n      div\n      0xffffffffffffffffffffffffffffffffffffffff\n      and\n        /* \"contracts/Blockchain_task.sol\":6085:6121  address backer = campaign.backers[i] */\n      swap1\n      pop\n        /* \"contracts/Blockchain_task.sol\":6135:6149  uint256 shares */\n      0x00\n        /* \"contracts/Blockchain_task.sol\":6152:6160  campaign */\n      dup4\n        /* \"contracts/Blockchain_task.sol\":6152:6176  campaign.sharesPerBacker */\n      0x08\n      add\n        /* \"contracts/Blockchain_task.sol\":6152:6184  campaign.sharesPerBacker[backer] */\n      0x00\n        /* \"contracts/Blockchain_task.sol\":6177:6183  backer */\n      dup4\n        /* \"contracts/Blockchain_task.sol\":6152:6184  campaign.sharesPerBacker[backer] */\n      0xffffffffffffffffffffffffffffffffffffffff\n      and\n      0xffffffffffffffffffffffffffffffffffffffff\n      and\n      dup2\n      mstore\n      0x20\n      add\n      swap1\n      dup2\n      mstore\n      0x20\n      add\n      0x00\n      keccak256\n      sload\n        /* \"contracts/Blockchain_task.sol\":6135:6184  uint256 shares = campaign.sharesPerBacker[backer] */\n      swap1\n      pop\n        /* \"contracts/Blockchain_task.sol\":6198:6218  uint256 refundAmount */\n      0x00\n        /* \"contracts/Blockchain_task.sol\":6230:6238  campaign */\n      dup5\n        /* \"contracts/Blockchain_task.sol\":6230:6249  campaign.sharePrice */\n      0x03\n      add\n      sload\n        /* \"contracts/Blockchain_task.sol\":6221:6227  shares */\n      dup3\n        /* \"contracts/Blockchain_task.sol\":6221:6249  shares * campaign.sharePrice */\n      tag_299\n      swap2\n      swap1\n      tag_155\n      jump\t// in\n    tag_299:\n        /* \"contracts/Blockchain_task.sol\":6198:6249  uint256 refundAmount = shares * campaign.sharePrice */\n      swap1\n      pop\n        /* \"contracts/Blockchain_task.sol\":6282:6294  refundAmount */\n      dup1\n        /* \"contracts/Blockchain_task.sol\":6263:6270  refunds */\n      0x08\n        /* \"contracts/Blockchain_task.sol\":6263:6278  refunds[backer] */\n      0x00\n        /* \"contracts/Blockchain_task.sol\":6271:6277  backer */\n      dup6\n        /* \"contracts/Blockchain_task.sol\":6263:6278  refunds[backer] */\n      0xffffffffffffffffffffffffffffffffffffffff\n      and\n      0xffffffffffffffffffffffffffffffffffffffff\n      and\n      dup2\n      mstore\n      0x20\n      add\n      swap1\n      dup2\n      mstore\n      0x20\n      add\n      0x00\n      keccak256\n      0x00\n        /* \"contracts/Blockchain_task.sol\":6263:6294  refunds[backer] += refundAmount */\n      dup3\n      dup3\n      sload\n      tag_300\n      swap2\n      swap1\n      tag_157\n      jump\t// in\n    tag_300:\n      swap3\n      pop\n      pop\n      dup2\n      swap1\n      sstore\n      pop\n        /* \"contracts/Blockchain_task.sol\":6071:6305  {... */\n      pop\n      pop\n      pop\n        /* \"contracts/Blockchain_task.sol\":6066:6069  i++ */\n      dup1\n      dup1\n      0x01\n      add\n      swap2\n      pop\n      pop\n        /* \"contracts/Blockchain_task.sol\":6017:6305  for (uint256 i = 0; i < campaign.backers.length; i++) {... */\n      jump(tag_293)\n    tag_294:\n      pop\n        /* \"contracts/Blockchain_task.sol\":6320:6377  CampaignCancelled(campaignId, msg.sender, campaign.title) */\n      0x57bf3fc7e1999f61d60bf6bf729b85a5423c5d0883a1629cf9794f2162ae2aba\n        /* \"contracts/Blockchain_task.sol\":6338:6348  campaignId */\n      dup5\n        /* \"contracts/Blockchain_task.sol\":6350:6360  msg.sender */\n      caller\n        /* \"contracts/Blockchain_task.sol\":6362:6370  campaign */\n      dup4\n        /* \"contracts/Blockchain_task.sol\":6362:6376  campaign.title */\n      0x02\n      add\n        /* \"contracts/Blockchain_task.sol\":6320:6377  CampaignCancelled(campaignId, msg.sender, campaign.title) */\n      mload(0x40)\n      tag_301\n      swap4\n      swap3\n      swap2\n      swap1\n      tag_302\n      jump\t// in\n    tag_301:\n      mload(0x40)\n      dup1\n      swap2\n      sub\n      swap1\n      log1\n        /* \"contracts/Blockchain_task.sol\":5607:6384  {... */\n      pop\n        /* \"contracts/Blockchain_task.sol\":2678:2679  _ */\n      pop\n        /* \"contracts/Blockchain_task.sol\":5453:6384  function cancelCampaign(uint256 campaignId)... */\n      pop\n      pop\n      jump\t// out\n        /* \"contracts/Blockchain_task.sol\":7945:8233  function withdrawFees() public onlyOwner activeContract {... */\n    tag_64:\n        /* \"contracts/Blockchain_task.sol\":2067:2072  owner */\n      0x00\n      dup1\n      sload\n      swap1\n      0x0100\n      exp\n      swap1\n      div\n      0xffffffffffffffffffffffffffffffffffffffff\n      and\n        /* \"contracts/Blockchain_task.sol\":2053:2072  msg.sender == owner */\n      0xffffffffffffffffffffffffffffffffffffffff\n      and\n        /* \"contracts/Blockchain_task.sol\":2053:2063  msg.sender */\n      caller\n        /* \"contracts/Blockchain_task.sol\":2053:2072  msg.sender == owner */\n      0xffffffffffffffffffffffffffffffffffffffff\n      and\n      eq\n        /* \"contracts/Blockchain_task.sol\":2032:2138  require(... */\n      tag_304\n      jumpi\n      mload(0x40)\n      0x08c379a000000000000000000000000000000000000000000000000000000000\n      dup2\n      mstore\n      0x04\n      add\n      tag_305\n      swap1\n      tag_136\n      jump\t// in\n    tag_305:\n      mload(0x40)\n      dup1\n      swap2\n      sub\n      swap1\n      revert\n    tag_304:\n        /* \"contracts/Blockchain_task.sol\":2206:2222  isContractActive */\n      0x09\n      0x00\n      swap1\n      sload\n      swap1\n      0x0100\n      exp\n      swap1\n      div\n      0xff\n      and\n        /* \"contracts/Blockchain_task.sol\":2198:2249  require(isContractActive, \"Contract is not active\") */\n      tag_307\n      jumpi\n      mload(0x40)\n      0x08c379a000000000000000000000000000000000000000000000000000000000\n      dup2\n      mstore\n      0x04\n      add\n      tag_308\n      swap1\n      tag_140\n      jump\t// in\n    tag_308:\n      mload(0x40)\n      dup1\n      swap2\n      sub\n      swap1\n      revert\n    tag_307:\n        /* \"contracts/Blockchain_task.sol\":8011:8025  uint256 amount */\n      0x00\n        /* \"contracts/Blockchain_task.sol\":8028:8046  totalFeesCollected */\n      sload(0x02)\n        /* \"contracts/Blockchain_task.sol\":8011:8046  uint256 amount = totalFeesCollected */\n      swap1\n      pop\n        /* \"contracts/Blockchain_task.sol\":8077:8078  0 */\n      0x00\n        /* \"contracts/Blockchain_task.sol\":8056:8074  totalFeesCollected */\n      0x02\n        /* \"contracts/Blockchain_task.sol\":8056:8078  totalFeesCollected = 0 */\n      dup2\n      swap1\n      sstore\n      pop\n        /* \"contracts/Blockchain_task.sol\":8097:8102  owner */\n      0x00\n      dup1\n      sload\n      swap1\n      0x0100\n      exp\n      swap1\n      div\n      0xffffffffffffffffffffffffffffffffffffffff\n      and\n        /* \"contracts/Blockchain_task.sol\":8089:8112  payable(owner).transfer */\n      0xffffffffffffffffffffffffffffffffffffffff\n      and\n        /* \"contracts/Blockchain_task.sol\":8089:8120  payable(owner).transfer(amount) */\n      0x08fc\n        /* \"contracts/Blockchain_task.sol\":8113:8119  amount */\n      dup3\n        /* \"contracts/Blockchain_task.sol\":8089:8120  payable(owner).transfer(amount) */\n      swap1\n      dup2\n      iszero\n      mul\n      swap1\n      mload(0x40)\n      0x00\n      mload(0x40)\n      dup1\n      dup4\n      sub\n      dup2\n      dup6\n      dup9\n      dup9\n      call\n      swap4\n      pop\n      pop\n      pop\n      pop\n      iszero\n      dup1\n      iszero\n      tag_311\n      jumpi\n      returndatasize\n      0x00\n      dup1\n      returndatacopy\n      revert(0x00, returndatasize)\n    tag_311:\n      pop\n        /* \"contracts/Blockchain_task.sol\":8130:8147  uint256 remaining */\n      0x00\n        /* \"contracts/Blockchain_task.sol\":8150:8171  address(this).balance */\n      selfbalance\n        /* \"contracts/Blockchain_task.sol\":8130:8171  uint256 remaining = address(this).balance */\n      swap1\n      pop\n        /* \"contracts/Blockchain_task.sol\":8186:8226  FeesWithdrawn(owner, amount + remaining) */\n      0xc0819c13be868895eb93e40eaceb96de976442fa1d404e5c55f14bb65a8c489a\n        /* \"contracts/Blockchain_task.sol\":8200:8205  owner */\n      0x00\n      dup1\n      sload\n      swap1\n      0x0100\n      exp\n      swap1\n      div\n      0xffffffffffffffffffffffffffffffffffffffff\n      and\n        /* \"contracts/Blockchain_task.sol\":8216:8225  remaining */\n      dup3\n        /* \"contracts/Blockchain_task.sol\":8207:8213  amount */\n      dup5\n        /* \"contracts/Blockchain_task.sol\":8207:8225  amount + remaining */\n      tag_312\n      swap2\n      swap1\n      tag_157\n      jump\t// in\n    tag_312:\n        /* \"contracts/Blockchain_task.sol\":8186:8226  FeesWithdrawn(owner, amount + remaining) */\n      mload(0x40)\n      tag_313\n      swap3\n      swap2\n      swap1\n      tag_314\n      jump\t// in\n    tag_313:\n      mload(0x40)\n      dup1\n      swap2\n      sub\n      swap1\n      log1\n        /* \"contracts/Blockchain_task.sol\":8001:8233  {... */\n      pop\n      pop\n        /* \"contracts/Blockchain_task.sol\":7945:8233  function withdrawFees() public onlyOwner activeContract {... */\n      jump\t// out\n        /* \"contracts/Blockchain_task.sol\":847:880  uint256 public totalFeesCollected */\n    tag_67:\n      sload(0x02)\n      dup2\n      jump\t// out\n        /* \"contracts/Blockchain_task.sol\":8239:8563  function getActiveCount() public view activeContract returns (uint256) {... */\n    tag_72:\n        /* \"contracts/Blockchain_task.sol\":8301:8308  uint256 */\n      0x00\n        /* \"contracts/Blockchain_task.sol\":2206:2222  isContractActive */\n      0x09\n      0x00\n      swap1\n      sload\n      swap1\n      0x0100\n      exp\n      swap1\n      div\n      0xff\n      and\n        /* \"contracts/Blockchain_task.sol\":2198:2249  require(isContractActive, \"Contract is not active\") */\n      tag_316\n      jumpi\n      mload(0x40)\n      0x08c379a000000000000000000000000000000000000000000000000000000000\n      dup2\n      mstore\n      0x04\n      add\n      tag_317\n      swap1\n      tag_140\n      jump\t// in\n    tag_317:\n      mload(0x40)\n      dup1\n      swap2\n      sub\n      swap1\n      revert\n    tag_316:\n        /* \"contracts/Blockchain_task.sol\":8320:8339  uint256 activeCount */\n      0x00\n        /* \"contracts/Blockchain_task.sol\":8358:8367  uint256 i */\n      dup1\n        /* \"contracts/Blockchain_task.sol\":8353:8529  for (uint256 i = 0; i < campaignCounter; i++) {... */\n    tag_319:\n        /* \"contracts/Blockchain_task.sol\":8377:8392  campaignCounter */\n      sload(0x03)\n        /* \"contracts/Blockchain_task.sol\":8373:8374  i */\n      dup2\n        /* \"contracts/Blockchain_task.sol\":8373:8392  i < campaignCounter */\n      lt\n        /* \"contracts/Blockchain_task.sol\":8353:8529  for (uint256 i = 0; i < campaignCounter; i++) {... */\n      iszero\n      tag_320\n      jumpi\n        /* \"contracts/Blockchain_task.sol\":8418:8427  campaigns */\n      0x04\n        /* \"contracts/Blockchain_task.sol\":8418:8430  campaigns[i] */\n      0x00\n        /* \"contracts/Blockchain_task.sol\":8428:8429  i */\n      dup3\n        /* \"contracts/Blockchain_task.sol\":8418:8430  campaigns[i] */\n      dup2\n      mstore\n      0x20\n      add\n      swap1\n      dup2\n      mstore\n      0x20\n      add\n      0x00\n      keccak256\n        /* \"contracts/Blockchain_task.sol\":8418:8442  campaigns[i].isCompleted */\n      0x06\n      add\n      0x02\n      swap1\n      sload\n      swap1\n      0x0100\n      exp\n      swap1\n      div\n      0xff\n      and\n        /* \"contracts/Blockchain_task.sol\":8417:8442  !campaigns[i].isCompleted */\n      iszero\n        /* \"contracts/Blockchain_task.sol\":8417:8471  !campaigns[i].isCompleted && !campaigns[i].isCancelled */\n      dup1\n      iszero\n      tag_322\n      jumpi\n      pop\n        /* \"contracts/Blockchain_task.sol\":8447:8456  campaigns */\n      0x04\n        /* \"contracts/Blockchain_task.sol\":8447:8459  campaigns[i] */\n      0x00\n        /* \"contracts/Blockchain_task.sol\":8457:8458  i */\n      dup3\n        /* \"contracts/Blockchain_task.sol\":8447:8459  campaigns[i] */\n      dup2\n      mstore\n      0x20\n      add\n      swap1\n      dup2\n      mstore\n      0x20\n      add\n      0x00\n      keccak256\n        /* \"contracts/Blockchain_task.sol\":8447:8471  campaigns[i].isCancelled */\n      0x06\n      add\n      0x01\n      swap1\n      sload\n      swap1\n      0x0100\n      exp\n      swap1\n      div\n      0xff\n      and\n        /* \"contracts/Blockchain_task.sol\":8446:8471  !campaigns[i].isCancelled */\n      iszero\n        /* \"contracts/Blockchain_task.sol\":8417:8471  !campaigns[i].isCompleted && !campaigns[i].isCancelled */\n    tag_322:\n        /* \"contracts/Blockchain_task.sol\":8413:8519  if (!campaigns[i].isCompleted && !campaigns[i].isCancelled) {... */\n      iszero\n      tag_323\n      jumpi\n        /* \"contracts/Blockchain_task.sol\":8491:8504  activeCount++ */\n      dup2\n      dup1\n      tag_324\n      swap1\n      tag_207\n      jump\t// in\n    tag_324:\n      swap3\n      pop\n      pop\n        /* \"contracts/Blockchain_task.sol\":8413:8519  if (!campaigns[i].isCompleted && !campaigns[i].isCancelled) {... */\n    tag_323:\n        /* \"contracts/Blockchain_task.sol\":8394:8397  i++ */\n      dup1\n      dup1\n      0x01\n      add\n      swap2\n      pop\n      pop\n        /* \"contracts/Blockchain_task.sol\":8353:8529  for (uint256 i = 0; i < campaignCounter; i++) {... */\n      jump(tag_319)\n    tag_320:\n      pop\n        /* \"contracts/Blockchain_task.sol\":8545:8556  activeCount */\n      dup1\n        /* \"contracts/Blockchain_task.sol\":8538:8556  return activeCount */\n      swap2\n      pop\n      pop\n        /* \"contracts/Blockchain_task.sol\":8239:8563  function getActiveCount() public view activeContract returns (uint256) {... */\n      swap1\n      jump\t// out\n        /* \"contracts/Blockchain_task.sol\":762:788  uint256 public campaignFee */\n    tag_76:\n      sload(0x01)\n      dup2\n      jump\t// out\n        /* \"contracts/Blockchain_task.sol\":14371:14650  function banInvestor(address investor)... */\n    tag_81:\n        /* \"contracts/Blockchain_task.sol\":2206:2222  isContractActive */\n      0x09\n      0x00\n      swap1\n      sload\n      swap1\n      0x0100\n      exp\n      swap1\n      div\n      0xff\n      and\n        /* \"contracts/Blockchain_task.sol\":2198:2249  require(isContractActive, \"Contract is not active\") */\n      tag_326\n      jumpi\n      mload(0x40)\n      0x08c379a000000000000000000000000000000000000000000000000000000000\n      dup2\n      mstore\n      0x04\n      add\n      tag_327\n      swap1\n      tag_140\n      jump\t// in\n    tag_327:\n      mload(0x40)\n      dup1\n      swap2\n      sub\n      swap1\n      revert\n    tag_326:\n        /* \"contracts/Blockchain_task.sol\":2067:2072  owner */\n      0x00\n      dup1\n      sload\n      swap1\n      0x0100\n      exp\n      swap1\n      div\n      0xffffffffffffffffffffffffffffffffffffffff\n      and\n        /* \"contracts/Blockchain_task.sol\":2053:2072  msg.sender == owner */\n      0xffffffffffffffffffffffffffffffffffffffff\n      and\n        /* \"contracts/Blockchain_task.sol\":2053:2063  msg.sender */\n      caller\n        /* \"contracts/Blockchain_task.sol\":2053:2072  msg.sender == owner */\n      0xffffffffffffffffffffffffffffffffffffffff\n      and\n      eq\n        /* \"contracts/Blockchain_task.sol\":2032:2138  require(... */\n      tag_329\n      jumpi\n      mload(0x40)\n      0x08c379a000000000000000000000000000000000000000000000000000000000\n      dup2\n      mstore\n      0x04\n      add\n      tag_330\n      swap1\n      tag_136\n      jump\t// in\n    tag_330:\n      mload(0x40)\n      dup1\n      swap2\n      sub\n      swap1\n      revert\n    tag_329:\n        /* \"contracts/Blockchain_task.sol\":2481:2491  bannedList */\n      0x06\n        /* \"contracts/Blockchain_task.sol\":2481:2503  bannedList[msg.sender] */\n      0x00\n        /* \"contracts/Blockchain_task.sol\":2492:2502  msg.sender */\n      caller\n        /* \"contracts/Blockchain_task.sol\":2481:2503  bannedList[msg.sender] */\n      0xffffffffffffffffffffffffffffffffffffffff\n      and\n      0xffffffffffffffffffffffffffffffffffffffff\n      and\n      dup2\n      mstore\n      0x20\n      add\n      swap1\n      dup2\n      mstore\n      0x20\n      add\n      0x00\n      keccak256\n      0x00\n      swap1\n      sload\n      swap1\n      0x0100\n      exp\n      swap1\n      div\n      0xff\n      and\n        /* \"contracts/Blockchain_task.sol\":2480:2503  !bannedList[msg.sender] */\n      iszero\n        /* \"contracts/Blockchain_task.sol\":2472:2525  require(!bannedList[msg.sender], \"Address is banned\") */\n      tag_332\n      jumpi\n      mload(0x40)\n      0x08c379a000000000000000000000000000000000000000000000000000000000\n      dup2\n      mstore\n      0x04\n      add\n      tag_333\n      swap1\n      tag_171\n      jump\t// in\n    tag_333:\n      mload(0x40)\n      dup1\n      swap2\n      sub\n      swap1\n      revert\n    tag_332:\n        /* \"contracts/Blockchain_task.sol\":14574:14578  true */\n      0x01\n        /* \"contracts/Blockchain_task.sol\":14551:14561  bannedList */\n      0x06\n        /* \"contracts/Blockchain_task.sol\":14551:14571  bannedList[investor] */\n      0x00\n        /* \"contracts/Blockchain_task.sol\":14562:14570  investor */\n      dup4\n        /* \"contracts/Blockchain_task.sol\":14551:14571  bannedList[investor] */\n      0xffffffffffffffffffffffffffffffffffffffff\n      and\n      0xffffffffffffffffffffffffffffffffffffffff\n      and\n      dup2\n      mstore\n      0x20\n      add\n      swap1\n      dup2\n      mstore\n      0x20\n      add\n      0x00\n      keccak256\n      0x00\n        /* \"contracts/Blockchain_task.sol\":14551:14578  bannedList[investor] = true */\n      0x0100\n      exp\n      dup2\n      sload\n      dup2\n      0xff\n      mul\n      not\n      and\n      swap1\n      dup4\n      iszero\n      iszero\n      mul\n      or\n      swap1\n      sstore\n      pop\n        /* \"contracts/Blockchain_task.sol\":14588:14603  bannedAddresses */\n      0x07\n        /* \"contracts/Blockchain_task.sol\":14609:14617  investor */\n      dup2\n        /* \"contracts/Blockchain_task.sol\":14588:14618  bannedAddresses.push(investor) */\n      swap1\n      dup1\n      0x01\n      dup2\n      sload\n      add\n      dup1\n      dup3\n      sstore\n      dup1\n      swap2\n      pop\n      pop\n      0x01\n      swap1\n      sub\n      swap1\n      0x00\n      mstore\n      keccak256(0x00, 0x20)\n      add\n      0x00\n      swap1\n      swap2\n      swap1\n      swap2\n      swap1\n      swap2\n      0x0100\n      exp\n      dup2\n      sload\n      dup2\n      0xffffffffffffffffffffffffffffffffffffffff\n      mul\n      not\n      and\n      swap1\n      dup4\n      0xffffffffffffffffffffffffffffffffffffffff\n      and\n      mul\n      or\n      swap1\n      sstore\n      pop\n        /* \"contracts/Blockchain_task.sol\":14628:14641  bannedCounter */\n      0x05\n      0x00\n        /* \"contracts/Blockchain_task.sol\":14628:14643  bannedCounter++ */\n      dup2\n      sload\n      dup1\n      swap3\n      swap2\n      swap1\n      tag_336\n      swap1\n      tag_207\n      jump\t// in\n    tag_336:\n      swap2\n      swap1\n      pop\n      sstore\n      pop\n        /* \"contracts/Blockchain_task.sol\":14371:14650  function banInvestor(address investor)... */\n      pop\n      jump\t// out\n        /* \"contracts/Blockchain_task.sol\":691:711  address public owner */\n    tag_84:\n      0x00\n      dup1\n      sload\n      swap1\n      0x0100\n      exp\n      swap1\n      div\n      0xffffffffffffffffffffffffffffffffffffffff\n      and\n      dup2\n      jump\t// out\n        /* \"contracts/Blockchain_task.sol\":7032:7909  function completeCampaign(uint256 campaignId)... */\n    tag_90:\n        /* \"contracts/Blockchain_task.sol\":7116:7126  campaignId */\n      dup1\n        /* \"contracts/Blockchain_task.sol\":2611:2620  campaigns */\n      0x04\n        /* \"contracts/Blockchain_task.sol\":2611:2632  campaigns[campaignId] */\n      0x00\n        /* \"contracts/Blockchain_task.sol\":2621:2631  campaignId */\n      dup3\n        /* \"contracts/Blockchain_task.sol\":2611:2632  campaigns[campaignId] */\n      dup2\n      mstore\n      0x20\n      add\n      swap1\n      dup2\n      mstore\n      0x20\n      add\n      0x00\n      keccak256\n        /* \"contracts/Blockchain_task.sol\":2611:2641  campaigns[campaignId].isActive */\n      0x06\n      add\n      0x00\n      swap1\n      sload\n      swap1\n      0x0100\n      exp\n      swap1\n      div\n      0xff\n      and\n        /* \"contracts/Blockchain_task.sol\":2603:2668  require(campaigns[campaignId].isActive, \"Campaign is not active\") */\n      tag_338\n      jumpi\n      mload(0x40)\n      0x08c379a000000000000000000000000000000000000000000000000000000000\n      dup2\n      mstore\n      0x04\n      add\n      tag_339\n      swap1\n      tag_175\n      jump\t// in\n    tag_339:\n      mload(0x40)\n      dup1\n      swap2\n      sub\n      swap1\n      revert\n    tag_338:\n        /* \"contracts/Blockchain_task.sol\":7149:7159  campaignId */\n      dup2\n        /* \"contracts/Blockchain_task.sol\":2753:2762  campaigns */\n      0x04\n        /* \"contracts/Blockchain_task.sol\":2753:2774  campaigns[campaignId] */\n      0x00\n        /* \"contracts/Blockchain_task.sol\":2763:2773  campaignId */\n      dup3\n        /* \"contracts/Blockchain_task.sol\":2753:2774  campaigns[campaignId] */\n      dup2\n      mstore\n      0x20\n      add\n      swap1\n      dup2\n      mstore\n      0x20\n      add\n      0x00\n      keccak256\n        /* \"contracts/Blockchain_task.sol\":2753:2786  campaigns[campaignId].isCancelled */\n      0x06\n      add\n      0x01\n      swap1\n      sload\n      swap1\n      0x0100\n      exp\n      swap1\n      div\n      0xff\n      and\n        /* \"contracts/Blockchain_task.sol\":2752:2786  !campaigns[campaignId].isCancelled */\n      iszero\n        /* \"contracts/Blockchain_task.sol\":2744:2812  require(!campaigns[campaignId].isCancelled, \"Campaign is cancelled\") */\n      tag_341\n      jumpi\n      mload(0x40)\n      0x08c379a000000000000000000000000000000000000000000000000000000000\n      dup2\n      mstore\n      0x04\n      add\n      tag_342\n      swap1\n      tag_179\n      jump\t// in\n    tag_342:\n      mload(0x40)\n      dup1\n      swap2\n      sub\n      swap1\n      revert\n    tag_341:\n        /* \"contracts/Blockchain_task.sol\":2206:2222  isContractActive */\n      0x09\n      0x00\n      swap1\n      sload\n      swap1\n      0x0100\n      exp\n      swap1\n      div\n      0xff\n      and\n        /* \"contracts/Blockchain_task.sol\":2198:2249  require(isContractActive, \"Contract is not active\") */\n      tag_344\n      jumpi\n      mload(0x40)\n      0x08c379a000000000000000000000000000000000000000000000000000000000\n      dup2\n      mstore\n      0x04\n      add\n      tag_345\n      swap1\n      tag_140\n      jump\t// in\n    tag_345:\n      mload(0x40)\n      dup1\n      swap2\n      sub\n      swap1\n      revert\n    tag_344:\n        /* \"contracts/Blockchain_task.sol\":7198:7223  Campaign storage campaign */\n      0x00\n        /* \"contracts/Blockchain_task.sol\":7226:7235  campaigns */\n      0x04\n        /* \"contracts/Blockchain_task.sol\":7226:7247  campaigns[campaignId] */\n      0x00\n        /* \"contracts/Blockchain_task.sol\":7236:7246  campaignId */\n      dup6\n        /* \"contracts/Blockchain_task.sol\":7226:7247  campaigns[campaignId] */\n      dup2\n      mstore\n      0x20\n      add\n      swap1\n      dup2\n      mstore\n      0x20\n      add\n      0x00\n      keccak256\n        /* \"contracts/Blockchain_task.sol\":7198:7247  Campaign storage campaign = campaigns[campaignId] */\n      swap1\n      pop\n        /* \"contracts/Blockchain_task.sol\":7292:7300  campaign */\n      dup1\n        /* \"contracts/Blockchain_task.sol\":7292:7313  campaign.entrepreneur */\n      0x01\n      add\n      0x00\n      swap1\n      sload\n      swap1\n      0x0100\n      exp\n      swap1\n      div\n      0xffffffffffffffffffffffffffffffffffffffff\n      and\n        /* \"contracts/Blockchain_task.sol\":7278:7313  msg.sender == campaign.entrepreneur */\n      0xffffffffffffffffffffffffffffffffffffffff\n      and\n        /* \"contracts/Blockchain_task.sol\":7278:7288  msg.sender */\n      caller\n        /* \"contracts/Blockchain_task.sol\":7278:7313  msg.sender == campaign.entrepreneur */\n      0xffffffffffffffffffffffffffffffffffffffff\n      and\n      eq\n        /* \"contracts/Blockchain_task.sol\":7278:7336  msg.sender == campaign.entrepreneur || msg.sender == owner */\n      dup1\n      tag_347\n      jumpi\n      pop\n        /* \"contracts/Blockchain_task.sol\":7331:7336  owner */\n      0x00\n      dup1\n      sload\n      swap1\n      0x0100\n      exp\n      swap1\n      div\n      0xffffffffffffffffffffffffffffffffffffffff\n      and\n        /* \"contracts/Blockchain_task.sol\":7317:7336  msg.sender == owner */\n      0xffffffffffffffffffffffffffffffffffffffff\n      and\n        /* \"contracts/Blockchain_task.sol\":7317:7327  msg.sender */\n      caller\n        /* \"contracts/Blockchain_task.sol\":7317:7336  msg.sender == owner */\n      0xffffffffffffffffffffffffffffffffffffffff\n      and\n      eq\n        /* \"contracts/Blockchain_task.sol\":7278:7336  msg.sender == campaign.entrepreneur || msg.sender == owner */\n    tag_347:\n        /* \"contracts/Blockchain_task.sol\":7257:7419  require(... */\n      tag_348\n      jumpi\n      mload(0x40)\n      0x08c379a000000000000000000000000000000000000000000000000000000000\n      dup2\n      mstore\n      0x04\n      add\n      tag_349\n      swap1\n      tag_350\n      jump\t// in\n    tag_349:\n      mload(0x40)\n      dup1\n      swap2\n      sub\n      swap1\n      revert\n    tag_348:\n        /* \"contracts/Blockchain_task.sol\":7476:7484  campaign */\n      dup1\n        /* \"contracts/Blockchain_task.sol\":7476:7496  campaign.totalShares */\n      0x04\n      add\n      sload\n        /* \"contracts/Blockchain_task.sol\":7450:7458  campaign */\n      dup2\n        /* \"contracts/Blockchain_task.sol\":7450:7472  campaign.currentShares */\n      0x05\n      add\n      sload\n        /* \"contracts/Blockchain_task.sol\":7450:7496  campaign.currentShares >= campaign.totalShares */\n      lt\n      iszero\n        /* \"contracts/Blockchain_task.sol\":7429:7558  require(... */\n      tag_351\n      jumpi\n      mload(0x40)\n      0x08c379a000000000000000000000000000000000000000000000000000000000\n      dup2\n      mstore\n      0x04\n      add\n      tag_352\n      swap1\n      tag_353\n      jump\t// in\n    tag_352:\n      mload(0x40)\n      dup1\n      swap2\n      sub\n      swap1\n      revert\n    tag_351:\n        /* \"contracts/Blockchain_task.sol\":7569:7595  uint256 entrepreneurPayout */\n      0x00\n        /* \"contracts/Blockchain_task.sol\":7629:7632  100 */\n      0x64\n        /* \"contracts/Blockchain_task.sol\":7623:7625  80 */\n      0x50\n        /* \"contracts/Blockchain_task.sol\":7599:7620  address(this).balance */\n      selfbalance\n        /* \"contracts/Blockchain_task.sol\":7599:7625  address(this).balance * 80 */\n      tag_354\n      swap2\n      swap1\n      tag_155\n      jump\t// in\n    tag_354:\n        /* \"contracts/Blockchain_task.sol\":7598:7632  (address(this).balance * 80) / 100 */\n      tag_355\n      swap2\n      swap1\n      tag_356\n      jump\t// in\n    tag_355:\n        /* \"contracts/Blockchain_task.sol\":7569:7632  uint256 entrepreneurPayout = (address(this).balance * 80) / 100 */\n      swap1\n      pop\n        /* \"contracts/Blockchain_task.sol\":7650:7658  campaign */\n      dup2\n        /* \"contracts/Blockchain_task.sol\":7650:7671  campaign.entrepreneur */\n      0x01\n      add\n      0x00\n      swap1\n      sload\n      swap1\n      0x0100\n      exp\n      swap1\n      div\n      0xffffffffffffffffffffffffffffffffffffffff\n      and\n        /* \"contracts/Blockchain_task.sol\":7642:7681  payable(campaign.entrepreneur).transfer */\n      0xffffffffffffffffffffffffffffffffffffffff\n      and\n        /* \"contracts/Blockchain_task.sol\":7642:7701  payable(campaign.entrepreneur).transfer(entrepreneurPayout) */\n      0x08fc\n        /* \"contracts/Blockchain_task.sol\":7682:7700  entrepreneurPayout */\n      dup3\n        /* \"contracts/Blockchain_task.sol\":7642:7701  payable(campaign.entrepreneur).transfer(entrepreneurPayout) */\n      swap1\n      dup2\n      iszero\n      mul\n      swap1\n      mload(0x40)\n      0x00\n      mload(0x40)\n      dup1\n      dup4\n      sub\n      dup2\n      dup6\n      dup9\n      dup9\n      call\n      swap4\n      pop\n      pop\n      pop\n      pop\n      iszero\n      dup1\n      iszero\n      tag_358\n      jumpi\n      returndatasize\n      0x00\n      dup1\n      returndatacopy\n      revert(0x00, returndatasize)\n    tag_358:\n      pop\n        /* \"contracts/Blockchain_task.sol\":7734:7755  address(this).balance */\n      selfbalance\n        /* \"contracts/Blockchain_task.sol\":7712:7730  totalFeesCollected */\n      0x02\n        /* \"contracts/Blockchain_task.sol\":7712:7756  totalFeesCollected = (address(this).balance) */\n      dup2\n      swap1\n      sstore\n      pop\n        /* \"contracts/Blockchain_task.sol\":7787:7792  false */\n      0x00\n        /* \"contracts/Blockchain_task.sol\":7767:7775  campaign */\n      dup3\n        /* \"contracts/Blockchain_task.sol\":7767:7784  campaign.isActive */\n      0x06\n      add\n      0x00\n        /* \"contracts/Blockchain_task.sol\":7767:7792  campaign.isActive = false */\n      0x0100\n      exp\n      dup2\n      sload\n      dup2\n      0xff\n      mul\n      not\n      and\n      swap1\n      dup4\n      iszero\n      iszero\n      mul\n      or\n      swap1\n      sstore\n      pop\n        /* \"contracts/Blockchain_task.sol\":7825:7829  true */\n      0x01\n        /* \"contracts/Blockchain_task.sol\":7802:7810  campaign */\n      dup3\n        /* \"contracts/Blockchain_task.sol\":7802:7822  campaign.isCompleted */\n      0x06\n      add\n      0x02\n        /* \"contracts/Blockchain_task.sol\":7802:7829  campaign.isCompleted = true */\n      0x0100\n      exp\n      dup2\n      sload\n      dup2\n      0xff\n      mul\n      not\n      and\n      swap1\n      dup4\n      iszero\n      iszero\n      mul\n      or\n      swap1\n      sstore\n      pop\n        /* \"contracts/Blockchain_task.sol\":7845:7902  CampaignCompleted(campaignId, msg.sender, campaign.title) */\n      0x8074ef78c691c15ac249ef0c702e350affe9388afdbbafd37c0d19703cd0c7db\n        /* \"contracts/Blockchain_task.sol\":7863:7873  campaignId */\n      dup6\n        /* \"contracts/Blockchain_task.sol\":7875:7885  msg.sender */\n      caller\n        /* \"contracts/Blockchain_task.sol\":7887:7895  campaign */\n      dup5\n        /* \"contracts/Blockchain_task.sol\":7887:7901  campaign.title */\n      0x02\n      add\n        /* \"contracts/Blockchain_task.sol\":7845:7902  CampaignCompleted(campaignId, msg.sender, campaign.title) */\n      mload(0x40)\n      tag_359\n      swap4\n      swap3\n      swap2\n      swap1\n      tag_302\n      jump\t// in\n    tag_359:\n      mload(0x40)\n      dup1\n      swap2\n      sub\n      swap1\n      log1\n        /* \"contracts/Blockchain_task.sol\":7188:7909  {... */\n      pop\n      pop\n        /* \"contracts/Blockchain_task.sol\":2678:2679  _ */\n      pop\n        /* \"contracts/Blockchain_task.sol\":7032:7909  function completeCampaign(uint256 campaignId)... */\n      pop\n      pop\n      jump\t// out\n        /* \"contracts/Blockchain_task.sol\":14685:14870  function changeOwner(address newOwner) public onlyOwner activeContract {... */\n    tag_94:\n        /* \"contracts/Blockchain_task.sol\":2067:2072  owner */\n      0x00\n      dup1\n      sload\n      swap1\n      0x0100\n      exp\n      swap1\n      div\n      0xffffffffffffffffffffffffffffffffffffffff\n      and\n        /* \"contracts/Blockchain_task.sol\":2053:2072  msg.sender == owner */\n      0xffffffffffffffffffffffffffffffffffffffff\n      and\n        /* \"contracts/Blockchain_task.sol\":2053:2063  msg.sender */\n      caller\n        /* \"contracts/Blockchain_task.sol\":2053:2072  msg.sender == owner */\n      0xffffffffffffffffffffffffffffffffffffffff\n      and\n      eq\n        /* \"contracts/Blockchain_task.sol\":2032:2138  require(... */\n      tag_361\n      jumpi\n      mload(0x40)\n      0x08c379a000000000000000000000000000000000000000000000000000000000\n      dup2\n      mstore\n      0x04\n      add\n      tag_362\n      swap1\n      tag_136\n      jump\t// in\n    tag_362:\n      mload(0x40)\n      dup1\n      swap2\n      sub\n      swap1\n      revert\n    tag_361:\n        /* \"contracts/Blockchain_task.sol\":2206:2222  isContractActive */\n      0x09\n      0x00\n      swap1\n      sload\n      swap1\n      0x0100\n      exp\n      swap1\n      div\n      0xff\n      and\n        /* \"contracts/Blockchain_task.sol\":2198:2249  require(isContractActive, \"Contract is not active\") */\n      tag_364\n      jumpi\n      mload(0x40)\n      0x08c379a000000000000000000000000000000000000000000000000000000000\n      dup2\n      mstore\n      0x04\n      add\n      tag_365\n      swap1\n      tag_140\n      jump\t// in\n    tag_365:\n      mload(0x40)\n      dup1\n      swap2\n      sub\n      swap1\n      revert\n    tag_364:\n        /* \"contracts/Blockchain_task.sol\":14794:14795  0 */\n      0x00\n        /* \"contracts/Blockchain_task.sol\":14774:14796  newOwner != address(0) */\n      0xffffffffffffffffffffffffffffffffffffffff\n      and\n        /* \"contracts/Blockchain_task.sol\":14774:14782  newOwner */\n      dup2\n        /* \"contracts/Blockchain_task.sol\":14774:14796  newOwner != address(0) */\n      0xffffffffffffffffffffffffffffffffffffffff\n      and\n      sub\n        /* \"contracts/Blockchain_task.sol\":14766:14837  require(newOwner != address(0), \"New owner cannot be the zero address\") */\n      tag_367\n      jumpi\n      mload(0x40)\n      0x08c379a000000000000000000000000000000000000000000000000000000000\n      dup2\n      mstore\n      0x04\n      add\n      tag_368\n      swap1\n      tag_369\n      jump\t// in\n    tag_368:\n      mload(0x40)\n      dup1\n      swap2\n      sub\n      swap1\n      revert\n    tag_367:\n        /* \"contracts/Blockchain_task.sol\":14855:14863  newOwner */\n      dup1\n        /* \"contracts/Blockchain_task.sol\":14847:14852  owner */\n      0x00\n      dup1\n        /* \"contracts/Blockchain_task.sol\":14847:14863  owner = newOwner */\n      0x0100\n      exp\n      dup2\n      sload\n      dup2\n      0xffffffffffffffffffffffffffffffffffffffff\n      mul\n      not\n      and\n      swap1\n      dup4\n      0xffffffffffffffffffffffffffffffffffffffff\n      and\n      mul\n      or\n      swap1\n      sstore\n      pop\n        /* \"contracts/Blockchain_task.sol\":14685:14870  function changeOwner(address newOwner) public onlyOwner activeContract {... */\n      pop\n      jump\t// out\n        /* \"contracts/Blockchain_task.sol\":1124:1152  uint256 public bannedCounter */\n    tag_97:\n      sload(0x05)\n      dup2\n      jump\t// out\n        /* \"contracts/Blockchain_task.sol\":12533:13271  function getInvestorsAndShares(uint256 campaignId)... */\n    tag_102:\n        /* \"contracts/Blockchain_task.sol\":12687:12713  address[] memory investors */\n      0x60\n        /* \"contracts/Blockchain_task.sol\":12715:12738  uint256[] memory shares */\n      dup1\n        /* \"contracts/Blockchain_task.sol\":2206:2222  isContractActive */\n      0x09\n      0x00\n      swap1\n      sload\n      swap1\n      0x0100\n      exp\n      swap1\n      div\n      0xff\n      and\n        /* \"contracts/Blockchain_task.sol\":2198:2249  require(isContractActive, \"Contract is not active\") */\n      tag_371\n      jumpi\n      mload(0x40)\n      0x08c379a000000000000000000000000000000000000000000000000000000000\n      dup2\n      mstore\n      0x04\n      add\n      tag_372\n      swap1\n      tag_140\n      jump\t// in\n    tag_372:\n      mload(0x40)\n      dup1\n      swap2\n      sub\n      swap1\n      revert\n    tag_371:\n        /* \"contracts/Blockchain_task.sol\":12658:12668  campaignId */\n      dup3\n        /* \"contracts/Blockchain_task.sol\":3355:3356  0 */\n      0x00\n        /* \"contracts/Blockchain_task.sol\":3342:3352  campaignId */\n      dup2\n        /* \"contracts/Blockchain_task.sol\":3342:3356  campaignId > 0 */\n      gt\n        /* \"contracts/Blockchain_task.sol\":3342:3389  campaignId > 0 && campaignId <= campaignCounter */\n      dup1\n      iszero\n      tag_374\n      jumpi\n      pop\n        /* \"contracts/Blockchain_task.sol\":3374:3389  campaignCounter */\n      sload(0x03)\n        /* \"contracts/Blockchain_task.sol\":3360:3370  campaignId */\n      dup2\n        /* \"contracts/Blockchain_task.sol\":3360:3389  campaignId <= campaignCounter */\n      gt\n      iszero\n        /* \"contracts/Blockchain_task.sol\":3342:3389  campaignId > 0 && campaignId <= campaignCounter */\n    tag_374:\n        /* \"contracts/Blockchain_task.sol\":3321:3434  require(... */\n      tag_375\n      jumpi\n      mload(0x40)\n      0x08c379a000000000000000000000000000000000000000000000000000000000\n      dup2\n      mstore\n      0x04\n      add\n      tag_376\n      swap1\n      tag_377\n      jump\t// in\n    tag_376:\n      mload(0x40)\n      dup1\n      swap2\n      sub\n      swap1\n      revert\n    tag_375:\n        /* \"contracts/Blockchain_task.sol\":12754:12779  Campaign storage campaign */\n      0x00\n        /* \"contracts/Blockchain_task.sol\":12782:12791  campaigns */\n      0x04\n        /* \"contracts/Blockchain_task.sol\":12782:12803  campaigns[campaignId] */\n      0x00\n        /* \"contracts/Blockchain_task.sol\":12792:12802  campaignId */\n      dup7\n        /* \"contracts/Blockchain_task.sol\":12782:12803  campaigns[campaignId] */\n      dup2\n      mstore\n      0x20\n      add\n      swap1\n      dup2\n      mstore\n      0x20\n      add\n      0x00\n      keccak256\n        /* \"contracts/Blockchain_task.sol\":12754:12803  Campaign storage campaign = campaigns[campaignId] */\n      swap1\n      pop\n        /* \"contracts/Blockchain_task.sol\":12912:12933  uint256 investorCount */\n      0x00\n        /* \"contracts/Blockchain_task.sol\":12936:12944  campaign */\n      dup2\n        /* \"contracts/Blockchain_task.sol\":12936:12952  campaign.backers */\n      0x07\n      add\n        /* \"contracts/Blockchain_task.sol\":12936:12959  campaign.backers.length */\n      dup1\n      sload\n      swap1\n      pop\n        /* \"contracts/Blockchain_task.sol\":12912:12959  uint256 investorCount = campaign.backers.length */\n      swap1\n      pop\n        /* \"contracts/Blockchain_task.sol\":12995:13008  investorCount */\n      dup1\n        /* \"contracts/Blockchain_task.sol\":12981:13009  new address[](investorCount) */\n      0xffffffffffffffff\n      dup2\n      gt\n      iszero\n      tag_379\n      jumpi\n      tag_380\n      tag_210\n      jump\t// in\n    tag_380:\n    tag_379:\n      mload(0x40)\n      swap1\n      dup1\n      dup3\n      mstore\n      dup1\n      0x20\n      mul\n      0x20\n      add\n      dup3\n      add\n      0x40\n      mstore\n      dup1\n      iszero\n      tag_381\n      jumpi\n      dup2\n      0x20\n      add\n      0x20\n      dup3\n      mul\n      dup1\n      calldatasize\n      dup4\n      calldatacopy\n      dup1\n      dup3\n      add\n      swap2\n      pop\n      pop\n      swap1\n      pop\n    tag_381:\n      pop\n        /* \"contracts/Blockchain_task.sol\":12969:13009  investors = new address[](investorCount) */\n      swap5\n      pop\n        /* \"contracts/Blockchain_task.sol\":13042:13055  investorCount */\n      dup1\n        /* \"contracts/Blockchain_task.sol\":13028:13056  new uint256[](investorCount) */\n      0xffffffffffffffff\n      dup2\n      gt\n      iszero\n      tag_382\n      jumpi\n      tag_383\n      tag_210\n      jump\t// in\n    tag_383:\n    tag_382:\n      mload(0x40)\n      swap1\n      dup1\n      dup3\n      mstore\n      dup1\n      0x20\n      mul\n      0x20\n      add\n      dup3\n      add\n      0x40\n      mstore\n      dup1\n      iszero\n      tag_384\n      jumpi\n      dup2\n      0x20\n      add\n      0x20\n      dup3\n      mul\n      dup1\n      calldatasize\n      dup4\n      calldatacopy\n      dup1\n      dup3\n      add\n      swap2\n      pop\n      pop\n      swap1\n      pop\n    tag_384:\n      pop\n        /* \"contracts/Blockchain_task.sol\":13019:13056  shares = new uint256[](investorCount) */\n      swap4\n      pop\n        /* \"contracts/Blockchain_task.sol\":13072:13081  uint256 i */\n      0x00\n        /* \"contracts/Blockchain_task.sol\":13067:13265  for (uint256 i = 0; i < investorCount; i++) {... */\n    tag_385:\n        /* \"contracts/Blockchain_task.sol\":13091:13104  investorCount */\n      dup2\n        /* \"contracts/Blockchain_task.sol\":13087:13088  i */\n      dup2\n        /* \"contracts/Blockchain_task.sol\":13087:13104  i < investorCount */\n      lt\n        /* \"contracts/Blockchain_task.sol\":13067:13265  for (uint256 i = 0; i < investorCount; i++) {... */\n      iszero\n      tag_386\n      jumpi\n        /* \"contracts/Blockchain_task.sol\":13125:13139  address backer */\n      0x00\n        /* \"contracts/Blockchain_task.sol\":13142:13150  campaign */\n      dup4\n        /* \"contracts/Blockchain_task.sol\":13142:13158  campaign.backers */\n      0x07\n      add\n        /* \"contracts/Blockchain_task.sol\":13159:13160  i */\n      dup3\n        /* \"contracts/Blockchain_task.sol\":13142:13161  campaign.backers[i] */\n      dup2\n      sload\n      dup2\n      lt\n      tag_388\n      jumpi\n      tag_389\n      tag_152\n      jump\t// in\n    tag_389:\n    tag_388:\n      swap1\n      0x00\n      mstore\n      keccak256(0x00, 0x20)\n      add\n      0x00\n      swap1\n      sload\n      swap1\n      0x0100\n      exp\n      swap1\n      div\n      0xffffffffffffffffffffffffffffffffffffffff\n      and\n        /* \"contracts/Blockchain_task.sol\":13125:13161  address backer = campaign.backers[i] */\n      swap1\n      pop\n        /* \"contracts/Blockchain_task.sol\":13190:13196  backer */\n      dup1\n        /* \"contracts/Blockchain_task.sol\":13175:13184  investors */\n      dup8\n        /* \"contracts/Blockchain_task.sol\":13185:13186  i */\n      dup4\n        /* \"contracts/Blockchain_task.sol\":13175:13187  investors[i] */\n      dup2\n      mload\n      dup2\n      lt\n      tag_391\n      jumpi\n      tag_392\n      tag_152\n      jump\t// in\n    tag_392:\n    tag_391:\n      0x20\n      mul\n      0x20\n      add\n      add\n        /* \"contracts/Blockchain_task.sol\":13175:13196  investors[i] = backer */\n      swap1\n      0xffffffffffffffffffffffffffffffffffffffff\n      and\n      swap1\n      dup2\n      0xffffffffffffffffffffffffffffffffffffffff\n      and\n      dup2\n      mstore\n      pop\n      pop\n        /* \"contracts/Blockchain_task.sol\":13222:13230  campaign */\n      dup4\n        /* \"contracts/Blockchain_task.sol\":13222:13246  campaign.sharesPerBacker */\n      0x08\n      add\n        /* \"contracts/Blockchain_task.sol\":13222:13254  campaign.sharesPerBacker[backer] */\n      0x00\n        /* \"contracts/Blockchain_task.sol\":13247:13253  backer */\n      dup3\n        /* \"contracts/Blockchain_task.sol\":13222:13254  campaign.sharesPerBacker[backer] */\n      0xffffffffffffffffffffffffffffffffffffffff\n      and\n      0xffffffffffffffffffffffffffffffffffffffff\n      and\n      dup2\n      mstore\n      0x20\n      add\n      swap1\n      dup2\n      mstore\n      0x20\n      add\n      0x00\n      keccak256\n      sload\n        /* \"contracts/Blockchain_task.sol\":13210:13216  shares */\n      dup7\n        /* \"contracts/Blockchain_task.sol\":13217:13218  i */\n      dup4\n        /* \"contracts/Blockchain_task.sol\":13210:13219  shares[i] */\n      dup2\n      mload\n      dup2\n      lt\n      tag_393\n      jumpi\n      tag_394\n      tag_152\n      jump\t// in\n    tag_394:\n    tag_393:\n      0x20\n      mul\n      0x20\n      add\n      add\n        /* \"contracts/Blockchain_task.sol\":13210:13254  shares[i] = campaign.sharesPerBacker[backer] */\n      dup2\n      dup2\n      mstore\n      pop\n      pop\n        /* \"contracts/Blockchain_task.sol\":13111:13265  {... */\n      pop\n        /* \"contracts/Blockchain_task.sol\":13106:13109  i++ */\n      dup1\n      dup1\n      0x01\n      add\n      swap2\n      pop\n      pop\n        /* \"contracts/Blockchain_task.sol\":13067:13265  for (uint256 i = 0; i < investorCount; i++) {... */\n      jump(tag_385)\n    tag_386:\n      pop\n        /* \"contracts/Blockchain_task.sol\":12744:13271  {... */\n      pop\n      pop\n        /* \"contracts/Blockchain_task.sol\":2259:2260  _ */\n      pop\n        /* \"contracts/Blockchain_task.sol\":12533:13271  function getInvestorsAndShares(uint256 campaignId)... */\n      swap2\n      pop\n      swap2\n      jump\t// out\n        /* \"contracts/Blockchain_task.sol\":1285:1327  mapping(address => uint256) public refunds */\n    tag_108:\n      mstore(0x20, 0x08)\n      dup1\n      0x00\n      mstore\n      keccak256(0x00, 0x40)\n      0x00\n      swap2\n      pop\n      swap1\n      pop\n      sload\n      dup2\n      jump\t// out\n        /* \"contracts/Blockchain_task.sol\":1158:1200  mapping(address => bool) public bannedList */\n    tag_113:\n      mstore(0x20, 0x06)\n      dup1\n      0x00\n      mstore\n      keccak256(0x00, 0x40)\n      0x00\n      swap2\n      pop\n      sload\n      swap1\n      0x0100\n      exp\n      swap1\n      div\n      0xff\n      and\n      dup2\n      jump\t// out\n        /* \"contracts/Blockchain_task.sol\":11257:12488  function getCancelledCampaigns()... */\n    tag_118:\n        /* \"contracts/Blockchain_task.sol\":11358:11379  CampaignInfo[] memory */\n      0x60\n        /* \"contracts/Blockchain_task.sol\":2206:2222  isContractActive */\n      0x09\n      0x00\n      swap1\n      sload\n      swap1\n      0x0100\n      exp\n      swap1\n      div\n      0xff\n      and\n        /* \"contracts/Blockchain_task.sol\":2198:2249  require(isContractActive, \"Contract is not active\") */\n      tag_396\n      jumpi\n      mload(0x40)\n      0x08c379a000000000000000000000000000000000000000000000000000000000\n      dup2\n      mstore\n      0x04\n      add\n      tag_397\n      swap1\n      tag_140\n      jump\t// in\n    tag_397:\n      mload(0x40)\n      dup1\n      swap2\n      sub\n      swap1\n      revert\n    tag_396:\n        /* \"contracts/Blockchain_task.sol\":11395:11417  uint256 cancelledCount */\n      0x00\n        /* \"contracts/Blockchain_task.sol\":11474:11483  uint256 i */\n      dup1\n        /* \"contracts/Blockchain_task.sol\":11469:11618  for (uint256 i = 0; i < campaignCounter; i++) {... */\n    tag_399:\n        /* \"contracts/Blockchain_task.sol\":11493:11508  campaignCounter */\n      sload(0x03)\n        /* \"contracts/Blockchain_task.sol\":11489:11490  i */\n      dup2\n        /* \"contracts/Blockchain_task.sol\":11489:11508  i < campaignCounter */\n      lt\n        /* \"contracts/Blockchain_task.sol\":11469:11618  for (uint256 i = 0; i < campaignCounter; i++) {... */\n      iszero\n      tag_400\n      jumpi\n        /* \"contracts/Blockchain_task.sol\":11533:11542  campaigns */\n      0x04\n        /* \"contracts/Blockchain_task.sol\":11533:11545  campaigns[i] */\n      0x00\n        /* \"contracts/Blockchain_task.sol\":11543:11544  i */\n      dup3\n        /* \"contracts/Blockchain_task.sol\":11533:11545  campaigns[i] */\n      dup2\n      mstore\n      0x20\n      add\n      swap1\n      dup2\n      mstore\n      0x20\n      add\n      0x00\n      keccak256\n        /* \"contracts/Blockchain_task.sol\":11533:11557  campaigns[i].isCancelled */\n      0x06\n      add\n      0x01\n      swap1\n      sload\n      swap1\n      0x0100\n      exp\n      swap1\n      div\n      0xff\n      and\n        /* \"contracts/Blockchain_task.sol\":11529:11608  if (campaigns[i].isCancelled) {... */\n      iszero\n      tag_402\n      jumpi\n        /* \"contracts/Blockchain_task.sol\":11577:11593  cancelledCount++ */\n      dup2\n      dup1\n      tag_403\n      swap1\n      tag_207\n      jump\t// in\n    tag_403:\n      swap3\n      pop\n      pop\n        /* \"contracts/Blockchain_task.sol\":11529:11608  if (campaigns[i].isCancelled) {... */\n    tag_402:\n        /* \"contracts/Blockchain_task.sol\":11510:11513  i++ */\n      dup1\n      dup1\n      0x01\n      add\n      swap2\n      pop\n      pop\n        /* \"contracts/Blockchain_task.sol\":11469:11618  for (uint256 i = 0; i < campaignCounter; i++) {... */\n      jump(tag_399)\n    tag_400:\n      pop\n        /* \"contracts/Blockchain_task.sol\":11681:11721  CampaignInfo[] memory cancelledCampaigns */\n      0x00\n        /* \"contracts/Blockchain_task.sol\":11756:11770  cancelledCount */\n      dup2\n        /* \"contracts/Blockchain_task.sol\":11724:11780  new CampaignInfo[](... */\n      0xffffffffffffffff\n      dup2\n      gt\n      iszero\n      tag_404\n      jumpi\n      tag_405\n      tag_210\n      jump\t// in\n    tag_405:\n    tag_404:\n      mload(0x40)\n      swap1\n      dup1\n      dup3\n      mstore\n      dup1\n      0x20\n      mul\n      0x20\n      add\n      dup3\n      add\n      0x40\n      mstore\n      dup1\n      iszero\n      tag_406\n      jumpi\n      dup2\n      0x20\n      add\n    tag_407:\n      tag_408\n      tag_263\n      jump\t// in\n    tag_408:\n      dup2\n      mstore\n      0x20\n      add\n      swap1\n      0x01\n      swap1\n      sub\n      swap1\n      dup2\n      tag_407\n      jumpi\n      swap1\n      pop\n    tag_406:\n      pop\n        /* \"contracts/Blockchain_task.sol\":11681:11780  CampaignInfo[] memory cancelledCampaigns = new CampaignInfo[](... */\n      swap1\n      pop\n        /* \"contracts/Blockchain_task.sol\":11790:11803  uint256 index */\n      0x00\n        /* \"contracts/Blockchain_task.sol\":11872:11881  uint256 i */\n      dup1\n        /* \"contracts/Blockchain_task.sol\":11867:12446  for (uint256 i = 0; i < campaignCounter; i++) {... */\n    tag_409:\n        /* \"contracts/Blockchain_task.sol\":11891:11906  campaignCounter */\n      sload(0x03)\n        /* \"contracts/Blockchain_task.sol\":11887:11888  i */\n      dup2\n        /* \"contracts/Blockchain_task.sol\":11887:11906  i < campaignCounter */\n      lt\n        /* \"contracts/Blockchain_task.sol\":11867:12446  for (uint256 i = 0; i < campaignCounter; i++) {... */\n      iszero\n      tag_410\n      jumpi\n        /* \"contracts/Blockchain_task.sol\":11931:11940  campaigns */\n      0x04\n        /* \"contracts/Blockchain_task.sol\":11931:11943  campaigns[i] */\n      0x00\n        /* \"contracts/Blockchain_task.sol\":11941:11942  i */\n      dup3\n        /* \"contracts/Blockchain_task.sol\":11931:11943  campaigns[i] */\n      dup2\n      mstore\n      0x20\n      add\n      swap1\n      dup2\n      mstore\n      0x20\n      add\n      0x00\n      keccak256\n        /* \"contracts/Blockchain_task.sol\":11931:11955  campaigns[i].isCancelled */\n      0x06\n      add\n      0x01\n      swap1\n      sload\n      swap1\n      0x0100\n      exp\n      swap1\n      div\n      0xff\n      and\n        /* \"contracts/Blockchain_task.sol\":11927:12436  if (campaigns[i].isCancelled) {... */\n      iszero\n      tag_412\n      jumpi\n        /* \"contracts/Blockchain_task.sol\":12003:12396  CampaignInfo(... */\n      mload(0x40)\n      dup1\n      0x0100\n      add\n      0x40\n      mstore\n      dup1\n        /* \"contracts/Blockchain_task.sol\":12037:12046  campaigns */\n      0x04\n        /* \"contracts/Blockchain_task.sol\":12037:12049  campaigns[i] */\n      0x00\n        /* \"contracts/Blockchain_task.sol\":12047:12048  i */\n      dup5\n        /* \"contracts/Blockchain_task.sol\":12037:12049  campaigns[i] */\n      dup2\n      mstore\n      0x20\n      add\n      swap1\n      dup2\n      mstore\n      0x20\n      add\n      0x00\n      keccak256\n        /* \"contracts/Blockchain_task.sol\":12037:12060  campaigns[i].campaignId */\n      0x00\n      add\n      sload\n        /* \"contracts/Blockchain_task.sol\":12003:12396  CampaignInfo(... */\n      dup2\n      mstore\n      0x20\n      add\n        /* \"contracts/Blockchain_task.sol\":12082:12091  campaigns */\n      0x04\n        /* \"contracts/Blockchain_task.sol\":12082:12094  campaigns[i] */\n      0x00\n        /* \"contracts/Blockchain_task.sol\":12092:12093  i */\n      dup5\n        /* \"contracts/Blockchain_task.sol\":12082:12094  campaigns[i] */\n      dup2\n      mstore\n      0x20\n      add\n      swap1\n      dup2\n      mstore\n      0x20\n      add\n      0x00\n      keccak256\n        /* \"contracts/Blockchain_task.sol\":12082:12107  campaigns[i].entrepreneur */\n      0x01\n      add\n      0x00\n      swap1\n      sload\n      swap1\n      0x0100\n      exp\n      swap1\n      div\n      0xffffffffffffffffffffffffffffffffffffffff\n      and\n        /* \"contracts/Blockchain_task.sol\":12003:12396  CampaignInfo(... */\n      0xffffffffffffffffffffffffffffffffffffffff\n      and\n      dup2\n      mstore\n      0x20\n      add\n        /* \"contracts/Blockchain_task.sol\":12129:12138  campaigns */\n      0x04\n        /* \"contracts/Blockchain_task.sol\":12129:12141  campaigns[i] */\n      0x00\n        /* \"contracts/Blockchain_task.sol\":12139:12140  i */\n      dup5\n        /* \"contracts/Blockchain_task.sol\":12129:12141  campaigns[i] */\n      dup2\n      mstore\n      0x20\n      add\n      swap1\n      dup2\n      mstore\n      0x20\n      add\n      0x00\n      keccak256\n        /* \"contracts/Blockchain_task.sol\":12129:12147  campaigns[i].title */\n      0x02\n      add\n        /* \"contracts/Blockchain_task.sol\":12003:12396  CampaignInfo(... */\n      dup1\n      sload\n      tag_413\n      swap1\n      tag_159\n      jump\t// in\n    tag_413:\n      dup1\n      0x1f\n      add\n      0x20\n      dup1\n      swap2\n      div\n      mul\n      0x20\n      add\n      mload(0x40)\n      swap1\n      dup2\n      add\n      0x40\n      mstore\n      dup1\n      swap3\n      swap2\n      swap1\n      dup2\n      dup2\n      mstore\n      0x20\n      add\n      dup3\n      dup1\n      sload\n      tag_414\n      swap1\n      tag_159\n      jump\t// in\n    tag_414:\n      dup1\n      iszero\n      tag_415\n      jumpi\n      dup1\n      0x1f\n      lt\n      tag_416\n      jumpi\n      0x0100\n      dup1\n      dup4\n      sload\n      div\n      mul\n      dup4\n      mstore\n      swap2\n      0x20\n      add\n      swap2\n      jump(tag_415)\n    tag_416:\n      dup3\n      add\n      swap2\n      swap1\n      0x00\n      mstore\n      keccak256(0x00, 0x20)\n      swap1\n    tag_417:\n      dup2\n      sload\n      dup2\n      mstore\n      swap1\n      0x01\n      add\n      swap1\n      0x20\n      add\n      dup1\n      dup4\n      gt\n      tag_417\n      jumpi\n      dup3\n      swap1\n      sub\n      0x1f\n      and\n      dup3\n      add\n      swap2\n    tag_415:\n      pop\n      pop\n      pop\n      pop\n      pop\n      dup2\n      mstore\n      0x20\n      add\n        /* \"contracts/Blockchain_task.sol\":12169:12178  campaigns */\n      0x04\n        /* \"contracts/Blockchain_task.sol\":12169:12181  campaigns[i] */\n      0x00\n        /* \"contracts/Blockchain_task.sol\":12179:12180  i */\n      dup5\n        /* \"contracts/Blockchain_task.sol\":12169:12181  campaigns[i] */\n      dup2\n      mstore\n      0x20\n      add\n      swap1\n      dup2\n      mstore\n      0x20\n      add\n      0x00\n      keccak256\n        /* \"contracts/Blockchain_task.sol\":12169:12192  campaigns[i].sharePrice */\n      0x03\n      add\n      sload\n        /* \"contracts/Blockchain_task.sol\":12003:12396  CampaignInfo(... */\n      dup2\n      mstore\n      0x20\n      add\n        /* \"contracts/Blockchain_task.sol\":12214:12223  campaigns */\n      0x04\n        /* \"contracts/Blockchain_task.sol\":12214:12226  campaigns[i] */\n      0x00\n        /* \"contracts/Blockchain_task.sol\":12224:12225  i */\n      dup5\n        /* \"contracts/Blockchain_task.sol\":12214:12226  campaigns[i] */\n      dup2\n      mstore\n      0x20\n      add\n      swap1\n      dup2\n      mstore\n      0x20\n      add\n      0x00\n      keccak256\n        /* \"contracts/Blockchain_task.sol\":12214:12238  campaigns[i].totalShares */\n      0x04\n      add\n      sload\n        /* \"contracts/Blockchain_task.sol\":12003:12396  CampaignInfo(... */\n      dup2\n      mstore\n      0x20\n      add\n        /* \"contracts/Blockchain_task.sol\":12260:12269  campaigns */\n      0x04\n        /* \"contracts/Blockchain_task.sol\":12260:12272  campaigns[i] */\n      0x00\n        /* \"contracts/Blockchain_task.sol\":12270:12271  i */\n      dup5\n        /* \"contracts/Blockchain_task.sol\":12260:12272  campaigns[i] */\n      dup2\n      mstore\n      0x20\n      add\n      swap1\n      dup2\n      mstore\n      0x20\n      add\n      0x00\n      keccak256\n        /* \"contracts/Blockchain_task.sol\":12260:12286  campaigns[i].currentShares */\n      0x05\n      add\n      sload\n        /* \"contracts/Blockchain_task.sol\":12003:12396  CampaignInfo(... */\n      dup2\n      mstore\n      0x20\n      add\n        /* \"contracts/Blockchain_task.sol\":12308:12317  campaigns */\n      0x04\n        /* \"contracts/Blockchain_task.sol\":12308:12320  campaigns[i] */\n      0x00\n        /* \"contracts/Blockchain_task.sol\":12318:12319  i */\n      dup5\n        /* \"contracts/Blockchain_task.sol\":12308:12320  campaigns[i] */\n      dup2\n      mstore\n      0x20\n      add\n      swap1\n      dup2\n      mstore\n      0x20\n      add\n      0x00\n      keccak256\n        /* \"contracts/Blockchain_task.sol\":12308:12332  campaigns[i].isCompleted */\n      0x06\n      add\n      0x02\n      swap1\n      sload\n      swap1\n      0x0100\n      exp\n      swap1\n      div\n      0xff\n      and\n        /* \"contracts/Blockchain_task.sol\":12003:12396  CampaignInfo(... */\n      iszero\n      iszero\n      dup2\n      mstore\n      0x20\n      add\n        /* \"contracts/Blockchain_task.sol\":12354:12363  campaigns */\n      0x04\n        /* \"contracts/Blockchain_task.sol\":12354:12366  campaigns[i] */\n      0x00\n        /* \"contracts/Blockchain_task.sol\":12364:12365  i */\n      dup5\n        /* \"contracts/Blockchain_task.sol\":12354:12366  campaigns[i] */\n      dup2\n      mstore\n      0x20\n      add\n      swap1\n      dup2\n      mstore\n      0x20\n      add\n      0x00\n      keccak256\n        /* \"contracts/Blockchain_task.sol\":12354:12378  campaigns[i].isCancelled */\n      0x06\n      add\n      0x01\n      swap1\n      sload\n      swap1\n      0x0100\n      exp\n      swap1\n      div\n      0xff\n      and\n        /* \"contracts/Blockchain_task.sol\":12003:12396  CampaignInfo(... */\n      iszero\n      iszero\n      dup2\n      mstore\n      pop\n        /* \"contracts/Blockchain_task.sol\":11975:11993  cancelledCampaigns */\n      dup4\n        /* \"contracts/Blockchain_task.sol\":11994:11999  index */\n      dup4\n        /* \"contracts/Blockchain_task.sol\":11975:12000  cancelledCampaigns[index] */\n      dup2\n      mload\n      dup2\n      lt\n      tag_418\n      jumpi\n      tag_419\n      tag_152\n      jump\t// in\n    tag_419:\n    tag_418:\n      0x20\n      mul\n      0x20\n      add\n      add\n        /* \"contracts/Blockchain_task.sol\":11975:12396  cancelledCampaigns[index] = CampaignInfo(... */\n      dup2\n      swap1\n      mstore\n      pop\n        /* \"contracts/Blockchain_task.sol\":12414:12421  index++ */\n      dup2\n      dup1\n      tag_420\n      swap1\n      tag_207\n      jump\t// in\n    tag_420:\n      swap3\n      pop\n      pop\n        /* \"contracts/Blockchain_task.sol\":11927:12436  if (campaigns[i].isCancelled) {... */\n    tag_412:\n        /* \"contracts/Blockchain_task.sol\":11908:11911  i++ */\n      dup1\n      dup1\n      0x01\n      add\n      swap2\n      pop\n      pop\n        /* \"contracts/Blockchain_task.sol\":11867:12446  for (uint256 i = 0; i < campaignCounter; i++) {... */\n      jump(tag_409)\n    tag_410:\n      pop\n        /* \"contracts/Blockchain_task.sol\":12463:12481  cancelledCampaigns */\n      dup2\n        /* \"contracts/Blockchain_task.sol\":12456:12481  return cancelledCampaigns */\n      swap4\n      pop\n      pop\n      pop\n      pop\n        /* \"contracts/Blockchain_task.sol\":11257:12488  function getCancelledCampaigns()... */\n      swap1\n      jump\t// out\n        /* \"contracts/Blockchain_task.sol\":8611:9882  function getActiveCampaigns()... */\n    tag_122:\n        /* \"contracts/Blockchain_task.sol\":8709:8730  CampaignInfo[] memory */\n      0x60\n        /* \"contracts/Blockchain_task.sol\":2206:2222  isContractActive */\n      0x09\n      0x00\n      swap1\n      sload\n      swap1\n      0x0100\n      exp\n      swap1\n      div\n      0xff\n      and\n        /* \"contracts/Blockchain_task.sol\":2198:2249  require(isContractActive, \"Contract is not active\") */\n      tag_422\n      jumpi\n      mload(0x40)\n      0x08c379a000000000000000000000000000000000000000000000000000000000\n      dup2\n      mstore\n      0x04\n      add\n      tag_423\n      swap1\n      tag_140\n      jump\t// in\n    tag_423:\n      mload(0x40)\n      dup1\n      swap2\n      sub\n      swap1\n      revert\n    tag_422:\n        /* \"contracts/Blockchain_task.sol\":8746:8765  uint256 activeCount */\n      0x00\n        /* \"contracts/Blockchain_task.sol\":8819:8828  uint256 i */\n      dup1\n        /* \"contracts/Blockchain_task.sol\":8814:8990  for (uint256 i = 0; i < campaignCounter; i++) {... */\n    tag_425:\n        /* \"contracts/Blockchain_task.sol\":8838:8853  campaignCounter */\n      sload(0x03)\n        /* \"contracts/Blockchain_task.sol\":8834:8835  i */\n      dup2\n        /* \"contracts/Blockchain_task.sol\":8834:8853  i < campaignCounter */\n      lt\n        /* \"contracts/Blockchain_task.sol\":8814:8990  for (uint256 i = 0; i < campaignCounter; i++) {... */\n      iszero\n      tag_426\n      jumpi\n        /* \"contracts/Blockchain_task.sol\":8879:8888  campaigns */\n      0x04\n        /* \"contracts/Blockchain_task.sol\":8879:8891  campaigns[i] */\n      0x00\n        /* \"contracts/Blockchain_task.sol\":8889:8890  i */\n      dup3\n        /* \"contracts/Blockchain_task.sol\":8879:8891  campaigns[i] */\n      dup2\n      mstore\n      0x20\n      add\n      swap1\n      dup2\n      mstore\n      0x20\n      add\n      0x00\n      keccak256\n        /* \"contracts/Blockchain_task.sol\":8879:8903  campaigns[i].isCompleted */\n      0x06\n      add\n      0x02\n      swap1\n      sload\n      swap1\n      0x0100\n      exp\n      swap1\n      div\n      0xff\n      and\n        /* \"contracts/Blockchain_task.sol\":8878:8903  !campaigns[i].isCompleted */\n      iszero\n        /* \"contracts/Blockchain_task.sol\":8878:8932  !campaigns[i].isCompleted && !campaigns[i].isCancelled */\n      dup1\n      iszero\n      tag_428\n      jumpi\n      pop\n        /* \"contracts/Blockchain_task.sol\":8908:8917  campaigns */\n      0x04\n        /* \"contracts/Blockchain_task.sol\":8908:8920  campaigns[i] */\n      0x00\n        /* \"contracts/Blockchain_task.sol\":8918:8919  i */\n      dup3\n        /* \"contracts/Blockchain_task.sol\":8908:8920  campaigns[i] */\n      dup2\n      mstore\n      0x20\n      add\n      swap1\n      dup2\n      mstore\n      0x20\n      add\n      0x00\n      keccak256\n        /* \"contracts/Blockchain_task.sol\":8908:8932  campaigns[i].isCancelled */\n      0x06\n      add\n      0x01\n      swap1\n      sload\n      swap1\n      0x0100\n      exp\n      swap1\n      div\n      0xff\n      and\n        /* \"contracts/Blockchain_task.sol\":8907:8932  !campaigns[i].isCancelled */\n      iszero\n        /* \"contracts/Blockchain_task.sol\":8878:8932  !campaigns[i].isCompleted && !campaigns[i].isCancelled */\n    tag_428:\n        /* \"contracts/Blockchain_task.sol\":8874:8980  if (!campaigns[i].isCompleted && !campaigns[i].isCancelled) {... */\n      iszero\n      tag_429\n      jumpi\n        /* \"contracts/Blockchain_task.sol\":8952:8965  activeCount++ */\n      dup2\n      dup1\n      tag_430\n      swap1\n      tag_207\n      jump\t// in\n    tag_430:\n      swap3\n      pop\n      pop\n        /* \"contracts/Blockchain_task.sol\":8874:8980  if (!campaigns[i].isCompleted && !campaigns[i].isCancelled) {... */\n    tag_429:\n        /* \"contracts/Blockchain_task.sol\":8855:8858  i++ */\n      dup1\n      dup1\n      0x01\n      add\n      swap2\n      pop\n      pop\n        /* \"contracts/Blockchain_task.sol\":8814:8990  for (uint256 i = 0; i < campaignCounter; i++) {... */\n      jump(tag_425)\n    tag_426:\n      pop\n        /* \"contracts/Blockchain_task.sol\":9053:9090  CampaignInfo[] memory activeCampaigns */\n      0x00\n        /* \"contracts/Blockchain_task.sol\":9112:9123  activeCount */\n      dup2\n        /* \"contracts/Blockchain_task.sol\":9093:9124  new CampaignInfo[](activeCount) */\n      0xffffffffffffffff\n      dup2\n      gt\n      iszero\n      tag_431\n      jumpi\n      tag_432\n      tag_210\n      jump\t// in\n    tag_432:\n    tag_431:\n      mload(0x40)\n      swap1\n      dup1\n      dup3\n      mstore\n      dup1\n      0x20\n      mul\n      0x20\n      add\n      dup3\n      add\n      0x40\n      mstore\n      dup1\n      iszero\n      tag_433\n      jumpi\n      dup2\n      0x20\n      add\n    tag_434:\n      tag_435\n      tag_263\n      jump\t// in\n    tag_435:\n      dup2\n      mstore\n      0x20\n      add\n      swap1\n      0x01\n      swap1\n      sub\n      swap1\n      dup2\n      tag_434\n      jumpi\n      swap1\n      pop\n    tag_433:\n      pop\n        /* \"contracts/Blockchain_task.sol\":9053:9124  CampaignInfo[] memory activeCampaigns = new CampaignInfo[](activeCount) */\n      swap1\n      pop\n        /* \"contracts/Blockchain_task.sol\":9134:9147  uint256 index */\n      0x00\n        /* \"contracts/Blockchain_task.sol\":9213:9222  uint256 i */\n      dup1\n        /* \"contracts/Blockchain_task.sol\":9208:9843  for (uint256 i = 0; i < campaignCounter; i++) {... */\n    tag_436:\n        /* \"contracts/Blockchain_task.sol\":9232:9247  campaignCounter */\n      sload(0x03)\n        /* \"contracts/Blockchain_task.sol\":9228:9229  i */\n      dup2\n        /* \"contracts/Blockchain_task.sol\":9228:9247  i < campaignCounter */\n      lt\n        /* \"contracts/Blockchain_task.sol\":9208:9843  for (uint256 i = 0; i < campaignCounter; i++) {... */\n      iszero\n      tag_437\n      jumpi\n        /* \"contracts/Blockchain_task.sol\":9273:9282  campaigns */\n      0x04\n        /* \"contracts/Blockchain_task.sol\":9273:9285  campaigns[i] */\n      0x00\n        /* \"contracts/Blockchain_task.sol\":9283:9284  i */\n      dup3\n        /* \"contracts/Blockchain_task.sol\":9273:9285  campaigns[i] */\n      dup2\n      mstore\n      0x20\n      add\n      swap1\n      dup2\n      mstore\n      0x20\n      add\n      0x00\n      keccak256\n        /* \"contracts/Blockchain_task.sol\":9273:9297  campaigns[i].isCompleted */\n      0x06\n      add\n      0x02\n      swap1\n      sload\n      swap1\n      0x0100\n      exp\n      swap1\n      div\n      0xff\n      and\n        /* \"contracts/Blockchain_task.sol\":9272:9297  !campaigns[i].isCompleted */\n      iszero\n        /* \"contracts/Blockchain_task.sol\":9272:9326  !campaigns[i].isCompleted && !campaigns[i].isCancelled */\n      dup1\n      iszero\n      tag_439\n      jumpi\n      pop\n        /* \"contracts/Blockchain_task.sol\":9302:9311  campaigns */\n      0x04\n        /* \"contracts/Blockchain_task.sol\":9302:9314  campaigns[i] */\n      0x00\n        /* \"contracts/Blockchain_task.sol\":9312:9313  i */\n      dup3\n        /* \"contracts/Blockchain_task.sol\":9302:9314  campaigns[i] */\n      dup2\n      mstore\n      0x20\n      add\n      swap1\n      dup2\n      mstore\n      0x20\n      add\n      0x00\n      keccak256\n        /* \"contracts/Blockchain_task.sol\":9302:9326  campaigns[i].isCancelled */\n      0x06\n      add\n      0x01\n      swap1\n      sload\n      swap1\n      0x0100\n      exp\n      swap1\n      div\n      0xff\n      and\n        /* \"contracts/Blockchain_task.sol\":9301:9326  !campaigns[i].isCancelled */\n      iszero\n        /* \"contracts/Blockchain_task.sol\":9272:9326  !campaigns[i].isCompleted && !campaigns[i].isCancelled */\n    tag_439:\n        /* \"contracts/Blockchain_task.sol\":9268:9833  if (!campaigns[i].isCompleted && !campaigns[i].isCancelled) {... */\n      iszero\n      tag_440\n      jumpi\n        /* \"contracts/Blockchain_task.sol\":9371:9793  CampaignInfo(... */\n      mload(0x40)\n      dup1\n      0x0100\n      add\n      0x40\n      mstore\n      dup1\n        /* \"contracts/Blockchain_task.sol\":9405:9414  campaigns */\n      0x04\n        /* \"contracts/Blockchain_task.sol\":9405:9417  campaigns[i] */\n      0x00\n        /* \"contracts/Blockchain_task.sol\":9415:9416  i */\n      dup5\n        /* \"contracts/Blockchain_task.sol\":9405:9417  campaigns[i] */\n      dup2\n      mstore\n      0x20\n      add\n      swap1\n      dup2\n      mstore\n      0x20\n      add\n      0x00\n      keccak256\n        /* \"contracts/Blockchain_task.sol\":9405:9428  campaigns[i].campaignId */\n      0x00\n      add\n      sload\n        /* \"contracts/Blockchain_task.sol\":9371:9793  CampaignInfo(... */\n      dup2\n      mstore\n      0x20\n      add\n        /* \"contracts/Blockchain_task.sol\":9450:9459  campaigns */\n      0x04\n        /* \"contracts/Blockchain_task.sol\":9450:9462  campaigns[i] */\n      0x00\n        /* \"contracts/Blockchain_task.sol\":9460:9461  i */\n      dup5\n        /* \"contracts/Blockchain_task.sol\":9450:9462  campaigns[i] */\n      dup2\n      mstore\n      0x20\n      add\n      swap1\n      dup2\n      mstore\n      0x20\n      add\n      0x00\n      keccak256\n        /* \"contracts/Blockchain_task.sol\":9450:9475  campaigns[i].entrepreneur */\n      0x01\n      add\n      0x00\n      swap1\n      sload\n      swap1\n      0x0100\n      exp\n      swap1\n      div\n      0xffffffffffffffffffffffffffffffffffffffff\n      and\n        /* \"contracts/Blockchain_task.sol\":9371:9793  CampaignInfo(... */\n      0xffffffffffffffffffffffffffffffffffffffff\n      and\n      dup2\n      mstore\n      0x20\n      add\n        /* \"contracts/Blockchain_task.sol\":9497:9506  campaigns */\n      0x04\n        /* \"contracts/Blockchain_task.sol\":9497:9509  campaigns[i] */\n      0x00\n        /* \"contracts/Blockchain_task.sol\":9507:9508  i */\n      dup5\n        /* \"contracts/Blockchain_task.sol\":9497:9509  campaigns[i] */\n      dup2\n      mstore\n      0x20\n      add\n      swap1\n      dup2\n      mstore\n      0x20\n      add\n      0x00\n      keccak256\n        /* \"contracts/Blockchain_task.sol\":9497:9515  campaigns[i].title */\n      0x02\n      add\n        /* \"contracts/Blockchain_task.sol\":9371:9793  CampaignInfo(... */\n      dup1\n      sload\n      tag_441\n      swap1\n      tag_159\n      jump\t// in\n    tag_441:\n      dup1\n      0x1f\n      add\n      0x20\n      dup1\n      swap2\n      div\n      mul\n      0x20\n      add\n      mload(0x40)\n      swap1\n      dup2\n      add\n      0x40\n      mstore\n      dup1\n      swap3\n      swap2\n      swap1\n      dup2\n      dup2\n      mstore\n      0x20\n      add\n      dup3\n      dup1\n      sload\n      tag_442\n      swap1\n      tag_159\n      jump\t// in\n    tag_442:\n      dup1\n      iszero\n      tag_443\n      jumpi\n      dup1\n      0x1f\n      lt\n      tag_444\n      jumpi\n      0x0100\n      dup1\n      dup4\n      sload\n      div\n      mul\n      dup4\n      mstore\n      swap2\n      0x20\n      add\n      swap2\n      jump(tag_443)\n    tag_444:\n      dup3\n      add\n      swap2\n      swap1\n      0x00\n      mstore\n      keccak256(0x00, 0x20)\n      swap1\n    tag_445:\n      dup2\n      sload\n      dup2\n      mstore\n      swap1\n      0x01\n      add\n      swap1\n      0x20\n      add\n      dup1\n      dup4\n      gt\n      tag_445\n      jumpi\n      dup3\n      swap1\n      sub\n      0x1f\n      and\n      dup3\n      add\n      swap2\n    tag_443:\n      pop\n      pop\n      pop\n      pop\n      pop\n      dup2\n      mstore\n      0x20\n      add\n        /* \"contracts/Blockchain_task.sol\":9537:9546  campaigns */\n      0x04\n        /* \"contracts/Blockchain_task.sol\":9537:9549  campaigns[i] */\n      0x00\n        /* \"contracts/Blockchain_task.sol\":9547:9548  i */\n      dup5\n        /* \"contracts/Blockchain_task.sol\":9537:9549  campaigns[i] */\n      dup2\n      mstore\n      0x20\n      add\n      swap1\n      dup2\n      mstore\n      0x20\n      add\n      0x00\n      keccak256\n        /* \"contracts/Blockchain_task.sol\":9537:9560  campaigns[i].sharePrice */\n      0x03\n      add\n      sload\n        /* \"contracts/Blockchain_task.sol\":9371:9793  CampaignInfo(... */\n      dup2\n      mstore\n      0x20\n      add\n        /* \"contracts/Blockchain_task.sol\":9609:9618  campaigns */\n      0x04\n        /* \"contracts/Blockchain_task.sol\":9609:9621  campaigns[i] */\n      0x00\n        /* \"contracts/Blockchain_task.sol\":9619:9620  i */\n      dup5\n        /* \"contracts/Blockchain_task.sol\":9609:9621  campaigns[i] */\n      dup2\n      mstore\n      0x20\n      add\n      swap1\n      dup2\n      mstore\n      0x20\n      add\n      0x00\n      keccak256\n        /* \"contracts/Blockchain_task.sol\":9609:9635  campaigns[i].currentShares */\n      0x05\n      add\n      sload\n        /* \"contracts/Blockchain_task.sol\":9582:9591  campaigns */\n      0x04\n        /* \"contracts/Blockchain_task.sol\":9582:9594  campaigns[i] */\n      0x00\n        /* \"contracts/Blockchain_task.sol\":9592:9593  i */\n      dup6\n        /* \"contracts/Blockchain_task.sol\":9582:9594  campaigns[i] */\n      dup2\n      mstore\n      0x20\n      add\n      swap1\n      dup2\n      mstore\n      0x20\n      add\n      0x00\n      keccak256\n        /* \"contracts/Blockchain_task.sol\":9582:9606  campaigns[i].totalShares */\n      0x04\n      add\n      sload\n        /* \"contracts/Blockchain_task.sol\":9582:9635  campaigns[i].totalShares - campaigns[i].currentShares */\n      tag_446\n      swap2\n      swap1\n      tag_275\n      jump\t// in\n    tag_446:\n        /* \"contracts/Blockchain_task.sol\":9371:9793  CampaignInfo(... */\n      dup2\n      mstore\n      0x20\n      add\n        /* \"contracts/Blockchain_task.sol\":9657:9666  campaigns */\n      0x04\n        /* \"contracts/Blockchain_task.sol\":9657:9669  campaigns[i] */\n      0x00\n        /* \"contracts/Blockchain_task.sol\":9667:9668  i */\n      dup5\n        /* \"contracts/Blockchain_task.sol\":9657:9669  campaigns[i] */\n      dup2\n      mstore\n      0x20\n      add\n      swap1\n      dup2\n      mstore\n      0x20\n      add\n      0x00\n      keccak256\n        /* \"contracts/Blockchain_task.sol\":9657:9683  campaigns[i].currentShares */\n      0x05\n      add\n      sload\n        /* \"contracts/Blockchain_task.sol\":9371:9793  CampaignInfo(... */\n      dup2\n      mstore\n      0x20\n      add\n        /* \"contracts/Blockchain_task.sol\":9705:9714  campaigns */\n      0x04\n        /* \"contracts/Blockchain_task.sol\":9705:9717  campaigns[i] */\n      0x00\n        /* \"contracts/Blockchain_task.sol\":9715:9716  i */\n      dup5\n        /* \"contracts/Blockchain_task.sol\":9705:9717  campaigns[i] */\n      dup2\n      mstore\n      0x20\n      add\n      swap1\n      dup2\n      mstore\n      0x20\n      add\n      0x00\n      keccak256\n        /* \"contracts/Blockchain_task.sol\":9705:9729  campaigns[i].isCompleted */\n      0x06\n      add\n      0x02\n      swap1\n      sload\n      swap1\n      0x0100\n      exp\n      swap1\n      div\n      0xff\n      and\n        /* \"contracts/Blockchain_task.sol\":9371:9793  CampaignInfo(... */\n      iszero\n      iszero\n      dup2\n      mstore\n      0x20\n      add\n        /* \"contracts/Blockchain_task.sol\":9751:9760  campaigns */\n      0x04\n        /* \"contracts/Blockchain_task.sol\":9751:9763  campaigns[i] */\n      0x00\n        /* \"contracts/Blockchain_task.sol\":9761:9762  i */\n      dup5\n        /* \"contracts/Blockchain_task.sol\":9751:9763  campaigns[i] */\n      dup2\n      mstore\n      0x20\n      add\n      swap1\n      dup2\n      mstore\n      0x20\n      add\n      0x00\n      keccak256\n        /* \"contracts/Blockchain_task.sol\":9751:9775  campaigns[i].isCancelled */\n      0x06\n      add\n      0x01\n      swap1\n      sload\n      swap1\n      0x0100\n      exp\n      swap1\n      div\n      0xff\n      and\n        /* \"contracts/Blockchain_task.sol\":9371:9793  CampaignInfo(... */\n      iszero\n      iszero\n      dup2\n      mstore\n      pop\n        /* \"contracts/Blockchain_task.sol\":9346:9361  activeCampaigns */\n      dup4\n        /* \"contracts/Blockchain_task.sol\":9362:9367  index */\n      dup4\n        /* \"contracts/Blockchain_task.sol\":9346:9368  activeCampaigns[index] */\n      dup2\n      mload\n      dup2\n      lt\n      tag_447\n      jumpi\n      tag_448\n      tag_152\n      jump\t// in\n    tag_448:\n    tag_447:\n      0x20\n      mul\n      0x20\n      add\n      add\n        /* \"contracts/Blockchain_task.sol\":9346:9793  activeCampaigns[index] = CampaignInfo(... */\n      dup2\n      swap1\n      mstore\n      pop\n        /* \"contracts/Blockchain_task.sol\":9811:9818  index++ */\n      dup2\n      dup1\n      tag_449\n      swap1\n      tag_207\n      jump\t// in\n    tag_449:\n      swap3\n      pop\n      pop\n        /* \"contracts/Blockchain_task.sol\":9268:9833  if (!campaigns[i].isCompleted && !campaigns[i].isCancelled) {... */\n    tag_440:\n        /* \"contracts/Blockchain_task.sol\":9249:9252  i++ */\n      dup1\n      dup1\n      0x01\n      add\n      swap2\n      pop\n      pop\n        /* \"contracts/Blockchain_task.sol\":9208:9843  for (uint256 i = 0; i < campaignCounter; i++) {... */\n      jump(tag_436)\n    tag_437:\n      pop\n        /* \"contracts/Blockchain_task.sol\":9860:9875  activeCampaigns */\n      dup2\n        /* \"contracts/Blockchain_task.sol\":9853:9875  return activeCampaigns */\n      swap4\n      pop\n      pop\n      pop\n      pop\n        /* \"contracts/Blockchain_task.sol\":8611:9882  function getActiveCampaigns()... */\n      swap1\n      jump\t// out\n        /* \"contracts/Blockchain_task.sol\":1247:1279  address[] public bannedAddresses */\n    tag_127:\n      0x07\n      dup2\n      dup2\n      sload\n      dup2\n      lt\n      tag_450\n      jumpi\n      0x00\n      dup1\n      revert\n    tag_450:\n      swap1\n      0x00\n      mstore\n      keccak256(0x00, 0x20)\n      add\n      0x00\n      swap2\n      pop\n      sload\n      swap1\n      0x0100\n      exp\n      swap1\n      div\n      0xffffffffffffffffffffffffffffffffffffffff\n      and\n      dup2\n      jump\t// out\n        /* \"contracts/Blockchain_task.sol\":6390:6948  function refundInvestor(address investor) notBanned public {... */\n    tag_132:\n        /* \"contracts/Blockchain_task.sol\":2481:2491  bannedList */\n      0x06\n        /* \"contracts/Blockchain_task.sol\":2481:2503  bannedList[msg.sender] */\n      0x00\n        /* \"contracts/Blockchain_task.sol\":2492:2502  msg.sender */\n      caller\n        /* \"contracts/Blockchain_task.sol\":2481:2503  bannedList[msg.sender] */\n      0xffffffffffffffffffffffffffffffffffffffff\n      and\n      0xffffffffffffffffffffffffffffffffffffffff\n      and\n      dup2\n      mstore\n      0x20\n      add\n      swap1\n      dup2\n      mstore\n      0x20\n      add\n      0x00\n      keccak256\n      0x00\n      swap1\n      sload\n      swap1\n      0x0100\n      exp\n      swap1\n      div\n      0xff\n      and\n        /* \"contracts/Blockchain_task.sol\":2480:2503  !bannedList[msg.sender] */\n      iszero\n        /* \"contracts/Blockchain_task.sol\":2472:2525  require(!bannedList[msg.sender], \"Address is banned\") */\n      tag_453\n      jumpi\n      mload(0x40)\n      0x08c379a000000000000000000000000000000000000000000000000000000000\n      dup2\n      mstore\n      0x04\n      add\n      tag_454\n      swap1\n      tag_171\n      jump\t// in\n    tag_454:\n      mload(0x40)\n      dup1\n      swap2\n      sub\n      swap1\n      revert\n    tag_453:\n        /* \"contracts/Blockchain_task.sol\":6524:6544  uint256 refundAmount */\n      0x00\n        /* \"contracts/Blockchain_task.sol\":6547:6554  refunds */\n      0x08\n        /* \"contracts/Blockchain_task.sol\":6547:6564  refunds[investor] */\n      0x00\n        /* \"contracts/Blockchain_task.sol\":6555:6563  investor */\n      dup4\n        /* \"contracts/Blockchain_task.sol\":6547:6564  refunds[investor] */\n      0xffffffffffffffffffffffffffffffffffffffff\n      and\n      0xffffffffffffffffffffffffffffffffffffffff\n      and\n      dup2\n      mstore\n      0x20\n      add\n      swap1\n      dup2\n      mstore\n      0x20\n      add\n      0x00\n      keccak256\n      sload\n        /* \"contracts/Blockchain_task.sol\":6524:6564  uint256 refundAmount = refunds[investor] */\n      swap1\n      pop\n        /* \"contracts/Blockchain_task.sol\":6597:6598  0 */\n      0x00\n        /* \"contracts/Blockchain_task.sol\":6582:6594  refundAmount */\n      dup2\n        /* \"contracts/Blockchain_task.sol\":6582:6598  refundAmount > 0 */\n      gt\n        /* \"contracts/Blockchain_task.sol\":6574:6640  require(refundAmount > 0, \"No refund available for this investor\") */\n      tag_456\n      jumpi\n      mload(0x40)\n      0x08c379a000000000000000000000000000000000000000000000000000000000\n      dup2\n      mstore\n      0x04\n      add\n      tag_457\n      swap1\n      tag_458\n      jump\t// in\n    tag_457:\n      mload(0x40)\n      dup1\n      swap2\n      sub\n      swap1\n      revert\n    tag_456:\n        /* \"contracts/Blockchain_task.sol\":6723:6724  0 */\n      0x00\n        /* \"contracts/Blockchain_task.sol\":6703:6710  refunds */\n      0x08\n        /* \"contracts/Blockchain_task.sol\":6703:6720  refunds[investor] */\n      0x00\n        /* \"contracts/Blockchain_task.sol\":6711:6719  investor */\n      dup5\n        /* \"contracts/Blockchain_task.sol\":6703:6720  refunds[investor] */\n      0xffffffffffffffffffffffffffffffffffffffff\n      and\n      0xffffffffffffffffffffffffffffffffffffffff\n      and\n      dup2\n      mstore\n      0x20\n      add\n      swap1\n      dup2\n      mstore\n      0x20\n      add\n      0x00\n      keccak256\n        /* \"contracts/Blockchain_task.sol\":6703:6724  refunds[investor] = 0 */\n      dup2\n      swap1\n      sstore\n      pop\n        /* \"contracts/Blockchain_task.sol\":6807:6815  investor */\n      dup2\n        /* \"contracts/Blockchain_task.sol\":6799:6825  payable(investor).transfer */\n      0xffffffffffffffffffffffffffffffffffffffff\n      and\n        /* \"contracts/Blockchain_task.sol\":6799:6839  payable(investor).transfer(refundAmount) */\n      0x08fc\n        /* \"contracts/Blockchain_task.sol\":6826:6838  refundAmount */\n      dup3\n        /* \"contracts/Blockchain_task.sol\":6799:6839  payable(investor).transfer(refundAmount) */\n      swap1\n      dup2\n      iszero\n      mul\n      swap1\n      mload(0x40)\n      0x00\n      mload(0x40)\n      dup1\n      dup4\n      sub\n      dup2\n      dup6\n      dup9\n      dup9\n      call\n      swap4\n      pop\n      pop\n      pop\n      pop\n      iszero\n      dup1\n      iszero\n      tag_460\n      jumpi\n      returndatasize\n      0x00\n      dup1\n      returndatacopy\n      revert(0x00, returndatasize)\n    tag_460:\n      pop\n        /* \"contracts/Blockchain_task.sol\":6901:6941  InvestorRefunded(investor, refundAmount) */\n      0x08d40e9c27d77b658952cbaacaa582b75d323ce97d3904729b9674ddf5d5f13e\n        /* \"contracts/Blockchain_task.sol\":6918:6926  investor */\n      dup3\n        /* \"contracts/Blockchain_task.sol\":6928:6940  refundAmount */\n      dup3\n        /* \"contracts/Blockchain_task.sol\":6901:6941  InvestorRefunded(investor, refundAmount) */\n      mload(0x40)\n      tag_461\n      swap3\n      swap2\n      swap1\n      tag_314\n      jump\t// in\n    tag_461:\n      mload(0x40)\n      dup1\n      swap2\n      sub\n      swap1\n      log1\n        /* \"contracts/Blockchain_task.sol\":6449:6948  {... */\n      pop\n        /* \"contracts/Blockchain_task.sol\":6390:6948  function refundInvestor(address investor) notBanned public {... */\n      pop\n      jump\t// out\n    tag_263:\n      mload(0x40)\n      dup1\n      0x0100\n      add\n      0x40\n      mstore\n      dup1\n      0x00\n      dup2\n      mstore\n      0x20\n      add\n      and(0xffffffffffffffffffffffffffffffffffffffff, 0x00)\n      dup2\n      mstore\n      0x20\n      add\n      0x60\n      dup2\n      mstore\n      0x20\n      add\n      0x00\n      dup2\n      mstore\n      0x20\n      add\n      0x00\n      dup2\n      mstore\n      0x20\n      add\n      0x00\n      dup2\n      mstore\n      0x20\n      add\n      iszero(iszero(0x00))\n      dup2\n      mstore\n      0x20\n      add\n      iszero(iszero(0x00))\n      dup2\n      mstore\n      pop\n      swap1\n      jump\t// out\n        /* \"#utility.yul\":7:82   */\n    tag_462:\n        /* \"#utility.yul\":40:46   */\n      0x00\n        /* \"#utility.yul\":73:75   */\n      0x40\n        /* \"#utility.yul\":67:76   */\n      mload\n        /* \"#utility.yul\":57:76   */\n      swap1\n      pop\n        /* \"#utility.yul\":7:82   */\n      swap1\n      jump\t// out\n        /* \"#utility.yul\":88:205   */\n    tag_463:\n        /* \"#utility.yul\":197:198   */\n      0x00\n        /* \"#utility.yul\":194:195   */\n      dup1\n        /* \"#utility.yul\":187:199   */\n      revert\n        /* \"#utility.yul\":211:328   */\n    tag_464:\n        /* \"#utility.yul\":320:321   */\n      0x00\n        /* \"#utility.yul\":317:318   */\n      dup1\n        /* \"#utility.yul\":310:322   */\n      revert\n        /* \"#utility.yul\":334:411   */\n    tag_465:\n        /* \"#utility.yul\":371:378   */\n      0x00\n        /* \"#utility.yul\":400:405   */\n      dup2\n        /* \"#utility.yul\":389:405   */\n      swap1\n      pop\n        /* \"#utility.yul\":334:411   */\n      swap2\n      swap1\n      pop\n      jump\t// out\n        /* \"#utility.yul\":417:539   */\n    tag_466:\n        /* \"#utility.yul\":490:514   */\n      tag_572\n        /* \"#utility.yul\":508:513   */\n      dup2\n        /* \"#utility.yul\":490:514   */\n      tag_465\n      jump\t// in\n    tag_572:\n        /* \"#utility.yul\":483:488   */\n      dup2\n        /* \"#utility.yul\":480:515   */\n      eq\n        /* \"#utility.yul\":470:533   */\n      tag_573\n      jumpi\n        /* \"#utility.yul\":529:530   */\n      0x00\n        /* \"#utility.yul\":526:527   */\n      dup1\n        /* \"#utility.yul\":519:531   */\n      revert\n        /* \"#utility.yul\":470:533   */\n    tag_573:\n        /* \"#utility.yul\":417:539   */\n      pop\n      jump\t// out\n        /* \"#utility.yul\":545:684   */\n    tag_467:\n        /* \"#utility.yul\":591:596   */\n      0x00\n        /* \"#utility.yul\":629:635   */\n      dup2\n        /* \"#utility.yul\":616:636   */\n      calldataload\n        /* \"#utility.yul\":607:636   */\n      swap1\n      pop\n        /* \"#utility.yul\":645:678   */\n      tag_575\n        /* \"#utility.yul\":672:677   */\n      dup2\n        /* \"#utility.yul\":645:678   */\n      tag_466\n      jump\t// in\n    tag_575:\n        /* \"#utility.yul\":545:684   */\n      swap3\n      swap2\n      pop\n      pop\n      jump\t// out\n        /* \"#utility.yul\":690:1019   */\n    tag_34:\n        /* \"#utility.yul\":749:755   */\n      0x00\n        /* \"#utility.yul\":798:800   */\n      0x20\n        /* \"#utility.yul\":786:795   */\n      dup3\n        /* \"#utility.yul\":777:784   */\n      dup5\n        /* \"#utility.yul\":773:796   */\n      sub\n        /* \"#utility.yul\":769:801   */\n      slt\n        /* \"#utility.yul\":766:885   */\n      iszero\n      tag_577\n      jumpi\n        /* \"#utility.yul\":804:883   */\n      tag_578\n      tag_463\n      jump\t// in\n    tag_578:\n        /* \"#utility.yul\":766:885   */\n    tag_577:\n        /* \"#utility.yul\":924:925   */\n      0x00\n        /* \"#utility.yul\":949:1002   */\n      tag_579\n        /* \"#utility.yul\":994:1001   */\n      dup5\n        /* \"#utility.yul\":985:991   */\n      dup3\n        /* \"#utility.yul\":974:983   */\n      dup6\n        /* \"#utility.yul\":970:992   */\n      add\n        /* \"#utility.yul\":949:1002   */\n      tag_467\n      jump\t// in\n    tag_579:\n        /* \"#utility.yul\":939:1002   */\n      swap2\n      pop\n        /* \"#utility.yul\":895:1012   */\n      pop\n        /* \"#utility.yul\":690:1019   */\n      swap3\n      swap2\n      pop\n      pop\n      jump\t// out\n        /* \"#utility.yul\":1025:1143   */\n    tag_468:\n        /* \"#utility.yul\":1112:1136   */\n      tag_581\n        /* \"#utility.yul\":1130:1135   */\n      dup2\n        /* \"#utility.yul\":1112:1136   */\n      tag_465\n      jump\t// in\n    tag_581:\n        /* \"#utility.yul\":1107:1110   */\n      dup3\n        /* \"#utility.yul\":1100:1137   */\n      mstore\n        /* \"#utility.yul\":1025:1143   */\n      pop\n      pop\n      jump\t// out\n        /* \"#utility.yul\":1149:1275   */\n    tag_469:\n        /* \"#utility.yul\":1186:1193   */\n      0x00\n        /* \"#utility.yul\":1226:1268   */\n      0xffffffffffffffffffffffffffffffffffffffff\n        /* \"#utility.yul\":1219:1224   */\n      dup3\n        /* \"#utility.yul\":1215:1269   */\n      and\n        /* \"#utility.yul\":1204:1269   */\n      swap1\n      pop\n        /* \"#utility.yul\":1149:1275   */\n      swap2\n      swap1\n      pop\n      jump\t// out\n        /* \"#utility.yul\":1281:1377   */\n    tag_470:\n        /* \"#utility.yul\":1318:1325   */\n      0x00\n        /* \"#utility.yul\":1347:1371   */\n      tag_584\n        /* \"#utility.yul\":1365:1370   */\n      dup3\n        /* \"#utility.yul\":1347:1371   */\n      tag_469\n      jump\t// in\n    tag_584:\n        /* \"#utility.yul\":1336:1371   */\n      swap1\n      pop\n        /* \"#utility.yul\":1281:1377   */\n      swap2\n      swap1\n      pop\n      jump\t// out\n        /* \"#utility.yul\":1383:1501   */\n    tag_471:\n        /* \"#utility.yul\":1470:1494   */\n      tag_586\n        /* \"#utility.yul\":1488:1493   */\n      dup2\n        /* \"#utility.yul\":1470:1494   */\n      tag_470\n      jump\t// in\n    tag_586:\n        /* \"#utility.yul\":1465:1468   */\n      dup3\n        /* \"#utility.yul\":1458:1495   */\n      mstore\n        /* \"#utility.yul\":1383:1501   */\n      pop\n      pop\n      jump\t// out\n        /* \"#utility.yul\":1507:1606   */\n    tag_472:\n        /* \"#utility.yul\":1559:1565   */\n      0x00\n        /* \"#utility.yul\":1593:1598   */\n      dup2\n        /* \"#utility.yul\":1587:1599   */\n      mload\n        /* \"#utility.yul\":1577:1599   */\n      swap1\n      pop\n        /* \"#utility.yul\":1507:1606   */\n      swap2\n      swap1\n      pop\n      jump\t// out\n        /* \"#utility.yul\":1612:1781   */\n    tag_473:\n        /* \"#utility.yul\":1696:1707   */\n      0x00\n        /* \"#utility.yul\":1730:1736   */\n      dup3\n        /* \"#utility.yul\":1725:1728   */\n      dup3\n        /* \"#utility.yul\":1718:1737   */\n      mstore\n        /* \"#utility.yul\":1770:1774   */\n      0x20\n        /* \"#utility.yul\":1765:1768   */\n      dup3\n        /* \"#utility.yul\":1761:1775   */\n      add\n        /* \"#utility.yul\":1746:1775   */\n      swap1\n      pop\n        /* \"#utility.yul\":1612:1781   */\n      swap3\n      swap2\n      pop\n      pop\n      jump\t// out\n        /* \"#utility.yul\":1787:2035   */\n    tag_474:\n        /* \"#utility.yul\":1869:1870   */\n      0x00\n        /* \"#utility.yul\":1879:1992   */\n    tag_590:\n        /* \"#utility.yul\":1893:1899   */\n      dup4\n        /* \"#utility.yul\":1890:1891   */\n      dup2\n        /* \"#utility.yul\":1887:1900   */\n      lt\n        /* \"#utility.yul\":1879:1992   */\n      iszero\n      tag_592\n      jumpi\n        /* \"#utility.yul\":1978:1979   */\n      dup1\n        /* \"#utility.yul\":1973:1976   */\n      dup3\n        /* \"#utility.yul\":1969:1980   */\n      add\n        /* \"#utility.yul\":1963:1981   */\n      mload\n        /* \"#utility.yul\":1959:1960   */\n      dup2\n        /* \"#utility.yul\":1954:1957   */\n      dup5\n        /* \"#utility.yul\":1950:1961   */\n      add\n        /* \"#utility.yul\":1943:1982   */\n      mstore\n        /* \"#utility.yul\":1915:1917   */\n      0x20\n        /* \"#utility.yul\":1912:1913   */\n      dup2\n        /* \"#utility.yul\":1908:1918   */\n      add\n        /* \"#utility.yul\":1903:1918   */\n      swap1\n      pop\n        /* \"#utility.yul\":1879:1992   */\n      jump(tag_590)\n    tag_592:\n        /* \"#utility.yul\":2026:2027   */\n      0x00\n        /* \"#utility.yul\":2017:2023   */\n      dup5\n        /* \"#utility.yul\":2012:2015   */\n      dup5\n        /* \"#utility.yul\":2008:2024   */\n      add\n        /* \"#utility.yul\":2001:2028   */\n      mstore\n        /* \"#utility.yul\":1849:2035   */\n      pop\n        /* \"#utility.yul\":1787:2035   */\n      pop\n      pop\n      pop\n      jump\t// out\n        /* \"#utility.yul\":2041:2143   */\n    tag_475:\n        /* \"#utility.yul\":2082:2088   */\n      0x00\n        /* \"#utility.yul\":2133:2135   */\n      0x1f\n        /* \"#utility.yul\":2129:2136   */\n      not\n        /* \"#utility.yul\":2124:2126   */\n      0x1f\n        /* \"#utility.yul\":2117:2122   */\n      dup4\n        /* \"#utility.yul\":2113:2127   */\n      add\n        /* \"#utility.yul\":2109:2137   */\n      and\n        /* \"#utility.yul\":2099:2137   */\n      swap1\n      pop\n        /* \"#utility.yul\":2041:2143   */\n      swap2\n      swap1\n      pop\n      jump\t// out\n        /* \"#utility.yul\":2149:2526   */\n    tag_476:\n        /* \"#utility.yul\":2237:2240   */\n      0x00\n        /* \"#utility.yul\":2265:2304   */\n      tag_595\n        /* \"#utility.yul\":2298:2303   */\n      dup3\n        /* \"#utility.yul\":2265:2304   */\n      tag_472\n      jump\t// in\n    tag_595:\n        /* \"#utility.yul\":2320:2391   */\n      tag_596\n        /* \"#utility.yul\":2384:2390   */\n      dup2\n        /* \"#utility.yul\":2379:2382   */\n      dup6\n        /* \"#utility.yul\":2320:2391   */\n      tag_473\n      jump\t// in\n    tag_596:\n        /* \"#utility.yul\":2313:2391   */\n      swap4\n      pop\n        /* \"#utility.yul\":2400:2465   */\n      tag_597\n        /* \"#utility.yul\":2458:2464   */\n      dup2\n        /* \"#utility.yul\":2453:2456   */\n      dup6\n        /* \"#utility.yul\":2446:2450   */\n      0x20\n        /* \"#utility.yul\":2439:2444   */\n      dup7\n        /* \"#utility.yul\":2435:2451   */\n      add\n        /* \"#utility.yul\":2400:2465   */\n      tag_474\n      jump\t// in\n    tag_597:\n        /* \"#utility.yul\":2490:2519   */\n      tag_598\n        /* \"#utility.yul\":2512:2518   */\n      dup2\n        /* \"#utility.yul\":2490:2519   */\n      tag_475\n      jump\t// in\n    tag_598:\n        /* \"#utility.yul\":2485:2488   */\n      dup5\n        /* \"#utility.yul\":2481:2520   */\n      add\n        /* \"#utility.yul\":2474:2520   */\n      swap2\n      pop\n        /* \"#utility.yul\":2241:2526   */\n      pop\n        /* \"#utility.yul\":2149:2526   */\n      swap3\n      swap2\n      pop\n      pop\n      jump\t// out\n        /* \"#utility.yul\":2532:2622   */\n    tag_477:\n        /* \"#utility.yul\":2566:2573   */\n      0x00\n        /* \"#utility.yul\":2609:2614   */\n      dup2\n        /* \"#utility.yul\":2602:2615   */\n      iszero\n        /* \"#utility.yul\":2595:2616   */\n      iszero\n        /* \"#utility.yul\":2584:2616   */\n      swap1\n      pop\n        /* \"#utility.yul\":2532:2622   */\n      swap2\n      swap1\n      pop\n      jump\t// out\n        /* \"#utility.yul\":2628:2737   */\n    tag_478:\n        /* \"#utility.yul\":2709:2730   */\n      tag_601\n        /* \"#utility.yul\":2724:2729   */\n      dup2\n        /* \"#utility.yul\":2709:2730   */\n      tag_477\n      jump\t// in\n    tag_601:\n        /* \"#utility.yul\":2704:2707   */\n      dup3\n        /* \"#utility.yul\":2697:2731   */\n      mstore\n        /* \"#utility.yul\":2628:2737   */\n      pop\n      pop\n      jump\t// out\n        /* \"#utility.yul\":2743:3906   */\n    tag_37:\n        /* \"#utility.yul\":3062:3066   */\n      0x00\n        /* \"#utility.yul\":3100:3103   */\n      0x0120\n        /* \"#utility.yul\":3089:3098   */\n      dup3\n        /* \"#utility.yul\":3085:3104   */\n      add\n        /* \"#utility.yul\":3077:3104   */\n      swap1\n      pop\n        /* \"#utility.yul\":3114:3185   */\n      tag_603\n        /* \"#utility.yul\":3182:3183   */\n      0x00\n        /* \"#utility.yul\":3171:3180   */\n      dup4\n        /* \"#utility.yul\":3167:3184   */\n      add\n        /* \"#utility.yul\":3158:3164   */\n      dup13\n        /* \"#utility.yul\":3114:3185   */\n      tag_468\n      jump\t// in\n    tag_603:\n        /* \"#utility.yul\":3195:3267   */\n      tag_604\n        /* \"#utility.yul\":3263:3265   */\n      0x20\n        /* \"#utility.yul\":3252:3261   */\n      dup4\n        /* \"#utility.yul\":3248:3266   */\n      add\n        /* \"#utility.yul\":3239:3245   */\n      dup12\n        /* \"#utility.yul\":3195:3267   */\n      tag_471\n      jump\t// in\n    tag_604:\n        /* \"#utility.yul\":3314:3323   */\n      dup2\n        /* \"#utility.yul\":3308:3312   */\n      dup2\n        /* \"#utility.yul\":3304:3324   */\n      sub\n        /* \"#utility.yul\":3299:3301   */\n      0x40\n        /* \"#utility.yul\":3288:3297   */\n      dup4\n        /* \"#utility.yul\":3284:3302   */\n      add\n        /* \"#utility.yul\":3277:3325   */\n      mstore\n        /* \"#utility.yul\":3342:3420   */\n      tag_605\n        /* \"#utility.yul\":3415:3419   */\n      dup2\n        /* \"#utility.yul\":3406:3412   */\n      dup11\n        /* \"#utility.yul\":3342:3420   */\n      tag_476\n      jump\t// in\n    tag_605:\n        /* \"#utility.yul\":3334:3420   */\n      swap1\n      pop\n        /* \"#utility.yul\":3430:3502   */\n      tag_606\n        /* \"#utility.yul\":3498:3500   */\n      0x60\n        /* \"#utility.yul\":3487:3496   */\n      dup4\n        /* \"#utility.yul\":3483:3501   */\n      add\n        /* \"#utility.yul\":3474:3480   */\n      dup10\n        /* \"#utility.yul\":3430:3502   */\n      tag_468\n      jump\t// in\n    tag_606:\n        /* \"#utility.yul\":3512:3585   */\n      tag_607\n        /* \"#utility.yul\":3580:3583   */\n      0x80\n        /* \"#utility.yul\":3569:3578   */\n      dup4\n        /* \"#utility.yul\":3565:3584   */\n      add\n        /* \"#utility.yul\":3556:3562   */\n      dup9\n        /* \"#utility.yul\":3512:3585   */\n      tag_468\n      jump\t// in\n    tag_607:\n        /* \"#utility.yul\":3595:3668   */\n      tag_608\n        /* \"#utility.yul\":3663:3666   */\n      0xa0\n        /* \"#utility.yul\":3652:3661   */\n      dup4\n        /* \"#utility.yul\":3648:3667   */\n      add\n        /* \"#utility.yul\":3639:3645   */\n      dup8\n        /* \"#utility.yul\":3595:3668   */\n      tag_468\n      jump\t// in\n    tag_608:\n        /* \"#utility.yul\":3678:3745   */\n      tag_609\n        /* \"#utility.yul\":3740:3743   */\n      0xc0\n        /* \"#utility.yul\":3729:3738   */\n      dup4\n        /* \"#utility.yul\":3725:3744   */\n      add\n        /* \"#utility.yul\":3716:3722   */\n      dup7\n        /* \"#utility.yul\":3678:3745   */\n      tag_478\n      jump\t// in\n    tag_609:\n        /* \"#utility.yul\":3755:3822   */\n      tag_610\n        /* \"#utility.yul\":3817:3820   */\n      0xe0\n        /* \"#utility.yul\":3806:3815   */\n      dup4\n        /* \"#utility.yul\":3802:3821   */\n      add\n        /* \"#utility.yul\":3793:3799   */\n      dup6\n        /* \"#utility.yul\":3755:3822   */\n      tag_478\n      jump\t// in\n    tag_610:\n        /* \"#utility.yul\":3832:3899   */\n      tag_611\n        /* \"#utility.yul\":3894:3897   */\n      0x0100\n        /* \"#utility.yul\":3883:3892   */\n      dup4\n        /* \"#utility.yul\":3879:3898   */\n      add\n        /* \"#utility.yul\":3870:3876   */\n      dup5\n        /* \"#utility.yul\":3832:3899   */\n      tag_478\n      jump\t// in\n    tag_611:\n        /* \"#utility.yul\":2743:3906   */\n      swap11\n      swap10\n      pop\n      pop\n      pop\n      pop\n      pop\n      pop\n      pop\n      pop\n      pop\n      pop\n      jump\t// out\n        /* \"#utility.yul\":3912:4386   */\n    tag_40:\n        /* \"#utility.yul\":3980:3986   */\n      0x00\n        /* \"#utility.yul\":3988:3994   */\n      dup1\n        /* \"#utility.yul\":4037:4039   */\n      0x40\n        /* \"#utility.yul\":4025:4034   */\n      dup4\n        /* \"#utility.yul\":4016:4023   */\n      dup6\n        /* \"#utility.yul\":4012:4035   */\n      sub\n        /* \"#utility.yul\":4008:4040   */\n      slt\n        /* \"#utility.yul\":4005:4124   */\n      iszero\n      tag_613\n      jumpi\n        /* \"#utility.yul\":4043:4122   */\n      tag_614\n      tag_463\n      jump\t// in\n    tag_614:\n        /* \"#utility.yul\":4005:4124   */\n    tag_613:\n        /* \"#utility.yul\":4163:4164   */\n      0x00\n        /* \"#utility.yul\":4188:4241   */\n      tag_615\n        /* \"#utility.yul\":4233:4240   */\n      dup6\n        /* \"#utility.yul\":4224:4230   */\n      dup3\n        /* \"#utility.yul\":4213:4222   */\n      dup7\n        /* \"#utility.yul\":4209:4231   */\n      add\n        /* \"#utility.yul\":4188:4241   */\n      tag_467\n      jump\t// in\n    tag_615:\n        /* \"#utility.yul\":4178:4241   */\n      swap3\n      pop\n        /* \"#utility.yul\":4134:4251   */\n      pop\n        /* \"#utility.yul\":4290:4292   */\n      0x20\n        /* \"#utility.yul\":4316:4369   */\n      tag_616\n        /* \"#utility.yul\":4361:4368   */\n      dup6\n        /* \"#utility.yul\":4352:4358   */\n      dup3\n        /* \"#utility.yul\":4341:4350   */\n      dup7\n        /* \"#utility.yul\":4337:4359   */\n      add\n        /* \"#utility.yul\":4316:4369   */\n      tag_467\n      jump\t// in\n    tag_616:\n        /* \"#utility.yul\":4306:4369   */\n      swap2\n      pop\n        /* \"#utility.yul\":4261:4379   */\n      pop\n        /* \"#utility.yul\":3912:4386   */\n      swap3\n      pop\n      swap3\n      swap1\n      pop\n      jump\t// out\n        /* \"#utility.yul\":4392:4514   */\n    tag_479:\n        /* \"#utility.yul\":4465:4489   */\n      tag_618\n        /* \"#utility.yul\":4483:4488   */\n      dup2\n        /* \"#utility.yul\":4465:4489   */\n      tag_470\n      jump\t// in\n    tag_618:\n        /* \"#utility.yul\":4458:4463   */\n      dup2\n        /* \"#utility.yul\":4455:4490   */\n      eq\n        /* \"#utility.yul\":4445:4508   */\n      tag_619\n      jumpi\n        /* \"#utility.yul\":4504:4505   */\n      0x00\n        /* \"#utility.yul\":4501:4502   */\n      dup1\n        /* \"#utility.yul\":4494:4506   */\n      revert\n        /* \"#utility.yul\":4445:4508   */\n    tag_619:\n        /* \"#utility.yul\":4392:4514   */\n      pop\n      jump\t// out\n        /* \"#utility.yul\":4520:4659   */\n    tag_480:\n        /* \"#utility.yul\":4566:4571   */\n      0x00\n        /* \"#utility.yul\":4604:4610   */\n      dup2\n        /* \"#utility.yul\":4591:4611   */\n      calldataload\n        /* \"#utility.yul\":4582:4611   */\n      swap1\n      pop\n        /* \"#utility.yul\":4620:4653   */\n      tag_621\n        /* \"#utility.yul\":4647:4652   */\n      dup2\n        /* \"#utility.yul\":4620:4653   */\n      tag_479\n      jump\t// in\n    tag_621:\n        /* \"#utility.yul\":4520:4659   */\n      swap3\n      swap2\n      pop\n      pop\n      jump\t// out\n        /* \"#utility.yul\":4665:4994   */\n    tag_45:\n        /* \"#utility.yul\":4724:4730   */\n      0x00\n        /* \"#utility.yul\":4773:4775   */\n      0x20\n        /* \"#utility.yul\":4761:4770   */\n      dup3\n        /* \"#utility.yul\":4752:4759   */\n      dup5\n        /* \"#utility.yul\":4748:4771   */\n      sub\n        /* \"#utility.yul\":4744:4776   */\n      slt\n        /* \"#utility.yul\":4741:4860   */\n      iszero\n      tag_623\n      jumpi\n        /* \"#utility.yul\":4779:4858   */\n      tag_624\n      tag_463\n      jump\t// in\n    tag_624:\n        /* \"#utility.yul\":4741:4860   */\n    tag_623:\n        /* \"#utility.yul\":4899:4900   */\n      0x00\n        /* \"#utility.yul\":4924:4977   */\n      tag_625\n        /* \"#utility.yul\":4969:4976   */\n      dup5\n        /* \"#utility.yul\":4960:4966   */\n      dup3\n        /* \"#utility.yul\":4949:4958   */\n      dup6\n        /* \"#utility.yul\":4945:4967   */\n      add\n        /* \"#utility.yul\":4924:4977   */\n      tag_480\n      jump\t// in\n    tag_625:\n        /* \"#utility.yul\":4914:4977   */\n      swap2\n      pop\n        /* \"#utility.yul\":4870:4987   */\n      pop\n        /* \"#utility.yul\":4665:4994   */\n      swap3\n      swap2\n      pop\n      pop\n      jump\t// out\n        /* \"#utility.yul\":5000:5114   */\n    tag_481:\n        /* \"#utility.yul\":5067:5073   */\n      0x00\n        /* \"#utility.yul\":5101:5106   */\n      dup2\n        /* \"#utility.yul\":5095:5107   */\n      mload\n        /* \"#utility.yul\":5085:5107   */\n      swap1\n      pop\n        /* \"#utility.yul\":5000:5114   */\n      swap2\n      swap1\n      pop\n      jump\t// out\n        /* \"#utility.yul\":5120:5304   */\n    tag_482:\n        /* \"#utility.yul\":5219:5230   */\n      0x00\n        /* \"#utility.yul\":5253:5259   */\n      dup3\n        /* \"#utility.yul\":5248:5251   */\n      dup3\n        /* \"#utility.yul\":5241:5260   */\n      mstore\n        /* \"#utility.yul\":5293:5297   */\n      0x20\n        /* \"#utility.yul\":5288:5291   */\n      dup3\n        /* \"#utility.yul\":5284:5298   */\n      add\n        /* \"#utility.yul\":5269:5298   */\n      swap1\n      pop\n        /* \"#utility.yul\":5120:5304   */\n      swap3\n      swap2\n      pop\n      pop\n      jump\t// out\n        /* \"#utility.yul\":5310:5442   */\n    tag_483:\n        /* \"#utility.yul\":5377:5381   */\n      0x00\n        /* \"#utility.yul\":5400:5403   */\n      dup2\n        /* \"#utility.yul\":5392:5403   */\n      swap1\n      pop\n        /* \"#utility.yul\":5430:5434   */\n      0x20\n        /* \"#utility.yul\":5425:5428   */\n      dup3\n        /* \"#utility.yul\":5421:5435   */\n      add\n        /* \"#utility.yul\":5413:5435   */\n      swap1\n      pop\n        /* \"#utility.yul\":5310:5442   */\n      swap2\n      swap1\n      pop\n      jump\t// out\n        /* \"#utility.yul\":5448:5556   */\n    tag_484:\n        /* \"#utility.yul\":5525:5549   */\n      tag_630\n        /* \"#utility.yul\":5543:5548   */\n      dup2\n        /* \"#utility.yul\":5525:5549   */\n      tag_465\n      jump\t// in\n    tag_630:\n        /* \"#utility.yul\":5520:5523   */\n      dup3\n        /* \"#utility.yul\":5513:5550   */\n      mstore\n        /* \"#utility.yul\":5448:5556   */\n      pop\n      pop\n      jump\t// out\n        /* \"#utility.yul\":5562:5741   */\n    tag_485:\n        /* \"#utility.yul\":5631:5641   */\n      0x00\n        /* \"#utility.yul\":5652:5698   */\n      tag_632\n        /* \"#utility.yul\":5694:5697   */\n      dup4\n        /* \"#utility.yul\":5686:5692   */\n      dup4\n        /* \"#utility.yul\":5652:5698   */\n      tag_484\n      jump\t// in\n    tag_632:\n        /* \"#utility.yul\":5730:5734   */\n      0x20\n        /* \"#utility.yul\":5725:5728   */\n      dup4\n        /* \"#utility.yul\":5721:5735   */\n      add\n        /* \"#utility.yul\":5707:5735   */\n      swap1\n      pop\n        /* \"#utility.yul\":5562:5741   */\n      swap3\n      swap2\n      pop\n      pop\n      jump\t// out\n        /* \"#utility.yul\":5747:5860   */\n    tag_486:\n        /* \"#utility.yul\":5817:5821   */\n      0x00\n        /* \"#utility.yul\":5849:5853   */\n      0x20\n        /* \"#utility.yul\":5844:5847   */\n      dup3\n        /* \"#utility.yul\":5840:5854   */\n      add\n        /* \"#utility.yul\":5832:5854   */\n      swap1\n      pop\n        /* \"#utility.yul\":5747:5860   */\n      swap2\n      swap1\n      pop\n      jump\t// out\n        /* \"#utility.yul\":5896:6628   */\n    tag_487:\n        /* \"#utility.yul\":6015:6018   */\n      0x00\n        /* \"#utility.yul\":6044:6098   */\n      tag_635\n        /* \"#utility.yul\":6092:6097   */\n      dup3\n        /* \"#utility.yul\":6044:6098   */\n      tag_481\n      jump\t// in\n    tag_635:\n        /* \"#utility.yul\":6114:6200   */\n      tag_636\n        /* \"#utility.yul\":6193:6199   */\n      dup2\n        /* \"#utility.yul\":6188:6191   */\n      dup6\n        /* \"#utility.yul\":6114:6200   */\n      tag_482\n      jump\t// in\n    tag_636:\n        /* \"#utility.yul\":6107:6200   */\n      swap4\n      pop\n        /* \"#utility.yul\":6224:6280   */\n      tag_637\n        /* \"#utility.yul\":6274:6279   */\n      dup4\n        /* \"#utility.yul\":6224:6280   */\n      tag_483\n      jump\t// in\n    tag_637:\n        /* \"#utility.yul\":6303:6310   */\n      dup1\n        /* \"#utility.yul\":6334:6335   */\n      0x00\n        /* \"#utility.yul\":6319:6603   */\n    tag_638:\n        /* \"#utility.yul\":6344:6350   */\n      dup4\n        /* \"#utility.yul\":6341:6342   */\n      dup2\n        /* \"#utility.yul\":6338:6351   */\n      lt\n        /* \"#utility.yul\":6319:6603   */\n      iszero\n      tag_640\n      jumpi\n        /* \"#utility.yul\":6420:6426   */\n      dup2\n        /* \"#utility.yul\":6414:6427   */\n      mload\n        /* \"#utility.yul\":6447:6510   */\n      tag_641\n        /* \"#utility.yul\":6506:6509   */\n      dup9\n        /* \"#utility.yul\":6491:6504   */\n      dup3\n        /* \"#utility.yul\":6447:6510   */\n      tag_485\n      jump\t// in\n    tag_641:\n        /* \"#utility.yul\":6440:6510   */\n      swap8\n      pop\n        /* \"#utility.yul\":6533:6593   */\n      tag_642\n        /* \"#utility.yul\":6586:6592   */\n      dup4\n        /* \"#utility.yul\":6533:6593   */\n      tag_486\n      jump\t// in\n    tag_642:\n        /* \"#utility.yul\":6523:6593   */\n      swap3\n      pop\n        /* \"#utility.yul\":6379:6603   */\n      pop\n        /* \"#utility.yul\":6366:6367   */\n      0x01\n        /* \"#utility.yul\":6363:6364   */\n      dup2\n        /* \"#utility.yul\":6359:6368   */\n      add\n        /* \"#utility.yul\":6354:6368   */\n      swap1\n      pop\n        /* \"#utility.yul\":6319:6603   */\n      jump(tag_638)\n    tag_640:\n        /* \"#utility.yul\":6323:6337   */\n      pop\n        /* \"#utility.yul\":6619:6622   */\n      dup6\n        /* \"#utility.yul\":6612:6622   */\n      swap4\n      pop\n        /* \"#utility.yul\":6020:6628   */\n      pop\n      pop\n      pop\n        /* \"#utility.yul\":5896:6628   */\n      swap3\n      swap2\n      pop\n      pop\n      jump\t// out\n        /* \"#utility.yul\":6634:7268   */\n    tag_48:\n        /* \"#utility.yul\":6855:6859   */\n      0x00\n        /* \"#utility.yul\":6893:6895   */\n      0x40\n        /* \"#utility.yul\":6882:6891   */\n      dup3\n        /* \"#utility.yul\":6878:6896   */\n      add\n        /* \"#utility.yul\":6870:6896   */\n      swap1\n      pop\n        /* \"#utility.yul\":6942:6951   */\n      dup2\n        /* \"#utility.yul\":6936:6940   */\n      dup2\n        /* \"#utility.yul\":6932:6952   */\n      sub\n        /* \"#utility.yul\":6928:6929   */\n      0x00\n        /* \"#utility.yul\":6917:6926   */\n      dup4\n        /* \"#utility.yul\":6913:6930   */\n      add\n        /* \"#utility.yul\":6906:6953   */\n      mstore\n        /* \"#utility.yul\":6970:7078   */\n      tag_644\n        /* \"#utility.yul\":7073:7077   */\n      dup2\n        /* \"#utility.yul\":7064:7070   */\n      dup6\n        /* \"#utility.yul\":6970:7078   */\n      tag_487\n      jump\t// in\n    tag_644:\n        /* \"#utility.yul\":6962:7078   */\n      swap1\n      pop\n        /* \"#utility.yul\":7125:7134   */\n      dup2\n        /* \"#utility.yul\":7119:7123   */\n      dup2\n        /* \"#utility.yul\":7115:7135   */\n      sub\n        /* \"#utility.yul\":7110:7112   */\n      0x20\n        /* \"#utility.yul\":7099:7108   */\n      dup4\n        /* \"#utility.yul\":7095:7113   */\n      add\n        /* \"#utility.yul\":7088:7136   */\n      mstore\n        /* \"#utility.yul\":7153:7261   */\n      tag_645\n        /* \"#utility.yul\":7256:7260   */\n      dup2\n        /* \"#utility.yul\":7247:7253   */\n      dup5\n        /* \"#utility.yul\":7153:7261   */\n      tag_487\n      jump\t// in\n    tag_645:\n        /* \"#utility.yul\":7145:7261   */\n      swap1\n      pop\n        /* \"#utility.yul\":6634:7268   */\n      swap4\n      swap3\n      pop\n      pop\n      pop\n      jump\t// out\n        /* \"#utility.yul\":7274:7391   */\n    tag_488:\n        /* \"#utility.yul\":7383:7384   */\n      0x00\n        /* \"#utility.yul\":7380:7381   */\n      dup1\n        /* \"#utility.yul\":7373:7385   */\n      revert\n        /* \"#utility.yul\":7397:7514   */\n    tag_489:\n        /* \"#utility.yul\":7506:7507   */\n      0x00\n        /* \"#utility.yul\":7503:7504   */\n      dup1\n        /* \"#utility.yul\":7496:7508   */\n      revert\n        /* \"#utility.yul\":7520:7700   */\n    tag_210:\n        /* \"#utility.yul\":7568:7645   */\n      0x4e487b7100000000000000000000000000000000000000000000000000000000\n        /* \"#utility.yul\":7565:7566   */\n      0x00\n        /* \"#utility.yul\":7558:7646   */\n      mstore\n        /* \"#utility.yul\":7665:7669   */\n      0x41\n        /* \"#utility.yul\":7662:7663   */\n      0x04\n        /* \"#utility.yul\":7655:7670   */\n      mstore\n        /* \"#utility.yul\":7689:7693   */\n      0x24\n        /* \"#utility.yul\":7686:7687   */\n      0x00\n        /* \"#utility.yul\":7679:7694   */\n      revert\n        /* \"#utility.yul\":7706:7987   */\n    tag_490:\n        /* \"#utility.yul\":7789:7816   */\n      tag_650\n        /* \"#utility.yul\":7811:7815   */\n      dup3\n        /* \"#utility.yul\":7789:7816   */\n      tag_475\n      jump\t// in\n    tag_650:\n        /* \"#utility.yul\":7781:7787   */\n      dup2\n        /* \"#utility.yul\":7777:7817   */\n      add\n        /* \"#utility.yul\":7919:7925   */\n      dup2\n        /* \"#utility.yul\":7907:7917   */\n      dup2\n        /* \"#utility.yul\":7904:7926   */\n      lt\n        /* \"#utility.yul\":7883:7901   */\n      0xffffffffffffffff\n        /* \"#utility.yul\":7871:7881   */\n      dup3\n        /* \"#utility.yul\":7868:7902   */\n      gt\n        /* \"#utility.yul\":7865:7927   */\n      or\n        /* \"#utility.yul\":7862:7950   */\n      iszero\n      tag_651\n      jumpi\n        /* \"#utility.yul\":7930:7948   */\n      tag_652\n      tag_210\n      jump\t// in\n    tag_652:\n        /* \"#utility.yul\":7862:7950   */\n    tag_651:\n        /* \"#utility.yul\":7970:7980   */\n      dup1\n        /* \"#utility.yul\":7966:7968   */\n      0x40\n        /* \"#utility.yul\":7959:7981   */\n      mstore\n        /* \"#utility.yul\":7749:7987   */\n      pop\n        /* \"#utility.yul\":7706:7987   */\n      pop\n      pop\n      jump\t// out\n        /* \"#utility.yul\":7993:8122   */\n    tag_491:\n        /* \"#utility.yul\":8027:8033   */\n      0x00\n        /* \"#utility.yul\":8054:8074   */\n      tag_654\n      tag_462\n      jump\t// in\n    tag_654:\n        /* \"#utility.yul\":8044:8074   */\n      swap1\n      pop\n        /* \"#utility.yul\":8083:8116   */\n      tag_655\n        /* \"#utility.yul\":8111:8115   */\n      dup3\n        /* \"#utility.yul\":8103:8109   */\n      dup3\n        /* \"#utility.yul\":8083:8116   */\n      tag_490\n      jump\t// in\n    tag_655:\n        /* \"#utility.yul\":7993:8122   */\n      swap2\n      swap1\n      pop\n      jump\t// out\n        /* \"#utility.yul\":8128:8436   */\n    tag_492:\n        /* \"#utility.yul\":8190:8194   */\n      0x00\n        /* \"#utility.yul\":8280:8298   */\n      0xffffffffffffffff\n        /* \"#utility.yul\":8272:8278   */\n      dup3\n        /* \"#utility.yul\":8269:8299   */\n      gt\n        /* \"#utility.yul\":8266:8322   */\n      iszero\n      tag_657\n      jumpi\n        /* \"#utility.yul\":8302:8320   */\n      tag_658\n      tag_210\n      jump\t// in\n    tag_658:\n        /* \"#utility.yul\":8266:8322   */\n    tag_657:\n        /* \"#utility.yul\":8340:8369   */\n      tag_659\n        /* \"#utility.yul\":8362:8368   */\n      dup3\n        /* \"#utility.yul\":8340:8369   */\n      tag_475\n      jump\t// in\n    tag_659:\n        /* \"#utility.yul\":8332:8369   */\n      swap1\n      pop\n        /* \"#utility.yul\":8424:8428   */\n      0x20\n        /* \"#utility.yul\":8418:8422   */\n      dup2\n        /* \"#utility.yul\":8414:8429   */\n      add\n        /* \"#utility.yul\":8406:8429   */\n      swap1\n      pop\n        /* \"#utility.yul\":8128:8436   */\n      swap2\n      swap1\n      pop\n      jump\t// out\n        /* \"#utility.yul\":8442:8590   */\n    tag_493:\n        /* \"#utility.yul\":8540:8546   */\n      dup3\n        /* \"#utility.yul\":8535:8538   */\n      dup2\n        /* \"#utility.yul\":8530:8533   */\n      dup4\n        /* \"#utility.yul\":8517:8547   */\n      calldatacopy\n        /* \"#utility.yul\":8581:8582   */\n      0x00\n        /* \"#utility.yul\":8572:8578   */\n      dup4\n        /* \"#utility.yul\":8567:8570   */\n      dup4\n        /* \"#utility.yul\":8563:8579   */\n      add\n        /* \"#utility.yul\":8556:8583   */\n      mstore\n        /* \"#utility.yul\":8442:8590   */\n      pop\n      pop\n      pop\n      jump\t// out\n        /* \"#utility.yul\":8596:9021   */\n    tag_494:\n        /* \"#utility.yul\":8674:8679   */\n      0x00\n        /* \"#utility.yul\":8699:8765   */\n      tag_662\n        /* \"#utility.yul\":8715:8764   */\n      tag_663\n        /* \"#utility.yul\":8757:8763   */\n      dup5\n        /* \"#utility.yul\":8715:8764   */\n      tag_492\n      jump\t// in\n    tag_663:\n        /* \"#utility.yul\":8699:8765   */\n      tag_491\n      jump\t// in\n    tag_662:\n        /* \"#utility.yul\":8690:8765   */\n      swap1\n      pop\n        /* \"#utility.yul\":8788:8794   */\n      dup3\n        /* \"#utility.yul\":8781:8786   */\n      dup2\n        /* \"#utility.yul\":8774:8795   */\n      mstore\n        /* \"#utility.yul\":8826:8830   */\n      0x20\n        /* \"#utility.yul\":8819:8824   */\n      dup2\n        /* \"#utility.yul\":8815:8831   */\n      add\n        /* \"#utility.yul\":8864:8867   */\n      dup5\n        /* \"#utility.yul\":8855:8861   */\n      dup5\n        /* \"#utility.yul\":8850:8853   */\n      dup5\n        /* \"#utility.yul\":8846:8862   */\n      add\n        /* \"#utility.yul\":8843:8868   */\n      gt\n        /* \"#utility.yul\":8840:8952   */\n      iszero\n      tag_664\n      jumpi\n        /* \"#utility.yul\":8871:8950   */\n      tag_665\n      tag_489\n      jump\t// in\n    tag_665:\n        /* \"#utility.yul\":8840:8952   */\n    tag_664:\n        /* \"#utility.yul\":8961:9015   */\n      tag_666\n        /* \"#utility.yul\":9008:9014   */\n      dup5\n        /* \"#utility.yul\":9003:9006   */\n      dup3\n        /* \"#utility.yul\":8998:9001   */\n      dup6\n        /* \"#utility.yul\":8961:9015   */\n      tag_493\n      jump\t// in\n    tag_666:\n        /* \"#utility.yul\":8680:9021   */\n      pop\n        /* \"#utility.yul\":8596:9021   */\n      swap4\n      swap3\n      pop\n      pop\n      pop\n      jump\t// out\n        /* \"#utility.yul\":9041:9381   */\n    tag_495:\n        /* \"#utility.yul\":9097:9102   */\n      0x00\n        /* \"#utility.yul\":9146:9149   */\n      dup3\n        /* \"#utility.yul\":9139:9143   */\n      0x1f\n        /* \"#utility.yul\":9131:9137   */\n      dup4\n        /* \"#utility.yul\":9127:9144   */\n      add\n        /* \"#utility.yul\":9123:9150   */\n      slt\n        /* \"#utility.yul\":9113:9235   */\n      tag_668\n      jumpi\n        /* \"#utility.yul\":9154:9233   */\n      tag_669\n      tag_488\n      jump\t// in\n    tag_669:\n        /* \"#utility.yul\":9113:9235   */\n    tag_668:\n        /* \"#utility.yul\":9271:9277   */\n      dup2\n        /* \"#utility.yul\":9258:9278   */\n      calldataload\n        /* \"#utility.yul\":9296:9375   */\n      tag_670\n        /* \"#utility.yul\":9371:9374   */\n      dup5\n        /* \"#utility.yul\":9363:9369   */\n      dup3\n        /* \"#utility.yul\":9356:9360   */\n      0x20\n        /* \"#utility.yul\":9348:9354   */\n      dup7\n        /* \"#utility.yul\":9344:9361   */\n      add\n        /* \"#utility.yul\":9296:9375   */\n      tag_494\n      jump\t// in\n    tag_670:\n        /* \"#utility.yul\":9287:9375   */\n      swap2\n      pop\n        /* \"#utility.yul\":9103:9381   */\n      pop\n        /* \"#utility.yul\":9041:9381   */\n      swap3\n      swap2\n      pop\n      pop\n      jump\t// out\n        /* \"#utility.yul\":9387:10186   */\n    tag_51:\n        /* \"#utility.yul\":9474:9480   */\n      0x00\n        /* \"#utility.yul\":9482:9488   */\n      dup1\n        /* \"#utility.yul\":9490:9496   */\n      0x00\n        /* \"#utility.yul\":9539:9541   */\n      0x60\n        /* \"#utility.yul\":9527:9536   */\n      dup5\n        /* \"#utility.yul\":9518:9525   */\n      dup7\n        /* \"#utility.yul\":9514:9537   */\n      sub\n        /* \"#utility.yul\":9510:9542   */\n      slt\n        /* \"#utility.yul\":9507:9626   */\n      iszero\n      tag_672\n      jumpi\n        /* \"#utility.yul\":9545:9624   */\n      tag_673\n      tag_463\n      jump\t// in\n    tag_673:\n        /* \"#utility.yul\":9507:9626   */\n    tag_672:\n        /* \"#utility.yul\":9693:9694   */\n      0x00\n        /* \"#utility.yul\":9682:9691   */\n      dup5\n        /* \"#utility.yul\":9678:9695   */\n      add\n        /* \"#utility.yul\":9665:9696   */\n      calldataload\n        /* \"#utility.yul\":9723:9741   */\n      0xffffffffffffffff\n        /* \"#utility.yul\":9715:9721   */\n      dup2\n        /* \"#utility.yul\":9712:9742   */\n      gt\n        /* \"#utility.yul\":9709:9826   */\n      iszero\n      tag_674\n      jumpi\n        /* \"#utility.yul\":9745:9824   */\n      tag_675\n      tag_464\n      jump\t// in\n    tag_675:\n        /* \"#utility.yul\":9709:9826   */\n    tag_674:\n        /* \"#utility.yul\":9850:9913   */\n      tag_676\n        /* \"#utility.yul\":9905:9912   */\n      dup7\n        /* \"#utility.yul\":9896:9902   */\n      dup3\n        /* \"#utility.yul\":9885:9894   */\n      dup8\n        /* \"#utility.yul\":9881:9903   */\n      add\n        /* \"#utility.yul\":9850:9913   */\n      tag_495\n      jump\t// in\n    tag_676:\n        /* \"#utility.yul\":9840:9913   */\n      swap4\n      pop\n        /* \"#utility.yul\":9636:9923   */\n      pop\n        /* \"#utility.yul\":9962:9964   */\n      0x20\n        /* \"#utility.yul\":9988:10041   */\n      tag_677\n        /* \"#utility.yul\":10033:10040   */\n      dup7\n        /* \"#utility.yul\":10024:10030   */\n      dup3\n        /* \"#utility.yul\":10013:10022   */\n      dup8\n        /* \"#utility.yul\":10009:10031   */\n      add\n        /* \"#utility.yul\":9988:10041   */\n      tag_467\n      jump\t// in\n    tag_677:\n        /* \"#utility.yul\":9978:10041   */\n      swap3\n      pop\n        /* \"#utility.yul\":9933:10051   */\n      pop\n        /* \"#utility.yul\":10090:10092   */\n      0x40\n        /* \"#utility.yul\":10116:10169   */\n      tag_678\n        /* \"#utility.yul\":10161:10168   */\n      dup7\n        /* \"#utility.yul\":10152:10158   */\n      dup3\n        /* \"#utility.yul\":10141:10150   */\n      dup8\n        /* \"#utility.yul\":10137:10159   */\n      add\n        /* \"#utility.yul\":10116:10169   */\n      tag_467\n      jump\t// in\n    tag_678:\n        /* \"#utility.yul\":10106:10169   */\n      swap2\n      pop\n        /* \"#utility.yul\":10061:10179   */\n      pop\n        /* \"#utility.yul\":9387:10186   */\n      swap3\n      pop\n      swap3\n      pop\n      swap3\n      jump\t// out\n        /* \"#utility.yul\":10192:10334   */\n    tag_496:\n        /* \"#utility.yul\":10287:10293   */\n      0x00\n        /* \"#utility.yul\":10321:10326   */\n      dup2\n        /* \"#utility.yul\":10315:10327   */\n      mload\n        /* \"#utility.yul\":10305:10327   */\n      swap1\n      pop\n        /* \"#utility.yul\":10192:10334   */\n      swap2\n      swap1\n      pop\n      jump\t// out\n        /* \"#utility.yul\":10340:10552   */\n    tag_497:\n        /* \"#utility.yul\":10467:10478   */\n      0x00\n        /* \"#utility.yul\":10501:10507   */\n      dup3\n        /* \"#utility.yul\":10496:10499   */\n      dup3\n        /* \"#utility.yul\":10489:10508   */\n      mstore\n        /* \"#utility.yul\":10541:10545   */\n      0x20\n        /* \"#utility.yul\":10536:10539   */\n      dup3\n        /* \"#utility.yul\":10532:10546   */\n      add\n        /* \"#utility.yul\":10517:10546   */\n      swap1\n      pop\n        /* \"#utility.yul\":10340:10552   */\n      swap3\n      swap2\n      pop\n      pop\n      jump\t// out\n        /* \"#utility.yul\":10558:10718   */\n    tag_498:\n        /* \"#utility.yul\":10653:10657   */\n      0x00\n        /* \"#utility.yul\":10676:10679   */\n      dup2\n        /* \"#utility.yul\":10668:10679   */\n      swap1\n      pop\n        /* \"#utility.yul\":10706:10710   */\n      0x20\n        /* \"#utility.yul\":10701:10704   */\n      dup3\n        /* \"#utility.yul\":10697:10711   */\n      add\n        /* \"#utility.yul\":10689:10711   */\n      swap1\n      pop\n        /* \"#utility.yul\":10558:10718   */\n      swap2\n      swap1\n      pop\n      jump\t// out\n        /* \"#utility.yul\":10724:10832   */\n    tag_499:\n        /* \"#utility.yul\":10801:10825   */\n      tag_683\n        /* \"#utility.yul\":10819:10824   */\n      dup2\n        /* \"#utility.yul\":10801:10825   */\n      tag_470\n      jump\t// in\n    tag_683:\n        /* \"#utility.yul\":10796:10799   */\n      dup3\n        /* \"#utility.yul\":10789:10826   */\n      mstore\n        /* \"#utility.yul\":10724:10832   */\n      pop\n      pop\n      jump\t// out\n        /* \"#utility.yul\":10838:10997   */\n    tag_500:\n        /* \"#utility.yul\":10912:10923   */\n      0x00\n        /* \"#utility.yul\":10946:10952   */\n      dup3\n        /* \"#utility.yul\":10941:10944   */\n      dup3\n        /* \"#utility.yul\":10934:10953   */\n      mstore\n        /* \"#utility.yul\":10986:10990   */\n      0x20\n        /* \"#utility.yul\":10981:10984   */\n      dup3\n        /* \"#utility.yul\":10977:10991   */\n      add\n        /* \"#utility.yul\":10962:10991   */\n      swap1\n      pop\n        /* \"#utility.yul\":10838:10997   */\n      swap3\n      swap2\n      pop\n      pop\n      jump\t// out\n        /* \"#utility.yul\":11003:11360   */\n    tag_501:\n        /* \"#utility.yul\":11081:11084   */\n      0x00\n        /* \"#utility.yul\":11109:11148   */\n      tag_686\n        /* \"#utility.yul\":11142:11147   */\n      dup3\n        /* \"#utility.yul\":11109:11148   */\n      tag_472\n      jump\t// in\n    tag_686:\n        /* \"#utility.yul\":11164:11225   */\n      tag_687\n        /* \"#utility.yul\":11218:11224   */\n      dup2\n        /* \"#utility.yul\":11213:11216   */\n      dup6\n        /* \"#utility.yul\":11164:11225   */\n      tag_500\n      jump\t// in\n    tag_687:\n        /* \"#utility.yul\":11157:11225   */\n      swap4\n      pop\n        /* \"#utility.yul\":11234:11299   */\n      tag_688\n        /* \"#utility.yul\":11292:11298   */\n      dup2\n        /* \"#utility.yul\":11287:11290   */\n      dup6\n        /* \"#utility.yul\":11280:11284   */\n      0x20\n        /* \"#utility.yul\":11273:11278   */\n      dup7\n        /* \"#utility.yul\":11269:11285   */\n      add\n        /* \"#utility.yul\":11234:11299   */\n      tag_474\n      jump\t// in\n    tag_688:\n        /* \"#utility.yul\":11324:11353   */\n      tag_689\n        /* \"#utility.yul\":11346:11352   */\n      dup2\n        /* \"#utility.yul\":11324:11353   */\n      tag_475\n      jump\t// in\n    tag_689:\n        /* \"#utility.yul\":11319:11322   */\n      dup5\n        /* \"#utility.yul\":11315:11354   */\n      add\n        /* \"#utility.yul\":11308:11354   */\n      swap2\n      pop\n        /* \"#utility.yul\":11085:11360   */\n      pop\n        /* \"#utility.yul\":11003:11360   */\n      swap3\n      swap2\n      pop\n      pop\n      jump\t// out\n        /* \"#utility.yul\":11366:11465   */\n    tag_502:\n        /* \"#utility.yul\":11437:11458   */\n      tag_691\n        /* \"#utility.yul\":11452:11457   */\n      dup2\n        /* \"#utility.yul\":11437:11458   */\n      tag_477\n      jump\t// in\n    tag_691:\n        /* \"#utility.yul\":11432:11435   */\n      dup3\n        /* \"#utility.yul\":11425:11459   */\n      mstore\n        /* \"#utility.yul\":11366:11465   */\n      pop\n      pop\n      jump\t// out\n        /* \"#utility.yul\":11547:13231   */\n    tag_503:\n        /* \"#utility.yul\":11662:11665   */\n      0x00\n        /* \"#utility.yul\":11698:11704   */\n      0x0100\n        /* \"#utility.yul\":11693:11696   */\n      dup4\n        /* \"#utility.yul\":11689:11705   */\n      add\n        /* \"#utility.yul\":11793:11797   */\n      0x00\n        /* \"#utility.yul\":11786:11791   */\n      dup4\n        /* \"#utility.yul\":11782:11798   */\n      add\n        /* \"#utility.yul\":11776:11799   */\n      mload\n        /* \"#utility.yul\":11812:11875   */\n      tag_693\n        /* \"#utility.yul\":11869:11873   */\n      0x00\n        /* \"#utility.yul\":11864:11867   */\n      dup7\n        /* \"#utility.yul\":11860:11874   */\n      add\n        /* \"#utility.yul\":11846:11858   */\n      dup3\n        /* \"#utility.yul\":11812:11875   */\n      tag_484\n      jump\t// in\n    tag_693:\n        /* \"#utility.yul\":11715:11885   */\n      pop\n        /* \"#utility.yul\":11975:11979   */\n      0x20\n        /* \"#utility.yul\":11968:11973   */\n      dup4\n        /* \"#utility.yul\":11964:11980   */\n      add\n        /* \"#utility.yul\":11958:11981   */\n      mload\n        /* \"#utility.yul\":11994:12057   */\n      tag_694\n        /* \"#utility.yul\":12051:12055   */\n      0x20\n        /* \"#utility.yul\":12046:12049   */\n      dup7\n        /* \"#utility.yul\":12042:12056   */\n      add\n        /* \"#utility.yul\":12028:12040   */\n      dup3\n        /* \"#utility.yul\":11994:12057   */\n      tag_499\n      jump\t// in\n    tag_694:\n        /* \"#utility.yul\":11895:12067   */\n      pop\n        /* \"#utility.yul\":12150:12154   */\n      0x40\n        /* \"#utility.yul\":12143:12148   */\n      dup4\n        /* \"#utility.yul\":12139:12155   */\n      add\n        /* \"#utility.yul\":12133:12156   */\n      mload\n        /* \"#utility.yul\":12203:12206   */\n      dup5\n        /* \"#utility.yul\":12197:12201   */\n      dup3\n        /* \"#utility.yul\":12193:12207   */\n      sub\n        /* \"#utility.yul\":12186:12190   */\n      0x40\n        /* \"#utility.yul\":12181:12184   */\n      dup7\n        /* \"#utility.yul\":12177:12191   */\n      add\n        /* \"#utility.yul\":12170:12208   */\n      mstore\n        /* \"#utility.yul\":12229:12302   */\n      tag_695\n        /* \"#utility.yul\":12297:12301   */\n      dup3\n        /* \"#utility.yul\":12283:12295   */\n      dup3\n        /* \"#utility.yul\":12229:12302   */\n      tag_501\n      jump\t// in\n    tag_695:\n        /* \"#utility.yul\":12221:12302   */\n      swap2\n      pop\n        /* \"#utility.yul\":12077:12313   */\n      pop\n        /* \"#utility.yul\":12401:12405   */\n      0x60\n        /* \"#utility.yul\":12394:12399   */\n      dup4\n        /* \"#utility.yul\":12390:12406   */\n      add\n        /* \"#utility.yul\":12384:12407   */\n      mload\n        /* \"#utility.yul\":12420:12483   */\n      tag_696\n        /* \"#utility.yul\":12477:12481   */\n      0x60\n        /* \"#utility.yul\":12472:12475   */\n      dup7\n        /* \"#utility.yul\":12468:12482   */\n      add\n        /* \"#utility.yul\":12454:12466   */\n      dup3\n        /* \"#utility.yul\":12420:12483   */\n      tag_484\n      jump\t// in\n    tag_696:\n        /* \"#utility.yul\":12323:12493   */\n      pop\n        /* \"#utility.yul\":12584:12588   */\n      0x80\n        /* \"#utility.yul\":12577:12582   */\n      dup4\n        /* \"#utility.yul\":12573:12589   */\n      add\n        /* \"#utility.yul\":12567:12590   */\n      mload\n        /* \"#utility.yul\":12603:12666   */\n      tag_697\n        /* \"#utility.yul\":12660:12664   */\n      0x80\n        /* \"#utility.yul\":12655:12658   */\n      dup7\n        /* \"#utility.yul\":12651:12665   */\n      add\n        /* \"#utility.yul\":12637:12649   */\n      dup3\n        /* \"#utility.yul\":12603:12666   */\n      tag_484\n      jump\t// in\n    tag_697:\n        /* \"#utility.yul\":12503:12676   */\n      pop\n        /* \"#utility.yul\":12766:12770   */\n      0xa0\n        /* \"#utility.yul\":12759:12764   */\n      dup4\n        /* \"#utility.yul\":12755:12771   */\n      add\n        /* \"#utility.yul\":12749:12772   */\n      mload\n        /* \"#utility.yul\":12785:12848   */\n      tag_698\n        /* \"#utility.yul\":12842:12846   */\n      0xa0\n        /* \"#utility.yul\":12837:12840   */\n      dup7\n        /* \"#utility.yul\":12833:12847   */\n      add\n        /* \"#utility.yul\":12819:12831   */\n      dup3\n        /* \"#utility.yul\":12785:12848   */\n      tag_484\n      jump\t// in\n    tag_698:\n        /* \"#utility.yul\":12686:12858   */\n      pop\n        /* \"#utility.yul\":12945:12949   */\n      0xc0\n        /* \"#utility.yul\":12938:12943   */\n      dup4\n        /* \"#utility.yul\":12934:12950   */\n      add\n        /* \"#utility.yul\":12928:12951   */\n      mload\n        /* \"#utility.yul\":12964:13021   */\n      tag_699\n        /* \"#utility.yul\":13015:13019   */\n      0xc0\n        /* \"#utility.yul\":13010:13013   */\n      dup7\n        /* \"#utility.yul\":13006:13020   */\n      add\n        /* \"#utility.yul\":12992:13004   */\n      dup3\n        /* \"#utility.yul\":12964:13021   */\n      tag_502\n      jump\t// in\n    tag_699:\n        /* \"#utility.yul\":12868:13031   */\n      pop\n        /* \"#utility.yul\":13118:13122   */\n      0xe0\n        /* \"#utility.yul\":13111:13116   */\n      dup4\n        /* \"#utility.yul\":13107:13123   */\n      add\n        /* \"#utility.yul\":13101:13124   */\n      mload\n        /* \"#utility.yul\":13137:13194   */\n      tag_700\n        /* \"#utility.yul\":13188:13192   */\n      0xe0\n        /* \"#utility.yul\":13183:13186   */\n      dup7\n        /* \"#utility.yul\":13179:13193   */\n      add\n        /* \"#utility.yul\":13165:13177   */\n      dup3\n        /* \"#utility.yul\":13137:13194   */\n      tag_502\n      jump\t// in\n    tag_700:\n        /* \"#utility.yul\":13041:13204   */\n      pop\n        /* \"#utility.yul\":13221:13225   */\n      dup1\n        /* \"#utility.yul\":13214:13225   */\n      swap2\n      pop\n        /* \"#utility.yul\":11667:13231   */\n      pop\n        /* \"#utility.yul\":11547:13231   */\n      swap3\n      swap2\n      pop\n      pop\n      jump\t// out\n        /* \"#utility.yul\":13237:13505   */\n    tag_504:\n        /* \"#utility.yul\":13362:13372   */\n      0x00\n        /* \"#utility.yul\":13397:13499   */\n      tag_702\n        /* \"#utility.yul\":13495:13498   */\n      dup4\n        /* \"#utility.yul\":13487:13493   */\n      dup4\n        /* \"#utility.yul\":13397:13499   */\n      tag_503\n      jump\t// in\n    tag_702:\n        /* \"#utility.yul\":13383:13499   */\n      swap1\n      pop\n        /* \"#utility.yul\":13237:13505   */\n      swap3\n      swap2\n      pop\n      pop\n      jump\t// out\n        /* \"#utility.yul\":13511:13652   */\n    tag_505:\n        /* \"#utility.yul\":13609:13613   */\n      0x00\n        /* \"#utility.yul\":13641:13645   */\n      0x20\n        /* \"#utility.yul\":13636:13639   */\n      dup3\n        /* \"#utility.yul\":13632:13646   */\n      add\n        /* \"#utility.yul\":13624:13646   */\n      swap1\n      pop\n        /* \"#utility.yul\":13511:13652   */\n      swap2\n      swap1\n      pop\n      jump\t// out\n        /* \"#utility.yul\":13738:14873   */\n    tag_506:\n        /* \"#utility.yul\":13913:13916   */\n      0x00\n        /* \"#utility.yul\":13942:14024   */\n      tag_705\n        /* \"#utility.yul\":14018:14023   */\n      dup3\n        /* \"#utility.yul\":13942:14024   */\n      tag_496\n      jump\t// in\n    tag_705:\n        /* \"#utility.yul\":14040:14154   */\n      tag_706\n        /* \"#utility.yul\":14147:14153   */\n      dup2\n        /* \"#utility.yul\":14142:14145   */\n      dup6\n        /* \"#utility.yul\":14040:14154   */\n      tag_497\n      jump\t// in\n    tag_706:\n        /* \"#utility.yul\":14033:14154   */\n      swap4\n      pop\n        /* \"#utility.yul\":14180:14183   */\n      dup4\n        /* \"#utility.yul\":14225:14229   */\n      0x20\n        /* \"#utility.yul\":14217:14223   */\n      dup3\n        /* \"#utility.yul\":14213:14230   */\n      mul\n        /* \"#utility.yul\":14208:14211   */\n      dup6\n        /* \"#utility.yul\":14204:14231   */\n      add\n        /* \"#utility.yul\":14255:14339   */\n      tag_707\n        /* \"#utility.yul\":14333:14338   */\n      dup6\n        /* \"#utility.yul\":14255:14339   */\n      tag_498\n      jump\t// in\n    tag_707:\n        /* \"#utility.yul\":14362:14369   */\n      dup1\n        /* \"#utility.yul\":14393:14394   */\n      0x00\n        /* \"#utility.yul\":14378:14828   */\n    tag_708:\n        /* \"#utility.yul\":14403:14409   */\n      dup6\n        /* \"#utility.yul\":14400:14401   */\n      dup2\n        /* \"#utility.yul\":14397:14410   */\n      lt\n        /* \"#utility.yul\":14378:14828   */\n      iszero\n      tag_710\n      jumpi\n        /* \"#utility.yul\":14474:14483   */\n      dup5\n        /* \"#utility.yul\":14468:14472   */\n      dup5\n        /* \"#utility.yul\":14464:14484   */\n      sub\n        /* \"#utility.yul\":14459:14462   */\n      dup10\n        /* \"#utility.yul\":14452:14485   */\n      mstore\n        /* \"#utility.yul\":14525:14531   */\n      dup2\n        /* \"#utility.yul\":14519:14532   */\n      mload\n        /* \"#utility.yul\":14553:14673   */\n      tag_711\n        /* \"#utility.yul\":14668:14672   */\n      dup6\n        /* \"#utility.yul\":14653:14666   */\n      dup3\n        /* \"#utility.yul\":14553:14673   */\n      tag_504\n      jump\t// in\n    tag_711:\n        /* \"#utility.yul\":14545:14673   */\n      swap5\n      pop\n        /* \"#utility.yul\":14696:14784   */\n      tag_712\n        /* \"#utility.yul\":14777:14783   */\n      dup4\n        /* \"#utility.yul\":14696:14784   */\n      tag_505\n      jump\t// in\n    tag_712:\n        /* \"#utility.yul\":14686:14784   */\n      swap3\n      pop\n        /* \"#utility.yul\":14813:14817   */\n      0x20\n        /* \"#utility.yul\":14808:14811   */\n      dup11\n        /* \"#utility.yul\":14804:14818   */\n      add\n        /* \"#utility.yul\":14797:14818   */\n      swap10\n      pop\n        /* \"#utility.yul\":14438:14828   */\n      pop\n        /* \"#utility.yul\":14425:14426   */\n      0x01\n        /* \"#utility.yul\":14422:14423   */\n      dup2\n        /* \"#utility.yul\":14418:14427   */\n      add\n        /* \"#utility.yul\":14413:14427   */\n      swap1\n      pop\n        /* \"#utility.yul\":14378:14828   */\n      jump(tag_708)\n    tag_710:\n        /* \"#utility.yul\":14382:14396   */\n      pop\n        /* \"#utility.yul\":14844:14848   */\n      dup3\n        /* \"#utility.yul\":14837:14848   */\n      swap8\n      pop\n        /* \"#utility.yul\":14864:14867   */\n      dup8\n        /* \"#utility.yul\":14857:14867   */\n      swap6\n      pop\n        /* \"#utility.yul\":13918:14873   */\n      pop\n      pop\n      pop\n      pop\n      pop\n        /* \"#utility.yul\":13738:14873   */\n      swap3\n      swap2\n      pop\n      pop\n      jump\t// out\n        /* \"#utility.yul\":14879:15364   */\n    tag_57:\n        /* \"#utility.yul\":15078:15082   */\n      0x00\n        /* \"#utility.yul\":15116:15118   */\n      0x20\n        /* \"#utility.yul\":15105:15114   */\n      dup3\n        /* \"#utility.yul\":15101:15119   */\n      add\n        /* \"#utility.yul\":15093:15119   */\n      swap1\n      pop\n        /* \"#utility.yul\":15165:15174   */\n      dup2\n        /* \"#utility.yul\":15159:15163   */\n      dup2\n        /* \"#utility.yul\":15155:15175   */\n      sub\n        /* \"#utility.yul\":15151:15152   */\n      0x00\n        /* \"#utility.yul\":15140:15149   */\n      dup4\n        /* \"#utility.yul\":15136:15153   */\n      add\n        /* \"#utility.yul\":15129:15176   */\n      mstore\n        /* \"#utility.yul\":15193:15357   */\n      tag_714\n        /* \"#utility.yul\":15352:15356   */\n      dup2\n        /* \"#utility.yul\":15343:15349   */\n      dup5\n        /* \"#utility.yul\":15193:15357   */\n      tag_506\n      jump\t// in\n    tag_714:\n        /* \"#utility.yul\":15185:15357   */\n      swap1\n      pop\n        /* \"#utility.yul\":14879:15364   */\n      swap3\n      swap2\n      pop\n      pop\n      jump\t// out\n        /* \"#utility.yul\":15370:15592   */\n    tag_69:\n        /* \"#utility.yul\":15463:15467   */\n      0x00\n        /* \"#utility.yul\":15501:15503   */\n      0x20\n        /* \"#utility.yul\":15490:15499   */\n      dup3\n        /* \"#utility.yul\":15486:15504   */\n      add\n        /* \"#utility.yul\":15478:15504   */\n      swap1\n      pop\n        /* \"#utility.yul\":15514:15585   */\n      tag_716\n        /* \"#utility.yul\":15582:15583   */\n      0x00\n        /* \"#utility.yul\":15571:15580   */\n      dup4\n        /* \"#utility.yul\":15567:15584   */\n      add\n        /* \"#utility.yul\":15558:15564   */\n      dup5\n        /* \"#utility.yul\":15514:15585   */\n      tag_468\n      jump\t// in\n    tag_716:\n        /* \"#utility.yul\":15370:15592   */\n      swap3\n      swap2\n      pop\n      pop\n      jump\t// out\n        /* \"#utility.yul\":15598:15820   */\n    tag_86:\n        /* \"#utility.yul\":15691:15695   */\n      0x00\n        /* \"#utility.yul\":15729:15731   */\n      0x20\n        /* \"#utility.yul\":15718:15727   */\n      dup3\n        /* \"#utility.yul\":15714:15732   */\n      add\n        /* \"#utility.yul\":15706:15732   */\n      swap1\n      pop\n        /* \"#utility.yul\":15742:15813   */\n      tag_718\n        /* \"#utility.yul\":15810:15811   */\n      0x00\n        /* \"#utility.yul\":15799:15808   */\n      dup4\n        /* \"#utility.yul\":15795:15812   */\n      add\n        /* \"#utility.yul\":15786:15792   */\n      dup5\n        /* \"#utility.yul\":15742:15813   */\n      tag_471\n      jump\t// in\n    tag_718:\n        /* \"#utility.yul\":15598:15820   */\n      swap3\n      swap2\n      pop\n      pop\n      jump\t// out\n        /* \"#utility.yul\":15826:15940   */\n    tag_507:\n        /* \"#utility.yul\":15893:15899   */\n      0x00\n        /* \"#utility.yul\":15927:15932   */\n      dup2\n        /* \"#utility.yul\":15921:15933   */\n      mload\n        /* \"#utility.yul\":15911:15933   */\n      swap1\n      pop\n        /* \"#utility.yul\":15826:15940   */\n      swap2\n      swap1\n      pop\n      jump\t// out\n        /* \"#utility.yul\":15946:16130   */\n    tag_508:\n        /* \"#utility.yul\":16045:16056   */\n      0x00\n        /* \"#utility.yul\":16079:16085   */\n      dup3\n        /* \"#utility.yul\":16074:16077   */\n      dup3\n        /* \"#utility.yul\":16067:16086   */\n      mstore\n        /* \"#utility.yul\":16119:16123   */\n      0x20\n        /* \"#utility.yul\":16114:16117   */\n      dup3\n        /* \"#utility.yul\":16110:16124   */\n      add\n        /* \"#utility.yul\":16095:16124   */\n      swap1\n      pop\n        /* \"#utility.yul\":15946:16130   */\n      swap3\n      swap2\n      pop\n      pop\n      jump\t// out\n        /* \"#utility.yul\":16136:16268   */\n    tag_509:\n        /* \"#utility.yul\":16203:16207   */\n      0x00\n        /* \"#utility.yul\":16226:16229   */\n      dup2\n        /* \"#utility.yul\":16218:16229   */\n      swap1\n      pop\n        /* \"#utility.yul\":16256:16260   */\n      0x20\n        /* \"#utility.yul\":16251:16254   */\n      dup3\n        /* \"#utility.yul\":16247:16261   */\n      add\n        /* \"#utility.yul\":16239:16261   */\n      swap1\n      pop\n        /* \"#utility.yul\":16136:16268   */\n      swap2\n      swap1\n      pop\n      jump\t// out\n        /* \"#utility.yul\":16274:16453   */\n    tag_510:\n        /* \"#utility.yul\":16343:16353   */\n      0x00\n        /* \"#utility.yul\":16364:16410   */\n      tag_723\n        /* \"#utility.yul\":16406:16409   */\n      dup4\n        /* \"#utility.yul\":16398:16404   */\n      dup4\n        /* \"#utility.yul\":16364:16410   */\n      tag_499\n      jump\t// in\n    tag_723:\n        /* \"#utility.yul\":16442:16446   */\n      0x20\n        /* \"#utility.yul\":16437:16440   */\n      dup4\n        /* \"#utility.yul\":16433:16447   */\n      add\n        /* \"#utility.yul\":16419:16447   */\n      swap1\n      pop\n        /* \"#utility.yul\":16274:16453   */\n      swap3\n      swap2\n      pop\n      pop\n      jump\t// out\n        /* \"#utility.yul\":16459:16572   */\n    tag_511:\n        /* \"#utility.yul\":16529:16533   */\n      0x00\n        /* \"#utility.yul\":16561:16565   */\n      0x20\n        /* \"#utility.yul\":16556:16559   */\n      dup3\n        /* \"#utility.yul\":16552:16566   */\n      add\n        /* \"#utility.yul\":16544:16566   */\n      swap1\n      pop\n        /* \"#utility.yul\":16459:16572   */\n      swap2\n      swap1\n      pop\n      jump\t// out\n        /* \"#utility.yul\":16608:17340   */\n    tag_512:\n        /* \"#utility.yul\":16727:16730   */\n      0x00\n        /* \"#utility.yul\":16756:16810   */\n      tag_726\n        /* \"#utility.yul\":16804:16809   */\n      dup3\n        /* \"#utility.yul\":16756:16810   */\n      tag_507\n      jump\t// in\n    tag_726:\n        /* \"#utility.yul\":16826:16912   */\n      tag_727\n        /* \"#utility.yul\":16905:16911   */\n      dup2\n        /* \"#utility.yul\":16900:16903   */\n      dup6\n        /* \"#utility.yul\":16826:16912   */\n      tag_508\n      jump\t// in\n    tag_727:\n        /* \"#utility.yul\":16819:16912   */\n      swap4\n      pop\n        /* \"#utility.yul\":16936:16992   */\n      tag_728\n        /* \"#utility.yul\":16986:16991   */\n      dup4\n        /* \"#utility.yul\":16936:16992   */\n      tag_509\n      jump\t// in\n    tag_728:\n        /* \"#utility.yul\":17015:17022   */\n      dup1\n        /* \"#utility.yul\":17046:17047   */\n      0x00\n        /* \"#utility.yul\":17031:17315   */\n    tag_729:\n        /* \"#utility.yul\":17056:17062   */\n      dup4\n        /* \"#utility.yul\":17053:17054   */\n      dup2\n        /* \"#utility.yul\":17050:17063   */\n      lt\n        /* \"#utility.yul\":17031:17315   */\n      iszero\n      tag_731\n      jumpi\n        /* \"#utility.yul\":17132:17138   */\n      dup2\n        /* \"#utility.yul\":17126:17139   */\n      mload\n        /* \"#utility.yul\":17159:17222   */\n      tag_732\n        /* \"#utility.yul\":17218:17221   */\n      dup9\n        /* \"#utility.yul\":17203:17216   */\n      dup3\n        /* \"#utility.yul\":17159:17222   */\n      tag_510\n      jump\t// in\n    tag_732:\n        /* \"#utility.yul\":17152:17222   */\n      swap8\n      pop\n        /* \"#utility.yul\":17245:17305   */\n      tag_733\n        /* \"#utility.yul\":17298:17304   */\n      dup4\n        /* \"#utility.yul\":17245:17305   */\n      tag_511\n      jump\t// in\n    tag_733:\n        /* \"#utility.yul\":17235:17305   */\n      swap3\n      pop\n        /* \"#utility.yul\":17091:17315   */\n      pop\n        /* \"#utility.yul\":17078:17079   */\n      0x01\n        /* \"#utility.yul\":17075:17076   */\n      dup2\n        /* \"#utility.yul\":17071:17080   */\n      add\n        /* \"#utility.yul\":17066:17080   */\n      swap1\n      pop\n        /* \"#utility.yul\":17031:17315   */\n      jump(tag_729)\n    tag_731:\n        /* \"#utility.yul\":17035:17049   */\n      pop\n        /* \"#utility.yul\":17331:17334   */\n      dup6\n        /* \"#utility.yul\":17324:17334   */\n      swap4\n      pop\n        /* \"#utility.yul\":16732:17340   */\n      pop\n      pop\n      pop\n        /* \"#utility.yul\":16608:17340   */\n      swap3\n      swap2\n      pop\n      pop\n      jump\t// out\n        /* \"#utility.yul\":17346:17980   */\n    tag_104:\n        /* \"#utility.yul\":17567:17571   */\n      0x00\n        /* \"#utility.yul\":17605:17607   */\n      0x40\n        /* \"#utility.yul\":17594:17603   */\n      dup3\n        /* \"#utility.yul\":17590:17608   */\n      add\n        /* \"#utility.yul\":17582:17608   */\n      swap1\n      pop\n        /* \"#utility.yul\":17654:17663   */\n      dup2\n        /* \"#utility.yul\":17648:17652   */\n      dup2\n        /* \"#utility.yul\":17644:17664   */\n      sub\n        /* \"#utility.yul\":17640:17641   */\n      0x00\n        /* \"#utility.yul\":17629:17638   */\n      dup4\n        /* \"#utility.yul\":17625:17642   */\n      add\n        /* \"#utility.yul\":17618:17665   */\n      mstore\n        /* \"#utility.yul\":17682:17790   */\n      tag_735\n        /* \"#utility.yul\":17785:17789   */\n      dup2\n        /* \"#utility.yul\":17776:17782   */\n      dup6\n        /* \"#utility.yul\":17682:17790   */\n      tag_512\n      jump\t// in\n    tag_735:\n        /* \"#utility.yul\":17674:17790   */\n      swap1\n      pop\n        /* \"#utility.yul\":17837:17846   */\n      dup2\n        /* \"#utility.yul\":17831:17835   */\n      dup2\n        /* \"#utility.yul\":17827:17847   */\n      sub\n        /* \"#utility.yul\":17822:17824   */\n      0x20\n        /* \"#utility.yul\":17811:17820   */\n      dup4\n        /* \"#utility.yul\":17807:17825   */\n      add\n        /* \"#utility.yul\":17800:17848   */\n      mstore\n        /* \"#utility.yul\":17865:17973   */\n      tag_736\n        /* \"#utility.yul\":17968:17972   */\n      dup2\n        /* \"#utility.yul\":17959:17965   */\n      dup5\n        /* \"#utility.yul\":17865:17973   */\n      tag_487\n      jump\t// in\n    tag_736:\n        /* \"#utility.yul\":17857:17973   */\n      swap1\n      pop\n        /* \"#utility.yul\":17346:17980   */\n      swap4\n      swap3\n      pop\n      pop\n      pop\n      jump\t// out\n        /* \"#utility.yul\":17986:18196   */\n    tag_115:\n        /* \"#utility.yul\":18073:18077   */\n      0x00\n        /* \"#utility.yul\":18111:18113   */\n      0x20\n        /* \"#utility.yul\":18100:18109   */\n      dup3\n        /* \"#utility.yul\":18096:18114   */\n      add\n        /* \"#utility.yul\":18088:18114   */\n      swap1\n      pop\n        /* \"#utility.yul\":18124:18189   */\n      tag_738\n        /* \"#utility.yul\":18186:18187   */\n      0x00\n        /* \"#utility.yul\":18175:18184   */\n      dup4\n        /* \"#utility.yul\":18171:18188   */\n      add\n        /* \"#utility.yul\":18162:18168   */\n      dup5\n        /* \"#utility.yul\":18124:18189   */\n      tag_478\n      jump\t// in\n    tag_738:\n        /* \"#utility.yul\":17986:18196   */\n      swap3\n      swap2\n      pop\n      pop\n      jump\t// out\n        /* \"#utility.yul\":18202:18429   */\n    tag_513:\n        /* \"#utility.yul\":18342:18376   */\n      0x4f6e6c792074686520636f6e7472616374206f776e65722063616e2065786563\n        /* \"#utility.yul\":18338:18339   */\n      0x00\n        /* \"#utility.yul\":18330:18336   */\n      dup3\n        /* \"#utility.yul\":18326:18340   */\n      add\n        /* \"#utility.yul\":18319:18377   */\n      mstore\n        /* \"#utility.yul\":18411:18421   */\n      0x7574652074686973000000000000000000000000000000000000000000000000\n        /* \"#utility.yul\":18406:18408   */\n      0x20\n        /* \"#utility.yul\":18398:18404   */\n      dup3\n        /* \"#utility.yul\":18394:18409   */\n      add\n        /* \"#utility.yul\":18387:18422   */\n      mstore\n        /* \"#utility.yul\":18202:18429   */\n      pop\n      jump\t// out\n        /* \"#utility.yul\":18435:18801   */\n    tag_514:\n        /* \"#utility.yul\":18577:18580   */\n      0x00\n        /* \"#utility.yul\":18598:18665   */\n      tag_741\n        /* \"#utility.yul\":18662:18664   */\n      0x28\n        /* \"#utility.yul\":18657:18660   */\n      dup4\n        /* \"#utility.yul\":18598:18665   */\n      tag_473\n      jump\t// in\n    tag_741:\n        /* \"#utility.yul\":18591:18665   */\n      swap2\n      pop\n        /* \"#utility.yul\":18674:18767   */\n      tag_742\n        /* \"#utility.yul\":18763:18766   */\n      dup3\n        /* \"#utility.yul\":18674:18767   */\n      tag_513\n      jump\t// in\n    tag_742:\n        /* \"#utility.yul\":18792:18794   */\n      0x40\n        /* \"#utility.yul\":18787:18790   */\n      dup3\n        /* \"#utility.yul\":18783:18795   */\n      add\n        /* \"#utility.yul\":18776:18795   */\n      swap1\n      pop\n        /* \"#utility.yul\":18435:18801   */\n      swap2\n      swap1\n      pop\n      jump\t// out\n        /* \"#utility.yul\":18807:19226   */\n    tag_136:\n        /* \"#utility.yul\":18973:18977   */\n      0x00\n        /* \"#utility.yul\":19011:19013   */\n      0x20\n        /* \"#utility.yul\":19000:19009   */\n      dup3\n        /* \"#utility.yul\":18996:19014   */\n      add\n        /* \"#utility.yul\":18988:19014   */\n      swap1\n      pop\n        /* \"#utility.yul\":19060:19069   */\n      dup2\n        /* \"#utility.yul\":19054:19058   */\n      dup2\n        /* \"#utility.yul\":19050:19070   */\n      sub\n        /* \"#utility.yul\":19046:19047   */\n      0x00\n        /* \"#utility.yul\":19035:19044   */\n      dup4\n        /* \"#utility.yul\":19031:19048   */\n      add\n        /* \"#utility.yul\":19024:19071   */\n      mstore\n        /* \"#utility.yul\":19088:19219   */\n      tag_744\n        /* \"#utility.yul\":19214:19218   */\n      dup2\n        /* \"#utility.yul\":19088:19219   */\n      tag_514\n      jump\t// in\n    tag_744:\n        /* \"#utility.yul\":19080:19219   */\n      swap1\n      pop\n        /* \"#utility.yul\":18807:19226   */\n      swap2\n      swap1\n      pop\n      jump\t// out\n        /* \"#utility.yul\":19232:19404   */\n    tag_515:\n        /* \"#utility.yul\":19372:19396   */\n      0x436f6e7472616374206973206e6f742061637469766500000000000000000000\n        /* \"#utility.yul\":19368:19369   */\n      0x00\n        /* \"#utility.yul\":19360:19366   */\n      dup3\n        /* \"#utility.yul\":19356:19370   */\n      add\n        /* \"#utility.yul\":19349:19397   */\n      mstore\n        /* \"#utility.yul\":19232:19404   */\n      pop\n      jump\t// out\n        /* \"#utility.yul\":19410:19776   */\n    tag_516:\n        /* \"#utility.yul\":19552:19555   */\n      0x00\n        /* \"#utility.yul\":19573:19640   */\n      tag_747\n        /* \"#utility.yul\":19637:19639   */\n      0x16\n        /* \"#utility.yul\":19632:19635   */\n      dup4\n        /* \"#utility.yul\":19573:19640   */\n      tag_473\n      jump\t// in\n    tag_747:\n        /* \"#utility.yul\":19566:19640   */\n      swap2\n      pop\n        /* \"#utility.yul\":19649:19742   */\n      tag_748\n        /* \"#utility.yul\":19738:19741   */\n      dup3\n        /* \"#utility.yul\":19649:19742   */\n      tag_515\n      jump\t// in\n    tag_748:\n        /* \"#utility.yul\":19767:19769   */\n      0x20\n        /* \"#utility.yul\":19762:19765   */\n      dup3\n        /* \"#utility.yul\":19758:19770   */\n      add\n        /* \"#utility.yul\":19751:19770   */\n      swap1\n      pop\n        /* \"#utility.yul\":19410:19776   */\n      swap2\n      swap1\n      pop\n      jump\t// out\n        /* \"#utility.yul\":19782:20201   */\n    tag_140:\n        /* \"#utility.yul\":19948:19952   */\n      0x00\n        /* \"#utility.yul\":19986:19988   */\n      0x20\n        /* \"#utility.yul\":19975:19984   */\n      dup3\n        /* \"#utility.yul\":19971:19989   */\n      add\n        /* \"#utility.yul\":19963:19989   */\n      swap1\n      pop\n        /* \"#utility.yul\":20035:20044   */\n      dup2\n        /* \"#utility.yul\":20029:20033   */\n      dup2\n        /* \"#utility.yul\":20025:20045   */\n      sub\n        /* \"#utility.yul\":20021:20022   */\n      0x00\n        /* \"#utility.yul\":20010:20019   */\n      dup4\n        /* \"#utility.yul\":20006:20023   */\n      add\n        /* \"#utility.yul\":19999:20046   */\n      mstore\n        /* \"#utility.yul\":20063:20194   */\n      tag_750\n        /* \"#utility.yul\":20189:20193   */\n      dup2\n        /* \"#utility.yul\":20063:20194   */\n      tag_516\n      jump\t// in\n    tag_750:\n        /* \"#utility.yul\":20055:20194   */\n      swap1\n      pop\n        /* \"#utility.yul\":19782:20201   */\n      swap2\n      swap1\n      pop\n      jump\t// out\n        /* \"#utility.yul\":20207:20387   */\n    tag_152:\n        /* \"#utility.yul\":20255:20332   */\n      0x4e487b7100000000000000000000000000000000000000000000000000000000\n        /* \"#utility.yul\":20252:20253   */\n      0x00\n        /* \"#utility.yul\":20245:20333   */\n      mstore\n        /* \"#utility.yul\":20352:20356   */\n      0x32\n        /* \"#utility.yul\":20349:20350   */\n      0x04\n        /* \"#utility.yul\":20342:20357   */\n      mstore\n        /* \"#utility.yul\":20376:20380   */\n      0x24\n        /* \"#utility.yul\":20373:20374   */\n      0x00\n        /* \"#utility.yul\":20366:20381   */\n      revert\n        /* \"#utility.yul\":20393:20573   */\n    tag_517:\n        /* \"#utility.yul\":20441:20518   */\n      0x4e487b7100000000000000000000000000000000000000000000000000000000\n        /* \"#utility.yul\":20438:20439   */\n      0x00\n        /* \"#utility.yul\":20431:20519   */\n      mstore\n        /* \"#utility.yul\":20538:20542   */\n      0x11\n        /* \"#utility.yul\":20535:20536   */\n      0x04\n        /* \"#utility.yul\":20528:20543   */\n      mstore\n        /* \"#utility.yul\":20562:20566   */\n      0x24\n        /* \"#utility.yul\":20559:20560   */\n      0x00\n        /* \"#utility.yul\":20552:20567   */\n      revert\n        /* \"#utility.yul\":20579:20989   */\n    tag_155:\n        /* \"#utility.yul\":20619:20626   */\n      0x00\n        /* \"#utility.yul\":20642:20662   */\n      tag_754\n        /* \"#utility.yul\":20660:20661   */\n      dup3\n        /* \"#utility.yul\":20642:20662   */\n      tag_465\n      jump\t// in\n    tag_754:\n        /* \"#utility.yul\":20637:20662   */\n      swap2\n      pop\n        /* \"#utility.yul\":20676:20696   */\n      tag_755\n        /* \"#utility.yul\":20694:20695   */\n      dup4\n        /* \"#utility.yul\":20676:20696   */\n      tag_465\n      jump\t// in\n    tag_755:\n        /* \"#utility.yul\":20671:20696   */\n      swap3\n      pop\n        /* \"#utility.yul\":20731:20732   */\n      dup3\n        /* \"#utility.yul\":20728:20729   */\n      dup3\n        /* \"#utility.yul\":20724:20733   */\n      mul\n        /* \"#utility.yul\":20753:20783   */\n      tag_756\n        /* \"#utility.yul\":20771:20782   */\n      dup2\n        /* \"#utility.yul\":20753:20783   */\n      tag_465\n      jump\t// in\n    tag_756:\n        /* \"#utility.yul\":20742:20783   */\n      swap2\n      pop\n        /* \"#utility.yul\":20932:20933   */\n      dup3\n        /* \"#utility.yul\":20923:20930   */\n      dup3\n        /* \"#utility.yul\":20919:20934   */\n      div\n        /* \"#utility.yul\":20916:20917   */\n      dup5\n        /* \"#utility.yul\":20913:20935   */\n      eq\n        /* \"#utility.yul\":20893:20894   */\n      dup4\n        /* \"#utility.yul\":20886:20895   */\n      iszero\n        /* \"#utility.yul\":20866:20949   */\n      or\n        /* \"#utility.yul\":20843:20982   */\n      tag_757\n      jumpi\n        /* \"#utility.yul\":20962:20980   */\n      tag_758\n      tag_517\n      jump\t// in\n    tag_758:\n        /* \"#utility.yul\":20843:20982   */\n    tag_757:\n        /* \"#utility.yul\":20627:20989   */\n      pop\n        /* \"#utility.yul\":20579:20989   */\n      swap3\n      swap2\n      pop\n      pop\n      jump\t// out\n        /* \"#utility.yul\":20995:21186   */\n    tag_157:\n        /* \"#utility.yul\":21035:21038   */\n      0x00\n        /* \"#utility.yul\":21054:21074   */\n      tag_760\n        /* \"#utility.yul\":21072:21073   */\n      dup3\n        /* \"#utility.yul\":21054:21074   */\n      tag_465\n      jump\t// in\n    tag_760:\n        /* \"#utility.yul\":21049:21074   */\n      swap2\n      pop\n        /* \"#utility.yul\":21088:21108   */\n      tag_761\n        /* \"#utility.yul\":21106:21107   */\n      dup4\n        /* \"#utility.yul\":21088:21108   */\n      tag_465\n      jump\t// in\n    tag_761:\n        /* \"#utility.yul\":21083:21108   */\n      swap3\n      pop\n        /* \"#utility.yul\":21131:21132   */\n      dup3\n        /* \"#utility.yul\":21128:21129   */\n      dup3\n        /* \"#utility.yul\":21124:21133   */\n      add\n        /* \"#utility.yul\":21117:21133   */\n      swap1\n      pop\n        /* \"#utility.yul\":21152:21155   */\n      dup1\n        /* \"#utility.yul\":21149:21150   */\n      dup3\n        /* \"#utility.yul\":21146:21156   */\n      gt\n        /* \"#utility.yul\":21143:21179   */\n      iszero\n      tag_762\n      jumpi\n        /* \"#utility.yul\":21159:21177   */\n      tag_763\n      tag_517\n      jump\t// in\n    tag_763:\n        /* \"#utility.yul\":21143:21179   */\n    tag_762:\n        /* \"#utility.yul\":20995:21186   */\n      swap3\n      swap2\n      pop\n      pop\n      jump\t// out\n        /* \"#utility.yul\":21192:21372   */\n    tag_518:\n        /* \"#utility.yul\":21240:21317   */\n      0x4e487b7100000000000000000000000000000000000000000000000000000000\n        /* \"#utility.yul\":21237:21238   */\n      0x00\n        /* \"#utility.yul\":21230:21318   */\n      mstore\n        /* \"#utility.yul\":21337:21341   */\n      0x22\n        /* \"#utility.yul\":21334:21335   */\n      0x04\n        /* \"#utility.yul\":21327:21342   */\n      mstore\n        /* \"#utility.yul\":21361:21365   */\n      0x24\n        /* \"#utility.yul\":21358:21359   */\n      0x00\n        /* \"#utility.yul\":21351:21366   */\n      revert\n        /* \"#utility.yul\":21378:21698   */\n    tag_159:\n        /* \"#utility.yul\":21422:21428   */\n      0x00\n        /* \"#utility.yul\":21459:21460   */\n      0x02\n        /* \"#utility.yul\":21453:21457   */\n      dup3\n        /* \"#utility.yul\":21449:21461   */\n      div\n        /* \"#utility.yul\":21439:21461   */\n      swap1\n      pop\n        /* \"#utility.yul\":21506:21507   */\n      0x01\n        /* \"#utility.yul\":21500:21504   */\n      dup3\n        /* \"#utility.yul\":21496:21508   */\n      and\n        /* \"#utility.yul\":21527:21545   */\n      dup1\n        /* \"#utility.yul\":21517:21598   */\n      tag_766\n      jumpi\n        /* \"#utility.yul\":21583:21587   */\n      0x7f\n        /* \"#utility.yul\":21575:21581   */\n      dup3\n        /* \"#utility.yul\":21571:21588   */\n      and\n        /* \"#utility.yul\":21561:21588   */\n      swap2\n      pop\n        /* \"#utility.yul\":21517:21598   */\n    tag_766:\n        /* \"#utility.yul\":21645:21647   */\n      0x20\n        /* \"#utility.yul\":21637:21643   */\n      dup3\n        /* \"#utility.yul\":21634:21648   */\n      lt\n        /* \"#utility.yul\":21614:21632   */\n      dup2\n        /* \"#utility.yul\":21611:21649   */\n      sub\n        /* \"#utility.yul\":21608:21692   */\n      tag_767\n      jumpi\n        /* \"#utility.yul\":21664:21682   */\n      tag_768\n      tag_518\n      jump\t// in\n    tag_768:\n        /* \"#utility.yul\":21608:21692   */\n    tag_767:\n        /* \"#utility.yul\":21429:21698   */\n      pop\n        /* \"#utility.yul\":21378:21698   */\n      swap2\n      swap1\n      pop\n      jump\t// out\n        /* \"#utility.yul\":21704:21939   */\n    tag_519:\n        /* \"#utility.yul\":21844:21878   */\n      0x54686520636f6e7472616374206f776e65722063616e277420706572666f726d\n        /* \"#utility.yul\":21840:21841   */\n      0x00\n        /* \"#utility.yul\":21832:21838   */\n      dup3\n        /* \"#utility.yul\":21828:21842   */\n      add\n        /* \"#utility.yul\":21821:21879   */\n      mstore\n        /* \"#utility.yul\":21913:21931   */\n      0x206675727468657220616374696f6e7300000000000000000000000000000000\n        /* \"#utility.yul\":21908:21910   */\n      0x20\n        /* \"#utility.yul\":21900:21906   */\n      dup3\n        /* \"#utility.yul\":21896:21911   */\n      add\n        /* \"#utility.yul\":21889:21932   */\n      mstore\n        /* \"#utility.yul\":21704:21939   */\n      pop\n      jump\t// out\n        /* \"#utility.yul\":21945:22311   */\n    tag_520:\n        /* \"#utility.yul\":22087:22090   */\n      0x00\n        /* \"#utility.yul\":22108:22175   */\n      tag_771\n        /* \"#utility.yul\":22172:22174   */\n      0x30\n        /* \"#utility.yul\":22167:22170   */\n      dup4\n        /* \"#utility.yul\":22108:22175   */\n      tag_473\n      jump\t// in\n    tag_771:\n        /* \"#utility.yul\":22101:22175   */\n      swap2\n      pop\n        /* \"#utility.yul\":22184:22277   */\n      tag_772\n        /* \"#utility.yul\":22273:22276   */\n      dup3\n        /* \"#utility.yul\":22184:22277   */\n      tag_519\n      jump\t// in\n    tag_772:\n        /* \"#utility.yul\":22302:22304   */\n      0x40\n        /* \"#utility.yul\":22297:22300   */\n      dup3\n        /* \"#utility.yul\":22293:22305   */\n      add\n        /* \"#utility.yul\":22286:22305   */\n      swap1\n      pop\n        /* \"#utility.yul\":21945:22311   */\n      swap2\n      swap1\n      pop\n      jump\t// out\n        /* \"#utility.yul\":22317:22736   */\n    tag_167:\n        /* \"#utility.yul\":22483:22487   */\n      0x00\n        /* \"#utility.yul\":22521:22523   */\n      0x20\n        /* \"#utility.yul\":22510:22519   */\n      dup3\n        /* \"#utility.yul\":22506:22524   */\n      add\n        /* \"#utility.yul\":22498:22524   */\n      swap1\n      pop\n        /* \"#utility.yul\":22570:22579   */\n      dup2\n        /* \"#utility.yul\":22564:22568   */\n      dup2\n        /* \"#utility.yul\":22560:22580   */\n      sub\n        /* \"#utility.yul\":22556:22557   */\n      0x00\n        /* \"#utility.yul\":22545:22554   */\n      dup4\n        /* \"#utility.yul\":22541:22558   */\n      add\n        /* \"#utility.yul\":22534:22581   */\n      mstore\n        /* \"#utility.yul\":22598:22729   */\n      tag_774\n        /* \"#utility.yul\":22724:22728   */\n      dup2\n        /* \"#utility.yul\":22598:22729   */\n      tag_520\n      jump\t// in\n    tag_774:\n        /* \"#utility.yul\":22590:22729   */\n      swap1\n      pop\n        /* \"#utility.yul\":22317:22736   */\n      swap2\n      swap1\n      pop\n      jump\t// out\n        /* \"#utility.yul\":22742:22909   */\n    tag_521:\n        /* \"#utility.yul\":22882:22901   */\n      0x416464726573732069732062616e6e6564000000000000000000000000000000\n        /* \"#utility.yul\":22878:22879   */\n      0x00\n        /* \"#utility.yul\":22870:22876   */\n      dup3\n        /* \"#utility.yul\":22866:22880   */\n      add\n        /* \"#utility.yul\":22859:22902   */\n      mstore\n        /* \"#utility.yul\":22742:22909   */\n      pop\n      jump\t// out\n        /* \"#utility.yul\":22915:23281   */\n    tag_522:\n        /* \"#utility.yul\":23057:23060   */\n      0x00\n        /* \"#utility.yul\":23078:23145   */\n      tag_777\n        /* \"#utility.yul\":23142:23144   */\n      0x11\n        /* \"#utility.yul\":23137:23140   */\n      dup4\n        /* \"#utility.yul\":23078:23145   */\n      tag_473\n      jump\t// in\n    tag_777:\n        /* \"#utility.yul\":23071:23145   */\n      swap2\n      pop\n        /* \"#utility.yul\":23154:23247   */\n      tag_778\n        /* \"#utility.yul\":23243:23246   */\n      dup3\n        /* \"#utility.yul\":23154:23247   */\n      tag_521\n      jump\t// in\n    tag_778:\n        /* \"#utility.yul\":23272:23274   */\n      0x20\n        /* \"#utility.yul\":23267:23270   */\n      dup3\n        /* \"#utility.yul\":23263:23275   */\n      add\n        /* \"#utility.yul\":23256:23275   */\n      swap1\n      pop\n        /* \"#utility.yul\":22915:23281   */\n      swap2\n      swap1\n      pop\n      jump\t// out\n        /* \"#utility.yul\":23287:23706   */\n    tag_171:\n        /* \"#utility.yul\":23453:23457   */\n      0x00\n        /* \"#utility.yul\":23491:23493   */\n      0x20\n        /* \"#utility.yul\":23480:23489   */\n      dup3\n        /* \"#utility.yul\":23476:23494   */\n      add\n        /* \"#utility.yul\":23468:23494   */\n      swap1\n      pop\n        /* \"#utility.yul\":23540:23549   */\n      dup2\n        /* \"#utility.yul\":23534:23538   */\n      dup2\n        /* \"#utility.yul\":23530:23550   */\n      sub\n        /* \"#utility.yul\":23526:23527   */\n      0x00\n        /* \"#utility.yul\":23515:23524   */\n      dup4\n        /* \"#utility.yul\":23511:23528   */\n      add\n        /* \"#utility.yul\":23504:23551   */\n      mstore\n        /* \"#utility.yul\":23568:23699   */\n      tag_780\n        /* \"#utility.yul\":23694:23698   */\n      dup2\n        /* \"#utility.yul\":23568:23699   */\n      tag_522\n      jump\t// in\n    tag_780:\n        /* \"#utility.yul\":23560:23699   */\n      swap1\n      pop\n        /* \"#utility.yul\":23287:23706   */\n      swap2\n      swap1\n      pop\n      jump\t// out\n        /* \"#utility.yul\":23712:23884   */\n    tag_523:\n        /* \"#utility.yul\":23852:23876   */\n      0x43616d706169676e206973206e6f742061637469766500000000000000000000\n        /* \"#utility.yul\":23848:23849   */\n      0x00\n        /* \"#utility.yul\":23840:23846   */\n      dup3\n        /* \"#utility.yul\":23836:23850   */\n      add\n        /* \"#utility.yul\":23829:23877   */\n      mstore\n        /* \"#utility.yul\":23712:23884   */\n      pop\n      jump\t// out\n        /* \"#utility.yul\":23890:24256   */\n    tag_524:\n        /* \"#utility.yul\":24032:24035   */\n      0x00\n        /* \"#utility.yul\":24053:24120   */\n      tag_783\n        /* \"#utility.yul\":24117:24119   */\n      0x16\n        /* \"#utility.yul\":24112:24115   */\n      dup4\n        /* \"#utility.yul\":24053:24120   */\n      tag_473\n      jump\t// in\n    tag_783:\n        /* \"#utility.yul\":24046:24120   */\n      swap2\n      pop\n        /* \"#utility.yul\":24129:24222   */\n      tag_784\n        /* \"#utility.yul\":24218:24221   */\n      dup3\n        /* \"#utility.yul\":24129:24222   */\n      tag_523\n      jump\t// in\n    tag_784:\n        /* \"#utility.yul\":24247:24249   */\n      0x20\n        /* \"#utility.yul\":24242:24245   */\n      dup3\n        /* \"#utility.yul\":24238:24250   */\n      add\n        /* \"#utility.yul\":24231:24250   */\n      swap1\n      pop\n        /* \"#utility.yul\":23890:24256   */\n      swap2\n      swap1\n      pop\n      jump\t// out\n        /* \"#utility.yul\":24262:24681   */\n    tag_175:\n        /* \"#utility.yul\":24428:24432   */\n      0x00\n        /* \"#utility.yul\":24466:24468   */\n      0x20\n        /* \"#utility.yul\":24455:24464   */\n      dup3\n        /* \"#utility.yul\":24451:24469   */\n      add\n        /* \"#utility.yul\":24443:24469   */\n      swap1\n      pop\n        /* \"#utility.yul\":24515:24524   */\n      dup2\n        /* \"#utility.yul\":24509:24513   */\n      dup2\n        /* \"#utility.yul\":24505:24525   */\n      sub\n        /* \"#utility.yul\":24501:24502   */\n      0x00\n        /* \"#utility.yul\":24490:24499   */\n      dup4\n        /* \"#utility.yul\":24486:24503   */\n      add\n        /* \"#utility.yul\":24479:24526   */\n      mstore\n        /* \"#utility.yul\":24543:24674   */\n      tag_786\n        /* \"#utility.yul\":24669:24673   */\n      dup2\n        /* \"#utility.yul\":24543:24674   */\n      tag_524\n      jump\t// in\n    tag_786:\n        /* \"#utility.yul\":24535:24674   */\n      swap1\n      pop\n        /* \"#utility.yul\":24262:24681   */\n      swap2\n      swap1\n      pop\n      jump\t// out\n        /* \"#utility.yul\":24687:24858   */\n    tag_525:\n        /* \"#utility.yul\":24827:24850   */\n      0x43616d706169676e2069732063616e63656c6c65640000000000000000000000\n        /* \"#utility.yul\":24823:24824   */\n      0x00\n        /* \"#utility.yul\":24815:24821   */\n      dup3\n        /* \"#utility.yul\":24811:24825   */\n      add\n        /* \"#utility.yul\":24804:24851   */\n      mstore\n        /* \"#utility.yul\":24687:24858   */\n      pop\n      jump\t// out\n        /* \"#utility.yul\":24864:25230   */\n    tag_526:\n        /* \"#utility.yul\":25006:25009   */\n      0x00\n        /* \"#utility.yul\":25027:25094   */\n      tag_789\n        /* \"#utility.yul\":25091:25093   */\n      0x15\n        /* \"#utility.yul\":25086:25089   */\n      dup4\n        /* \"#utility.yul\":25027:25094   */\n      tag_473\n      jump\t// in\n    tag_789:\n        /* \"#utility.yul\":25020:25094   */\n      swap2\n      pop\n        /* \"#utility.yul\":25103:25196   */\n      tag_790\n        /* \"#utility.yul\":25192:25195   */\n      dup3\n        /* \"#utility.yul\":25103:25196   */\n      tag_525\n      jump\t// in\n    tag_790:\n        /* \"#utility.yul\":25221:25223   */\n      0x20\n        /* \"#utility.yul\":25216:25219   */\n      dup3\n        /* \"#utility.yul\":25212:25224   */\n      add\n        /* \"#utility.yul\":25205:25224   */\n      swap1\n      pop\n        /* \"#utility.yul\":24864:25230   */\n      swap2\n      swap1\n      pop\n      jump\t// out\n        /* \"#utility.yul\":25236:25655   */\n    tag_179:\n        /* \"#utility.yul\":25402:25406   */\n      0x00\n        /* \"#utility.yul\":25440:25442   */\n      0x20\n        /* \"#utility.yul\":25429:25438   */\n      dup3\n        /* \"#utility.yul\":25425:25443   */\n      add\n        /* \"#utility.yul\":25417:25443   */\n      swap1\n      pop\n        /* \"#utility.yul\":25489:25498   */\n      dup2\n        /* \"#utility.yul\":25483:25487   */\n      dup2\n        /* \"#utility.yul\":25479:25499   */\n      sub\n        /* \"#utility.yul\":25475:25476   */\n      0x00\n        /* \"#utility.yul\":25464:25473   */\n      dup4\n        /* \"#utility.yul\":25460:25477   */\n      add\n        /* \"#utility.yul\":25453:25500   */\n      mstore\n        /* \"#utility.yul\":25517:25648   */\n      tag_792\n        /* \"#utility.yul\":25643:25647   */\n      dup2\n        /* \"#utility.yul\":25517:25648   */\n      tag_526\n      jump\t// in\n    tag_792:\n        /* \"#utility.yul\":25509:25648   */\n      swap1\n      pop\n        /* \"#utility.yul\":25236:25655   */\n      swap2\n      swap1\n      pop\n      jump\t// out\n        /* \"#utility.yul\":25661:25840   */\n    tag_527:\n        /* \"#utility.yul\":25801:25832   */\n      0x43616d706169676e20697320616c726561647920636f6d706c65746564000000\n        /* \"#utility.yul\":25797:25798   */\n      0x00\n        /* \"#utility.yul\":25789:25795   */\n      dup3\n        /* \"#utility.yul\":25785:25799   */\n      add\n        /* \"#utility.yul\":25778:25833   */\n      mstore\n        /* \"#utility.yul\":25661:25840   */\n      pop\n      jump\t// out\n        /* \"#utility.yul\":25846:26212   */\n    tag_528:\n        /* \"#utility.yul\":25988:25991   */\n      0x00\n        /* \"#utility.yul\":26009:26076   */\n      tag_795\n        /* \"#utility.yul\":26073:26075   */\n      0x1d\n        /* \"#utility.yul\":26068:26071   */\n      dup4\n        /* \"#utility.yul\":26009:26076   */\n      tag_473\n      jump\t// in\n    tag_795:\n        /* \"#utility.yul\":26002:26076   */\n      swap2\n      pop\n        /* \"#utility.yul\":26085:26178   */\n      tag_796\n        /* \"#utility.yul\":26174:26177   */\n      dup3\n        /* \"#utility.yul\":26085:26178   */\n      tag_527\n      jump\t// in\n    tag_796:\n        /* \"#utility.yul\":26203:26205   */\n      0x20\n        /* \"#utility.yul\":26198:26201   */\n      dup3\n        /* \"#utility.yul\":26194:26206   */\n      add\n        /* \"#utility.yul\":26187:26206   */\n      swap1\n      pop\n        /* \"#utility.yul\":25846:26212   */\n      swap2\n      swap1\n      pop\n      jump\t// out\n        /* \"#utility.yul\":26218:26637   */\n    tag_183:\n        /* \"#utility.yul\":26384:26388   */\n      0x00\n        /* \"#utility.yul\":26422:26424   */\n      0x20\n        /* \"#utility.yul\":26411:26420   */\n      dup3\n        /* \"#utility.yul\":26407:26425   */\n      add\n        /* \"#utility.yul\":26399:26425   */\n      swap1\n      pop\n        /* \"#utility.yul\":26471:26480   */\n      dup2\n        /* \"#utility.yul\":26465:26469   */\n      dup2\n        /* \"#utility.yul\":26461:26481   */\n      sub\n        /* \"#utility.yul\":26457:26458   */\n      0x00\n        /* \"#utility.yul\":26446:26455   */\n      dup4\n        /* \"#utility.yul\":26442:26459   */\n      add\n        /* \"#utility.yul\":26435:26482   */\n      mstore\n        /* \"#utility.yul\":26499:26630   */\n      tag_798\n        /* \"#utility.yul\":26625:26629   */\n      dup2\n        /* \"#utility.yul\":26499:26630   */\n      tag_528\n      jump\t// in\n    tag_798:\n        /* \"#utility.yul\":26491:26630   */\n      swap1\n      pop\n        /* \"#utility.yul\":26218:26637   */\n      swap2\n      swap1\n      pop\n      jump\t// out\n        /* \"#utility.yul\":26643:26820   */\n    tag_529:\n        /* \"#utility.yul\":26783:26812   */\n      0x54686520656e7472657072656e6575722063616e27742066756e640000000000\n        /* \"#utility.yul\":26779:26780   */\n      0x00\n        /* \"#utility.yul\":26771:26777   */\n      dup3\n        /* \"#utility.yul\":26767:26781   */\n      add\n        /* \"#utility.yul\":26760:26813   */\n      mstore\n        /* \"#utility.yul\":26643:26820   */\n      pop\n      jump\t// out\n        /* \"#utility.yul\":26826:27192   */\n    tag_530:\n        /* \"#utility.yul\":26968:26971   */\n      0x00\n        /* \"#utility.yul\":26989:27056   */\n      tag_801\n        /* \"#utility.yul\":27053:27055   */\n      0x1b\n        /* \"#utility.yul\":27048:27051   */\n      dup4\n        /* \"#utility.yul\":26989:27056   */\n      tag_473\n      jump\t// in\n    tag_801:\n        /* \"#utility.yul\":26982:27056   */\n      swap2\n      pop\n        /* \"#utility.yul\":27065:27158   */\n      tag_802\n        /* \"#utility.yul\":27154:27157   */\n      dup3\n        /* \"#utility.yul\":27065:27158   */\n      tag_529\n      jump\t// in\n    tag_802:\n        /* \"#utility.yul\":27183:27185   */\n      0x20\n        /* \"#utility.yul\":27178:27181   */\n      dup3\n        /* \"#utility.yul\":27174:27186   */\n      add\n        /* \"#utility.yul\":27167:27186   */\n      swap1\n      pop\n        /* \"#utility.yul\":26826:27192   */\n      swap2\n      swap1\n      pop\n      jump\t// out\n        /* \"#utility.yul\":27198:27617   */\n    tag_190:\n        /* \"#utility.yul\":27364:27368   */\n      0x00\n        /* \"#utility.yul\":27402:27404   */\n      0x20\n        /* \"#utility.yul\":27391:27400   */\n      dup3\n        /* \"#utility.yul\":27387:27405   */\n      add\n        /* \"#utility.yul\":27379:27405   */\n      swap1\n      pop\n        /* \"#utility.yul\":27451:27460   */\n      dup2\n        /* \"#utility.yul\":27445:27449   */\n      dup2\n        /* \"#utility.yul\":27441:27461   */\n      sub\n        /* \"#utility.yul\":27437:27438   */\n      0x00\n        /* \"#utility.yul\":27426:27435   */\n      dup4\n        /* \"#utility.yul\":27422:27439   */\n      add\n        /* \"#utility.yul\":27415:27462   */\n      mstore\n        /* \"#utility.yul\":27479:27610   */\n      tag_804\n        /* \"#utility.yul\":27605:27609   */\n      dup2\n        /* \"#utility.yul\":27479:27610   */\n      tag_530\n      jump\t// in\n    tag_804:\n        /* \"#utility.yul\":27471:27610   */\n      swap1\n      pop\n        /* \"#utility.yul\":27198:27617   */\n      swap2\n      swap1\n      pop\n      jump\t// out\n        /* \"#utility.yul\":27623:27797   */\n    tag_531:\n        /* \"#utility.yul\":27763:27789   */\n      0x496e636f7272656374205765692076616c75652073656e740000000000000000\n        /* \"#utility.yul\":27759:27760   */\n      0x00\n        /* \"#utility.yul\":27751:27757   */\n      dup3\n        /* \"#utility.yul\":27747:27761   */\n      add\n        /* \"#utility.yul\":27740:27790   */\n      mstore\n        /* \"#utility.yul\":27623:27797   */\n      pop\n      jump\t// out\n        /* \"#utility.yul\":27803:28169   */\n    tag_532:\n        /* \"#utility.yul\":27945:27948   */\n      0x00\n        /* \"#utility.yul\":27966:28033   */\n      tag_807\n        /* \"#utility.yul\":28030:28032   */\n      0x18\n        /* \"#utility.yul\":28025:28028   */\n      dup4\n        /* \"#utility.yul\":27966:28033   */\n      tag_473\n      jump\t// in\n    tag_807:\n        /* \"#utility.yul\":27959:28033   */\n      swap2\n      pop\n        /* \"#utility.yul\":28042:28135   */\n      tag_808\n        /* \"#utility.yul\":28131:28134   */\n      dup3\n        /* \"#utility.yul\":28042:28135   */\n      tag_531\n      jump\t// in\n    tag_808:\n        /* \"#utility.yul\":28160:28162   */\n      0x20\n        /* \"#utility.yul\":28155:28158   */\n      dup3\n        /* \"#utility.yul\":28151:28163   */\n      add\n        /* \"#utility.yul\":28144:28163   */\n      swap1\n      pop\n        /* \"#utility.yul\":27803:28169   */\n      swap2\n      swap1\n      pop\n      jump\t// out\n        /* \"#utility.yul\":28175:28594   */\n    tag_194:\n        /* \"#utility.yul\":28341:28345   */\n      0x00\n        /* \"#utility.yul\":28379:28381   */\n      0x20\n        /* \"#utility.yul\":28368:28377   */\n      dup3\n        /* \"#utility.yul\":28364:28382   */\n      add\n        /* \"#utility.yul\":28356:28382   */\n      swap1\n      pop\n        /* \"#utility.yul\":28428:28437   */\n      dup2\n        /* \"#utility.yul\":28422:28426   */\n      dup2\n        /* \"#utility.yul\":28418:28438   */\n      sub\n        /* \"#utility.yul\":28414:28415   */\n      0x00\n        /* \"#utility.yul\":28403:28412   */\n      dup4\n        /* \"#utility.yul\":28399:28416   */\n      add\n        /* \"#utility.yul\":28392:28439   */\n      mstore\n        /* \"#utility.yul\":28456:28587   */\n      tag_810\n        /* \"#utility.yul\":28582:28586   */\n      dup2\n        /* \"#utility.yul\":28456:28587   */\n      tag_532\n      jump\t// in\n    tag_810:\n        /* \"#utility.yul\":28448:28587   */\n      swap1\n      pop\n        /* \"#utility.yul\":28175:28594   */\n      swap2\n      swap1\n      pop\n      jump\t// out\n        /* \"#utility.yul\":28600:29042   */\n    tag_200:\n        /* \"#utility.yul\":28749:28753   */\n      0x00\n        /* \"#utility.yul\":28787:28789   */\n      0x60\n        /* \"#utility.yul\":28776:28785   */\n      dup3\n        /* \"#utility.yul\":28772:28790   */\n      add\n        /* \"#utility.yul\":28764:28790   */\n      swap1\n      pop\n        /* \"#utility.yul\":28800:28871   */\n      tag_812\n        /* \"#utility.yul\":28868:28869   */\n      0x00\n        /* \"#utility.yul\":28857:28866   */\n      dup4\n        /* \"#utility.yul\":28853:28870   */\n      add\n        /* \"#utility.yul\":28844:28850   */\n      dup7\n        /* \"#utility.yul\":28800:28871   */\n      tag_468\n      jump\t// in\n    tag_812:\n        /* \"#utility.yul\":28881:28953   */\n      tag_813\n        /* \"#utility.yul\":28949:28951   */\n      0x20\n        /* \"#utility.yul\":28938:28947   */\n      dup4\n        /* \"#utility.yul\":28934:28952   */\n      add\n        /* \"#utility.yul\":28925:28931   */\n      dup6\n        /* \"#utility.yul\":28881:28953   */\n      tag_471\n      jump\t// in\n    tag_813:\n        /* \"#utility.yul\":28963:29035   */\n      tag_814\n        /* \"#utility.yul\":29031:29033   */\n      0x40\n        /* \"#utility.yul\":29020:29029   */\n      dup4\n        /* \"#utility.yul\":29016:29034   */\n      add\n        /* \"#utility.yul\":29007:29013   */\n      dup5\n        /* \"#utility.yul\":28963:29035   */\n      tag_468\n      jump\t// in\n    tag_814:\n        /* \"#utility.yul\":28600:29042   */\n      swap5\n      swap4\n      pop\n      pop\n      pop\n      pop\n      jump\t// out\n        /* \"#utility.yul\":29048:29281   */\n    tag_207:\n        /* \"#utility.yul\":29087:29090   */\n      0x00\n        /* \"#utility.yul\":29110:29134   */\n      tag_816\n        /* \"#utility.yul\":29128:29133   */\n      dup3\n        /* \"#utility.yul\":29110:29134   */\n      tag_465\n      jump\t// in\n    tag_816:\n        /* \"#utility.yul\":29101:29134   */\n      swap2\n      pop\n        /* \"#utility.yul\":29156:29222   */\n      0xffffffffffffffffffffffffffffffffffffffffffffffffffffffffffffffff\n        /* \"#utility.yul\":29149:29154   */\n      dup3\n        /* \"#utility.yul\":29146:29223   */\n      sub\n        /* \"#utility.yul\":29143:29246   */\n      tag_817\n      jumpi\n        /* \"#utility.yul\":29226:29244   */\n      tag_818\n      tag_517\n      jump\t// in\n    tag_818:\n        /* \"#utility.yul\":29143:29246   */\n    tag_817:\n        /* \"#utility.yul\":29273:29274   */\n      0x01\n        /* \"#utility.yul\":29266:29271   */\n      dup3\n        /* \"#utility.yul\":29262:29275   */\n      add\n        /* \"#utility.yul\":29255:29275   */\n      swap1\n      pop\n        /* \"#utility.yul\":29048:29281   */\n      swap2\n      swap1\n      pop\n      jump\t// out\n        /* \"#utility.yul\":29287:29459   */\n    tag_533:\n        /* \"#utility.yul\":29427:29451   */\n      0x496e636f72726563742063616d706169676e2066656500000000000000000000\n        /* \"#utility.yul\":29423:29424   */\n      0x00\n        /* \"#utility.yul\":29415:29421   */\n      dup3\n        /* \"#utility.yul\":29411:29425   */\n      add\n        /* \"#utility.yul\":29404:29452   */\n      mstore\n        /* \"#utility.yul\":29287:29459   */\n      pop\n      jump\t// out\n        /* \"#utility.yul\":29465:29831   */\n    tag_534:\n        /* \"#utility.yul\":29607:29610   */\n      0x00\n        /* \"#utility.yul\":29628:29695   */\n      tag_821\n        /* \"#utility.yul\":29692:29694   */\n      0x16\n        /* \"#utility.yul\":29687:29690   */\n      dup4\n        /* \"#utility.yul\":29628:29695   */\n      tag_473\n      jump\t// in\n    tag_821:\n        /* \"#utility.yul\":29621:29695   */\n      swap2\n      pop\n        /* \"#utility.yul\":29704:29797   */\n      tag_822\n        /* \"#utility.yul\":29793:29796   */\n      dup3\n        /* \"#utility.yul\":29704:29797   */\n      tag_533\n      jump\t// in\n    tag_822:\n        /* \"#utility.yul\":29822:29824   */\n      0x20\n        /* \"#utility.yul\":29817:29820   */\n      dup3\n        /* \"#utility.yul\":29813:29825   */\n      add\n        /* \"#utility.yul\":29806:29825   */\n      swap1\n      pop\n        /* \"#utility.yul\":29465:29831   */\n      swap2\n      swap1\n      pop\n      jump\t// out\n        /* \"#utility.yul\":29837:30256   */\n    tag_233:\n        /* \"#utility.yul\":30003:30007   */\n      0x00\n        /* \"#utility.yul\":30041:30043   */\n      0x20\n        /* \"#utility.yul\":30030:30039   */\n      dup3\n        /* \"#utility.yul\":30026:30044   */\n      add\n        /* \"#utility.yul\":30018:30044   */\n      swap1\n      pop\n        /* \"#utility.yul\":30090:30099   */\n      dup2\n        /* \"#utility.yul\":30084:30088   */\n      dup2\n        /* \"#utility.yul\":30080:30100   */\n      sub\n        /* \"#utility.yul\":30076:30077   */\n      0x00\n        /* \"#utility.yul\":30065:30074   */\n      dup4\n        /* \"#utility.yul\":30061:30078   */\n      add\n        /* \"#utility.yul\":30054:30101   */\n      mstore\n        /* \"#utility.yul\":30118:30249   */\n      tag_824\n        /* \"#utility.yul\":30244:30248   */\n      dup2\n        /* \"#utility.yul\":30118:30249   */\n      tag_534\n      jump\t// in\n    tag_824:\n        /* \"#utility.yul\":30110:30249   */\n      swap1\n      pop\n        /* \"#utility.yul\":29837:30256   */\n      swap2\n      swap1\n      pop\n      jump\t// out\n        /* \"#utility.yul\":30262:30487   */\n    tag_535:\n        /* \"#utility.yul\":30402:30436   */\n      0x546f74616c20736861726573206d757374206265206772656174657220746861\n        /* \"#utility.yul\":30398:30399   */\n      0x00\n        /* \"#utility.yul\":30390:30396   */\n      dup3\n        /* \"#utility.yul\":30386:30400   */\n      add\n        /* \"#utility.yul\":30379:30437   */\n      mstore\n        /* \"#utility.yul\":30471:30479   */\n      0x6e207a65726f0000000000000000000000000000000000000000000000000000\n        /* \"#utility.yul\":30466:30468   */\n      0x20\n        /* \"#utility.yul\":30458:30464   */\n      dup3\n        /* \"#utility.yul\":30454:30469   */\n      add\n        /* \"#utility.yul\":30447:30480   */\n      mstore\n        /* \"#utility.yul\":30262:30487   */\n      pop\n      jump\t// out\n        /* \"#utility.yul\":30493:30859   */\n    tag_536:\n        /* \"#utility.yul\":30635:30638   */\n      0x00\n        /* \"#utility.yul\":30656:30723   */\n      tag_827\n        /* \"#utility.yul\":30720:30722   */\n      0x26\n        /* \"#utility.yul\":30715:30718   */\n      dup4\n        /* \"#utility.yul\":30656:30723   */\n      tag_473\n      jump\t// in\n    tag_827:\n        /* \"#utility.yul\":30649:30723   */\n      swap2\n      pop\n        /* \"#utility.yul\":30732:30825   */\n      tag_828\n        /* \"#utility.yul\":30821:30824   */\n      dup3\n        /* \"#utility.yul\":30732:30825   */\n      tag_535\n      jump\t// in\n    tag_828:\n        /* \"#utility.yul\":30850:30852   */\n      0x40\n        /* \"#utility.yul\":30845:30848   */\n      dup3\n        /* \"#utility.yul\":30841:30853   */\n      add\n        /* \"#utility.yul\":30834:30853   */\n      swap1\n      pop\n        /* \"#utility.yul\":30493:30859   */\n      swap2\n      swap1\n      pop\n      jump\t// out\n        /* \"#utility.yul\":30865:31284   */\n    tag_237:\n        /* \"#utility.yul\":31031:31035   */\n      0x00\n        /* \"#utility.yul\":31069:31071   */\n      0x20\n        /* \"#utility.yul\":31058:31067   */\n      dup3\n        /* \"#utility.yul\":31054:31072   */\n      add\n        /* \"#utility.yul\":31046:31072   */\n      swap1\n      pop\n        /* \"#utility.yul\":31118:31127   */\n      dup2\n        /* \"#utility.yul\":31112:31116   */\n      dup2\n        /* \"#utility.yul\":31108:31128   */\n      sub\n        /* \"#utility.yul\":31104:31105   */\n      0x00\n        /* \"#utility.yul\":31093:31102   */\n      dup4\n        /* \"#utility.yul\":31089:31106   */\n      add\n        /* \"#utility.yul\":31082:31129   */\n      mstore\n        /* \"#utility.yul\":31146:31277   */\n      tag_830\n        /* \"#utility.yul\":31272:31276   */\n      dup2\n        /* \"#utility.yul\":31146:31277   */\n      tag_536\n      jump\t// in\n    tag_830:\n        /* \"#utility.yul\":31138:31277   */\n      swap1\n      pop\n        /* \"#utility.yul\":30865:31284   */\n      swap2\n      swap1\n      pop\n      jump\t// out\n        /* \"#utility.yul\":31290:31431   */\n    tag_537:\n        /* \"#utility.yul\":31339:31343   */\n      0x00\n        /* \"#utility.yul\":31362:31365   */\n      dup2\n        /* \"#utility.yul\":31354:31365   */\n      swap1\n      pop\n        /* \"#utility.yul\":31385:31388   */\n      dup2\n        /* \"#utility.yul\":31382:31383   */\n      0x00\n        /* \"#utility.yul\":31375:31389   */\n      mstore\n        /* \"#utility.yul\":31419:31423   */\n      0x20\n        /* \"#utility.yul\":31416:31417   */\n      0x00\n        /* \"#utility.yul\":31406:31424   */\n      keccak256\n        /* \"#utility.yul\":31398:31424   */\n      swap1\n      pop\n        /* \"#utility.yul\":31290:31431   */\n      swap2\n      swap1\n      pop\n      jump\t// out\n        /* \"#utility.yul\":31437:31530   */\n    tag_538:\n        /* \"#utility.yul\":31474:31480   */\n      0x00\n        /* \"#utility.yul\":31521:31523   */\n      0x20\n        /* \"#utility.yul\":31516:31518   */\n      0x1f\n        /* \"#utility.yul\":31509:31514   */\n      dup4\n        /* \"#utility.yul\":31505:31519   */\n      add\n        /* \"#utility.yul\":31501:31524   */\n      div\n        /* \"#utility.yul\":31491:31524   */\n      swap1\n      pop\n        /* \"#utility.yul\":31437:31530   */\n      swap2\n      swap1\n      pop\n      jump\t// out\n        /* \"#utility.yul\":31536:31643   */\n    tag_539:\n        /* \"#utility.yul\":31580:31588   */\n      0x00\n        /* \"#utility.yul\":31630:31635   */\n      dup3\n        /* \"#utility.yul\":31624:31628   */\n      dup3\n        /* \"#utility.yul\":31620:31636   */\n      shl\n        /* \"#utility.yul\":31599:31636   */\n      swap1\n      pop\n        /* \"#utility.yul\":31536:31643   */\n      swap3\n      swap2\n      pop\n      pop\n      jump\t// out\n        /* \"#utility.yul\":31649:32042   */\n    tag_540:\n        /* \"#utility.yul\":31718:31724   */\n      0x00\n        /* \"#utility.yul\":31768:31769   */\n      0x08\n        /* \"#utility.yul\":31756:31766   */\n      dup4\n        /* \"#utility.yul\":31752:31770   */\n      mul\n        /* \"#utility.yul\":31791:31888   */\n      tag_835\n        /* \"#utility.yul\":31821:31887   */\n      0xffffffffffffffffffffffffffffffffffffffffffffffffffffffffffffffff\n        /* \"#utility.yul\":31810:31819   */\n      dup3\n        /* \"#utility.yul\":31791:31888   */\n      tag_539\n      jump\t// in\n    tag_835:\n        /* \"#utility.yul\":31909:31948   */\n      tag_836\n        /* \"#utility.yul\":31939:31947   */\n      dup7\n        /* \"#utility.yul\":31928:31937   */\n      dup4\n        /* \"#utility.yul\":31909:31948   */\n      tag_539\n      jump\t// in\n    tag_836:\n        /* \"#utility.yul\":31897:31948   */\n      swap6\n      pop\n        /* \"#utility.yul\":31981:31985   */\n      dup1\n        /* \"#utility.yul\":31977:31986   */\n      not\n        /* \"#utility.yul\":31970:31975   */\n      dup5\n        /* \"#utility.yul\":31966:31987   */\n      and\n        /* \"#utility.yul\":31957:31987   */\n      swap4\n      pop\n        /* \"#utility.yul\":32030:32034   */\n      dup1\n        /* \"#utility.yul\":32020:32028   */\n      dup7\n        /* \"#utility.yul\":32016:32035   */\n      and\n        /* \"#utility.yul\":32009:32014   */\n      dup5\n        /* \"#utility.yul\":32006:32036   */\n      or\n        /* \"#utility.yul\":31996:32036   */\n      swap3\n      pop\n        /* \"#utility.yul\":31725:32042   */\n      pop\n      pop\n        /* \"#utility.yul\":31649:32042   */\n      swap4\n      swap3\n      pop\n      pop\n      pop\n      jump\t// out\n        /* \"#utility.yul\":32048:32108   */\n    tag_541:\n        /* \"#utility.yul\":32076:32079   */\n      0x00\n        /* \"#utility.yul\":32097:32102   */\n      dup2\n        /* \"#utility.yul\":32090:32102   */\n      swap1\n      pop\n        /* \"#utility.yul\":32048:32108   */\n      swap2\n      swap1\n      pop\n      jump\t// out\n        /* \"#utility.yul\":32114:32256   */\n    tag_542:\n        /* \"#utility.yul\":32164:32173   */\n      0x00\n        /* \"#utility.yul\":32197:32250   */\n      tag_839\n        /* \"#utility.yul\":32215:32249   */\n      tag_840\n        /* \"#utility.yul\":32224:32248   */\n      tag_841\n        /* \"#utility.yul\":32242:32247   */\n      dup5\n        /* \"#utility.yul\":32224:32248   */\n      tag_465\n      jump\t// in\n    tag_841:\n        /* \"#utility.yul\":32215:32249   */\n      tag_541\n      jump\t// in\n    tag_840:\n        /* \"#utility.yul\":32197:32250   */\n      tag_465\n      jump\t// in\n    tag_839:\n        /* \"#utility.yul\":32184:32250   */\n      swap1\n      pop\n        /* \"#utility.yul\":32114:32256   */\n      swap2\n      swap1\n      pop\n      jump\t// out\n        /* \"#utility.yul\":32262:32337   */\n    tag_543:\n        /* \"#utility.yul\":32305:32308   */\n      0x00\n        /* \"#utility.yul\":32326:32331   */\n      dup2\n        /* \"#utility.yul\":32319:32331   */\n      swap1\n      pop\n        /* \"#utility.yul\":32262:32337   */\n      swap2\n      swap1\n      pop\n      jump\t// out\n        /* \"#utility.yul\":32343:32612   */\n    tag_544:\n        /* \"#utility.yul\":32453:32492   */\n      tag_844\n        /* \"#utility.yul\":32484:32491   */\n      dup4\n        /* \"#utility.yul\":32453:32492   */\n      tag_542\n      jump\t// in\n    tag_844:\n        /* \"#utility.yul\":32514:32605   */\n      tag_845\n        /* \"#utility.yul\":32563:32604   */\n      tag_846\n        /* \"#utility.yul\":32587:32603   */\n      dup3\n        /* \"#utility.yul\":32563:32604   */\n      tag_543\n      jump\t// in\n    tag_846:\n        /* \"#utility.yul\":32555:32561   */\n      dup5\n        /* \"#utility.yul\":32548:32552   */\n      dup5\n        /* \"#utility.yul\":32542:32553   */\n      sload\n        /* \"#utility.yul\":32514:32605   */\n      tag_540\n      jump\t// in\n    tag_845:\n        /* \"#utility.yul\":32508:32512   */\n      dup3\n        /* \"#utility.yul\":32501:32606   */\n      sstore\n        /* \"#utility.yul\":32419:32612   */\n      pop\n        /* \"#utility.yul\":32343:32612   */\n      pop\n      pop\n      pop\n      jump\t// out\n        /* \"#utility.yul\":32618:32691   */\n    tag_545:\n        /* \"#utility.yul\":32663:32666   */\n      0x00\n        /* \"#utility.yul\":32618:32691   */\n      swap1\n      jump\t// out\n        /* \"#utility.yul\":32697:32886   */\n    tag_546:\n        /* \"#utility.yul\":32774:32806   */\n      tag_849\n      tag_545\n      jump\t// in\n    tag_849:\n        /* \"#utility.yul\":32815:32880   */\n      tag_850\n        /* \"#utility.yul\":32873:32879   */\n      dup2\n        /* \"#utility.yul\":32865:32871   */\n      dup5\n        /* \"#utility.yul\":32859:32863   */\n      dup5\n        /* \"#utility.yul\":32815:32880   */\n      tag_544\n      jump\t// in\n    tag_850:\n        /* \"#utility.yul\":32750:32886   */\n      pop\n        /* \"#utility.yul\":32697:32886   */\n      pop\n      pop\n      jump\t// out\n        /* \"#utility.yul\":32892:33078   */\n    tag_547:\n        /* \"#utility.yul\":32952:33072   */\n    tag_852:\n        /* \"#utility.yul\":32969:32972   */\n      dup2\n        /* \"#utility.yul\":32962:32967   */\n      dup2\n        /* \"#utility.yul\":32959:32973   */\n      lt\n        /* \"#utility.yul\":32952:33072   */\n      iszero\n      tag_854\n      jumpi\n        /* \"#utility.yul\":33023:33062   */\n      tag_855\n        /* \"#utility.yul\":33060:33061   */\n      0x00\n        /* \"#utility.yul\":33053:33058   */\n      dup3\n        /* \"#utility.yul\":33023:33062   */\n      tag_546\n      jump\t// in\n    tag_855:\n        /* \"#utility.yul\":32996:32997   */\n      0x01\n        /* \"#utility.yul\":32989:32994   */\n      dup2\n        /* \"#utility.yul\":32985:32998   */\n      add\n        /* \"#utility.yul\":32976:32998   */\n      swap1\n      pop\n        /* \"#utility.yul\":32952:33072   */\n      jump(tag_852)\n    tag_854:\n        /* \"#utility.yul\":32892:33078   */\n      pop\n      pop\n      jump\t// out\n        /* \"#utility.yul\":33084:33627   */\n    tag_548:\n        /* \"#utility.yul\":33185:33187   */\n      0x1f\n        /* \"#utility.yul\":33180:33183   */\n      dup3\n        /* \"#utility.yul\":33177:33188   */\n      gt\n        /* \"#utility.yul\":33174:33620   */\n      iszero\n      tag_857\n      jumpi\n        /* \"#utility.yul\":33219:33257   */\n      tag_858\n        /* \"#utility.yul\":33251:33256   */\n      dup2\n        /* \"#utility.yul\":33219:33257   */\n      tag_537\n      jump\t// in\n    tag_858:\n        /* \"#utility.yul\":33303:33332   */\n      tag_859\n        /* \"#utility.yul\":33321:33331   */\n      dup5\n        /* \"#utility.yul\":33303:33332   */\n      tag_538\n      jump\t// in\n    tag_859:\n        /* \"#utility.yul\":33293:33301   */\n      dup2\n        /* \"#utility.yul\":33289:33333   */\n      add\n        /* \"#utility.yul\":33486:33488   */\n      0x20\n        /* \"#utility.yul\":33474:33484   */\n      dup6\n        /* \"#utility.yul\":33471:33489   */\n      lt\n        /* \"#utility.yul\":33468:33517   */\n      iszero\n      tag_860\n      jumpi\n        /* \"#utility.yul\":33507:33515   */\n      dup2\n        /* \"#utility.yul\":33492:33515   */\n      swap1\n      pop\n        /* \"#utility.yul\":33468:33517   */\n    tag_860:\n        /* \"#utility.yul\":33530:33610   */\n      tag_861\n        /* \"#utility.yul\":33586:33608   */\n      tag_862\n        /* \"#utility.yul\":33604:33607   */\n      dup6\n        /* \"#utility.yul\":33586:33608   */\n      tag_538\n      jump\t// in\n    tag_862:\n        /* \"#utility.yul\":33576:33584   */\n      dup4\n        /* \"#utility.yul\":33572:33609   */\n      add\n        /* \"#utility.yul\":33559:33570   */\n      dup3\n        /* \"#utility.yul\":33530:33610   */\n      tag_547\n      jump\t// in\n    tag_861:\n        /* \"#utility.yul\":33189:33620   */\n      pop\n      pop\n        /* \"#utility.yul\":33174:33620   */\n    tag_857:\n        /* \"#utility.yul\":33084:33627   */\n      pop\n      pop\n      pop\n      jump\t// out\n        /* \"#utility.yul\":33633:33750   */\n    tag_549:\n        /* \"#utility.yul\":33687:33695   */\n      0x00\n        /* \"#utility.yul\":33737:33742   */\n      dup3\n        /* \"#utility.yul\":33731:33735   */\n      dup3\n        /* \"#utility.yul\":33727:33743   */\n      shr\n        /* \"#utility.yul\":33706:33743   */\n      swap1\n      pop\n        /* \"#utility.yul\":33633:33750   */\n      swap3\n      swap2\n      pop\n      pop\n      jump\t// out\n        /* \"#utility.yul\":33756:33925   */\n    tag_550:\n        /* \"#utility.yul\":33800:33806   */\n      0x00\n        /* \"#utility.yul\":33833:33884   */\n      tag_865\n        /* \"#utility.yul\":33881:33882   */\n      0x00\n        /* \"#utility.yul\":33877:33883   */\n      not\n        /* \"#utility.yul\":33869:33874   */\n      dup5\n        /* \"#utility.yul\":33866:33867   */\n      0x08\n        /* \"#utility.yul\":33862:33875   */\n      mul\n        /* \"#utility.yul\":33833:33884   */\n      tag_549\n      jump\t// in\n    tag_865:\n        /* \"#utility.yul\":33829:33885   */\n      not\n        /* \"#utility.yul\":33914:33918   */\n      dup1\n        /* \"#utility.yul\":33908:33912   */\n      dup4\n        /* \"#utility.yul\":33904:33919   */\n      and\n        /* \"#utility.yul\":33894:33919   */\n      swap2\n      pop\n        /* \"#utility.yul\":33807:33925   */\n      pop\n        /* \"#utility.yul\":33756:33925   */\n      swap3\n      swap2\n      pop\n      pop\n      jump\t// out\n        /* \"#utility.yul\":33930:34225   */\n    tag_551:\n        /* \"#utility.yul\":34006:34010   */\n      0x00\n        /* \"#utility.yul\":34152:34181   */\n      tag_867\n        /* \"#utility.yul\":34177:34180   */\n      dup4\n        /* \"#utility.yul\":34171:34175   */\n      dup4\n        /* \"#utility.yul\":34152:34181   */\n      tag_550\n      jump\t// in\n    tag_867:\n        /* \"#utility.yul\":34144:34181   */\n      swap2\n      pop\n        /* \"#utility.yul\":34214:34217   */\n      dup3\n        /* \"#utility.yul\":34211:34212   */\n      0x02\n        /* \"#utility.yul\":34207:34218   */\n      mul\n        /* \"#utility.yul\":34201:34205   */\n      dup3\n        /* \"#utility.yul\":34198:34219   */\n      or\n        /* \"#utility.yul\":34190:34219   */\n      swap1\n      pop\n        /* \"#utility.yul\":33930:34225   */\n      swap3\n      swap2\n      pop\n      pop\n      jump\t// out\n        /* \"#utility.yul\":34230:35625   */\n    tag_243:\n        /* \"#utility.yul\":34347:34384   */\n      tag_869\n        /* \"#utility.yul\":34380:34383   */\n      dup3\n        /* \"#utility.yul\":34347:34384   */\n      tag_472\n      jump\t// in\n    tag_869:\n        /* \"#utility.yul\":34449:34467   */\n      0xffffffffffffffff\n        /* \"#utility.yul\":34441:34447   */\n      dup2\n        /* \"#utility.yul\":34438:34468   */\n      gt\n        /* \"#utility.yul\":34435:34491   */\n      iszero\n      tag_870\n      jumpi\n        /* \"#utility.yul\":34471:34489   */\n      tag_871\n      tag_210\n      jump\t// in\n    tag_871:\n        /* \"#utility.yul\":34435:34491   */\n    tag_870:\n        /* \"#utility.yul\":34515:34553   */\n      tag_872\n        /* \"#utility.yul\":34547:34551   */\n      dup3\n        /* \"#utility.yul\":34541:34552   */\n      sload\n        /* \"#utility.yul\":34515:34553   */\n      tag_159\n      jump\t// in\n    tag_872:\n        /* \"#utility.yul\":34600:34667   */\n      tag_873\n        /* \"#utility.yul\":34660:34666   */\n      dup3\n        /* \"#utility.yul\":34652:34658   */\n      dup3\n        /* \"#utility.yul\":34646:34650   */\n      dup6\n        /* \"#utility.yul\":34600:34667   */\n      tag_548\n      jump\t// in\n    tag_873:\n        /* \"#utility.yul\":34694:34695   */\n      0x00\n        /* \"#utility.yul\":34718:34722   */\n      0x20\n        /* \"#utility.yul\":34705:34722   */\n      swap1\n      pop\n        /* \"#utility.yul\":34750:34752   */\n      0x1f\n        /* \"#utility.yul\":34742:34748   */\n      dup4\n        /* \"#utility.yul\":34739:34753   */\n      gt\n        /* \"#utility.yul\":34767:34768   */\n      0x01\n        /* \"#utility.yul\":34762:35380   */\n      dup2\n      eq\n      tag_875\n      jumpi\n        /* \"#utility.yul\":35424:35425   */\n      0x00\n        /* \"#utility.yul\":35441:35447   */\n      dup5\n        /* \"#utility.yul\":35438:35515   */\n      iszero\n      tag_876\n      jumpi\n        /* \"#utility.yul\":35490:35499   */\n      dup3\n        /* \"#utility.yul\":35485:35488   */\n      dup8\n        /* \"#utility.yul\":35481:35500   */\n      add\n        /* \"#utility.yul\":35475:35501   */\n      mload\n        /* \"#utility.yul\":35466:35501   */\n      swap1\n      pop\n        /* \"#utility.yul\":35438:35515   */\n    tag_876:\n        /* \"#utility.yul\":35541:35608   */\n      tag_877\n        /* \"#utility.yul\":35601:35607   */\n      dup6\n        /* \"#utility.yul\":35594:35599   */\n      dup3\n        /* \"#utility.yul\":35541:35608   */\n      tag_551\n      jump\t// in\n    tag_877:\n        /* \"#utility.yul\":35535:35539   */\n      dup7\n        /* \"#utility.yul\":35528:35609   */\n      sstore\n        /* \"#utility.yul\":35397:35619   */\n      pop\n        /* \"#utility.yul\":34732:35619   */\n      jump(tag_874)\n        /* \"#utility.yul\":34762:35380   */\n    tag_875:\n        /* \"#utility.yul\":34814:34818   */\n      0x1f\n        /* \"#utility.yul\":34810:34819   */\n      not\n        /* \"#utility.yul\":34802:34808   */\n      dup5\n        /* \"#utility.yul\":34798:34820   */\n      and\n        /* \"#utility.yul\":34848:34885   */\n      tag_878\n        /* \"#utility.yul\":34880:34884   */\n      dup7\n        /* \"#utility.yul\":34848:34885   */\n      tag_537\n      jump\t// in\n    tag_878:\n        /* \"#utility.yul\":34907:34908   */\n      0x00\n        /* \"#utility.yul\":34921:35129   */\n    tag_879:\n        /* \"#utility.yul\":34935:34942   */\n      dup3\n        /* \"#utility.yul\":34932:34933   */\n      dup2\n        /* \"#utility.yul\":34929:34943   */\n      lt\n        /* \"#utility.yul\":34921:35129   */\n      iszero\n      tag_881\n      jumpi\n        /* \"#utility.yul\":35014:35023   */\n      dup5\n        /* \"#utility.yul\":35009:35012   */\n      dup10\n        /* \"#utility.yul\":35005:35024   */\n      add\n        /* \"#utility.yul\":34999:35025   */\n      mload\n        /* \"#utility.yul\":34991:34997   */\n      dup3\n        /* \"#utility.yul\":34984:35026   */\n      sstore\n        /* \"#utility.yul\":35065:35066   */\n      0x01\n        /* \"#utility.yul\":35057:35063   */\n      dup3\n        /* \"#utility.yul\":35053:35067   */\n      add\n        /* \"#utility.yul\":35043:35067   */\n      swap2\n      pop\n        /* \"#utility.yul\":35112:35114   */\n      0x20\n        /* \"#utility.yul\":35101:35110   */\n      dup6\n        /* \"#utility.yul\":35097:35115   */\n      add\n        /* \"#utility.yul\":35084:35115   */\n      swap5\n      pop\n        /* \"#utility.yul\":34958:34962   */\n      0x20\n        /* \"#utility.yul\":34955:34956   */\n      dup2\n        /* \"#utility.yul\":34951:34963   */\n      add\n        /* \"#utility.yul\":34946:34963   */\n      swap1\n      pop\n        /* \"#utility.yul\":34921:35129   */\n      jump(tag_879)\n    tag_881:\n        /* \"#utility.yul\":35157:35163   */\n      dup7\n        /* \"#utility.yul\":35148:35155   */\n      dup4\n        /* \"#utility.yul\":35145:35164   */\n      lt\n        /* \"#utility.yul\":35142:35321   */\n      iszero\n      tag_882\n      jumpi\n        /* \"#utility.yul\":35215:35224   */\n      dup5\n        /* \"#utility.yul\":35210:35213   */\n      dup10\n        /* \"#utility.yul\":35206:35225   */\n      add\n        /* \"#utility.yul\":35200:35226   */\n      mload\n        /* \"#utility.yul\":35258:35306   */\n      tag_883\n        /* \"#utility.yul\":35300:35304   */\n      0x1f\n        /* \"#utility.yul\":35292:35298   */\n      dup10\n        /* \"#utility.yul\":35288:35305   */\n      and\n        /* \"#utility.yul\":35277:35286   */\n      dup3\n        /* \"#utility.yul\":35258:35306   */\n      tag_550\n      jump\t// in\n    tag_883:\n        /* \"#utility.yul\":35250:35256   */\n      dup4\n        /* \"#utility.yul\":35243:35307   */\n      sstore\n        /* \"#utility.yul\":35165:35321   */\n      pop\n        /* \"#utility.yul\":35142:35321   */\n    tag_882:\n        /* \"#utility.yul\":35367:35368   */\n      0x01\n        /* \"#utility.yul\":35363:35364   */\n      0x02\n        /* \"#utility.yul\":35355:35361   */\n      dup9\n        /* \"#utility.yul\":35351:35365   */\n      mul\n        /* \"#utility.yul\":35347:35369   */\n      add\n        /* \"#utility.yul\":35341:35345   */\n      dup9\n        /* \"#utility.yul\":35334:35370   */\n      sstore\n        /* \"#utility.yul\":34769:35380   */\n      pop\n      pop\n      pop\n        /* \"#utility.yul\":34732:35619   */\n    tag_874:\n      pop\n        /* \"#utility.yul\":34322:35625   */\n      pop\n      pop\n      pop\n        /* \"#utility.yul\":34230:35625   */\n      pop\n      pop\n      jump\t// out\n        /* \"#utility.yul\":35631:36164   */\n    tag_247:\n        /* \"#utility.yul\":35800:35804   */\n      0x00\n        /* \"#utility.yul\":35838:35840   */\n      0x60\n        /* \"#utility.yul\":35827:35836   */\n      dup3\n        /* \"#utility.yul\":35823:35841   */\n      add\n        /* \"#utility.yul\":35815:35841   */\n      swap1\n      pop\n        /* \"#utility.yul\":35851:35922   */\n      tag_885\n        /* \"#utility.yul\":35919:35920   */\n      0x00\n        /* \"#utility.yul\":35908:35917   */\n      dup4\n        /* \"#utility.yul\":35904:35921   */\n      add\n        /* \"#utility.yul\":35895:35901   */\n      dup7\n        /* \"#utility.yul\":35851:35922   */\n      tag_468\n      jump\t// in\n    tag_885:\n        /* \"#utility.yul\":35932:36004   */\n      tag_886\n        /* \"#utility.yul\":36000:36002   */\n      0x20\n        /* \"#utility.yul\":35989:35998   */\n      dup4\n        /* \"#utility.yul\":35985:36003   */\n      add\n        /* \"#utility.yul\":35976:35982   */\n      dup6\n        /* \"#utility.yul\":35932:36004   */\n      tag_471\n      jump\t// in\n    tag_886:\n        /* \"#utility.yul\":36051:36060   */\n      dup2\n        /* \"#utility.yul\":36045:36049   */\n      dup2\n        /* \"#utility.yul\":36041:36061   */\n      sub\n        /* \"#utility.yul\":36036:36038   */\n      0x40\n        /* \"#utility.yul\":36025:36034   */\n      dup4\n        /* \"#utility.yul\":36021:36039   */\n      add\n        /* \"#utility.yul\":36014:36062   */\n      mstore\n        /* \"#utility.yul\":36079:36157   */\n      tag_887\n        /* \"#utility.yul\":36152:36156   */\n      dup2\n        /* \"#utility.yul\":36143:36149   */\n      dup5\n        /* \"#utility.yul\":36079:36157   */\n      tag_476\n      jump\t// in\n    tag_887:\n        /* \"#utility.yul\":36071:36157   */\n      swap1\n      pop\n        /* \"#utility.yul\":35631:36164   */\n      swap5\n      swap4\n      pop\n      pop\n      pop\n      pop\n      jump\t// out\n        /* \"#utility.yul\":36170:36364   */\n    tag_275:\n        /* \"#utility.yul\":36210:36214   */\n      0x00\n        /* \"#utility.yul\":36230:36250   */\n      tag_889\n        /* \"#utility.yul\":36248:36249   */\n      dup3\n        /* \"#utility.yul\":36230:36250   */\n      tag_465\n      jump\t// in\n    tag_889:\n        /* \"#utility.yul\":36225:36250   */\n      swap2\n      pop\n        /* \"#utility.yul\":36264:36284   */\n      tag_890\n        /* \"#utility.yul\":36282:36283   */\n      dup4\n        /* \"#utility.yul\":36264:36284   */\n      tag_465\n      jump\t// in\n    tag_890:\n        /* \"#utility.yul\":36259:36284   */\n      swap3\n      pop\n        /* \"#utility.yul\":36308:36309   */\n      dup3\n        /* \"#utility.yul\":36305:36306   */\n      dup3\n        /* \"#utility.yul\":36301:36310   */\n      sub\n        /* \"#utility.yul\":36293:36310   */\n      swap1\n      pop\n        /* \"#utility.yul\":36332:36333   */\n      dup2\n        /* \"#utility.yul\":36326:36330   */\n      dup2\n        /* \"#utility.yul\":36323:36334   */\n      gt\n        /* \"#utility.yul\":36320:36357   */\n      iszero\n      tag_891\n      jumpi\n        /* \"#utility.yul\":36337:36355   */\n      tag_892\n      tag_517\n      jump\t// in\n    tag_892:\n        /* \"#utility.yul\":36320:36357   */\n    tag_891:\n        /* \"#utility.yul\":36170:36364   */\n      swap3\n      swap2\n      pop\n      pop\n      jump\t// out\n        /* \"#utility.yul\":36370:36612   */\n    tag_552:\n        /* \"#utility.yul\":36510:36544   */\n      0x4f6e6c792074686520656e7472657072656e657572206f72206f776e65722063\n        /* \"#utility.yul\":36506:36507   */\n      0x00\n        /* \"#utility.yul\":36498:36504   */\n      dup3\n        /* \"#utility.yul\":36494:36508   */\n      add\n        /* \"#utility.yul\":36487:36545   */\n      mstore\n        /* \"#utility.yul\":36579:36604   */\n      0x616e2063616e63656c20746869732063616d706169676e000000000000000000\n        /* \"#utility.yul\":36574:36576   */\n      0x20\n        /* \"#utility.yul\":36566:36572   */\n      dup3\n        /* \"#utility.yul\":36562:36577   */\n      add\n        /* \"#utility.yul\":36555:36605   */\n      mstore\n        /* \"#utility.yul\":36370:36612   */\n      pop\n      jump\t// out\n        /* \"#utility.yul\":36618:36984   */\n    tag_553:\n        /* \"#utility.yul\":36760:36763   */\n      0x00\n        /* \"#utility.yul\":36781:36848   */\n      tag_895\n        /* \"#utility.yul\":36845:36847   */\n      0x37\n        /* \"#utility.yul\":36840:36843   */\n      dup4\n        /* \"#utility.yul\":36781:36848   */\n      tag_473\n      jump\t// in\n    tag_895:\n        /* \"#utility.yul\":36774:36848   */\n      swap2\n      pop\n        /* \"#utility.yul\":36857:36950   */\n      tag_896\n        /* \"#utility.yul\":36946:36949   */\n      dup3\n        /* \"#utility.yul\":36857:36950   */\n      tag_552\n      jump\t// in\n    tag_896:\n        /* \"#utility.yul\":36975:36977   */\n      0x40\n        /* \"#utility.yul\":36970:36973   */\n      dup3\n        /* \"#utility.yul\":36966:36978   */\n      add\n        /* \"#utility.yul\":36959:36978   */\n      swap1\n      pop\n        /* \"#utility.yul\":36618:36984   */\n      swap2\n      swap1\n      pop\n      jump\t// out\n        /* \"#utility.yul\":36990:37409   */\n    tag_292:\n        /* \"#utility.yul\":37156:37160   */\n      0x00\n        /* \"#utility.yul\":37194:37196   */\n      0x20\n        /* \"#utility.yul\":37183:37192   */\n      dup3\n        /* \"#utility.yul\":37179:37197   */\n      add\n        /* \"#utility.yul\":37171:37197   */\n      swap1\n      pop\n        /* \"#utility.yul\":37243:37252   */\n      dup2\n        /* \"#utility.yul\":37237:37241   */\n      dup2\n        /* \"#utility.yul\":37233:37253   */\n      sub\n        /* \"#utility.yul\":37229:37230   */\n      0x00\n        /* \"#utility.yul\":37218:37227   */\n      dup4\n        /* \"#utility.yul\":37214:37231   */\n      add\n        /* \"#utility.yul\":37207:37254   */\n      mstore\n        /* \"#utility.yul\":37271:37402   */\n      tag_898\n        /* \"#utility.yul\":37397:37401   */\n      dup2\n        /* \"#utility.yul\":37271:37402   */\n      tag_553\n      jump\t// in\n    tag_898:\n        /* \"#utility.yul\":37263:37402   */\n      swap1\n      pop\n        /* \"#utility.yul\":36990:37409   */\n      swap2\n      swap1\n      pop\n      jump\t// out\n        /* \"#utility.yul\":37439:38270   */\n    tag_554:\n        /* \"#utility.yul\":37524:37527   */\n      0x00\n        /* \"#utility.yul\":37561:37566   */\n      dup2\n        /* \"#utility.yul\":37555:37567   */\n      sload\n        /* \"#utility.yul\":37590:37626   */\n      tag_900\n        /* \"#utility.yul\":37616:37625   */\n      dup2\n        /* \"#utility.yul\":37590:37626   */\n      tag_159\n      jump\t// in\n    tag_900:\n        /* \"#utility.yul\":37642:37713   */\n      tag_901\n        /* \"#utility.yul\":37706:37712   */\n      dup2\n        /* \"#utility.yul\":37701:37704   */\n      dup7\n        /* \"#utility.yul\":37642:37713   */\n      tag_473\n      jump\t// in\n    tag_901:\n        /* \"#utility.yul\":37635:37713   */\n      swap5\n      pop\n        /* \"#utility.yul\":37744:37745   */\n      0x01\n        /* \"#utility.yul\":37733:37742   */\n      dup3\n        /* \"#utility.yul\":37729:37746   */\n      and\n        /* \"#utility.yul\":37760:37761   */\n      0x00\n        /* \"#utility.yul\":37755:37919   */\n      dup2\n      eq\n      tag_903\n      jumpi\n        /* \"#utility.yul\":37933:37934   */\n      0x01\n        /* \"#utility.yul\":37928:38264   */\n      dup2\n      eq\n      tag_904\n      jumpi\n        /* \"#utility.yul\":37722:38264   */\n      jump(tag_902)\n        /* \"#utility.yul\":37755:37919   */\n    tag_903:\n        /* \"#utility.yul\":37839:37843   */\n      0xff\n        /* \"#utility.yul\":37835:37844   */\n      not\n        /* \"#utility.yul\":37824:37833   */\n      dup4\n        /* \"#utility.yul\":37820:37845   */\n      and\n        /* \"#utility.yul\":37815:37818   */\n      dup7\n        /* \"#utility.yul\":37808:37846   */\n      mstore\n        /* \"#utility.yul\":37899:37905   */\n      dup2\n        /* \"#utility.yul\":37892:37906   */\n      iszero\n        /* \"#utility.yul\":37885:37907   */\n      iszero\n        /* \"#utility.yul\":37879:37883   */\n      0x20\n        /* \"#utility.yul\":37875:37908   */\n      mul\n        /* \"#utility.yul\":37870:37873   */\n      dup7\n        /* \"#utility.yul\":37866:37909   */\n      add\n        /* \"#utility.yul\":37859:37909   */\n      swap4\n      pop\n        /* \"#utility.yul\":37755:37919   */\n      jump(tag_902)\n        /* \"#utility.yul\":37928:38264   */\n    tag_904:\n        /* \"#utility.yul\":37995:38033   */\n      tag_905\n        /* \"#utility.yul\":38027:38032   */\n      dup6\n        /* \"#utility.yul\":37995:38033   */\n      tag_537\n      jump\t// in\n    tag_905:\n        /* \"#utility.yul\":38055:38056   */\n      0x00\n        /* \"#utility.yul\":38069:38223   */\n    tag_906:\n        /* \"#utility.yul\":38083:38089   */\n      dup4\n        /* \"#utility.yul\":38080:38081   */\n      dup2\n        /* \"#utility.yul\":38077:38090   */\n      lt\n        /* \"#utility.yul\":38069:38223   */\n      iszero\n      tag_908\n      jumpi\n        /* \"#utility.yul\":38157:38164   */\n      dup2\n        /* \"#utility.yul\":38151:38165   */\n      sload\n        /* \"#utility.yul\":38147:38148   */\n      dup2\n        /* \"#utility.yul\":38142:38145   */\n      dup10\n        /* \"#utility.yul\":38138:38149   */\n      add\n        /* \"#utility.yul\":38131:38166   */\n      mstore\n        /* \"#utility.yul\":38207:38208   */\n      0x01\n        /* \"#utility.yul\":38198:38205   */\n      dup3\n        /* \"#utility.yul\":38194:38209   */\n      add\n        /* \"#utility.yul\":38183:38209   */\n      swap2\n      pop\n        /* \"#utility.yul\":38105:38109   */\n      0x20\n        /* \"#utility.yul\":38102:38103   */\n      dup2\n        /* \"#utility.yul\":38098:38110   */\n      add\n        /* \"#utility.yul\":38093:38110   */\n      swap1\n      pop\n        /* \"#utility.yul\":38069:38223   */\n      jump(tag_906)\n    tag_908:\n        /* \"#utility.yul\":38252:38253   */\n      dup1\n        /* \"#utility.yul\":38247:38250   */\n      dup9\n        /* \"#utility.yul\":38243:38254   */\n      add\n        /* \"#utility.yul\":38236:38254   */\n      swap6\n      pop\n        /* \"#utility.yul\":37935:38264   */\n      pop\n      pop\n        /* \"#utility.yul\":37722:38264   */\n    tag_902:\n      pop\n        /* \"#utility.yul\":37528:38270   */\n      pop\n      pop\n        /* \"#utility.yul\":37439:38270   */\n      swap3\n      swap2\n      pop\n      pop\n      jump\t// out\n        /* \"#utility.yul\":38276:38803   */\n    tag_302:\n        /* \"#utility.yul\":38442:38446   */\n      0x00\n        /* \"#utility.yul\":38480:38482   */\n      0x60\n        /* \"#utility.yul\":38469:38478   */\n      dup3\n        /* \"#utility.yul\":38465:38483   */\n      add\n        /* \"#utility.yul\":38457:38483   */\n      swap1\n      pop\n        /* \"#utility.yul\":38493:38564   */\n      tag_910\n        /* \"#utility.yul\":38561:38562   */\n      0x00\n        /* \"#utility.yul\":38550:38559   */\n      dup4\n        /* \"#utility.yul\":38546:38563   */\n      add\n        /* \"#utility.yul\":38537:38543   */\n      dup7\n        /* \"#utility.yul\":38493:38564   */\n      tag_468\n      jump\t// in\n    tag_910:\n        /* \"#utility.yul\":38574:38646   */\n      tag_911\n        /* \"#utility.yul\":38642:38644   */\n      0x20\n        /* \"#utility.yul\":38631:38640   */\n      dup4\n        /* \"#utility.yul\":38627:38645   */\n      add\n        /* \"#utility.yul\":38618:38624   */\n      dup6\n        /* \"#utility.yul\":38574:38646   */\n      tag_471\n      jump\t// in\n    tag_911:\n        /* \"#utility.yul\":38693:38702   */\n      dup2\n        /* \"#utility.yul\":38687:38691   */\n      dup2\n        /* \"#utility.yul\":38683:38703   */\n      sub\n        /* \"#utility.yul\":38678:38680   */\n      0x40\n        /* \"#utility.yul\":38667:38676   */\n      dup4\n        /* \"#utility.yul\":38663:38681   */\n      add\n        /* \"#utility.yul\":38656:38704   */\n      mstore\n        /* \"#utility.yul\":38721:38796   */\n      tag_912\n        /* \"#utility.yul\":38791:38795   */\n      dup2\n        /* \"#utility.yul\":38782:38788   */\n      dup5\n        /* \"#utility.yul\":38721:38796   */\n      tag_554\n      jump\t// in\n    tag_912:\n        /* \"#utility.yul\":38713:38796   */\n      swap1\n      pop\n        /* \"#utility.yul\":38276:38803   */\n      swap5\n      swap4\n      pop\n      pop\n      pop\n      pop\n      jump\t// out\n        /* \"#utility.yul\":38809:39141   */\n    tag_314:\n        /* \"#utility.yul\":38930:38934   */\n      0x00\n        /* \"#utility.yul\":38968:38970   */\n      0x40\n        /* \"#utility.yul\":38957:38966   */\n      dup3\n        /* \"#utility.yul\":38953:38971   */\n      add\n        /* \"#utility.yul\":38945:38971   */\n      swap1\n      pop\n        /* \"#utility.yul\":38981:39052   */\n      tag_914\n        /* \"#utility.yul\":39049:39050   */\n      0x00\n        /* \"#utility.yul\":39038:39047   */\n      dup4\n        /* \"#utility.yul\":39034:39051   */\n      add\n        /* \"#utility.yul\":39025:39031   */\n      dup6\n        /* \"#utility.yul\":38981:39052   */\n      tag_471\n      jump\t// in\n    tag_914:\n        /* \"#utility.yul\":39062:39134   */\n      tag_915\n        /* \"#utility.yul\":39130:39132   */\n      0x20\n        /* \"#utility.yul\":39119:39128   */\n      dup4\n        /* \"#utility.yul\":39115:39133   */\n      add\n        /* \"#utility.yul\":39106:39112   */\n      dup5\n        /* \"#utility.yul\":39062:39134   */\n      tag_468\n      jump\t// in\n    tag_915:\n        /* \"#utility.yul\":38809:39141   */\n      swap4\n      swap3\n      pop\n      pop\n      pop\n      jump\t// out\n        /* \"#utility.yul\":39147:39391   */\n    tag_555:\n        /* \"#utility.yul\":39287:39321   */\n      0x4f6e6c792074686520656e7472657072656e657572206f72206f776e65722063\n        /* \"#utility.yul\":39283:39284   */\n      0x00\n        /* \"#utility.yul\":39275:39281   */\n      dup3\n        /* \"#utility.yul\":39271:39285   */\n      add\n        /* \"#utility.yul\":39264:39322   */\n      mstore\n        /* \"#utility.yul\":39356:39383   */\n      0x616e20636f6d706c65746520746869732063616d706169676e00000000000000\n        /* \"#utility.yul\":39351:39353   */\n      0x20\n        /* \"#utility.yul\":39343:39349   */\n      dup3\n        /* \"#utility.yul\":39339:39354   */\n      add\n        /* \"#utility.yul\":39332:39384   */\n      mstore\n        /* \"#utility.yul\":39147:39391   */\n      pop\n      jump\t// out\n        /* \"#utility.yul\":39397:39763   */\n    tag_556:\n        /* \"#utility.yul\":39539:39542   */\n      0x00\n        /* \"#utility.yul\":39560:39627   */\n      tag_918\n        /* \"#utility.yul\":39624:39626   */\n      0x39\n        /* \"#utility.yul\":39619:39622   */\n      dup4\n        /* \"#utility.yul\":39560:39627   */\n      tag_473\n      jump\t// in\n    tag_918:\n        /* \"#utility.yul\":39553:39627   */\n      swap2\n      pop\n        /* \"#utility.yul\":39636:39729   */\n      tag_919\n        /* \"#utility.yul\":39725:39728   */\n      dup3\n        /* \"#utility.yul\":39636:39729   */\n      tag_555\n      jump\t// in\n    tag_919:\n        /* \"#utility.yul\":39754:39756   */\n      0x40\n        /* \"#utility.yul\":39749:39752   */\n      dup3\n        /* \"#utility.yul\":39745:39757   */\n      add\n        /* \"#utility.yul\":39738:39757   */\n      swap1\n      pop\n        /* \"#utility.yul\":39397:39763   */\n      swap2\n      swap1\n      pop\n      jump\t// out\n        /* \"#utility.yul\":39769:40188   */\n    tag_350:\n        /* \"#utility.yul\":39935:39939   */\n      0x00\n        /* \"#utility.yul\":39973:39975   */\n      0x20\n        /* \"#utility.yul\":39962:39971   */\n      dup3\n        /* \"#utility.yul\":39958:39976   */\n      add\n        /* \"#utility.yul\":39950:39976   */\n      swap1\n      pop\n        /* \"#utility.yul\":40022:40031   */\n      dup2\n        /* \"#utility.yul\":40016:40020   */\n      dup2\n        /* \"#utility.yul\":40012:40032   */\n      sub\n        /* \"#utility.yul\":40008:40009   */\n      0x00\n        /* \"#utility.yul\":39997:40006   */\n      dup4\n        /* \"#utility.yul\":39993:40010   */\n      add\n        /* \"#utility.yul\":39986:40033   */\n      mstore\n        /* \"#utility.yul\":40050:40181   */\n      tag_921\n        /* \"#utility.yul\":40176:40180   */\n      dup2\n        /* \"#utility.yul\":40050:40181   */\n      tag_556\n      jump\t// in\n    tag_921:\n        /* \"#utility.yul\":40042:40181   */\n      swap1\n      pop\n        /* \"#utility.yul\":39769:40188   */\n      swap2\n      swap1\n      pop\n      jump\t// out\n        /* \"#utility.yul\":40194:40417   */\n    tag_557:\n        /* \"#utility.yul\":40334:40368   */\n      0x43616d706169676e20646f6573206e6f74206861766520656e6f756768207368\n        /* \"#utility.yul\":40330:40331   */\n      0x00\n        /* \"#utility.yul\":40322:40328   */\n      dup3\n        /* \"#utility.yul\":40318:40332   */\n      add\n        /* \"#utility.yul\":40311:40369   */\n      mstore\n        /* \"#utility.yul\":40403:40409   */\n      0x6172657300000000000000000000000000000000000000000000000000000000\n        /* \"#utility.yul\":40398:40400   */\n      0x20\n        /* \"#utility.yul\":40390:40396   */\n      dup3\n        /* \"#utility.yul\":40386:40401   */\n      add\n        /* \"#utility.yul\":40379:40410   */\n      mstore\n        /* \"#utility.yul\":40194:40417   */\n      pop\n      jump\t// out\n        /* \"#utility.yul\":40423:40789   */\n    tag_558:\n        /* \"#utility.yul\":40565:40568   */\n      0x00\n        /* \"#utility.yul\":40586:40653   */\n      tag_924\n        /* \"#utility.yul\":40650:40652   */\n      0x24\n        /* \"#utility.yul\":40645:40648   */\n      dup4\n        /* \"#utility.yul\":40586:40653   */\n      tag_473\n      jump\t// in\n    tag_924:\n        /* \"#utility.yul\":40579:40653   */\n      swap2\n      pop\n        /* \"#utility.yul\":40662:40755   */\n      tag_925\n        /* \"#utility.yul\":40751:40754   */\n      dup3\n        /* \"#utility.yul\":40662:40755   */\n      tag_557\n      jump\t// in\n    tag_925:\n        /* \"#utility.yul\":40780:40782   */\n      0x40\n        /* \"#utility.yul\":40775:40778   */\n      dup3\n        /* \"#utility.yul\":40771:40783   */\n      add\n        /* \"#utility.yul\":40764:40783   */\n      swap1\n      pop\n        /* \"#utility.yul\":40423:40789   */\n      swap2\n      swap1\n      pop\n      jump\t// out\n        /* \"#utility.yul\":40795:41214   */\n    tag_353:\n        /* \"#utility.yul\":40961:40965   */\n      0x00\n        /* \"#utility.yul\":40999:41001   */\n      0x20\n        /* \"#utility.yul\":40988:40997   */\n      dup3\n        /* \"#utility.yul\":40984:41002   */\n      add\n        /* \"#utility.yul\":40976:41002   */\n      swap1\n      pop\n        /* \"#utility.yul\":41048:41057   */\n      dup2\n        /* \"#utility.yul\":41042:41046   */\n      dup2\n        /* \"#utility.yul\":41038:41058   */\n      sub\n        /* \"#utility.yul\":41034:41035   */\n      0x00\n        /* \"#utility.yul\":41023:41032   */\n      dup4\n        /* \"#utility.yul\":41019:41036   */\n      add\n        /* \"#utility.yul\":41012:41059   */\n      mstore\n        /* \"#utility.yul\":41076:41207   */\n      tag_927\n        /* \"#utility.yul\":41202:41206   */\n      dup2\n        /* \"#utility.yul\":41076:41207   */\n      tag_558\n      jump\t// in\n    tag_927:\n        /* \"#utility.yul\":41068:41207   */\n      swap1\n      pop\n        /* \"#utility.yul\":40795:41214   */\n      swap2\n      swap1\n      pop\n      jump\t// out\n        /* \"#utility.yul\":41220:41400   */\n    tag_559:\n        /* \"#utility.yul\":41268:41345   */\n      0x4e487b7100000000000000000000000000000000000000000000000000000000\n        /* \"#utility.yul\":41265:41266   */\n      0x00\n        /* \"#utility.yul\":41258:41346   */\n      mstore\n        /* \"#utility.yul\":41365:41369   */\n      0x12\n        /* \"#utility.yul\":41362:41363   */\n      0x04\n        /* \"#utility.yul\":41355:41370   */\n      mstore\n        /* \"#utility.yul\":41389:41393   */\n      0x24\n        /* \"#utility.yul\":41386:41387   */\n      0x00\n        /* \"#utility.yul\":41379:41394   */\n      revert\n        /* \"#utility.yul\":41406:41591   */\n    tag_356:\n        /* \"#utility.yul\":41446:41447   */\n      0x00\n        /* \"#utility.yul\":41463:41483   */\n      tag_930\n        /* \"#utility.yul\":41481:41482   */\n      dup3\n        /* \"#utility.yul\":41463:41483   */\n      tag_465\n      jump\t// in\n    tag_930:\n        /* \"#utility.yul\":41458:41483   */\n      swap2\n      pop\n        /* \"#utility.yul\":41497:41517   */\n      tag_931\n        /* \"#utility.yul\":41515:41516   */\n      dup4\n        /* \"#utility.yul\":41497:41517   */\n      tag_465\n      jump\t// in\n    tag_931:\n        /* \"#utility.yul\":41492:41517   */\n      swap3\n      pop\n        /* \"#utility.yul\":41536:41537   */\n      dup3\n        /* \"#utility.yul\":41526:41561   */\n      tag_932\n      jumpi\n        /* \"#utility.yul\":41541:41559   */\n      tag_933\n      tag_559\n      jump\t// in\n    tag_933:\n        /* \"#utility.yul\":41526:41561   */\n    tag_932:\n        /* \"#utility.yul\":41583:41584   */\n      dup3\n        /* \"#utility.yul\":41580:41581   */\n      dup3\n        /* \"#utility.yul\":41576:41585   */\n      div\n        /* \"#utility.yul\":41571:41585   */\n      swap1\n      pop\n        /* \"#utility.yul\":41406:41591   */\n      swap3\n      swap2\n      pop\n      pop\n      jump\t// out\n        /* \"#utility.yul\":41597:41820   */\n    tag_560:\n        /* \"#utility.yul\":41737:41771   */\n      0x4e6577206f776e65722063616e6e6f7420626520746865207a65726f20616464\n        /* \"#utility.yul\":41733:41734   */\n      0x00\n        /* \"#utility.yul\":41725:41731   */\n      dup3\n        /* \"#utility.yul\":41721:41735   */\n      add\n        /* \"#utility.yul\":41714:41772   */\n      mstore\n        /* \"#utility.yul\":41806:41812   */\n      0x7265737300000000000000000000000000000000000000000000000000000000\n        /* \"#utility.yul\":41801:41803   */\n      0x20\n        /* \"#utility.yul\":41793:41799   */\n      dup3\n        /* \"#utility.yul\":41789:41804   */\n      add\n        /* \"#utility.yul\":41782:41813   */\n      mstore\n        /* \"#utility.yul\":41597:41820   */\n      pop\n      jump\t// out\n        /* \"#utility.yul\":41826:42192   */\n    tag_561:\n        /* \"#utility.yul\":41968:41971   */\n      0x00\n        /* \"#utility.yul\":41989:42056   */\n      tag_936\n        /* \"#utility.yul\":42053:42055   */\n      0x24\n        /* \"#utility.yul\":42048:42051   */\n      dup4\n        /* \"#utility.yul\":41989:42056   */\n      tag_473\n      jump\t// in\n    tag_936:\n        /* \"#utility.yul\":41982:42056   */\n      swap2\n      pop\n        /* \"#utility.yul\":42065:42158   */\n      tag_937\n        /* \"#utility.yul\":42154:42157   */\n      dup3\n        /* \"#utility.yul\":42065:42158   */\n      tag_560\n      jump\t// in\n    tag_937:\n        /* \"#utility.yul\":42183:42185   */\n      0x40\n        /* \"#utility.yul\":42178:42181   */\n      dup3\n        /* \"#utility.yul\":42174:42186   */\n      add\n        /* \"#utility.yul\":42167:42186   */\n      swap1\n      pop\n        /* \"#utility.yul\":41826:42192   */\n      swap2\n      swap1\n      pop\n      jump\t// out\n        /* \"#utility.yul\":42198:42617   */\n    tag_369:\n        /* \"#utility.yul\":42364:42368   */\n      0x00\n        /* \"#utility.yul\":42402:42404   */\n      0x20\n        /* \"#utility.yul\":42391:42400   */\n      dup3\n        /* \"#utility.yul\":42387:42405   */\n      add\n        /* \"#utility.yul\":42379:42405   */\n      swap1\n      pop\n        /* \"#utility.yul\":42451:42460   */\n      dup2\n        /* \"#utility.yul\":42445:42449   */\n      dup2\n        /* \"#utility.yul\":42441:42461   */\n      sub\n        /* \"#utility.yul\":42437:42438   */\n      0x00\n        /* \"#utility.yul\":42426:42435   */\n      dup4\n        /* \"#utility.yul\":42422:42439   */\n      add\n        /* \"#utility.yul\":42415:42462   */\n      mstore\n        /* \"#utility.yul\":42479:42610   */\n      tag_939\n        /* \"#utility.yul\":42605:42609   */\n      dup2\n        /* \"#utility.yul\":42479:42610   */\n      tag_561\n      jump\t// in\n    tag_939:\n        /* \"#utility.yul\":42471:42610   */\n      swap1\n      pop\n        /* \"#utility.yul\":42198:42617   */\n      swap2\n      swap1\n      pop\n      jump\t// out\n        /* \"#utility.yul\":42623:42792   */\n    tag_562:\n        /* \"#utility.yul\":42763:42784   */\n      0x496e76616c69642063616d706169676e20494400000000000000000000000000\n        /* \"#utility.yul\":42759:42760   */\n      0x00\n        /* \"#utility.yul\":42751:42757   */\n      dup3\n        /* \"#utility.yul\":42747:42761   */\n      add\n        /* \"#utility.yul\":42740:42785   */\n      mstore\n        /* \"#utility.yul\":42623:42792   */\n      pop\n      jump\t// out\n        /* \"#utility.yul\":42798:43164   */\n    tag_563:\n        /* \"#utility.yul\":42940:42943   */\n      0x00\n        /* \"#utility.yul\":42961:43028   */\n      tag_942\n        /* \"#utility.yul\":43025:43027   */\n      0x13\n        /* \"#utility.yul\":43020:43023   */\n      dup4\n        /* \"#utility.yul\":42961:43028   */\n      tag_473\n      jump\t// in\n    tag_942:\n        /* \"#utility.yul\":42954:43028   */\n      swap2\n      pop\n        /* \"#utility.yul\":43037:43130   */\n      tag_943\n        /* \"#utility.yul\":43126:43129   */\n      dup3\n        /* \"#utility.yul\":43037:43130   */\n      tag_562\n      jump\t// in\n    tag_943:\n        /* \"#utility.yul\":43155:43157   */\n      0x20\n        /* \"#utility.yul\":43150:43153   */\n      dup3\n        /* \"#utility.yul\":43146:43158   */\n      add\n        /* \"#utility.yul\":43139:43158   */\n      swap1\n      pop\n        /* \"#utility.yul\":42798:43164   */\n      swap2\n      swap1\n      pop\n      jump\t// out\n        /* \"#utility.yul\":43170:43589   */\n    tag_377:\n        /* \"#utility.yul\":43336:43340   */\n      0x00\n        /* \"#utility.yul\":43374:43376   */\n      0x20\n        /* \"#utility.yul\":43363:43372   */\n      dup3\n        /* \"#utility.yul\":43359:43377   */\n      add\n        /* \"#utility.yul\":43351:43377   */\n      swap1\n      pop\n        /* \"#utility.yul\":43423:43432   */\n      dup2\n        /* \"#utility.yul\":43417:43421   */\n      dup2\n        /* \"#utility.yul\":43413:43433   */\n      sub\n        /* \"#utility.yul\":43409:43410   */\n      0x00\n        /* \"#utility.yul\":43398:43407   */\n      dup4\n        /* \"#utility.yul\":43394:43411   */\n      add\n        /* \"#utility.yul\":43387:43434   */\n      mstore\n        /* \"#utility.yul\":43451:43582   */\n      tag_945\n        /* \"#utility.yul\":43577:43581   */\n      dup2\n        /* \"#utility.yul\":43451:43582   */\n      tag_563\n      jump\t// in\n    tag_945:\n        /* \"#utility.yul\":43443:43582   */\n      swap1\n      pop\n        /* \"#utility.yul\":43170:43589   */\n      swap2\n      swap1\n      pop\n      jump\t// out\n        /* \"#utility.yul\":43595:43819   */\n    tag_564:\n        /* \"#utility.yul\":43735:43769   */\n      0x4e6f20726566756e6420617661696c61626c6520666f72207468697320696e76\n        /* \"#utility.yul\":43731:43732   */\n      0x00\n        /* \"#utility.yul\":43723:43729   */\n      dup3\n        /* \"#utility.yul\":43719:43733   */\n      add\n        /* \"#utility.yul\":43712:43770   */\n      mstore\n        /* \"#utility.yul\":43804:43811   */\n      0x6573746f72000000000000000000000000000000000000000000000000000000\n        /* \"#utility.yul\":43799:43801   */\n      0x20\n        /* \"#utility.yul\":43791:43797   */\n      dup3\n        /* \"#utility.yul\":43787:43802   */\n      add\n        /* \"#utility.yul\":43780:43812   */\n      mstore\n        /* \"#utility.yul\":43595:43819   */\n      pop\n      jump\t// out\n        /* \"#utility.yul\":43825:44191   */\n    tag_565:\n        /* \"#utility.yul\":43967:43970   */\n      0x00\n        /* \"#utility.yul\":43988:44055   */\n      tag_948\n        /* \"#utility.yul\":44052:44054   */\n      0x25\n        /* \"#utility.yul\":44047:44050   */\n      dup4\n        /* \"#utility.yul\":43988:44055   */\n      tag_473\n      jump\t// in\n    tag_948:\n        /* \"#utility.yul\":43981:44055   */\n      swap2\n      pop\n        /* \"#utility.yul\":44064:44157   */\n      tag_949\n        /* \"#utility.yul\":44153:44156   */\n      dup3\n        /* \"#utility.yul\":44064:44157   */\n      tag_564\n      jump\t// in\n    tag_949:\n        /* \"#utility.yul\":44182:44184   */\n      0x40\n        /* \"#utility.yul\":44177:44180   */\n      dup3\n        /* \"#utility.yul\":44173:44185   */\n      add\n        /* \"#utility.yul\":44166:44185   */\n      swap1\n      pop\n        /* \"#utility.yul\":43825:44191   */\n      swap2\n      swap1\n      pop\n      jump\t// out\n        /* \"#utility.yul\":44197:44616   */\n    tag_458:\n        /* \"#utility.yul\":44363:44367   */\n      0x00\n        /* \"#utility.yul\":44401:44403   */\n      0x20\n        /* \"#utility.yul\":44390:44399   */\n      dup3\n        /* \"#utility.yul\":44386:44404   */\n      add\n        /* \"#utility.yul\":44378:44404   */\n      swap1\n      pop\n        /* \"#utility.yul\":44450:44459   */\n      dup2\n        /* \"#utility.yul\":44444:44448   */\n      dup2\n        /* \"#utility.yul\":44440:44460   */\n      sub\n        /* \"#utility.yul\":44436:44437   */\n      0x00\n        /* \"#utility.yul\":44425:44434   */\n      dup4\n        /* \"#utility.yul\":44421:44438   */\n      add\n        /* \"#utility.yul\":44414:44461   */\n      mstore\n        /* \"#utility.yul\":44478:44609   */\n      tag_951\n        /* \"#utility.yul\":44604:44608   */\n      dup2\n        /* \"#utility.yul\":44478:44609   */\n      tag_565\n      jump\t// in\n    tag_951:\n        /* \"#utility.yul\":44470:44609   */\n      swap1\n      pop\n        /* \"#utility.yul\":44197:44616   */\n      swap2\n      swap1\n      pop\n      jump\t// out\n\n    auxdata: 0xa2646970667358221220c40a9ae27e060a79d9e958be150f0e94eff533ea6d527c0038587c9d9cbef4b264736f6c634300081a0033\n}\n",
				"bytecode": {
					"linkReferences": {},
					"object": "608060405234801561001057600080fd5b506040516148b53803806148b5833981810160405281019061003291906100dd565b336000806101000a81548173ffffffffffffffffffffffffffffffffffffffff021916908373ffffffffffffffffffffffffffffffffffffffff160217905550806001819055506001600960006101000a81548160ff02191690831515021790555060006002819055505061010a565b600080fd5b6000819050919050565b6100ba816100a7565b81146100c557600080fd5b50565b6000815190506100d7816100b1565b92915050565b6000602082840312156100f3576100f26100a2565b5b6000610101848285016100c8565b91505092915050565b61479c806101196000396000f3fe6080604052600436106101405760003560e01c80638bc95413116100b6578063bc3da5351161006f578063bc3da53514610412578063bd424ee71461044f578063c0751ba41461048c578063c362b156146104b7578063ed68b685146104e2578063ff53c5a31461051f57610140565b80638bc95413146103035780638da5cb5b1461032c5780639553f18014610357578063a6f9dae114610380578063ad59be99146103a9578063b41ead0a146103d457610140565b80633c3ae5b8116101085780633c3ae5b81461021757806345598b4a14610242578063476343ee1461026b57806360c6d8ae1461028257806363338b17146102ad5780638a5be9b7146102d857610140565b8063092a5cce14610145578063141961bc1461015c5780632b7393fb146101a15780632cdda7d5146101bd5780633020580b146101fb575b600080fd5b34801561015157600080fd5b5061015a610548565b005b34801561016857600080fd5b50610183600480360381019061017e91906130fb565b6107fe565b60405161019899989796959493929190613223565b60405180910390f35b6101bb60048036038101906101b691906132b7565b61091b565b005b3480156101c957600080fd5b506101e460048036038101906101df9190613323565b610e18565b6040516101f292919061340e565b60405180910390f35b6102156004803603810190610210919061357a565b61100c565b005b34801561022357600080fd5b5061022c61131d565b60405161023991906137c3565b60405180910390f35b34801561024e57600080fd5b50610269600480360381019061026491906130fb565b6116d6565b005b34801561027757600080fd5b50610280611a83565b005b34801561028e57600080fd5b50610297611c43565b6040516102a491906137e5565b60405180910390f35b3480156102b957600080fd5b506102c2611c49565b6040516102cf91906137e5565b60405180910390f35b3480156102e457600080fd5b506102ed611d23565b6040516102fa91906137e5565b60405180910390f35b34801561030f57600080fd5b5061032a60048036038101906103259190613323565b611d29565b005b34801561033857600080fd5b50610341611f69565b60405161034e9190613800565b60405180910390f35b34801561036357600080fd5b5061037e600480360381019061037991906130fb565b611f8d565b005b34801561038c57600080fd5b506103a760048036038101906103a29190613323565b6122fd565b005b3480156103b557600080fd5b506103be61248c565b6040516103cb91906137e5565b60405180910390f35b3480156103e057600080fd5b506103fb60048036038101906103f691906130fb565b612492565b6040516104099291906138ca565b60405180910390f35b34801561041e57600080fd5b5061043960048036038101906104349190613323565b612705565b60405161044691906137e5565b60405180910390f35b34801561045b57600080fd5b5061047660048036038101906104719190613323565b61271d565b6040516104839190613901565b60405180910390f35b34801561049857600080fd5b506104a161273d565b6040516104ae91906137c3565b60405180910390f35b3480156104c357600080fd5b506104cc612a7b565b6040516104d991906137c3565b60405180910390f35b3480156104ee57600080fd5b50610509600480360381019061050491906130fb565b612e36565b6040516105169190613800565b60405180910390f35b34801561052b57600080fd5b5061054660048036038101906105419190613323565b612e75565b005b60008054906101000a900473ffffffffffffffffffffffffffffffffffffffff1673ffffffffffffffffffffffffffffffffffffffff163373ffffffffffffffffffffffffffffffffffffffff16146105d6576040517f08c379a00000000000000000000000000000000000000000000000000000000081526004016105cd9061398e565b60405180910390fd5b600960009054906101000a900460ff16610625576040517f08c379a000000000000000000000000000000000000000000000000000000000815260040161061c906139fa565b60405180910390fd5b60005b6003548110156107e05760006004600083815260200190815260200160002090508060060160019054906101000a900460ff168061067457508060060160029054906101000a900460ff165b1561067f57506107d3565b60008160060160006101000a81548160ff02191690831515021790555060018160060160016101000a81548160ff02191690831515021790555060005b81600701805490508110156107d05760008260070182815481106106e3576106e2613a1a565b5b9060005260206000200160009054906101000a900473ffffffffffffffffffffffffffffffffffffffff16905060008360080160008373ffffffffffffffffffffffffffffffffffffffff1673ffffffffffffffffffffffffffffffffffffffff16815260200190815260200160002054905060008460030154826107689190613a78565b905080600860008573ffffffffffffffffffffffffffffffffffffffff1673ffffffffffffffffffffffffffffffffffffffff16815260200190815260200160002060008282546107b99190613aba565b9250508190555050505080806001019150506106bc565b50505b8080600101915050610628565b506000600960006101000a81548160ff021916908315150217905550565b60046020528060005260406000206000915090508060000154908060010160009054906101000a900473ffffffffffffffffffffffffffffffffffffffff169080600201805461084d90613b1d565b80601f016020809104026020016040519081016040528092919081815260200182805461087990613b1d565b80156108c65780601f1061089b576101008083540402835291602001916108c6565b820191906000526020600020905b8154815290600101906020018083116108a957829003601f168201915b5050505050908060030154908060040154908060050154908060060160009054906101000a900460ff16908060060160019054906101000a900460ff16908060060160029054906101000a900460ff16905089565b60008054906101000a900473ffffffffffffffffffffffffffffffffffffffff1673ffffffffffffffffffffffffffffffffffffffff163373ffffffffffffffffffffffffffffffffffffffff16036109a9576040517f08c379a00000000000000000000000000000000000000000000000000000000081526004016109a090613bc0565b60405180910390fd5b600660003373ffffffffffffffffffffffffffffffffffffffff1673ffffffffffffffffffffffffffffffffffffffff16815260200190815260200160002060009054906101000a900460ff1615610a36576040517f08c379a0000000000000000000000000000000000000000000000000000000008152600401610a2d90613c2c565b60405180910390fd5b806004600082815260200190815260200160002060060160009054906101000a900460ff16610a9a576040517f08c379a0000000000000000000000000000000000000000000000000000000008152600401610a9190613c98565b60405180910390fd5b816004600082815260200190815260200160002060060160019054906101000a900460ff1615610aff576040517f08c379a0000000000000000000000000000000000000000000000000000000008152600401610af690613d04565b60405180910390fd5b826004600082815260200190815260200160002060060160029054906101000a900460ff1615610b64576040517f08c379a0000000000000000000000000000000000000000000000000000000008152600401610b5b90613d70565b60405180910390fd5b600960009054906101000a900460ff16610bb3576040517f08c379a0000000000000000000000000000000000000000000000000000000008152600401610baa906139fa565b60405180910390fd5b60006004600086815260200190815260200160002090508060010160009054906101000a900473ffffffffffffffffffffffffffffffffffffffff1673ffffffffffffffffffffffffffffffffffffffff163373ffffffffffffffffffffffffffffffffffffffff1603610c5c576040517f08c379a0000000000000000000000000000000000000000000000000000000008152600401610c5390613ddc565b60405180910390fd5b6000868260030154610c6e9190613a78565b9050803414610cb2576040517f08c379a0000000000000000000000000000000000000000000000000000000008152600401610ca990613e48565b60405180910390fd5b86826005016000828254610cc69190613aba565b9250508190555060008260080160003373ffffffffffffffffffffffffffffffffffffffff1673ffffffffffffffffffffffffffffffffffffffff1681526020019081526020016000205403610d7c5781600701339080600181540180825580915050600190039060005260206000200160009091909190916101000a81548173ffffffffffffffffffffffffffffffffffffffff021916908373ffffffffffffffffffffffffffffffffffffffff1602179055505b868260080160003373ffffffffffffffffffffffffffffffffffffffff1673ffffffffffffffffffffffffffffffffffffffff1681526020019081526020016000206000828254610dcd9190613aba565b925050819055507fd4a7a37d339805413b4085e0f8e0932dfb0a4f84f08f98a6e53673b5ee8eee15863389604051610e0793929190613e68565b60405180910390a150505050505050565b6060806000805b600354811015610ea15760006004600083815260200190815260200160002060080160008773ffffffffffffffffffffffffffffffffffffffff1673ffffffffffffffffffffffffffffffffffffffff168152602001908152602001600020541115610e94578180610e9090613e9f565b9250505b8080600101915050610e1f565b508067ffffffffffffffff811115610ebc57610ebb61344f565b5b604051908082528060200260200182016040528015610eea5781602001602082028036833780820191505090505b5092508067ffffffffffffffff811115610f0757610f0661344f565b5b604051908082528060200260200182016040528015610f355781602001602082028036833780820191505090505b5091506000805b6003548110156110045760006004600083815260200190815260200160002060080160008873ffffffffffffffffffffffffffffffffffffffff1673ffffffffffffffffffffffffffffffffffffffff1681526020019081526020016000205490506000811115610ff65781868481518110610fbb57610fba613a1a565b5b60200260200101818152505080858481518110610fdb57610fda613a1a565b5b6020026020010181815250508280610ff290613e9f565b9350505b508080600101915050610f3c565b505050915091565b60008054906101000a900473ffffffffffffffffffffffffffffffffffffffff1673ffffffffffffffffffffffffffffffffffffffff163373ffffffffffffffffffffffffffffffffffffffff160361109a576040517f08c379a000000000000000000000000000000000000000000000000000000000815260040161109190613bc0565b60405180910390fd5b600660003373ffffffffffffffffffffffffffffffffffffffff1673ffffffffffffffffffffffffffffffffffffffff16815260200190815260200160002060009054906101000a900460ff1615611127576040517f08c379a000000000000000000000000000000000000000000000000000000000815260040161111e90613c2c565b60405180910390fd5b600154341461116b576040517f08c379a000000000000000000000000000000000000000000000000000000000815260040161116290613f33565b60405180910390fd5b80600081116111af576040517f08c379a00000000000000000000000000000000000000000000000000000000081526004016111a690613fc5565b60405180910390fd5b600960009054906101000a900460ff166111fe576040517f08c379a00000000000000000000000000000000000000000000000000000000081526004016111f5906139fa565b60405180910390fd5b600060046000600354815260200190815260200160002090506003548160000181905550338160010160006101000a81548173ffffffffffffffffffffffffffffffffffffffff021916908373ffffffffffffffffffffffffffffffffffffffff160217905550848160020190816112769190614191565b5083816003018190555082816004018190555060018160060160006101000a81548160ff021916908315150217905550600360008154809291906112b990613e9f565b9190505550600154600260008282546112d29190613aba565b925050819055507fc04c663886cae794dc52158f70fe6c8ee3b0140d4f48647282f9b693ff688a65600354338760405161130e93929190614263565b60405180910390a15050505050565b6060600960009054906101000a900460ff1661136e576040517f08c379a0000000000000000000000000000000000000000000000000000000008152600401611365906139fa565b60405180910390fd5b6000805b6003548110156113ee576004600082815260200190815260200160002060060160029054906101000a900460ff1680156113cd57506004600082815260200190815260200160002060060160019054906101000a900460ff16155b156113e15781806113dd90613e9f565b9250505b8080600101915050611372565b5060008167ffffffffffffffff81111561140b5761140a61344f565b5b60405190808252806020026020018201604052801561144457816020015b611431613052565b8152602001906001900390816114295790505b5090506000805b6003548110156116cc576004600082815260200190815260200160002060060160029054906101000a900460ff1680156114a657506004600082815260200190815260200160002060060160019054906101000a900460ff16155b156116bf57604051806101000160405280600460008481526020019081526020016000206000015481526020016004600084815260200190815260200160002060010160009054906101000a900473ffffffffffffffffffffffffffffffffffffffff1673ffffffffffffffffffffffffffffffffffffffff16815260200160046000848152602001908152602001600020600201805461154690613b1d565b80601f016020809104026020016040519081016040528092919081815260200182805461157290613b1d565b80156115bf5780601f10611594576101008083540402835291602001916115bf565b820191906000526020600020905b8154815290600101906020018083116115a257829003601f168201915b50505050508152602001600460008481526020019081526020016000206003015481526020016004600084815260200190815260200160002060050154600460008581526020019081526020016000206004015461161d91906142a1565b8152602001600460008481526020019081526020016000206005015481526020016004600084815260200190815260200160002060060160029054906101000a900460ff16151581526020016004600084815260200190815260200160002060060160019054906101000a900460ff1615158152508383815181106116a5576116a4613a1a565b5b602002602001018190525081806116bb90613e9f565b9250505b808060010191505061144b565b5081935050505090565b806004600082815260200190815260200160002060060160009054906101000a900460ff1661173a576040517f08c379a000000000000000000000000000000000000000000000000000000000815260040161173190613c98565b60405180910390fd5b816004600082815260200190815260200160002060060160029054906101000a900460ff161561179f576040517f08c379a000000000000000000000000000000000000000000000000000000000815260040161179690613d70565b60405180910390fd5b600960009054906101000a900460ff166117ee576040517f08c379a00000000000000000000000000000000000000000000000000000000081526004016117e5906139fa565b60405180910390fd5b60006004600085815260200190815260200160002090508060010160009054906101000a900473ffffffffffffffffffffffffffffffffffffffff1673ffffffffffffffffffffffffffffffffffffffff163373ffffffffffffffffffffffffffffffffffffffff1614806118ae575060008054906101000a900473ffffffffffffffffffffffffffffffffffffffff1673ffffffffffffffffffffffffffffffffffffffff163373ffffffffffffffffffffffffffffffffffffffff16145b6118ed576040517f08c379a00000000000000000000000000000000000000000000000000000000081526004016118e490614347565b60405180910390fd5b60008160060160006101000a81548160ff02191690831515021790555060018160060160016101000a81548160ff02191690831515021790555060005b8160070180549050811015611a3e57600082600701828154811061195157611950613a1a565b5b9060005260206000200160009054906101000a900473ffffffffffffffffffffffffffffffffffffffff16905060008360080160008373ffffffffffffffffffffffffffffffffffffffff1673ffffffffffffffffffffffffffffffffffffffff16815260200190815260200160002054905060008460030154826119d69190613a78565b905080600860008573ffffffffffffffffffffffffffffffffffffffff1673ffffffffffffffffffffffffffffffffffffffff1681526020019081526020016000206000828254611a279190613aba565b92505081905550505050808060010191505061192a565b507f57bf3fc7e1999f61d60bf6bf729b85a5423c5d0883a1629cf9794f2162ae2aba843383600201604051611a75939291906143eb565b60405180910390a150505050565b60008054906101000a900473ffffffffffffffffffffffffffffffffffffffff1673ffffffffffffffffffffffffffffffffffffffff163373ffffffffffffffffffffffffffffffffffffffff1614611b11576040517f08c379a0000000000000000000000000000000000000000000000000000000008152600401611b089061398e565b60405180910390fd5b600960009054906101000a900460ff16611b60576040517f08c379a0000000000000000000000000000000000000000000000000000000008152600401611b57906139fa565b60405180910390fd5b60006002549050600060028190555060008054906101000a900473ffffffffffffffffffffffffffffffffffffffff1673ffffffffffffffffffffffffffffffffffffffff166108fc829081150290604051600060405180830381858888f19350505050158015611bd5573d6000803e3d6000fd5b5060004790507fc0819c13be868895eb93e40eaceb96de976442fa1d404e5c55f14bb65a8c489a60008054906101000a900473ffffffffffffffffffffffffffffffffffffffff168284611c299190613aba565b604051611c37929190614429565b60405180910390a15050565b60025481565b6000600960009054906101000a900460ff16611c9a576040517f08c379a0000000000000000000000000000000000000000000000000000000008152600401611c91906139fa565b60405180910390fd5b6000805b600354811015611d1b576004600082815260200190815260200160002060060160029054906101000a900460ff16158015611cfa57506004600082815260200190815260200160002060060160019054906101000a900460ff16155b15611d0e578180611d0a90613e9f565b9250505b8080600101915050611c9e565b508091505090565b60015481565b600960009054906101000a900460ff16611d78576040517f08c379a0000000000000000000000000000000000000000000000000000000008152600401611d6f906139fa565b60405180910390fd5b60008054906101000a900473ffffffffffffffffffffffffffffffffffffffff1673ffffffffffffffffffffffffffffffffffffffff163373ffffffffffffffffffffffffffffffffffffffff1614611e06576040517f08c379a0000000000000000000000000000000000000000000000000000000008152600401611dfd9061398e565b60405180910390fd5b600660003373ffffffffffffffffffffffffffffffffffffffff1673ffffffffffffffffffffffffffffffffffffffff16815260200190815260200160002060009054906101000a900460ff1615611e93576040517f08c379a0000000000000000000000000000000000000000000000000000000008152600401611e8a90613c2c565b60405180910390fd5b6001600660008373ffffffffffffffffffffffffffffffffffffffff1673ffffffffffffffffffffffffffffffffffffffff16815260200190815260200160002060006101000a81548160ff0219169083151502179055506007819080600181540180825580915050600190039060005260206000200160009091909190916101000a81548173ffffffffffffffffffffffffffffffffffffffff021916908373ffffffffffffffffffffffffffffffffffffffff16021790555060056000815480929190611f6190613e9f565b919050555050565b60008054906101000a900473ffffffffffffffffffffffffffffffffffffffff1681565b806004600082815260200190815260200160002060060160009054906101000a900460ff16611ff1576040517f08c379a0000000000000000000000000000000000000000000000000000000008152600401611fe890613c98565b60405180910390fd5b816004600082815260200190815260200160002060060160019054906101000a900460ff1615612056576040517f08c379a000000000000000000000000000000000000000000000000000000000815260040161204d90613d04565b60405180910390fd5b600960009054906101000a900460ff166120a5576040517f08c379a000000000000000000000000000000000000000000000000000000000815260040161209c906139fa565b60405180910390fd5b60006004600085815260200190815260200160002090508060010160009054906101000a900473ffffffffffffffffffffffffffffffffffffffff1673ffffffffffffffffffffffffffffffffffffffff163373ffffffffffffffffffffffffffffffffffffffff161480612165575060008054906101000a900473ffffffffffffffffffffffffffffffffffffffff1673ffffffffffffffffffffffffffffffffffffffff163373ffffffffffffffffffffffffffffffffffffffff16145b6121a4576040517f08c379a000000000000000000000000000000000000000000000000000000000815260040161219b906144c4565b60405180910390fd5b8060040154816005015410156121ef576040517f08c379a00000000000000000000000000000000000000000000000000000000081526004016121e690614556565b60405180910390fd5b600060646050476122009190613a78565b61220a91906145a5565b90508160010160009054906101000a900473ffffffffffffffffffffffffffffffffffffffff1673ffffffffffffffffffffffffffffffffffffffff166108fc829081150290604051600060405180830381858888f19350505050158015612276573d6000803e3d6000fd5b504760028190555060008260060160006101000a81548160ff02191690831515021790555060018260060160026101000a81548160ff0219169083151502179055507f8074ef78c691c15ac249ef0c702e350affe9388afdbbafd37c0d19703cd0c7db8533846002016040516122ee939291906143eb565b60405180910390a15050505050565b60008054906101000a900473ffffffffffffffffffffffffffffffffffffffff1673ffffffffffffffffffffffffffffffffffffffff163373ffffffffffffffffffffffffffffffffffffffff161461238b576040517f08c379a00000000000000000000000000000000000000000000000000000000081526004016123829061398e565b60405180910390fd5b600960009054906101000a900460ff166123da576040517f08c379a00000000000000000000000000000000000000000000000000000000081526004016123d1906139fa565b60405180910390fd5b600073ffffffffffffffffffffffffffffffffffffffff168173ffffffffffffffffffffffffffffffffffffffff1603612449576040517f08c379a000000000000000000000000000000000000000000000000000000000815260040161244090614648565b60405180910390fd5b806000806101000a81548173ffffffffffffffffffffffffffffffffffffffff021916908373ffffffffffffffffffffffffffffffffffffffff16021790555050565b60055481565b606080600960009054906101000a900460ff166124e4576040517f08c379a00000000000000000000000000000000000000000000000000000000081526004016124db906139fa565b60405180910390fd5b826000811180156124f757506003548111155b612536576040517f08c379a000000000000000000000000000000000000000000000000000000000815260040161252d906146b4565b60405180910390fd5b60006004600086815260200190815260200160002090506000816007018054905090508067ffffffffffffffff8111156125735761257261344f565b5b6040519080825280602002602001820160405280156125a15781602001602082028036833780820191505090505b5094508067ffffffffffffffff8111156125be576125bd61344f565b5b6040519080825280602002602001820160405280156125ec5781602001602082028036833780820191505090505b50935060005b818110156126fc57600083600701828154811061261257612611613a1a565b5b9060005260206000200160009054906101000a900473ffffffffffffffffffffffffffffffffffffffff1690508087838151811061265357612652613a1a565b5b602002602001019073ffffffffffffffffffffffffffffffffffffffff16908173ffffffffffffffffffffffffffffffffffffffff16815250508360080160008273ffffffffffffffffffffffffffffffffffffffff1673ffffffffffffffffffffffffffffffffffffffff168152602001908152602001600020548683815181106126e2576126e1613a1a565b5b6020026020010181815250505080806001019150506125f2565b50505050915091565b60086020528060005260406000206000915090505481565b60066020528060005260406000206000915054906101000a900460ff1681565b6060600960009054906101000a900460ff1661278e576040517f08c379a0000000000000000000000000000000000000000000000000000000008152600401612785906139fa565b60405180910390fd5b6000805b6003548110156127e1576004600082815260200190815260200160002060060160019054906101000a900460ff16156127d45781806127d090613e9f565b9250505b8080600101915050612792565b5060008167ffffffffffffffff8111156127fe576127fd61344f565b5b60405190808252806020026020018201604052801561283757816020015b612824613052565b81526020019060019003908161281c5790505b5090506000805b600354811015612a71576004600082815260200190815260200160002060060160019054906101000a900460ff1615612a6457604051806101000160405280600460008481526020019081526020016000206000015481526020016004600084815260200190815260200160002060010160009054906101000a900473ffffffffffffffffffffffffffffffffffffffff1673ffffffffffffffffffffffffffffffffffffffff16815260200160046000848152602001908152602001600020600201805461290c90613b1d565b80601f016020809104026020016040519081016040528092919081815260200182805461293890613b1d565b80156129855780601f1061295a57610100808354040283529160200191612985565b820191906000526020600020905b81548152906001019060200180831161296857829003601f168201915b505050505081526020016004600084815260200190815260200160002060030154815260200160046000848152602001908152602001600020600401548152602001600460008481526020019081526020016000206005015481526020016004600084815260200190815260200160002060060160029054906101000a900460ff16151581526020016004600084815260200190815260200160002060060160019054906101000a900460ff161515815250838381518110612a4a57612a49613a1a565b5b60200260200101819052508180612a6090613e9f565b9250505b808060010191505061283e565b5081935050505090565b6060600960009054906101000a900460ff16612acc576040517f08c379a0000000000000000000000000000000000000000000000000000000008152600401612ac3906139fa565b60405180910390fd5b6000805b600354811015612b4d576004600082815260200190815260200160002060060160029054906101000a900460ff16158015612b2c57506004600082815260200190815260200160002060060160019054906101000a900460ff16155b15612b40578180612b3c90613e9f565b9250505b8080600101915050612ad0565b5060008167ffffffffffffffff811115612b6a57612b6961344f565b5b604051908082528060200260200182016040528015612ba357816020015b612b90613052565b815260200190600190039081612b885790505b5090506000805b600354811015612e2c576004600082815260200190815260200160002060060160029054906101000a900460ff16158015612c0657506004600082815260200190815260200160002060060160019054906101000a900460ff16155b15612e1f57604051806101000160405280600460008481526020019081526020016000206000015481526020016004600084815260200190815260200160002060010160009054906101000a900473ffffffffffffffffffffffffffffffffffffffff1673ffffffffffffffffffffffffffffffffffffffff168152602001600460008481526020019081526020016000206002018054612ca690613b1d565b80601f0160208091040260200160405190810160405280929190818152602001828054612cd290613b1d565b8015612d1f5780601f10612cf457610100808354040283529160200191612d1f565b820191906000526020600020905b815481529060010190602001808311612d0257829003601f168201915b505050505081526020016004600084815260200190815260200160002060030154815260200160046000848152602001908152602001600020600501546004600085815260200190815260200160002060040154612d7d91906142a1565b8152602001600460008481526020019081526020016000206005015481526020016004600084815260200190815260200160002060060160029054906101000a900460ff16151581526020016004600084815260200190815260200160002060060160019054906101000a900460ff161515815250838381518110612e0557612e04613a1a565b5b60200260200101819052508180612e1b90613e9f565b9250505b8080600101915050612baa565b5081935050505090565b60078181548110612e4657600080fd5b906000526020600020016000915054906101000a900473ffffffffffffffffffffffffffffffffffffffff1681565b600660003373ffffffffffffffffffffffffffffffffffffffff1673ffffffffffffffffffffffffffffffffffffffff16815260200190815260200160002060009054906101000a900460ff1615612f02576040517f08c379a0000000000000000000000000000000000000000000000000000000008152600401612ef990613c2c565b60405180910390fd5b6000600860008373ffffffffffffffffffffffffffffffffffffffff1673ffffffffffffffffffffffffffffffffffffffff16815260200190815260200160002054905060008111612f89576040517f08c379a0000000000000000000000000000000000000000000000000000000008152600401612f8090614746565b60405180910390fd5b6000600860008473ffffffffffffffffffffffffffffffffffffffff1673ffffffffffffffffffffffffffffffffffffffff168152602001908152602001600020819055508173ffffffffffffffffffffffffffffffffffffffff166108fc829081150290604051600060405180830381858888f19350505050158015613014573d6000803e3d6000fd5b507f08d40e9c27d77b658952cbaacaa582b75d323ce97d3904729b9674ddf5d5f13e8282604051613046929190614429565b60405180910390a15050565b60405180610100016040528060008152602001600073ffffffffffffffffffffffffffffffffffffffff168152602001606081526020016000815260200160008152602001600081526020016000151581526020016000151581525090565b6000604051905090565b600080fd5b600080fd5b6000819050919050565b6130d8816130c5565b81146130e357600080fd5b50565b6000813590506130f5816130cf565b92915050565b600060208284031215613111576131106130bb565b5b600061311f848285016130e6565b91505092915050565b613131816130c5565b82525050565b600073ffffffffffffffffffffffffffffffffffffffff82169050919050565b600061316282613137565b9050919050565b61317281613157565b82525050565b600081519050919050565b600082825260208201905092915050565b60005b838110156131b2578082015181840152602081019050613197565b60008484015250505050565b6000601f19601f8301169050919050565b60006131da82613178565b6131e48185613183565b93506131f4818560208601613194565b6131fd816131be565b840191505092915050565b60008115159050919050565b61321d81613208565b82525050565b600061012082019050613239600083018c613128565b613246602083018b613169565b8181036040830152613258818a6131cf565b90506132676060830189613128565b6132746080830188613128565b61328160a0830187613128565b61328e60c0830186613214565b61329b60e0830185613214565b6132a9610100830184613214565b9a9950505050505050505050565b600080604083850312156132ce576132cd6130bb565b5b60006132dc858286016130e6565b92505060206132ed858286016130e6565b9150509250929050565b61330081613157565b811461330b57600080fd5b50565b60008135905061331d816132f7565b92915050565b600060208284031215613339576133386130bb565b5b60006133478482850161330e565b91505092915050565b600081519050919050565b600082825260208201905092915050565b6000819050602082019050919050565b613385816130c5565b82525050565b6000613397838361337c565b60208301905092915050565b6000602082019050919050565b60006133bb82613350565b6133c5818561335b565b93506133d08361336c565b8060005b838110156134015781516133e8888261338b565b97506133f3836133a3565b9250506001810190506133d4565b5085935050505092915050565b6000604082019050818103600083015261342881856133b0565b9050818103602083015261343c81846133b0565b90509392505050565b600080fd5b600080fd5b7f4e487b7100000000000000000000000000000000000000000000000000000000600052604160045260246000fd5b613487826131be565b810181811067ffffffffffffffff821117156134a6576134a561344f565b5b80604052505050565b60006134b96130b1565b90506134c5828261347e565b919050565b600067ffffffffffffffff8211156134e5576134e461344f565b5b6134ee826131be565b9050602081019050919050565b82818337600083830152505050565b600061351d613518846134ca565b6134af565b9050828152602081018484840111156135395761353861344a565b5b6135448482856134fb565b509392505050565b600082601f83011261356157613560613445565b5b813561357184826020860161350a565b91505092915050565b600080600060608486031215613593576135926130bb565b5b600084013567ffffffffffffffff8111156135b1576135b06130c0565b5b6135bd8682870161354c565b93505060206135ce868287016130e6565b92505060406135df868287016130e6565b9150509250925092565b600081519050919050565b600082825260208201905092915050565b6000819050602082019050919050565b61361e81613157565b82525050565b600082825260208201905092915050565b600061364082613178565b61364a8185613624565b935061365a818560208601613194565b613663816131be565b840191505092915050565b61367781613208565b82525050565b600061010083016000830151613696600086018261337c565b5060208301516136a96020860182613615565b50604083015184820360408601526136c18282613635565b91505060608301516136d6606086018261337c565b5060808301516136e9608086018261337c565b5060a08301516136fc60a086018261337c565b5060c083015161370f60c086018261366e565b5060e083015161372260e086018261366e565b508091505092915050565b6000613739838361367d565b905092915050565b6000602082019050919050565b6000613759826135e9565b61376381856135f4565b93508360208202850161377585613605565b8060005b858110156137b15784840389528151613792858261372d565b945061379d83613741565b925060208a01995050600181019050613779565b50829750879550505050505092915050565b600060208201905081810360008301526137dd818461374e565b905092915050565b60006020820190506137fa6000830184613128565b92915050565b60006020820190506138156000830184613169565b92915050565b600081519050919050565b600082825260208201905092915050565b6000819050602082019050919050565b60006138538383613615565b60208301905092915050565b6000602082019050919050565b60006138778261381b565b6138818185613826565b935061388c83613837565b8060005b838110156138bd5781516138a48882613847565b97506138af8361385f565b925050600181019050613890565b5085935050505092915050565b600060408201905081810360008301526138e4818561386c565b905081810360208301526138f881846133b0565b90509392505050565b60006020820190506139166000830184613214565b92915050565b7f4f6e6c792074686520636f6e7472616374206f776e65722063616e206578656360008201527f7574652074686973000000000000000000000000000000000000000000000000602082015250565b6000613978602883613183565b91506139838261391c565b604082019050919050565b600060208201905081810360008301526139a78161396b565b9050919050565b7f436f6e7472616374206973206e6f742061637469766500000000000000000000600082015250565b60006139e4601683613183565b91506139ef826139ae565b602082019050919050565b60006020820190508181036000830152613a13816139d7565b9050919050565b7f4e487b7100000000000000000000000000000000000000000000000000000000600052603260045260246000fd5b7f4e487b7100000000000000000000000000000000000000000000000000000000600052601160045260246000fd5b6000613a83826130c5565b9150613a8e836130c5565b9250828202613a9c816130c5565b91508282048414831517613ab357613ab2613a49565b5b5092915050565b6000613ac5826130c5565b9150613ad0836130c5565b9250828201905080821115613ae857613ae7613a49565b5b92915050565b7f4e487b7100000000000000000000000000000000000000000000000000000000600052602260045260246000fd5b60006002820490506001821680613b3557607f821691505b602082108103613b4857613b47613aee565b5b50919050565b7f54686520636f6e7472616374206f776e65722063616e277420706572666f726d60008201527f206675727468657220616374696f6e7300000000000000000000000000000000602082015250565b6000613baa603083613183565b9150613bb582613b4e565b604082019050919050565b60006020820190508181036000830152613bd981613b9d565b9050919050565b7f416464726573732069732062616e6e6564000000000000000000000000000000600082015250565b6000613c16601183613183565b9150613c2182613be0565b602082019050919050565b60006020820190508181036000830152613c4581613c09565b9050919050565b7f43616d706169676e206973206e6f742061637469766500000000000000000000600082015250565b6000613c82601683613183565b9150613c8d82613c4c565b602082019050919050565b60006020820190508181036000830152613cb181613c75565b9050919050565b7f43616d706169676e2069732063616e63656c6c65640000000000000000000000600082015250565b6000613cee601583613183565b9150613cf982613cb8565b602082019050919050565b60006020820190508181036000830152613d1d81613ce1565b9050919050565b7f43616d706169676e20697320616c726561647920636f6d706c65746564000000600082015250565b6000613d5a601d83613183565b9150613d6582613d24565b602082019050919050565b60006020820190508181036000830152613d8981613d4d565b9050919050565b7f54686520656e7472657072656e6575722063616e27742066756e640000000000600082015250565b6000613dc6601b83613183565b9150613dd182613d90565b602082019050919050565b60006020820190508181036000830152613df581613db9565b9050919050565b7f496e636f7272656374205765692076616c75652073656e740000000000000000600082015250565b6000613e32601883613183565b9150613e3d82613dfc565b602082019050919050565b60006020820190508181036000830152613e6181613e25565b9050919050565b6000606082019050613e7d6000830186613128565b613e8a6020830185613169565b613e976040830184613128565b949350505050565b6000613eaa826130c5565b91507fffffffffffffffffffffffffffffffffffffffffffffffffffffffffffffffff8203613edc57613edb613a49565b5b600182019050919050565b7f496e636f72726563742063616d706169676e2066656500000000000000000000600082015250565b6000613f1d601683613183565b9150613f2882613ee7565b602082019050919050565b60006020820190508181036000830152613f4c81613f10565b9050919050565b7f546f74616c20736861726573206d75737420626520677265617465722074686160008201527f6e207a65726f0000000000000000000000000000000000000000000000000000602082015250565b6000613faf602683613183565b9150613fba82613f53565b604082019050919050565b60006020820190508181036000830152613fde81613fa2565b9050919050565b60008190508160005260206000209050919050565b60006020601f8301049050919050565b600082821b905092915050565b6000600883026140477fffffffffffffffffffffffffffffffffffffffffffffffffffffffffffffffff8261400a565b614051868361400a565b95508019841693508086168417925050509392505050565b6000819050919050565b600061408e614089614084846130c5565b614069565b6130c5565b9050919050565b6000819050919050565b6140a883614073565b6140bc6140b482614095565b848454614017565b825550505050565b600090565b6140d16140c4565b6140dc81848461409f565b505050565b5b81811015614100576140f56000826140c9565b6001810190506140e2565b5050565b601f8211156141455761411681613fe5565b61411f84613ffa565b8101602085101561412e578190505b61414261413a85613ffa565b8301826140e1565b50505b505050565b600082821c905092915050565b60006141686000198460080261414a565b1980831691505092915050565b60006141818383614157565b9150826002028217905092915050565b61419a82613178565b67ffffffffffffffff8111156141b3576141b261344f565b5b6141bd8254613b1d565b6141c8828285614104565b600060209050601f8311600181146141fb57600084156141e9578287015190505b6141f38582614175565b86555061425b565b601f19841661420986613fe5565b60005b828110156142315784890151825560018201915060208501945060208101905061420c565b8683101561424e578489015161424a601f891682614157565b8355505b6001600288020188555050505b505050505050565b60006060820190506142786000830186613128565b6142856020830185613169565b818103604083015261429781846131cf565b9050949350505050565b60006142ac826130c5565b91506142b7836130c5565b92508282039050818111156142cf576142ce613a49565b5b92915050565b7f4f6e6c792074686520656e7472657072656e657572206f72206f776e6572206360008201527f616e2063616e63656c20746869732063616d706169676e000000000000000000602082015250565b6000614331603783613183565b915061433c826142d5565b604082019050919050565b6000602082019050818103600083015261436081614324565b9050919050565b6000815461437481613b1d565b61437e8186613183565b9450600182166000811461439957600181146143af576143e2565b60ff1983168652811515602002860193506143e2565b6143b885613fe5565b60005b838110156143da578154818901526001820191506020810190506143bb565b808801955050505b50505092915050565b60006060820190506144006000830186613128565b61440d6020830185613169565b818103604083015261441f8184614367565b9050949350505050565b600060408201905061443e6000830185613169565b61444b6020830184613128565b9392505050565b7f4f6e6c792074686520656e7472657072656e657572206f72206f776e6572206360008201527f616e20636f6d706c65746520746869732063616d706169676e00000000000000602082015250565b60006144ae603983613183565b91506144b982614452565b604082019050919050565b600060208201905081810360008301526144dd816144a1565b9050919050565b7f43616d706169676e20646f6573206e6f74206861766520656e6f75676820736860008201527f6172657300000000000000000000000000000000000000000000000000000000602082015250565b6000614540602483613183565b915061454b826144e4565b604082019050919050565b6000602082019050818103600083015261456f81614533565b9050919050565b7f4e487b7100000000000000000000000000000000000000000000000000000000600052601260045260246000fd5b60006145b0826130c5565b91506145bb836130c5565b9250826145cb576145ca614576565b5b828204905092915050565b7f4e6577206f776e65722063616e6e6f7420626520746865207a65726f2061646460008201527f7265737300000000000000000000000000000000000000000000000000000000602082015250565b6000614632602483613183565b915061463d826145d6565b604082019050919050565b6000602082019050818103600083015261466181614625565b9050919050565b7f496e76616c69642063616d706169676e20494400000000000000000000000000600082015250565b600061469e601383613183565b91506146a982614668565b602082019050919050565b600060208201905081810360008301526146cd81614691565b9050919050565b7f4e6f20726566756e6420617661696c61626c6520666f72207468697320696e7660008201527f6573746f72000000000000000000000000000000000000000000000000000000602082015250565b6000614730602583613183565b915061473b826146d4565b604082019050919050565b6000602082019050818103600083015261475f81614723565b905091905056fea2646970667358221220c40a9ae27e060a79d9e958be150f0e94eff533ea6d527c0038587c9d9cbef4b264736f6c634300081a0033",
					"opcodes": "PUSH1 0x80 PUSH1 0x40 MSTORE CALLVALUE DUP1 ISZERO PUSH2 0x10 JUMPI PUSH1 0x0 DUP1 REVERT JUMPDEST POP PUSH1 0x40 MLOAD PUSH2 0x48B5 CODESIZE SUB DUP1 PUSH2 0x48B5 DUP4 CODECOPY DUP2 DUP2 ADD PUSH1 0x40 MSTORE DUP2 ADD SWAP1 PUSH2 0x32 SWAP2 SWAP1 PUSH2 0xDD JUMP JUMPDEST CALLER PUSH1 0x0 DUP1 PUSH2 0x100 EXP DUP2 SLOAD DUP2 PUSH20 0xFFFFFFFFFFFFFFFFFFFFFFFFFFFFFFFFFFFFFFFF MUL NOT AND SWAP1 DUP4 PUSH20 0xFFFFFFFFFFFFFFFFFFFFFFFFFFFFFFFFFFFFFFFF AND MUL OR SWAP1 SSTORE POP DUP1 PUSH1 0x1 DUP2 SWAP1 SSTORE POP PUSH1 0x1 PUSH1 0x9 PUSH1 0x0 PUSH2 0x100 EXP DUP2 SLOAD DUP2 PUSH1 0xFF MUL NOT AND SWAP1 DUP4 ISZERO ISZERO MUL OR SWAP1 SSTORE POP PUSH1 0x0 PUSH1 0x2 DUP2 SWAP1 SSTORE POP POP PUSH2 0x10A JUMP JUMPDEST PUSH1 0x0 DUP1 REVERT JUMPDEST PUSH1 0x0 DUP2 SWAP1 POP SWAP2 SWAP1 POP JUMP JUMPDEST PUSH2 0xBA DUP2 PUSH2 0xA7 JUMP JUMPDEST DUP2 EQ PUSH2 0xC5 JUMPI PUSH1 0x0 DUP1 REVERT JUMPDEST POP JUMP JUMPDEST PUSH1 0x0 DUP2 MLOAD SWAP1 POP PUSH2 0xD7 DUP2 PUSH2 0xB1 JUMP JUMPDEST SWAP3 SWAP2 POP POP JUMP JUMPDEST PUSH1 0x0 PUSH1 0x20 DUP3 DUP5 SUB SLT ISZERO PUSH2 0xF3 JUMPI PUSH2 0xF2 PUSH2 0xA2 JUMP JUMPDEST JUMPDEST PUSH1 0x0 PUSH2 0x101 DUP5 DUP3 DUP6 ADD PUSH2 0xC8 JUMP JUMPDEST SWAP2 POP POP SWAP3 SWAP2 POP POP JUMP JUMPDEST PUSH2 0x479C DUP1 PUSH2 0x119 PUSH1 0x0 CODECOPY PUSH1 0x0 RETURN INVALID PUSH1 0x80 PUSH1 0x40 MSTORE PUSH1 0x4 CALLDATASIZE LT PUSH2 0x140 JUMPI PUSH1 0x0 CALLDATALOAD PUSH1 0xE0 SHR DUP1 PUSH4 0x8BC95413 GT PUSH2 0xB6 JUMPI DUP1 PUSH4 0xBC3DA535 GT PUSH2 0x6F JUMPI DUP1 PUSH4 0xBC3DA535 EQ PUSH2 0x412 JUMPI DUP1 PUSH4 0xBD424EE7 EQ PUSH2 0x44F JUMPI DUP1 PUSH4 0xC0751BA4 EQ PUSH2 0x48C JUMPI DUP1 PUSH4 0xC362B156 EQ PUSH2 0x4B7 JUMPI DUP1 PUSH4 0xED68B685 EQ PUSH2 0x4E2 JUMPI DUP1 PUSH4 0xFF53C5A3 EQ PUSH2 0x51F JUMPI PUSH2 0x140 JUMP JUMPDEST DUP1 PUSH4 0x8BC95413 EQ PUSH2 0x303 JUMPI DUP1 PUSH4 0x8DA5CB5B EQ PUSH2 0x32C JUMPI DUP1 PUSH4 0x9553F180 EQ PUSH2 0x357 JUMPI DUP1 PUSH4 0xA6F9DAE1 EQ PUSH2 0x380 JUMPI DUP1 PUSH4 0xAD59BE99 EQ PUSH2 0x3A9 JUMPI DUP1 PUSH4 0xB41EAD0A EQ PUSH2 0x3D4 JUMPI PUSH2 0x140 JUMP JUMPDEST DUP1 PUSH4 0x3C3AE5B8 GT PUSH2 0x108 JUMPI DUP1 PUSH4 0x3C3AE5B8 EQ PUSH2 0x217 JUMPI DUP1 PUSH4 0x45598B4A EQ PUSH2 0x242 JUMPI DUP1 PUSH4 0x476343EE EQ PUSH2 0x26B JUMPI DUP1 PUSH4 0x60C6D8AE EQ PUSH2 0x282 JUMPI DUP1 PUSH4 0x63338B17 EQ PUSH2 0x2AD JUMPI DUP1 PUSH4 0x8A5BE9B7 EQ PUSH2 0x2D8 JUMPI PUSH2 0x140 JUMP JUMPDEST DUP1 PUSH4 0x92A5CCE EQ PUSH2 0x145 JUMPI DUP1 PUSH4 0x141961BC EQ PUSH2 0x15C JUMPI DUP1 PUSH4 0x2B7393FB EQ PUSH2 0x1A1 JUMPI DUP1 PUSH4 0x2CDDA7D5 EQ PUSH2 0x1BD JUMPI DUP1 PUSH4 0x3020580B EQ PUSH2 0x1FB JUMPI JUMPDEST PUSH1 0x0 DUP1 REVERT JUMPDEST CALLVALUE DUP1 ISZERO PUSH2 0x151 JUMPI PUSH1 0x0 DUP1 REVERT JUMPDEST POP PUSH2 0x15A PUSH2 0x548 JUMP JUMPDEST STOP JUMPDEST CALLVALUE DUP1 ISZERO PUSH2 0x168 JUMPI PUSH1 0x0 DUP1 REVERT JUMPDEST POP PUSH2 0x183 PUSH1 0x4 DUP1 CALLDATASIZE SUB DUP2 ADD SWAP1 PUSH2 0x17E SWAP2 SWAP1 PUSH2 0x30FB JUMP JUMPDEST PUSH2 0x7FE JUMP JUMPDEST PUSH1 0x40 MLOAD PUSH2 0x198 SWAP10 SWAP9 SWAP8 SWAP7 SWAP6 SWAP5 SWAP4 SWAP3 SWAP2 SWAP1 PUSH2 0x3223 JUMP JUMPDEST PUSH1 0x40 MLOAD DUP1 SWAP2 SUB SWAP1 RETURN JUMPDEST PUSH2 0x1BB PUSH1 0x4 DUP1 CALLDATASIZE SUB DUP2 ADD SWAP1 PUSH2 0x1B6 SWAP2 SWAP1 PUSH2 0x32B7 JUMP JUMPDEST PUSH2 0x91B JUMP JUMPDEST STOP JUMPDEST CALLVALUE DUP1 ISZERO PUSH2 0x1C9 JUMPI PUSH1 0x0 DUP1 REVERT JUMPDEST POP PUSH2 0x1E4 PUSH1 0x4 DUP1 CALLDATASIZE SUB DUP2 ADD SWAP1 PUSH2 0x1DF SWAP2 SWAP1 PUSH2 0x3323 JUMP JUMPDEST PUSH2 0xE18 JUMP JUMPDEST PUSH1 0x40 MLOAD PUSH2 0x1F2 SWAP3 SWAP2 SWAP1 PUSH2 0x340E JUMP JUMPDEST PUSH1 0x40 MLOAD DUP1 SWAP2 SUB SWAP1 RETURN JUMPDEST PUSH2 0x215 PUSH1 0x4 DUP1 CALLDATASIZE SUB DUP2 ADD SWAP1 PUSH2 0x210 SWAP2 SWAP1 PUSH2 0x357A JUMP JUMPDEST PUSH2 0x100C JUMP JUMPDEST STOP JUMPDEST CALLVALUE DUP1 ISZERO PUSH2 0x223 JUMPI PUSH1 0x0 DUP1 REVERT JUMPDEST POP PUSH2 0x22C PUSH2 0x131D JUMP JUMPDEST PUSH1 0x40 MLOAD PUSH2 0x239 SWAP2 SWAP1 PUSH2 0x37C3 JUMP JUMPDEST PUSH1 0x40 MLOAD DUP1 SWAP2 SUB SWAP1 RETURN JUMPDEST CALLVALUE DUP1 ISZERO PUSH2 0x24E JUMPI PUSH1 0x0 DUP1 REVERT JUMPDEST POP PUSH2 0x269 PUSH1 0x4 DUP1 CALLDATASIZE SUB DUP2 ADD SWAP1 PUSH2 0x264 SWAP2 SWAP1 PUSH2 0x30FB JUMP JUMPDEST PUSH2 0x16D6 JUMP JUMPDEST STOP JUMPDEST CALLVALUE DUP1 ISZERO PUSH2 0x277 JUMPI PUSH1 0x0 DUP1 REVERT JUMPDEST POP PUSH2 0x280 PUSH2 0x1A83 JUMP JUMPDEST STOP JUMPDEST CALLVALUE DUP1 ISZERO PUSH2 0x28E JUMPI PUSH1 0x0 DUP1 REVERT JUMPDEST POP PUSH2 0x297 PUSH2 0x1C43 JUMP JUMPDEST PUSH1 0x40 MLOAD PUSH2 0x2A4 SWAP2 SWAP1 PUSH2 0x37E5 JUMP JUMPDEST PUSH1 0x40 MLOAD DUP1 SWAP2 SUB SWAP1 RETURN JUMPDEST CALLVALUE DUP1 ISZERO PUSH2 0x2B9 JUMPI PUSH1 0x0 DUP1 REVERT JUMPDEST POP PUSH2 0x2C2 PUSH2 0x1C49 JUMP JUMPDEST PUSH1 0x40 MLOAD PUSH2 0x2CF SWAP2 SWAP1 PUSH2 0x37E5 JUMP JUMPDEST PUSH1 0x40 MLOAD DUP1 SWAP2 SUB SWAP1 RETURN JUMPDEST CALLVALUE DUP1 ISZERO PUSH2 0x2E4 JUMPI PUSH1 0x0 DUP1 REVERT JUMPDEST POP PUSH2 0x2ED PUSH2 0x1D23 JUMP JUMPDEST PUSH1 0x40 MLOAD PUSH2 0x2FA SWAP2 SWAP1 PUSH2 0x37E5 JUMP JUMPDEST PUSH1 0x40 MLOAD DUP1 SWAP2 SUB SWAP1 RETURN JUMPDEST CALLVALUE DUP1 ISZERO PUSH2 0x30F JUMPI PUSH1 0x0 DUP1 REVERT JUMPDEST POP PUSH2 0x32A PUSH1 0x4 DUP1 CALLDATASIZE SUB DUP2 ADD SWAP1 PUSH2 0x325 SWAP2 SWAP1 PUSH2 0x3323 JUMP JUMPDEST PUSH2 0x1D29 JUMP JUMPDEST STOP JUMPDEST CALLVALUE DUP1 ISZERO PUSH2 0x338 JUMPI PUSH1 0x0 DUP1 REVERT JUMPDEST POP PUSH2 0x341 PUSH2 0x1F69 JUMP JUMPDEST PUSH1 0x40 MLOAD PUSH2 0x34E SWAP2 SWAP1 PUSH2 0x3800 JUMP JUMPDEST PUSH1 0x40 MLOAD DUP1 SWAP2 SUB SWAP1 RETURN JUMPDEST CALLVALUE DUP1 ISZERO PUSH2 0x363 JUMPI PUSH1 0x0 DUP1 REVERT JUMPDEST POP PUSH2 0x37E PUSH1 0x4 DUP1 CALLDATASIZE SUB DUP2 ADD SWAP1 PUSH2 0x379 SWAP2 SWAP1 PUSH2 0x30FB JUMP JUMPDEST PUSH2 0x1F8D JUMP JUMPDEST STOP JUMPDEST CALLVALUE DUP1 ISZERO PUSH2 0x38C JUMPI PUSH1 0x0 DUP1 REVERT JUMPDEST POP PUSH2 0x3A7 PUSH1 0x4 DUP1 CALLDATASIZE SUB DUP2 ADD SWAP1 PUSH2 0x3A2 SWAP2 SWAP1 PUSH2 0x3323 JUMP JUMPDEST PUSH2 0x22FD JUMP JUMPDEST STOP JUMPDEST CALLVALUE DUP1 ISZERO PUSH2 0x3B5 JUMPI PUSH1 0x0 DUP1 REVERT JUMPDEST POP PUSH2 0x3BE PUSH2 0x248C JUMP JUMPDEST PUSH1 0x40 MLOAD PUSH2 0x3CB SWAP2 SWAP1 PUSH2 0x37E5 JUMP JUMPDEST PUSH1 0x40 MLOAD DUP1 SWAP2 SUB SWAP1 RETURN JUMPDEST CALLVALUE DUP1 ISZERO PUSH2 0x3E0 JUMPI PUSH1 0x0 DUP1 REVERT JUMPDEST POP PUSH2 0x3FB PUSH1 0x4 DUP1 CALLDATASIZE SUB DUP2 ADD SWAP1 PUSH2 0x3F6 SWAP2 SWAP1 PUSH2 0x30FB JUMP JUMPDEST PUSH2 0x2492 JUMP JUMPDEST PUSH1 0x40 MLOAD PUSH2 0x409 SWAP3 SWAP2 SWAP1 PUSH2 0x38CA JUMP JUMPDEST PUSH1 0x40 MLOAD DUP1 SWAP2 SUB SWAP1 RETURN JUMPDEST CALLVALUE DUP1 ISZERO PUSH2 0x41E JUMPI PUSH1 0x0 DUP1 REVERT JUMPDEST POP PUSH2 0x439 PUSH1 0x4 DUP1 CALLDATASIZE SUB DUP2 ADD SWAP1 PUSH2 0x434 SWAP2 SWAP1 PUSH2 0x3323 JUMP JUMPDEST PUSH2 0x2705 JUMP JUMPDEST PUSH1 0x40 MLOAD PUSH2 0x446 SWAP2 SWAP1 PUSH2 0x37E5 JUMP JUMPDEST PUSH1 0x40 MLOAD DUP1 SWAP2 SUB SWAP1 RETURN JUMPDEST CALLVALUE DUP1 ISZERO PUSH2 0x45B JUMPI PUSH1 0x0 DUP1 REVERT JUMPDEST POP PUSH2 0x476 PUSH1 0x4 DUP1 CALLDATASIZE SUB DUP2 ADD SWAP1 PUSH2 0x471 SWAP2 SWAP1 PUSH2 0x3323 JUMP JUMPDEST PUSH2 0x271D JUMP JUMPDEST PUSH1 0x40 MLOAD PUSH2 0x483 SWAP2 SWAP1 PUSH2 0x3901 JUMP JUMPDEST PUSH1 0x40 MLOAD DUP1 SWAP2 SUB SWAP1 RETURN JUMPDEST CALLVALUE DUP1 ISZERO PUSH2 0x498 JUMPI PUSH1 0x0 DUP1 REVERT JUMPDEST POP PUSH2 0x4A1 PUSH2 0x273D JUMP JUMPDEST PUSH1 0x40 MLOAD PUSH2 0x4AE SWAP2 SWAP1 PUSH2 0x37C3 JUMP JUMPDEST PUSH1 0x40 MLOAD DUP1 SWAP2 SUB SWAP1 RETURN JUMPDEST CALLVALUE DUP1 ISZERO PUSH2 0x4C3 JUMPI PUSH1 0x0 DUP1 REVERT JUMPDEST POP PUSH2 0x4CC PUSH2 0x2A7B JUMP JUMPDEST PUSH1 0x40 MLOAD PUSH2 0x4D9 SWAP2 SWAP1 PUSH2 0x37C3 JUMP JUMPDEST PUSH1 0x40 MLOAD DUP1 SWAP2 SUB SWAP1 RETURN JUMPDEST CALLVALUE DUP1 ISZERO PUSH2 0x4EE JUMPI PUSH1 0x0 DUP1 REVERT JUMPDEST POP PUSH2 0x509 PUSH1 0x4 DUP1 CALLDATASIZE SUB DUP2 ADD SWAP1 PUSH2 0x504 SWAP2 SWAP1 PUSH2 0x30FB JUMP JUMPDEST PUSH2 0x2E36 JUMP JUMPDEST PUSH1 0x40 MLOAD PUSH2 0x516 SWAP2 SWAP1 PUSH2 0x3800 JUMP JUMPDEST PUSH1 0x40 MLOAD DUP1 SWAP2 SUB SWAP1 RETURN JUMPDEST CALLVALUE DUP1 ISZERO PUSH2 0x52B JUMPI PUSH1 0x0 DUP1 REVERT JUMPDEST POP PUSH2 0x546 PUSH1 0x4 DUP1 CALLDATASIZE SUB DUP2 ADD SWAP1 PUSH2 0x541 SWAP2 SWAP1 PUSH2 0x3323 JUMP JUMPDEST PUSH2 0x2E75 JUMP JUMPDEST STOP JUMPDEST PUSH1 0x0 DUP1 SLOAD SWAP1 PUSH2 0x100 EXP SWAP1 DIV PUSH20 0xFFFFFFFFFFFFFFFFFFFFFFFFFFFFFFFFFFFFFFFF AND PUSH20 0xFFFFFFFFFFFFFFFFFFFFFFFFFFFFFFFFFFFFFFFF AND CALLER PUSH20 0xFFFFFFFFFFFFFFFFFFFFFFFFFFFFFFFFFFFFFFFF AND EQ PUSH2 0x5D6 JUMPI PUSH1 0x40 MLOAD PUSH32 0x8C379A000000000000000000000000000000000000000000000000000000000 DUP2 MSTORE PUSH1 0x4 ADD PUSH2 0x5CD SWAP1 PUSH2 0x398E JUMP JUMPDEST PUSH1 0x40 MLOAD DUP1 SWAP2 SUB SWAP1 REVERT JUMPDEST PUSH1 0x9 PUSH1 0x0 SWAP1 SLOAD SWAP1 PUSH2 0x100 EXP SWAP1 DIV PUSH1 0xFF AND PUSH2 0x625 JUMPI PUSH1 0x40 MLOAD PUSH32 0x8C379A000000000000000000000000000000000000000000000000000000000 DUP2 MSTORE PUSH1 0x4 ADD PUSH2 0x61C SWAP1 PUSH2 0x39FA JUMP JUMPDEST PUSH1 0x40 MLOAD DUP1 SWAP2 SUB SWAP1 REVERT JUMPDEST PUSH1 0x0 JUMPDEST PUSH1 0x3 SLOAD DUP2 LT ISZERO PUSH2 0x7E0 JUMPI PUSH1 0x0 PUSH1 0x4 PUSH1 0x0 DUP4 DUP2 MSTORE PUSH1 0x20 ADD SWAP1 DUP2 MSTORE PUSH1 0x20 ADD PUSH1 0x0 KECCAK256 SWAP1 POP DUP1 PUSH1 0x6 ADD PUSH1 0x1 SWAP1 SLOAD SWAP1 PUSH2 0x100 EXP SWAP1 DIV PUSH1 0xFF AND DUP1 PUSH2 0x674 JUMPI POP DUP1 PUSH1 0x6 ADD PUSH1 0x2 SWAP1 SLOAD SWAP1 PUSH2 0x100 EXP SWAP1 DIV PUSH1 0xFF AND JUMPDEST ISZERO PUSH2 0x67F JUMPI POP PUSH2 0x7D3 JUMP JUMPDEST PUSH1 0x0 DUP2 PUSH1 0x6 ADD PUSH1 0x0 PUSH2 0x100 EXP DUP2 SLOAD DUP2 PUSH1 0xFF MUL NOT AND SWAP1 DUP4 ISZERO ISZERO MUL OR SWAP1 SSTORE POP PUSH1 0x1 DUP2 PUSH1 0x6 ADD PUSH1 0x1 PUSH2 0x100 EXP DUP2 SLOAD DUP2 PUSH1 0xFF MUL NOT AND SWAP1 DUP4 ISZERO ISZERO MUL OR SWAP1 SSTORE POP PUSH1 0x0 JUMPDEST DUP2 PUSH1 0x7 ADD DUP1 SLOAD SWAP1 POP DUP2 LT ISZERO PUSH2 0x7D0 JUMPI PUSH1 0x0 DUP3 PUSH1 0x7 ADD DUP3 DUP2 SLOAD DUP2 LT PUSH2 0x6E3 JUMPI PUSH2 0x6E2 PUSH2 0x3A1A JUMP JUMPDEST JUMPDEST SWAP1 PUSH1 0x0 MSTORE PUSH1 0x20 PUSH1 0x0 KECCAK256 ADD PUSH1 0x0 SWAP1 SLOAD SWAP1 PUSH2 0x100 EXP SWAP1 DIV PUSH20 0xFFFFFFFFFFFFFFFFFFFFFFFFFFFFFFFFFFFFFFFF AND SWAP1 POP PUSH1 0x0 DUP4 PUSH1 0x8 ADD PUSH1 0x0 DUP4 PUSH20 0xFFFFFFFFFFFFFFFFFFFFFFFFFFFFFFFFFFFFFFFF AND PUSH20 0xFFFFFFFFFFFFFFFFFFFFFFFFFFFFFFFFFFFFFFFF AND DUP2 MSTORE PUSH1 0x20 ADD SWAP1 DUP2 MSTORE PUSH1 0x20 ADD PUSH1 0x0 KECCAK256 SLOAD SWAP1 POP PUSH1 0x0 DUP5 PUSH1 0x3 ADD SLOAD DUP3 PUSH2 0x768 SWAP2 SWAP1 PUSH2 0x3A78 JUMP JUMPDEST SWAP1 POP DUP1 PUSH1 0x8 PUSH1 0x0 DUP6 PUSH20 0xFFFFFFFFFFFFFFFFFFFFFFFFFFFFFFFFFFFFFFFF AND PUSH20 0xFFFFFFFFFFFFFFFFFFFFFFFFFFFFFFFFFFFFFFFF AND DUP2 MSTORE PUSH1 0x20 ADD SWAP1 DUP2 MSTORE PUSH1 0x20 ADD PUSH1 0x0 KECCAK256 PUSH1 0x0 DUP3 DUP3 SLOAD PUSH2 0x7B9 SWAP2 SWAP1 PUSH2 0x3ABA JUMP JUMPDEST SWAP3 POP POP DUP2 SWAP1 SSTORE POP POP POP POP DUP1 DUP1 PUSH1 0x1 ADD SWAP2 POP POP PUSH2 0x6BC JUMP JUMPDEST POP POP JUMPDEST DUP1 DUP1 PUSH1 0x1 ADD SWAP2 POP POP PUSH2 0x628 JUMP JUMPDEST POP PUSH1 0x0 PUSH1 0x9 PUSH1 0x0 PUSH2 0x100 EXP DUP2 SLOAD DUP2 PUSH1 0xFF MUL NOT AND SWAP1 DUP4 ISZERO ISZERO MUL OR SWAP1 SSTORE POP JUMP JUMPDEST PUSH1 0x4 PUSH1 0x20 MSTORE DUP1 PUSH1 0x0 MSTORE PUSH1 0x40 PUSH1 0x0 KECCAK256 PUSH1 0x0 SWAP2 POP SWAP1 POP DUP1 PUSH1 0x0 ADD SLOAD SWAP1 DUP1 PUSH1 0x1 ADD PUSH1 0x0 SWAP1 SLOAD SWAP1 PUSH2 0x100 EXP SWAP1 DIV PUSH20 0xFFFFFFFFFFFFFFFFFFFFFFFFFFFFFFFFFFFFFFFF AND SWAP1 DUP1 PUSH1 0x2 ADD DUP1 SLOAD PUSH2 0x84D SWAP1 PUSH2 0x3B1D JUMP JUMPDEST DUP1 PUSH1 0x1F ADD PUSH1 0x20 DUP1 SWAP2 DIV MUL PUSH1 0x20 ADD PUSH1 0x40 MLOAD SWAP1 DUP2 ADD PUSH1 0x40 MSTORE DUP1 SWAP3 SWAP2 SWAP1 DUP2 DUP2 MSTORE PUSH1 0x20 ADD DUP3 DUP1 SLOAD PUSH2 0x879 SWAP1 PUSH2 0x3B1D JUMP JUMPDEST DUP1 ISZERO PUSH2 0x8C6 JUMPI DUP1 PUSH1 0x1F LT PUSH2 0x89B JUMPI PUSH2 0x100 DUP1 DUP4 SLOAD DIV MUL DUP4 MSTORE SWAP2 PUSH1 0x20 ADD SWAP2 PUSH2 0x8C6 JUMP JUMPDEST DUP3 ADD SWAP2 SWAP1 PUSH1 0x0 MSTORE PUSH1 0x20 PUSH1 0x0 KECCAK256 SWAP1 JUMPDEST DUP2 SLOAD DUP2 MSTORE SWAP1 PUSH1 0x1 ADD SWAP1 PUSH1 0x20 ADD DUP1 DUP4 GT PUSH2 0x8A9 JUMPI DUP3 SWAP1 SUB PUSH1 0x1F AND DUP3 ADD SWAP2 JUMPDEST POP POP POP POP POP SWAP1 DUP1 PUSH1 0x3 ADD SLOAD SWAP1 DUP1 PUSH1 0x4 ADD SLOAD SWAP1 DUP1 PUSH1 0x5 ADD SLOAD SWAP1 DUP1 PUSH1 0x6 ADD PUSH1 0x0 SWAP1 SLOAD SWAP1 PUSH2 0x100 EXP SWAP1 DIV PUSH1 0xFF AND SWAP1 DUP1 PUSH1 0x6 ADD PUSH1 0x1 SWAP1 SLOAD SWAP1 PUSH2 0x100 EXP SWAP1 DIV PUSH1 0xFF AND SWAP1 DUP1 PUSH1 0x6 ADD PUSH1 0x2 SWAP1 SLOAD SWAP1 PUSH2 0x100 EXP SWAP1 DIV PUSH1 0xFF AND SWAP1 POP DUP10 JUMP JUMPDEST PUSH1 0x0 DUP1 SLOAD SWAP1 PUSH2 0x100 EXP SWAP1 DIV PUSH20 0xFFFFFFFFFFFFFFFFFFFFFFFFFFFFFFFFFFFFFFFF AND PUSH20 0xFFFFFFFFFFFFFFFFFFFFFFFFFFFFFFFFFFFFFFFF AND CALLER PUSH20 0xFFFFFFFFFFFFFFFFFFFFFFFFFFFFFFFFFFFFFFFF AND SUB PUSH2 0x9A9 JUMPI PUSH1 0x40 MLOAD PUSH32 0x8C379A000000000000000000000000000000000000000000000000000000000 DUP2 MSTORE PUSH1 0x4 ADD PUSH2 0x9A0 SWAP1 PUSH2 0x3BC0 JUMP JUMPDEST PUSH1 0x40 MLOAD DUP1 SWAP2 SUB SWAP1 REVERT JUMPDEST PUSH1 0x6 PUSH1 0x0 CALLER PUSH20 0xFFFFFFFFFFFFFFFFFFFFFFFFFFFFFFFFFFFFFFFF AND PUSH20 0xFFFFFFFFFFFFFFFFFFFFFFFFFFFFFFFFFFFFFFFF AND DUP2 MSTORE PUSH1 0x20 ADD SWAP1 DUP2 MSTORE PUSH1 0x20 ADD PUSH1 0x0 KECCAK256 PUSH1 0x0 SWAP1 SLOAD SWAP1 PUSH2 0x100 EXP SWAP1 DIV PUSH1 0xFF AND ISZERO PUSH2 0xA36 JUMPI PUSH1 0x40 MLOAD PUSH32 0x8C379A000000000000000000000000000000000000000000000000000000000 DUP2 MSTORE PUSH1 0x4 ADD PUSH2 0xA2D SWAP1 PUSH2 0x3C2C JUMP JUMPDEST PUSH1 0x40 MLOAD DUP1 SWAP2 SUB SWAP1 REVERT JUMPDEST DUP1 PUSH1 0x4 PUSH1 0x0 DUP3 DUP2 MSTORE PUSH1 0x20 ADD SWAP1 DUP2 MSTORE PUSH1 0x20 ADD PUSH1 0x0 KECCAK256 PUSH1 0x6 ADD PUSH1 0x0 SWAP1 SLOAD SWAP1 PUSH2 0x100 EXP SWAP1 DIV PUSH1 0xFF AND PUSH2 0xA9A JUMPI PUSH1 0x40 MLOAD PUSH32 0x8C379A000000000000000000000000000000000000000000000000000000000 DUP2 MSTORE PUSH1 0x4 ADD PUSH2 0xA91 SWAP1 PUSH2 0x3C98 JUMP JUMPDEST PUSH1 0x40 MLOAD DUP1 SWAP2 SUB SWAP1 REVERT JUMPDEST DUP2 PUSH1 0x4 PUSH1 0x0 DUP3 DUP2 MSTORE PUSH1 0x20 ADD SWAP1 DUP2 MSTORE PUSH1 0x20 ADD PUSH1 0x0 KECCAK256 PUSH1 0x6 ADD PUSH1 0x1 SWAP1 SLOAD SWAP1 PUSH2 0x100 EXP SWAP1 DIV PUSH1 0xFF AND ISZERO PUSH2 0xAFF JUMPI PUSH1 0x40 MLOAD PUSH32 0x8C379A000000000000000000000000000000000000000000000000000000000 DUP2 MSTORE PUSH1 0x4 ADD PUSH2 0xAF6 SWAP1 PUSH2 0x3D04 JUMP JUMPDEST PUSH1 0x40 MLOAD DUP1 SWAP2 SUB SWAP1 REVERT JUMPDEST DUP3 PUSH1 0x4 PUSH1 0x0 DUP3 DUP2 MSTORE PUSH1 0x20 ADD SWAP1 DUP2 MSTORE PUSH1 0x20 ADD PUSH1 0x0 KECCAK256 PUSH1 0x6 ADD PUSH1 0x2 SWAP1 SLOAD SWAP1 PUSH2 0x100 EXP SWAP1 DIV PUSH1 0xFF AND ISZERO PUSH2 0xB64 JUMPI PUSH1 0x40 MLOAD PUSH32 0x8C379A000000000000000000000000000000000000000000000000000000000 DUP2 MSTORE PUSH1 0x4 ADD PUSH2 0xB5B SWAP1 PUSH2 0x3D70 JUMP JUMPDEST PUSH1 0x40 MLOAD DUP1 SWAP2 SUB SWAP1 REVERT JUMPDEST PUSH1 0x9 PUSH1 0x0 SWAP1 SLOAD SWAP1 PUSH2 0x100 EXP SWAP1 DIV PUSH1 0xFF AND PUSH2 0xBB3 JUMPI PUSH1 0x40 MLOAD PUSH32 0x8C379A000000000000000000000000000000000000000000000000000000000 DUP2 MSTORE PUSH1 0x4 ADD PUSH2 0xBAA SWAP1 PUSH2 0x39FA JUMP JUMPDEST PUSH1 0x40 MLOAD DUP1 SWAP2 SUB SWAP1 REVERT JUMPDEST PUSH1 0x0 PUSH1 0x4 PUSH1 0x0 DUP7 DUP2 MSTORE PUSH1 0x20 ADD SWAP1 DUP2 MSTORE PUSH1 0x20 ADD PUSH1 0x0 KECCAK256 SWAP1 POP DUP1 PUSH1 0x1 ADD PUSH1 0x0 SWAP1 SLOAD SWAP1 PUSH2 0x100 EXP SWAP1 DIV PUSH20 0xFFFFFFFFFFFFFFFFFFFFFFFFFFFFFFFFFFFFFFFF AND PUSH20 0xFFFFFFFFFFFFFFFFFFFFFFFFFFFFFFFFFFFFFFFF AND CALLER PUSH20 0xFFFFFFFFFFFFFFFFFFFFFFFFFFFFFFFFFFFFFFFF AND SUB PUSH2 0xC5C JUMPI PUSH1 0x40 MLOAD PUSH32 0x8C379A000000000000000000000000000000000000000000000000000000000 DUP2 MSTORE PUSH1 0x4 ADD PUSH2 0xC53 SWAP1 PUSH2 0x3DDC JUMP JUMPDEST PUSH1 0x40 MLOAD DUP1 SWAP2 SUB SWAP1 REVERT JUMPDEST PUSH1 0x0 DUP7 DUP3 PUSH1 0x3 ADD SLOAD PUSH2 0xC6E SWAP2 SWAP1 PUSH2 0x3A78 JUMP JUMPDEST SWAP1 POP DUP1 CALLVALUE EQ PUSH2 0xCB2 JUMPI PUSH1 0x40 MLOAD PUSH32 0x8C379A000000000000000000000000000000000000000000000000000000000 DUP2 MSTORE PUSH1 0x4 ADD PUSH2 0xCA9 SWAP1 PUSH2 0x3E48 JUMP JUMPDEST PUSH1 0x40 MLOAD DUP1 SWAP2 SUB SWAP1 REVERT JUMPDEST DUP7 DUP3 PUSH1 0x5 ADD PUSH1 0x0 DUP3 DUP3 SLOAD PUSH2 0xCC6 SWAP2 SWAP1 PUSH2 0x3ABA JUMP JUMPDEST SWAP3 POP POP DUP2 SWAP1 SSTORE POP PUSH1 0x0 DUP3 PUSH1 0x8 ADD PUSH1 0x0 CALLER PUSH20 0xFFFFFFFFFFFFFFFFFFFFFFFFFFFFFFFFFFFFFFFF AND PUSH20 0xFFFFFFFFFFFFFFFFFFFFFFFFFFFFFFFFFFFFFFFF AND DUP2 MSTORE PUSH1 0x20 ADD SWAP1 DUP2 MSTORE PUSH1 0x20 ADD PUSH1 0x0 KECCAK256 SLOAD SUB PUSH2 0xD7C JUMPI DUP2 PUSH1 0x7 ADD CALLER SWAP1 DUP1 PUSH1 0x1 DUP2 SLOAD ADD DUP1 DUP3 SSTORE DUP1 SWAP2 POP POP PUSH1 0x1 SWAP1 SUB SWAP1 PUSH1 0x0 MSTORE PUSH1 0x20 PUSH1 0x0 KECCAK256 ADD PUSH1 0x0 SWAP1 SWAP2 SWAP1 SWAP2 SWAP1 SWAP2 PUSH2 0x100 EXP DUP2 SLOAD DUP2 PUSH20 0xFFFFFFFFFFFFFFFFFFFFFFFFFFFFFFFFFFFFFFFF MUL NOT AND SWAP1 DUP4 PUSH20 0xFFFFFFFFFFFFFFFFFFFFFFFFFFFFFFFFFFFFFFFF AND MUL OR SWAP1 SSTORE POP JUMPDEST DUP7 DUP3 PUSH1 0x8 ADD PUSH1 0x0 CALLER PUSH20 0xFFFFFFFFFFFFFFFFFFFFFFFFFFFFFFFFFFFFFFFF AND PUSH20 0xFFFFFFFFFFFFFFFFFFFFFFFFFFFFFFFFFFFFFFFF AND DUP2 MSTORE PUSH1 0x20 ADD SWAP1 DUP2 MSTORE PUSH1 0x20 ADD PUSH1 0x0 KECCAK256 PUSH1 0x0 DUP3 DUP3 SLOAD PUSH2 0xDCD SWAP2 SWAP1 PUSH2 0x3ABA JUMP JUMPDEST SWAP3 POP POP DUP2 SWAP1 SSTORE POP PUSH32 0xD4A7A37D339805413B4085E0F8E0932DFB0A4F84F08F98A6E53673B5EE8EEE15 DUP7 CALLER DUP10 PUSH1 0x40 MLOAD PUSH2 0xE07 SWAP4 SWAP3 SWAP2 SWAP1 PUSH2 0x3E68 JUMP JUMPDEST PUSH1 0x40 MLOAD DUP1 SWAP2 SUB SWAP1 LOG1 POP POP POP POP POP POP POP JUMP JUMPDEST PUSH1 0x60 DUP1 PUSH1 0x0 DUP1 JUMPDEST PUSH1 0x3 SLOAD DUP2 LT ISZERO PUSH2 0xEA1 JUMPI PUSH1 0x0 PUSH1 0x4 PUSH1 0x0 DUP4 DUP2 MSTORE PUSH1 0x20 ADD SWAP1 DUP2 MSTORE PUSH1 0x20 ADD PUSH1 0x0 KECCAK256 PUSH1 0x8 ADD PUSH1 0x0 DUP8 PUSH20 0xFFFFFFFFFFFFFFFFFFFFFFFFFFFFFFFFFFFFFFFF AND PUSH20 0xFFFFFFFFFFFFFFFFFFFFFFFFFFFFFFFFFFFFFFFF AND DUP2 MSTORE PUSH1 0x20 ADD SWAP1 DUP2 MSTORE PUSH1 0x20 ADD PUSH1 0x0 KECCAK256 SLOAD GT ISZERO PUSH2 0xE94 JUMPI DUP2 DUP1 PUSH2 0xE90 SWAP1 PUSH2 0x3E9F JUMP JUMPDEST SWAP3 POP POP JUMPDEST DUP1 DUP1 PUSH1 0x1 ADD SWAP2 POP POP PUSH2 0xE1F JUMP JUMPDEST POP DUP1 PUSH8 0xFFFFFFFFFFFFFFFF DUP2 GT ISZERO PUSH2 0xEBC JUMPI PUSH2 0xEBB PUSH2 0x344F JUMP JUMPDEST JUMPDEST PUSH1 0x40 MLOAD SWAP1 DUP1 DUP3 MSTORE DUP1 PUSH1 0x20 MUL PUSH1 0x20 ADD DUP3 ADD PUSH1 0x40 MSTORE DUP1 ISZERO PUSH2 0xEEA JUMPI DUP2 PUSH1 0x20 ADD PUSH1 0x20 DUP3 MUL DUP1 CALLDATASIZE DUP4 CALLDATACOPY DUP1 DUP3 ADD SWAP2 POP POP SWAP1 POP JUMPDEST POP SWAP3 POP DUP1 PUSH8 0xFFFFFFFFFFFFFFFF DUP2 GT ISZERO PUSH2 0xF07 JUMPI PUSH2 0xF06 PUSH2 0x344F JUMP JUMPDEST JUMPDEST PUSH1 0x40 MLOAD SWAP1 DUP1 DUP3 MSTORE DUP1 PUSH1 0x20 MUL PUSH1 0x20 ADD DUP3 ADD PUSH1 0x40 MSTORE DUP1 ISZERO PUSH2 0xF35 JUMPI DUP2 PUSH1 0x20 ADD PUSH1 0x20 DUP3 MUL DUP1 CALLDATASIZE DUP4 CALLDATACOPY DUP1 DUP3 ADD SWAP2 POP POP SWAP1 POP JUMPDEST POP SWAP2 POP PUSH1 0x0 DUP1 JUMPDEST PUSH1 0x3 SLOAD DUP2 LT ISZERO PUSH2 0x1004 JUMPI PUSH1 0x0 PUSH1 0x4 PUSH1 0x0 DUP4 DUP2 MSTORE PUSH1 0x20 ADD SWAP1 DUP2 MSTORE PUSH1 0x20 ADD PUSH1 0x0 KECCAK256 PUSH1 0x8 ADD PUSH1 0x0 DUP9 PUSH20 0xFFFFFFFFFFFFFFFFFFFFFFFFFFFFFFFFFFFFFFFF AND PUSH20 0xFFFFFFFFFFFFFFFFFFFFFFFFFFFFFFFFFFFFFFFF AND DUP2 MSTORE PUSH1 0x20 ADD SWAP1 DUP2 MSTORE PUSH1 0x20 ADD PUSH1 0x0 KECCAK256 SLOAD SWAP1 POP PUSH1 0x0 DUP2 GT ISZERO PUSH2 0xFF6 JUMPI DUP2 DUP7 DUP5 DUP2 MLOAD DUP2 LT PUSH2 0xFBB JUMPI PUSH2 0xFBA PUSH2 0x3A1A JUMP JUMPDEST JUMPDEST PUSH1 0x20 MUL PUSH1 0x20 ADD ADD DUP2 DUP2 MSTORE POP POP DUP1 DUP6 DUP5 DUP2 MLOAD DUP2 LT PUSH2 0xFDB JUMPI PUSH2 0xFDA PUSH2 0x3A1A JUMP JUMPDEST JUMPDEST PUSH1 0x20 MUL PUSH1 0x20 ADD ADD DUP2 DUP2 MSTORE POP POP DUP3 DUP1 PUSH2 0xFF2 SWAP1 PUSH2 0x3E9F JUMP JUMPDEST SWAP4 POP POP JUMPDEST POP DUP1 DUP1 PUSH1 0x1 ADD SWAP2 POP POP PUSH2 0xF3C JUMP JUMPDEST POP POP POP SWAP2 POP SWAP2 JUMP JUMPDEST PUSH1 0x0 DUP1 SLOAD SWAP1 PUSH2 0x100 EXP SWAP1 DIV PUSH20 0xFFFFFFFFFFFFFFFFFFFFFFFFFFFFFFFFFFFFFFFF AND PUSH20 0xFFFFFFFFFFFFFFFFFFFFFFFFFFFFFFFFFFFFFFFF AND CALLER PUSH20 0xFFFFFFFFFFFFFFFFFFFFFFFFFFFFFFFFFFFFFFFF AND SUB PUSH2 0x109A JUMPI PUSH1 0x40 MLOAD PUSH32 0x8C379A000000000000000000000000000000000000000000000000000000000 DUP2 MSTORE PUSH1 0x4 ADD PUSH2 0x1091 SWAP1 PUSH2 0x3BC0 JUMP JUMPDEST PUSH1 0x40 MLOAD DUP1 SWAP2 SUB SWAP1 REVERT JUMPDEST PUSH1 0x6 PUSH1 0x0 CALLER PUSH20 0xFFFFFFFFFFFFFFFFFFFFFFFFFFFFFFFFFFFFFFFF AND PUSH20 0xFFFFFFFFFFFFFFFFFFFFFFFFFFFFFFFFFFFFFFFF AND DUP2 MSTORE PUSH1 0x20 ADD SWAP1 DUP2 MSTORE PUSH1 0x20 ADD PUSH1 0x0 KECCAK256 PUSH1 0x0 SWAP1 SLOAD SWAP1 PUSH2 0x100 EXP SWAP1 DIV PUSH1 0xFF AND ISZERO PUSH2 0x1127 JUMPI PUSH1 0x40 MLOAD PUSH32 0x8C379A000000000000000000000000000000000000000000000000000000000 DUP2 MSTORE PUSH1 0x4 ADD PUSH2 0x111E SWAP1 PUSH2 0x3C2C JUMP JUMPDEST PUSH1 0x40 MLOAD DUP1 SWAP2 SUB SWAP1 REVERT JUMPDEST PUSH1 0x1 SLOAD CALLVALUE EQ PUSH2 0x116B JUMPI PUSH1 0x40 MLOAD PUSH32 0x8C379A000000000000000000000000000000000000000000000000000000000 DUP2 MSTORE PUSH1 0x4 ADD PUSH2 0x1162 SWAP1 PUSH2 0x3F33 JUMP JUMPDEST PUSH1 0x40 MLOAD DUP1 SWAP2 SUB SWAP1 REVERT JUMPDEST DUP1 PUSH1 0x0 DUP2 GT PUSH2 0x11AF JUMPI PUSH1 0x40 MLOAD PUSH32 0x8C379A000000000000000000000000000000000000000000000000000000000 DUP2 MSTORE PUSH1 0x4 ADD PUSH2 0x11A6 SWAP1 PUSH2 0x3FC5 JUMP JUMPDEST PUSH1 0x40 MLOAD DUP1 SWAP2 SUB SWAP1 REVERT JUMPDEST PUSH1 0x9 PUSH1 0x0 SWAP1 SLOAD SWAP1 PUSH2 0x100 EXP SWAP1 DIV PUSH1 0xFF AND PUSH2 0x11FE JUMPI PUSH1 0x40 MLOAD PUSH32 0x8C379A000000000000000000000000000000000000000000000000000000000 DUP2 MSTORE PUSH1 0x4 ADD PUSH2 0x11F5 SWAP1 PUSH2 0x39FA JUMP JUMPDEST PUSH1 0x40 MLOAD DUP1 SWAP2 SUB SWAP1 REVERT JUMPDEST PUSH1 0x0 PUSH1 0x4 PUSH1 0x0 PUSH1 0x3 SLOAD DUP2 MSTORE PUSH1 0x20 ADD SWAP1 DUP2 MSTORE PUSH1 0x20 ADD PUSH1 0x0 KECCAK256 SWAP1 POP PUSH1 0x3 SLOAD DUP2 PUSH1 0x0 ADD DUP2 SWAP1 SSTORE POP CALLER DUP2 PUSH1 0x1 ADD PUSH1 0x0 PUSH2 0x100 EXP DUP2 SLOAD DUP2 PUSH20 0xFFFFFFFFFFFFFFFFFFFFFFFFFFFFFFFFFFFFFFFF MUL NOT AND SWAP1 DUP4 PUSH20 0xFFFFFFFFFFFFFFFFFFFFFFFFFFFFFFFFFFFFFFFF AND MUL OR SWAP1 SSTORE POP DUP5 DUP2 PUSH1 0x2 ADD SWAP1 DUP2 PUSH2 0x1276 SWAP2 SWAP1 PUSH2 0x4191 JUMP JUMPDEST POP DUP4 DUP2 PUSH1 0x3 ADD DUP2 SWAP1 SSTORE POP DUP3 DUP2 PUSH1 0x4 ADD DUP2 SWAP1 SSTORE POP PUSH1 0x1 DUP2 PUSH1 0x6 ADD PUSH1 0x0 PUSH2 0x100 EXP DUP2 SLOAD DUP2 PUSH1 0xFF MUL NOT AND SWAP1 DUP4 ISZERO ISZERO MUL OR SWAP1 SSTORE POP PUSH1 0x3 PUSH1 0x0 DUP2 SLOAD DUP1 SWAP3 SWAP2 SWAP1 PUSH2 0x12B9 SWAP1 PUSH2 0x3E9F JUMP JUMPDEST SWAP2 SWAP1 POP SSTORE POP PUSH1 0x1 SLOAD PUSH1 0x2 PUSH1 0x0 DUP3 DUP3 SLOAD PUSH2 0x12D2 SWAP2 SWAP1 PUSH2 0x3ABA JUMP JUMPDEST SWAP3 POP POP DUP2 SWAP1 SSTORE POP PUSH32 0xC04C663886CAE794DC52158F70FE6C8EE3B0140D4F48647282F9B693FF688A65 PUSH1 0x3 SLOAD CALLER DUP8 PUSH1 0x40 MLOAD PUSH2 0x130E SWAP4 SWAP3 SWAP2 SWAP1 PUSH2 0x4263 JUMP JUMPDEST PUSH1 0x40 MLOAD DUP1 SWAP2 SUB SWAP1 LOG1 POP POP POP POP POP JUMP JUMPDEST PUSH1 0x60 PUSH1 0x9 PUSH1 0x0 SWAP1 SLOAD SWAP1 PUSH2 0x100 EXP SWAP1 DIV PUSH1 0xFF AND PUSH2 0x136E JUMPI PUSH1 0x40 MLOAD PUSH32 0x8C379A000000000000000000000000000000000000000000000000000000000 DUP2 MSTORE PUSH1 0x4 ADD PUSH2 0x1365 SWAP1 PUSH2 0x39FA JUMP JUMPDEST PUSH1 0x40 MLOAD DUP1 SWAP2 SUB SWAP1 REVERT JUMPDEST PUSH1 0x0 DUP1 JUMPDEST PUSH1 0x3 SLOAD DUP2 LT ISZERO PUSH2 0x13EE JUMPI PUSH1 0x4 PUSH1 0x0 DUP3 DUP2 MSTORE PUSH1 0x20 ADD SWAP1 DUP2 MSTORE PUSH1 0x20 ADD PUSH1 0x0 KECCAK256 PUSH1 0x6 ADD PUSH1 0x2 SWAP1 SLOAD SWAP1 PUSH2 0x100 EXP SWAP1 DIV PUSH1 0xFF AND DUP1 ISZERO PUSH2 0x13CD JUMPI POP PUSH1 0x4 PUSH1 0x0 DUP3 DUP2 MSTORE PUSH1 0x20 ADD SWAP1 DUP2 MSTORE PUSH1 0x20 ADD PUSH1 0x0 KECCAK256 PUSH1 0x6 ADD PUSH1 0x1 SWAP1 SLOAD SWAP1 PUSH2 0x100 EXP SWAP1 DIV PUSH1 0xFF AND ISZERO JUMPDEST ISZERO PUSH2 0x13E1 JUMPI DUP2 DUP1 PUSH2 0x13DD SWAP1 PUSH2 0x3E9F JUMP JUMPDEST SWAP3 POP POP JUMPDEST DUP1 DUP1 PUSH1 0x1 ADD SWAP2 POP POP PUSH2 0x1372 JUMP JUMPDEST POP PUSH1 0x0 DUP2 PUSH8 0xFFFFFFFFFFFFFFFF DUP2 GT ISZERO PUSH2 0x140B JUMPI PUSH2 0x140A PUSH2 0x344F JUMP JUMPDEST JUMPDEST PUSH1 0x40 MLOAD SWAP1 DUP1 DUP3 MSTORE DUP1 PUSH1 0x20 MUL PUSH1 0x20 ADD DUP3 ADD PUSH1 0x40 MSTORE DUP1 ISZERO PUSH2 0x1444 JUMPI DUP2 PUSH1 0x20 ADD JUMPDEST PUSH2 0x1431 PUSH2 0x3052 JUMP JUMPDEST DUP2 MSTORE PUSH1 0x20 ADD SWAP1 PUSH1 0x1 SWAP1 SUB SWAP1 DUP2 PUSH2 0x1429 JUMPI SWAP1 POP JUMPDEST POP SWAP1 POP PUSH1 0x0 DUP1 JUMPDEST PUSH1 0x3 SLOAD DUP2 LT ISZERO PUSH2 0x16CC JUMPI PUSH1 0x4 PUSH1 0x0 DUP3 DUP2 MSTORE PUSH1 0x20 ADD SWAP1 DUP2 MSTORE PUSH1 0x20 ADD PUSH1 0x0 KECCAK256 PUSH1 0x6 ADD PUSH1 0x2 SWAP1 SLOAD SWAP1 PUSH2 0x100 EXP SWAP1 DIV PUSH1 0xFF AND DUP1 ISZERO PUSH2 0x14A6 JUMPI POP PUSH1 0x4 PUSH1 0x0 DUP3 DUP2 MSTORE PUSH1 0x20 ADD SWAP1 DUP2 MSTORE PUSH1 0x20 ADD PUSH1 0x0 KECCAK256 PUSH1 0x6 ADD PUSH1 0x1 SWAP1 SLOAD SWAP1 PUSH2 0x100 EXP SWAP1 DIV PUSH1 0xFF AND ISZERO JUMPDEST ISZERO PUSH2 0x16BF JUMPI PUSH1 0x40 MLOAD DUP1 PUSH2 0x100 ADD PUSH1 0x40 MSTORE DUP1 PUSH1 0x4 PUSH1 0x0 DUP5 DUP2 MSTORE PUSH1 0x20 ADD SWAP1 DUP2 MSTORE PUSH1 0x20 ADD PUSH1 0x0 KECCAK256 PUSH1 0x0 ADD SLOAD DUP2 MSTORE PUSH1 0x20 ADD PUSH1 0x4 PUSH1 0x0 DUP5 DUP2 MSTORE PUSH1 0x20 ADD SWAP1 DUP2 MSTORE PUSH1 0x20 ADD PUSH1 0x0 KECCAK256 PUSH1 0x1 ADD PUSH1 0x0 SWAP1 SLOAD SWAP1 PUSH2 0x100 EXP SWAP1 DIV PUSH20 0xFFFFFFFFFFFFFFFFFFFFFFFFFFFFFFFFFFFFFFFF AND PUSH20 0xFFFFFFFFFFFFFFFFFFFFFFFFFFFFFFFFFFFFFFFF AND DUP2 MSTORE PUSH1 0x20 ADD PUSH1 0x4 PUSH1 0x0 DUP5 DUP2 MSTORE PUSH1 0x20 ADD SWAP1 DUP2 MSTORE PUSH1 0x20 ADD PUSH1 0x0 KECCAK256 PUSH1 0x2 ADD DUP1 SLOAD PUSH2 0x1546 SWAP1 PUSH2 0x3B1D JUMP JUMPDEST DUP1 PUSH1 0x1F ADD PUSH1 0x20 DUP1 SWAP2 DIV MUL PUSH1 0x20 ADD PUSH1 0x40 MLOAD SWAP1 DUP2 ADD PUSH1 0x40 MSTORE DUP1 SWAP3 SWAP2 SWAP1 DUP2 DUP2 MSTORE PUSH1 0x20 ADD DUP3 DUP1 SLOAD PUSH2 0x1572 SWAP1 PUSH2 0x3B1D JUMP JUMPDEST DUP1 ISZERO PUSH2 0x15BF JUMPI DUP1 PUSH1 0x1F LT PUSH2 0x1594 JUMPI PUSH2 0x100 DUP1 DUP4 SLOAD DIV MUL DUP4 MSTORE SWAP2 PUSH1 0x20 ADD SWAP2 PUSH2 0x15BF JUMP JUMPDEST DUP3 ADD SWAP2 SWAP1 PUSH1 0x0 MSTORE PUSH1 0x20 PUSH1 0x0 KECCAK256 SWAP1 JUMPDEST DUP2 SLOAD DUP2 MSTORE SWAP1 PUSH1 0x1 ADD SWAP1 PUSH1 0x20 ADD DUP1 DUP4 GT PUSH2 0x15A2 JUMPI DUP3 SWAP1 SUB PUSH1 0x1F AND DUP3 ADD SWAP2 JUMPDEST POP POP POP POP POP DUP2 MSTORE PUSH1 0x20 ADD PUSH1 0x4 PUSH1 0x0 DUP5 DUP2 MSTORE PUSH1 0x20 ADD SWAP1 DUP2 MSTORE PUSH1 0x20 ADD PUSH1 0x0 KECCAK256 PUSH1 0x3 ADD SLOAD DUP2 MSTORE PUSH1 0x20 ADD PUSH1 0x4 PUSH1 0x0 DUP5 DUP2 MSTORE PUSH1 0x20 ADD SWAP1 DUP2 MSTORE PUSH1 0x20 ADD PUSH1 0x0 KECCAK256 PUSH1 0x5 ADD SLOAD PUSH1 0x4 PUSH1 0x0 DUP6 DUP2 MSTORE PUSH1 0x20 ADD SWAP1 DUP2 MSTORE PUSH1 0x20 ADD PUSH1 0x0 KECCAK256 PUSH1 0x4 ADD SLOAD PUSH2 0x161D SWAP2 SWAP1 PUSH2 0x42A1 JUMP JUMPDEST DUP2 MSTORE PUSH1 0x20 ADD PUSH1 0x4 PUSH1 0x0 DUP5 DUP2 MSTORE PUSH1 0x20 ADD SWAP1 DUP2 MSTORE PUSH1 0x20 ADD PUSH1 0x0 KECCAK256 PUSH1 0x5 ADD SLOAD DUP2 MSTORE PUSH1 0x20 ADD PUSH1 0x4 PUSH1 0x0 DUP5 DUP2 MSTORE PUSH1 0x20 ADD SWAP1 DUP2 MSTORE PUSH1 0x20 ADD PUSH1 0x0 KECCAK256 PUSH1 0x6 ADD PUSH1 0x2 SWAP1 SLOAD SWAP1 PUSH2 0x100 EXP SWAP1 DIV PUSH1 0xFF AND ISZERO ISZERO DUP2 MSTORE PUSH1 0x20 ADD PUSH1 0x4 PUSH1 0x0 DUP5 DUP2 MSTORE PUSH1 0x20 ADD SWAP1 DUP2 MSTORE PUSH1 0x20 ADD PUSH1 0x0 KECCAK256 PUSH1 0x6 ADD PUSH1 0x1 SWAP1 SLOAD SWAP1 PUSH2 0x100 EXP SWAP1 DIV PUSH1 0xFF AND ISZERO ISZERO DUP2 MSTORE POP DUP4 DUP4 DUP2 MLOAD DUP2 LT PUSH2 0x16A5 JUMPI PUSH2 0x16A4 PUSH2 0x3A1A JUMP JUMPDEST JUMPDEST PUSH1 0x20 MUL PUSH1 0x20 ADD ADD DUP2 SWAP1 MSTORE POP DUP2 DUP1 PUSH2 0x16BB SWAP1 PUSH2 0x3E9F JUMP JUMPDEST SWAP3 POP POP JUMPDEST DUP1 DUP1 PUSH1 0x1 ADD SWAP2 POP POP PUSH2 0x144B JUMP JUMPDEST POP DUP2 SWAP4 POP POP POP POP SWAP1 JUMP JUMPDEST DUP1 PUSH1 0x4 PUSH1 0x0 DUP3 DUP2 MSTORE PUSH1 0x20 ADD SWAP1 DUP2 MSTORE PUSH1 0x20 ADD PUSH1 0x0 KECCAK256 PUSH1 0x6 ADD PUSH1 0x0 SWAP1 SLOAD SWAP1 PUSH2 0x100 EXP SWAP1 DIV PUSH1 0xFF AND PUSH2 0x173A JUMPI PUSH1 0x40 MLOAD PUSH32 0x8C379A000000000000000000000000000000000000000000000000000000000 DUP2 MSTORE PUSH1 0x4 ADD PUSH2 0x1731 SWAP1 PUSH2 0x3C98 JUMP JUMPDEST PUSH1 0x40 MLOAD DUP1 SWAP2 SUB SWAP1 REVERT JUMPDEST DUP2 PUSH1 0x4 PUSH1 0x0 DUP3 DUP2 MSTORE PUSH1 0x20 ADD SWAP1 DUP2 MSTORE PUSH1 0x20 ADD PUSH1 0x0 KECCAK256 PUSH1 0x6 ADD PUSH1 0x2 SWAP1 SLOAD SWAP1 PUSH2 0x100 EXP SWAP1 DIV PUSH1 0xFF AND ISZERO PUSH2 0x179F JUMPI PUSH1 0x40 MLOAD PUSH32 0x8C379A000000000000000000000000000000000000000000000000000000000 DUP2 MSTORE PUSH1 0x4 ADD PUSH2 0x1796 SWAP1 PUSH2 0x3D70 JUMP JUMPDEST PUSH1 0x40 MLOAD DUP1 SWAP2 SUB SWAP1 REVERT JUMPDEST PUSH1 0x9 PUSH1 0x0 SWAP1 SLOAD SWAP1 PUSH2 0x100 EXP SWAP1 DIV PUSH1 0xFF AND PUSH2 0x17EE JUMPI PUSH1 0x40 MLOAD PUSH32 0x8C379A000000000000000000000000000000000000000000000000000000000 DUP2 MSTORE PUSH1 0x4 ADD PUSH2 0x17E5 SWAP1 PUSH2 0x39FA JUMP JUMPDEST PUSH1 0x40 MLOAD DUP1 SWAP2 SUB SWAP1 REVERT JUMPDEST PUSH1 0x0 PUSH1 0x4 PUSH1 0x0 DUP6 DUP2 MSTORE PUSH1 0x20 ADD SWAP1 DUP2 MSTORE PUSH1 0x20 ADD PUSH1 0x0 KECCAK256 SWAP1 POP DUP1 PUSH1 0x1 ADD PUSH1 0x0 SWAP1 SLOAD SWAP1 PUSH2 0x100 EXP SWAP1 DIV PUSH20 0xFFFFFFFFFFFFFFFFFFFFFFFFFFFFFFFFFFFFFFFF AND PUSH20 0xFFFFFFFFFFFFFFFFFFFFFFFFFFFFFFFFFFFFFFFF AND CALLER PUSH20 0xFFFFFFFFFFFFFFFFFFFFFFFFFFFFFFFFFFFFFFFF AND EQ DUP1 PUSH2 0x18AE JUMPI POP PUSH1 0x0 DUP1 SLOAD SWAP1 PUSH2 0x100 EXP SWAP1 DIV PUSH20 0xFFFFFFFFFFFFFFFFFFFFFFFFFFFFFFFFFFFFFFFF AND PUSH20 0xFFFFFFFFFFFFFFFFFFFFFFFFFFFFFFFFFFFFFFFF AND CALLER PUSH20 0xFFFFFFFFFFFFFFFFFFFFFFFFFFFFFFFFFFFFFFFF AND EQ JUMPDEST PUSH2 0x18ED JUMPI PUSH1 0x40 MLOAD PUSH32 0x8C379A000000000000000000000000000000000000000000000000000000000 DUP2 MSTORE PUSH1 0x4 ADD PUSH2 0x18E4 SWAP1 PUSH2 0x4347 JUMP JUMPDEST PUSH1 0x40 MLOAD DUP1 SWAP2 SUB SWAP1 REVERT JUMPDEST PUSH1 0x0 DUP2 PUSH1 0x6 ADD PUSH1 0x0 PUSH2 0x100 EXP DUP2 SLOAD DUP2 PUSH1 0xFF MUL NOT AND SWAP1 DUP4 ISZERO ISZERO MUL OR SWAP1 SSTORE POP PUSH1 0x1 DUP2 PUSH1 0x6 ADD PUSH1 0x1 PUSH2 0x100 EXP DUP2 SLOAD DUP2 PUSH1 0xFF MUL NOT AND SWAP1 DUP4 ISZERO ISZERO MUL OR SWAP1 SSTORE POP PUSH1 0x0 JUMPDEST DUP2 PUSH1 0x7 ADD DUP1 SLOAD SWAP1 POP DUP2 LT ISZERO PUSH2 0x1A3E JUMPI PUSH1 0x0 DUP3 PUSH1 0x7 ADD DUP3 DUP2 SLOAD DUP2 LT PUSH2 0x1951 JUMPI PUSH2 0x1950 PUSH2 0x3A1A JUMP JUMPDEST JUMPDEST SWAP1 PUSH1 0x0 MSTORE PUSH1 0x20 PUSH1 0x0 KECCAK256 ADD PUSH1 0x0 SWAP1 SLOAD SWAP1 PUSH2 0x100 EXP SWAP1 DIV PUSH20 0xFFFFFFFFFFFFFFFFFFFFFFFFFFFFFFFFFFFFFFFF AND SWAP1 POP PUSH1 0x0 DUP4 PUSH1 0x8 ADD PUSH1 0x0 DUP4 PUSH20 0xFFFFFFFFFFFFFFFFFFFFFFFFFFFFFFFFFFFFFFFF AND PUSH20 0xFFFFFFFFFFFFFFFFFFFFFFFFFFFFFFFFFFFFFFFF AND DUP2 MSTORE PUSH1 0x20 ADD SWAP1 DUP2 MSTORE PUSH1 0x20 ADD PUSH1 0x0 KECCAK256 SLOAD SWAP1 POP PUSH1 0x0 DUP5 PUSH1 0x3 ADD SLOAD DUP3 PUSH2 0x19D6 SWAP2 SWAP1 PUSH2 0x3A78 JUMP JUMPDEST SWAP1 POP DUP1 PUSH1 0x8 PUSH1 0x0 DUP6 PUSH20 0xFFFFFFFFFFFFFFFFFFFFFFFFFFFFFFFFFFFFFFFF AND PUSH20 0xFFFFFFFFFFFFFFFFFFFFFFFFFFFFFFFFFFFFFFFF AND DUP2 MSTORE PUSH1 0x20 ADD SWAP1 DUP2 MSTORE PUSH1 0x20 ADD PUSH1 0x0 KECCAK256 PUSH1 0x0 DUP3 DUP3 SLOAD PUSH2 0x1A27 SWAP2 SWAP1 PUSH2 0x3ABA JUMP JUMPDEST SWAP3 POP POP DUP2 SWAP1 SSTORE POP POP POP POP DUP1 DUP1 PUSH1 0x1 ADD SWAP2 POP POP PUSH2 0x192A JUMP JUMPDEST POP PUSH32 0x57BF3FC7E1999F61D60BF6BF729B85A5423C5D0883A1629CF9794F2162AE2ABA DUP5 CALLER DUP4 PUSH1 0x2 ADD PUSH1 0x40 MLOAD PUSH2 0x1A75 SWAP4 SWAP3 SWAP2 SWAP1 PUSH2 0x43EB JUMP JUMPDEST PUSH1 0x40 MLOAD DUP1 SWAP2 SUB SWAP1 LOG1 POP POP POP POP JUMP JUMPDEST PUSH1 0x0 DUP1 SLOAD SWAP1 PUSH2 0x100 EXP SWAP1 DIV PUSH20 0xFFFFFFFFFFFFFFFFFFFFFFFFFFFFFFFFFFFFFFFF AND PUSH20 0xFFFFFFFFFFFFFFFFFFFFFFFFFFFFFFFFFFFFFFFF AND CALLER PUSH20 0xFFFFFFFFFFFFFFFFFFFFFFFFFFFFFFFFFFFFFFFF AND EQ PUSH2 0x1B11 JUMPI PUSH1 0x40 MLOAD PUSH32 0x8C379A000000000000000000000000000000000000000000000000000000000 DUP2 MSTORE PUSH1 0x4 ADD PUSH2 0x1B08 SWAP1 PUSH2 0x398E JUMP JUMPDEST PUSH1 0x40 MLOAD DUP1 SWAP2 SUB SWAP1 REVERT JUMPDEST PUSH1 0x9 PUSH1 0x0 SWAP1 SLOAD SWAP1 PUSH2 0x100 EXP SWAP1 DIV PUSH1 0xFF AND PUSH2 0x1B60 JUMPI PUSH1 0x40 MLOAD PUSH32 0x8C379A000000000000000000000000000000000000000000000000000000000 DUP2 MSTORE PUSH1 0x4 ADD PUSH2 0x1B57 SWAP1 PUSH2 0x39FA JUMP JUMPDEST PUSH1 0x40 MLOAD DUP1 SWAP2 SUB SWAP1 REVERT JUMPDEST PUSH1 0x0 PUSH1 0x2 SLOAD SWAP1 POP PUSH1 0x0 PUSH1 0x2 DUP2 SWAP1 SSTORE POP PUSH1 0x0 DUP1 SLOAD SWAP1 PUSH2 0x100 EXP SWAP1 DIV PUSH20 0xFFFFFFFFFFFFFFFFFFFFFFFFFFFFFFFFFFFFFFFF AND PUSH20 0xFFFFFFFFFFFFFFFFFFFFFFFFFFFFFFFFFFFFFFFF AND PUSH2 0x8FC DUP3 SWAP1 DUP2 ISZERO MUL SWAP1 PUSH1 0x40 MLOAD PUSH1 0x0 PUSH1 0x40 MLOAD DUP1 DUP4 SUB DUP2 DUP6 DUP9 DUP9 CALL SWAP4 POP POP POP POP ISZERO DUP1 ISZERO PUSH2 0x1BD5 JUMPI RETURNDATASIZE PUSH1 0x0 DUP1 RETURNDATACOPY RETURNDATASIZE PUSH1 0x0 REVERT JUMPDEST POP PUSH1 0x0 SELFBALANCE SWAP1 POP PUSH32 0xC0819C13BE868895EB93E40EACEB96DE976442FA1D404E5C55F14BB65A8C489A PUSH1 0x0 DUP1 SLOAD SWAP1 PUSH2 0x100 EXP SWAP1 DIV PUSH20 0xFFFFFFFFFFFFFFFFFFFFFFFFFFFFFFFFFFFFFFFF AND DUP3 DUP5 PUSH2 0x1C29 SWAP2 SWAP1 PUSH2 0x3ABA JUMP JUMPDEST PUSH1 0x40 MLOAD PUSH2 0x1C37 SWAP3 SWAP2 SWAP1 PUSH2 0x4429 JUMP JUMPDEST PUSH1 0x40 MLOAD DUP1 SWAP2 SUB SWAP1 LOG1 POP POP JUMP JUMPDEST PUSH1 0x2 SLOAD DUP2 JUMP JUMPDEST PUSH1 0x0 PUSH1 0x9 PUSH1 0x0 SWAP1 SLOAD SWAP1 PUSH2 0x100 EXP SWAP1 DIV PUSH1 0xFF AND PUSH2 0x1C9A JUMPI PUSH1 0x40 MLOAD PUSH32 0x8C379A000000000000000000000000000000000000000000000000000000000 DUP2 MSTORE PUSH1 0x4 ADD PUSH2 0x1C91 SWAP1 PUSH2 0x39FA JUMP JUMPDEST PUSH1 0x40 MLOAD DUP1 SWAP2 SUB SWAP1 REVERT JUMPDEST PUSH1 0x0 DUP1 JUMPDEST PUSH1 0x3 SLOAD DUP2 LT ISZERO PUSH2 0x1D1B JUMPI PUSH1 0x4 PUSH1 0x0 DUP3 DUP2 MSTORE PUSH1 0x20 ADD SWAP1 DUP2 MSTORE PUSH1 0x20 ADD PUSH1 0x0 KECCAK256 PUSH1 0x6 ADD PUSH1 0x2 SWAP1 SLOAD SWAP1 PUSH2 0x100 EXP SWAP1 DIV PUSH1 0xFF AND ISZERO DUP1 ISZERO PUSH2 0x1CFA JUMPI POP PUSH1 0x4 PUSH1 0x0 DUP3 DUP2 MSTORE PUSH1 0x20 ADD SWAP1 DUP2 MSTORE PUSH1 0x20 ADD PUSH1 0x0 KECCAK256 PUSH1 0x6 ADD PUSH1 0x1 SWAP1 SLOAD SWAP1 PUSH2 0x100 EXP SWAP1 DIV PUSH1 0xFF AND ISZERO JUMPDEST ISZERO PUSH2 0x1D0E JUMPI DUP2 DUP1 PUSH2 0x1D0A SWAP1 PUSH2 0x3E9F JUMP JUMPDEST SWAP3 POP POP JUMPDEST DUP1 DUP1 PUSH1 0x1 ADD SWAP2 POP POP PUSH2 0x1C9E JUMP JUMPDEST POP DUP1 SWAP2 POP POP SWAP1 JUMP JUMPDEST PUSH1 0x1 SLOAD DUP2 JUMP JUMPDEST PUSH1 0x9 PUSH1 0x0 SWAP1 SLOAD SWAP1 PUSH2 0x100 EXP SWAP1 DIV PUSH1 0xFF AND PUSH2 0x1D78 JUMPI PUSH1 0x40 MLOAD PUSH32 0x8C379A000000000000000000000000000000000000000000000000000000000 DUP2 MSTORE PUSH1 0x4 ADD PUSH2 0x1D6F SWAP1 PUSH2 0x39FA JUMP JUMPDEST PUSH1 0x40 MLOAD DUP1 SWAP2 SUB SWAP1 REVERT JUMPDEST PUSH1 0x0 DUP1 SLOAD SWAP1 PUSH2 0x100 EXP SWAP1 DIV PUSH20 0xFFFFFFFFFFFFFFFFFFFFFFFFFFFFFFFFFFFFFFFF AND PUSH20 0xFFFFFFFFFFFFFFFFFFFFFFFFFFFFFFFFFFFFFFFF AND CALLER PUSH20 0xFFFFFFFFFFFFFFFFFFFFFFFFFFFFFFFFFFFFFFFF AND EQ PUSH2 0x1E06 JUMPI PUSH1 0x40 MLOAD PUSH32 0x8C379A000000000000000000000000000000000000000000000000000000000 DUP2 MSTORE PUSH1 0x4 ADD PUSH2 0x1DFD SWAP1 PUSH2 0x398E JUMP JUMPDEST PUSH1 0x40 MLOAD DUP1 SWAP2 SUB SWAP1 REVERT JUMPDEST PUSH1 0x6 PUSH1 0x0 CALLER PUSH20 0xFFFFFFFFFFFFFFFFFFFFFFFFFFFFFFFFFFFFFFFF AND PUSH20 0xFFFFFFFFFFFFFFFFFFFFFFFFFFFFFFFFFFFFFFFF AND DUP2 MSTORE PUSH1 0x20 ADD SWAP1 DUP2 MSTORE PUSH1 0x20 ADD PUSH1 0x0 KECCAK256 PUSH1 0x0 SWAP1 SLOAD SWAP1 PUSH2 0x100 EXP SWAP1 DIV PUSH1 0xFF AND ISZERO PUSH2 0x1E93 JUMPI PUSH1 0x40 MLOAD PUSH32 0x8C379A000000000000000000000000000000000000000000000000000000000 DUP2 MSTORE PUSH1 0x4 ADD PUSH2 0x1E8A SWAP1 PUSH2 0x3C2C JUMP JUMPDEST PUSH1 0x40 MLOAD DUP1 SWAP2 SUB SWAP1 REVERT JUMPDEST PUSH1 0x1 PUSH1 0x6 PUSH1 0x0 DUP4 PUSH20 0xFFFFFFFFFFFFFFFFFFFFFFFFFFFFFFFFFFFFFFFF AND PUSH20 0xFFFFFFFFFFFFFFFFFFFFFFFFFFFFFFFFFFFFFFFF AND DUP2 MSTORE PUSH1 0x20 ADD SWAP1 DUP2 MSTORE PUSH1 0x20 ADD PUSH1 0x0 KECCAK256 PUSH1 0x0 PUSH2 0x100 EXP DUP2 SLOAD DUP2 PUSH1 0xFF MUL NOT AND SWAP1 DUP4 ISZERO ISZERO MUL OR SWAP1 SSTORE POP PUSH1 0x7 DUP2 SWAP1 DUP1 PUSH1 0x1 DUP2 SLOAD ADD DUP1 DUP3 SSTORE DUP1 SWAP2 POP POP PUSH1 0x1 SWAP1 SUB SWAP1 PUSH1 0x0 MSTORE PUSH1 0x20 PUSH1 0x0 KECCAK256 ADD PUSH1 0x0 SWAP1 SWAP2 SWAP1 SWAP2 SWAP1 SWAP2 PUSH2 0x100 EXP DUP2 SLOAD DUP2 PUSH20 0xFFFFFFFFFFFFFFFFFFFFFFFFFFFFFFFFFFFFFFFF MUL NOT AND SWAP1 DUP4 PUSH20 0xFFFFFFFFFFFFFFFFFFFFFFFFFFFFFFFFFFFFFFFF AND MUL OR SWAP1 SSTORE POP PUSH1 0x5 PUSH1 0x0 DUP2 SLOAD DUP1 SWAP3 SWAP2 SWAP1 PUSH2 0x1F61 SWAP1 PUSH2 0x3E9F JUMP JUMPDEST SWAP2 SWAP1 POP SSTORE POP POP JUMP JUMPDEST PUSH1 0x0 DUP1 SLOAD SWAP1 PUSH2 0x100 EXP SWAP1 DIV PUSH20 0xFFFFFFFFFFFFFFFFFFFFFFFFFFFFFFFFFFFFFFFF AND DUP2 JUMP JUMPDEST DUP1 PUSH1 0x4 PUSH1 0x0 DUP3 DUP2 MSTORE PUSH1 0x20 ADD SWAP1 DUP2 MSTORE PUSH1 0x20 ADD PUSH1 0x0 KECCAK256 PUSH1 0x6 ADD PUSH1 0x0 SWAP1 SLOAD SWAP1 PUSH2 0x100 EXP SWAP1 DIV PUSH1 0xFF AND PUSH2 0x1FF1 JUMPI PUSH1 0x40 MLOAD PUSH32 0x8C379A000000000000000000000000000000000000000000000000000000000 DUP2 MSTORE PUSH1 0x4 ADD PUSH2 0x1FE8 SWAP1 PUSH2 0x3C98 JUMP JUMPDEST PUSH1 0x40 MLOAD DUP1 SWAP2 SUB SWAP1 REVERT JUMPDEST DUP2 PUSH1 0x4 PUSH1 0x0 DUP3 DUP2 MSTORE PUSH1 0x20 ADD SWAP1 DUP2 MSTORE PUSH1 0x20 ADD PUSH1 0x0 KECCAK256 PUSH1 0x6 ADD PUSH1 0x1 SWAP1 SLOAD SWAP1 PUSH2 0x100 EXP SWAP1 DIV PUSH1 0xFF AND ISZERO PUSH2 0x2056 JUMPI PUSH1 0x40 MLOAD PUSH32 0x8C379A000000000000000000000000000000000000000000000000000000000 DUP2 MSTORE PUSH1 0x4 ADD PUSH2 0x204D SWAP1 PUSH2 0x3D04 JUMP JUMPDEST PUSH1 0x40 MLOAD DUP1 SWAP2 SUB SWAP1 REVERT JUMPDEST PUSH1 0x9 PUSH1 0x0 SWAP1 SLOAD SWAP1 PUSH2 0x100 EXP SWAP1 DIV PUSH1 0xFF AND PUSH2 0x20A5 JUMPI PUSH1 0x40 MLOAD PUSH32 0x8C379A000000000000000000000000000000000000000000000000000000000 DUP2 MSTORE PUSH1 0x4 ADD PUSH2 0x209C SWAP1 PUSH2 0x39FA JUMP JUMPDEST PUSH1 0x40 MLOAD DUP1 SWAP2 SUB SWAP1 REVERT JUMPDEST PUSH1 0x0 PUSH1 0x4 PUSH1 0x0 DUP6 DUP2 MSTORE PUSH1 0x20 ADD SWAP1 DUP2 MSTORE PUSH1 0x20 ADD PUSH1 0x0 KECCAK256 SWAP1 POP DUP1 PUSH1 0x1 ADD PUSH1 0x0 SWAP1 SLOAD SWAP1 PUSH2 0x100 EXP SWAP1 DIV PUSH20 0xFFFFFFFFFFFFFFFFFFFFFFFFFFFFFFFFFFFFFFFF AND PUSH20 0xFFFFFFFFFFFFFFFFFFFFFFFFFFFFFFFFFFFFFFFF AND CALLER PUSH20 0xFFFFFFFFFFFFFFFFFFFFFFFFFFFFFFFFFFFFFFFF AND EQ DUP1 PUSH2 0x2165 JUMPI POP PUSH1 0x0 DUP1 SLOAD SWAP1 PUSH2 0x100 EXP SWAP1 DIV PUSH20 0xFFFFFFFFFFFFFFFFFFFFFFFFFFFFFFFFFFFFFFFF AND PUSH20 0xFFFFFFFFFFFFFFFFFFFFFFFFFFFFFFFFFFFFFFFF AND CALLER PUSH20 0xFFFFFFFFFFFFFFFFFFFFFFFFFFFFFFFFFFFFFFFF AND EQ JUMPDEST PUSH2 0x21A4 JUMPI PUSH1 0x40 MLOAD PUSH32 0x8C379A000000000000000000000000000000000000000000000000000000000 DUP2 MSTORE PUSH1 0x4 ADD PUSH2 0x219B SWAP1 PUSH2 0x44C4 JUMP JUMPDEST PUSH1 0x40 MLOAD DUP1 SWAP2 SUB SWAP1 REVERT JUMPDEST DUP1 PUSH1 0x4 ADD SLOAD DUP2 PUSH1 0x5 ADD SLOAD LT ISZERO PUSH2 0x21EF JUMPI PUSH1 0x40 MLOAD PUSH32 0x8C379A000000000000000000000000000000000000000000000000000000000 DUP2 MSTORE PUSH1 0x4 ADD PUSH2 0x21E6 SWAP1 PUSH2 0x4556 JUMP JUMPDEST PUSH1 0x40 MLOAD DUP1 SWAP2 SUB SWAP1 REVERT JUMPDEST PUSH1 0x0 PUSH1 0x64 PUSH1 0x50 SELFBALANCE PUSH2 0x2200 SWAP2 SWAP1 PUSH2 0x3A78 JUMP JUMPDEST PUSH2 0x220A SWAP2 SWAP1 PUSH2 0x45A5 JUMP JUMPDEST SWAP1 POP DUP2 PUSH1 0x1 ADD PUSH1 0x0 SWAP1 SLOAD SWAP1 PUSH2 0x100 EXP SWAP1 DIV PUSH20 0xFFFFFFFFFFFFFFFFFFFFFFFFFFFFFFFFFFFFFFFF AND PUSH20 0xFFFFFFFFFFFFFFFFFFFFFFFFFFFFFFFFFFFFFFFF AND PUSH2 0x8FC DUP3 SWAP1 DUP2 ISZERO MUL SWAP1 PUSH1 0x40 MLOAD PUSH1 0x0 PUSH1 0x40 MLOAD DUP1 DUP4 SUB DUP2 DUP6 DUP9 DUP9 CALL SWAP4 POP POP POP POP ISZERO DUP1 ISZERO PUSH2 0x2276 JUMPI RETURNDATASIZE PUSH1 0x0 DUP1 RETURNDATACOPY RETURNDATASIZE PUSH1 0x0 REVERT JUMPDEST POP SELFBALANCE PUSH1 0x2 DUP2 SWAP1 SSTORE POP PUSH1 0x0 DUP3 PUSH1 0x6 ADD PUSH1 0x0 PUSH2 0x100 EXP DUP2 SLOAD DUP2 PUSH1 0xFF MUL NOT AND SWAP1 DUP4 ISZERO ISZERO MUL OR SWAP1 SSTORE POP PUSH1 0x1 DUP3 PUSH1 0x6 ADD PUSH1 0x2 PUSH2 0x100 EXP DUP2 SLOAD DUP2 PUSH1 0xFF MUL NOT AND SWAP1 DUP4 ISZERO ISZERO MUL OR SWAP1 SSTORE POP PUSH32 0x8074EF78C691C15AC249EF0C702E350AFFE9388AFDBBAFD37C0D19703CD0C7DB DUP6 CALLER DUP5 PUSH1 0x2 ADD PUSH1 0x40 MLOAD PUSH2 0x22EE SWAP4 SWAP3 SWAP2 SWAP1 PUSH2 0x43EB JUMP JUMPDEST PUSH1 0x40 MLOAD DUP1 SWAP2 SUB SWAP1 LOG1 POP POP POP POP POP JUMP JUMPDEST PUSH1 0x0 DUP1 SLOAD SWAP1 PUSH2 0x100 EXP SWAP1 DIV PUSH20 0xFFFFFFFFFFFFFFFFFFFFFFFFFFFFFFFFFFFFFFFF AND PUSH20 0xFFFFFFFFFFFFFFFFFFFFFFFFFFFFFFFFFFFFFFFF AND CALLER PUSH20 0xFFFFFFFFFFFFFFFFFFFFFFFFFFFFFFFFFFFFFFFF AND EQ PUSH2 0x238B JUMPI PUSH1 0x40 MLOAD PUSH32 0x8C379A000000000000000000000000000000000000000000000000000000000 DUP2 MSTORE PUSH1 0x4 ADD PUSH2 0x2382 SWAP1 PUSH2 0x398E JUMP JUMPDEST PUSH1 0x40 MLOAD DUP1 SWAP2 SUB SWAP1 REVERT JUMPDEST PUSH1 0x9 PUSH1 0x0 SWAP1 SLOAD SWAP1 PUSH2 0x100 EXP SWAP1 DIV PUSH1 0xFF AND PUSH2 0x23DA JUMPI PUSH1 0x40 MLOAD PUSH32 0x8C379A000000000000000000000000000000000000000000000000000000000 DUP2 MSTORE PUSH1 0x4 ADD PUSH2 0x23D1 SWAP1 PUSH2 0x39FA JUMP JUMPDEST PUSH1 0x40 MLOAD DUP1 SWAP2 SUB SWAP1 REVERT JUMPDEST PUSH1 0x0 PUSH20 0xFFFFFFFFFFFFFFFFFFFFFFFFFFFFFFFFFFFFFFFF AND DUP2 PUSH20 0xFFFFFFFFFFFFFFFFFFFFFFFFFFFFFFFFFFFFFFFF AND SUB PUSH2 0x2449 JUMPI PUSH1 0x40 MLOAD PUSH32 0x8C379A000000000000000000000000000000000000000000000000000000000 DUP2 MSTORE PUSH1 0x4 ADD PUSH2 0x2440 SWAP1 PUSH2 0x4648 JUMP JUMPDEST PUSH1 0x40 MLOAD DUP1 SWAP2 SUB SWAP1 REVERT JUMPDEST DUP1 PUSH1 0x0 DUP1 PUSH2 0x100 EXP DUP2 SLOAD DUP2 PUSH20 0xFFFFFFFFFFFFFFFFFFFFFFFFFFFFFFFFFFFFFFFF MUL NOT AND SWAP1 DUP4 PUSH20 0xFFFFFFFFFFFFFFFFFFFFFFFFFFFFFFFFFFFFFFFF AND MUL OR SWAP1 SSTORE POP POP JUMP JUMPDEST PUSH1 0x5 SLOAD DUP2 JUMP JUMPDEST PUSH1 0x60 DUP1 PUSH1 0x9 PUSH1 0x0 SWAP1 SLOAD SWAP1 PUSH2 0x100 EXP SWAP1 DIV PUSH1 0xFF AND PUSH2 0x24E4 JUMPI PUSH1 0x40 MLOAD PUSH32 0x8C379A000000000000000000000000000000000000000000000000000000000 DUP2 MSTORE PUSH1 0x4 ADD PUSH2 0x24DB SWAP1 PUSH2 0x39FA JUMP JUMPDEST PUSH1 0x40 MLOAD DUP1 SWAP2 SUB SWAP1 REVERT JUMPDEST DUP3 PUSH1 0x0 DUP2 GT DUP1 ISZERO PUSH2 0x24F7 JUMPI POP PUSH1 0x3 SLOAD DUP2 GT ISZERO JUMPDEST PUSH2 0x2536 JUMPI PUSH1 0x40 MLOAD PUSH32 0x8C379A000000000000000000000000000000000000000000000000000000000 DUP2 MSTORE PUSH1 0x4 ADD PUSH2 0x252D SWAP1 PUSH2 0x46B4 JUMP JUMPDEST PUSH1 0x40 MLOAD DUP1 SWAP2 SUB SWAP1 REVERT JUMPDEST PUSH1 0x0 PUSH1 0x4 PUSH1 0x0 DUP7 DUP2 MSTORE PUSH1 0x20 ADD SWAP1 DUP2 MSTORE PUSH1 0x20 ADD PUSH1 0x0 KECCAK256 SWAP1 POP PUSH1 0x0 DUP2 PUSH1 0x7 ADD DUP1 SLOAD SWAP1 POP SWAP1 POP DUP1 PUSH8 0xFFFFFFFFFFFFFFFF DUP2 GT ISZERO PUSH2 0x2573 JUMPI PUSH2 0x2572 PUSH2 0x344F JUMP JUMPDEST JUMPDEST PUSH1 0x40 MLOAD SWAP1 DUP1 DUP3 MSTORE DUP1 PUSH1 0x20 MUL PUSH1 0x20 ADD DUP3 ADD PUSH1 0x40 MSTORE DUP1 ISZERO PUSH2 0x25A1 JUMPI DUP2 PUSH1 0x20 ADD PUSH1 0x20 DUP3 MUL DUP1 CALLDATASIZE DUP4 CALLDATACOPY DUP1 DUP3 ADD SWAP2 POP POP SWAP1 POP JUMPDEST POP SWAP5 POP DUP1 PUSH8 0xFFFFFFFFFFFFFFFF DUP2 GT ISZERO PUSH2 0x25BE JUMPI PUSH2 0x25BD PUSH2 0x344F JUMP JUMPDEST JUMPDEST PUSH1 0x40 MLOAD SWAP1 DUP1 DUP3 MSTORE DUP1 PUSH1 0x20 MUL PUSH1 0x20 ADD DUP3 ADD PUSH1 0x40 MSTORE DUP1 ISZERO PUSH2 0x25EC JUMPI DUP2 PUSH1 0x20 ADD PUSH1 0x20 DUP3 MUL DUP1 CALLDATASIZE DUP4 CALLDATACOPY DUP1 DUP3 ADD SWAP2 POP POP SWAP1 POP JUMPDEST POP SWAP4 POP PUSH1 0x0 JUMPDEST DUP2 DUP2 LT ISZERO PUSH2 0x26FC JUMPI PUSH1 0x0 DUP4 PUSH1 0x7 ADD DUP3 DUP2 SLOAD DUP2 LT PUSH2 0x2612 JUMPI PUSH2 0x2611 PUSH2 0x3A1A JUMP JUMPDEST JUMPDEST SWAP1 PUSH1 0x0 MSTORE PUSH1 0x20 PUSH1 0x0 KECCAK256 ADD PUSH1 0x0 SWAP1 SLOAD SWAP1 PUSH2 0x100 EXP SWAP1 DIV PUSH20 0xFFFFFFFFFFFFFFFFFFFFFFFFFFFFFFFFFFFFFFFF AND SWAP1 POP DUP1 DUP8 DUP4 DUP2 MLOAD DUP2 LT PUSH2 0x2653 JUMPI PUSH2 0x2652 PUSH2 0x3A1A JUMP JUMPDEST JUMPDEST PUSH1 0x20 MUL PUSH1 0x20 ADD ADD SWAP1 PUSH20 0xFFFFFFFFFFFFFFFFFFFFFFFFFFFFFFFFFFFFFFFF AND SWAP1 DUP2 PUSH20 0xFFFFFFFFFFFFFFFFFFFFFFFFFFFFFFFFFFFFFFFF AND DUP2 MSTORE POP POP DUP4 PUSH1 0x8 ADD PUSH1 0x0 DUP3 PUSH20 0xFFFFFFFFFFFFFFFFFFFFFFFFFFFFFFFFFFFFFFFF AND PUSH20 0xFFFFFFFFFFFFFFFFFFFFFFFFFFFFFFFFFFFFFFFF AND DUP2 MSTORE PUSH1 0x20 ADD SWAP1 DUP2 MSTORE PUSH1 0x20 ADD PUSH1 0x0 KECCAK256 SLOAD DUP7 DUP4 DUP2 MLOAD DUP2 LT PUSH2 0x26E2 JUMPI PUSH2 0x26E1 PUSH2 0x3A1A JUMP JUMPDEST JUMPDEST PUSH1 0x20 MUL PUSH1 0x20 ADD ADD DUP2 DUP2 MSTORE POP POP POP DUP1 DUP1 PUSH1 0x1 ADD SWAP2 POP POP PUSH2 0x25F2 JUMP JUMPDEST POP POP POP POP SWAP2 POP SWAP2 JUMP JUMPDEST PUSH1 0x8 PUSH1 0x20 MSTORE DUP1 PUSH1 0x0 MSTORE PUSH1 0x40 PUSH1 0x0 KECCAK256 PUSH1 0x0 SWAP2 POP SWAP1 POP SLOAD DUP2 JUMP JUMPDEST PUSH1 0x6 PUSH1 0x20 MSTORE DUP1 PUSH1 0x0 MSTORE PUSH1 0x40 PUSH1 0x0 KECCAK256 PUSH1 0x0 SWAP2 POP SLOAD SWAP1 PUSH2 0x100 EXP SWAP1 DIV PUSH1 0xFF AND DUP2 JUMP JUMPDEST PUSH1 0x60 PUSH1 0x9 PUSH1 0x0 SWAP1 SLOAD SWAP1 PUSH2 0x100 EXP SWAP1 DIV PUSH1 0xFF AND PUSH2 0x278E JUMPI PUSH1 0x40 MLOAD PUSH32 0x8C379A000000000000000000000000000000000000000000000000000000000 DUP2 MSTORE PUSH1 0x4 ADD PUSH2 0x2785 SWAP1 PUSH2 0x39FA JUMP JUMPDEST PUSH1 0x40 MLOAD DUP1 SWAP2 SUB SWAP1 REVERT JUMPDEST PUSH1 0x0 DUP1 JUMPDEST PUSH1 0x3 SLOAD DUP2 LT ISZERO PUSH2 0x27E1 JUMPI PUSH1 0x4 PUSH1 0x0 DUP3 DUP2 MSTORE PUSH1 0x20 ADD SWAP1 DUP2 MSTORE PUSH1 0x20 ADD PUSH1 0x0 KECCAK256 PUSH1 0x6 ADD PUSH1 0x1 SWAP1 SLOAD SWAP1 PUSH2 0x100 EXP SWAP1 DIV PUSH1 0xFF AND ISZERO PUSH2 0x27D4 JUMPI DUP2 DUP1 PUSH2 0x27D0 SWAP1 PUSH2 0x3E9F JUMP JUMPDEST SWAP3 POP POP JUMPDEST DUP1 DUP1 PUSH1 0x1 ADD SWAP2 POP POP PUSH2 0x2792 JUMP JUMPDEST POP PUSH1 0x0 DUP2 PUSH8 0xFFFFFFFFFFFFFFFF DUP2 GT ISZERO PUSH2 0x27FE JUMPI PUSH2 0x27FD PUSH2 0x344F JUMP JUMPDEST JUMPDEST PUSH1 0x40 MLOAD SWAP1 DUP1 DUP3 MSTORE DUP1 PUSH1 0x20 MUL PUSH1 0x20 ADD DUP3 ADD PUSH1 0x40 MSTORE DUP1 ISZERO PUSH2 0x2837 JUMPI DUP2 PUSH1 0x20 ADD JUMPDEST PUSH2 0x2824 PUSH2 0x3052 JUMP JUMPDEST DUP2 MSTORE PUSH1 0x20 ADD SWAP1 PUSH1 0x1 SWAP1 SUB SWAP1 DUP2 PUSH2 0x281C JUMPI SWAP1 POP JUMPDEST POP SWAP1 POP PUSH1 0x0 DUP1 JUMPDEST PUSH1 0x3 SLOAD DUP2 LT ISZERO PUSH2 0x2A71 JUMPI PUSH1 0x4 PUSH1 0x0 DUP3 DUP2 MSTORE PUSH1 0x20 ADD SWAP1 DUP2 MSTORE PUSH1 0x20 ADD PUSH1 0x0 KECCAK256 PUSH1 0x6 ADD PUSH1 0x1 SWAP1 SLOAD SWAP1 PUSH2 0x100 EXP SWAP1 DIV PUSH1 0xFF AND ISZERO PUSH2 0x2A64 JUMPI PUSH1 0x40 MLOAD DUP1 PUSH2 0x100 ADD PUSH1 0x40 MSTORE DUP1 PUSH1 0x4 PUSH1 0x0 DUP5 DUP2 MSTORE PUSH1 0x20 ADD SWAP1 DUP2 MSTORE PUSH1 0x20 ADD PUSH1 0x0 KECCAK256 PUSH1 0x0 ADD SLOAD DUP2 MSTORE PUSH1 0x20 ADD PUSH1 0x4 PUSH1 0x0 DUP5 DUP2 MSTORE PUSH1 0x20 ADD SWAP1 DUP2 MSTORE PUSH1 0x20 ADD PUSH1 0x0 KECCAK256 PUSH1 0x1 ADD PUSH1 0x0 SWAP1 SLOAD SWAP1 PUSH2 0x100 EXP SWAP1 DIV PUSH20 0xFFFFFFFFFFFFFFFFFFFFFFFFFFFFFFFFFFFFFFFF AND PUSH20 0xFFFFFFFFFFFFFFFFFFFFFFFFFFFFFFFFFFFFFFFF AND DUP2 MSTORE PUSH1 0x20 ADD PUSH1 0x4 PUSH1 0x0 DUP5 DUP2 MSTORE PUSH1 0x20 ADD SWAP1 DUP2 MSTORE PUSH1 0x20 ADD PUSH1 0x0 KECCAK256 PUSH1 0x2 ADD DUP1 SLOAD PUSH2 0x290C SWAP1 PUSH2 0x3B1D JUMP JUMPDEST DUP1 PUSH1 0x1F ADD PUSH1 0x20 DUP1 SWAP2 DIV MUL PUSH1 0x20 ADD PUSH1 0x40 MLOAD SWAP1 DUP2 ADD PUSH1 0x40 MSTORE DUP1 SWAP3 SWAP2 SWAP1 DUP2 DUP2 MSTORE PUSH1 0x20 ADD DUP3 DUP1 SLOAD PUSH2 0x2938 SWAP1 PUSH2 0x3B1D JUMP JUMPDEST DUP1 ISZERO PUSH2 0x2985 JUMPI DUP1 PUSH1 0x1F LT PUSH2 0x295A JUMPI PUSH2 0x100 DUP1 DUP4 SLOAD DIV MUL DUP4 MSTORE SWAP2 PUSH1 0x20 ADD SWAP2 PUSH2 0x2985 JUMP JUMPDEST DUP3 ADD SWAP2 SWAP1 PUSH1 0x0 MSTORE PUSH1 0x20 PUSH1 0x0 KECCAK256 SWAP1 JUMPDEST DUP2 SLOAD DUP2 MSTORE SWAP1 PUSH1 0x1 ADD SWAP1 PUSH1 0x20 ADD DUP1 DUP4 GT PUSH2 0x2968 JUMPI DUP3 SWAP1 SUB PUSH1 0x1F AND DUP3 ADD SWAP2 JUMPDEST POP POP POP POP POP DUP2 MSTORE PUSH1 0x20 ADD PUSH1 0x4 PUSH1 0x0 DUP5 DUP2 MSTORE PUSH1 0x20 ADD SWAP1 DUP2 MSTORE PUSH1 0x20 ADD PUSH1 0x0 KECCAK256 PUSH1 0x3 ADD SLOAD DUP2 MSTORE PUSH1 0x20 ADD PUSH1 0x4 PUSH1 0x0 DUP5 DUP2 MSTORE PUSH1 0x20 ADD SWAP1 DUP2 MSTORE PUSH1 0x20 ADD PUSH1 0x0 KECCAK256 PUSH1 0x4 ADD SLOAD DUP2 MSTORE PUSH1 0x20 ADD PUSH1 0x4 PUSH1 0x0 DUP5 DUP2 MSTORE PUSH1 0x20 ADD SWAP1 DUP2 MSTORE PUSH1 0x20 ADD PUSH1 0x0 KECCAK256 PUSH1 0x5 ADD SLOAD DUP2 MSTORE PUSH1 0x20 ADD PUSH1 0x4 PUSH1 0x0 DUP5 DUP2 MSTORE PUSH1 0x20 ADD SWAP1 DUP2 MSTORE PUSH1 0x20 ADD PUSH1 0x0 KECCAK256 PUSH1 0x6 ADD PUSH1 0x2 SWAP1 SLOAD SWAP1 PUSH2 0x100 EXP SWAP1 DIV PUSH1 0xFF AND ISZERO ISZERO DUP2 MSTORE PUSH1 0x20 ADD PUSH1 0x4 PUSH1 0x0 DUP5 DUP2 MSTORE PUSH1 0x20 ADD SWAP1 DUP2 MSTORE PUSH1 0x20 ADD PUSH1 0x0 KECCAK256 PUSH1 0x6 ADD PUSH1 0x1 SWAP1 SLOAD SWAP1 PUSH2 0x100 EXP SWAP1 DIV PUSH1 0xFF AND ISZERO ISZERO DUP2 MSTORE POP DUP4 DUP4 DUP2 MLOAD DUP2 LT PUSH2 0x2A4A JUMPI PUSH2 0x2A49 PUSH2 0x3A1A JUMP JUMPDEST JUMPDEST PUSH1 0x20 MUL PUSH1 0x20 ADD ADD DUP2 SWAP1 MSTORE POP DUP2 DUP1 PUSH2 0x2A60 SWAP1 PUSH2 0x3E9F JUMP JUMPDEST SWAP3 POP POP JUMPDEST DUP1 DUP1 PUSH1 0x1 ADD SWAP2 POP POP PUSH2 0x283E JUMP JUMPDEST POP DUP2 SWAP4 POP POP POP POP SWAP1 JUMP JUMPDEST PUSH1 0x60 PUSH1 0x9 PUSH1 0x0 SWAP1 SLOAD SWAP1 PUSH2 0x100 EXP SWAP1 DIV PUSH1 0xFF AND PUSH2 0x2ACC JUMPI PUSH1 0x40 MLOAD PUSH32 0x8C379A000000000000000000000000000000000000000000000000000000000 DUP2 MSTORE PUSH1 0x4 ADD PUSH2 0x2AC3 SWAP1 PUSH2 0x39FA JUMP JUMPDEST PUSH1 0x40 MLOAD DUP1 SWAP2 SUB SWAP1 REVERT JUMPDEST PUSH1 0x0 DUP1 JUMPDEST PUSH1 0x3 SLOAD DUP2 LT ISZERO PUSH2 0x2B4D JUMPI PUSH1 0x4 PUSH1 0x0 DUP3 DUP2 MSTORE PUSH1 0x20 ADD SWAP1 DUP2 MSTORE PUSH1 0x20 ADD PUSH1 0x0 KECCAK256 PUSH1 0x6 ADD PUSH1 0x2 SWAP1 SLOAD SWAP1 PUSH2 0x100 EXP SWAP1 DIV PUSH1 0xFF AND ISZERO DUP1 ISZERO PUSH2 0x2B2C JUMPI POP PUSH1 0x4 PUSH1 0x0 DUP3 DUP2 MSTORE PUSH1 0x20 ADD SWAP1 DUP2 MSTORE PUSH1 0x20 ADD PUSH1 0x0 KECCAK256 PUSH1 0x6 ADD PUSH1 0x1 SWAP1 SLOAD SWAP1 PUSH2 0x100 EXP SWAP1 DIV PUSH1 0xFF AND ISZERO JUMPDEST ISZERO PUSH2 0x2B40 JUMPI DUP2 DUP1 PUSH2 0x2B3C SWAP1 PUSH2 0x3E9F JUMP JUMPDEST SWAP3 POP POP JUMPDEST DUP1 DUP1 PUSH1 0x1 ADD SWAP2 POP POP PUSH2 0x2AD0 JUMP JUMPDEST POP PUSH1 0x0 DUP2 PUSH8 0xFFFFFFFFFFFFFFFF DUP2 GT ISZERO PUSH2 0x2B6A JUMPI PUSH2 0x2B69 PUSH2 0x344F JUMP JUMPDEST JUMPDEST PUSH1 0x40 MLOAD SWAP1 DUP1 DUP3 MSTORE DUP1 PUSH1 0x20 MUL PUSH1 0x20 ADD DUP3 ADD PUSH1 0x40 MSTORE DUP1 ISZERO PUSH2 0x2BA3 JUMPI DUP2 PUSH1 0x20 ADD JUMPDEST PUSH2 0x2B90 PUSH2 0x3052 JUMP JUMPDEST DUP2 MSTORE PUSH1 0x20 ADD SWAP1 PUSH1 0x1 SWAP1 SUB SWAP1 DUP2 PUSH2 0x2B88 JUMPI SWAP1 POP JUMPDEST POP SWAP1 POP PUSH1 0x0 DUP1 JUMPDEST PUSH1 0x3 SLOAD DUP2 LT ISZERO PUSH2 0x2E2C JUMPI PUSH1 0x4 PUSH1 0x0 DUP3 DUP2 MSTORE PUSH1 0x20 ADD SWAP1 DUP2 MSTORE PUSH1 0x20 ADD PUSH1 0x0 KECCAK256 PUSH1 0x6 ADD PUSH1 0x2 SWAP1 SLOAD SWAP1 PUSH2 0x100 EXP SWAP1 DIV PUSH1 0xFF AND ISZERO DUP1 ISZERO PUSH2 0x2C06 JUMPI POP PUSH1 0x4 PUSH1 0x0 DUP3 DUP2 MSTORE PUSH1 0x20 ADD SWAP1 DUP2 MSTORE PUSH1 0x20 ADD PUSH1 0x0 KECCAK256 PUSH1 0x6 ADD PUSH1 0x1 SWAP1 SLOAD SWAP1 PUSH2 0x100 EXP SWAP1 DIV PUSH1 0xFF AND ISZERO JUMPDEST ISZERO PUSH2 0x2E1F JUMPI PUSH1 0x40 MLOAD DUP1 PUSH2 0x100 ADD PUSH1 0x40 MSTORE DUP1 PUSH1 0x4 PUSH1 0x0 DUP5 DUP2 MSTORE PUSH1 0x20 ADD SWAP1 DUP2 MSTORE PUSH1 0x20 ADD PUSH1 0x0 KECCAK256 PUSH1 0x0 ADD SLOAD DUP2 MSTORE PUSH1 0x20 ADD PUSH1 0x4 PUSH1 0x0 DUP5 DUP2 MSTORE PUSH1 0x20 ADD SWAP1 DUP2 MSTORE PUSH1 0x20 ADD PUSH1 0x0 KECCAK256 PUSH1 0x1 ADD PUSH1 0x0 SWAP1 SLOAD SWAP1 PUSH2 0x100 EXP SWAP1 DIV PUSH20 0xFFFFFFFFFFFFFFFFFFFFFFFFFFFFFFFFFFFFFFFF AND PUSH20 0xFFFFFFFFFFFFFFFFFFFFFFFFFFFFFFFFFFFFFFFF AND DUP2 MSTORE PUSH1 0x20 ADD PUSH1 0x4 PUSH1 0x0 DUP5 DUP2 MSTORE PUSH1 0x20 ADD SWAP1 DUP2 MSTORE PUSH1 0x20 ADD PUSH1 0x0 KECCAK256 PUSH1 0x2 ADD DUP1 SLOAD PUSH2 0x2CA6 SWAP1 PUSH2 0x3B1D JUMP JUMPDEST DUP1 PUSH1 0x1F ADD PUSH1 0x20 DUP1 SWAP2 DIV MUL PUSH1 0x20 ADD PUSH1 0x40 MLOAD SWAP1 DUP2 ADD PUSH1 0x40 MSTORE DUP1 SWAP3 SWAP2 SWAP1 DUP2 DUP2 MSTORE PUSH1 0x20 ADD DUP3 DUP1 SLOAD PUSH2 0x2CD2 SWAP1 PUSH2 0x3B1D JUMP JUMPDEST DUP1 ISZERO PUSH2 0x2D1F JUMPI DUP1 PUSH1 0x1F LT PUSH2 0x2CF4 JUMPI PUSH2 0x100 DUP1 DUP4 SLOAD DIV MUL DUP4 MSTORE SWAP2 PUSH1 0x20 ADD SWAP2 PUSH2 0x2D1F JUMP JUMPDEST DUP3 ADD SWAP2 SWAP1 PUSH1 0x0 MSTORE PUSH1 0x20 PUSH1 0x0 KECCAK256 SWAP1 JUMPDEST DUP2 SLOAD DUP2 MSTORE SWAP1 PUSH1 0x1 ADD SWAP1 PUSH1 0x20 ADD DUP1 DUP4 GT PUSH2 0x2D02 JUMPI DUP3 SWAP1 SUB PUSH1 0x1F AND DUP3 ADD SWAP2 JUMPDEST POP POP POP POP POP DUP2 MSTORE PUSH1 0x20 ADD PUSH1 0x4 PUSH1 0x0 DUP5 DUP2 MSTORE PUSH1 0x20 ADD SWAP1 DUP2 MSTORE PUSH1 0x20 ADD PUSH1 0x0 KECCAK256 PUSH1 0x3 ADD SLOAD DUP2 MSTORE PUSH1 0x20 ADD PUSH1 0x4 PUSH1 0x0 DUP5 DUP2 MSTORE PUSH1 0x20 ADD SWAP1 DUP2 MSTORE PUSH1 0x20 ADD PUSH1 0x0 KECCAK256 PUSH1 0x5 ADD SLOAD PUSH1 0x4 PUSH1 0x0 DUP6 DUP2 MSTORE PUSH1 0x20 ADD SWAP1 DUP2 MSTORE PUSH1 0x20 ADD PUSH1 0x0 KECCAK256 PUSH1 0x4 ADD SLOAD PUSH2 0x2D7D SWAP2 SWAP1 PUSH2 0x42A1 JUMP JUMPDEST DUP2 MSTORE PUSH1 0x20 ADD PUSH1 0x4 PUSH1 0x0 DUP5 DUP2 MSTORE PUSH1 0x20 ADD SWAP1 DUP2 MSTORE PUSH1 0x20 ADD PUSH1 0x0 KECCAK256 PUSH1 0x5 ADD SLOAD DUP2 MSTORE PUSH1 0x20 ADD PUSH1 0x4 PUSH1 0x0 DUP5 DUP2 MSTORE PUSH1 0x20 ADD SWAP1 DUP2 MSTORE PUSH1 0x20 ADD PUSH1 0x0 KECCAK256 PUSH1 0x6 ADD PUSH1 0x2 SWAP1 SLOAD SWAP1 PUSH2 0x100 EXP SWAP1 DIV PUSH1 0xFF AND ISZERO ISZERO DUP2 MSTORE PUSH1 0x20 ADD PUSH1 0x4 PUSH1 0x0 DUP5 DUP2 MSTORE PUSH1 0x20 ADD SWAP1 DUP2 MSTORE PUSH1 0x20 ADD PUSH1 0x0 KECCAK256 PUSH1 0x6 ADD PUSH1 0x1 SWAP1 SLOAD SWAP1 PUSH2 0x100 EXP SWAP1 DIV PUSH1 0xFF AND ISZERO ISZERO DUP2 MSTORE POP DUP4 DUP4 DUP2 MLOAD DUP2 LT PUSH2 0x2E05 JUMPI PUSH2 0x2E04 PUSH2 0x3A1A JUMP JUMPDEST JUMPDEST PUSH1 0x20 MUL PUSH1 0x20 ADD ADD DUP2 SWAP1 MSTORE POP DUP2 DUP1 PUSH2 0x2E1B SWAP1 PUSH2 0x3E9F JUMP JUMPDEST SWAP3 POP POP JUMPDEST DUP1 DUP1 PUSH1 0x1 ADD SWAP2 POP POP PUSH2 0x2BAA JUMP JUMPDEST POP DUP2 SWAP4 POP POP POP POP SWAP1 JUMP JUMPDEST PUSH1 0x7 DUP2 DUP2 SLOAD DUP2 LT PUSH2 0x2E46 JUMPI PUSH1 0x0 DUP1 REVERT JUMPDEST SWAP1 PUSH1 0x0 MSTORE PUSH1 0x20 PUSH1 0x0 KECCAK256 ADD PUSH1 0x0 SWAP2 POP SLOAD SWAP1 PUSH2 0x100 EXP SWAP1 DIV PUSH20 0xFFFFFFFFFFFFFFFFFFFFFFFFFFFFFFFFFFFFFFFF AND DUP2 JUMP JUMPDEST PUSH1 0x6 PUSH1 0x0 CALLER PUSH20 0xFFFFFFFFFFFFFFFFFFFFFFFFFFFFFFFFFFFFFFFF AND PUSH20 0xFFFFFFFFFFFFFFFFFFFFFFFFFFFFFFFFFFFFFFFF AND DUP2 MSTORE PUSH1 0x20 ADD SWAP1 DUP2 MSTORE PUSH1 0x20 ADD PUSH1 0x0 KECCAK256 PUSH1 0x0 SWAP1 SLOAD SWAP1 PUSH2 0x100 EXP SWAP1 DIV PUSH1 0xFF AND ISZERO PUSH2 0x2F02 JUMPI PUSH1 0x40 MLOAD PUSH32 0x8C379A000000000000000000000000000000000000000000000000000000000 DUP2 MSTORE PUSH1 0x4 ADD PUSH2 0x2EF9 SWAP1 PUSH2 0x3C2C JUMP JUMPDEST PUSH1 0x40 MLOAD DUP1 SWAP2 SUB SWAP1 REVERT JUMPDEST PUSH1 0x0 PUSH1 0x8 PUSH1 0x0 DUP4 PUSH20 0xFFFFFFFFFFFFFFFFFFFFFFFFFFFFFFFFFFFFFFFF AND PUSH20 0xFFFFFFFFFFFFFFFFFFFFFFFFFFFFFFFFFFFFFFFF AND DUP2 MSTORE PUSH1 0x20 ADD SWAP1 DUP2 MSTORE PUSH1 0x20 ADD PUSH1 0x0 KECCAK256 SLOAD SWAP1 POP PUSH1 0x0 DUP2 GT PUSH2 0x2F89 JUMPI PUSH1 0x40 MLOAD PUSH32 0x8C379A000000000000000000000000000000000000000000000000000000000 DUP2 MSTORE PUSH1 0x4 ADD PUSH2 0x2F80 SWAP1 PUSH2 0x4746 JUMP JUMPDEST PUSH1 0x40 MLOAD DUP1 SWAP2 SUB SWAP1 REVERT JUMPDEST PUSH1 0x0 PUSH1 0x8 PUSH1 0x0 DUP5 PUSH20 0xFFFFFFFFFFFFFFFFFFFFFFFFFFFFFFFFFFFFFFFF AND PUSH20 0xFFFFFFFFFFFFFFFFFFFFFFFFFFFFFFFFFFFFFFFF AND DUP2 MSTORE PUSH1 0x20 ADD SWAP1 DUP2 MSTORE PUSH1 0x20 ADD PUSH1 0x0 KECCAK256 DUP2 SWAP1 SSTORE POP DUP2 PUSH20 0xFFFFFFFFFFFFFFFFFFFFFFFFFFFFFFFFFFFFFFFF AND PUSH2 0x8FC DUP3 SWAP1 DUP2 ISZERO MUL SWAP1 PUSH1 0x40 MLOAD PUSH1 0x0 PUSH1 0x40 MLOAD DUP1 DUP4 SUB DUP2 DUP6 DUP9 DUP9 CALL SWAP4 POP POP POP POP ISZERO DUP1 ISZERO PUSH2 0x3014 JUMPI RETURNDATASIZE PUSH1 0x0 DUP1 RETURNDATACOPY RETURNDATASIZE PUSH1 0x0 REVERT JUMPDEST POP PUSH32 0x8D40E9C27D77B658952CBAACAA582B75D323CE97D3904729B9674DDF5D5F13E DUP3 DUP3 PUSH1 0x40 MLOAD PUSH2 0x3046 SWAP3 SWAP2 SWAP1 PUSH2 0x4429 JUMP JUMPDEST PUSH1 0x40 MLOAD DUP1 SWAP2 SUB SWAP1 LOG1 POP POP JUMP JUMPDEST PUSH1 0x40 MLOAD DUP1 PUSH2 0x100 ADD PUSH1 0x40 MSTORE DUP1 PUSH1 0x0 DUP2 MSTORE PUSH1 0x20 ADD PUSH1 0x0 PUSH20 0xFFFFFFFFFFFFFFFFFFFFFFFFFFFFFFFFFFFFFFFF AND DUP2 MSTORE PUSH1 0x20 ADD PUSH1 0x60 DUP2 MSTORE PUSH1 0x20 ADD PUSH1 0x0 DUP2 MSTORE PUSH1 0x20 ADD PUSH1 0x0 DUP2 MSTORE PUSH1 0x20 ADD PUSH1 0x0 DUP2 MSTORE PUSH1 0x20 ADD PUSH1 0x0 ISZERO ISZERO DUP2 MSTORE PUSH1 0x20 ADD PUSH1 0x0 ISZERO ISZERO DUP2 MSTORE POP SWAP1 JUMP JUMPDEST PUSH1 0x0 PUSH1 0x40 MLOAD SWAP1 POP SWAP1 JUMP JUMPDEST PUSH1 0x0 DUP1 REVERT JUMPDEST PUSH1 0x0 DUP1 REVERT JUMPDEST PUSH1 0x0 DUP2 SWAP1 POP SWAP2 SWAP1 POP JUMP JUMPDEST PUSH2 0x30D8 DUP2 PUSH2 0x30C5 JUMP JUMPDEST DUP2 EQ PUSH2 0x30E3 JUMPI PUSH1 0x0 DUP1 REVERT JUMPDEST POP JUMP JUMPDEST PUSH1 0x0 DUP2 CALLDATALOAD SWAP1 POP PUSH2 0x30F5 DUP2 PUSH2 0x30CF JUMP JUMPDEST SWAP3 SWAP2 POP POP JUMP JUMPDEST PUSH1 0x0 PUSH1 0x20 DUP3 DUP5 SUB SLT ISZERO PUSH2 0x3111 JUMPI PUSH2 0x3110 PUSH2 0x30BB JUMP JUMPDEST JUMPDEST PUSH1 0x0 PUSH2 0x311F DUP5 DUP3 DUP6 ADD PUSH2 0x30E6 JUMP JUMPDEST SWAP2 POP POP SWAP3 SWAP2 POP POP JUMP JUMPDEST PUSH2 0x3131 DUP2 PUSH2 0x30C5 JUMP JUMPDEST DUP3 MSTORE POP POP JUMP JUMPDEST PUSH1 0x0 PUSH20 0xFFFFFFFFFFFFFFFFFFFFFFFFFFFFFFFFFFFFFFFF DUP3 AND SWAP1 POP SWAP2 SWAP1 POP JUMP JUMPDEST PUSH1 0x0 PUSH2 0x3162 DUP3 PUSH2 0x3137 JUMP JUMPDEST SWAP1 POP SWAP2 SWAP1 POP JUMP JUMPDEST PUSH2 0x3172 DUP2 PUSH2 0x3157 JUMP JUMPDEST DUP3 MSTORE POP POP JUMP JUMPDEST PUSH1 0x0 DUP2 MLOAD SWAP1 POP SWAP2 SWAP1 POP JUMP JUMPDEST PUSH1 0x0 DUP3 DUP3 MSTORE PUSH1 0x20 DUP3 ADD SWAP1 POP SWAP3 SWAP2 POP POP JUMP JUMPDEST PUSH1 0x0 JUMPDEST DUP4 DUP2 LT ISZERO PUSH2 0x31B2 JUMPI DUP1 DUP3 ADD MLOAD DUP2 DUP5 ADD MSTORE PUSH1 0x20 DUP2 ADD SWAP1 POP PUSH2 0x3197 JUMP JUMPDEST PUSH1 0x0 DUP5 DUP5 ADD MSTORE POP POP POP POP JUMP JUMPDEST PUSH1 0x0 PUSH1 0x1F NOT PUSH1 0x1F DUP4 ADD AND SWAP1 POP SWAP2 SWAP1 POP JUMP JUMPDEST PUSH1 0x0 PUSH2 0x31DA DUP3 PUSH2 0x3178 JUMP JUMPDEST PUSH2 0x31E4 DUP2 DUP6 PUSH2 0x3183 JUMP JUMPDEST SWAP4 POP PUSH2 0x31F4 DUP2 DUP6 PUSH1 0x20 DUP7 ADD PUSH2 0x3194 JUMP JUMPDEST PUSH2 0x31FD DUP2 PUSH2 0x31BE JUMP JUMPDEST DUP5 ADD SWAP2 POP POP SWAP3 SWAP2 POP POP JUMP JUMPDEST PUSH1 0x0 DUP2 ISZERO ISZERO SWAP1 POP SWAP2 SWAP1 POP JUMP JUMPDEST PUSH2 0x321D DUP2 PUSH2 0x3208 JUMP JUMPDEST DUP3 MSTORE POP POP JUMP JUMPDEST PUSH1 0x0 PUSH2 0x120 DUP3 ADD SWAP1 POP PUSH2 0x3239 PUSH1 0x0 DUP4 ADD DUP13 PUSH2 0x3128 JUMP JUMPDEST PUSH2 0x3246 PUSH1 0x20 DUP4 ADD DUP12 PUSH2 0x3169 JUMP JUMPDEST DUP2 DUP2 SUB PUSH1 0x40 DUP4 ADD MSTORE PUSH2 0x3258 DUP2 DUP11 PUSH2 0x31CF JUMP JUMPDEST SWAP1 POP PUSH2 0x3267 PUSH1 0x60 DUP4 ADD DUP10 PUSH2 0x3128 JUMP JUMPDEST PUSH2 0x3274 PUSH1 0x80 DUP4 ADD DUP9 PUSH2 0x3128 JUMP JUMPDEST PUSH2 0x3281 PUSH1 0xA0 DUP4 ADD DUP8 PUSH2 0x3128 JUMP JUMPDEST PUSH2 0x328E PUSH1 0xC0 DUP4 ADD DUP7 PUSH2 0x3214 JUMP JUMPDEST PUSH2 0x329B PUSH1 0xE0 DUP4 ADD DUP6 PUSH2 0x3214 JUMP JUMPDEST PUSH2 0x32A9 PUSH2 0x100 DUP4 ADD DUP5 PUSH2 0x3214 JUMP JUMPDEST SWAP11 SWAP10 POP POP POP POP POP POP POP POP POP POP JUMP JUMPDEST PUSH1 0x0 DUP1 PUSH1 0x40 DUP4 DUP6 SUB SLT ISZERO PUSH2 0x32CE JUMPI PUSH2 0x32CD PUSH2 0x30BB JUMP JUMPDEST JUMPDEST PUSH1 0x0 PUSH2 0x32DC DUP6 DUP3 DUP7 ADD PUSH2 0x30E6 JUMP JUMPDEST SWAP3 POP POP PUSH1 0x20 PUSH2 0x32ED DUP6 DUP3 DUP7 ADD PUSH2 0x30E6 JUMP JUMPDEST SWAP2 POP POP SWAP3 POP SWAP3 SWAP1 POP JUMP JUMPDEST PUSH2 0x3300 DUP2 PUSH2 0x3157 JUMP JUMPDEST DUP2 EQ PUSH2 0x330B JUMPI PUSH1 0x0 DUP1 REVERT JUMPDEST POP JUMP JUMPDEST PUSH1 0x0 DUP2 CALLDATALOAD SWAP1 POP PUSH2 0x331D DUP2 PUSH2 0x32F7 JUMP JUMPDEST SWAP3 SWAP2 POP POP JUMP JUMPDEST PUSH1 0x0 PUSH1 0x20 DUP3 DUP5 SUB SLT ISZERO PUSH2 0x3339 JUMPI PUSH2 0x3338 PUSH2 0x30BB JUMP JUMPDEST JUMPDEST PUSH1 0x0 PUSH2 0x3347 DUP5 DUP3 DUP6 ADD PUSH2 0x330E JUMP JUMPDEST SWAP2 POP POP SWAP3 SWAP2 POP POP JUMP JUMPDEST PUSH1 0x0 DUP2 MLOAD SWAP1 POP SWAP2 SWAP1 POP JUMP JUMPDEST PUSH1 0x0 DUP3 DUP3 MSTORE PUSH1 0x20 DUP3 ADD SWAP1 POP SWAP3 SWAP2 POP POP JUMP JUMPDEST PUSH1 0x0 DUP2 SWAP1 POP PUSH1 0x20 DUP3 ADD SWAP1 POP SWAP2 SWAP1 POP JUMP JUMPDEST PUSH2 0x3385 DUP2 PUSH2 0x30C5 JUMP JUMPDEST DUP3 MSTORE POP POP JUMP JUMPDEST PUSH1 0x0 PUSH2 0x3397 DUP4 DUP4 PUSH2 0x337C JUMP JUMPDEST PUSH1 0x20 DUP4 ADD SWAP1 POP SWAP3 SWAP2 POP POP JUMP JUMPDEST PUSH1 0x0 PUSH1 0x20 DUP3 ADD SWAP1 POP SWAP2 SWAP1 POP JUMP JUMPDEST PUSH1 0x0 PUSH2 0x33BB DUP3 PUSH2 0x3350 JUMP JUMPDEST PUSH2 0x33C5 DUP2 DUP6 PUSH2 0x335B JUMP JUMPDEST SWAP4 POP PUSH2 0x33D0 DUP4 PUSH2 0x336C JUMP JUMPDEST DUP1 PUSH1 0x0 JUMPDEST DUP4 DUP2 LT ISZERO PUSH2 0x3401 JUMPI DUP2 MLOAD PUSH2 0x33E8 DUP9 DUP3 PUSH2 0x338B JUMP JUMPDEST SWAP8 POP PUSH2 0x33F3 DUP4 PUSH2 0x33A3 JUMP JUMPDEST SWAP3 POP POP PUSH1 0x1 DUP2 ADD SWAP1 POP PUSH2 0x33D4 JUMP JUMPDEST POP DUP6 SWAP4 POP POP POP POP SWAP3 SWAP2 POP POP JUMP JUMPDEST PUSH1 0x0 PUSH1 0x40 DUP3 ADD SWAP1 POP DUP2 DUP2 SUB PUSH1 0x0 DUP4 ADD MSTORE PUSH2 0x3428 DUP2 DUP6 PUSH2 0x33B0 JUMP JUMPDEST SWAP1 POP DUP2 DUP2 SUB PUSH1 0x20 DUP4 ADD MSTORE PUSH2 0x343C DUP2 DUP5 PUSH2 0x33B0 JUMP JUMPDEST SWAP1 POP SWAP4 SWAP3 POP POP POP JUMP JUMPDEST PUSH1 0x0 DUP1 REVERT JUMPDEST PUSH1 0x0 DUP1 REVERT JUMPDEST PUSH32 0x4E487B7100000000000000000000000000000000000000000000000000000000 PUSH1 0x0 MSTORE PUSH1 0x41 PUSH1 0x4 MSTORE PUSH1 0x24 PUSH1 0x0 REVERT JUMPDEST PUSH2 0x3487 DUP3 PUSH2 0x31BE JUMP JUMPDEST DUP2 ADD DUP2 DUP2 LT PUSH8 0xFFFFFFFFFFFFFFFF DUP3 GT OR ISZERO PUSH2 0x34A6 JUMPI PUSH2 0x34A5 PUSH2 0x344F JUMP JUMPDEST JUMPDEST DUP1 PUSH1 0x40 MSTORE POP POP POP JUMP JUMPDEST PUSH1 0x0 PUSH2 0x34B9 PUSH2 0x30B1 JUMP JUMPDEST SWAP1 POP PUSH2 0x34C5 DUP3 DUP3 PUSH2 0x347E JUMP JUMPDEST SWAP2 SWAP1 POP JUMP JUMPDEST PUSH1 0x0 PUSH8 0xFFFFFFFFFFFFFFFF DUP3 GT ISZERO PUSH2 0x34E5 JUMPI PUSH2 0x34E4 PUSH2 0x344F JUMP JUMPDEST JUMPDEST PUSH2 0x34EE DUP3 PUSH2 0x31BE JUMP JUMPDEST SWAP1 POP PUSH1 0x20 DUP2 ADD SWAP1 POP SWAP2 SWAP1 POP JUMP JUMPDEST DUP3 DUP2 DUP4 CALLDATACOPY PUSH1 0x0 DUP4 DUP4 ADD MSTORE POP POP POP JUMP JUMPDEST PUSH1 0x0 PUSH2 0x351D PUSH2 0x3518 DUP5 PUSH2 0x34CA JUMP JUMPDEST PUSH2 0x34AF JUMP JUMPDEST SWAP1 POP DUP3 DUP2 MSTORE PUSH1 0x20 DUP2 ADD DUP5 DUP5 DUP5 ADD GT ISZERO PUSH2 0x3539 JUMPI PUSH2 0x3538 PUSH2 0x344A JUMP JUMPDEST JUMPDEST PUSH2 0x3544 DUP5 DUP3 DUP6 PUSH2 0x34FB JUMP JUMPDEST POP SWAP4 SWAP3 POP POP POP JUMP JUMPDEST PUSH1 0x0 DUP3 PUSH1 0x1F DUP4 ADD SLT PUSH2 0x3561 JUMPI PUSH2 0x3560 PUSH2 0x3445 JUMP JUMPDEST JUMPDEST DUP2 CALLDATALOAD PUSH2 0x3571 DUP5 DUP3 PUSH1 0x20 DUP7 ADD PUSH2 0x350A JUMP JUMPDEST SWAP2 POP POP SWAP3 SWAP2 POP POP JUMP JUMPDEST PUSH1 0x0 DUP1 PUSH1 0x0 PUSH1 0x60 DUP5 DUP7 SUB SLT ISZERO PUSH2 0x3593 JUMPI PUSH2 0x3592 PUSH2 0x30BB JUMP JUMPDEST JUMPDEST PUSH1 0x0 DUP5 ADD CALLDATALOAD PUSH8 0xFFFFFFFFFFFFFFFF DUP2 GT ISZERO PUSH2 0x35B1 JUMPI PUSH2 0x35B0 PUSH2 0x30C0 JUMP JUMPDEST JUMPDEST PUSH2 0x35BD DUP7 DUP3 DUP8 ADD PUSH2 0x354C JUMP JUMPDEST SWAP4 POP POP PUSH1 0x20 PUSH2 0x35CE DUP7 DUP3 DUP8 ADD PUSH2 0x30E6 JUMP JUMPDEST SWAP3 POP POP PUSH1 0x40 PUSH2 0x35DF DUP7 DUP3 DUP8 ADD PUSH2 0x30E6 JUMP JUMPDEST SWAP2 POP POP SWAP3 POP SWAP3 POP SWAP3 JUMP JUMPDEST PUSH1 0x0 DUP2 MLOAD SWAP1 POP SWAP2 SWAP1 POP JUMP JUMPDEST PUSH1 0x0 DUP3 DUP3 MSTORE PUSH1 0x20 DUP3 ADD SWAP1 POP SWAP3 SWAP2 POP POP JUMP JUMPDEST PUSH1 0x0 DUP2 SWAP1 POP PUSH1 0x20 DUP3 ADD SWAP1 POP SWAP2 SWAP1 POP JUMP JUMPDEST PUSH2 0x361E DUP2 PUSH2 0x3157 JUMP JUMPDEST DUP3 MSTORE POP POP JUMP JUMPDEST PUSH1 0x0 DUP3 DUP3 MSTORE PUSH1 0x20 DUP3 ADD SWAP1 POP SWAP3 SWAP2 POP POP JUMP JUMPDEST PUSH1 0x0 PUSH2 0x3640 DUP3 PUSH2 0x3178 JUMP JUMPDEST PUSH2 0x364A DUP2 DUP6 PUSH2 0x3624 JUMP JUMPDEST SWAP4 POP PUSH2 0x365A DUP2 DUP6 PUSH1 0x20 DUP7 ADD PUSH2 0x3194 JUMP JUMPDEST PUSH2 0x3663 DUP2 PUSH2 0x31BE JUMP JUMPDEST DUP5 ADD SWAP2 POP POP SWAP3 SWAP2 POP POP JUMP JUMPDEST PUSH2 0x3677 DUP2 PUSH2 0x3208 JUMP JUMPDEST DUP3 MSTORE POP POP JUMP JUMPDEST PUSH1 0x0 PUSH2 0x100 DUP4 ADD PUSH1 0x0 DUP4 ADD MLOAD PUSH2 0x3696 PUSH1 0x0 DUP7 ADD DUP3 PUSH2 0x337C JUMP JUMPDEST POP PUSH1 0x20 DUP4 ADD MLOAD PUSH2 0x36A9 PUSH1 0x20 DUP7 ADD DUP3 PUSH2 0x3615 JUMP JUMPDEST POP PUSH1 0x40 DUP4 ADD MLOAD DUP5 DUP3 SUB PUSH1 0x40 DUP7 ADD MSTORE PUSH2 0x36C1 DUP3 DUP3 PUSH2 0x3635 JUMP JUMPDEST SWAP2 POP POP PUSH1 0x60 DUP4 ADD MLOAD PUSH2 0x36D6 PUSH1 0x60 DUP7 ADD DUP3 PUSH2 0x337C JUMP JUMPDEST POP PUSH1 0x80 DUP4 ADD MLOAD PUSH2 0x36E9 PUSH1 0x80 DUP7 ADD DUP3 PUSH2 0x337C JUMP JUMPDEST POP PUSH1 0xA0 DUP4 ADD MLOAD PUSH2 0x36FC PUSH1 0xA0 DUP7 ADD DUP3 PUSH2 0x337C JUMP JUMPDEST POP PUSH1 0xC0 DUP4 ADD MLOAD PUSH2 0x370F PUSH1 0xC0 DUP7 ADD DUP3 PUSH2 0x366E JUMP JUMPDEST POP PUSH1 0xE0 DUP4 ADD MLOAD PUSH2 0x3722 PUSH1 0xE0 DUP7 ADD DUP3 PUSH2 0x366E JUMP JUMPDEST POP DUP1 SWAP2 POP POP SWAP3 SWAP2 POP POP JUMP JUMPDEST PUSH1 0x0 PUSH2 0x3739 DUP4 DUP4 PUSH2 0x367D JUMP JUMPDEST SWAP1 POP SWAP3 SWAP2 POP POP JUMP JUMPDEST PUSH1 0x0 PUSH1 0x20 DUP3 ADD SWAP1 POP SWAP2 SWAP1 POP JUMP JUMPDEST PUSH1 0x0 PUSH2 0x3759 DUP3 PUSH2 0x35E9 JUMP JUMPDEST PUSH2 0x3763 DUP2 DUP6 PUSH2 0x35F4 JUMP JUMPDEST SWAP4 POP DUP4 PUSH1 0x20 DUP3 MUL DUP6 ADD PUSH2 0x3775 DUP6 PUSH2 0x3605 JUMP JUMPDEST DUP1 PUSH1 0x0 JUMPDEST DUP6 DUP2 LT ISZERO PUSH2 0x37B1 JUMPI DUP5 DUP5 SUB DUP10 MSTORE DUP2 MLOAD PUSH2 0x3792 DUP6 DUP3 PUSH2 0x372D JUMP JUMPDEST SWAP5 POP PUSH2 0x379D DUP4 PUSH2 0x3741 JUMP JUMPDEST SWAP3 POP PUSH1 0x20 DUP11 ADD SWAP10 POP POP PUSH1 0x1 DUP2 ADD SWAP1 POP PUSH2 0x3779 JUMP JUMPDEST POP DUP3 SWAP8 POP DUP8 SWAP6 POP POP POP POP POP POP SWAP3 SWAP2 POP POP JUMP JUMPDEST PUSH1 0x0 PUSH1 0x20 DUP3 ADD SWAP1 POP DUP2 DUP2 SUB PUSH1 0x0 DUP4 ADD MSTORE PUSH2 0x37DD DUP2 DUP5 PUSH2 0x374E JUMP JUMPDEST SWAP1 POP SWAP3 SWAP2 POP POP JUMP JUMPDEST PUSH1 0x0 PUSH1 0x20 DUP3 ADD SWAP1 POP PUSH2 0x37FA PUSH1 0x0 DUP4 ADD DUP5 PUSH2 0x3128 JUMP JUMPDEST SWAP3 SWAP2 POP POP JUMP JUMPDEST PUSH1 0x0 PUSH1 0x20 DUP3 ADD SWAP1 POP PUSH2 0x3815 PUSH1 0x0 DUP4 ADD DUP5 PUSH2 0x3169 JUMP JUMPDEST SWAP3 SWAP2 POP POP JUMP JUMPDEST PUSH1 0x0 DUP2 MLOAD SWAP1 POP SWAP2 SWAP1 POP JUMP JUMPDEST PUSH1 0x0 DUP3 DUP3 MSTORE PUSH1 0x20 DUP3 ADD SWAP1 POP SWAP3 SWAP2 POP POP JUMP JUMPDEST PUSH1 0x0 DUP2 SWAP1 POP PUSH1 0x20 DUP3 ADD SWAP1 POP SWAP2 SWAP1 POP JUMP JUMPDEST PUSH1 0x0 PUSH2 0x3853 DUP4 DUP4 PUSH2 0x3615 JUMP JUMPDEST PUSH1 0x20 DUP4 ADD SWAP1 POP SWAP3 SWAP2 POP POP JUMP JUMPDEST PUSH1 0x0 PUSH1 0x20 DUP3 ADD SWAP1 POP SWAP2 SWAP1 POP JUMP JUMPDEST PUSH1 0x0 PUSH2 0x3877 DUP3 PUSH2 0x381B JUMP JUMPDEST PUSH2 0x3881 DUP2 DUP6 PUSH2 0x3826 JUMP JUMPDEST SWAP4 POP PUSH2 0x388C DUP4 PUSH2 0x3837 JUMP JUMPDEST DUP1 PUSH1 0x0 JUMPDEST DUP4 DUP2 LT ISZERO PUSH2 0x38BD JUMPI DUP2 MLOAD PUSH2 0x38A4 DUP9 DUP3 PUSH2 0x3847 JUMP JUMPDEST SWAP8 POP PUSH2 0x38AF DUP4 PUSH2 0x385F JUMP JUMPDEST SWAP3 POP POP PUSH1 0x1 DUP2 ADD SWAP1 POP PUSH2 0x3890 JUMP JUMPDEST POP DUP6 SWAP4 POP POP POP POP SWAP3 SWAP2 POP POP JUMP JUMPDEST PUSH1 0x0 PUSH1 0x40 DUP3 ADD SWAP1 POP DUP2 DUP2 SUB PUSH1 0x0 DUP4 ADD MSTORE PUSH2 0x38E4 DUP2 DUP6 PUSH2 0x386C JUMP JUMPDEST SWAP1 POP DUP2 DUP2 SUB PUSH1 0x20 DUP4 ADD MSTORE PUSH2 0x38F8 DUP2 DUP5 PUSH2 0x33B0 JUMP JUMPDEST SWAP1 POP SWAP4 SWAP3 POP POP POP JUMP JUMPDEST PUSH1 0x0 PUSH1 0x20 DUP3 ADD SWAP1 POP PUSH2 0x3916 PUSH1 0x0 DUP4 ADD DUP5 PUSH2 0x3214 JUMP JUMPDEST SWAP3 SWAP2 POP POP JUMP JUMPDEST PUSH32 0x4F6E6C792074686520636F6E7472616374206F776E65722063616E2065786563 PUSH1 0x0 DUP3 ADD MSTORE PUSH32 0x7574652074686973000000000000000000000000000000000000000000000000 PUSH1 0x20 DUP3 ADD MSTORE POP JUMP JUMPDEST PUSH1 0x0 PUSH2 0x3978 PUSH1 0x28 DUP4 PUSH2 0x3183 JUMP JUMPDEST SWAP2 POP PUSH2 0x3983 DUP3 PUSH2 0x391C JUMP JUMPDEST PUSH1 0x40 DUP3 ADD SWAP1 POP SWAP2 SWAP1 POP JUMP JUMPDEST PUSH1 0x0 PUSH1 0x20 DUP3 ADD SWAP1 POP DUP2 DUP2 SUB PUSH1 0x0 DUP4 ADD MSTORE PUSH2 0x39A7 DUP2 PUSH2 0x396B JUMP JUMPDEST SWAP1 POP SWAP2 SWAP1 POP JUMP JUMPDEST PUSH32 0x436F6E7472616374206973206E6F742061637469766500000000000000000000 PUSH1 0x0 DUP3 ADD MSTORE POP JUMP JUMPDEST PUSH1 0x0 PUSH2 0x39E4 PUSH1 0x16 DUP4 PUSH2 0x3183 JUMP JUMPDEST SWAP2 POP PUSH2 0x39EF DUP3 PUSH2 0x39AE JUMP JUMPDEST PUSH1 0x20 DUP3 ADD SWAP1 POP SWAP2 SWAP1 POP JUMP JUMPDEST PUSH1 0x0 PUSH1 0x20 DUP3 ADD SWAP1 POP DUP2 DUP2 SUB PUSH1 0x0 DUP4 ADD MSTORE PUSH2 0x3A13 DUP2 PUSH2 0x39D7 JUMP JUMPDEST SWAP1 POP SWAP2 SWAP1 POP JUMP JUMPDEST PUSH32 0x4E487B7100000000000000000000000000000000000000000000000000000000 PUSH1 0x0 MSTORE PUSH1 0x32 PUSH1 0x4 MSTORE PUSH1 0x24 PUSH1 0x0 REVERT JUMPDEST PUSH32 0x4E487B7100000000000000000000000000000000000000000000000000000000 PUSH1 0x0 MSTORE PUSH1 0x11 PUSH1 0x4 MSTORE PUSH1 0x24 PUSH1 0x0 REVERT JUMPDEST PUSH1 0x0 PUSH2 0x3A83 DUP3 PUSH2 0x30C5 JUMP JUMPDEST SWAP2 POP PUSH2 0x3A8E DUP4 PUSH2 0x30C5 JUMP JUMPDEST SWAP3 POP DUP3 DUP3 MUL PUSH2 0x3A9C DUP2 PUSH2 0x30C5 JUMP JUMPDEST SWAP2 POP DUP3 DUP3 DIV DUP5 EQ DUP4 ISZERO OR PUSH2 0x3AB3 JUMPI PUSH2 0x3AB2 PUSH2 0x3A49 JUMP JUMPDEST JUMPDEST POP SWAP3 SWAP2 POP POP JUMP JUMPDEST PUSH1 0x0 PUSH2 0x3AC5 DUP3 PUSH2 0x30C5 JUMP JUMPDEST SWAP2 POP PUSH2 0x3AD0 DUP4 PUSH2 0x30C5 JUMP JUMPDEST SWAP3 POP DUP3 DUP3 ADD SWAP1 POP DUP1 DUP3 GT ISZERO PUSH2 0x3AE8 JUMPI PUSH2 0x3AE7 PUSH2 0x3A49 JUMP JUMPDEST JUMPDEST SWAP3 SWAP2 POP POP JUMP JUMPDEST PUSH32 0x4E487B7100000000000000000000000000000000000000000000000000000000 PUSH1 0x0 MSTORE PUSH1 0x22 PUSH1 0x4 MSTORE PUSH1 0x24 PUSH1 0x0 REVERT JUMPDEST PUSH1 0x0 PUSH1 0x2 DUP3 DIV SWAP1 POP PUSH1 0x1 DUP3 AND DUP1 PUSH2 0x3B35 JUMPI PUSH1 0x7F DUP3 AND SWAP2 POP JUMPDEST PUSH1 0x20 DUP3 LT DUP2 SUB PUSH2 0x3B48 JUMPI PUSH2 0x3B47 PUSH2 0x3AEE JUMP JUMPDEST JUMPDEST POP SWAP2 SWAP1 POP JUMP JUMPDEST PUSH32 0x54686520636F6E7472616374206F776E65722063616E277420706572666F726D PUSH1 0x0 DUP3 ADD MSTORE PUSH32 0x206675727468657220616374696F6E7300000000000000000000000000000000 PUSH1 0x20 DUP3 ADD MSTORE POP JUMP JUMPDEST PUSH1 0x0 PUSH2 0x3BAA PUSH1 0x30 DUP4 PUSH2 0x3183 JUMP JUMPDEST SWAP2 POP PUSH2 0x3BB5 DUP3 PUSH2 0x3B4E JUMP JUMPDEST PUSH1 0x40 DUP3 ADD SWAP1 POP SWAP2 SWAP1 POP JUMP JUMPDEST PUSH1 0x0 PUSH1 0x20 DUP3 ADD SWAP1 POP DUP2 DUP2 SUB PUSH1 0x0 DUP4 ADD MSTORE PUSH2 0x3BD9 DUP2 PUSH2 0x3B9D JUMP JUMPDEST SWAP1 POP SWAP2 SWAP1 POP JUMP JUMPDEST PUSH32 0x416464726573732069732062616E6E6564000000000000000000000000000000 PUSH1 0x0 DUP3 ADD MSTORE POP JUMP JUMPDEST PUSH1 0x0 PUSH2 0x3C16 PUSH1 0x11 DUP4 PUSH2 0x3183 JUMP JUMPDEST SWAP2 POP PUSH2 0x3C21 DUP3 PUSH2 0x3BE0 JUMP JUMPDEST PUSH1 0x20 DUP3 ADD SWAP1 POP SWAP2 SWAP1 POP JUMP JUMPDEST PUSH1 0x0 PUSH1 0x20 DUP3 ADD SWAP1 POP DUP2 DUP2 SUB PUSH1 0x0 DUP4 ADD MSTORE PUSH2 0x3C45 DUP2 PUSH2 0x3C09 JUMP JUMPDEST SWAP1 POP SWAP2 SWAP1 POP JUMP JUMPDEST PUSH32 0x43616D706169676E206973206E6F742061637469766500000000000000000000 PUSH1 0x0 DUP3 ADD MSTORE POP JUMP JUMPDEST PUSH1 0x0 PUSH2 0x3C82 PUSH1 0x16 DUP4 PUSH2 0x3183 JUMP JUMPDEST SWAP2 POP PUSH2 0x3C8D DUP3 PUSH2 0x3C4C JUMP JUMPDEST PUSH1 0x20 DUP3 ADD SWAP1 POP SWAP2 SWAP1 POP JUMP JUMPDEST PUSH1 0x0 PUSH1 0x20 DUP3 ADD SWAP1 POP DUP2 DUP2 SUB PUSH1 0x0 DUP4 ADD MSTORE PUSH2 0x3CB1 DUP2 PUSH2 0x3C75 JUMP JUMPDEST SWAP1 POP SWAP2 SWAP1 POP JUMP JUMPDEST PUSH32 0x43616D706169676E2069732063616E63656C6C65640000000000000000000000 PUSH1 0x0 DUP3 ADD MSTORE POP JUMP JUMPDEST PUSH1 0x0 PUSH2 0x3CEE PUSH1 0x15 DUP4 PUSH2 0x3183 JUMP JUMPDEST SWAP2 POP PUSH2 0x3CF9 DUP3 PUSH2 0x3CB8 JUMP JUMPDEST PUSH1 0x20 DUP3 ADD SWAP1 POP SWAP2 SWAP1 POP JUMP JUMPDEST PUSH1 0x0 PUSH1 0x20 DUP3 ADD SWAP1 POP DUP2 DUP2 SUB PUSH1 0x0 DUP4 ADD MSTORE PUSH2 0x3D1D DUP2 PUSH2 0x3CE1 JUMP JUMPDEST SWAP1 POP SWAP2 SWAP1 POP JUMP JUMPDEST PUSH32 0x43616D706169676E20697320616C726561647920636F6D706C65746564000000 PUSH1 0x0 DUP3 ADD MSTORE POP JUMP JUMPDEST PUSH1 0x0 PUSH2 0x3D5A PUSH1 0x1D DUP4 PUSH2 0x3183 JUMP JUMPDEST SWAP2 POP PUSH2 0x3D65 DUP3 PUSH2 0x3D24 JUMP JUMPDEST PUSH1 0x20 DUP3 ADD SWAP1 POP SWAP2 SWAP1 POP JUMP JUMPDEST PUSH1 0x0 PUSH1 0x20 DUP3 ADD SWAP1 POP DUP2 DUP2 SUB PUSH1 0x0 DUP4 ADD MSTORE PUSH2 0x3D89 DUP2 PUSH2 0x3D4D JUMP JUMPDEST SWAP1 POP SWAP2 SWAP1 POP JUMP JUMPDEST PUSH32 0x54686520656E7472657072656E6575722063616E27742066756E640000000000 PUSH1 0x0 DUP3 ADD MSTORE POP JUMP JUMPDEST PUSH1 0x0 PUSH2 0x3DC6 PUSH1 0x1B DUP4 PUSH2 0x3183 JUMP JUMPDEST SWAP2 POP PUSH2 0x3DD1 DUP3 PUSH2 0x3D90 JUMP JUMPDEST PUSH1 0x20 DUP3 ADD SWAP1 POP SWAP2 SWAP1 POP JUMP JUMPDEST PUSH1 0x0 PUSH1 0x20 DUP3 ADD SWAP1 POP DUP2 DUP2 SUB PUSH1 0x0 DUP4 ADD MSTORE PUSH2 0x3DF5 DUP2 PUSH2 0x3DB9 JUMP JUMPDEST SWAP1 POP SWAP2 SWAP1 POP JUMP JUMPDEST PUSH32 0x496E636F7272656374205765692076616C75652073656E740000000000000000 PUSH1 0x0 DUP3 ADD MSTORE POP JUMP JUMPDEST PUSH1 0x0 PUSH2 0x3E32 PUSH1 0x18 DUP4 PUSH2 0x3183 JUMP JUMPDEST SWAP2 POP PUSH2 0x3E3D DUP3 PUSH2 0x3DFC JUMP JUMPDEST PUSH1 0x20 DUP3 ADD SWAP1 POP SWAP2 SWAP1 POP JUMP JUMPDEST PUSH1 0x0 PUSH1 0x20 DUP3 ADD SWAP1 POP DUP2 DUP2 SUB PUSH1 0x0 DUP4 ADD MSTORE PUSH2 0x3E61 DUP2 PUSH2 0x3E25 JUMP JUMPDEST SWAP1 POP SWAP2 SWAP1 POP JUMP JUMPDEST PUSH1 0x0 PUSH1 0x60 DUP3 ADD SWAP1 POP PUSH2 0x3E7D PUSH1 0x0 DUP4 ADD DUP7 PUSH2 0x3128 JUMP JUMPDEST PUSH2 0x3E8A PUSH1 0x20 DUP4 ADD DUP6 PUSH2 0x3169 JUMP JUMPDEST PUSH2 0x3E97 PUSH1 0x40 DUP4 ADD DUP5 PUSH2 0x3128 JUMP JUMPDEST SWAP5 SWAP4 POP POP POP POP JUMP JUMPDEST PUSH1 0x0 PUSH2 0x3EAA DUP3 PUSH2 0x30C5 JUMP JUMPDEST SWAP2 POP PUSH32 0xFFFFFFFFFFFFFFFFFFFFFFFFFFFFFFFFFFFFFFFFFFFFFFFFFFFFFFFFFFFFFFFF DUP3 SUB PUSH2 0x3EDC JUMPI PUSH2 0x3EDB PUSH2 0x3A49 JUMP JUMPDEST JUMPDEST PUSH1 0x1 DUP3 ADD SWAP1 POP SWAP2 SWAP1 POP JUMP JUMPDEST PUSH32 0x496E636F72726563742063616D706169676E2066656500000000000000000000 PUSH1 0x0 DUP3 ADD MSTORE POP JUMP JUMPDEST PUSH1 0x0 PUSH2 0x3F1D PUSH1 0x16 DUP4 PUSH2 0x3183 JUMP JUMPDEST SWAP2 POP PUSH2 0x3F28 DUP3 PUSH2 0x3EE7 JUMP JUMPDEST PUSH1 0x20 DUP3 ADD SWAP1 POP SWAP2 SWAP1 POP JUMP JUMPDEST PUSH1 0x0 PUSH1 0x20 DUP3 ADD SWAP1 POP DUP2 DUP2 SUB PUSH1 0x0 DUP4 ADD MSTORE PUSH2 0x3F4C DUP2 PUSH2 0x3F10 JUMP JUMPDEST SWAP1 POP SWAP2 SWAP1 POP JUMP JUMPDEST PUSH32 0x546F74616C20736861726573206D757374206265206772656174657220746861 PUSH1 0x0 DUP3 ADD MSTORE PUSH32 0x6E207A65726F0000000000000000000000000000000000000000000000000000 PUSH1 0x20 DUP3 ADD MSTORE POP JUMP JUMPDEST PUSH1 0x0 PUSH2 0x3FAF PUSH1 0x26 DUP4 PUSH2 0x3183 JUMP JUMPDEST SWAP2 POP PUSH2 0x3FBA DUP3 PUSH2 0x3F53 JUMP JUMPDEST PUSH1 0x40 DUP3 ADD SWAP1 POP SWAP2 SWAP1 POP JUMP JUMPDEST PUSH1 0x0 PUSH1 0x20 DUP3 ADD SWAP1 POP DUP2 DUP2 SUB PUSH1 0x0 DUP4 ADD MSTORE PUSH2 0x3FDE DUP2 PUSH2 0x3FA2 JUMP JUMPDEST SWAP1 POP SWAP2 SWAP1 POP JUMP JUMPDEST PUSH1 0x0 DUP2 SWAP1 POP DUP2 PUSH1 0x0 MSTORE PUSH1 0x20 PUSH1 0x0 KECCAK256 SWAP1 POP SWAP2 SWAP1 POP JUMP JUMPDEST PUSH1 0x0 PUSH1 0x20 PUSH1 0x1F DUP4 ADD DIV SWAP1 POP SWAP2 SWAP1 POP JUMP JUMPDEST PUSH1 0x0 DUP3 DUP3 SHL SWAP1 POP SWAP3 SWAP2 POP POP JUMP JUMPDEST PUSH1 0x0 PUSH1 0x8 DUP4 MUL PUSH2 0x4047 PUSH32 0xFFFFFFFFFFFFFFFFFFFFFFFFFFFFFFFFFFFFFFFFFFFFFFFFFFFFFFFFFFFFFFFF DUP3 PUSH2 0x400A JUMP JUMPDEST PUSH2 0x4051 DUP7 DUP4 PUSH2 0x400A JUMP JUMPDEST SWAP6 POP DUP1 NOT DUP5 AND SWAP4 POP DUP1 DUP7 AND DUP5 OR SWAP3 POP POP POP SWAP4 SWAP3 POP POP POP JUMP JUMPDEST PUSH1 0x0 DUP2 SWAP1 POP SWAP2 SWAP1 POP JUMP JUMPDEST PUSH1 0x0 PUSH2 0x408E PUSH2 0x4089 PUSH2 0x4084 DUP5 PUSH2 0x30C5 JUMP JUMPDEST PUSH2 0x4069 JUMP JUMPDEST PUSH2 0x30C5 JUMP JUMPDEST SWAP1 POP SWAP2 SWAP1 POP JUMP JUMPDEST PUSH1 0x0 DUP2 SWAP1 POP SWAP2 SWAP1 POP JUMP JUMPDEST PUSH2 0x40A8 DUP4 PUSH2 0x4073 JUMP JUMPDEST PUSH2 0x40BC PUSH2 0x40B4 DUP3 PUSH2 0x4095 JUMP JUMPDEST DUP5 DUP5 SLOAD PUSH2 0x4017 JUMP JUMPDEST DUP3 SSTORE POP POP POP POP JUMP JUMPDEST PUSH1 0x0 SWAP1 JUMP JUMPDEST PUSH2 0x40D1 PUSH2 0x40C4 JUMP JUMPDEST PUSH2 0x40DC DUP2 DUP5 DUP5 PUSH2 0x409F JUMP JUMPDEST POP POP POP JUMP JUMPDEST JUMPDEST DUP2 DUP2 LT ISZERO PUSH2 0x4100 JUMPI PUSH2 0x40F5 PUSH1 0x0 DUP3 PUSH2 0x40C9 JUMP JUMPDEST PUSH1 0x1 DUP2 ADD SWAP1 POP PUSH2 0x40E2 JUMP JUMPDEST POP POP JUMP JUMPDEST PUSH1 0x1F DUP3 GT ISZERO PUSH2 0x4145 JUMPI PUSH2 0x4116 DUP2 PUSH2 0x3FE5 JUMP JUMPDEST PUSH2 0x411F DUP5 PUSH2 0x3FFA JUMP JUMPDEST DUP2 ADD PUSH1 0x20 DUP6 LT ISZERO PUSH2 0x412E JUMPI DUP2 SWAP1 POP JUMPDEST PUSH2 0x4142 PUSH2 0x413A DUP6 PUSH2 0x3FFA JUMP JUMPDEST DUP4 ADD DUP3 PUSH2 0x40E1 JUMP JUMPDEST POP POP JUMPDEST POP POP POP JUMP JUMPDEST PUSH1 0x0 DUP3 DUP3 SHR SWAP1 POP SWAP3 SWAP2 POP POP JUMP JUMPDEST PUSH1 0x0 PUSH2 0x4168 PUSH1 0x0 NOT DUP5 PUSH1 0x8 MUL PUSH2 0x414A JUMP JUMPDEST NOT DUP1 DUP4 AND SWAP2 POP POP SWAP3 SWAP2 POP POP JUMP JUMPDEST PUSH1 0x0 PUSH2 0x4181 DUP4 DUP4 PUSH2 0x4157 JUMP JUMPDEST SWAP2 POP DUP3 PUSH1 0x2 MUL DUP3 OR SWAP1 POP SWAP3 SWAP2 POP POP JUMP JUMPDEST PUSH2 0x419A DUP3 PUSH2 0x3178 JUMP JUMPDEST PUSH8 0xFFFFFFFFFFFFFFFF DUP2 GT ISZERO PUSH2 0x41B3 JUMPI PUSH2 0x41B2 PUSH2 0x344F JUMP JUMPDEST JUMPDEST PUSH2 0x41BD DUP3 SLOAD PUSH2 0x3B1D JUMP JUMPDEST PUSH2 0x41C8 DUP3 DUP3 DUP6 PUSH2 0x4104 JUMP JUMPDEST PUSH1 0x0 PUSH1 0x20 SWAP1 POP PUSH1 0x1F DUP4 GT PUSH1 0x1 DUP2 EQ PUSH2 0x41FB JUMPI PUSH1 0x0 DUP5 ISZERO PUSH2 0x41E9 JUMPI DUP3 DUP8 ADD MLOAD SWAP1 POP JUMPDEST PUSH2 0x41F3 DUP6 DUP3 PUSH2 0x4175 JUMP JUMPDEST DUP7 SSTORE POP PUSH2 0x425B JUMP JUMPDEST PUSH1 0x1F NOT DUP5 AND PUSH2 0x4209 DUP7 PUSH2 0x3FE5 JUMP JUMPDEST PUSH1 0x0 JUMPDEST DUP3 DUP2 LT ISZERO PUSH2 0x4231 JUMPI DUP5 DUP10 ADD MLOAD DUP3 SSTORE PUSH1 0x1 DUP3 ADD SWAP2 POP PUSH1 0x20 DUP6 ADD SWAP5 POP PUSH1 0x20 DUP2 ADD SWAP1 POP PUSH2 0x420C JUMP JUMPDEST DUP7 DUP4 LT ISZERO PUSH2 0x424E JUMPI DUP5 DUP10 ADD MLOAD PUSH2 0x424A PUSH1 0x1F DUP10 AND DUP3 PUSH2 0x4157 JUMP JUMPDEST DUP4 SSTORE POP JUMPDEST PUSH1 0x1 PUSH1 0x2 DUP9 MUL ADD DUP9 SSTORE POP POP POP JUMPDEST POP POP POP POP POP POP JUMP JUMPDEST PUSH1 0x0 PUSH1 0x60 DUP3 ADD SWAP1 POP PUSH2 0x4278 PUSH1 0x0 DUP4 ADD DUP7 PUSH2 0x3128 JUMP JUMPDEST PUSH2 0x4285 PUSH1 0x20 DUP4 ADD DUP6 PUSH2 0x3169 JUMP JUMPDEST DUP2 DUP2 SUB PUSH1 0x40 DUP4 ADD MSTORE PUSH2 0x4297 DUP2 DUP5 PUSH2 0x31CF JUMP JUMPDEST SWAP1 POP SWAP5 SWAP4 POP POP POP POP JUMP JUMPDEST PUSH1 0x0 PUSH2 0x42AC DUP3 PUSH2 0x30C5 JUMP JUMPDEST SWAP2 POP PUSH2 0x42B7 DUP4 PUSH2 0x30C5 JUMP JUMPDEST SWAP3 POP DUP3 DUP3 SUB SWAP1 POP DUP2 DUP2 GT ISZERO PUSH2 0x42CF JUMPI PUSH2 0x42CE PUSH2 0x3A49 JUMP JUMPDEST JUMPDEST SWAP3 SWAP2 POP POP JUMP JUMPDEST PUSH32 0x4F6E6C792074686520656E7472657072656E657572206F72206F776E65722063 PUSH1 0x0 DUP3 ADD MSTORE PUSH32 0x616E2063616E63656C20746869732063616D706169676E000000000000000000 PUSH1 0x20 DUP3 ADD MSTORE POP JUMP JUMPDEST PUSH1 0x0 PUSH2 0x4331 PUSH1 0x37 DUP4 PUSH2 0x3183 JUMP JUMPDEST SWAP2 POP PUSH2 0x433C DUP3 PUSH2 0x42D5 JUMP JUMPDEST PUSH1 0x40 DUP3 ADD SWAP1 POP SWAP2 SWAP1 POP JUMP JUMPDEST PUSH1 0x0 PUSH1 0x20 DUP3 ADD SWAP1 POP DUP2 DUP2 SUB PUSH1 0x0 DUP4 ADD MSTORE PUSH2 0x4360 DUP2 PUSH2 0x4324 JUMP JUMPDEST SWAP1 POP SWAP2 SWAP1 POP JUMP JUMPDEST PUSH1 0x0 DUP2 SLOAD PUSH2 0x4374 DUP2 PUSH2 0x3B1D JUMP JUMPDEST PUSH2 0x437E DUP2 DUP7 PUSH2 0x3183 JUMP JUMPDEST SWAP5 POP PUSH1 0x1 DUP3 AND PUSH1 0x0 DUP2 EQ PUSH2 0x4399 JUMPI PUSH1 0x1 DUP2 EQ PUSH2 0x43AF JUMPI PUSH2 0x43E2 JUMP JUMPDEST PUSH1 0xFF NOT DUP4 AND DUP7 MSTORE DUP2 ISZERO ISZERO PUSH1 0x20 MUL DUP7 ADD SWAP4 POP PUSH2 0x43E2 JUMP JUMPDEST PUSH2 0x43B8 DUP6 PUSH2 0x3FE5 JUMP JUMPDEST PUSH1 0x0 JUMPDEST DUP4 DUP2 LT ISZERO PUSH2 0x43DA JUMPI DUP2 SLOAD DUP2 DUP10 ADD MSTORE PUSH1 0x1 DUP3 ADD SWAP2 POP PUSH1 0x20 DUP2 ADD SWAP1 POP PUSH2 0x43BB JUMP JUMPDEST DUP1 DUP9 ADD SWAP6 POP POP POP JUMPDEST POP POP POP SWAP3 SWAP2 POP POP JUMP JUMPDEST PUSH1 0x0 PUSH1 0x60 DUP3 ADD SWAP1 POP PUSH2 0x4400 PUSH1 0x0 DUP4 ADD DUP7 PUSH2 0x3128 JUMP JUMPDEST PUSH2 0x440D PUSH1 0x20 DUP4 ADD DUP6 PUSH2 0x3169 JUMP JUMPDEST DUP2 DUP2 SUB PUSH1 0x40 DUP4 ADD MSTORE PUSH2 0x441F DUP2 DUP5 PUSH2 0x4367 JUMP JUMPDEST SWAP1 POP SWAP5 SWAP4 POP POP POP POP JUMP JUMPDEST PUSH1 0x0 PUSH1 0x40 DUP3 ADD SWAP1 POP PUSH2 0x443E PUSH1 0x0 DUP4 ADD DUP6 PUSH2 0x3169 JUMP JUMPDEST PUSH2 0x444B PUSH1 0x20 DUP4 ADD DUP5 PUSH2 0x3128 JUMP JUMPDEST SWAP4 SWAP3 POP POP POP JUMP JUMPDEST PUSH32 0x4F6E6C792074686520656E7472657072656E657572206F72206F776E65722063 PUSH1 0x0 DUP3 ADD MSTORE PUSH32 0x616E20636F6D706C65746520746869732063616D706169676E00000000000000 PUSH1 0x20 DUP3 ADD MSTORE POP JUMP JUMPDEST PUSH1 0x0 PUSH2 0x44AE PUSH1 0x39 DUP4 PUSH2 0x3183 JUMP JUMPDEST SWAP2 POP PUSH2 0x44B9 DUP3 PUSH2 0x4452 JUMP JUMPDEST PUSH1 0x40 DUP3 ADD SWAP1 POP SWAP2 SWAP1 POP JUMP JUMPDEST PUSH1 0x0 PUSH1 0x20 DUP3 ADD SWAP1 POP DUP2 DUP2 SUB PUSH1 0x0 DUP4 ADD MSTORE PUSH2 0x44DD DUP2 PUSH2 0x44A1 JUMP JUMPDEST SWAP1 POP SWAP2 SWAP1 POP JUMP JUMPDEST PUSH32 0x43616D706169676E20646F6573206E6F74206861766520656E6F756768207368 PUSH1 0x0 DUP3 ADD MSTORE PUSH32 0x6172657300000000000000000000000000000000000000000000000000000000 PUSH1 0x20 DUP3 ADD MSTORE POP JUMP JUMPDEST PUSH1 0x0 PUSH2 0x4540 PUSH1 0x24 DUP4 PUSH2 0x3183 JUMP JUMPDEST SWAP2 POP PUSH2 0x454B DUP3 PUSH2 0x44E4 JUMP JUMPDEST PUSH1 0x40 DUP3 ADD SWAP1 POP SWAP2 SWAP1 POP JUMP JUMPDEST PUSH1 0x0 PUSH1 0x20 DUP3 ADD SWAP1 POP DUP2 DUP2 SUB PUSH1 0x0 DUP4 ADD MSTORE PUSH2 0x456F DUP2 PUSH2 0x4533 JUMP JUMPDEST SWAP1 POP SWAP2 SWAP1 POP JUMP JUMPDEST PUSH32 0x4E487B7100000000000000000000000000000000000000000000000000000000 PUSH1 0x0 MSTORE PUSH1 0x12 PUSH1 0x4 MSTORE PUSH1 0x24 PUSH1 0x0 REVERT JUMPDEST PUSH1 0x0 PUSH2 0x45B0 DUP3 PUSH2 0x30C5 JUMP JUMPDEST SWAP2 POP PUSH2 0x45BB DUP4 PUSH2 0x30C5 JUMP JUMPDEST SWAP3 POP DUP3 PUSH2 0x45CB JUMPI PUSH2 0x45CA PUSH2 0x4576 JUMP JUMPDEST JUMPDEST DUP3 DUP3 DIV SWAP1 POP SWAP3 SWAP2 POP POP JUMP JUMPDEST PUSH32 0x4E6577206F776E65722063616E6E6F7420626520746865207A65726F20616464 PUSH1 0x0 DUP3 ADD MSTORE PUSH32 0x7265737300000000000000000000000000000000000000000000000000000000 PUSH1 0x20 DUP3 ADD MSTORE POP JUMP JUMPDEST PUSH1 0x0 PUSH2 0x4632 PUSH1 0x24 DUP4 PUSH2 0x3183 JUMP JUMPDEST SWAP2 POP PUSH2 0x463D DUP3 PUSH2 0x45D6 JUMP JUMPDEST PUSH1 0x40 DUP3 ADD SWAP1 POP SWAP2 SWAP1 POP JUMP JUMPDEST PUSH1 0x0 PUSH1 0x20 DUP3 ADD SWAP1 POP DUP2 DUP2 SUB PUSH1 0x0 DUP4 ADD MSTORE PUSH2 0x4661 DUP2 PUSH2 0x4625 JUMP JUMPDEST SWAP1 POP SWAP2 SWAP1 POP JUMP JUMPDEST PUSH32 0x496E76616C69642063616D706169676E20494400000000000000000000000000 PUSH1 0x0 DUP3 ADD MSTORE POP JUMP JUMPDEST PUSH1 0x0 PUSH2 0x469E PUSH1 0x13 DUP4 PUSH2 0x3183 JUMP JUMPDEST SWAP2 POP PUSH2 0x46A9 DUP3 PUSH2 0x4668 JUMP JUMPDEST PUSH1 0x20 DUP3 ADD SWAP1 POP SWAP2 SWAP1 POP JUMP JUMPDEST PUSH1 0x0 PUSH1 0x20 DUP3 ADD SWAP1 POP DUP2 DUP2 SUB PUSH1 0x0 DUP4 ADD MSTORE PUSH2 0x46CD DUP2 PUSH2 0x4691 JUMP JUMPDEST SWAP1 POP SWAP2 SWAP1 POP JUMP JUMPDEST PUSH32 0x4E6F20726566756E6420617661696C61626C6520666F72207468697320696E76 PUSH1 0x0 DUP3 ADD MSTORE PUSH32 0x6573746F72000000000000000000000000000000000000000000000000000000 PUSH1 0x20 DUP3 ADD MSTORE POP JUMP JUMPDEST PUSH1 0x0 PUSH2 0x4730 PUSH1 0x25 DUP4 PUSH2 0x3183 JUMP JUMPDEST SWAP2 POP PUSH2 0x473B DUP3 PUSH2 0x46D4 JUMP JUMPDEST PUSH1 0x40 DUP3 ADD SWAP1 POP SWAP2 SWAP1 POP JUMP JUMPDEST PUSH1 0x0 PUSH1 0x20 DUP3 ADD SWAP1 POP DUP2 DUP2 SUB PUSH1 0x0 DUP4 ADD MSTORE PUSH2 0x475F DUP2 PUSH2 0x4723 JUMP JUMPDEST SWAP1 POP SWAP2 SWAP1 POP JUMP INVALID LOG2 PUSH5 0x6970667358 0x22 SLT KECCAK256 0xC4 EXP SWAP11 0xE2 PUSH31 0x60A79D9E958BE150F0E94EFF533EA6D527C0038587C9D9CBEF4B264736F6C PUSH4 0x4300081A STOP CALLER "
				},
				"gasEstimates": {
					"creation": {
						"codeDepositCost": "3666400",
						"executionCost": "infinite",
						"totalCost": "infinite"
					},
					"external": {
						"banInvestor(address)": "104336",
						"bannedAddresses(uint256)": "5066",
						"bannedCounter()": "2540",
						"bannedList(address)": "2889",
						"campaignFee()": "2562",
						"campaignFunding(uint256,uint256)": "infinite",
						"campaigns(uint256)": "infinite",
						"cancelCampaign(uint256)": "infinite",
						"changeOwner(address)": "29166",
						"completeCampaign(uint256)": "infinite",
						"createCampaign(string,uint256,uint256)": "infinite",
						"destroyContract()": "infinite",
						"getActiveCampaigns()": "infinite",
						"getActiveCount()": "infinite",
						"getCancelledCampaigns()": "infinite",
						"getCompletedCampaigns()": "infinite",
						"getInvestmentsByInvestor(address)": "infinite",
						"getInvestorsAndShares(uint256)": "infinite",
						"owner()": "2556",
						"refundInvestor(address)": "infinite",
						"refunds(address)": "2836",
						"totalFeesCollected()": "2518",
						"withdrawFees()": "infinite"
					}
				},
				"methodIdentifiers": {
					"banInvestor(address)": "8bc95413",
					"bannedAddresses(uint256)": "ed68b685",
					"bannedCounter()": "ad59be99",
					"bannedList(address)": "bd424ee7",
					"campaignFee()": "8a5be9b7",
					"campaignFunding(uint256,uint256)": "2b7393fb",
					"campaigns(uint256)": "141961bc",
					"cancelCampaign(uint256)": "45598b4a",
					"changeOwner(address)": "a6f9dae1",
					"completeCampaign(uint256)": "9553f180",
					"createCampaign(string,uint256,uint256)": "3020580b",
					"destroyContract()": "092a5cce",
					"getActiveCampaigns()": "c362b156",
					"getActiveCount()": "63338b17",
					"getCancelledCampaigns()": "c0751ba4",
					"getCompletedCampaigns()": "3c3ae5b8",
					"getInvestmentsByInvestor(address)": "2cdda7d5",
					"getInvestorsAndShares(uint256)": "b41ead0a",
					"owner()": "8da5cb5b",
					"refundInvestor(address)": "ff53c5a3",
					"refunds(address)": "bc3da535",
					"totalFeesCollected()": "60c6d8ae",
					"withdrawFees()": "476343ee"
				}
			},
			"storageLayout": {
				"storage": [
					{
						"astId": 46,
						"contract": "contracts/Blockchain_task.sol:Crowdfunding",
						"label": "owner",
						"offset": 0,
						"slot": "0",
						"type": "t_address"
					},
					{
						"astId": 48,
						"contract": "contracts/Blockchain_task.sol:Crowdfunding",
						"label": "campaignFee",
						"offset": 0,
						"slot": "1",
						"type": "t_uint256"
					},
					{
						"astId": 50,
						"contract": "contracts/Blockchain_task.sol:Crowdfunding",
						"label": "totalFeesCollected",
						"offset": 0,
						"slot": "2",
						"type": "t_uint256"
					},
					{
						"astId": 52,
						"contract": "contracts/Blockchain_task.sol:Crowdfunding",
						"label": "campaignCounter",
						"offset": 0,
						"slot": "3",
						"type": "t_uint256"
					},
					{
						"astId": 57,
						"contract": "contracts/Blockchain_task.sol:Crowdfunding",
						"label": "campaigns",
						"offset": 0,
						"slot": "4",
						"type": "t_mapping(t_uint256,t_struct(Campaign)27_storage)"
					},
					{
						"astId": 59,
						"contract": "contracts/Blockchain_task.sol:Crowdfunding",
						"label": "bannedCounter",
						"offset": 0,
						"slot": "5",
						"type": "t_uint256"
					},
					{
						"astId": 63,
						"contract": "contracts/Blockchain_task.sol:Crowdfunding",
						"label": "bannedList",
						"offset": 0,
						"slot": "6",
						"type": "t_mapping(t_address,t_bool)"
					},
					{
						"astId": 66,
						"contract": "contracts/Blockchain_task.sol:Crowdfunding",
						"label": "bannedAddresses",
						"offset": 0,
						"slot": "7",
						"type": "t_array(t_address)dyn_storage"
					},
					{
						"astId": 70,
						"contract": "contracts/Blockchain_task.sol:Crowdfunding",
						"label": "refunds",
						"offset": 0,
						"slot": "8",
						"type": "t_mapping(t_address,t_uint256)"
					},
					{
						"astId": 72,
						"contract": "contracts/Blockchain_task.sol:Crowdfunding",
						"label": "isContractActive",
						"offset": 0,
						"slot": "9",
						"type": "t_bool"
					}
				],
				"types": {
					"t_address": {
						"encoding": "inplace",
						"label": "address",
						"numberOfBytes": "20"
					},
					"t_array(t_address)dyn_storage": {
						"base": "t_address",
						"encoding": "dynamic_array",
						"label": "address[]",
						"numberOfBytes": "32"
					},
					"t_bool": {
						"encoding": "inplace",
						"label": "bool",
						"numberOfBytes": "1"
					},
					"t_mapping(t_address,t_bool)": {
						"encoding": "mapping",
						"key": "t_address",
						"label": "mapping(address => bool)",
						"numberOfBytes": "32",
						"value": "t_bool"
					},
					"t_mapping(t_address,t_uint256)": {
						"encoding": "mapping",
						"key": "t_address",
						"label": "mapping(address => uint256)",
						"numberOfBytes": "32",
						"value": "t_uint256"
					},
					"t_mapping(t_uint256,t_struct(Campaign)27_storage)": {
						"encoding": "mapping",
						"key": "t_uint256",
						"label": "mapping(uint256 => struct Crowdfunding.Campaign)",
						"numberOfBytes": "32",
						"value": "t_struct(Campaign)27_storage"
					},
					"t_string_storage": {
						"encoding": "bytes",
						"label": "string",
						"numberOfBytes": "32"
					},
					"t_struct(Campaign)27_storage": {
						"encoding": "inplace",
						"label": "struct Crowdfunding.Campaign",
						"members": [
							{
								"astId": 3,
								"contract": "contracts/Blockchain_task.sol:Crowdfunding",
								"label": "campaignId",
								"offset": 0,
								"slot": "0",
								"type": "t_uint256"
							},
							{
								"astId": 5,
								"contract": "contracts/Blockchain_task.sol:Crowdfunding",
								"label": "entrepreneur",
								"offset": 0,
								"slot": "1",
								"type": "t_address"
							},
							{
								"astId": 7,
								"contract": "contracts/Blockchain_task.sol:Crowdfunding",
								"label": "title",
								"offset": 0,
								"slot": "2",
								"type": "t_string_storage"
							},
							{
								"astId": 9,
								"contract": "contracts/Blockchain_task.sol:Crowdfunding",
								"label": "sharePrice",
								"offset": 0,
								"slot": "3",
								"type": "t_uint256"
							},
							{
								"astId": 11,
								"contract": "contracts/Blockchain_task.sol:Crowdfunding",
								"label": "totalShares",
								"offset": 0,
								"slot": "4",
								"type": "t_uint256"
							},
							{
								"astId": 13,
								"contract": "contracts/Blockchain_task.sol:Crowdfunding",
								"label": "currentShares",
								"offset": 0,
								"slot": "5",
								"type": "t_uint256"
							},
							{
								"astId": 15,
								"contract": "contracts/Blockchain_task.sol:Crowdfunding",
								"label": "isActive",
								"offset": 0,
								"slot": "6",
								"type": "t_bool"
							},
							{
								"astId": 17,
								"contract": "contracts/Blockchain_task.sol:Crowdfunding",
								"label": "isCancelled",
								"offset": 1,
								"slot": "6",
								"type": "t_bool"
							},
							{
								"astId": 19,
								"contract": "contracts/Blockchain_task.sol:Crowdfunding",
								"label": "isCompleted",
								"offset": 2,
								"slot": "6",
								"type": "t_bool"
							},
							{
								"astId": 22,
								"contract": "contracts/Blockchain_task.sol:Crowdfunding",
								"label": "backers",
								"offset": 0,
								"slot": "7",
								"type": "t_array(t_address)dyn_storage"
							},
							{
								"astId": 26,
								"contract": "contracts/Blockchain_task.sol:Crowdfunding",
								"label": "sharesPerBacker",
								"offset": 0,
								"slot": "8",
								"type": "t_mapping(t_address,t_uint256)"
							}
						],
						"numberOfBytes": "288"
					},
					"t_uint256": {
						"encoding": "inplace",
						"label": "uint256",
						"numberOfBytes": "32"
					}
				}
			},
			"userdoc": {
				"kind": "user",
				"methods": {},
				"version": 1
			}
		}
	}
}