{
	"contracts/Blockchain_task.sol": {
		"Crowdfunding": {
			"abi": [
				{
					"inputs": [
						{
							"internalType": "uint256",
							"name": "_campaignFee",
							"type": "uint256"
						}
					],
					"stateMutability": "nonpayable",
					"type": "constructor"
				},
				{
					"anonymous": false,
					"inputs": [
						{
							"indexed": false,
							"internalType": "uint256",
							"name": "campaignId",
							"type": "uint256"
						},
						{
							"indexed": false,
							"internalType": "address",
							"name": "entrepreneur",
							"type": "address"
						},
						{
							"indexed": false,
							"internalType": "string",
							"name": "title",
							"type": "string"
						}
					],
					"name": "CampaignCancelled",
					"type": "event"
				},
				{
					"anonymous": false,
					"inputs": [
						{
							"indexed": false,
							"internalType": "uint256",
							"name": "campaignId",
							"type": "uint256"
						},
						{
							"indexed": false,
							"internalType": "address",
							"name": "entrepreneur",
							"type": "address"
						},
						{
							"indexed": false,
							"internalType": "string",
							"name": "title",
							"type": "string"
						}
					],
					"name": "CampaignCompleted",
					"type": "event"
				},
				{
					"anonymous": false,
					"inputs": [
						{
							"indexed": false,
							"internalType": "uint256",
							"name": "campaignId",
							"type": "uint256"
						},
						{
							"indexed": false,
							"internalType": "address",
							"name": "entrepreneur",
							"type": "address"
						},
						{
							"indexed": false,
							"internalType": "string",
							"name": "title",
							"type": "string"
						}
					],
					"name": "CampaignCreated",
					"type": "event"
				},
				{
					"anonymous": false,
					"inputs": [
						{
							"indexed": false,
							"internalType": "address",
							"name": "owner",
							"type": "address"
						},
						{
							"indexed": false,
							"internalType": "uint256",
							"name": "amount",
							"type": "uint256"
						}
					],
					"name": "FeesWithdrawn",
					"type": "event"
				},
				{
					"anonymous": false,
					"inputs": [
						{
							"indexed": false,
							"internalType": "address",
							"name": "investor",
							"type": "address"
						},
						{
							"indexed": false,
							"internalType": "uint256",
							"name": "amount",
							"type": "uint256"
						}
					],
					"name": "InvestorRefunded",
					"type": "event"
				},
				{
					"anonymous": false,
					"inputs": [
						{
							"indexed": false,
							"internalType": "uint256",
							"name": "campaignId",
							"type": "uint256"
						},
						{
							"indexed": false,
							"internalType": "address",
							"name": "investor",
							"type": "address"
						},
						{
							"indexed": false,
							"internalType": "uint256",
							"name": "shares",
							"type": "uint256"
						}
					],
					"name": "SharesPurchased",
					"type": "event"
				},
				{
					"inputs": [
						{
							"internalType": "address",
							"name": "investor",
							"type": "address"
						}
					],
					"name": "banInvestor",
					"outputs": [],
					"stateMutability": "nonpayable",
					"type": "function"
				},
				{
					"inputs": [
						{
							"internalType": "uint256",
							"name": "",
							"type": "uint256"
						}
					],
					"name": "bannedAddresses",
					"outputs": [
						{
							"internalType": "address",
							"name": "",
							"type": "address"
						}
					],
					"stateMutability": "view",
					"type": "function"
				},
				{
					"inputs": [],
					"name": "bannedCounter",
					"outputs": [
						{
							"internalType": "uint256",
							"name": "",
							"type": "uint256"
						}
					],
					"stateMutability": "view",
					"type": "function"
				},
				{
					"inputs": [
						{
							"internalType": "address",
							"name": "",
							"type": "address"
						}
					],
					"name": "bannedList",
					"outputs": [
						{
							"internalType": "bool",
							"name": "",
							"type": "bool"
						}
					],
					"stateMutability": "view",
					"type": "function"
				},
				{
					"inputs": [],
					"name": "campaignFee",
					"outputs": [
						{
							"internalType": "uint256",
							"name": "",
							"type": "uint256"
						}
					],
					"stateMutability": "view",
					"type": "function"
				},
				{
					"inputs": [
						{
							"internalType": "uint256",
							"name": "numberOfShares",
							"type": "uint256"
						},
						{
							"internalType": "uint256",
							"name": "campaignId",
							"type": "uint256"
						}
					],
					"name": "campaignFunding",
					"outputs": [],
					"stateMutability": "payable",
					"type": "function"
				},
				{
					"inputs": [
						{
							"internalType": "uint256",
							"name": "",
							"type": "uint256"
						}
					],
					"name": "campaigns",
					"outputs": [
						{
							"internalType": "uint256",
							"name": "campaignId",
							"type": "uint256"
						},
						{
							"internalType": "address",
							"name": "entrepreneur",
							"type": "address"
						},
						{
							"internalType": "string",
							"name": "title",
							"type": "string"
						},
						{
							"internalType": "uint256",
							"name": "sharePrice",
							"type": "uint256"
						},
						{
							"internalType": "uint256",
							"name": "totalShares",
							"type": "uint256"
						},
						{
							"internalType": "uint256",
							"name": "currentShares",
							"type": "uint256"
						},
						{
							"internalType": "bool",
							"name": "isActive",
							"type": "bool"
						},
						{
							"internalType": "bool",
							"name": "isCancelled",
							"type": "bool"
						},
						{
							"internalType": "bool",
							"name": "isCompleted",
							"type": "bool"
						}
					],
					"stateMutability": "view",
					"type": "function"
				},
				{
					"inputs": [
						{
							"internalType": "uint256",
							"name": "campaignId",
							"type": "uint256"
						}
					],
					"name": "cancelCampaign",
					"outputs": [],
					"stateMutability": "nonpayable",
					"type": "function"
				},
				{
					"inputs": [
						{
							"internalType": "address",
							"name": "newOwner",
							"type": "address"
						}
					],
					"name": "changeOwner",
					"outputs": [],
					"stateMutability": "nonpayable",
					"type": "function"
				},
				{
					"inputs": [
						{
							"internalType": "uint256",
							"name": "campaignId",
							"type": "uint256"
						}
					],
					"name": "completeCampaign",
					"outputs": [],
					"stateMutability": "nonpayable",
					"type": "function"
				},
				{
					"inputs": [
						{
							"internalType": "string",
							"name": "title",
							"type": "string"
						},
						{
							"internalType": "uint256",
							"name": "sharePrice",
							"type": "uint256"
						},
						{
							"internalType": "uint256",
							"name": "totalShares",
							"type": "uint256"
						}
					],
					"name": "createCampaign",
					"outputs": [],
					"stateMutability": "payable",
					"type": "function"
				},
				{
					"inputs": [],
					"name": "destroyContract",
					"outputs": [],
					"stateMutability": "nonpayable",
					"type": "function"
				},
				{
					"inputs": [],
					"name": "getActiveCampaigns",
					"outputs": [
						{
							"components": [
								{
									"internalType": "uint256",
									"name": "campaignId",
									"type": "uint256"
								},
								{
									"internalType": "address",
									"name": "entrepreneur",
									"type": "address"
								},
								{
									"internalType": "string",
									"name": "title",
									"type": "string"
								},
								{
									"internalType": "uint256",
									"name": "pledgeCost",
									"type": "uint256"
								},
								{
									"internalType": "uint256",
									"name": "pledgesNeeded",
									"type": "uint256"
								},
								{
									"internalType": "uint256",
									"name": "pledgesCount",
									"type": "uint256"
								},
								{
									"internalType": "bool",
									"name": "fulfilled",
									"type": "bool"
								},
								{
									"internalType": "bool",
									"name": "cancelled",
									"type": "bool"
								}
							],
							"internalType": "struct Crowdfunding.CampaignInfo[]",
							"name": "",
							"type": "tuple[]"
						}
					],
					"stateMutability": "view",
					"type": "function"
				},
				{
					"inputs": [],
					"name": "getCancelledCampaigns",
					"outputs": [
						{
							"components": [
								{
									"internalType": "uint256",
									"name": "campaignId",
									"type": "uint256"
								},
								{
									"internalType": "address",
									"name": "entrepreneur",
									"type": "address"
								},
								{
									"internalType": "string",
									"name": "title",
									"type": "string"
								},
								{
									"internalType": "uint256",
									"name": "pledgeCost",
									"type": "uint256"
								},
								{
									"internalType": "uint256",
									"name": "pledgesNeeded",
									"type": "uint256"
								},
								{
									"internalType": "uint256",
									"name": "pledgesCount",
									"type": "uint256"
								},
								{
									"internalType": "bool",
									"name": "fulfilled",
									"type": "bool"
								},
								{
									"internalType": "bool",
									"name": "cancelled",
									"type": "bool"
								}
							],
							"internalType": "struct Crowdfunding.CampaignInfo[]",
							"name": "",
							"type": "tuple[]"
						}
					],
					"stateMutability": "view",
					"type": "function"
				},
				{
					"inputs": [],
					"name": "getCompletedCampaigns",
					"outputs": [
						{
							"components": [
								{
									"internalType": "uint256",
									"name": "campaignId",
									"type": "uint256"
								},
								{
									"internalType": "address",
									"name": "entrepreneur",
									"type": "address"
								},
								{
									"internalType": "string",
									"name": "title",
									"type": "string"
								},
								{
									"internalType": "uint256",
									"name": "pledgeCost",
									"type": "uint256"
								},
								{
									"internalType": "uint256",
									"name": "pledgesNeeded",
									"type": "uint256"
								},
								{
									"internalType": "uint256",
									"name": "pledgesCount",
									"type": "uint256"
								},
								{
									"internalType": "bool",
									"name": "fulfilled",
									"type": "bool"
								},
								{
									"internalType": "bool",
									"name": "cancelled",
									"type": "bool"
								}
							],
							"internalType": "struct Crowdfunding.CampaignInfo[]",
							"name": "",
							"type": "tuple[]"
						}
					],
					"stateMutability": "view",
					"type": "function"
				},
				{
					"inputs": [
						{
							"internalType": "address",
							"name": "investor",
							"type": "address"
						}
					],
					"name": "getInvestmentsByInvestor",
					"outputs": [
						{
							"internalType": "uint256[]",
							"name": "campaignIds",
							"type": "uint256[]"
						},
						{
							"internalType": "uint256[]",
							"name": "shares",
							"type": "uint256[]"
						}
					],
					"stateMutability": "view",
					"type": "function"
				},
				{
					"inputs": [
						{
							"internalType": "uint256",
							"name": "campaignId",
							"type": "uint256"
						}
					],
					"name": "getInvestorsAndShares",
					"outputs": [
						{
							"internalType": "address[]",
							"name": "investors",
							"type": "address[]"
						},
						{
							"internalType": "uint256[]",
							"name": "shares",
							"type": "uint256[]"
						}
					],
					"stateMutability": "view",
					"type": "function"
				},
				{
					"inputs": [],
					"name": "owner",
					"outputs": [
						{
							"internalType": "address",
							"name": "",
							"type": "address"
						}
					],
					"stateMutability": "view",
					"type": "function"
				},
				{
					"inputs": [
						{
							"internalType": "address",
							"name": "investor",
							"type": "address"
						}
					],
					"name": "refundInvestor",
					"outputs": [],
					"stateMutability": "nonpayable",
					"type": "function"
				},
				{
					"inputs": [
						{
							"internalType": "address",
							"name": "",
							"type": "address"
						}
					],
					"name": "refunds",
					"outputs": [
						{
							"internalType": "uint256",
							"name": "",
							"type": "uint256"
						}
					],
					"stateMutability": "view",
					"type": "function"
				},
				{
					"inputs": [],
					"name": "totalFeesCollected",
					"outputs": [
						{
							"internalType": "uint256",
							"name": "",
							"type": "uint256"
						}
					],
					"stateMutability": "view",
					"type": "function"
				},
				{
					"inputs": [],
					"name": "withdrawFees",
					"outputs": [],
					"stateMutability": "nonpayable",
					"type": "function"
				}
			],
			"devdoc": {
				"kind": "dev",
				"methods": {},
				"version": 1
			},
			"evm": {
				"assembly": "    /* \"contracts/Blockchain_task.sol\":61:18373  contract Crowdfunding {... */\n  mstore(0x40, 0x80)\n    /* \"contracts/Blockchain_task.sol\":3498:3668  constructor(uint256 _campaignFee) {... */\n  callvalue\n  dup1\n  iszero\n  tag_1\n  jumpi\n  0x00\n  dup1\n  revert\ntag_1:\n  pop\n  mload(0x40)\n  sub(codesize, bytecodeSize)\n  dup1\n  bytecodeSize\n  dup4\n  codecopy\n  dup2\n  dup2\n  add\n  0x40\n  mstore\n  dup2\n  add\n  swap1\n  tag_2\n  swap2\n  swap1\n  tag_3\n  jump\t// in\ntag_2:\n    /* \"contracts/Blockchain_task.sol\":3550:3560  msg.sender */\n  caller\n    /* \"contracts/Blockchain_task.sol\":3542:3547  owner */\n  0x00\n  dup1\n    /* \"contracts/Blockchain_task.sol\":3542:3560  owner = msg.sender */\n  0x0100\n  exp\n  dup2\n  sload\n  dup2\n  0xffffffffffffffffffffffffffffffffffffffff\n  mul\n  not\n  and\n  swap1\n  dup4\n  0xffffffffffffffffffffffffffffffffffffffff\n  and\n  mul\n  or\n  swap1\n  sstore\n  pop\n    /* \"contracts/Blockchain_task.sol\":3584:3596  _campaignFee */\n  dup1\n    /* \"contracts/Blockchain_task.sol\":3570:3581  campaignFee */\n  0x01\n    /* \"contracts/Blockchain_task.sol\":3570:3596  campaignFee = _campaignFee */\n  dup2\n  swap1\n  sstore\n  pop\n    /* \"contracts/Blockchain_task.sol\":3625:3629  true */\n  0x01\n    /* \"contracts/Blockchain_task.sol\":3606:3622  isContractActive */\n  0x09\n  0x00\n    /* \"contracts/Blockchain_task.sol\":3606:3629  isContractActive = true */\n  0x0100\n  exp\n  dup2\n  sload\n  dup2\n  0xff\n  mul\n  not\n  and\n  swap1\n  dup4\n  iszero\n  iszero\n  mul\n  or\n  swap1\n  sstore\n  pop\n    /* \"contracts/Blockchain_task.sol\":3660:3661  0 */\n  0x00\n    /* \"contracts/Blockchain_task.sol\":3639:3657  totalFeesCollected */\n  0x02\n    /* \"contracts/Blockchain_task.sol\":3639:3661  totalFeesCollected = 0 */\n  dup2\n  swap1\n  sstore\n  pop\n    /* \"contracts/Blockchain_task.sol\":3498:3668  constructor(uint256 _campaignFee) {... */\n  pop\n    /* \"contracts/Blockchain_task.sol\":61:18373  contract Crowdfunding {... */\n  jump(tag_6)\n    /* \"#utility.yul\":88:205   */\ntag_8:\n    /* \"#utility.yul\":197:198   */\n  0x00\n    /* \"#utility.yul\":194:195   */\n  dup1\n    /* \"#utility.yul\":187:199   */\n  revert\n    /* \"#utility.yul\":334:411   */\ntag_10:\n    /* \"#utility.yul\":371:378   */\n  0x00\n    /* \"#utility.yul\":400:405   */\n  dup2\n    /* \"#utility.yul\":389:405   */\n  swap1\n  pop\n    /* \"#utility.yul\":334:411   */\n  swap2\n  swap1\n  pop\n  jump\t// out\n    /* \"#utility.yul\":417:539   */\ntag_11:\n    /* \"#utility.yul\":490:514   */\n  tag_19\n    /* \"#utility.yul\":508:513   */\n  dup2\n    /* \"#utility.yul\":490:514   */\n  tag_10\n  jump\t// in\ntag_19:\n    /* \"#utility.yul\":483:488   */\n  dup2\n    /* \"#utility.yul\":480:515   */\n  eq\n    /* \"#utility.yul\":470:533   */\n  tag_20\n  jumpi\n    /* \"#utility.yul\":529:530   */\n  0x00\n    /* \"#utility.yul\":526:527   */\n  dup1\n    /* \"#utility.yul\":519:531   */\n  revert\n    /* \"#utility.yul\":470:533   */\ntag_20:\n    /* \"#utility.yul\":417:539   */\n  pop\n  jump\t// out\n    /* \"#utility.yul\":545:688   */\ntag_12:\n    /* \"#utility.yul\":602:607   */\n  0x00\n    /* \"#utility.yul\":633:639   */\n  dup2\n    /* \"#utility.yul\":627:640   */\n  mload\n    /* \"#utility.yul\":618:640   */\n  swap1\n  pop\n    /* \"#utility.yul\":649:682   */\n  tag_22\n    /* \"#utility.yul\":676:681   */\n  dup2\n    /* \"#utility.yul\":649:682   */\n  tag_11\n  jump\t// in\ntag_22:\n    /* \"#utility.yul\":545:688   */\n  swap3\n  swap2\n  pop\n  pop\n  jump\t// out\n    /* \"#utility.yul\":694:1045   */\ntag_3:\n    /* \"#utility.yul\":764:770   */\n  0x00\n    /* \"#utility.yul\":813:815   */\n  0x20\n    /* \"#utility.yul\":801:810   */\n  dup3\n    /* \"#utility.yul\":792:799   */\n  dup5\n    /* \"#utility.yul\":788:811   */\n  sub\n    /* \"#utility.yul\":784:816   */\n  slt\n    /* \"#utility.yul\":781:900   */\n  iszero\n  tag_24\n  jumpi\n    /* \"#utility.yul\":819:898   */\n  tag_25\n  tag_8\n  jump\t// in\ntag_25:\n    /* \"#utility.yul\":781:900   */\ntag_24:\n    /* \"#utility.yul\":939:940   */\n  0x00\n    /* \"#utility.yul\":964:1028   */\n  tag_26\n    /* \"#utility.yul\":1020:1027   */\n  dup5\n    /* \"#utility.yul\":1011:1017   */\n  dup3\n    /* \"#utility.yul\":1000:1009   */\n  dup6\n    /* \"#utility.yul\":996:1018   */\n  add\n    /* \"#utility.yul\":964:1028   */\n  tag_12\n  jump\t// in\ntag_26:\n    /* \"#utility.yul\":954:1028   */\n  swap2\n  pop\n    /* \"#utility.yul\":910:1038   */\n  pop\n    /* \"#utility.yul\":694:1045   */\n  swap3\n  swap2\n  pop\n  pop\n  jump\t// out\n    /* \"contracts/Blockchain_task.sol\":61:18373  contract Crowdfunding {... */\ntag_6:\n  dataSize(sub_0)\n  dup1\n  dataOffset(sub_0)\n  0x00\n  codecopy\n  0x00\n  return\nstop\n\nsub_0: assembly {\n        /* \"contracts/Blockchain_task.sol\":61:18373  contract Crowdfunding {... */\n      mstore(0x40, 0x80)\n      jumpi(tag_1, lt(calldatasize, 0x04))\n      shr(0xe0, calldataload(0x00))\n      dup1\n      0x8da5cb5b\n      gt\n      tag_24\n      jumpi\n      dup1\n      0xbc3da535\n      gt\n      tag_25\n      jumpi\n      dup1\n      0xbc3da535\n      eq\n      tag_18\n      jumpi\n      dup1\n      0xbd424ee7\n      eq\n      tag_19\n      jumpi\n      dup1\n      0xc0751ba4\n      eq\n      tag_20\n      jumpi\n      dup1\n      0xc362b156\n      eq\n      tag_21\n      jumpi\n      dup1\n      0xed68b685\n      eq\n      tag_22\n      jumpi\n      dup1\n      0xff53c5a3\n      eq\n      tag_23\n      jumpi\n      jump(tag_1)\n    tag_25:\n      dup1\n      0x8da5cb5b\n      eq\n      tag_13\n      jumpi\n      dup1\n      0x9553f180\n      eq\n      tag_14\n      jumpi\n      dup1\n      0xa6f9dae1\n      eq\n      tag_15\n      jumpi\n      dup1\n      0xad59be99\n      eq\n      tag_16\n      jumpi\n      dup1\n      0xb41ead0a\n      eq\n      tag_17\n      jumpi\n      jump(tag_1)\n    tag_24:\n      dup1\n      0x3c3ae5b8\n      gt\n      tag_26\n      jumpi\n      dup1\n      0x3c3ae5b8\n      eq\n      tag_7\n      jumpi\n      dup1\n      0x45598b4a\n      eq\n      tag_8\n      jumpi\n      dup1\n      0x476343ee\n      eq\n      tag_9\n      jumpi\n      dup1\n      0x60c6d8ae\n      eq\n      tag_10\n      jumpi\n      dup1\n      0x8a5be9b7\n      eq\n      tag_11\n      jumpi\n      dup1\n      0x8bc95413\n      eq\n      tag_12\n      jumpi\n      jump(tag_1)\n    tag_26:\n      dup1\n      0x092a5cce\n      eq\n      tag_2\n      jumpi\n      dup1\n      0x141961bc\n      eq\n      tag_3\n      jumpi\n      dup1\n      0x2b7393fb\n      eq\n      tag_4\n      jumpi\n      dup1\n      0x2cdda7d5\n      eq\n      tag_5\n      jumpi\n      dup1\n      0x3020580b\n      eq\n      tag_6\n      jumpi\n    tag_1:\n      0x00\n      dup1\n      revert\n        /* \"contracts/Blockchain_task.sol\":17075:18371  function destroyContract() public onlyOwner activeContract {... */\n    tag_2:\n      callvalue\n      dup1\n      iszero\n      tag_27\n      jumpi\n      0x00\n      dup1\n      revert\n    tag_27:\n      pop\n      tag_28\n      tag_29\n      jump\t// in\n    tag_28:\n      stop\n        /* \"contracts/Blockchain_task.sol\":1070:1115  mapping(uint256 => Campaign) public campaigns */\n    tag_3:\n      callvalue\n      dup1\n      iszero\n      tag_30\n      jumpi\n      0x00\n      dup1\n      revert\n    tag_30:\n      pop\n      tag_31\n      0x04\n      dup1\n      calldatasize\n      sub\n      dup2\n      add\n      swap1\n      tag_32\n      swap2\n      swap1\n      tag_33\n      jump\t// in\n    tag_32:\n      tag_34\n      jump\t// in\n    tag_31:\n      mload(0x40)\n      tag_35\n      swap10\n      swap9\n      swap8\n      swap7\n      swap6\n      swap5\n      swap4\n      swap3\n      swap2\n      swap1\n      tag_36\n      jump\t// in\n    tag_35:\n      mload(0x40)\n      dup1\n      swap2\n      sub\n      swap1\n      return\n        /* \"contracts/Blockchain_task.sol\":4678:5863  function campaignFunding(uint256 numberOfShares, uint256 campaignId)... */\n    tag_4:\n      tag_37\n      0x04\n      dup1\n      calldatasize\n      sub\n      dup2\n      add\n      swap1\n      tag_38\n      swap2\n      swap1\n      tag_39\n      jump\t// in\n    tag_38:\n      tag_40\n      jump\t// in\n    tag_37:\n      stop\n        /* \"contracts/Blockchain_task.sol\":15246:16437  function getInvestmentsByInvestor(address investor)... */\n    tag_5:\n      callvalue\n      dup1\n      iszero\n      tag_41\n      jumpi\n      0x00\n      dup1\n      revert\n    tag_41:\n      pop\n      tag_42\n      0x04\n      dup1\n      calldatasize\n      sub\n      dup2\n      add\n      swap1\n      tag_43\n      swap2\n      swap1\n      tag_44\n      jump\t// in\n    tag_43:\n      tag_45\n      jump\t// in\n    tag_42:\n      mload(0x40)\n      tag_46\n      swap3\n      swap2\n      swap1\n      tag_47\n      jump\t// in\n    tag_46:\n      mload(0x40)\n      dup1\n      swap2\n      sub\n      swap1\n      return\n        /* \"contracts/Blockchain_task.sol\":3754:4616  function createCampaign(... */\n    tag_6:\n      tag_48\n      0x04\n      dup1\n      calldatasize\n      sub\n      dup2\n      add\n      swap1\n      tag_49\n      swap2\n      swap1\n      tag_50\n      jump\t// in\n    tag_49:\n      tag_51\n      jump\t// in\n    tag_48:\n      stop\n        /* \"contracts/Blockchain_task.sol\":11269:12724  function getCompletedCampaigns()... */\n    tag_7:\n      callvalue\n      dup1\n      iszero\n      tag_52\n      jumpi\n      0x00\n      dup1\n      revert\n    tag_52:\n      pop\n      tag_53\n      tag_54\n      jump\t// in\n    tag_53:\n      mload(0x40)\n      tag_55\n      swap2\n      swap1\n      tag_56\n      jump\t// in\n    tag_55:\n      mload(0x40)\n      dup1\n      swap2\n      sub\n      swap1\n      return\n        /* \"contracts/Blockchain_task.sol\":5913:7023  function cancelCampaign(uint256 campaignId)... */\n    tag_8:\n      callvalue\n      dup1\n      iszero\n      tag_57\n      jumpi\n      0x00\n      dup1\n      revert\n    tag_57:\n      pop\n      tag_58\n      0x04\n      dup1\n      calldatasize\n      sub\n      dup2\n      add\n      swap1\n      tag_59\n      swap2\n      swap1\n      tag_33\n      jump\t// in\n    tag_59:\n      tag_60\n      jump\t// in\n    tag_58:\n      stop\n        /* \"contracts/Blockchain_task.sol\":9260:9758  function withdrawFees() public onlyOwner activeContract {... */\n    tag_9:\n      callvalue\n      dup1\n      iszero\n      tag_61\n      jumpi\n      0x00\n      dup1\n      revert\n    tag_61:\n      pop\n      tag_62\n      tag_63\n      jump\t// in\n    tag_62:\n      stop\n        /* \"contracts/Blockchain_task.sol\":887:920  uint256 public totalFeesCollected */\n    tag_10:\n      callvalue\n      dup1\n      iszero\n      tag_64\n      jumpi\n      0x00\n      dup1\n      revert\n    tag_64:\n      pop\n      tag_65\n      tag_66\n      jump\t// in\n    tag_65:\n      mload(0x40)\n      tag_67\n      swap2\n      swap1\n      tag_68\n      jump\t// in\n    tag_67:\n      mload(0x40)\n      dup1\n      swap2\n      sub\n      swap1\n      return\n        /* \"contracts/Blockchain_task.sol\":802:828  uint256 public campaignFee */\n    tag_11:\n      callvalue\n      dup1\n      iszero\n      tag_69\n      jumpi\n      0x00\n      dup1\n      revert\n    tag_69:\n      pop\n      tag_70\n      tag_71\n      jump\t// in\n    tag_70:\n      mload(0x40)\n      tag_72\n      swap2\n      swap1\n      tag_68\n      jump\t// in\n    tag_72:\n      mload(0x40)\n      dup1\n      swap2\n      sub\n      swap1\n      return\n        /* \"contracts/Blockchain_task.sol\":16490:16769  function banInvestor(address investor)... */\n    tag_12:\n      callvalue\n      dup1\n      iszero\n      tag_73\n      jumpi\n      0x00\n      dup1\n      revert\n    tag_73:\n      pop\n      tag_74\n      0x04\n      dup1\n      calldatasize\n      sub\n      dup2\n      add\n      swap1\n      tag_75\n      swap2\n      swap1\n      tag_44\n      jump\t// in\n    tag_75:\n      tag_76\n      jump\t// in\n    tag_74:\n      stop\n        /* \"contracts/Blockchain_task.sol\":731:751  address public owner */\n    tag_13:\n      callvalue\n      dup1\n      iszero\n      tag_77\n      jumpi\n      0x00\n      dup1\n      revert\n    tag_77:\n      pop\n      tag_78\n      tag_79\n      jump\t// in\n    tag_78:\n      mload(0x40)\n      tag_80\n      swap2\n      swap1\n      tag_81\n      jump\t// in\n    tag_80:\n      mload(0x40)\n      dup1\n      swap2\n      sub\n      swap1\n      return\n        /* \"contracts/Blockchain_task.sol\":7708:9208  function completeCampaign(uint256 campaignId)... */\n    tag_14:\n      callvalue\n      dup1\n      iszero\n      tag_82\n      jumpi\n      0x00\n      dup1\n      revert\n    tag_82:\n      pop\n      tag_83\n      0x04\n      dup1\n      calldatasize\n      sub\n      dup2\n      add\n      swap1\n      tag_84\n      swap2\n      swap1\n      tag_33\n      jump\t// in\n    tag_84:\n      tag_85\n      jump\t// in\n    tag_83:\n      stop\n        /* \"contracts/Blockchain_task.sol\":16835:17020  function changeOwner(address newOwner) public onlyOwner activeContract {... */\n    tag_15:\n      callvalue\n      dup1\n      iszero\n      tag_86\n      jumpi\n      0x00\n      dup1\n      revert\n    tag_86:\n      pop\n      tag_87\n      0x04\n      dup1\n      calldatasize\n      sub\n      dup2\n      add\n      swap1\n      tag_88\n      swap2\n      swap1\n      tag_44\n      jump\t// in\n    tag_88:\n      tag_89\n      jump\t// in\n    tag_87:\n      stop\n        /* \"contracts/Blockchain_task.sol\":1164:1192  uint256 public bannedCounter */\n    tag_16:\n      callvalue\n      dup1\n      iszero\n      tag_90\n      jumpi\n      0x00\n      dup1\n      revert\n    tag_90:\n      pop\n      tag_91\n      tag_92\n      jump\t// in\n    tag_91:\n      mload(0x40)\n      tag_93\n      swap2\n      swap1\n      tag_68\n      jump\t// in\n    tag_93:\n      mload(0x40)\n      dup1\n      swap2\n      sub\n      swap1\n      return\n        /* \"contracts/Blockchain_task.sol\":14235:15149  function getInvestorsAndShares(uint256 campaignId)... */\n    tag_17:\n      callvalue\n      dup1\n      iszero\n      tag_94\n      jumpi\n      0x00\n      dup1\n      revert\n    tag_94:\n      pop\n      tag_95\n      0x04\n      dup1\n      calldatasize\n      sub\n      dup2\n      add\n      swap1\n      tag_96\n      swap2\n      swap1\n      tag_33\n      jump\t// in\n    tag_96:\n      tag_97\n      jump\t// in\n    tag_95:\n      mload(0x40)\n      tag_98\n      swap3\n      swap2\n      swap1\n      tag_99\n      jump\t// in\n    tag_98:\n      mload(0x40)\n      dup1\n      swap2\n      sub\n      swap1\n      return\n        /* \"contracts/Blockchain_task.sol\":1325:1367  mapping(address => uint256) public refunds */\n    tag_18:\n      callvalue\n      dup1\n      iszero\n      tag_100\n      jumpi\n      0x00\n      dup1\n      revert\n    tag_100:\n      pop\n      tag_101\n      0x04\n      dup1\n      calldatasize\n      sub\n      dup2\n      add\n      swap1\n      tag_102\n      swap2\n      swap1\n      tag_44\n      jump\t// in\n    tag_102:\n      tag_103\n      jump\t// in\n    tag_101:\n      mload(0x40)\n      tag_104\n      swap2\n      swap1\n      tag_68\n      jump\t// in\n    tag_104:\n      mload(0x40)\n      dup1\n      swap2\n      sub\n      swap1\n      return\n        /* \"contracts/Blockchain_task.sol\":1198:1240  mapping(address => bool) public bannedList */\n    tag_19:\n      callvalue\n      dup1\n      iszero\n      tag_105\n      jumpi\n      0x00\n      dup1\n      revert\n    tag_105:\n      pop\n      tag_106\n      0x04\n      dup1\n      calldatasize\n      sub\n      dup2\n      add\n      swap1\n      tag_107\n      swap2\n      swap1\n      tag_44\n      jump\t// in\n    tag_107:\n      tag_108\n      jump\t// in\n    tag_106:\n      mload(0x40)\n      tag_109\n      swap2\n      swap1\n      tag_110\n      jump\t// in\n    tag_109:\n      mload(0x40)\n      dup1\n      swap2\n      sub\n      swap1\n      return\n        /* \"contracts/Blockchain_task.sol\":12777:14136  function getCancelledCampaigns()... */\n    tag_20:\n      callvalue\n      dup1\n      iszero\n      tag_111\n      jumpi\n      0x00\n      dup1\n      revert\n    tag_111:\n      pop\n      tag_112\n      tag_113\n      jump\t// in\n    tag_112:\n      mload(0x40)\n      tag_114\n      swap2\n      swap1\n      tag_56\n      jump\t// in\n    tag_114:\n      mload(0x40)\n      dup1\n      swap2\n      sub\n      swap1\n      return\n        /* \"contracts/Blockchain_task.sol\":9823:11210  function getActiveCampaigns()... */\n    tag_21:\n      callvalue\n      dup1\n      iszero\n      tag_115\n      jumpi\n      0x00\n      dup1\n      revert\n    tag_115:\n      pop\n      tag_116\n      tag_117\n      jump\t// in\n    tag_116:\n      mload(0x40)\n      tag_118\n      swap2\n      swap1\n      tag_56\n      jump\t// in\n    tag_118:\n      mload(0x40)\n      dup1\n      swap2\n      sub\n      swap1\n      return\n        /* \"contracts/Blockchain_task.sol\":1287:1319  address[] public bannedAddresses */\n    tag_22:\n      callvalue\n      dup1\n      iszero\n      tag_119\n      jumpi\n      0x00\n      dup1\n      revert\n    tag_119:\n      pop\n      tag_120\n      0x04\n      dup1\n      calldatasize\n      sub\n      dup2\n      add\n      swap1\n      tag_121\n      swap2\n      swap1\n      tag_33\n      jump\t// in\n    tag_121:\n      tag_122\n      jump\t// in\n    tag_120:\n      mload(0x40)\n      tag_123\n      swap2\n      swap1\n      tag_81\n      jump\t// in\n    tag_123:\n      mload(0x40)\n      dup1\n      swap2\n      sub\n      swap1\n      return\n        /* \"contracts/Blockchain_task.sol\":7074:7652  function refundInvestor(address investor) public notBanned {... */\n    tag_23:\n      callvalue\n      dup1\n      iszero\n      tag_124\n      jumpi\n      0x00\n      dup1\n      revert\n    tag_124:\n      pop\n      tag_125\n      0x04\n      dup1\n      calldatasize\n      sub\n      dup2\n      add\n      swap1\n      tag_126\n      swap2\n      swap1\n      tag_44\n      jump\t// in\n    tag_126:\n      tag_127\n      jump\t// in\n    tag_125:\n      stop\n        /* \"contracts/Blockchain_task.sol\":17075:18371  function destroyContract() public onlyOwner activeContract {... */\n    tag_29:\n        /* \"contracts/Blockchain_task.sol\":2107:2112  owner */\n      0x00\n      dup1\n      sload\n      swap1\n      0x0100\n      exp\n      swap1\n      div\n      0xffffffffffffffffffffffffffffffffffffffff\n      and\n        /* \"contracts/Blockchain_task.sol\":2093:2112  msg.sender == owner */\n      0xffffffffffffffffffffffffffffffffffffffff\n      and\n        /* \"contracts/Blockchain_task.sol\":2093:2103  msg.sender */\n      caller\n        /* \"contracts/Blockchain_task.sol\":2093:2112  msg.sender == owner */\n      0xffffffffffffffffffffffffffffffffffffffff\n      and\n      eq\n        /* \"contracts/Blockchain_task.sol\":2072:2178  require(... */\n      tag_129\n      jumpi\n      mload(0x40)\n      0x08c379a000000000000000000000000000000000000000000000000000000000\n      dup2\n      mstore\n      0x04\n      add\n      tag_130\n      swap1\n      tag_131\n      jump\t// in\n    tag_130:\n      mload(0x40)\n      dup1\n      swap2\n      sub\n      swap1\n      revert\n    tag_129:\n        /* \"contracts/Blockchain_task.sol\":2246:2262  isContractActive */\n      0x09\n      0x00\n      swap1\n      sload\n      swap1\n      0x0100\n      exp\n      swap1\n      div\n      0xff\n      and\n        /* \"contracts/Blockchain_task.sol\":2238:2289  require(isContractActive, \"Contract is not active\") */\n      tag_133\n      jumpi\n      mload(0x40)\n      0x08c379a000000000000000000000000000000000000000000000000000000000\n      dup2\n      mstore\n      0x04\n      add\n      tag_134\n      swap1\n      tag_135\n      jump\t// in\n    tag_134:\n      mload(0x40)\n      dup1\n      swap2\n      sub\n      swap1\n      revert\n    tag_133:\n        /* \"contracts/Blockchain_task.sol\":17209:17218  uint256 i */\n      0x00\n        /* \"contracts/Blockchain_task.sol\":17204:18262  for (uint256 i = 0; i < campaignCounter; i++) {... */\n    tag_137:\n        /* \"contracts/Blockchain_task.sol\":17228:17243  campaignCounter */\n      sload(0x03)\n        /* \"contracts/Blockchain_task.sol\":17224:17225  i */\n      dup2\n        /* \"contracts/Blockchain_task.sol\":17224:17243  i < campaignCounter */\n      lt\n        /* \"contracts/Blockchain_task.sol\":17204:18262  for (uint256 i = 0; i < campaignCounter; i++) {... */\n      iszero\n      tag_138\n      jumpi\n        /* \"contracts/Blockchain_task.sol\":17366:17391  Campaign storage campaign */\n      0x00\n        /* \"contracts/Blockchain_task.sol\":17394:17403  campaigns */\n      0x04\n        /* \"contracts/Blockchain_task.sol\":17394:17406  campaigns[i] */\n      0x00\n        /* \"contracts/Blockchain_task.sol\":17404:17405  i */\n      dup4\n        /* \"contracts/Blockchain_task.sol\":17394:17406  campaigns[i] */\n      dup2\n      mstore\n      0x20\n      add\n      swap1\n      dup2\n      mstore\n      0x20\n      add\n      0x00\n      keccak256\n        /* \"contracts/Blockchain_task.sol\":17366:17406  Campaign storage campaign = campaigns[i] */\n      swap1\n      pop\n        /* \"contracts/Blockchain_task.sol\":17542:17550  campaign */\n      dup1\n        /* \"contracts/Blockchain_task.sol\":17542:17562  campaign.isCancelled */\n      0x06\n      add\n      0x01\n      swap1\n      sload\n      swap1\n      0x0100\n      exp\n      swap1\n      div\n      0xff\n      and\n        /* \"contracts/Blockchain_task.sol\":17542:17586  campaign.isCancelled || campaign.isCompleted */\n      dup1\n      tag_140\n      jumpi\n      pop\n        /* \"contracts/Blockchain_task.sol\":17566:17574  campaign */\n      dup1\n        /* \"contracts/Blockchain_task.sol\":17566:17586  campaign.isCompleted */\n      0x06\n      add\n      0x02\n      swap1\n      sload\n      swap1\n      0x0100\n      exp\n      swap1\n      div\n      0xff\n      and\n        /* \"contracts/Blockchain_task.sol\":17542:17586  campaign.isCancelled || campaign.isCompleted */\n    tag_140:\n        /* \"contracts/Blockchain_task.sol\":17538:17629  if (campaign.isCancelled || campaign.isCompleted) {... */\n      iszero\n      tag_141\n      jumpi\n        /* \"contracts/Blockchain_task.sol\":17606:17614  continue */\n      pop\n      jump(tag_139)\n        /* \"contracts/Blockchain_task.sol\":17538:17629  if (campaign.isCancelled || campaign.isCompleted) {... */\n    tag_141:\n        /* \"contracts/Blockchain_task.sol\":17755:17760  false */\n      0x00\n        /* \"contracts/Blockchain_task.sol\":17735:17743  campaign */\n      dup2\n        /* \"contracts/Blockchain_task.sol\":17735:17752  campaign.isActive */\n      0x06\n      add\n      0x00\n        /* \"contracts/Blockchain_task.sol\":17735:17760  campaign.isActive = false */\n      0x0100\n      exp\n      dup2\n      sload\n      dup2\n      0xff\n      mul\n      not\n      and\n      swap1\n      dup4\n      iszero\n      iszero\n      mul\n      or\n      swap1\n      sstore\n      pop\n        /* \"contracts/Blockchain_task.sol\":17797:17801  true */\n      0x01\n        /* \"contracts/Blockchain_task.sol\":17774:17782  campaign */\n      dup2\n        /* \"contracts/Blockchain_task.sol\":17774:17794  campaign.isCancelled */\n      0x06\n      add\n      0x01\n        /* \"contracts/Blockchain_task.sol\":17774:17801  campaign.isCancelled = true */\n      0x0100\n      exp\n      dup2\n      sload\n      dup2\n      0xff\n      mul\n      not\n      and\n      swap1\n      dup4\n      iszero\n      iszero\n      mul\n      or\n      swap1\n      sstore\n      pop\n        /* \"contracts/Blockchain_task.sol\":17949:17958  uint256 j */\n      0x00\n        /* \"contracts/Blockchain_task.sol\":17944:18252  for (uint256 j = 0; j < campaign.backers.length; j++) {... */\n    tag_142:\n        /* \"contracts/Blockchain_task.sol\":17968:17976  campaign */\n      dup2\n        /* \"contracts/Blockchain_task.sol\":17968:17984  campaign.backers */\n      0x07\n      add\n        /* \"contracts/Blockchain_task.sol\":17968:17991  campaign.backers.length */\n      dup1\n      sload\n      swap1\n      pop\n        /* \"contracts/Blockchain_task.sol\":17964:17965  j */\n      dup2\n        /* \"contracts/Blockchain_task.sol\":17964:17991  j < campaign.backers.length */\n      lt\n        /* \"contracts/Blockchain_task.sol\":17944:18252  for (uint256 j = 0; j < campaign.backers.length; j++) {... */\n      iszero\n      tag_143\n      jumpi\n        /* \"contracts/Blockchain_task.sol\":18016:18030  address backer */\n      0x00\n        /* \"contracts/Blockchain_task.sol\":18033:18041  campaign */\n      dup3\n        /* \"contracts/Blockchain_task.sol\":18033:18049  campaign.backers */\n      0x07\n      add\n        /* \"contracts/Blockchain_task.sol\":18050:18051  j */\n      dup3\n        /* \"contracts/Blockchain_task.sol\":18033:18052  campaign.backers[j] */\n      dup2\n      sload\n      dup2\n      lt\n      tag_145\n      jumpi\n      tag_146\n      tag_147\n      jump\t// in\n    tag_146:\n    tag_145:\n      swap1\n      0x00\n      mstore\n      keccak256(0x00, 0x20)\n      add\n      0x00\n      swap1\n      sload\n      swap1\n      0x0100\n      exp\n      swap1\n      div\n      0xffffffffffffffffffffffffffffffffffffffff\n      and\n        /* \"contracts/Blockchain_task.sol\":18016:18052  address backer = campaign.backers[j] */\n      swap1\n      pop\n        /* \"contracts/Blockchain_task.sol\":18070:18084  uint256 shares */\n      0x00\n        /* \"contracts/Blockchain_task.sol\":18087:18095  campaign */\n      dup4\n        /* \"contracts/Blockchain_task.sol\":18087:18111  campaign.sharesPerBacker */\n      0x08\n      add\n        /* \"contracts/Blockchain_task.sol\":18087:18119  campaign.sharesPerBacker[backer] */\n      0x00\n        /* \"contracts/Blockchain_task.sol\":18112:18118  backer */\n      dup4\n        /* \"contracts/Blockchain_task.sol\":18087:18119  campaign.sharesPerBacker[backer] */\n      0xffffffffffffffffffffffffffffffffffffffff\n      and\n      0xffffffffffffffffffffffffffffffffffffffff\n      and\n      dup2\n      mstore\n      0x20\n      add\n      swap1\n      dup2\n      mstore\n      0x20\n      add\n      0x00\n      keccak256\n      sload\n        /* \"contracts/Blockchain_task.sol\":18070:18119  uint256 shares = campaign.sharesPerBacker[backer] */\n      swap1\n      pop\n        /* \"contracts/Blockchain_task.sol\":18137:18157  uint256 refundAmount */\n      0x00\n        /* \"contracts/Blockchain_task.sol\":18169:18177  campaign */\n      dup5\n        /* \"contracts/Blockchain_task.sol\":18169:18188  campaign.sharePrice */\n      0x03\n      add\n      sload\n        /* \"contracts/Blockchain_task.sol\":18160:18166  shares */\n      dup3\n        /* \"contracts/Blockchain_task.sol\":18160:18188  shares * campaign.sharePrice */\n      tag_149\n      swap2\n      swap1\n      tag_150\n      jump\t// in\n    tag_149:\n        /* \"contracts/Blockchain_task.sol\":18137:18188  uint256 refundAmount = shares * campaign.sharePrice */\n      swap1\n      pop\n        /* \"contracts/Blockchain_task.sol\":18225:18237  refundAmount */\n      dup1\n        /* \"contracts/Blockchain_task.sol\":18206:18213  refunds */\n      0x08\n        /* \"contracts/Blockchain_task.sol\":18206:18221  refunds[backer] */\n      0x00\n        /* \"contracts/Blockchain_task.sol\":18214:18220  backer */\n      dup6\n        /* \"contracts/Blockchain_task.sol\":18206:18221  refunds[backer] */\n      0xffffffffffffffffffffffffffffffffffffffff\n      and\n      0xffffffffffffffffffffffffffffffffffffffff\n      and\n      dup2\n      mstore\n      0x20\n      add\n      swap1\n      dup2\n      mstore\n      0x20\n      add\n      0x00\n      keccak256\n      0x00\n        /* \"contracts/Blockchain_task.sol\":18206:18237  refunds[backer] += refundAmount */\n      dup3\n      dup3\n      sload\n      tag_151\n      swap2\n      swap1\n      tag_152\n      jump\t// in\n    tag_151:\n      swap3\n      pop\n      pop\n      dup2\n      swap1\n      sstore\n      pop\n        /* \"contracts/Blockchain_task.sol\":17998:18252  {... */\n      pop\n      pop\n      pop\n        /* \"contracts/Blockchain_task.sol\":17993:17996  j++ */\n      dup1\n      dup1\n      0x01\n      add\n      swap2\n      pop\n      pop\n        /* \"contracts/Blockchain_task.sol\":17944:18252  for (uint256 j = 0; j < campaign.backers.length; j++) {... */\n      jump(tag_142)\n    tag_143:\n      pop\n        /* \"contracts/Blockchain_task.sol\":17250:18262  {... */\n      pop\n        /* \"contracts/Blockchain_task.sol\":17204:18262  for (uint256 i = 0; i < campaignCounter; i++) {... */\n    tag_139:\n        /* \"contracts/Blockchain_task.sol\":17245:17248  i++ */\n      dup1\n      dup1\n      0x01\n      add\n      swap2\n      pop\n      pop\n        /* \"contracts/Blockchain_task.sol\":17204:18262  for (uint256 i = 0; i < campaignCounter; i++) {... */\n      jump(tag_137)\n    tag_138:\n      pop\n        /* \"contracts/Blockchain_task.sol\":18359:18364  false */\n      0x00\n        /* \"contracts/Blockchain_task.sol\":18340:18356  isContractActive */\n      0x09\n      0x00\n        /* \"contracts/Blockchain_task.sol\":18340:18364  isContractActive = false */\n      0x0100\n      exp\n      dup2\n      sload\n      dup2\n      0xff\n      mul\n      not\n      and\n      swap1\n      dup4\n      iszero\n      iszero\n      mul\n      or\n      swap1\n      sstore\n      pop\n        /* \"contracts/Blockchain_task.sol\":17075:18371  function destroyContract() public onlyOwner activeContract {... */\n      jump\t// out\n        /* \"contracts/Blockchain_task.sol\":1070:1115  mapping(uint256 => Campaign) public campaigns */\n    tag_34:\n      mstore(0x20, 0x04)\n      dup1\n      0x00\n      mstore\n      keccak256(0x00, 0x40)\n      0x00\n      swap2\n      pop\n      swap1\n      pop\n      dup1\n      0x00\n      add\n      sload\n      swap1\n      dup1\n      0x01\n      add\n      0x00\n      swap1\n      sload\n      swap1\n      0x0100\n      exp\n      swap1\n      div\n      0xffffffffffffffffffffffffffffffffffffffff\n      and\n      swap1\n      dup1\n      0x02\n      add\n      dup1\n      sload\n      tag_153\n      swap1\n      tag_154\n      jump\t// in\n    tag_153:\n      dup1\n      0x1f\n      add\n      0x20\n      dup1\n      swap2\n      div\n      mul\n      0x20\n      add\n      mload(0x40)\n      swap1\n      dup2\n      add\n      0x40\n      mstore\n      dup1\n      swap3\n      swap2\n      swap1\n      dup2\n      dup2\n      mstore\n      0x20\n      add\n      dup3\n      dup1\n      sload\n      tag_155\n      swap1\n      tag_154\n      jump\t// in\n    tag_155:\n      dup1\n      iszero\n      tag_156\n      jumpi\n      dup1\n      0x1f\n      lt\n      tag_157\n      jumpi\n      0x0100\n      dup1\n      dup4\n      sload\n      div\n      mul\n      dup4\n      mstore\n      swap2\n      0x20\n      add\n      swap2\n      jump(tag_156)\n    tag_157:\n      dup3\n      add\n      swap2\n      swap1\n      0x00\n      mstore\n      keccak256(0x00, 0x20)\n      swap1\n    tag_158:\n      dup2\n      sload\n      dup2\n      mstore\n      swap1\n      0x01\n      add\n      swap1\n      0x20\n      add\n      dup1\n      dup4\n      gt\n      tag_158\n      jumpi\n      dup3\n      swap1\n      sub\n      0x1f\n      and\n      dup3\n      add\n      swap2\n    tag_156:\n      pop\n      pop\n      pop\n      pop\n      pop\n      swap1\n      dup1\n      0x03\n      add\n      sload\n      swap1\n      dup1\n      0x04\n      add\n      sload\n      swap1\n      dup1\n      0x05\n      add\n      sload\n      swap1\n      dup1\n      0x06\n      add\n      0x00\n      swap1\n      sload\n      swap1\n      0x0100\n      exp\n      swap1\n      div\n      0xff\n      and\n      swap1\n      dup1\n      0x06\n      add\n      0x01\n      swap1\n      sload\n      swap1\n      0x0100\n      exp\n      swap1\n      div\n      0xff\n      and\n      swap1\n      dup1\n      0x06\n      add\n      0x02\n      swap1\n      sload\n      swap1\n      0x0100\n      exp\n      swap1\n      div\n      0xff\n      and\n      swap1\n      pop\n      dup10\n      jump\t// out\n        /* \"contracts/Blockchain_task.sol\":4678:5863  function campaignFunding(uint256 numberOfShares, uint256 campaignId)... */\n    tag_40:\n        /* \"contracts/Blockchain_task.sol\":2378:2383  owner */\n      0x00\n      dup1\n      sload\n      swap1\n      0x0100\n      exp\n      swap1\n      div\n      0xffffffffffffffffffffffffffffffffffffffff\n      and\n        /* \"contracts/Blockchain_task.sol\":2364:2383  msg.sender != owner */\n      0xffffffffffffffffffffffffffffffffffffffff\n      and\n        /* \"contracts/Blockchain_task.sol\":2364:2374  msg.sender */\n      caller\n        /* \"contracts/Blockchain_task.sol\":2364:2383  msg.sender != owner */\n      0xffffffffffffffffffffffffffffffffffffffff\n      and\n      sub\n        /* \"contracts/Blockchain_task.sol\":2343:2457  require(... */\n      tag_160\n      jumpi\n      mload(0x40)\n      0x08c379a000000000000000000000000000000000000000000000000000000000\n      dup2\n      mstore\n      0x04\n      add\n      tag_161\n      swap1\n      tag_162\n      jump\t// in\n    tag_161:\n      mload(0x40)\n      dup1\n      swap2\n      sub\n      swap1\n      revert\n    tag_160:\n        /* \"contracts/Blockchain_task.sol\":2521:2531  bannedList */\n      0x06\n        /* \"contracts/Blockchain_task.sol\":2521:2543  bannedList[msg.sender] */\n      0x00\n        /* \"contracts/Blockchain_task.sol\":2532:2542  msg.sender */\n      caller\n        /* \"contracts/Blockchain_task.sol\":2521:2543  bannedList[msg.sender] */\n      0xffffffffffffffffffffffffffffffffffffffff\n      and\n      0xffffffffffffffffffffffffffffffffffffffff\n      and\n      dup2\n      mstore\n      0x20\n      add\n      swap1\n      dup2\n      mstore\n      0x20\n      add\n      0x00\n      keccak256\n      0x00\n      swap1\n      sload\n      swap1\n      0x0100\n      exp\n      swap1\n      div\n      0xff\n      and\n        /* \"contracts/Blockchain_task.sol\":2520:2543  !bannedList[msg.sender] */\n      iszero\n        /* \"contracts/Blockchain_task.sol\":2512:2565  require(!bannedList[msg.sender], \"Address is banned\") */\n      tag_164\n      jumpi\n      mload(0x40)\n      0x08c379a000000000000000000000000000000000000000000000000000000000\n      dup2\n      mstore\n      0x04\n      add\n      tag_165\n      swap1\n      tag_166\n      jump\t// in\n    tag_165:\n      mload(0x40)\n      dup1\n      swap2\n      sub\n      swap1\n      revert\n    tag_164:\n        /* \"contracts/Blockchain_task.sol\":4836:4846  campaignId */\n      dup1\n        /* \"contracts/Blockchain_task.sol\":2651:2660  campaigns */\n      0x04\n        /* \"contracts/Blockchain_task.sol\":2651:2672  campaigns[campaignId] */\n      0x00\n        /* \"contracts/Blockchain_task.sol\":2661:2671  campaignId */\n      dup3\n        /* \"contracts/Blockchain_task.sol\":2651:2672  campaigns[campaignId] */\n      dup2\n      mstore\n      0x20\n      add\n      swap1\n      dup2\n      mstore\n      0x20\n      add\n      0x00\n      keccak256\n        /* \"contracts/Blockchain_task.sol\":2651:2681  campaigns[campaignId].isActive */\n      0x06\n      add\n      0x00\n      swap1\n      sload\n      swap1\n      0x0100\n      exp\n      swap1\n      div\n      0xff\n      and\n        /* \"contracts/Blockchain_task.sol\":2643:2708  require(campaigns[campaignId].isActive, \"Campaign is not active\") */\n      tag_168\n      jumpi\n      mload(0x40)\n      0x08c379a000000000000000000000000000000000000000000000000000000000\n      dup2\n      mstore\n      0x04\n      add\n      tag_169\n      swap1\n      tag_170\n      jump\t// in\n    tag_169:\n      mload(0x40)\n      dup1\n      swap2\n      sub\n      swap1\n      revert\n    tag_168:\n        /* \"contracts/Blockchain_task.sol\":4869:4879  campaignId */\n      dup2\n        /* \"contracts/Blockchain_task.sol\":2793:2802  campaigns */\n      0x04\n        /* \"contracts/Blockchain_task.sol\":2793:2814  campaigns[campaignId] */\n      0x00\n        /* \"contracts/Blockchain_task.sol\":2803:2813  campaignId */\n      dup3\n        /* \"contracts/Blockchain_task.sol\":2793:2814  campaigns[campaignId] */\n      dup2\n      mstore\n      0x20\n      add\n      swap1\n      dup2\n      mstore\n      0x20\n      add\n      0x00\n      keccak256\n        /* \"contracts/Blockchain_task.sol\":2793:2826  campaigns[campaignId].isCancelled */\n      0x06\n      add\n      0x01\n      swap1\n      sload\n      swap1\n      0x0100\n      exp\n      swap1\n      div\n      0xff\n      and\n        /* \"contracts/Blockchain_task.sol\":2792:2826  !campaigns[campaignId].isCancelled */\n      iszero\n        /* \"contracts/Blockchain_task.sol\":2784:2852  require(!campaigns[campaignId].isCancelled, \"Campaign is cancelled\") */\n      tag_172\n      jumpi\n      mload(0x40)\n      0x08c379a000000000000000000000000000000000000000000000000000000000\n      dup2\n      mstore\n      0x04\n      add\n      tag_173\n      swap1\n      tag_174\n      jump\t// in\n    tag_173:\n      mload(0x40)\n      dup1\n      swap2\n      sub\n      swap1\n      revert\n    tag_172:\n        /* \"contracts/Blockchain_task.sol\":4902:4912  campaignId */\n      dup3\n        /* \"contracts/Blockchain_task.sol\":2950:2959  campaigns */\n      0x04\n        /* \"contracts/Blockchain_task.sol\":2950:2971  campaigns[campaignId] */\n      0x00\n        /* \"contracts/Blockchain_task.sol\":2960:2970  campaignId */\n      dup3\n        /* \"contracts/Blockchain_task.sol\":2950:2971  campaigns[campaignId] */\n      dup2\n      mstore\n      0x20\n      add\n      swap1\n      dup2\n      mstore\n      0x20\n      add\n      0x00\n      keccak256\n        /* \"contracts/Blockchain_task.sol\":2950:2983  campaigns[campaignId].isCompleted */\n      0x06\n      add\n      0x02\n      swap1\n      sload\n      swap1\n      0x0100\n      exp\n      swap1\n      div\n      0xff\n      and\n        /* \"contracts/Blockchain_task.sol\":2949:2983  !campaigns[campaignId].isCompleted */\n      iszero\n        /* \"contracts/Blockchain_task.sol\":2928:3038  require(... */\n      tag_176\n      jumpi\n      mload(0x40)\n      0x08c379a000000000000000000000000000000000000000000000000000000000\n      dup2\n      mstore\n      0x04\n      add\n      tag_177\n      swap1\n      tag_178\n      jump\t// in\n    tag_177:\n      mload(0x40)\n      dup1\n      swap2\n      sub\n      swap1\n      revert\n    tag_176:\n        /* \"contracts/Blockchain_task.sol\":2246:2262  isContractActive */\n      0x09\n      0x00\n      swap1\n      sload\n      swap1\n      0x0100\n      exp\n      swap1\n      div\n      0xff\n      and\n        /* \"contracts/Blockchain_task.sol\":2238:2289  require(isContractActive, \"Contract is not active\") */\n      tag_180\n      jumpi\n      mload(0x40)\n      0x08c379a000000000000000000000000000000000000000000000000000000000\n      dup2\n      mstore\n      0x04\n      add\n      tag_181\n      swap1\n      tag_135\n      jump\t// in\n    tag_181:\n      mload(0x40)\n      dup1\n      swap2\n      sub\n      swap1\n      revert\n    tag_180:\n        /* \"contracts/Blockchain_task.sol\":5049:5074  Campaign storage campaign */\n      0x00\n        /* \"contracts/Blockchain_task.sol\":5077:5086  campaigns */\n      0x04\n        /* \"contracts/Blockchain_task.sol\":5077:5098  campaigns[campaignId] */\n      0x00\n        /* \"contracts/Blockchain_task.sol\":5087:5097  campaignId */\n      dup7\n        /* \"contracts/Blockchain_task.sol\":5077:5098  campaigns[campaignId] */\n      dup2\n      mstore\n      0x20\n      add\n      swap1\n      dup2\n      mstore\n      0x20\n      add\n      0x00\n      keccak256\n        /* \"contracts/Blockchain_task.sol\":5049:5098  Campaign storage campaign = campaigns[campaignId] */\n      swap1\n      pop\n        /* \"contracts/Blockchain_task.sol\":5143:5151  campaign */\n      dup1\n        /* \"contracts/Blockchain_task.sol\":5143:5164  campaign.entrepreneur */\n      0x01\n      add\n      0x00\n      swap1\n      sload\n      swap1\n      0x0100\n      exp\n      swap1\n      div\n      0xffffffffffffffffffffffffffffffffffffffff\n      and\n        /* \"contracts/Blockchain_task.sol\":5129:5164  msg.sender != campaign.entrepreneur */\n      0xffffffffffffffffffffffffffffffffffffffff\n      and\n        /* \"contracts/Blockchain_task.sol\":5129:5139  msg.sender */\n      caller\n        /* \"contracts/Blockchain_task.sol\":5129:5164  msg.sender != campaign.entrepreneur */\n      0xffffffffffffffffffffffffffffffffffffffff\n      and\n      sub\n        /* \"contracts/Blockchain_task.sol\":5108:5217  require(... */\n      tag_183\n      jumpi\n      mload(0x40)\n      0x08c379a000000000000000000000000000000000000000000000000000000000\n      dup2\n      mstore\n      0x04\n      add\n      tag_184\n      swap1\n      tag_185\n      jump\t// in\n    tag_184:\n      mload(0x40)\n      dup1\n      swap2\n      sub\n      swap1\n      revert\n    tag_183:\n        /* \"contracts/Blockchain_task.sol\":5228:5245  uint256 totalCost */\n      0x00\n        /* \"contracts/Blockchain_task.sol\":5270:5284  numberOfShares */\n      dup7\n        /* \"contracts/Blockchain_task.sol\":5248:5256  campaign */\n      dup3\n        /* \"contracts/Blockchain_task.sol\":5248:5267  campaign.sharePrice */\n      0x03\n      add\n      sload\n        /* \"contracts/Blockchain_task.sol\":5248:5284  campaign.sharePrice * numberOfShares */\n      tag_186\n      swap2\n      swap1\n      tag_150\n      jump\t// in\n    tag_186:\n        /* \"contracts/Blockchain_task.sol\":5228:5284  uint256 totalCost = campaign.sharePrice * numberOfShares */\n      swap1\n      pop\n        /* \"contracts/Blockchain_task.sol\":5316:5325  totalCost */\n      dup1\n        /* \"contracts/Blockchain_task.sol\":5303:5312  msg.value */\n      callvalue\n        /* \"contracts/Blockchain_task.sol\":5303:5325  msg.value == totalCost */\n      eq\n        /* \"contracts/Blockchain_task.sol\":5295:5354  require(msg.value == totalCost, \"Incorrect Wei value sent\") */\n      tag_187\n      jumpi\n      mload(0x40)\n      0x08c379a000000000000000000000000000000000000000000000000000000000\n      dup2\n      mstore\n      0x04\n      add\n      tag_188\n      swap1\n      tag_189\n      jump\t// in\n    tag_188:\n      mload(0x40)\n      dup1\n      swap2\n      sub\n      swap1\n      revert\n    tag_187:\n        /* \"contracts/Blockchain_task.sol\":5593:5607  numberOfShares */\n      dup7\n        /* \"contracts/Blockchain_task.sol\":5567:5575  campaign */\n      dup3\n        /* \"contracts/Blockchain_task.sol\":5567:5589  campaign.currentShares */\n      0x05\n      add\n      0x00\n        /* \"contracts/Blockchain_task.sol\":5567:5607  campaign.currentShares += numberOfShares */\n      dup3\n      dup3\n      sload\n      tag_190\n      swap2\n      swap1\n      tag_152\n      jump\t// in\n    tag_190:\n      swap3\n      pop\n      pop\n      dup2\n      swap1\n      sstore\n      pop\n        /* \"contracts/Blockchain_task.sol\":5661:5662  0 */\n      0x00\n        /* \"contracts/Blockchain_task.sol\":5621:5629  campaign */\n      dup3\n        /* \"contracts/Blockchain_task.sol\":5621:5645  campaign.sharesPerBacker */\n      0x08\n      add\n        /* \"contracts/Blockchain_task.sol\":5621:5657  campaign.sharesPerBacker[msg.sender] */\n      0x00\n        /* \"contracts/Blockchain_task.sol\":5646:5656  msg.sender */\n      caller\n        /* \"contracts/Blockchain_task.sol\":5621:5657  campaign.sharesPerBacker[msg.sender] */\n      0xffffffffffffffffffffffffffffffffffffffff\n      and\n      0xffffffffffffffffffffffffffffffffffffffff\n      and\n      dup2\n      mstore\n      0x20\n      add\n      swap1\n      dup2\n      mstore\n      0x20\n      add\n      0x00\n      keccak256\n      sload\n        /* \"contracts/Blockchain_task.sol\":5621:5662  campaign.sharesPerBacker[msg.sender] == 0 */\n      sub\n        /* \"contracts/Blockchain_task.sol\":5617:5722  if (campaign.sharesPerBacker[msg.sender] == 0) {... */\n      tag_191\n      jumpi\n        /* \"contracts/Blockchain_task.sol\":5678:5686  campaign */\n      dup2\n        /* \"contracts/Blockchain_task.sol\":5678:5694  campaign.backers */\n      0x07\n      add\n        /* \"contracts/Blockchain_task.sol\":5700:5710  msg.sender */\n      caller\n        /* \"contracts/Blockchain_task.sol\":5678:5711  campaign.backers.push(msg.sender) */\n      swap1\n      dup1\n      0x01\n      dup2\n      sload\n      add\n      dup1\n      dup3\n      sstore\n      dup1\n      swap2\n      pop\n      pop\n      0x01\n      swap1\n      sub\n      swap1\n      0x00\n      mstore\n      keccak256(0x00, 0x20)\n      add\n      0x00\n      swap1\n      swap2\n      swap1\n      swap2\n      swap1\n      swap2\n      0x0100\n      exp\n      dup2\n      sload\n      dup2\n      0xffffffffffffffffffffffffffffffffffffffff\n      mul\n      not\n      and\n      swap1\n      dup4\n      0xffffffffffffffffffffffffffffffffffffffff\n      and\n      mul\n      or\n      swap1\n      sstore\n      pop\n        /* \"contracts/Blockchain_task.sol\":5617:5722  if (campaign.sharesPerBacker[msg.sender] == 0) {... */\n    tag_191:\n        /* \"contracts/Blockchain_task.sol\":5771:5785  numberOfShares */\n      dup7\n        /* \"contracts/Blockchain_task.sol\":5731:5739  campaign */\n      dup3\n        /* \"contracts/Blockchain_task.sol\":5731:5755  campaign.sharesPerBacker */\n      0x08\n      add\n        /* \"contracts/Blockchain_task.sol\":5731:5767  campaign.sharesPerBacker[msg.sender] */\n      0x00\n        /* \"contracts/Blockchain_task.sol\":5756:5766  msg.sender */\n      caller\n        /* \"contracts/Blockchain_task.sol\":5731:5767  campaign.sharesPerBacker[msg.sender] */\n      0xffffffffffffffffffffffffffffffffffffffff\n      and\n      0xffffffffffffffffffffffffffffffffffffffff\n      and\n      dup2\n      mstore\n      0x20\n      add\n      swap1\n      dup2\n      mstore\n      0x20\n      add\n      0x00\n      keccak256\n      0x00\n        /* \"contracts/Blockchain_task.sol\":5731:5785  campaign.sharesPerBacker[msg.sender] += numberOfShares */\n      dup3\n      dup3\n      sload\n      tag_193\n      swap2\n      swap1\n      tag_152\n      jump\t// in\n    tag_193:\n      swap3\n      pop\n      pop\n      dup2\n      swap1\n      sstore\n      pop\n        /* \"contracts/Blockchain_task.sol\":5801:5856  SharesPurchased(campaignId, msg.sender, numberOfShares) */\n      0xd4a7a37d339805413b4085e0f8e0932dfb0a4f84f08f98a6e53673b5ee8eee15\n        /* \"contracts/Blockchain_task.sol\":5817:5827  campaignId */\n      dup7\n        /* \"contracts/Blockchain_task.sol\":5829:5839  msg.sender */\n      caller\n        /* \"contracts/Blockchain_task.sol\":5841:5855  numberOfShares */\n      dup10\n        /* \"contracts/Blockchain_task.sol\":5801:5856  SharesPurchased(campaignId, msg.sender, numberOfShares) */\n      mload(0x40)\n      tag_194\n      swap4\n      swap3\n      swap2\n      swap1\n      tag_195\n      jump\t// in\n    tag_194:\n      mload(0x40)\n      dup1\n      swap2\n      sub\n      swap1\n      log1\n        /* \"contracts/Blockchain_task.sol\":4941:5863  {... */\n      pop\n      pop\n        /* \"contracts/Blockchain_task.sol\":2862:2863  _ */\n      pop\n        /* \"contracts/Blockchain_task.sol\":2718:2719  _ */\n      pop\n        /* \"contracts/Blockchain_task.sol\":2575:2576  _ */\n      pop\n        /* \"contracts/Blockchain_task.sol\":4678:5863  function campaignFunding(uint256 numberOfShares, uint256 campaignId)... */\n      pop\n      pop\n      jump\t// out\n        /* \"contracts/Blockchain_task.sol\":15246:16437  function getInvestmentsByInvestor(address investor)... */\n    tag_45:\n        /* \"contracts/Blockchain_task.sol\":15343:15371  uint256[] memory campaignIds */\n      0x60\n        /* \"contracts/Blockchain_task.sol\":15373:15396  uint256[] memory shares */\n      dup1\n        /* \"contracts/Blockchain_task.sol\":15412:15435  uint256 investmentCount */\n      0x00\n        /* \"contracts/Blockchain_task.sol\":15550:15559  uint256 i */\n      dup1\n        /* \"contracts/Blockchain_task.sol\":15545:15713  for (uint256 i = 0; i < campaignCounter; i++) {... */\n    tag_197:\n        /* \"contracts/Blockchain_task.sol\":15569:15584  campaignCounter */\n      sload(0x03)\n        /* \"contracts/Blockchain_task.sol\":15565:15566  i */\n      dup2\n        /* \"contracts/Blockchain_task.sol\":15565:15584  i < campaignCounter */\n      lt\n        /* \"contracts/Blockchain_task.sol\":15545:15713  for (uint256 i = 0; i < campaignCounter; i++) {... */\n      iszero\n      tag_198\n      jumpi\n        /* \"contracts/Blockchain_task.sol\":15650:15651  0 */\n      0x00\n        /* \"contracts/Blockchain_task.sol\":15609:15618  campaigns */\n      0x04\n        /* \"contracts/Blockchain_task.sol\":15609:15621  campaigns[i] */\n      0x00\n        /* \"contracts/Blockchain_task.sol\":15619:15620  i */\n      dup4\n        /* \"contracts/Blockchain_task.sol\":15609:15621  campaigns[i] */\n      dup2\n      mstore\n      0x20\n      add\n      swap1\n      dup2\n      mstore\n      0x20\n      add\n      0x00\n      keccak256\n        /* \"contracts/Blockchain_task.sol\":15609:15637  campaigns[i].sharesPerBacker */\n      0x08\n      add\n        /* \"contracts/Blockchain_task.sol\":15609:15647  campaigns[i].sharesPerBacker[investor] */\n      0x00\n        /* \"contracts/Blockchain_task.sol\":15638:15646  investor */\n      dup8\n        /* \"contracts/Blockchain_task.sol\":15609:15647  campaigns[i].sharesPerBacker[investor] */\n      0xffffffffffffffffffffffffffffffffffffffff\n      and\n      0xffffffffffffffffffffffffffffffffffffffff\n      and\n      dup2\n      mstore\n      0x20\n      add\n      swap1\n      dup2\n      mstore\n      0x20\n      add\n      0x00\n      keccak256\n      sload\n        /* \"contracts/Blockchain_task.sol\":15609:15651  campaigns[i].sharesPerBacker[investor] > 0 */\n      gt\n        /* \"contracts/Blockchain_task.sol\":15605:15703  if (campaigns[i].sharesPerBacker[investor] > 0) {... */\n      iszero\n      tag_200\n      jumpi\n        /* \"contracts/Blockchain_task.sol\":15671:15688  investmentCount++ */\n      dup2\n      dup1\n      tag_201\n      swap1\n      tag_202\n      jump\t// in\n    tag_201:\n      swap3\n      pop\n      pop\n        /* \"contracts/Blockchain_task.sol\":15605:15703  if (campaigns[i].sharesPerBacker[investor] > 0) {... */\n    tag_200:\n        /* \"contracts/Blockchain_task.sol\":15586:15589  i++ */\n      dup1\n      dup1\n      0x01\n      add\n      swap2\n      pop\n      pop\n        /* \"contracts/Blockchain_task.sol\":15545:15713  for (uint256 i = 0; i < campaignCounter; i++) {... */\n      jump(tag_197)\n    tag_198:\n      pop\n        /* \"contracts/Blockchain_task.sol\":15852:15867  investmentCount */\n      dup1\n        /* \"contracts/Blockchain_task.sol\":15838:15868  new uint256[](investmentCount) */\n      0xffffffffffffffff\n      dup2\n      gt\n      iszero\n      tag_203\n      jumpi\n      tag_204\n      tag_205\n      jump\t// in\n    tag_204:\n    tag_203:\n      mload(0x40)\n      swap1\n      dup1\n      dup3\n      mstore\n      dup1\n      0x20\n      mul\n      0x20\n      add\n      dup3\n      add\n      0x40\n      mstore\n      dup1\n      iszero\n      tag_206\n      jumpi\n      dup2\n      0x20\n      add\n      0x20\n      dup3\n      mul\n      dup1\n      calldatasize\n      dup4\n      calldatacopy\n      dup1\n      dup3\n      add\n      swap2\n      pop\n      pop\n      swap1\n      pop\n    tag_206:\n      pop\n        /* \"contracts/Blockchain_task.sol\":15824:15868  campaignIds = new uint256[](investmentCount) */\n      swap3\n      pop\n        /* \"contracts/Blockchain_task.sol\":15901:15916  investmentCount */\n      dup1\n        /* \"contracts/Blockchain_task.sol\":15887:15917  new uint256[](investmentCount) */\n      0xffffffffffffffff\n      dup2\n      gt\n      iszero\n      tag_207\n      jumpi\n      tag_208\n      tag_205\n      jump\t// in\n    tag_208:\n    tag_207:\n      mload(0x40)\n      swap1\n      dup1\n      dup3\n      mstore\n      dup1\n      0x20\n      mul\n      0x20\n      add\n      dup3\n      add\n      0x40\n      mstore\n      dup1\n      iszero\n      tag_209\n      jumpi\n      dup2\n      0x20\n      add\n      0x20\n      dup3\n      mul\n      dup1\n      calldatasize\n      dup4\n      calldatacopy\n      dup1\n      dup3\n      add\n      swap2\n      pop\n      pop\n      swap1\n      pop\n    tag_209:\n      pop\n        /* \"contracts/Blockchain_task.sol\":15878:15917  shares = new uint256[](investmentCount) */\n      swap2\n      pop\n        /* \"contracts/Blockchain_task.sol\":16066:16079  uint256 index */\n      0x00\n        /* \"contracts/Blockchain_task.sol\":16098:16107  uint256 i */\n      dup1\n        /* \"contracts/Blockchain_task.sol\":16093:16392  for (uint256 i = 0; i < campaignCounter; i++) {... */\n    tag_210:\n        /* \"contracts/Blockchain_task.sol\":16117:16132  campaignCounter */\n      sload(0x03)\n        /* \"contracts/Blockchain_task.sol\":16113:16114  i */\n      dup2\n        /* \"contracts/Blockchain_task.sol\":16113:16132  i < campaignCounter */\n      lt\n        /* \"contracts/Blockchain_task.sol\":16093:16392  for (uint256 i = 0; i < campaignCounter; i++) {... */\n      iszero\n      tag_211\n      jumpi\n        /* \"contracts/Blockchain_task.sol\":16153:16175  uint256 investorShares */\n      0x00\n        /* \"contracts/Blockchain_task.sol\":16178:16187  campaigns */\n      0x04\n        /* \"contracts/Blockchain_task.sol\":16178:16190  campaigns[i] */\n      0x00\n        /* \"contracts/Blockchain_task.sol\":16188:16189  i */\n      dup4\n        /* \"contracts/Blockchain_task.sol\":16178:16190  campaigns[i] */\n      dup2\n      mstore\n      0x20\n      add\n      swap1\n      dup2\n      mstore\n      0x20\n      add\n      0x00\n      keccak256\n        /* \"contracts/Blockchain_task.sol\":16178:16206  campaigns[i].sharesPerBacker */\n      0x08\n      add\n        /* \"contracts/Blockchain_task.sol\":16178:16216  campaigns[i].sharesPerBacker[investor] */\n      0x00\n        /* \"contracts/Blockchain_task.sol\":16207:16215  investor */\n      dup9\n        /* \"contracts/Blockchain_task.sol\":16178:16216  campaigns[i].sharesPerBacker[investor] */\n      0xffffffffffffffffffffffffffffffffffffffff\n      and\n      0xffffffffffffffffffffffffffffffffffffffff\n      and\n      dup2\n      mstore\n      0x20\n      add\n      swap1\n      dup2\n      mstore\n      0x20\n      add\n      0x00\n      keccak256\n      sload\n        /* \"contracts/Blockchain_task.sol\":16153:16216  uint256 investorShares = campaigns[i].sharesPerBacker[investor] */\n      swap1\n      pop\n        /* \"contracts/Blockchain_task.sol\":16251:16252  0 */\n      0x00\n        /* \"contracts/Blockchain_task.sol\":16234:16248  investorShares */\n      dup2\n        /* \"contracts/Blockchain_task.sol\":16234:16252  investorShares > 0 */\n      gt\n        /* \"contracts/Blockchain_task.sol\":16230:16382  if (investorShares > 0) {... */\n      iszero\n      tag_213\n      jumpi\n        /* \"contracts/Blockchain_task.sol\":16293:16294  i */\n      dup2\n        /* \"contracts/Blockchain_task.sol\":16272:16283  campaignIds */\n      dup7\n        /* \"contracts/Blockchain_task.sol\":16284:16289  index */\n      dup5\n        /* \"contracts/Blockchain_task.sol\":16272:16290  campaignIds[index] */\n      dup2\n      mload\n      dup2\n      lt\n      tag_214\n      jumpi\n      tag_215\n      tag_147\n      jump\t// in\n    tag_215:\n    tag_214:\n      0x20\n      mul\n      0x20\n      add\n      add\n        /* \"contracts/Blockchain_task.sol\":16272:16294  campaignIds[index] = i */\n      dup2\n      dup2\n      mstore\n      pop\n      pop\n        /* \"contracts/Blockchain_task.sol\":16328:16342  investorShares */\n      dup1\n        /* \"contracts/Blockchain_task.sol\":16312:16318  shares */\n      dup6\n        /* \"contracts/Blockchain_task.sol\":16319:16324  index */\n      dup5\n        /* \"contracts/Blockchain_task.sol\":16312:16325  shares[index] */\n      dup2\n      mload\n      dup2\n      lt\n      tag_216\n      jumpi\n      tag_217\n      tag_147\n      jump\t// in\n    tag_217:\n    tag_216:\n      0x20\n      mul\n      0x20\n      add\n      add\n        /* \"contracts/Blockchain_task.sol\":16312:16342  shares[index] = investorShares */\n      dup2\n      dup2\n      mstore\n      pop\n      pop\n        /* \"contracts/Blockchain_task.sol\":16360:16367  index++ */\n      dup3\n      dup1\n      tag_218\n      swap1\n      tag_202\n      jump\t// in\n    tag_218:\n      swap4\n      pop\n      pop\n        /* \"contracts/Blockchain_task.sol\":16230:16382  if (investorShares > 0) {... */\n    tag_213:\n        /* \"contracts/Blockchain_task.sol\":16139:16392  {... */\n      pop\n        /* \"contracts/Blockchain_task.sol\":16134:16137  i++ */\n      dup1\n      dup1\n      0x01\n      add\n      swap2\n      pop\n      pop\n        /* \"contracts/Blockchain_task.sol\":16093:16392  for (uint256 i = 0; i < campaignCounter; i++) {... */\n      jump(tag_210)\n    tag_211:\n      pop\n        /* \"contracts/Blockchain_task.sol\":16402:16430  return (campaignIds, shares) */\n      pop\n      pop\n        /* \"contracts/Blockchain_task.sol\":15246:16437  function getInvestmentsByInvestor(address investor)... */\n      swap2\n      pop\n      swap2\n      jump\t// out\n        /* \"contracts/Blockchain_task.sol\":3754:4616  function createCampaign(... */\n    tag_51:\n        /* \"contracts/Blockchain_task.sol\":2378:2383  owner */\n      0x00\n      dup1\n      sload\n      swap1\n      0x0100\n      exp\n      swap1\n      div\n      0xffffffffffffffffffffffffffffffffffffffff\n      and\n        /* \"contracts/Blockchain_task.sol\":2364:2383  msg.sender != owner */\n      0xffffffffffffffffffffffffffffffffffffffff\n      and\n        /* \"contracts/Blockchain_task.sol\":2364:2374  msg.sender */\n      caller\n        /* \"contracts/Blockchain_task.sol\":2364:2383  msg.sender != owner */\n      0xffffffffffffffffffffffffffffffffffffffff\n      and\n      sub\n        /* \"contracts/Blockchain_task.sol\":2343:2457  require(... */\n      tag_220\n      jumpi\n      mload(0x40)\n      0x08c379a000000000000000000000000000000000000000000000000000000000\n      dup2\n      mstore\n      0x04\n      add\n      tag_221\n      swap1\n      tag_162\n      jump\t// in\n    tag_221:\n      mload(0x40)\n      dup1\n      swap2\n      sub\n      swap1\n      revert\n    tag_220:\n        /* \"contracts/Blockchain_task.sol\":2521:2531  bannedList */\n      0x06\n        /* \"contracts/Blockchain_task.sol\":2521:2543  bannedList[msg.sender] */\n      0x00\n        /* \"contracts/Blockchain_task.sol\":2532:2542  msg.sender */\n      caller\n        /* \"contracts/Blockchain_task.sol\":2521:2543  bannedList[msg.sender] */\n      0xffffffffffffffffffffffffffffffffffffffff\n      and\n      0xffffffffffffffffffffffffffffffffffffffff\n      and\n      dup2\n      mstore\n      0x20\n      add\n      swap1\n      dup2\n      mstore\n      0x20\n      add\n      0x00\n      keccak256\n      0x00\n      swap1\n      sload\n      swap1\n      0x0100\n      exp\n      swap1\n      div\n      0xff\n      and\n        /* \"contracts/Blockchain_task.sol\":2520:2543  !bannedList[msg.sender] */\n      iszero\n        /* \"contracts/Blockchain_task.sol\":2512:2565  require(!bannedList[msg.sender], \"Address is banned\") */\n      tag_223\n      jumpi\n      mload(0x40)\n      0x08c379a000000000000000000000000000000000000000000000000000000000\n      dup2\n      mstore\n      0x04\n      add\n      tag_224\n      swap1\n      tag_166\n      jump\t// in\n    tag_224:\n      mload(0x40)\n      dup1\n      swap2\n      sub\n      swap1\n      revert\n    tag_223:\n        /* \"contracts/Blockchain_task.sol\":3113:3124  campaignFee */\n      sload(0x01)\n        /* \"contracts/Blockchain_task.sol\":3100:3109  msg.value */\n      callvalue\n        /* \"contracts/Blockchain_task.sol\":3100:3124  msg.value == campaignFee */\n      eq\n        /* \"contracts/Blockchain_task.sol\":3092:3151  require(msg.value == campaignFee, \"Incorrect campaign fee\") */\n      tag_226\n      jumpi\n      mload(0x40)\n      0x08c379a000000000000000000000000000000000000000000000000000000000\n      dup2\n      mstore\n      0x04\n      add\n      tag_227\n      swap1\n      tag_228\n      jump\t// in\n    tag_227:\n      mload(0x40)\n      dup1\n      swap2\n      sub\n      swap1\n      revert\n    tag_226:\n        /* \"contracts/Blockchain_task.sol\":3974:3985  totalShares */\n      dup1\n        /* \"contracts/Blockchain_task.sol\":3240:3241  0 */\n      0x00\n        /* \"contracts/Blockchain_task.sol\":3231:3237  shares */\n      dup2\n        /* \"contracts/Blockchain_task.sol\":3231:3241  shares > 0 */\n      gt\n        /* \"contracts/Blockchain_task.sol\":3223:3284  require(shares > 0, \"Total shares must be greater than zero\") */\n      tag_230\n      jumpi\n      mload(0x40)\n      0x08c379a000000000000000000000000000000000000000000000000000000000\n      dup2\n      mstore\n      0x04\n      add\n      tag_231\n      swap1\n      tag_232\n      jump\t// in\n    tag_231:\n      mload(0x40)\n      dup1\n      swap2\n      sub\n      swap1\n      revert\n    tag_230:\n        /* \"contracts/Blockchain_task.sol\":2246:2262  isContractActive */\n      0x09\n      0x00\n      swap1\n      sload\n      swap1\n      0x0100\n      exp\n      swap1\n      div\n      0xff\n      and\n        /* \"contracts/Blockchain_task.sol\":2238:2289  require(isContractActive, \"Contract is not active\") */\n      tag_234\n      jumpi\n      mload(0x40)\n      0x08c379a000000000000000000000000000000000000000000000000000000000\n      dup2\n      mstore\n      0x04\n      add\n      tag_235\n      swap1\n      tag_135\n      jump\t// in\n    tag_235:\n      mload(0x40)\n      dup1\n      swap2\n      sub\n      swap1\n      revert\n    tag_234:\n        /* \"contracts/Blockchain_task.sol\":4153:4181  Campaign storage newCampaign */\n      0x00\n        /* \"contracts/Blockchain_task.sol\":4184:4193  campaigns */\n      0x04\n        /* \"contracts/Blockchain_task.sol\":4184:4210  campaigns[campaignCounter] */\n      0x00\n        /* \"contracts/Blockchain_task.sol\":4194:4209  campaignCounter */\n      sload(0x03)\n        /* \"contracts/Blockchain_task.sol\":4184:4210  campaigns[campaignCounter] */\n      dup2\n      mstore\n      0x20\n      add\n      swap1\n      dup2\n      mstore\n      0x20\n      add\n      0x00\n      keccak256\n        /* \"contracts/Blockchain_task.sol\":4153:4210  Campaign storage newCampaign = campaigns[campaignCounter] */\n      swap1\n      pop\n        /* \"contracts/Blockchain_task.sol\":4245:4260  campaignCounter */\n      sload(0x03)\n        /* \"contracts/Blockchain_task.sol\":4220:4231  newCampaign */\n      dup2\n        /* \"contracts/Blockchain_task.sol\":4220:4242  newCampaign.campaignId */\n      0x00\n      add\n        /* \"contracts/Blockchain_task.sol\":4220:4260  newCampaign.campaignId = campaignCounter */\n      dup2\n      swap1\n      sstore\n      pop\n        /* \"contracts/Blockchain_task.sol\":4297:4307  msg.sender */\n      caller\n        /* \"contracts/Blockchain_task.sol\":4270:4281  newCampaign */\n      dup2\n        /* \"contracts/Blockchain_task.sol\":4270:4294  newCampaign.entrepreneur */\n      0x01\n      add\n      0x00\n        /* \"contracts/Blockchain_task.sol\":4270:4307  newCampaign.entrepreneur = msg.sender */\n      0x0100\n      exp\n      dup2\n      sload\n      dup2\n      0xffffffffffffffffffffffffffffffffffffffff\n      mul\n      not\n      and\n      swap1\n      dup4\n      0xffffffffffffffffffffffffffffffffffffffff\n      and\n      mul\n      or\n      swap1\n      sstore\n      pop\n        /* \"contracts/Blockchain_task.sol\":4337:4342  title */\n      dup5\n        /* \"contracts/Blockchain_task.sol\":4317:4328  newCampaign */\n      dup2\n        /* \"contracts/Blockchain_task.sol\":4317:4334  newCampaign.title */\n      0x02\n      add\n        /* \"contracts/Blockchain_task.sol\":4317:4342  newCampaign.title = title */\n      swap1\n      dup2\n      tag_237\n      swap2\n      swap1\n      tag_238\n      jump\t// in\n    tag_237:\n      pop\n        /* \"contracts/Blockchain_task.sol\":4377:4387  sharePrice */\n      dup4\n        /* \"contracts/Blockchain_task.sol\":4352:4363  newCampaign */\n      dup2\n        /* \"contracts/Blockchain_task.sol\":4352:4374  newCampaign.sharePrice */\n      0x03\n      add\n        /* \"contracts/Blockchain_task.sol\":4352:4387  newCampaign.sharePrice = sharePrice */\n      dup2\n      swap1\n      sstore\n      pop\n        /* \"contracts/Blockchain_task.sol\":4423:4434  totalShares */\n      dup3\n        /* \"contracts/Blockchain_task.sol\":4397:4408  newCampaign */\n      dup2\n        /* \"contracts/Blockchain_task.sol\":4397:4420  newCampaign.totalShares */\n      0x04\n      add\n        /* \"contracts/Blockchain_task.sol\":4397:4434  newCampaign.totalShares = totalShares */\n      dup2\n      swap1\n      sstore\n      pop\n        /* \"contracts/Blockchain_task.sol\":4467:4471  true */\n      0x01\n        /* \"contracts/Blockchain_task.sol\":4444:4455  newCampaign */\n      dup2\n        /* \"contracts/Blockchain_task.sol\":4444:4464  newCampaign.isActive */\n      0x06\n      add\n      0x00\n        /* \"contracts/Blockchain_task.sol\":4444:4471  newCampaign.isActive = true */\n      0x0100\n      exp\n      dup2\n      sload\n      dup2\n      0xff\n      mul\n      not\n      and\n      swap1\n      dup4\n      iszero\n      iszero\n      mul\n      or\n      swap1\n      sstore\n      pop\n        /* \"contracts/Blockchain_task.sol\":4481:4496  campaignCounter */\n      0x03\n      0x00\n        /* \"contracts/Blockchain_task.sol\":4481:4498  campaignCounter++ */\n      dup2\n      sload\n      dup1\n      swap3\n      swap2\n      swap1\n      tag_239\n      swap1\n      tag_202\n      jump\t// in\n    tag_239:\n      swap2\n      swap1\n      pop\n      sstore\n      pop\n        /* \"contracts/Blockchain_task.sol\":4531:4542  campaignFee */\n      sload(0x01)\n        /* \"contracts/Blockchain_task.sol\":4509:4527  totalFeesCollected */\n      0x02\n      0x00\n        /* \"contracts/Blockchain_task.sol\":4509:4542  totalFeesCollected += campaignFee */\n      dup3\n      dup3\n      sload\n      tag_240\n      swap2\n      swap1\n      tag_152\n      jump\t// in\n    tag_240:\n      swap3\n      pop\n      pop\n      dup2\n      swap1\n      sstore\n      pop\n        /* \"contracts/Blockchain_task.sol\":4558:4609  CampaignCreated(campaignCounter, msg.sender, title) */\n      0xc04c663886cae794dc52158f70fe6c8ee3b0140d4f48647282f9b693ff688a65\n        /* \"contracts/Blockchain_task.sol\":4574:4589  campaignCounter */\n      sload(0x03)\n        /* \"contracts/Blockchain_task.sol\":4591:4601  msg.sender */\n      caller\n        /* \"contracts/Blockchain_task.sol\":4603:4608  title */\n      dup8\n        /* \"contracts/Blockchain_task.sol\":4558:4609  CampaignCreated(campaignCounter, msg.sender, title) */\n      mload(0x40)\n      tag_241\n      swap4\n      swap3\n      swap2\n      swap1\n      tag_242\n      jump\t// in\n    tag_241:\n      mload(0x40)\n      dup1\n      swap2\n      sub\n      swap1\n      log1\n        /* \"contracts/Blockchain_task.sol\":4014:4616  {... */\n      pop\n        /* \"contracts/Blockchain_task.sol\":3161:3162  _ */\n      pop\n        /* \"contracts/Blockchain_task.sol\":3754:4616  function createCampaign(... */\n      pop\n      pop\n      pop\n      jump\t// out\n        /* \"contracts/Blockchain_task.sol\":11269:12724  function getCompletedCampaigns()... */\n    tag_54:\n        /* \"contracts/Blockchain_task.sol\":11370:11391  CampaignInfo[] memory */\n      0x60\n        /* \"contracts/Blockchain_task.sol\":2246:2262  isContractActive */\n      0x09\n      0x00\n      swap1\n      sload\n      swap1\n      0x0100\n      exp\n      swap1\n      div\n      0xff\n      and\n        /* \"contracts/Blockchain_task.sol\":2238:2289  require(isContractActive, \"Contract is not active\") */\n      tag_244\n      jumpi\n      mload(0x40)\n      0x08c379a000000000000000000000000000000000000000000000000000000000\n      dup2\n      mstore\n      0x04\n      add\n      tag_245\n      swap1\n      tag_135\n      jump\t// in\n    tag_245:\n      mload(0x40)\n      dup1\n      swap2\n      sub\n      swap1\n      revert\n    tag_244:\n        /* \"contracts/Blockchain_task.sol\":11407:11426  uint256 activeCount */\n      0x00\n        /* \"contracts/Blockchain_task.sol\":11525:11534  uint256 i */\n      dup1\n        /* \"contracts/Blockchain_task.sol\":11520:11695  for (uint256 i = 0; i < campaignCounter; i++) {... */\n    tag_247:\n        /* \"contracts/Blockchain_task.sol\":11544:11559  campaignCounter */\n      sload(0x03)\n        /* \"contracts/Blockchain_task.sol\":11540:11541  i */\n      dup2\n        /* \"contracts/Blockchain_task.sol\":11540:11559  i < campaignCounter */\n      lt\n        /* \"contracts/Blockchain_task.sol\":11520:11695  for (uint256 i = 0; i < campaignCounter; i++) {... */\n      iszero\n      tag_248\n      jumpi\n        /* \"contracts/Blockchain_task.sol\":11584:11593  campaigns */\n      0x04\n        /* \"contracts/Blockchain_task.sol\":11584:11596  campaigns[i] */\n      0x00\n        /* \"contracts/Blockchain_task.sol\":11594:11595  i */\n      dup3\n        /* \"contracts/Blockchain_task.sol\":11584:11596  campaigns[i] */\n      dup2\n      mstore\n      0x20\n      add\n      swap1\n      dup2\n      mstore\n      0x20\n      add\n      0x00\n      keccak256\n        /* \"contracts/Blockchain_task.sol\":11584:11608  campaigns[i].isCompleted */\n      0x06\n      add\n      0x02\n      swap1\n      sload\n      swap1\n      0x0100\n      exp\n      swap1\n      div\n      0xff\n      and\n        /* \"contracts/Blockchain_task.sol\":11584:11637  campaigns[i].isCompleted && !campaigns[i].isCancelled */\n      dup1\n      iszero\n      tag_250\n      jumpi\n      pop\n        /* \"contracts/Blockchain_task.sol\":11613:11622  campaigns */\n      0x04\n        /* \"contracts/Blockchain_task.sol\":11613:11625  campaigns[i] */\n      0x00\n        /* \"contracts/Blockchain_task.sol\":11623:11624  i */\n      dup3\n        /* \"contracts/Blockchain_task.sol\":11613:11625  campaigns[i] */\n      dup2\n      mstore\n      0x20\n      add\n      swap1\n      dup2\n      mstore\n      0x20\n      add\n      0x00\n      keccak256\n        /* \"contracts/Blockchain_task.sol\":11613:11637  campaigns[i].isCancelled */\n      0x06\n      add\n      0x01\n      swap1\n      sload\n      swap1\n      0x0100\n      exp\n      swap1\n      div\n      0xff\n      and\n        /* \"contracts/Blockchain_task.sol\":11612:11637  !campaigns[i].isCancelled */\n      iszero\n        /* \"contracts/Blockchain_task.sol\":11584:11637  campaigns[i].isCompleted && !campaigns[i].isCancelled */\n    tag_250:\n        /* \"contracts/Blockchain_task.sol\":11580:11685  if (campaigns[i].isCompleted && !campaigns[i].isCancelled) {... */\n      iszero\n      tag_251\n      jumpi\n        /* \"contracts/Blockchain_task.sol\":11657:11670  activeCount++ */\n      dup2\n      dup1\n      tag_252\n      swap1\n      tag_202\n      jump\t// in\n    tag_252:\n      swap3\n      pop\n      pop\n        /* \"contracts/Blockchain_task.sol\":11580:11685  if (campaigns[i].isCompleted && !campaigns[i].isCancelled) {... */\n    tag_251:\n        /* \"contracts/Blockchain_task.sol\":11561:11564  i++ */\n      dup1\n      dup1\n      0x01\n      add\n      swap2\n      pop\n      pop\n        /* \"contracts/Blockchain_task.sol\":11520:11695  for (uint256 i = 0; i < campaignCounter; i++) {... */\n      jump(tag_247)\n    tag_248:\n      pop\n        /* \"contracts/Blockchain_task.sol\":11824:11864  CampaignInfo[] memory completedCampaigns */\n      0x00\n        /* \"contracts/Blockchain_task.sol\":11899:11910  activeCount */\n      dup2\n        /* \"contracts/Blockchain_task.sol\":11867:11920  new CampaignInfo[](... */\n      0xffffffffffffffff\n      dup2\n      gt\n      iszero\n      tag_253\n      jumpi\n      tag_254\n      tag_205\n      jump\t// in\n    tag_254:\n    tag_253:\n      mload(0x40)\n      swap1\n      dup1\n      dup3\n      mstore\n      dup1\n      0x20\n      mul\n      0x20\n      add\n      dup3\n      add\n      0x40\n      mstore\n      dup1\n      iszero\n      tag_255\n      jumpi\n      dup2\n      0x20\n      add\n    tag_256:\n      tag_257\n      tag_258\n      jump\t// in\n    tag_257:\n      dup2\n      mstore\n      0x20\n      add\n      swap1\n      0x01\n      swap1\n      sub\n      swap1\n      dup2\n      tag_256\n      jumpi\n      swap1\n      pop\n    tag_255:\n      pop\n        /* \"contracts/Blockchain_task.sol\":11824:11920  CampaignInfo[] memory completedCampaigns = new CampaignInfo[](... */\n      swap1\n      pop\n        /* \"contracts/Blockchain_task.sol\":11930:11943  uint256 index */\n      0x00\n        /* \"contracts/Blockchain_task.sol\":12050:12059  uint256 i */\n      dup1\n        /* \"contracts/Blockchain_task.sol\":12045:12682  for (uint256 i = 0; i < campaignCounter; i++) {... */\n    tag_259:\n        /* \"contracts/Blockchain_task.sol\":12069:12084  campaignCounter */\n      sload(0x03)\n        /* \"contracts/Blockchain_task.sol\":12065:12066  i */\n      dup2\n        /* \"contracts/Blockchain_task.sol\":12065:12084  i < campaignCounter */\n      lt\n        /* \"contracts/Blockchain_task.sol\":12045:12682  for (uint256 i = 0; i < campaignCounter; i++) {... */\n      iszero\n      tag_260\n      jumpi\n        /* \"contracts/Blockchain_task.sol\":12109:12118  campaigns */\n      0x04\n        /* \"contracts/Blockchain_task.sol\":12109:12121  campaigns[i] */\n      0x00\n        /* \"contracts/Blockchain_task.sol\":12119:12120  i */\n      dup3\n        /* \"contracts/Blockchain_task.sol\":12109:12121  campaigns[i] */\n      dup2\n      mstore\n      0x20\n      add\n      swap1\n      dup2\n      mstore\n      0x20\n      add\n      0x00\n      keccak256\n        /* \"contracts/Blockchain_task.sol\":12109:12133  campaigns[i].isCompleted */\n      0x06\n      add\n      0x02\n      swap1\n      sload\n      swap1\n      0x0100\n      exp\n      swap1\n      div\n      0xff\n      and\n        /* \"contracts/Blockchain_task.sol\":12109:12162  campaigns[i].isCompleted && !campaigns[i].isCancelled */\n      dup1\n      iszero\n      tag_262\n      jumpi\n      pop\n        /* \"contracts/Blockchain_task.sol\":12138:12147  campaigns */\n      0x04\n        /* \"contracts/Blockchain_task.sol\":12138:12150  campaigns[i] */\n      0x00\n        /* \"contracts/Blockchain_task.sol\":12148:12149  i */\n      dup3\n        /* \"contracts/Blockchain_task.sol\":12138:12150  campaigns[i] */\n      dup2\n      mstore\n      0x20\n      add\n      swap1\n      dup2\n      mstore\n      0x20\n      add\n      0x00\n      keccak256\n        /* \"contracts/Blockchain_task.sol\":12138:12162  campaigns[i].isCancelled */\n      0x06\n      add\n      0x01\n      swap1\n      sload\n      swap1\n      0x0100\n      exp\n      swap1\n      div\n      0xff\n      and\n        /* \"contracts/Blockchain_task.sol\":12137:12162  !campaigns[i].isCancelled */\n      iszero\n        /* \"contracts/Blockchain_task.sol\":12109:12162  campaigns[i].isCompleted && !campaigns[i].isCancelled */\n    tag_262:\n        /* \"contracts/Blockchain_task.sol\":12105:12672  if (campaigns[i].isCompleted && !campaigns[i].isCancelled) {... */\n      iszero\n      tag_263\n      jumpi\n        /* \"contracts/Blockchain_task.sol\":12210:12632  CampaignInfo(... */\n      mload(0x40)\n      dup1\n      0x0100\n      add\n      0x40\n      mstore\n      dup1\n        /* \"contracts/Blockchain_task.sol\":12244:12253  campaigns */\n      0x04\n        /* \"contracts/Blockchain_task.sol\":12244:12256  campaigns[i] */\n      0x00\n        /* \"contracts/Blockchain_task.sol\":12254:12255  i */\n      dup5\n        /* \"contracts/Blockchain_task.sol\":12244:12256  campaigns[i] */\n      dup2\n      mstore\n      0x20\n      add\n      swap1\n      dup2\n      mstore\n      0x20\n      add\n      0x00\n      keccak256\n        /* \"contracts/Blockchain_task.sol\":12244:12267  campaigns[i].campaignId */\n      0x00\n      add\n      sload\n        /* \"contracts/Blockchain_task.sol\":12210:12632  CampaignInfo(... */\n      dup2\n      mstore\n      0x20\n      add\n        /* \"contracts/Blockchain_task.sol\":12289:12298  campaigns */\n      0x04\n        /* \"contracts/Blockchain_task.sol\":12289:12301  campaigns[i] */\n      0x00\n        /* \"contracts/Blockchain_task.sol\":12299:12300  i */\n      dup5\n        /* \"contracts/Blockchain_task.sol\":12289:12301  campaigns[i] */\n      dup2\n      mstore\n      0x20\n      add\n      swap1\n      dup2\n      mstore\n      0x20\n      add\n      0x00\n      keccak256\n        /* \"contracts/Blockchain_task.sol\":12289:12314  campaigns[i].entrepreneur */\n      0x01\n      add\n      0x00\n      swap1\n      sload\n      swap1\n      0x0100\n      exp\n      swap1\n      div\n      0xffffffffffffffffffffffffffffffffffffffff\n      and\n        /* \"contracts/Blockchain_task.sol\":12210:12632  CampaignInfo(... */\n      0xffffffffffffffffffffffffffffffffffffffff\n      and\n      dup2\n      mstore\n      0x20\n      add\n        /* \"contracts/Blockchain_task.sol\":12336:12345  campaigns */\n      0x04\n        /* \"contracts/Blockchain_task.sol\":12336:12348  campaigns[i] */\n      0x00\n        /* \"contracts/Blockchain_task.sol\":12346:12347  i */\n      dup5\n        /* \"contracts/Blockchain_task.sol\":12336:12348  campaigns[i] */\n      dup2\n      mstore\n      0x20\n      add\n      swap1\n      dup2\n      mstore\n      0x20\n      add\n      0x00\n      keccak256\n        /* \"contracts/Blockchain_task.sol\":12336:12354  campaigns[i].title */\n      0x02\n      add\n        /* \"contracts/Blockchain_task.sol\":12210:12632  CampaignInfo(... */\n      dup1\n      sload\n      tag_264\n      swap1\n      tag_154\n      jump\t// in\n    tag_264:\n      dup1\n      0x1f\n      add\n      0x20\n      dup1\n      swap2\n      div\n      mul\n      0x20\n      add\n      mload(0x40)\n      swap1\n      dup2\n      add\n      0x40\n      mstore\n      dup1\n      swap3\n      swap2\n      swap1\n      dup2\n      dup2\n      mstore\n      0x20\n      add\n      dup3\n      dup1\n      sload\n      tag_265\n      swap1\n      tag_154\n      jump\t// in\n    tag_265:\n      dup1\n      iszero\n      tag_266\n      jumpi\n      dup1\n      0x1f\n      lt\n      tag_267\n      jumpi\n      0x0100\n      dup1\n      dup4\n      sload\n      div\n      mul\n      dup4\n      mstore\n      swap2\n      0x20\n      add\n      swap2\n      jump(tag_266)\n    tag_267:\n      dup3\n      add\n      swap2\n      swap1\n      0x00\n      mstore\n      keccak256(0x00, 0x20)\n      swap1\n    tag_268:\n      dup2\n      sload\n      dup2\n      mstore\n      swap1\n      0x01\n      add\n      swap1\n      0x20\n      add\n      dup1\n      dup4\n      gt\n      tag_268\n      jumpi\n      dup3\n      swap1\n      sub\n      0x1f\n      and\n      dup3\n      add\n      swap2\n    tag_266:\n      pop\n      pop\n      pop\n      pop\n      pop\n      dup2\n      mstore\n      0x20\n      add\n        /* \"contracts/Blockchain_task.sol\":12376:12385  campaigns */\n      0x04\n        /* \"contracts/Blockchain_task.sol\":12376:12388  campaigns[i] */\n      0x00\n        /* \"contracts/Blockchain_task.sol\":12386:12387  i */\n      dup5\n        /* \"contracts/Blockchain_task.sol\":12376:12388  campaigns[i] */\n      dup2\n      mstore\n      0x20\n      add\n      swap1\n      dup2\n      mstore\n      0x20\n      add\n      0x00\n      keccak256\n        /* \"contracts/Blockchain_task.sol\":12376:12399  campaigns[i].sharePrice */\n      0x03\n      add\n      sload\n        /* \"contracts/Blockchain_task.sol\":12210:12632  CampaignInfo(... */\n      dup2\n      mstore\n      0x20\n      add\n        /* \"contracts/Blockchain_task.sol\":12448:12457  campaigns */\n      0x04\n        /* \"contracts/Blockchain_task.sol\":12448:12460  campaigns[i] */\n      0x00\n        /* \"contracts/Blockchain_task.sol\":12458:12459  i */\n      dup5\n        /* \"contracts/Blockchain_task.sol\":12448:12460  campaigns[i] */\n      dup2\n      mstore\n      0x20\n      add\n      swap1\n      dup2\n      mstore\n      0x20\n      add\n      0x00\n      keccak256\n        /* \"contracts/Blockchain_task.sol\":12448:12474  campaigns[i].currentShares */\n      0x05\n      add\n      sload\n        /* \"contracts/Blockchain_task.sol\":12421:12430  campaigns */\n      0x04\n        /* \"contracts/Blockchain_task.sol\":12421:12433  campaigns[i] */\n      0x00\n        /* \"contracts/Blockchain_task.sol\":12431:12432  i */\n      dup6\n        /* \"contracts/Blockchain_task.sol\":12421:12433  campaigns[i] */\n      dup2\n      mstore\n      0x20\n      add\n      swap1\n      dup2\n      mstore\n      0x20\n      add\n      0x00\n      keccak256\n        /* \"contracts/Blockchain_task.sol\":12421:12445  campaigns[i].totalShares */\n      0x04\n      add\n      sload\n        /* \"contracts/Blockchain_task.sol\":12421:12474  campaigns[i].totalShares - campaigns[i].currentShares */\n      tag_269\n      swap2\n      swap1\n      tag_270\n      jump\t// in\n    tag_269:\n        /* \"contracts/Blockchain_task.sol\":12210:12632  CampaignInfo(... */\n      dup2\n      mstore\n      0x20\n      add\n        /* \"contracts/Blockchain_task.sol\":12496:12505  campaigns */\n      0x04\n        /* \"contracts/Blockchain_task.sol\":12496:12508  campaigns[i] */\n      0x00\n        /* \"contracts/Blockchain_task.sol\":12506:12507  i */\n      dup5\n        /* \"contracts/Blockchain_task.sol\":12496:12508  campaigns[i] */\n      dup2\n      mstore\n      0x20\n      add\n      swap1\n      dup2\n      mstore\n      0x20\n      add\n      0x00\n      keccak256\n        /* \"contracts/Blockchain_task.sol\":12496:12522  campaigns[i].currentShares */\n      0x05\n      add\n      sload\n        /* \"contracts/Blockchain_task.sol\":12210:12632  CampaignInfo(... */\n      dup2\n      mstore\n      0x20\n      add\n        /* \"contracts/Blockchain_task.sol\":12544:12553  campaigns */\n      0x04\n        /* \"contracts/Blockchain_task.sol\":12544:12556  campaigns[i] */\n      0x00\n        /* \"contracts/Blockchain_task.sol\":12554:12555  i */\n      dup5\n        /* \"contracts/Blockchain_task.sol\":12544:12556  campaigns[i] */\n      dup2\n      mstore\n      0x20\n      add\n      swap1\n      dup2\n      mstore\n      0x20\n      add\n      0x00\n      keccak256\n        /* \"contracts/Blockchain_task.sol\":12544:12568  campaigns[i].isCompleted */\n      0x06\n      add\n      0x02\n      swap1\n      sload\n      swap1\n      0x0100\n      exp\n      swap1\n      div\n      0xff\n      and\n        /* \"contracts/Blockchain_task.sol\":12210:12632  CampaignInfo(... */\n      iszero\n      iszero\n      dup2\n      mstore\n      0x20\n      add\n        /* \"contracts/Blockchain_task.sol\":12590:12599  campaigns */\n      0x04\n        /* \"contracts/Blockchain_task.sol\":12590:12602  campaigns[i] */\n      0x00\n        /* \"contracts/Blockchain_task.sol\":12600:12601  i */\n      dup5\n        /* \"contracts/Blockchain_task.sol\":12590:12602  campaigns[i] */\n      dup2\n      mstore\n      0x20\n      add\n      swap1\n      dup2\n      mstore\n      0x20\n      add\n      0x00\n      keccak256\n        /* \"contracts/Blockchain_task.sol\":12590:12614  campaigns[i].isCancelled */\n      0x06\n      add\n      0x01\n      swap1\n      sload\n      swap1\n      0x0100\n      exp\n      swap1\n      div\n      0xff\n      and\n        /* \"contracts/Blockchain_task.sol\":12210:12632  CampaignInfo(... */\n      iszero\n      iszero\n      dup2\n      mstore\n      pop\n        /* \"contracts/Blockchain_task.sol\":12182:12200  completedCampaigns */\n      dup4\n        /* \"contracts/Blockchain_task.sol\":12201:12206  index */\n      dup4\n        /* \"contracts/Blockchain_task.sol\":12182:12207  completedCampaigns[index] */\n      dup2\n      mload\n      dup2\n      lt\n      tag_271\n      jumpi\n      tag_272\n      tag_147\n      jump\t// in\n    tag_272:\n    tag_271:\n      0x20\n      mul\n      0x20\n      add\n      add\n        /* \"contracts/Blockchain_task.sol\":12182:12632  completedCampaigns[index] = CampaignInfo(... */\n      dup2\n      swap1\n      mstore\n      pop\n        /* \"contracts/Blockchain_task.sol\":12650:12657  index++ */\n      dup2\n      dup1\n      tag_273\n      swap1\n      tag_202\n      jump\t// in\n    tag_273:\n      swap3\n      pop\n      pop\n        /* \"contracts/Blockchain_task.sol\":12105:12672  if (campaigns[i].isCompleted && !campaigns[i].isCancelled) {... */\n    tag_263:\n        /* \"contracts/Blockchain_task.sol\":12086:12089  i++ */\n      dup1\n      dup1\n      0x01\n      add\n      swap2\n      pop\n      pop\n        /* \"contracts/Blockchain_task.sol\":12045:12682  for (uint256 i = 0; i < campaignCounter; i++) {... */\n      jump(tag_259)\n    tag_260:\n      pop\n        /* \"contracts/Blockchain_task.sol\":12699:12717  completedCampaigns */\n      dup2\n        /* \"contracts/Blockchain_task.sol\":12692:12717  return completedCampaigns */\n      swap4\n      pop\n      pop\n      pop\n      pop\n        /* \"contracts/Blockchain_task.sol\":11269:12724  function getCompletedCampaigns()... */\n      swap1\n      jump\t// out\n        /* \"contracts/Blockchain_task.sol\":5913:7023  function cancelCampaign(uint256 campaignId)... */\n    tag_60:\n        /* \"contracts/Blockchain_task.sol\":5995:6005  campaignId */\n      dup1\n        /* \"contracts/Blockchain_task.sol\":2651:2660  campaigns */\n      0x04\n        /* \"contracts/Blockchain_task.sol\":2651:2672  campaigns[campaignId] */\n      0x00\n        /* \"contracts/Blockchain_task.sol\":2661:2671  campaignId */\n      dup3\n        /* \"contracts/Blockchain_task.sol\":2651:2672  campaigns[campaignId] */\n      dup2\n      mstore\n      0x20\n      add\n      swap1\n      dup2\n      mstore\n      0x20\n      add\n      0x00\n      keccak256\n        /* \"contracts/Blockchain_task.sol\":2651:2681  campaigns[campaignId].isActive */\n      0x06\n      add\n      0x00\n      swap1\n      sload\n      swap1\n      0x0100\n      exp\n      swap1\n      div\n      0xff\n      and\n        /* \"contracts/Blockchain_task.sol\":2643:2708  require(campaigns[campaignId].isActive, \"Campaign is not active\") */\n      tag_275\n      jumpi\n      mload(0x40)\n      0x08c379a000000000000000000000000000000000000000000000000000000000\n      dup2\n      mstore\n      0x04\n      add\n      tag_276\n      swap1\n      tag_170\n      jump\t// in\n    tag_276:\n      mload(0x40)\n      dup1\n      swap2\n      sub\n      swap1\n      revert\n    tag_275:\n        /* \"contracts/Blockchain_task.sol\":6028:6038  campaignId */\n      dup2\n        /* \"contracts/Blockchain_task.sol\":2950:2959  campaigns */\n      0x04\n        /* \"contracts/Blockchain_task.sol\":2950:2971  campaigns[campaignId] */\n      0x00\n        /* \"contracts/Blockchain_task.sol\":2960:2970  campaignId */\n      dup3\n        /* \"contracts/Blockchain_task.sol\":2950:2971  campaigns[campaignId] */\n      dup2\n      mstore\n      0x20\n      add\n      swap1\n      dup2\n      mstore\n      0x20\n      add\n      0x00\n      keccak256\n        /* \"contracts/Blockchain_task.sol\":2950:2983  campaigns[campaignId].isCompleted */\n      0x06\n      add\n      0x02\n      swap1\n      sload\n      swap1\n      0x0100\n      exp\n      swap1\n      div\n      0xff\n      and\n        /* \"contracts/Blockchain_task.sol\":2949:2983  !campaigns[campaignId].isCompleted */\n      iszero\n        /* \"contracts/Blockchain_task.sol\":2928:3038  require(... */\n      tag_278\n      jumpi\n      mload(0x40)\n      0x08c379a000000000000000000000000000000000000000000000000000000000\n      dup2\n      mstore\n      0x04\n      add\n      tag_279\n      swap1\n      tag_178\n      jump\t// in\n    tag_279:\n      mload(0x40)\n      dup1\n      swap2\n      sub\n      swap1\n      revert\n    tag_278:\n        /* \"contracts/Blockchain_task.sol\":2246:2262  isContractActive */\n      0x09\n      0x00\n      swap1\n      sload\n      swap1\n      0x0100\n      exp\n      swap1\n      div\n      0xff\n      and\n        /* \"contracts/Blockchain_task.sol\":2238:2289  require(isContractActive, \"Contract is not active\") */\n      tag_281\n      jumpi\n      mload(0x40)\n      0x08c379a000000000000000000000000000000000000000000000000000000000\n      dup2\n      mstore\n      0x04\n      add\n      tag_282\n      swap1\n      tag_135\n      jump\t// in\n    tag_282:\n      mload(0x40)\n      dup1\n      swap2\n      sub\n      swap1\n      revert\n    tag_281:\n        /* \"contracts/Blockchain_task.sol\":6175:6200  Campaign storage campaign */\n      0x00\n        /* \"contracts/Blockchain_task.sol\":6203:6212  campaigns */\n      0x04\n        /* \"contracts/Blockchain_task.sol\":6203:6224  campaigns[campaignId] */\n      0x00\n        /* \"contracts/Blockchain_task.sol\":6213:6223  campaignId */\n      dup6\n        /* \"contracts/Blockchain_task.sol\":6203:6224  campaigns[campaignId] */\n      dup2\n      mstore\n      0x20\n      add\n      swap1\n      dup2\n      mstore\n      0x20\n      add\n      0x00\n      keccak256\n        /* \"contracts/Blockchain_task.sol\":6175:6224  Campaign storage campaign = campaigns[campaignId] */\n      swap1\n      pop\n        /* \"contracts/Blockchain_task.sol\":6269:6277  campaign */\n      dup1\n        /* \"contracts/Blockchain_task.sol\":6269:6290  campaign.entrepreneur */\n      0x01\n      add\n      0x00\n      swap1\n      sload\n      swap1\n      0x0100\n      exp\n      swap1\n      div\n      0xffffffffffffffffffffffffffffffffffffffff\n      and\n        /* \"contracts/Blockchain_task.sol\":6255:6290  msg.sender == campaign.entrepreneur */\n      0xffffffffffffffffffffffffffffffffffffffff\n      and\n        /* \"contracts/Blockchain_task.sol\":6255:6265  msg.sender */\n      caller\n        /* \"contracts/Blockchain_task.sol\":6255:6290  msg.sender == campaign.entrepreneur */\n      0xffffffffffffffffffffffffffffffffffffffff\n      and\n      eq\n        /* \"contracts/Blockchain_task.sol\":6255:6313  msg.sender == campaign.entrepreneur || msg.sender == owner */\n      dup1\n      tag_284\n      jumpi\n      pop\n        /* \"contracts/Blockchain_task.sol\":6308:6313  owner */\n      0x00\n      dup1\n      sload\n      swap1\n      0x0100\n      exp\n      swap1\n      div\n      0xffffffffffffffffffffffffffffffffffffffff\n      and\n        /* \"contracts/Blockchain_task.sol\":6294:6313  msg.sender == owner */\n      0xffffffffffffffffffffffffffffffffffffffff\n      and\n        /* \"contracts/Blockchain_task.sol\":6294:6304  msg.sender */\n      caller\n        /* \"contracts/Blockchain_task.sol\":6294:6313  msg.sender == owner */\n      0xffffffffffffffffffffffffffffffffffffffff\n      and\n      eq\n        /* \"contracts/Blockchain_task.sol\":6255:6313  msg.sender == campaign.entrepreneur || msg.sender == owner */\n    tag_284:\n        /* \"contracts/Blockchain_task.sol\":6234:6394  require(... */\n      tag_285\n      jumpi\n      mload(0x40)\n      0x08c379a000000000000000000000000000000000000000000000000000000000\n      dup2\n      mstore\n      0x04\n      add\n      tag_286\n      swap1\n      tag_287\n      jump\t// in\n    tag_286:\n      mload(0x40)\n      dup1\n      swap2\n      sub\n      swap1\n      revert\n    tag_285:\n        /* \"contracts/Blockchain_task.sol\":6506:6511  false */\n      0x00\n        /* \"contracts/Blockchain_task.sol\":6486:6494  campaign */\n      dup2\n        /* \"contracts/Blockchain_task.sol\":6486:6503  campaign.isActive */\n      0x06\n      add\n      0x00\n        /* \"contracts/Blockchain_task.sol\":6486:6511  campaign.isActive = false */\n      0x0100\n      exp\n      dup2\n      sload\n      dup2\n      0xff\n      mul\n      not\n      and\n      swap1\n      dup4\n      iszero\n      iszero\n      mul\n      or\n      swap1\n      sstore\n      pop\n        /* \"contracts/Blockchain_task.sol\":6544:6548  true */\n      0x01\n        /* \"contracts/Blockchain_task.sol\":6521:6529  campaign */\n      dup2\n        /* \"contracts/Blockchain_task.sol\":6521:6541  campaign.isCancelled */\n      0x06\n      add\n      0x01\n        /* \"contracts/Blockchain_task.sol\":6521:6548  campaign.isCancelled = true */\n      0x0100\n      exp\n      dup2\n      sload\n      dup2\n      0xff\n      mul\n      not\n      and\n      swap1\n      dup4\n      iszero\n      iszero\n      mul\n      or\n      swap1\n      sstore\n      pop\n        /* \"contracts/Blockchain_task.sol\":6661:6670  uint256 i */\n      0x00\n        /* \"contracts/Blockchain_task.sol\":6656:6944  for (uint256 i = 0; i < campaign.backers.length; i++) {... */\n    tag_288:\n        /* \"contracts/Blockchain_task.sol\":6680:6688  campaign */\n      dup2\n        /* \"contracts/Blockchain_task.sol\":6680:6696  campaign.backers */\n      0x07\n      add\n        /* \"contracts/Blockchain_task.sol\":6680:6703  campaign.backers.length */\n      dup1\n      sload\n      swap1\n      pop\n        /* \"contracts/Blockchain_task.sol\":6676:6677  i */\n      dup2\n        /* \"contracts/Blockchain_task.sol\":6676:6703  i < campaign.backers.length */\n      lt\n        /* \"contracts/Blockchain_task.sol\":6656:6944  for (uint256 i = 0; i < campaign.backers.length; i++) {... */\n      iszero\n      tag_289\n      jumpi\n        /* \"contracts/Blockchain_task.sol\":6724:6738  address backer */\n      0x00\n        /* \"contracts/Blockchain_task.sol\":6741:6749  campaign */\n      dup3\n        /* \"contracts/Blockchain_task.sol\":6741:6757  campaign.backers */\n      0x07\n      add\n        /* \"contracts/Blockchain_task.sol\":6758:6759  i */\n      dup3\n        /* \"contracts/Blockchain_task.sol\":6741:6760  campaign.backers[i] */\n      dup2\n      sload\n      dup2\n      lt\n      tag_291\n      jumpi\n      tag_292\n      tag_147\n      jump\t// in\n    tag_292:\n    tag_291:\n      swap1\n      0x00\n      mstore\n      keccak256(0x00, 0x20)\n      add\n      0x00\n      swap1\n      sload\n      swap1\n      0x0100\n      exp\n      swap1\n      div\n      0xffffffffffffffffffffffffffffffffffffffff\n      and\n        /* \"contracts/Blockchain_task.sol\":6724:6760  address backer = campaign.backers[i] */\n      swap1\n      pop\n        /* \"contracts/Blockchain_task.sol\":6774:6788  uint256 shares */\n      0x00\n        /* \"contracts/Blockchain_task.sol\":6791:6799  campaign */\n      dup4\n        /* \"contracts/Blockchain_task.sol\":6791:6815  campaign.sharesPerBacker */\n      0x08\n      add\n        /* \"contracts/Blockchain_task.sol\":6791:6823  campaign.sharesPerBacker[backer] */\n      0x00\n        /* \"contracts/Blockchain_task.sol\":6816:6822  backer */\n      dup4\n        /* \"contracts/Blockchain_task.sol\":6791:6823  campaign.sharesPerBacker[backer] */\n      0xffffffffffffffffffffffffffffffffffffffff\n      and\n      0xffffffffffffffffffffffffffffffffffffffff\n      and\n      dup2\n      mstore\n      0x20\n      add\n      swap1\n      dup2\n      mstore\n      0x20\n      add\n      0x00\n      keccak256\n      sload\n        /* \"contracts/Blockchain_task.sol\":6774:6823  uint256 shares = campaign.sharesPerBacker[backer] */\n      swap1\n      pop\n        /* \"contracts/Blockchain_task.sol\":6837:6857  uint256 refundAmount */\n      0x00\n        /* \"contracts/Blockchain_task.sol\":6869:6877  campaign */\n      dup5\n        /* \"contracts/Blockchain_task.sol\":6869:6888  campaign.sharePrice */\n      0x03\n      add\n      sload\n        /* \"contracts/Blockchain_task.sol\":6860:6866  shares */\n      dup3\n        /* \"contracts/Blockchain_task.sol\":6860:6888  shares * campaign.sharePrice */\n      tag_294\n      swap2\n      swap1\n      tag_150\n      jump\t// in\n    tag_294:\n        /* \"contracts/Blockchain_task.sol\":6837:6888  uint256 refundAmount = shares * campaign.sharePrice */\n      swap1\n      pop\n        /* \"contracts/Blockchain_task.sol\":6921:6933  refundAmount */\n      dup1\n        /* \"contracts/Blockchain_task.sol\":6902:6909  refunds */\n      0x08\n        /* \"contracts/Blockchain_task.sol\":6902:6917  refunds[backer] */\n      0x00\n        /* \"contracts/Blockchain_task.sol\":6910:6916  backer */\n      dup6\n        /* \"contracts/Blockchain_task.sol\":6902:6917  refunds[backer] */\n      0xffffffffffffffffffffffffffffffffffffffff\n      and\n      0xffffffffffffffffffffffffffffffffffffffff\n      and\n      dup2\n      mstore\n      0x20\n      add\n      swap1\n      dup2\n      mstore\n      0x20\n      add\n      0x00\n      keccak256\n      0x00\n        /* \"contracts/Blockchain_task.sol\":6902:6933  refunds[backer] += refundAmount */\n      dup3\n      dup3\n      sload\n      tag_295\n      swap2\n      swap1\n      tag_152\n      jump\t// in\n    tag_295:\n      swap3\n      pop\n      pop\n      dup2\n      swap1\n      sstore\n      pop\n        /* \"contracts/Blockchain_task.sol\":6710:6944  {... */\n      pop\n      pop\n      pop\n        /* \"contracts/Blockchain_task.sol\":6705:6708  i++ */\n      dup1\n      dup1\n      0x01\n      add\n      swap2\n      pop\n      pop\n        /* \"contracts/Blockchain_task.sol\":6656:6944  for (uint256 i = 0; i < campaign.backers.length; i++) {... */\n      jump(tag_288)\n    tag_289:\n      pop\n        /* \"contracts/Blockchain_task.sol\":6959:7016  CampaignCancelled(campaignId, msg.sender, campaign.title) */\n      0x57bf3fc7e1999f61d60bf6bf729b85a5423c5d0883a1629cf9794f2162ae2aba\n        /* \"contracts/Blockchain_task.sol\":6977:6987  campaignId */\n      dup5\n        /* \"contracts/Blockchain_task.sol\":6989:6999  msg.sender */\n      caller\n        /* \"contracts/Blockchain_task.sol\":7001:7009  campaign */\n      dup4\n        /* \"contracts/Blockchain_task.sol\":7001:7015  campaign.title */\n      0x02\n      add\n        /* \"contracts/Blockchain_task.sol\":6959:7016  CampaignCancelled(campaignId, msg.sender, campaign.title) */\n      mload(0x40)\n      tag_296\n      swap4\n      swap3\n      swap2\n      swap1\n      tag_297\n      jump\t// in\n    tag_296:\n      mload(0x40)\n      dup1\n      swap2\n      sub\n      swap1\n      log1\n        /* \"contracts/Blockchain_task.sol\":6067:7023  {... */\n      pop\n        /* \"contracts/Blockchain_task.sol\":2718:2719  _ */\n      pop\n        /* \"contracts/Blockchain_task.sol\":5913:7023  function cancelCampaign(uint256 campaignId)... */\n      pop\n      pop\n      jump\t// out\n        /* \"contracts/Blockchain_task.sol\":9260:9758  function withdrawFees() public onlyOwner activeContract {... */\n    tag_63:\n        /* \"contracts/Blockchain_task.sol\":2107:2112  owner */\n      0x00\n      dup1\n      sload\n      swap1\n      0x0100\n      exp\n      swap1\n      div\n      0xffffffffffffffffffffffffffffffffffffffff\n      and\n        /* \"contracts/Blockchain_task.sol\":2093:2112  msg.sender == owner */\n      0xffffffffffffffffffffffffffffffffffffffff\n      and\n        /* \"contracts/Blockchain_task.sol\":2093:2103  msg.sender */\n      caller\n        /* \"contracts/Blockchain_task.sol\":2093:2112  msg.sender == owner */\n      0xffffffffffffffffffffffffffffffffffffffff\n      and\n      eq\n        /* \"contracts/Blockchain_task.sol\":2072:2178  require(... */\n      tag_299\n      jumpi\n      mload(0x40)\n      0x08c379a000000000000000000000000000000000000000000000000000000000\n      dup2\n      mstore\n      0x04\n      add\n      tag_300\n      swap1\n      tag_131\n      jump\t// in\n    tag_300:\n      mload(0x40)\n      dup1\n      swap2\n      sub\n      swap1\n      revert\n    tag_299:\n        /* \"contracts/Blockchain_task.sol\":2246:2262  isContractActive */\n      0x09\n      0x00\n      swap1\n      sload\n      swap1\n      0x0100\n      exp\n      swap1\n      div\n      0xff\n      and\n        /* \"contracts/Blockchain_task.sol\":2238:2289  require(isContractActive, \"Contract is not active\") */\n      tag_302\n      jumpi\n      mload(0x40)\n      0x08c379a000000000000000000000000000000000000000000000000000000000\n      dup2\n      mstore\n      0x04\n      add\n      tag_303\n      swap1\n      tag_135\n      jump\t// in\n    tag_303:\n      mload(0x40)\n      dup1\n      swap2\n      sub\n      swap1\n      revert\n    tag_302:\n        /* \"contracts/Blockchain_task.sol\":9326:9340  uint256 amount */\n      0x00\n        /* \"contracts/Blockchain_task.sol\":9343:9361  totalFeesCollected */\n      sload(0x02)\n        /* \"contracts/Blockchain_task.sol\":9326:9361  uint256 amount = totalFeesCollected */\n      swap1\n      pop\n        /* \"contracts/Blockchain_task.sol\":9491:9492  0 */\n      0x00\n        /* \"contracts/Blockchain_task.sol\":9470:9488  totalFeesCollected */\n      0x02\n        /* \"contracts/Blockchain_task.sol\":9470:9492  totalFeesCollected = 0 */\n      dup2\n      swap1\n      sstore\n      pop\n        /* \"contracts/Blockchain_task.sol\":9621:9626  owner */\n      0x00\n      dup1\n      sload\n      swap1\n      0x0100\n      exp\n      swap1\n      div\n      0xffffffffffffffffffffffffffffffffffffffff\n      and\n        /* \"contracts/Blockchain_task.sol\":9613:9636  payable(owner).transfer */\n      0xffffffffffffffffffffffffffffffffffffffff\n      and\n        /* \"contracts/Blockchain_task.sol\":9613:9644  payable(owner).transfer(amount) */\n      0x08fc\n        /* \"contracts/Blockchain_task.sol\":9637:9643  amount */\n      dup3\n        /* \"contracts/Blockchain_task.sol\":9613:9644  payable(owner).transfer(amount) */\n      swap1\n      dup2\n      iszero\n      mul\n      swap1\n      mload(0x40)\n      0x00\n      mload(0x40)\n      dup1\n      dup4\n      sub\n      dup2\n      dup6\n      dup9\n      dup9\n      call\n      swap4\n      pop\n      pop\n      pop\n      pop\n      iszero\n      dup1\n      iszero\n      tag_306\n      jumpi\n      returndatasize\n      0x00\n      dup1\n      returndatacopy\n      revert(0x00, returndatasize)\n    tag_306:\n      pop\n        /* \"contracts/Blockchain_task.sol\":9654:9671  uint256 remaining */\n      0x00\n        /* \"contracts/Blockchain_task.sol\":9674:9695  address(this).balance */\n      selfbalance\n        /* \"contracts/Blockchain_task.sol\":9654:9695  uint256 remaining = address(this).balance */\n      swap1\n      pop\n        /* \"contracts/Blockchain_task.sol\":9711:9751  FeesWithdrawn(owner, amount + remaining) */\n      0xc0819c13be868895eb93e40eaceb96de976442fa1d404e5c55f14bb65a8c489a\n        /* \"contracts/Blockchain_task.sol\":9725:9730  owner */\n      0x00\n      dup1\n      sload\n      swap1\n      0x0100\n      exp\n      swap1\n      div\n      0xffffffffffffffffffffffffffffffffffffffff\n      and\n        /* \"contracts/Blockchain_task.sol\":9741:9750  remaining */\n      dup3\n        /* \"contracts/Blockchain_task.sol\":9732:9738  amount */\n      dup5\n        /* \"contracts/Blockchain_task.sol\":9732:9750  amount + remaining */\n      tag_307\n      swap2\n      swap1\n      tag_152\n      jump\t// in\n    tag_307:\n        /* \"contracts/Blockchain_task.sol\":9711:9751  FeesWithdrawn(owner, amount + remaining) */\n      mload(0x40)\n      tag_308\n      swap3\n      swap2\n      swap1\n      tag_309\n      jump\t// in\n    tag_308:\n      mload(0x40)\n      dup1\n      swap2\n      sub\n      swap1\n      log1\n        /* \"contracts/Blockchain_task.sol\":9316:9758  {... */\n      pop\n      pop\n        /* \"contracts/Blockchain_task.sol\":9260:9758  function withdrawFees() public onlyOwner activeContract {... */\n      jump\t// out\n        /* \"contracts/Blockchain_task.sol\":887:920  uint256 public totalFeesCollected */\n    tag_66:\n      sload(0x02)\n      dup2\n      jump\t// out\n        /* \"contracts/Blockchain_task.sol\":802:828  uint256 public campaignFee */\n    tag_71:\n      sload(0x01)\n      dup2\n      jump\t// out\n        /* \"contracts/Blockchain_task.sol\":16490:16769  function banInvestor(address investor)... */\n    tag_76:\n        /* \"contracts/Blockchain_task.sol\":2246:2262  isContractActive */\n      0x09\n      0x00\n      swap1\n      sload\n      swap1\n      0x0100\n      exp\n      swap1\n      div\n      0xff\n      and\n        /* \"contracts/Blockchain_task.sol\":2238:2289  require(isContractActive, \"Contract is not active\") */\n      tag_311\n      jumpi\n      mload(0x40)\n      0x08c379a000000000000000000000000000000000000000000000000000000000\n      dup2\n      mstore\n      0x04\n      add\n      tag_312\n      swap1\n      tag_135\n      jump\t// in\n    tag_312:\n      mload(0x40)\n      dup1\n      swap2\n      sub\n      swap1\n      revert\n    tag_311:\n        /* \"contracts/Blockchain_task.sol\":2107:2112  owner */\n      0x00\n      dup1\n      sload\n      swap1\n      0x0100\n      exp\n      swap1\n      div\n      0xffffffffffffffffffffffffffffffffffffffff\n      and\n        /* \"contracts/Blockchain_task.sol\":2093:2112  msg.sender == owner */\n      0xffffffffffffffffffffffffffffffffffffffff\n      and\n        /* \"contracts/Blockchain_task.sol\":2093:2103  msg.sender */\n      caller\n        /* \"contracts/Blockchain_task.sol\":2093:2112  msg.sender == owner */\n      0xffffffffffffffffffffffffffffffffffffffff\n      and\n      eq\n        /* \"contracts/Blockchain_task.sol\":2072:2178  require(... */\n      tag_314\n      jumpi\n      mload(0x40)\n      0x08c379a000000000000000000000000000000000000000000000000000000000\n      dup2\n      mstore\n      0x04\n      add\n      tag_315\n      swap1\n      tag_131\n      jump\t// in\n    tag_315:\n      mload(0x40)\n      dup1\n      swap2\n      sub\n      swap1\n      revert\n    tag_314:\n        /* \"contracts/Blockchain_task.sol\":2521:2531  bannedList */\n      0x06\n        /* \"contracts/Blockchain_task.sol\":2521:2543  bannedList[msg.sender] */\n      0x00\n        /* \"contracts/Blockchain_task.sol\":2532:2542  msg.sender */\n      caller\n        /* \"contracts/Blockchain_task.sol\":2521:2543  bannedList[msg.sender] */\n      0xffffffffffffffffffffffffffffffffffffffff\n      and\n      0xffffffffffffffffffffffffffffffffffffffff\n      and\n      dup2\n      mstore\n      0x20\n      add\n      swap1\n      dup2\n      mstore\n      0x20\n      add\n      0x00\n      keccak256\n      0x00\n      swap1\n      sload\n      swap1\n      0x0100\n      exp\n      swap1\n      div\n      0xff\n      and\n        /* \"contracts/Blockchain_task.sol\":2520:2543  !bannedList[msg.sender] */\n      iszero\n        /* \"contracts/Blockchain_task.sol\":2512:2565  require(!bannedList[msg.sender], \"Address is banned\") */\n      tag_317\n      jumpi\n      mload(0x40)\n      0x08c379a000000000000000000000000000000000000000000000000000000000\n      dup2\n      mstore\n      0x04\n      add\n      tag_318\n      swap1\n      tag_166\n      jump\t// in\n    tag_318:\n      mload(0x40)\n      dup1\n      swap2\n      sub\n      swap1\n      revert\n    tag_317:\n        /* \"contracts/Blockchain_task.sol\":16693:16697  true */\n      0x01\n        /* \"contracts/Blockchain_task.sol\":16670:16680  bannedList */\n      0x06\n        /* \"contracts/Blockchain_task.sol\":16670:16690  bannedList[investor] */\n      0x00\n        /* \"contracts/Blockchain_task.sol\":16681:16689  investor */\n      dup4\n        /* \"contracts/Blockchain_task.sol\":16670:16690  bannedList[investor] */\n      0xffffffffffffffffffffffffffffffffffffffff\n      and\n      0xffffffffffffffffffffffffffffffffffffffff\n      and\n      dup2\n      mstore\n      0x20\n      add\n      swap1\n      dup2\n      mstore\n      0x20\n      add\n      0x00\n      keccak256\n      0x00\n        /* \"contracts/Blockchain_task.sol\":16670:16697  bannedList[investor] = true */\n      0x0100\n      exp\n      dup2\n      sload\n      dup2\n      0xff\n      mul\n      not\n      and\n      swap1\n      dup4\n      iszero\n      iszero\n      mul\n      or\n      swap1\n      sstore\n      pop\n        /* \"contracts/Blockchain_task.sol\":16707:16722  bannedAddresses */\n      0x07\n        /* \"contracts/Blockchain_task.sol\":16728:16736  investor */\n      dup2\n        /* \"contracts/Blockchain_task.sol\":16707:16737  bannedAddresses.push(investor) */\n      swap1\n      dup1\n      0x01\n      dup2\n      sload\n      add\n      dup1\n      dup3\n      sstore\n      dup1\n      swap2\n      pop\n      pop\n      0x01\n      swap1\n      sub\n      swap1\n      0x00\n      mstore\n      keccak256(0x00, 0x20)\n      add\n      0x00\n      swap1\n      swap2\n      swap1\n      swap2\n      swap1\n      swap2\n      0x0100\n      exp\n      dup2\n      sload\n      dup2\n      0xffffffffffffffffffffffffffffffffffffffff\n      mul\n      not\n      and\n      swap1\n      dup4\n      0xffffffffffffffffffffffffffffffffffffffff\n      and\n      mul\n      or\n      swap1\n      sstore\n      pop\n        /* \"contracts/Blockchain_task.sol\":16747:16760  bannedCounter */\n      0x05\n      0x00\n        /* \"contracts/Blockchain_task.sol\":16747:16762  bannedCounter++ */\n      dup2\n      sload\n      dup1\n      swap3\n      swap2\n      swap1\n      tag_321\n      swap1\n      tag_202\n      jump\t// in\n    tag_321:\n      swap2\n      swap1\n      pop\n      sstore\n      pop\n        /* \"contracts/Blockchain_task.sol\":16490:16769  function banInvestor(address investor)... */\n      pop\n      jump\t// out\n        /* \"contracts/Blockchain_task.sol\":731:751  address public owner */\n    tag_79:\n      0x00\n      dup1\n      sload\n      swap1\n      0x0100\n      exp\n      swap1\n      div\n      0xffffffffffffffffffffffffffffffffffffffff\n      and\n      dup2\n      jump\t// out\n        /* \"contracts/Blockchain_task.sol\":7708:9208  function completeCampaign(uint256 campaignId)... */\n    tag_85:\n        /* \"contracts/Blockchain_task.sol\":7792:7802  campaignId */\n      dup1\n        /* \"contracts/Blockchain_task.sol\":2651:2660  campaigns */\n      0x04\n        /* \"contracts/Blockchain_task.sol\":2651:2672  campaigns[campaignId] */\n      0x00\n        /* \"contracts/Blockchain_task.sol\":2661:2671  campaignId */\n      dup3\n        /* \"contracts/Blockchain_task.sol\":2651:2672  campaigns[campaignId] */\n      dup2\n      mstore\n      0x20\n      add\n      swap1\n      dup2\n      mstore\n      0x20\n      add\n      0x00\n      keccak256\n        /* \"contracts/Blockchain_task.sol\":2651:2681  campaigns[campaignId].isActive */\n      0x06\n      add\n      0x00\n      swap1\n      sload\n      swap1\n      0x0100\n      exp\n      swap1\n      div\n      0xff\n      and\n        /* \"contracts/Blockchain_task.sol\":2643:2708  require(campaigns[campaignId].isActive, \"Campaign is not active\") */\n      tag_323\n      jumpi\n      mload(0x40)\n      0x08c379a000000000000000000000000000000000000000000000000000000000\n      dup2\n      mstore\n      0x04\n      add\n      tag_324\n      swap1\n      tag_170\n      jump\t// in\n    tag_324:\n      mload(0x40)\n      dup1\n      swap2\n      sub\n      swap1\n      revert\n    tag_323:\n        /* \"contracts/Blockchain_task.sol\":7825:7835  campaignId */\n      dup2\n        /* \"contracts/Blockchain_task.sol\":2793:2802  campaigns */\n      0x04\n        /* \"contracts/Blockchain_task.sol\":2793:2814  campaigns[campaignId] */\n      0x00\n        /* \"contracts/Blockchain_task.sol\":2803:2813  campaignId */\n      dup3\n        /* \"contracts/Blockchain_task.sol\":2793:2814  campaigns[campaignId] */\n      dup2\n      mstore\n      0x20\n      add\n      swap1\n      dup2\n      mstore\n      0x20\n      add\n      0x00\n      keccak256\n        /* \"contracts/Blockchain_task.sol\":2793:2826  campaigns[campaignId].isCancelled */\n      0x06\n      add\n      0x01\n      swap1\n      sload\n      swap1\n      0x0100\n      exp\n      swap1\n      div\n      0xff\n      and\n        /* \"contracts/Blockchain_task.sol\":2792:2826  !campaigns[campaignId].isCancelled */\n      iszero\n        /* \"contracts/Blockchain_task.sol\":2784:2852  require(!campaigns[campaignId].isCancelled, \"Campaign is cancelled\") */\n      tag_326\n      jumpi\n      mload(0x40)\n      0x08c379a000000000000000000000000000000000000000000000000000000000\n      dup2\n      mstore\n      0x04\n      add\n      tag_327\n      swap1\n      tag_174\n      jump\t// in\n    tag_327:\n      mload(0x40)\n      dup1\n      swap2\n      sub\n      swap1\n      revert\n    tag_326:\n        /* \"contracts/Blockchain_task.sol\":7949:7974  Campaign storage campaign */\n      0x00\n        /* \"contracts/Blockchain_task.sol\":7977:7986  campaigns */\n      0x04\n        /* \"contracts/Blockchain_task.sol\":7977:7998  campaigns[campaignId] */\n      0x00\n        /* \"contracts/Blockchain_task.sol\":7987:7997  campaignId */\n      dup6\n        /* \"contracts/Blockchain_task.sol\":7977:7998  campaigns[campaignId] */\n      dup2\n      mstore\n      0x20\n      add\n      swap1\n      dup2\n      mstore\n      0x20\n      add\n      0x00\n      keccak256\n        /* \"contracts/Blockchain_task.sol\":7949:7998  Campaign storage campaign = campaigns[campaignId] */\n      swap1\n      pop\n        /* \"contracts/Blockchain_task.sol\":8044:8052  campaign */\n      dup1\n        /* \"contracts/Blockchain_task.sol\":8044:8065  campaign.entrepreneur */\n      0x01\n      add\n      0x00\n      swap1\n      sload\n      swap1\n      0x0100\n      exp\n      swap1\n      div\n      0xffffffffffffffffffffffffffffffffffffffff\n      and\n        /* \"contracts/Blockchain_task.sol\":8030:8065  msg.sender == campaign.entrepreneur */\n      0xffffffffffffffffffffffffffffffffffffffff\n      and\n        /* \"contracts/Blockchain_task.sol\":8030:8040  msg.sender */\n      caller\n        /* \"contracts/Blockchain_task.sol\":8030:8065  msg.sender == campaign.entrepreneur */\n      0xffffffffffffffffffffffffffffffffffffffff\n      and\n      eq\n        /* \"contracts/Blockchain_task.sol\":8030:8088  msg.sender == campaign.entrepreneur || msg.sender == owner */\n      dup1\n      tag_329\n      jumpi\n      pop\n        /* \"contracts/Blockchain_task.sol\":8083:8088  owner */\n      0x00\n      dup1\n      sload\n      swap1\n      0x0100\n      exp\n      swap1\n      div\n      0xffffffffffffffffffffffffffffffffffffffff\n      and\n        /* \"contracts/Blockchain_task.sol\":8069:8088  msg.sender == owner */\n      0xffffffffffffffffffffffffffffffffffffffff\n      and\n        /* \"contracts/Blockchain_task.sol\":8069:8079  msg.sender */\n      caller\n        /* \"contracts/Blockchain_task.sol\":8069:8088  msg.sender == owner */\n      0xffffffffffffffffffffffffffffffffffffffff\n      and\n      eq\n        /* \"contracts/Blockchain_task.sol\":8030:8088  msg.sender == campaign.entrepreneur || msg.sender == owner */\n    tag_329:\n        /* \"contracts/Blockchain_task.sol\":8009:8171  require(... */\n      tag_330\n      jumpi\n      mload(0x40)\n      0x08c379a000000000000000000000000000000000000000000000000000000000\n      dup2\n      mstore\n      0x04\n      add\n      tag_331\n      swap1\n      tag_332\n      jump\t// in\n    tag_331:\n      mload(0x40)\n      dup1\n      swap2\n      sub\n      swap1\n      revert\n    tag_330:\n        /* \"contracts/Blockchain_task.sol\":8228:8236  campaign */\n      dup1\n        /* \"contracts/Blockchain_task.sol\":8228:8248  campaign.totalShares */\n      0x04\n      add\n      sload\n        /* \"contracts/Blockchain_task.sol\":8202:8210  campaign */\n      dup2\n        /* \"contracts/Blockchain_task.sol\":8202:8224  campaign.currentShares */\n      0x05\n      add\n      sload\n        /* \"contracts/Blockchain_task.sol\":8202:8248  campaign.currentShares == campaign.totalShares */\n      eq\n        /* \"contracts/Blockchain_task.sol\":8181:8310  require(... */\n      tag_333\n      jumpi\n      mload(0x40)\n      0x08c379a000000000000000000000000000000000000000000000000000000000\n      dup2\n      mstore\n      0x04\n      add\n      tag_334\n      swap1\n      tag_335\n      jump\t// in\n    tag_334:\n      mload(0x40)\n      dup1\n      swap2\n      sub\n      swap1\n      revert\n    tag_333:\n        /* \"contracts/Blockchain_task.sol\":8485:8508  uint256 campaignBalance */\n      0x00\n        /* \"contracts/Blockchain_task.sol\":8536:8544  campaign */\n      dup2\n        /* \"contracts/Blockchain_task.sol\":8536:8555  campaign.sharePrice */\n      0x03\n      add\n      sload\n        /* \"contracts/Blockchain_task.sol\":8511:8519  campaign */\n      dup3\n        /* \"contracts/Blockchain_task.sol\":8511:8533  campaign.currentShares */\n      0x05\n      add\n      sload\n        /* \"contracts/Blockchain_task.sol\":8511:8555  campaign.currentShares * campaign.sharePrice */\n      tag_336\n      swap2\n      swap1\n      tag_150\n      jump\t// in\n    tag_336:\n        /* \"contracts/Blockchain_task.sol\":8485:8555  uint256 campaignBalance = campaign.currentShares * campaign.sharePrice */\n      swap1\n      pop\n        /* \"contracts/Blockchain_task.sol\":8565:8591  uint256 entrepreneurPayout */\n      0x00\n        /* \"contracts/Blockchain_task.sol\":8619:8622  100 */\n      0x64\n        /* \"contracts/Blockchain_task.sol\":8613:8615  80 */\n      0x50\n        /* \"contracts/Blockchain_task.sol\":8595:8610  campaignBalance */\n      dup4\n        /* \"contracts/Blockchain_task.sol\":8595:8615  campaignBalance * 80 */\n      tag_337\n      swap2\n      swap1\n      tag_150\n      jump\t// in\n    tag_337:\n        /* \"contracts/Blockchain_task.sol\":8594:8622  (campaignBalance * 80) / 100 */\n      tag_338\n      swap2\n      swap1\n      tag_339\n      jump\t// in\n    tag_338:\n        /* \"contracts/Blockchain_task.sol\":8565:8622  uint256 entrepreneurPayout = (campaignBalance * 80) / 100 */\n      swap1\n      pop\n        /* \"contracts/Blockchain_task.sol\":8717:8725  campaign */\n      dup3\n        /* \"contracts/Blockchain_task.sol\":8717:8738  campaign.entrepreneur */\n      0x01\n      add\n      0x00\n      swap1\n      sload\n      swap1\n      0x0100\n      exp\n      swap1\n      div\n      0xffffffffffffffffffffffffffffffffffffffff\n      and\n        /* \"contracts/Blockchain_task.sol\":8709:8748  payable(campaign.entrepreneur).transfer */\n      0xffffffffffffffffffffffffffffffffffffffff\n      and\n        /* \"contracts/Blockchain_task.sol\":8709:8768  payable(campaign.entrepreneur).transfer(entrepreneurPayout) */\n      0x08fc\n        /* \"contracts/Blockchain_task.sol\":8749:8767  entrepreneurPayout */\n      dup3\n        /* \"contracts/Blockchain_task.sol\":8709:8768  payable(campaign.entrepreneur).transfer(entrepreneurPayout) */\n      swap1\n      dup2\n      iszero\n      mul\n      swap1\n      mload(0x40)\n      0x00\n      mload(0x40)\n      dup1\n      dup4\n      sub\n      dup2\n      dup6\n      dup9\n      dup9\n      call\n      swap4\n      pop\n      pop\n      pop\n      pop\n      iszero\n      dup1\n      iszero\n      tag_341\n      jumpi\n      returndatasize\n      0x00\n      dup1\n      returndatacopy\n      revert(0x00, returndatasize)\n    tag_341:\n      pop\n        /* \"contracts/Blockchain_task.sol\":8881:8893  uint256 fees */\n      0x00\n        /* \"contracts/Blockchain_task.sol\":8914:8932  entrepreneurPayout */\n      dup2\n        /* \"contracts/Blockchain_task.sol\":8896:8911  campaignBalance */\n      dup4\n        /* \"contracts/Blockchain_task.sol\":8896:8932  campaignBalance - entrepreneurPayout */\n      tag_342\n      swap2\n      swap1\n      tag_270\n      jump\t// in\n    tag_342:\n        /* \"contracts/Blockchain_task.sol\":8881:8932  uint256 fees = campaignBalance - entrepreneurPayout */\n      swap1\n      pop\n        /* \"contracts/Blockchain_task.sol\":8964:8968  fees */\n      dup1\n        /* \"contracts/Blockchain_task.sol\":8942:8960  totalFeesCollected */\n      0x02\n      0x00\n        /* \"contracts/Blockchain_task.sol\":8942:8968  totalFeesCollected += fees */\n      dup3\n      dup3\n      sload\n      tag_343\n      swap2\n      swap1\n      tag_152\n      jump\t// in\n    tag_343:\n      swap3\n      pop\n      pop\n      dup2\n      swap1\n      sstore\n      pop\n        /* \"contracts/Blockchain_task.sol\":9086:9091  false */\n      0x00\n        /* \"contracts/Blockchain_task.sol\":9066:9074  campaign */\n      dup5\n        /* \"contracts/Blockchain_task.sol\":9066:9083  campaign.isActive */\n      0x06\n      add\n      0x00\n        /* \"contracts/Blockchain_task.sol\":9066:9091  campaign.isActive = false */\n      0x0100\n      exp\n      dup2\n      sload\n      dup2\n      0xff\n      mul\n      not\n      and\n      swap1\n      dup4\n      iszero\n      iszero\n      mul\n      or\n      swap1\n      sstore\n      pop\n        /* \"contracts/Blockchain_task.sol\":9124:9128  true */\n      0x01\n        /* \"contracts/Blockchain_task.sol\":9101:9109  campaign */\n      dup5\n        /* \"contracts/Blockchain_task.sol\":9101:9121  campaign.isCompleted */\n      0x06\n      add\n      0x02\n        /* \"contracts/Blockchain_task.sol\":9101:9128  campaign.isCompleted = true */\n      0x0100\n      exp\n      dup2\n      sload\n      dup2\n      0xff\n      mul\n      not\n      and\n      swap1\n      dup4\n      iszero\n      iszero\n      mul\n      or\n      swap1\n      sstore\n      pop\n        /* \"contracts/Blockchain_task.sol\":9144:9201  CampaignCompleted(campaignId, msg.sender, campaign.title) */\n      0x8074ef78c691c15ac249ef0c702e350affe9388afdbbafd37c0d19703cd0c7db\n        /* \"contracts/Blockchain_task.sol\":9162:9172  campaignId */\n      dup8\n        /* \"contracts/Blockchain_task.sol\":9174:9184  msg.sender */\n      caller\n        /* \"contracts/Blockchain_task.sol\":9186:9194  campaign */\n      dup7\n        /* \"contracts/Blockchain_task.sol\":9186:9200  campaign.title */\n      0x02\n      add\n        /* \"contracts/Blockchain_task.sol\":9144:9201  CampaignCompleted(campaignId, msg.sender, campaign.title) */\n      mload(0x40)\n      tag_344\n      swap4\n      swap3\n      swap2\n      swap1\n      tag_297\n      jump\t// in\n    tag_344:\n      mload(0x40)\n      dup1\n      swap2\n      sub\n      swap1\n      log1\n        /* \"contracts/Blockchain_task.sol\":7841:9208  {... */\n      pop\n      pop\n      pop\n      pop\n        /* \"contracts/Blockchain_task.sol\":2718:2719  _ */\n      pop\n        /* \"contracts/Blockchain_task.sol\":7708:9208  function completeCampaign(uint256 campaignId)... */\n      pop\n      pop\n      jump\t// out\n        /* \"contracts/Blockchain_task.sol\":16835:17020  function changeOwner(address newOwner) public onlyOwner activeContract {... */\n    tag_89:\n        /* \"contracts/Blockchain_task.sol\":2107:2112  owner */\n      0x00\n      dup1\n      sload\n      swap1\n      0x0100\n      exp\n      swap1\n      div\n      0xffffffffffffffffffffffffffffffffffffffff\n      and\n        /* \"contracts/Blockchain_task.sol\":2093:2112  msg.sender == owner */\n      0xffffffffffffffffffffffffffffffffffffffff\n      and\n        /* \"contracts/Blockchain_task.sol\":2093:2103  msg.sender */\n      caller\n        /* \"contracts/Blockchain_task.sol\":2093:2112  msg.sender == owner */\n      0xffffffffffffffffffffffffffffffffffffffff\n      and\n      eq\n        /* \"contracts/Blockchain_task.sol\":2072:2178  require(... */\n      tag_346\n      jumpi\n      mload(0x40)\n      0x08c379a000000000000000000000000000000000000000000000000000000000\n      dup2\n      mstore\n      0x04\n      add\n      tag_347\n      swap1\n      tag_131\n      jump\t// in\n    tag_347:\n      mload(0x40)\n      dup1\n      swap2\n      sub\n      swap1\n      revert\n    tag_346:\n        /* \"contracts/Blockchain_task.sol\":2246:2262  isContractActive */\n      0x09\n      0x00\n      swap1\n      sload\n      swap1\n      0x0100\n      exp\n      swap1\n      div\n      0xff\n      and\n        /* \"contracts/Blockchain_task.sol\":2238:2289  require(isContractActive, \"Contract is not active\") */\n      tag_349\n      jumpi\n      mload(0x40)\n      0x08c379a000000000000000000000000000000000000000000000000000000000\n      dup2\n      mstore\n      0x04\n      add\n      tag_350\n      swap1\n      tag_135\n      jump\t// in\n    tag_350:\n      mload(0x40)\n      dup1\n      swap2\n      sub\n      swap1\n      revert\n    tag_349:\n        /* \"contracts/Blockchain_task.sol\":16944:16945  0 */\n      0x00\n        /* \"contracts/Blockchain_task.sol\":16924:16946  newOwner != address(0) */\n      0xffffffffffffffffffffffffffffffffffffffff\n      and\n        /* \"contracts/Blockchain_task.sol\":16924:16932  newOwner */\n      dup2\n        /* \"contracts/Blockchain_task.sol\":16924:16946  newOwner != address(0) */\n      0xffffffffffffffffffffffffffffffffffffffff\n      and\n      sub\n        /* \"contracts/Blockchain_task.sol\":16916:16987  require(newOwner != address(0), \"New owner cannot be the zero address\") */\n      tag_352\n      jumpi\n      mload(0x40)\n      0x08c379a000000000000000000000000000000000000000000000000000000000\n      dup2\n      mstore\n      0x04\n      add\n      tag_353\n      swap1\n      tag_354\n      jump\t// in\n    tag_353:\n      mload(0x40)\n      dup1\n      swap2\n      sub\n      swap1\n      revert\n    tag_352:\n        /* \"contracts/Blockchain_task.sol\":17005:17013  newOwner */\n      dup1\n        /* \"contracts/Blockchain_task.sol\":16997:17002  owner */\n      0x00\n      dup1\n        /* \"contracts/Blockchain_task.sol\":16997:17013  owner = newOwner */\n      0x0100\n      exp\n      dup2\n      sload\n      dup2\n      0xffffffffffffffffffffffffffffffffffffffff\n      mul\n      not\n      and\n      swap1\n      dup4\n      0xffffffffffffffffffffffffffffffffffffffff\n      and\n      mul\n      or\n      swap1\n      sstore\n      pop\n        /* \"contracts/Blockchain_task.sol\":16835:17020  function changeOwner(address newOwner) public onlyOwner activeContract {... */\n      pop\n      jump\t// out\n        /* \"contracts/Blockchain_task.sol\":1164:1192  uint256 public bannedCounter */\n    tag_92:\n      sload(0x05)\n      dup2\n      jump\t// out\n        /* \"contracts/Blockchain_task.sol\":14235:15149  function getInvestorsAndShares(uint256 campaignId)... */\n    tag_97:\n        /* \"contracts/Blockchain_task.sol\":14389:14415  address[] memory investors */\n      0x60\n        /* \"contracts/Blockchain_task.sol\":14417:14440  uint256[] memory shares */\n      dup1\n        /* \"contracts/Blockchain_task.sol\":2246:2262  isContractActive */\n      0x09\n      0x00\n      swap1\n      sload\n      swap1\n      0x0100\n      exp\n      swap1\n      div\n      0xff\n      and\n        /* \"contracts/Blockchain_task.sol\":2238:2289  require(isContractActive, \"Contract is not active\") */\n      tag_356\n      jumpi\n      mload(0x40)\n      0x08c379a000000000000000000000000000000000000000000000000000000000\n      dup2\n      mstore\n      0x04\n      add\n      tag_357\n      swap1\n      tag_135\n      jump\t// in\n    tag_357:\n      mload(0x40)\n      dup1\n      swap2\n      sub\n      swap1\n      revert\n    tag_356:\n        /* \"contracts/Blockchain_task.sol\":14360:14370  campaignId */\n      dup3\n        /* \"contracts/Blockchain_task.sol\":3395:3396  0 */\n      0x00\n        /* \"contracts/Blockchain_task.sol\":3382:3392  campaignId */\n      dup2\n        /* \"contracts/Blockchain_task.sol\":3382:3396  campaignId > 0 */\n      gt\n        /* \"contracts/Blockchain_task.sol\":3382:3429  campaignId > 0 && campaignId <= campaignCounter */\n      dup1\n      iszero\n      tag_359\n      jumpi\n      pop\n        /* \"contracts/Blockchain_task.sol\":3414:3429  campaignCounter */\n      sload(0x03)\n        /* \"contracts/Blockchain_task.sol\":3400:3410  campaignId */\n      dup2\n        /* \"contracts/Blockchain_task.sol\":3400:3429  campaignId <= campaignCounter */\n      gt\n      iszero\n        /* \"contracts/Blockchain_task.sol\":3382:3429  campaignId > 0 && campaignId <= campaignCounter */\n    tag_359:\n        /* \"contracts/Blockchain_task.sol\":3361:3474  require(... */\n      tag_360\n      jumpi\n      mload(0x40)\n      0x08c379a000000000000000000000000000000000000000000000000000000000\n      dup2\n      mstore\n      0x04\n      add\n      tag_361\n      swap1\n      tag_362\n      jump\t// in\n    tag_361:\n      mload(0x40)\n      dup1\n      swap2\n      sub\n      swap1\n      revert\n    tag_360:\n        /* \"contracts/Blockchain_task.sol\":14554:14579  Campaign storage campaign */\n      0x00\n        /* \"contracts/Blockchain_task.sol\":14582:14591  campaigns */\n      0x04\n        /* \"contracts/Blockchain_task.sol\":14582:14603  campaigns[campaignId] */\n      0x00\n        /* \"contracts/Blockchain_task.sol\":14592:14602  campaignId */\n      dup7\n        /* \"contracts/Blockchain_task.sol\":14582:14603  campaigns[campaignId] */\n      dup2\n      mstore\n      0x20\n      add\n      swap1\n      dup2\n      mstore\n      0x20\n      add\n      0x00\n      keccak256\n        /* \"contracts/Blockchain_task.sol\":14554:14603  Campaign storage campaign = campaigns[campaignId] */\n      swap1\n      pop\n        /* \"contracts/Blockchain_task.sol\":14710:14731  uint256 investorCount */\n      0x00\n        /* \"contracts/Blockchain_task.sol\":14734:14742  campaign */\n      dup2\n        /* \"contracts/Blockchain_task.sol\":14734:14750  campaign.backers */\n      0x07\n      add\n        /* \"contracts/Blockchain_task.sol\":14734:14757  campaign.backers.length */\n      dup1\n      sload\n      swap1\n      pop\n        /* \"contracts/Blockchain_task.sol\":14710:14757  uint256 investorCount = campaign.backers.length */\n      swap1\n      pop\n        /* \"contracts/Blockchain_task.sol\":14793:14806  investorCount */\n      dup1\n        /* \"contracts/Blockchain_task.sol\":14779:14807  new address[](investorCount) */\n      0xffffffffffffffff\n      dup2\n      gt\n      iszero\n      tag_364\n      jumpi\n      tag_365\n      tag_205\n      jump\t// in\n    tag_365:\n    tag_364:\n      mload(0x40)\n      swap1\n      dup1\n      dup3\n      mstore\n      dup1\n      0x20\n      mul\n      0x20\n      add\n      dup3\n      add\n      0x40\n      mstore\n      dup1\n      iszero\n      tag_366\n      jumpi\n      dup2\n      0x20\n      add\n      0x20\n      dup3\n      mul\n      dup1\n      calldatasize\n      dup4\n      calldatacopy\n      dup1\n      dup3\n      add\n      swap2\n      pop\n      pop\n      swap1\n      pop\n    tag_366:\n      pop\n        /* \"contracts/Blockchain_task.sol\":14767:14807  investors = new address[](investorCount) */\n      swap5\n      pop\n        /* \"contracts/Blockchain_task.sol\":14840:14853  investorCount */\n      dup1\n        /* \"contracts/Blockchain_task.sol\":14826:14854  new uint256[](investorCount) */\n      0xffffffffffffffff\n      dup2\n      gt\n      iszero\n      tag_367\n      jumpi\n      tag_368\n      tag_205\n      jump\t// in\n    tag_368:\n    tag_367:\n      mload(0x40)\n      swap1\n      dup1\n      dup3\n      mstore\n      dup1\n      0x20\n      mul\n      0x20\n      add\n      dup3\n      add\n      0x40\n      mstore\n      dup1\n      iszero\n      tag_369\n      jumpi\n      dup2\n      0x20\n      add\n      0x20\n      dup3\n      mul\n      dup1\n      calldatasize\n      dup4\n      calldatacopy\n      dup1\n      dup3\n      add\n      swap2\n      pop\n      pop\n      swap1\n      pop\n    tag_369:\n      pop\n        /* \"contracts/Blockchain_task.sol\":14817:14854  shares = new uint256[](investorCount) */\n      swap4\n      pop\n        /* \"contracts/Blockchain_task.sol\":14950:14959  uint256 i */\n      0x00\n        /* \"contracts/Blockchain_task.sol\":14945:15143  for (uint256 i = 0; i < investorCount; i++) {... */\n    tag_370:\n        /* \"contracts/Blockchain_task.sol\":14969:14982  investorCount */\n      dup2\n        /* \"contracts/Blockchain_task.sol\":14965:14966  i */\n      dup2\n        /* \"contracts/Blockchain_task.sol\":14965:14982  i < investorCount */\n      lt\n        /* \"contracts/Blockchain_task.sol\":14945:15143  for (uint256 i = 0; i < investorCount; i++) {... */\n      iszero\n      tag_371\n      jumpi\n        /* \"contracts/Blockchain_task.sol\":15003:15017  address backer */\n      0x00\n        /* \"contracts/Blockchain_task.sol\":15020:15028  campaign */\n      dup4\n        /* \"contracts/Blockchain_task.sol\":15020:15036  campaign.backers */\n      0x07\n      add\n        /* \"contracts/Blockchain_task.sol\":15037:15038  i */\n      dup3\n        /* \"contracts/Blockchain_task.sol\":15020:15039  campaign.backers[i] */\n      dup2\n      sload\n      dup2\n      lt\n      tag_373\n      jumpi\n      tag_374\n      tag_147\n      jump\t// in\n    tag_374:\n    tag_373:\n      swap1\n      0x00\n      mstore\n      keccak256(0x00, 0x20)\n      add\n      0x00\n      swap1\n      sload\n      swap1\n      0x0100\n      exp\n      swap1\n      div\n      0xffffffffffffffffffffffffffffffffffffffff\n      and\n        /* \"contracts/Blockchain_task.sol\":15003:15039  address backer = campaign.backers[i] */\n      swap1\n      pop\n        /* \"contracts/Blockchain_task.sol\":15068:15074  backer */\n      dup1\n        /* \"contracts/Blockchain_task.sol\":15053:15062  investors */\n      dup8\n        /* \"contracts/Blockchain_task.sol\":15063:15064  i */\n      dup4\n        /* \"contracts/Blockchain_task.sol\":15053:15065  investors[i] */\n      dup2\n      mload\n      dup2\n      lt\n      tag_376\n      jumpi\n      tag_377\n      tag_147\n      jump\t// in\n    tag_377:\n    tag_376:\n      0x20\n      mul\n      0x20\n      add\n      add\n        /* \"contracts/Blockchain_task.sol\":15053:15074  investors[i] = backer */\n      swap1\n      0xffffffffffffffffffffffffffffffffffffffff\n      and\n      swap1\n      dup2\n      0xffffffffffffffffffffffffffffffffffffffff\n      and\n      dup2\n      mstore\n      pop\n      pop\n        /* \"contracts/Blockchain_task.sol\":15100:15108  campaign */\n      dup4\n        /* \"contracts/Blockchain_task.sol\":15100:15124  campaign.sharesPerBacker */\n      0x08\n      add\n        /* \"contracts/Blockchain_task.sol\":15100:15132  campaign.sharesPerBacker[backer] */\n      0x00\n        /* \"contracts/Blockchain_task.sol\":15125:15131  backer */\n      dup3\n        /* \"contracts/Blockchain_task.sol\":15100:15132  campaign.sharesPerBacker[backer] */\n      0xffffffffffffffffffffffffffffffffffffffff\n      and\n      0xffffffffffffffffffffffffffffffffffffffff\n      and\n      dup2\n      mstore\n      0x20\n      add\n      swap1\n      dup2\n      mstore\n      0x20\n      add\n      0x00\n      keccak256\n      sload\n        /* \"contracts/Blockchain_task.sol\":15088:15094  shares */\n      dup7\n        /* \"contracts/Blockchain_task.sol\":15095:15096  i */\n      dup4\n        /* \"contracts/Blockchain_task.sol\":15088:15097  shares[i] */\n      dup2\n      mload\n      dup2\n      lt\n      tag_378\n      jumpi\n      tag_379\n      tag_147\n      jump\t// in\n    tag_379:\n    tag_378:\n      0x20\n      mul\n      0x20\n      add\n      add\n        /* \"contracts/Blockchain_task.sol\":15088:15132  shares[i] = campaign.sharesPerBacker[backer] */\n      dup2\n      dup2\n      mstore\n      pop\n      pop\n        /* \"contracts/Blockchain_task.sol\":14989:15143  {... */\n      pop\n        /* \"contracts/Blockchain_task.sol\":14984:14987  i++ */\n      dup1\n      dup1\n      0x01\n      add\n      swap2\n      pop\n      pop\n        /* \"contracts/Blockchain_task.sol\":14945:15143  for (uint256 i = 0; i < investorCount; i++) {... */\n      jump(tag_370)\n    tag_371:\n      pop\n        /* \"contracts/Blockchain_task.sol\":14446:15149  {... */\n      pop\n      pop\n        /* \"contracts/Blockchain_task.sol\":2299:2300  _ */\n      pop\n        /* \"contracts/Blockchain_task.sol\":14235:15149  function getInvestorsAndShares(uint256 campaignId)... */\n      swap2\n      pop\n      swap2\n      jump\t// out\n        /* \"contracts/Blockchain_task.sol\":1325:1367  mapping(address => uint256) public refunds */\n    tag_103:\n      mstore(0x20, 0x08)\n      dup1\n      0x00\n      mstore\n      keccak256(0x00, 0x40)\n      0x00\n      swap2\n      pop\n      swap1\n      pop\n      sload\n      dup2\n      jump\t// out\n        /* \"contracts/Blockchain_task.sol\":1198:1240  mapping(address => bool) public bannedList */\n    tag_108:\n      mstore(0x20, 0x06)\n      dup1\n      0x00\n      mstore\n      keccak256(0x00, 0x40)\n      0x00\n      swap2\n      pop\n      sload\n      swap1\n      0x0100\n      exp\n      swap1\n      div\n      0xff\n      and\n      dup2\n      jump\t// out\n        /* \"contracts/Blockchain_task.sol\":12777:14136  function getCancelledCampaigns()... */\n    tag_113:\n        /* \"contracts/Blockchain_task.sol\":12878:12899  CampaignInfo[] memory */\n      0x60\n        /* \"contracts/Blockchain_task.sol\":2246:2262  isContractActive */\n      0x09\n      0x00\n      swap1\n      sload\n      swap1\n      0x0100\n      exp\n      swap1\n      div\n      0xff\n      and\n        /* \"contracts/Blockchain_task.sol\":2238:2289  require(isContractActive, \"Contract is not active\") */\n      tag_381\n      jumpi\n      mload(0x40)\n      0x08c379a000000000000000000000000000000000000000000000000000000000\n      dup2\n      mstore\n      0x04\n      add\n      tag_382\n      swap1\n      tag_135\n      jump\t// in\n    tag_382:\n      mload(0x40)\n      dup1\n      swap2\n      sub\n      swap1\n      revert\n    tag_381:\n        /* \"contracts/Blockchain_task.sol\":12915:12937  uint256 cancelledCount */\n      0x00\n        /* \"contracts/Blockchain_task.sol\":13030:13039  uint256 i */\n      dup1\n        /* \"contracts/Blockchain_task.sol\":13025:13174  for (uint256 i = 0; i < campaignCounter; i++) {... */\n    tag_384:\n        /* \"contracts/Blockchain_task.sol\":13049:13064  campaignCounter */\n      sload(0x03)\n        /* \"contracts/Blockchain_task.sol\":13045:13046  i */\n      dup2\n        /* \"contracts/Blockchain_task.sol\":13045:13064  i < campaignCounter */\n      lt\n        /* \"contracts/Blockchain_task.sol\":13025:13174  for (uint256 i = 0; i < campaignCounter; i++) {... */\n      iszero\n      tag_385\n      jumpi\n        /* \"contracts/Blockchain_task.sol\":13089:13098  campaigns */\n      0x04\n        /* \"contracts/Blockchain_task.sol\":13089:13101  campaigns[i] */\n      0x00\n        /* \"contracts/Blockchain_task.sol\":13099:13100  i */\n      dup3\n        /* \"contracts/Blockchain_task.sol\":13089:13101  campaigns[i] */\n      dup2\n      mstore\n      0x20\n      add\n      swap1\n      dup2\n      mstore\n      0x20\n      add\n      0x00\n      keccak256\n        /* \"contracts/Blockchain_task.sol\":13089:13113  campaigns[i].isCancelled */\n      0x06\n      add\n      0x01\n      swap1\n      sload\n      swap1\n      0x0100\n      exp\n      swap1\n      div\n      0xff\n      and\n        /* \"contracts/Blockchain_task.sol\":13085:13164  if (campaigns[i].isCancelled) {... */\n      iszero\n      tag_387\n      jumpi\n        /* \"contracts/Blockchain_task.sol\":13133:13149  cancelledCount++ */\n      dup2\n      dup1\n      tag_388\n      swap1\n      tag_202\n      jump\t// in\n    tag_388:\n      swap3\n      pop\n      pop\n        /* \"contracts/Blockchain_task.sol\":13085:13164  if (campaigns[i].isCancelled) {... */\n    tag_387:\n        /* \"contracts/Blockchain_task.sol\":13066:13069  i++ */\n      dup1\n      dup1\n      0x01\n      add\n      swap2\n      pop\n      pop\n        /* \"contracts/Blockchain_task.sol\":13025:13174  for (uint256 i = 0; i < campaignCounter; i++) {... */\n      jump(tag_384)\n    tag_385:\n      pop\n        /* \"contracts/Blockchain_task.sol\":13297:13337  CampaignInfo[] memory cancelledCampaigns */\n      0x00\n        /* \"contracts/Blockchain_task.sol\":13372:13386  cancelledCount */\n      dup2\n        /* \"contracts/Blockchain_task.sol\":13340:13396  new CampaignInfo[](... */\n      0xffffffffffffffff\n      dup2\n      gt\n      iszero\n      tag_389\n      jumpi\n      tag_390\n      tag_205\n      jump\t// in\n    tag_390:\n    tag_389:\n      mload(0x40)\n      swap1\n      dup1\n      dup3\n      mstore\n      dup1\n      0x20\n      mul\n      0x20\n      add\n      dup3\n      add\n      0x40\n      mstore\n      dup1\n      iszero\n      tag_391\n      jumpi\n      dup2\n      0x20\n      add\n    tag_392:\n      tag_393\n      tag_258\n      jump\t// in\n    tag_393:\n      dup2\n      mstore\n      0x20\n      add\n      swap1\n      0x01\n      swap1\n      sub\n      swap1\n      dup2\n      tag_392\n      jumpi\n      swap1\n      pop\n    tag_391:\n      pop\n        /* \"contracts/Blockchain_task.sol\":13297:13396  CampaignInfo[] memory cancelledCampaigns = new CampaignInfo[](... */\n      swap1\n      pop\n        /* \"contracts/Blockchain_task.sol\":13406:13419  uint256 index */\n      0x00\n        /* \"contracts/Blockchain_task.sol\":13520:13529  uint256 i */\n      dup1\n        /* \"contracts/Blockchain_task.sol\":13515:14094  for (uint256 i = 0; i < campaignCounter; i++) {... */\n    tag_394:\n        /* \"contracts/Blockchain_task.sol\":13539:13554  campaignCounter */\n      sload(0x03)\n        /* \"contracts/Blockchain_task.sol\":13535:13536  i */\n      dup2\n        /* \"contracts/Blockchain_task.sol\":13535:13554  i < campaignCounter */\n      lt\n        /* \"contracts/Blockchain_task.sol\":13515:14094  for (uint256 i = 0; i < campaignCounter; i++) {... */\n      iszero\n      tag_395\n      jumpi\n        /* \"contracts/Blockchain_task.sol\":13579:13588  campaigns */\n      0x04\n        /* \"contracts/Blockchain_task.sol\":13579:13591  campaigns[i] */\n      0x00\n        /* \"contracts/Blockchain_task.sol\":13589:13590  i */\n      dup3\n        /* \"contracts/Blockchain_task.sol\":13579:13591  campaigns[i] */\n      dup2\n      mstore\n      0x20\n      add\n      swap1\n      dup2\n      mstore\n      0x20\n      add\n      0x00\n      keccak256\n        /* \"contracts/Blockchain_task.sol\":13579:13603  campaigns[i].isCancelled */\n      0x06\n      add\n      0x01\n      swap1\n      sload\n      swap1\n      0x0100\n      exp\n      swap1\n      div\n      0xff\n      and\n        /* \"contracts/Blockchain_task.sol\":13575:14084  if (campaigns[i].isCancelled) {... */\n      iszero\n      tag_397\n      jumpi\n        /* \"contracts/Blockchain_task.sol\":13651:14044  CampaignInfo(... */\n      mload(0x40)\n      dup1\n      0x0100\n      add\n      0x40\n      mstore\n      dup1\n        /* \"contracts/Blockchain_task.sol\":13685:13694  campaigns */\n      0x04\n        /* \"contracts/Blockchain_task.sol\":13685:13697  campaigns[i] */\n      0x00\n        /* \"contracts/Blockchain_task.sol\":13695:13696  i */\n      dup5\n        /* \"contracts/Blockchain_task.sol\":13685:13697  campaigns[i] */\n      dup2\n      mstore\n      0x20\n      add\n      swap1\n      dup2\n      mstore\n      0x20\n      add\n      0x00\n      keccak256\n        /* \"contracts/Blockchain_task.sol\":13685:13708  campaigns[i].campaignId */\n      0x00\n      add\n      sload\n        /* \"contracts/Blockchain_task.sol\":13651:14044  CampaignInfo(... */\n      dup2\n      mstore\n      0x20\n      add\n        /* \"contracts/Blockchain_task.sol\":13730:13739  campaigns */\n      0x04\n        /* \"contracts/Blockchain_task.sol\":13730:13742  campaigns[i] */\n      0x00\n        /* \"contracts/Blockchain_task.sol\":13740:13741  i */\n      dup5\n        /* \"contracts/Blockchain_task.sol\":13730:13742  campaigns[i] */\n      dup2\n      mstore\n      0x20\n      add\n      swap1\n      dup2\n      mstore\n      0x20\n      add\n      0x00\n      keccak256\n        /* \"contracts/Blockchain_task.sol\":13730:13755  campaigns[i].entrepreneur */\n      0x01\n      add\n      0x00\n      swap1\n      sload\n      swap1\n      0x0100\n      exp\n      swap1\n      div\n      0xffffffffffffffffffffffffffffffffffffffff\n      and\n        /* \"contracts/Blockchain_task.sol\":13651:14044  CampaignInfo(... */\n      0xffffffffffffffffffffffffffffffffffffffff\n      and\n      dup2\n      mstore\n      0x20\n      add\n        /* \"contracts/Blockchain_task.sol\":13777:13786  campaigns */\n      0x04\n        /* \"contracts/Blockchain_task.sol\":13777:13789  campaigns[i] */\n      0x00\n        /* \"contracts/Blockchain_task.sol\":13787:13788  i */\n      dup5\n        /* \"contracts/Blockchain_task.sol\":13777:13789  campaigns[i] */\n      dup2\n      mstore\n      0x20\n      add\n      swap1\n      dup2\n      mstore\n      0x20\n      add\n      0x00\n      keccak256\n        /* \"contracts/Blockchain_task.sol\":13777:13795  campaigns[i].title */\n      0x02\n      add\n        /* \"contracts/Blockchain_task.sol\":13651:14044  CampaignInfo(... */\n      dup1\n      sload\n      tag_398\n      swap1\n      tag_154\n      jump\t// in\n    tag_398:\n      dup1\n      0x1f\n      add\n      0x20\n      dup1\n      swap2\n      div\n      mul\n      0x20\n      add\n      mload(0x40)\n      swap1\n      dup2\n      add\n      0x40\n      mstore\n      dup1\n      swap3\n      swap2\n      swap1\n      dup2\n      dup2\n      mstore\n      0x20\n      add\n      dup3\n      dup1\n      sload\n      tag_399\n      swap1\n      tag_154\n      jump\t// in\n    tag_399:\n      dup1\n      iszero\n      tag_400\n      jumpi\n      dup1\n      0x1f\n      lt\n      tag_401\n      jumpi\n      0x0100\n      dup1\n      dup4\n      sload\n      div\n      mul\n      dup4\n      mstore\n      swap2\n      0x20\n      add\n      swap2\n      jump(tag_400)\n    tag_401:\n      dup3\n      add\n      swap2\n      swap1\n      0x00\n      mstore\n      keccak256(0x00, 0x20)\n      swap1\n    tag_402:\n      dup2\n      sload\n      dup2\n      mstore\n      swap1\n      0x01\n      add\n      swap1\n      0x20\n      add\n      dup1\n      dup4\n      gt\n      tag_402\n      jumpi\n      dup3\n      swap1\n      sub\n      0x1f\n      and\n      dup3\n      add\n      swap2\n    tag_400:\n      pop\n      pop\n      pop\n      pop\n      pop\n      dup2\n      mstore\n      0x20\n      add\n        /* \"contracts/Blockchain_task.sol\":13817:13826  campaigns */\n      0x04\n        /* \"contracts/Blockchain_task.sol\":13817:13829  campaigns[i] */\n      0x00\n        /* \"contracts/Blockchain_task.sol\":13827:13828  i */\n      dup5\n        /* \"contracts/Blockchain_task.sol\":13817:13829  campaigns[i] */\n      dup2\n      mstore\n      0x20\n      add\n      swap1\n      dup2\n      mstore\n      0x20\n      add\n      0x00\n      keccak256\n        /* \"contracts/Blockchain_task.sol\":13817:13840  campaigns[i].sharePrice */\n      0x03\n      add\n      sload\n        /* \"contracts/Blockchain_task.sol\":13651:14044  CampaignInfo(... */\n      dup2\n      mstore\n      0x20\n      add\n        /* \"contracts/Blockchain_task.sol\":13862:13871  campaigns */\n      0x04\n        /* \"contracts/Blockchain_task.sol\":13862:13874  campaigns[i] */\n      0x00\n        /* \"contracts/Blockchain_task.sol\":13872:13873  i */\n      dup5\n        /* \"contracts/Blockchain_task.sol\":13862:13874  campaigns[i] */\n      dup2\n      mstore\n      0x20\n      add\n      swap1\n      dup2\n      mstore\n      0x20\n      add\n      0x00\n      keccak256\n        /* \"contracts/Blockchain_task.sol\":13862:13886  campaigns[i].totalShares */\n      0x04\n      add\n      sload\n        /* \"contracts/Blockchain_task.sol\":13651:14044  CampaignInfo(... */\n      dup2\n      mstore\n      0x20\n      add\n        /* \"contracts/Blockchain_task.sol\":13908:13917  campaigns */\n      0x04\n        /* \"contracts/Blockchain_task.sol\":13908:13920  campaigns[i] */\n      0x00\n        /* \"contracts/Blockchain_task.sol\":13918:13919  i */\n      dup5\n        /* \"contracts/Blockchain_task.sol\":13908:13920  campaigns[i] */\n      dup2\n      mstore\n      0x20\n      add\n      swap1\n      dup2\n      mstore\n      0x20\n      add\n      0x00\n      keccak256\n        /* \"contracts/Blockchain_task.sol\":13908:13934  campaigns[i].currentShares */\n      0x05\n      add\n      sload\n        /* \"contracts/Blockchain_task.sol\":13651:14044  CampaignInfo(... */\n      dup2\n      mstore\n      0x20\n      add\n        /* \"contracts/Blockchain_task.sol\":13956:13965  campaigns */\n      0x04\n        /* \"contracts/Blockchain_task.sol\":13956:13968  campaigns[i] */\n      0x00\n        /* \"contracts/Blockchain_task.sol\":13966:13967  i */\n      dup5\n        /* \"contracts/Blockchain_task.sol\":13956:13968  campaigns[i] */\n      dup2\n      mstore\n      0x20\n      add\n      swap1\n      dup2\n      mstore\n      0x20\n      add\n      0x00\n      keccak256\n        /* \"contracts/Blockchain_task.sol\":13956:13980  campaigns[i].isCompleted */\n      0x06\n      add\n      0x02\n      swap1\n      sload\n      swap1\n      0x0100\n      exp\n      swap1\n      div\n      0xff\n      and\n        /* \"contracts/Blockchain_task.sol\":13651:14044  CampaignInfo(... */\n      iszero\n      iszero\n      dup2\n      mstore\n      0x20\n      add\n        /* \"contracts/Blockchain_task.sol\":14002:14011  campaigns */\n      0x04\n        /* \"contracts/Blockchain_task.sol\":14002:14014  campaigns[i] */\n      0x00\n        /* \"contracts/Blockchain_task.sol\":14012:14013  i */\n      dup5\n        /* \"contracts/Blockchain_task.sol\":14002:14014  campaigns[i] */\n      dup2\n      mstore\n      0x20\n      add\n      swap1\n      dup2\n      mstore\n      0x20\n      add\n      0x00\n      keccak256\n        /* \"contracts/Blockchain_task.sol\":14002:14026  campaigns[i].isCancelled */\n      0x06\n      add\n      0x01\n      swap1\n      sload\n      swap1\n      0x0100\n      exp\n      swap1\n      div\n      0xff\n      and\n        /* \"contracts/Blockchain_task.sol\":13651:14044  CampaignInfo(... */\n      iszero\n      iszero\n      dup2\n      mstore\n      pop\n        /* \"contracts/Blockchain_task.sol\":13623:13641  cancelledCampaigns */\n      dup4\n        /* \"contracts/Blockchain_task.sol\":13642:13647  index */\n      dup4\n        /* \"contracts/Blockchain_task.sol\":13623:13648  cancelledCampaigns[index] */\n      dup2\n      mload\n      dup2\n      lt\n      tag_403\n      jumpi\n      tag_404\n      tag_147\n      jump\t// in\n    tag_404:\n    tag_403:\n      0x20\n      mul\n      0x20\n      add\n      add\n        /* \"contracts/Blockchain_task.sol\":13623:14044  cancelledCampaigns[index] = CampaignInfo(... */\n      dup2\n      swap1\n      mstore\n      pop\n        /* \"contracts/Blockchain_task.sol\":14062:14069  index++ */\n      dup2\n      dup1\n      tag_405\n      swap1\n      tag_202\n      jump\t// in\n    tag_405:\n      swap3\n      pop\n      pop\n        /* \"contracts/Blockchain_task.sol\":13575:14084  if (campaigns[i].isCancelled) {... */\n    tag_397:\n        /* \"contracts/Blockchain_task.sol\":13556:13559  i++ */\n      dup1\n      dup1\n      0x01\n      add\n      swap2\n      pop\n      pop\n        /* \"contracts/Blockchain_task.sol\":13515:14094  for (uint256 i = 0; i < campaignCounter; i++) {... */\n      jump(tag_394)\n    tag_395:\n      pop\n        /* \"contracts/Blockchain_task.sol\":14111:14129  cancelledCampaigns */\n      dup2\n        /* \"contracts/Blockchain_task.sol\":14104:14129  return cancelledCampaigns */\n      swap4\n      pop\n      pop\n      pop\n      pop\n        /* \"contracts/Blockchain_task.sol\":12777:14136  function getCancelledCampaigns()... */\n      swap1\n      jump\t// out\n        /* \"contracts/Blockchain_task.sol\":9823:11210  function getActiveCampaigns()... */\n    tag_117:\n        /* \"contracts/Blockchain_task.sol\":9921:9942  CampaignInfo[] memory */\n      0x60\n        /* \"contracts/Blockchain_task.sol\":2246:2262  isContractActive */\n      0x09\n      0x00\n      swap1\n      sload\n      swap1\n      0x0100\n      exp\n      swap1\n      div\n      0xff\n      and\n        /* \"contracts/Blockchain_task.sol\":2238:2289  require(isContractActive, \"Contract is not active\") */\n      tag_407\n      jumpi\n      mload(0x40)\n      0x08c379a000000000000000000000000000000000000000000000000000000000\n      dup2\n      mstore\n      0x04\n      add\n      tag_408\n      swap1\n      tag_135\n      jump\t// in\n    tag_408:\n      mload(0x40)\n      dup1\n      swap2\n      sub\n      swap1\n      revert\n    tag_407:\n        /* \"contracts/Blockchain_task.sol\":9958:9977  uint256 activeCount */\n      0x00\n        /* \"contracts/Blockchain_task.sol\":10064:10073  uint256 i */\n      dup1\n        /* \"contracts/Blockchain_task.sol\":10059:10235  for (uint256 i = 0; i < campaignCounter; i++) {... */\n    tag_410:\n        /* \"contracts/Blockchain_task.sol\":10083:10098  campaignCounter */\n      sload(0x03)\n        /* \"contracts/Blockchain_task.sol\":10079:10080  i */\n      dup2\n        /* \"contracts/Blockchain_task.sol\":10079:10098  i < campaignCounter */\n      lt\n        /* \"contracts/Blockchain_task.sol\":10059:10235  for (uint256 i = 0; i < campaignCounter; i++) {... */\n      iszero\n      tag_411\n      jumpi\n        /* \"contracts/Blockchain_task.sol\":10124:10133  campaigns */\n      0x04\n        /* \"contracts/Blockchain_task.sol\":10124:10136  campaigns[i] */\n      0x00\n        /* \"contracts/Blockchain_task.sol\":10134:10135  i */\n      dup3\n        /* \"contracts/Blockchain_task.sol\":10124:10136  campaigns[i] */\n      dup2\n      mstore\n      0x20\n      add\n      swap1\n      dup2\n      mstore\n      0x20\n      add\n      0x00\n      keccak256\n        /* \"contracts/Blockchain_task.sol\":10124:10148  campaigns[i].isCompleted */\n      0x06\n      add\n      0x02\n      swap1\n      sload\n      swap1\n      0x0100\n      exp\n      swap1\n      div\n      0xff\n      and\n        /* \"contracts/Blockchain_task.sol\":10123:10148  !campaigns[i].isCompleted */\n      iszero\n        /* \"contracts/Blockchain_task.sol\":10123:10177  !campaigns[i].isCompleted && !campaigns[i].isCancelled */\n      dup1\n      iszero\n      tag_413\n      jumpi\n      pop\n        /* \"contracts/Blockchain_task.sol\":10153:10162  campaigns */\n      0x04\n        /* \"contracts/Blockchain_task.sol\":10153:10165  campaigns[i] */\n      0x00\n        /* \"contracts/Blockchain_task.sol\":10163:10164  i */\n      dup3\n        /* \"contracts/Blockchain_task.sol\":10153:10165  campaigns[i] */\n      dup2\n      mstore\n      0x20\n      add\n      swap1\n      dup2\n      mstore\n      0x20\n      add\n      0x00\n      keccak256\n        /* \"contracts/Blockchain_task.sol\":10153:10177  campaigns[i].isCancelled */\n      0x06\n      add\n      0x01\n      swap1\n      sload\n      swap1\n      0x0100\n      exp\n      swap1\n      div\n      0xff\n      and\n        /* \"contracts/Blockchain_task.sol\":10152:10177  !campaigns[i].isCancelled */\n      iszero\n        /* \"contracts/Blockchain_task.sol\":10123:10177  !campaigns[i].isCompleted && !campaigns[i].isCancelled */\n    tag_413:\n        /* \"contracts/Blockchain_task.sol\":10119:10225  if (!campaigns[i].isCompleted && !campaigns[i].isCancelled) {... */\n      iszero\n      tag_414\n      jumpi\n        /* \"contracts/Blockchain_task.sol\":10197:10210  activeCount++ */\n      dup2\n      dup1\n      tag_415\n      swap1\n      tag_202\n      jump\t// in\n    tag_415:\n      swap3\n      pop\n      pop\n        /* \"contracts/Blockchain_task.sol\":10119:10225  if (!campaigns[i].isCompleted && !campaigns[i].isCancelled) {... */\n    tag_414:\n        /* \"contracts/Blockchain_task.sol\":10100:10103  i++ */\n      dup1\n      dup1\n      0x01\n      add\n      swap2\n      pop\n      pop\n        /* \"contracts/Blockchain_task.sol\":10059:10235  for (uint256 i = 0; i < campaignCounter; i++) {... */\n      jump(tag_410)\n    tag_411:\n      pop\n        /* \"contracts/Blockchain_task.sol\":10352:10389  CampaignInfo[] memory activeCampaigns */\n      0x00\n        /* \"contracts/Blockchain_task.sol\":10411:10422  activeCount */\n      dup2\n        /* \"contracts/Blockchain_task.sol\":10392:10423  new CampaignInfo[](activeCount) */\n      0xffffffffffffffff\n      dup2\n      gt\n      iszero\n      tag_416\n      jumpi\n      tag_417\n      tag_205\n      jump\t// in\n    tag_417:\n    tag_416:\n      mload(0x40)\n      swap1\n      dup1\n      dup3\n      mstore\n      dup1\n      0x20\n      mul\n      0x20\n      add\n      dup3\n      add\n      0x40\n      mstore\n      dup1\n      iszero\n      tag_418\n      jumpi\n      dup2\n      0x20\n      add\n    tag_419:\n      tag_420\n      tag_258\n      jump\t// in\n    tag_420:\n      dup2\n      mstore\n      0x20\n      add\n      swap1\n      0x01\n      swap1\n      sub\n      swap1\n      dup2\n      tag_419\n      jumpi\n      swap1\n      pop\n    tag_418:\n      pop\n        /* \"contracts/Blockchain_task.sol\":10352:10423  CampaignInfo[] memory activeCampaigns = new CampaignInfo[](activeCount) */\n      swap1\n      pop\n        /* \"contracts/Blockchain_task.sol\":10433:10446  uint256 index */\n      0x00\n        /* \"contracts/Blockchain_task.sol\":10541:10550  uint256 i */\n      dup1\n        /* \"contracts/Blockchain_task.sol\":10536:11171  for (uint256 i = 0; i < campaignCounter; i++) {... */\n    tag_421:\n        /* \"contracts/Blockchain_task.sol\":10560:10575  campaignCounter */\n      sload(0x03)\n        /* \"contracts/Blockchain_task.sol\":10556:10557  i */\n      dup2\n        /* \"contracts/Blockchain_task.sol\":10556:10575  i < campaignCounter */\n      lt\n        /* \"contracts/Blockchain_task.sol\":10536:11171  for (uint256 i = 0; i < campaignCounter; i++) {... */\n      iszero\n      tag_422\n      jumpi\n        /* \"contracts/Blockchain_task.sol\":10601:10610  campaigns */\n      0x04\n        /* \"contracts/Blockchain_task.sol\":10601:10613  campaigns[i] */\n      0x00\n        /* \"contracts/Blockchain_task.sol\":10611:10612  i */\n      dup3\n        /* \"contracts/Blockchain_task.sol\":10601:10613  campaigns[i] */\n      dup2\n      mstore\n      0x20\n      add\n      swap1\n      dup2\n      mstore\n      0x20\n      add\n      0x00\n      keccak256\n        /* \"contracts/Blockchain_task.sol\":10601:10625  campaigns[i].isCompleted */\n      0x06\n      add\n      0x02\n      swap1\n      sload\n      swap1\n      0x0100\n      exp\n      swap1\n      div\n      0xff\n      and\n        /* \"contracts/Blockchain_task.sol\":10600:10625  !campaigns[i].isCompleted */\n      iszero\n        /* \"contracts/Blockchain_task.sol\":10600:10654  !campaigns[i].isCompleted && !campaigns[i].isCancelled */\n      dup1\n      iszero\n      tag_424\n      jumpi\n      pop\n        /* \"contracts/Blockchain_task.sol\":10630:10639  campaigns */\n      0x04\n        /* \"contracts/Blockchain_task.sol\":10630:10642  campaigns[i] */\n      0x00\n        /* \"contracts/Blockchain_task.sol\":10640:10641  i */\n      dup3\n        /* \"contracts/Blockchain_task.sol\":10630:10642  campaigns[i] */\n      dup2\n      mstore\n      0x20\n      add\n      swap1\n      dup2\n      mstore\n      0x20\n      add\n      0x00\n      keccak256\n        /* \"contracts/Blockchain_task.sol\":10630:10654  campaigns[i].isCancelled */\n      0x06\n      add\n      0x01\n      swap1\n      sload\n      swap1\n      0x0100\n      exp\n      swap1\n      div\n      0xff\n      and\n        /* \"contracts/Blockchain_task.sol\":10629:10654  !campaigns[i].isCancelled */\n      iszero\n        /* \"contracts/Blockchain_task.sol\":10600:10654  !campaigns[i].isCompleted && !campaigns[i].isCancelled */\n    tag_424:\n        /* \"contracts/Blockchain_task.sol\":10596:11161  if (!campaigns[i].isCompleted && !campaigns[i].isCancelled) {... */\n      iszero\n      tag_425\n      jumpi\n        /* \"contracts/Blockchain_task.sol\":10699:11121  CampaignInfo(... */\n      mload(0x40)\n      dup1\n      0x0100\n      add\n      0x40\n      mstore\n      dup1\n        /* \"contracts/Blockchain_task.sol\":10733:10742  campaigns */\n      0x04\n        /* \"contracts/Blockchain_task.sol\":10733:10745  campaigns[i] */\n      0x00\n        /* \"contracts/Blockchain_task.sol\":10743:10744  i */\n      dup5\n        /* \"contracts/Blockchain_task.sol\":10733:10745  campaigns[i] */\n      dup2\n      mstore\n      0x20\n      add\n      swap1\n      dup2\n      mstore\n      0x20\n      add\n      0x00\n      keccak256\n        /* \"contracts/Blockchain_task.sol\":10733:10756  campaigns[i].campaignId */\n      0x00\n      add\n      sload\n        /* \"contracts/Blockchain_task.sol\":10699:11121  CampaignInfo(... */\n      dup2\n      mstore\n      0x20\n      add\n        /* \"contracts/Blockchain_task.sol\":10778:10787  campaigns */\n      0x04\n        /* \"contracts/Blockchain_task.sol\":10778:10790  campaigns[i] */\n      0x00\n        /* \"contracts/Blockchain_task.sol\":10788:10789  i */\n      dup5\n        /* \"contracts/Blockchain_task.sol\":10778:10790  campaigns[i] */\n      dup2\n      mstore\n      0x20\n      add\n      swap1\n      dup2\n      mstore\n      0x20\n      add\n      0x00\n      keccak256\n        /* \"contracts/Blockchain_task.sol\":10778:10803  campaigns[i].entrepreneur */\n      0x01\n      add\n      0x00\n      swap1\n      sload\n      swap1\n      0x0100\n      exp\n      swap1\n      div\n      0xffffffffffffffffffffffffffffffffffffffff\n      and\n        /* \"contracts/Blockchain_task.sol\":10699:11121  CampaignInfo(... */\n      0xffffffffffffffffffffffffffffffffffffffff\n      and\n      dup2\n      mstore\n      0x20\n      add\n        /* \"contracts/Blockchain_task.sol\":10825:10834  campaigns */\n      0x04\n        /* \"contracts/Blockchain_task.sol\":10825:10837  campaigns[i] */\n      0x00\n        /* \"contracts/Blockchain_task.sol\":10835:10836  i */\n      dup5\n        /* \"contracts/Blockchain_task.sol\":10825:10837  campaigns[i] */\n      dup2\n      mstore\n      0x20\n      add\n      swap1\n      dup2\n      mstore\n      0x20\n      add\n      0x00\n      keccak256\n        /* \"contracts/Blockchain_task.sol\":10825:10843  campaigns[i].title */\n      0x02\n      add\n        /* \"contracts/Blockchain_task.sol\":10699:11121  CampaignInfo(... */\n      dup1\n      sload\n      tag_426\n      swap1\n      tag_154\n      jump\t// in\n    tag_426:\n      dup1\n      0x1f\n      add\n      0x20\n      dup1\n      swap2\n      div\n      mul\n      0x20\n      add\n      mload(0x40)\n      swap1\n      dup2\n      add\n      0x40\n      mstore\n      dup1\n      swap3\n      swap2\n      swap1\n      dup2\n      dup2\n      mstore\n      0x20\n      add\n      dup3\n      dup1\n      sload\n      tag_427\n      swap1\n      tag_154\n      jump\t// in\n    tag_427:\n      dup1\n      iszero\n      tag_428\n      jumpi\n      dup1\n      0x1f\n      lt\n      tag_429\n      jumpi\n      0x0100\n      dup1\n      dup4\n      sload\n      div\n      mul\n      dup4\n      mstore\n      swap2\n      0x20\n      add\n      swap2\n      jump(tag_428)\n    tag_429:\n      dup3\n      add\n      swap2\n      swap1\n      0x00\n      mstore\n      keccak256(0x00, 0x20)\n      swap1\n    tag_430:\n      dup2\n      sload\n      dup2\n      mstore\n      swap1\n      0x01\n      add\n      swap1\n      0x20\n      add\n      dup1\n      dup4\n      gt\n      tag_430\n      jumpi\n      dup3\n      swap1\n      sub\n      0x1f\n      and\n      dup3\n      add\n      swap2\n    tag_428:\n      pop\n      pop\n      pop\n      pop\n      pop\n      dup2\n      mstore\n      0x20\n      add\n        /* \"contracts/Blockchain_task.sol\":10865:10874  campaigns */\n      0x04\n        /* \"contracts/Blockchain_task.sol\":10865:10877  campaigns[i] */\n      0x00\n        /* \"contracts/Blockchain_task.sol\":10875:10876  i */\n      dup5\n        /* \"contracts/Blockchain_task.sol\":10865:10877  campaigns[i] */\n      dup2\n      mstore\n      0x20\n      add\n      swap1\n      dup2\n      mstore\n      0x20\n      add\n      0x00\n      keccak256\n        /* \"contracts/Blockchain_task.sol\":10865:10888  campaigns[i].sharePrice */\n      0x03\n      add\n      sload\n        /* \"contracts/Blockchain_task.sol\":10699:11121  CampaignInfo(... */\n      dup2\n      mstore\n      0x20\n      add\n        /* \"contracts/Blockchain_task.sol\":10937:10946  campaigns */\n      0x04\n        /* \"contracts/Blockchain_task.sol\":10937:10949  campaigns[i] */\n      0x00\n        /* \"contracts/Blockchain_task.sol\":10947:10948  i */\n      dup5\n        /* \"contracts/Blockchain_task.sol\":10937:10949  campaigns[i] */\n      dup2\n      mstore\n      0x20\n      add\n      swap1\n      dup2\n      mstore\n      0x20\n      add\n      0x00\n      keccak256\n        /* \"contracts/Blockchain_task.sol\":10937:10963  campaigns[i].currentShares */\n      0x05\n      add\n      sload\n        /* \"contracts/Blockchain_task.sol\":10910:10919  campaigns */\n      0x04\n        /* \"contracts/Blockchain_task.sol\":10910:10922  campaigns[i] */\n      0x00\n        /* \"contracts/Blockchain_task.sol\":10920:10921  i */\n      dup6\n        /* \"contracts/Blockchain_task.sol\":10910:10922  campaigns[i] */\n      dup2\n      mstore\n      0x20\n      add\n      swap1\n      dup2\n      mstore\n      0x20\n      add\n      0x00\n      keccak256\n        /* \"contracts/Blockchain_task.sol\":10910:10934  campaigns[i].totalShares */\n      0x04\n      add\n      sload\n        /* \"contracts/Blockchain_task.sol\":10910:10963  campaigns[i].totalShares - campaigns[i].currentShares */\n      tag_431\n      swap2\n      swap1\n      tag_270\n      jump\t// in\n    tag_431:\n        /* \"contracts/Blockchain_task.sol\":10699:11121  CampaignInfo(... */\n      dup2\n      mstore\n      0x20\n      add\n        /* \"contracts/Blockchain_task.sol\":10985:10994  campaigns */\n      0x04\n        /* \"contracts/Blockchain_task.sol\":10985:10997  campaigns[i] */\n      0x00\n        /* \"contracts/Blockchain_task.sol\":10995:10996  i */\n      dup5\n        /* \"contracts/Blockchain_task.sol\":10985:10997  campaigns[i] */\n      dup2\n      mstore\n      0x20\n      add\n      swap1\n      dup2\n      mstore\n      0x20\n      add\n      0x00\n      keccak256\n        /* \"contracts/Blockchain_task.sol\":10985:11011  campaigns[i].currentShares */\n      0x05\n      add\n      sload\n        /* \"contracts/Blockchain_task.sol\":10699:11121  CampaignInfo(... */\n      dup2\n      mstore\n      0x20\n      add\n        /* \"contracts/Blockchain_task.sol\":11033:11042  campaigns */\n      0x04\n        /* \"contracts/Blockchain_task.sol\":11033:11045  campaigns[i] */\n      0x00\n        /* \"contracts/Blockchain_task.sol\":11043:11044  i */\n      dup5\n        /* \"contracts/Blockchain_task.sol\":11033:11045  campaigns[i] */\n      dup2\n      mstore\n      0x20\n      add\n      swap1\n      dup2\n      mstore\n      0x20\n      add\n      0x00\n      keccak256\n        /* \"contracts/Blockchain_task.sol\":11033:11057  campaigns[i].isCompleted */\n      0x06\n      add\n      0x02\n      swap1\n      sload\n      swap1\n      0x0100\n      exp\n      swap1\n      div\n      0xff\n      and\n        /* \"contracts/Blockchain_task.sol\":10699:11121  CampaignInfo(... */\n      iszero\n      iszero\n      dup2\n      mstore\n      0x20\n      add\n        /* \"contracts/Blockchain_task.sol\":11079:11088  campaigns */\n      0x04\n        /* \"contracts/Blockchain_task.sol\":11079:11091  campaigns[i] */\n      0x00\n        /* \"contracts/Blockchain_task.sol\":11089:11090  i */\n      dup5\n        /* \"contracts/Blockchain_task.sol\":11079:11091  campaigns[i] */\n      dup2\n      mstore\n      0x20\n      add\n      swap1\n      dup2\n      mstore\n      0x20\n      add\n      0x00\n      keccak256\n        /* \"contracts/Blockchain_task.sol\":11079:11103  campaigns[i].isCancelled */\n      0x06\n      add\n      0x01\n      swap1\n      sload\n      swap1\n      0x0100\n      exp\n      swap1\n      div\n      0xff\n      and\n        /* \"contracts/Blockchain_task.sol\":10699:11121  CampaignInfo(... */\n      iszero\n      iszero\n      dup2\n      mstore\n      pop\n        /* \"contracts/Blockchain_task.sol\":10674:10689  activeCampaigns */\n      dup4\n        /* \"contracts/Blockchain_task.sol\":10690:10695  index */\n      dup4\n        /* \"contracts/Blockchain_task.sol\":10674:10696  activeCampaigns[index] */\n      dup2\n      mload\n      dup2\n      lt\n      tag_432\n      jumpi\n      tag_433\n      tag_147\n      jump\t// in\n    tag_433:\n    tag_432:\n      0x20\n      mul\n      0x20\n      add\n      add\n        /* \"contracts/Blockchain_task.sol\":10674:11121  activeCampaigns[index] = CampaignInfo(... */\n      dup2\n      swap1\n      mstore\n      pop\n        /* \"contracts/Blockchain_task.sol\":11139:11146  index++ */\n      dup2\n      dup1\n      tag_434\n      swap1\n      tag_202\n      jump\t// in\n    tag_434:\n      swap3\n      pop\n      pop\n        /* \"contracts/Blockchain_task.sol\":10596:11161  if (!campaigns[i].isCompleted && !campaigns[i].isCancelled) {... */\n    tag_425:\n        /* \"contracts/Blockchain_task.sol\":10577:10580  i++ */\n      dup1\n      dup1\n      0x01\n      add\n      swap2\n      pop\n      pop\n        /* \"contracts/Blockchain_task.sol\":10536:11171  for (uint256 i = 0; i < campaignCounter; i++) {... */\n      jump(tag_421)\n    tag_422:\n      pop\n        /* \"contracts/Blockchain_task.sol\":11188:11203  activeCampaigns */\n      dup2\n        /* \"contracts/Blockchain_task.sol\":11181:11203  return activeCampaigns */\n      swap4\n      pop\n      pop\n      pop\n      pop\n        /* \"contracts/Blockchain_task.sol\":9823:11210  function getActiveCampaigns()... */\n      swap1\n      jump\t// out\n        /* \"contracts/Blockchain_task.sol\":1287:1319  address[] public bannedAddresses */\n    tag_122:\n      0x07\n      dup2\n      dup2\n      sload\n      dup2\n      lt\n      tag_435\n      jumpi\n      0x00\n      dup1\n      revert\n    tag_435:\n      swap1\n      0x00\n      mstore\n      keccak256(0x00, 0x20)\n      add\n      0x00\n      swap2\n      pop\n      sload\n      swap1\n      0x0100\n      exp\n      swap1\n      div\n      0xffffffffffffffffffffffffffffffffffffffff\n      and\n      dup2\n      jump\t// out\n        /* \"contracts/Blockchain_task.sol\":7074:7652  function refundInvestor(address investor) public notBanned {... */\n    tag_127:\n        /* \"contracts/Blockchain_task.sol\":2521:2531  bannedList */\n      0x06\n        /* \"contracts/Blockchain_task.sol\":2521:2543  bannedList[msg.sender] */\n      0x00\n        /* \"contracts/Blockchain_task.sol\":2532:2542  msg.sender */\n      caller\n        /* \"contracts/Blockchain_task.sol\":2521:2543  bannedList[msg.sender] */\n      0xffffffffffffffffffffffffffffffffffffffff\n      and\n      0xffffffffffffffffffffffffffffffffffffffff\n      and\n      dup2\n      mstore\n      0x20\n      add\n      swap1\n      dup2\n      mstore\n      0x20\n      add\n      0x00\n      keccak256\n      0x00\n      swap1\n      sload\n      swap1\n      0x0100\n      exp\n      swap1\n      div\n      0xff\n      and\n        /* \"contracts/Blockchain_task.sol\":2520:2543  !bannedList[msg.sender] */\n      iszero\n        /* \"contracts/Blockchain_task.sol\":2512:2565  require(!bannedList[msg.sender], \"Address is banned\") */\n      tag_438\n      jumpi\n      mload(0x40)\n      0x08c379a000000000000000000000000000000000000000000000000000000000\n      dup2\n      mstore\n      0x04\n      add\n      tag_439\n      swap1\n      tag_166\n      jump\t// in\n    tag_439:\n      mload(0x40)\n      dup1\n      swap2\n      sub\n      swap1\n      revert\n    tag_438:\n        /* \"contracts/Blockchain_task.sol\":7232:7252  uint256 refundAmount */\n      0x00\n        /* \"contracts/Blockchain_task.sol\":7255:7262  refunds */\n      0x08\n        /* \"contracts/Blockchain_task.sol\":7255:7272  refunds[investor] */\n      0x00\n        /* \"contracts/Blockchain_task.sol\":7263:7271  investor */\n      dup4\n        /* \"contracts/Blockchain_task.sol\":7255:7272  refunds[investor] */\n      0xffffffffffffffffffffffffffffffffffffffff\n      and\n      0xffffffffffffffffffffffffffffffffffffffff\n      and\n      dup2\n      mstore\n      0x20\n      add\n      swap1\n      dup2\n      mstore\n      0x20\n      add\n      0x00\n      keccak256\n      sload\n        /* \"contracts/Blockchain_task.sol\":7232:7272  uint256 refundAmount = refunds[investor] */\n      swap1\n      pop\n        /* \"contracts/Blockchain_task.sol\":7305:7306  0 */\n      0x00\n        /* \"contracts/Blockchain_task.sol\":7290:7302  refundAmount */\n      dup2\n        /* \"contracts/Blockchain_task.sol\":7290:7306  refundAmount > 0 */\n      gt\n        /* \"contracts/Blockchain_task.sol\":7282:7348  require(refundAmount > 0, \"No refund available for this investor\") */\n      tag_441\n      jumpi\n      mload(0x40)\n      0x08c379a000000000000000000000000000000000000000000000000000000000\n      dup2\n      mstore\n      0x04\n      add\n      tag_442\n      swap1\n      tag_443\n      jump\t// in\n    tag_442:\n      mload(0x40)\n      dup1\n      swap2\n      sub\n      swap1\n      revert\n    tag_441:\n        /* \"contracts/Blockchain_task.sol\":7459:7460  0 */\n      0x00\n        /* \"contracts/Blockchain_task.sol\":7439:7446  refunds */\n      0x08\n        /* \"contracts/Blockchain_task.sol\":7439:7456  refunds[investor] */\n      0x00\n        /* \"contracts/Blockchain_task.sol\":7447:7455  investor */\n      dup5\n        /* \"contracts/Blockchain_task.sol\":7439:7456  refunds[investor] */\n      0xffffffffffffffffffffffffffffffffffffffff\n      and\n      0xffffffffffffffffffffffffffffffffffffffff\n      and\n      dup2\n      mstore\n      0x20\n      add\n      swap1\n      dup2\n      mstore\n      0x20\n      add\n      0x00\n      keccak256\n        /* \"contracts/Blockchain_task.sol\":7439:7460  refunds[investor] = 0 */\n      dup2\n      swap1\n      sstore\n      pop\n        /* \"contracts/Blockchain_task.sol\":7557:7565  investor */\n      dup2\n        /* \"contracts/Blockchain_task.sol\":7549:7575  payable(investor).transfer */\n      0xffffffffffffffffffffffffffffffffffffffff\n      and\n        /* \"contracts/Blockchain_task.sol\":7549:7589  payable(investor).transfer(refundAmount) */\n      0x08fc\n        /* \"contracts/Blockchain_task.sol\":7576:7588  refundAmount */\n      dup3\n        /* \"contracts/Blockchain_task.sol\":7549:7589  payable(investor).transfer(refundAmount) */\n      swap1\n      dup2\n      iszero\n      mul\n      swap1\n      mload(0x40)\n      0x00\n      mload(0x40)\n      dup1\n      dup4\n      sub\n      dup2\n      dup6\n      dup9\n      dup9\n      call\n      swap4\n      pop\n      pop\n      pop\n      pop\n      iszero\n      dup1\n      iszero\n      tag_445\n      jumpi\n      returndatasize\n      0x00\n      dup1\n      returndatacopy\n      revert(0x00, returndatasize)\n    tag_445:\n      pop\n        /* \"contracts/Blockchain_task.sol\":7605:7645  InvestorRefunded(investor, refundAmount) */\n      0x08d40e9c27d77b658952cbaacaa582b75d323ce97d3904729b9674ddf5d5f13e\n        /* \"contracts/Blockchain_task.sol\":7622:7630  investor */\n      dup3\n        /* \"contracts/Blockchain_task.sol\":7632:7644  refundAmount */\n      dup3\n        /* \"contracts/Blockchain_task.sol\":7605:7645  InvestorRefunded(investor, refundAmount) */\n      mload(0x40)\n      tag_446\n      swap3\n      swap2\n      swap1\n      tag_309\n      jump\t// in\n    tag_446:\n      mload(0x40)\n      dup1\n      swap2\n      sub\n      swap1\n      log1\n        /* \"contracts/Blockchain_task.sol\":7133:7652  {... */\n      pop\n        /* \"contracts/Blockchain_task.sol\":7074:7652  function refundInvestor(address investor) public notBanned {... */\n      pop\n      jump\t// out\n    tag_258:\n      mload(0x40)\n      dup1\n      0x0100\n      add\n      0x40\n      mstore\n      dup1\n      0x00\n      dup2\n      mstore\n      0x20\n      add\n      and(0xffffffffffffffffffffffffffffffffffffffff, 0x00)\n      dup2\n      mstore\n      0x20\n      add\n      0x60\n      dup2\n      mstore\n      0x20\n      add\n      0x00\n      dup2\n      mstore\n      0x20\n      add\n      0x00\n      dup2\n      mstore\n      0x20\n      add\n      0x00\n      dup2\n      mstore\n      0x20\n      add\n      iszero(iszero(0x00))\n      dup2\n      mstore\n      0x20\n      add\n      iszero(iszero(0x00))\n      dup2\n      mstore\n      pop\n      swap1\n      jump\t// out\n        /* \"#utility.yul\":7:82   */\n    tag_447:\n        /* \"#utility.yul\":40:46   */\n      0x00\n        /* \"#utility.yul\":73:75   */\n      0x40\n        /* \"#utility.yul\":67:76   */\n      mload\n        /* \"#utility.yul\":57:76   */\n      swap1\n      pop\n        /* \"#utility.yul\":7:82   */\n      swap1\n      jump\t// out\n        /* \"#utility.yul\":88:205   */\n    tag_448:\n        /* \"#utility.yul\":197:198   */\n      0x00\n        /* \"#utility.yul\":194:195   */\n      dup1\n        /* \"#utility.yul\":187:199   */\n      revert\n        /* \"#utility.yul\":211:328   */\n    tag_449:\n        /* \"#utility.yul\":320:321   */\n      0x00\n        /* \"#utility.yul\":317:318   */\n      dup1\n        /* \"#utility.yul\":310:322   */\n      revert\n        /* \"#utility.yul\":334:411   */\n    tag_450:\n        /* \"#utility.yul\":371:378   */\n      0x00\n        /* \"#utility.yul\":400:405   */\n      dup2\n        /* \"#utility.yul\":389:405   */\n      swap1\n      pop\n        /* \"#utility.yul\":334:411   */\n      swap2\n      swap1\n      pop\n      jump\t// out\n        /* \"#utility.yul\":417:539   */\n    tag_451:\n        /* \"#utility.yul\":490:514   */\n      tag_557\n        /* \"#utility.yul\":508:513   */\n      dup2\n        /* \"#utility.yul\":490:514   */\n      tag_450\n      jump\t// in\n    tag_557:\n        /* \"#utility.yul\":483:488   */\n      dup2\n        /* \"#utility.yul\":480:515   */\n      eq\n        /* \"#utility.yul\":470:533   */\n      tag_558\n      jumpi\n        /* \"#utility.yul\":529:530   */\n      0x00\n        /* \"#utility.yul\":526:527   */\n      dup1\n        /* \"#utility.yul\":519:531   */\n      revert\n        /* \"#utility.yul\":470:533   */\n    tag_558:\n        /* \"#utility.yul\":417:539   */\n      pop\n      jump\t// out\n        /* \"#utility.yul\":545:684   */\n    tag_452:\n        /* \"#utility.yul\":591:596   */\n      0x00\n        /* \"#utility.yul\":629:635   */\n      dup2\n        /* \"#utility.yul\":616:636   */\n      calldataload\n        /* \"#utility.yul\":607:636   */\n      swap1\n      pop\n        /* \"#utility.yul\":645:678   */\n      tag_560\n        /* \"#utility.yul\":672:677   */\n      dup2\n        /* \"#utility.yul\":645:678   */\n      tag_451\n      jump\t// in\n    tag_560:\n        /* \"#utility.yul\":545:684   */\n      swap3\n      swap2\n      pop\n      pop\n      jump\t// out\n        /* \"#utility.yul\":690:1019   */\n    tag_33:\n        /* \"#utility.yul\":749:755   */\n      0x00\n        /* \"#utility.yul\":798:800   */\n      0x20\n        /* \"#utility.yul\":786:795   */\n      dup3\n        /* \"#utility.yul\":777:784   */\n      dup5\n        /* \"#utility.yul\":773:796   */\n      sub\n        /* \"#utility.yul\":769:801   */\n      slt\n        /* \"#utility.yul\":766:885   */\n      iszero\n      tag_562\n      jumpi\n        /* \"#utility.yul\":804:883   */\n      tag_563\n      tag_448\n      jump\t// in\n    tag_563:\n        /* \"#utility.yul\":766:885   */\n    tag_562:\n        /* \"#utility.yul\":924:925   */\n      0x00\n        /* \"#utility.yul\":949:1002   */\n      tag_564\n        /* \"#utility.yul\":994:1001   */\n      dup5\n        /* \"#utility.yul\":985:991   */\n      dup3\n        /* \"#utility.yul\":974:983   */\n      dup6\n        /* \"#utility.yul\":970:992   */\n      add\n        /* \"#utility.yul\":949:1002   */\n      tag_452\n      jump\t// in\n    tag_564:\n        /* \"#utility.yul\":939:1002   */\n      swap2\n      pop\n        /* \"#utility.yul\":895:1012   */\n      pop\n        /* \"#utility.yul\":690:1019   */\n      swap3\n      swap2\n      pop\n      pop\n      jump\t// out\n        /* \"#utility.yul\":1025:1143   */\n    tag_453:\n        /* \"#utility.yul\":1112:1136   */\n      tag_566\n        /* \"#utility.yul\":1130:1135   */\n      dup2\n        /* \"#utility.yul\":1112:1136   */\n      tag_450\n      jump\t// in\n    tag_566:\n        /* \"#utility.yul\":1107:1110   */\n      dup3\n        /* \"#utility.yul\":1100:1137   */\n      mstore\n        /* \"#utility.yul\":1025:1143   */\n      pop\n      pop\n      jump\t// out\n        /* \"#utility.yul\":1149:1275   */\n    tag_454:\n        /* \"#utility.yul\":1186:1193   */\n      0x00\n        /* \"#utility.yul\":1226:1268   */\n      0xffffffffffffffffffffffffffffffffffffffff\n        /* \"#utility.yul\":1219:1224   */\n      dup3\n        /* \"#utility.yul\":1215:1269   */\n      and\n        /* \"#utility.yul\":1204:1269   */\n      swap1\n      pop\n        /* \"#utility.yul\":1149:1275   */\n      swap2\n      swap1\n      pop\n      jump\t// out\n        /* \"#utility.yul\":1281:1377   */\n    tag_455:\n        /* \"#utility.yul\":1318:1325   */\n      0x00\n        /* \"#utility.yul\":1347:1371   */\n      tag_569\n        /* \"#utility.yul\":1365:1370   */\n      dup3\n        /* \"#utility.yul\":1347:1371   */\n      tag_454\n      jump\t// in\n    tag_569:\n        /* \"#utility.yul\":1336:1371   */\n      swap1\n      pop\n        /* \"#utility.yul\":1281:1377   */\n      swap2\n      swap1\n      pop\n      jump\t// out\n        /* \"#utility.yul\":1383:1501   */\n    tag_456:\n        /* \"#utility.yul\":1470:1494   */\n      tag_571\n        /* \"#utility.yul\":1488:1493   */\n      dup2\n        /* \"#utility.yul\":1470:1494   */\n      tag_455\n      jump\t// in\n    tag_571:\n        /* \"#utility.yul\":1465:1468   */\n      dup3\n        /* \"#utility.yul\":1458:1495   */\n      mstore\n        /* \"#utility.yul\":1383:1501   */\n      pop\n      pop\n      jump\t// out\n        /* \"#utility.yul\":1507:1606   */\n    tag_457:\n        /* \"#utility.yul\":1559:1565   */\n      0x00\n        /* \"#utility.yul\":1593:1598   */\n      dup2\n        /* \"#utility.yul\":1587:1599   */\n      mload\n        /* \"#utility.yul\":1577:1599   */\n      swap1\n      pop\n        /* \"#utility.yul\":1507:1606   */\n      swap2\n      swap1\n      pop\n      jump\t// out\n        /* \"#utility.yul\":1612:1781   */\n    tag_458:\n        /* \"#utility.yul\":1696:1707   */\n      0x00\n        /* \"#utility.yul\":1730:1736   */\n      dup3\n        /* \"#utility.yul\":1725:1728   */\n      dup3\n        /* \"#utility.yul\":1718:1737   */\n      mstore\n        /* \"#utility.yul\":1770:1774   */\n      0x20\n        /* \"#utility.yul\":1765:1768   */\n      dup3\n        /* \"#utility.yul\":1761:1775   */\n      add\n        /* \"#utility.yul\":1746:1775   */\n      swap1\n      pop\n        /* \"#utility.yul\":1612:1781   */\n      swap3\n      swap2\n      pop\n      pop\n      jump\t// out\n        /* \"#utility.yul\":1787:2035   */\n    tag_459:\n        /* \"#utility.yul\":1869:1870   */\n      0x00\n        /* \"#utility.yul\":1879:1992   */\n    tag_575:\n        /* \"#utility.yul\":1893:1899   */\n      dup4\n        /* \"#utility.yul\":1890:1891   */\n      dup2\n        /* \"#utility.yul\":1887:1900   */\n      lt\n        /* \"#utility.yul\":1879:1992   */\n      iszero\n      tag_577\n      jumpi\n        /* \"#utility.yul\":1978:1979   */\n      dup1\n        /* \"#utility.yul\":1973:1976   */\n      dup3\n        /* \"#utility.yul\":1969:1980   */\n      add\n        /* \"#utility.yul\":1963:1981   */\n      mload\n        /* \"#utility.yul\":1959:1960   */\n      dup2\n        /* \"#utility.yul\":1954:1957   */\n      dup5\n        /* \"#utility.yul\":1950:1961   */\n      add\n        /* \"#utility.yul\":1943:1982   */\n      mstore\n        /* \"#utility.yul\":1915:1917   */\n      0x20\n        /* \"#utility.yul\":1912:1913   */\n      dup2\n        /* \"#utility.yul\":1908:1918   */\n      add\n        /* \"#utility.yul\":1903:1918   */\n      swap1\n      pop\n        /* \"#utility.yul\":1879:1992   */\n      jump(tag_575)\n    tag_577:\n        /* \"#utility.yul\":2026:2027   */\n      0x00\n        /* \"#utility.yul\":2017:2023   */\n      dup5\n        /* \"#utility.yul\":2012:2015   */\n      dup5\n        /* \"#utility.yul\":2008:2024   */\n      add\n        /* \"#utility.yul\":2001:2028   */\n      mstore\n        /* \"#utility.yul\":1849:2035   */\n      pop\n        /* \"#utility.yul\":1787:2035   */\n      pop\n      pop\n      pop\n      jump\t// out\n        /* \"#utility.yul\":2041:2143   */\n    tag_460:\n        /* \"#utility.yul\":2082:2088   */\n      0x00\n        /* \"#utility.yul\":2133:2135   */\n      0x1f\n        /* \"#utility.yul\":2129:2136   */\n      not\n        /* \"#utility.yul\":2124:2126   */\n      0x1f\n        /* \"#utility.yul\":2117:2122   */\n      dup4\n        /* \"#utility.yul\":2113:2127   */\n      add\n        /* \"#utility.yul\":2109:2137   */\n      and\n        /* \"#utility.yul\":2099:2137   */\n      swap1\n      pop\n        /* \"#utility.yul\":2041:2143   */\n      swap2\n      swap1\n      pop\n      jump\t// out\n        /* \"#utility.yul\":2149:2526   */\n    tag_461:\n        /* \"#utility.yul\":2237:2240   */\n      0x00\n        /* \"#utility.yul\":2265:2304   */\n      tag_580\n        /* \"#utility.yul\":2298:2303   */\n      dup3\n        /* \"#utility.yul\":2265:2304   */\n      tag_457\n      jump\t// in\n    tag_580:\n        /* \"#utility.yul\":2320:2391   */\n      tag_581\n        /* \"#utility.yul\":2384:2390   */\n      dup2\n        /* \"#utility.yul\":2379:2382   */\n      dup6\n        /* \"#utility.yul\":2320:2391   */\n      tag_458\n      jump\t// in\n    tag_581:\n        /* \"#utility.yul\":2313:2391   */\n      swap4\n      pop\n        /* \"#utility.yul\":2400:2465   */\n      tag_582\n        /* \"#utility.yul\":2458:2464   */\n      dup2\n        /* \"#utility.yul\":2453:2456   */\n      dup6\n        /* \"#utility.yul\":2446:2450   */\n      0x20\n        /* \"#utility.yul\":2439:2444   */\n      dup7\n        /* \"#utility.yul\":2435:2451   */\n      add\n        /* \"#utility.yul\":2400:2465   */\n      tag_459\n      jump\t// in\n    tag_582:\n        /* \"#utility.yul\":2490:2519   */\n      tag_583\n        /* \"#utility.yul\":2512:2518   */\n      dup2\n        /* \"#utility.yul\":2490:2519   */\n      tag_460\n      jump\t// in\n    tag_583:\n        /* \"#utility.yul\":2485:2488   */\n      dup5\n        /* \"#utility.yul\":2481:2520   */\n      add\n        /* \"#utility.yul\":2474:2520   */\n      swap2\n      pop\n        /* \"#utility.yul\":2241:2526   */\n      pop\n        /* \"#utility.yul\":2149:2526   */\n      swap3\n      swap2\n      pop\n      pop\n      jump\t// out\n        /* \"#utility.yul\":2532:2622   */\n    tag_462:\n        /* \"#utility.yul\":2566:2573   */\n      0x00\n        /* \"#utility.yul\":2609:2614   */\n      dup2\n        /* \"#utility.yul\":2602:2615   */\n      iszero\n        /* \"#utility.yul\":2595:2616   */\n      iszero\n        /* \"#utility.yul\":2584:2616   */\n      swap1\n      pop\n        /* \"#utility.yul\":2532:2622   */\n      swap2\n      swap1\n      pop\n      jump\t// out\n        /* \"#utility.yul\":2628:2737   */\n    tag_463:\n        /* \"#utility.yul\":2709:2730   */\n      tag_586\n        /* \"#utility.yul\":2724:2729   */\n      dup2\n        /* \"#utility.yul\":2709:2730   */\n      tag_462\n      jump\t// in\n    tag_586:\n        /* \"#utility.yul\":2704:2707   */\n      dup3\n        /* \"#utility.yul\":2697:2731   */\n      mstore\n        /* \"#utility.yul\":2628:2737   */\n      pop\n      pop\n      jump\t// out\n        /* \"#utility.yul\":2743:3906   */\n    tag_36:\n        /* \"#utility.yul\":3062:3066   */\n      0x00\n        /* \"#utility.yul\":3100:3103   */\n      0x0120\n        /* \"#utility.yul\":3089:3098   */\n      dup3\n        /* \"#utility.yul\":3085:3104   */\n      add\n        /* \"#utility.yul\":3077:3104   */\n      swap1\n      pop\n        /* \"#utility.yul\":3114:3185   */\n      tag_588\n        /* \"#utility.yul\":3182:3183   */\n      0x00\n        /* \"#utility.yul\":3171:3180   */\n      dup4\n        /* \"#utility.yul\":3167:3184   */\n      add\n        /* \"#utility.yul\":3158:3164   */\n      dup13\n        /* \"#utility.yul\":3114:3185   */\n      tag_453\n      jump\t// in\n    tag_588:\n        /* \"#utility.yul\":3195:3267   */\n      tag_589\n        /* \"#utility.yul\":3263:3265   */\n      0x20\n        /* \"#utility.yul\":3252:3261   */\n      dup4\n        /* \"#utility.yul\":3248:3266   */\n      add\n        /* \"#utility.yul\":3239:3245   */\n      dup12\n        /* \"#utility.yul\":3195:3267   */\n      tag_456\n      jump\t// in\n    tag_589:\n        /* \"#utility.yul\":3314:3323   */\n      dup2\n        /* \"#utility.yul\":3308:3312   */\n      dup2\n        /* \"#utility.yul\":3304:3324   */\n      sub\n        /* \"#utility.yul\":3299:3301   */\n      0x40\n        /* \"#utility.yul\":3288:3297   */\n      dup4\n        /* \"#utility.yul\":3284:3302   */\n      add\n        /* \"#utility.yul\":3277:3325   */\n      mstore\n        /* \"#utility.yul\":3342:3420   */\n      tag_590\n        /* \"#utility.yul\":3415:3419   */\n      dup2\n        /* \"#utility.yul\":3406:3412   */\n      dup11\n        /* \"#utility.yul\":3342:3420   */\n      tag_461\n      jump\t// in\n    tag_590:\n        /* \"#utility.yul\":3334:3420   */\n      swap1\n      pop\n        /* \"#utility.yul\":3430:3502   */\n      tag_591\n        /* \"#utility.yul\":3498:3500   */\n      0x60\n        /* \"#utility.yul\":3487:3496   */\n      dup4\n        /* \"#utility.yul\":3483:3501   */\n      add\n        /* \"#utility.yul\":3474:3480   */\n      dup10\n        /* \"#utility.yul\":3430:3502   */\n      tag_453\n      jump\t// in\n    tag_591:\n        /* \"#utility.yul\":3512:3585   */\n      tag_592\n        /* \"#utility.yul\":3580:3583   */\n      0x80\n        /* \"#utility.yul\":3569:3578   */\n      dup4\n        /* \"#utility.yul\":3565:3584   */\n      add\n        /* \"#utility.yul\":3556:3562   */\n      dup9\n        /* \"#utility.yul\":3512:3585   */\n      tag_453\n      jump\t// in\n    tag_592:\n        /* \"#utility.yul\":3595:3668   */\n      tag_593\n        /* \"#utility.yul\":3663:3666   */\n      0xa0\n        /* \"#utility.yul\":3652:3661   */\n      dup4\n        /* \"#utility.yul\":3648:3667   */\n      add\n        /* \"#utility.yul\":3639:3645   */\n      dup8\n        /* \"#utility.yul\":3595:3668   */\n      tag_453\n      jump\t// in\n    tag_593:\n        /* \"#utility.yul\":3678:3745   */\n      tag_594\n        /* \"#utility.yul\":3740:3743   */\n      0xc0\n        /* \"#utility.yul\":3729:3738   */\n      dup4\n        /* \"#utility.yul\":3725:3744   */\n      add\n        /* \"#utility.yul\":3716:3722   */\n      dup7\n        /* \"#utility.yul\":3678:3745   */\n      tag_463\n      jump\t// in\n    tag_594:\n        /* \"#utility.yul\":3755:3822   */\n      tag_595\n        /* \"#utility.yul\":3817:3820   */\n      0xe0\n        /* \"#utility.yul\":3806:3815   */\n      dup4\n        /* \"#utility.yul\":3802:3821   */\n      add\n        /* \"#utility.yul\":3793:3799   */\n      dup6\n        /* \"#utility.yul\":3755:3822   */\n      tag_463\n      jump\t// in\n    tag_595:\n        /* \"#utility.yul\":3832:3899   */\n      tag_596\n        /* \"#utility.yul\":3894:3897   */\n      0x0100\n        /* \"#utility.yul\":3883:3892   */\n      dup4\n        /* \"#utility.yul\":3879:3898   */\n      add\n        /* \"#utility.yul\":3870:3876   */\n      dup5\n        /* \"#utility.yul\":3832:3899   */\n      tag_463\n      jump\t// in\n    tag_596:\n        /* \"#utility.yul\":2743:3906   */\n      swap11\n      swap10\n      pop\n      pop\n      pop\n      pop\n      pop\n      pop\n      pop\n      pop\n      pop\n      pop\n      jump\t// out\n        /* \"#utility.yul\":3912:4386   */\n    tag_39:\n        /* \"#utility.yul\":3980:3986   */\n      0x00\n        /* \"#utility.yul\":3988:3994   */\n      dup1\n        /* \"#utility.yul\":4037:4039   */\n      0x40\n        /* \"#utility.yul\":4025:4034   */\n      dup4\n        /* \"#utility.yul\":4016:4023   */\n      dup6\n        /* \"#utility.yul\":4012:4035   */\n      sub\n        /* \"#utility.yul\":4008:4040   */\n      slt\n        /* \"#utility.yul\":4005:4124   */\n      iszero\n      tag_598\n      jumpi\n        /* \"#utility.yul\":4043:4122   */\n      tag_599\n      tag_448\n      jump\t// in\n    tag_599:\n        /* \"#utility.yul\":4005:4124   */\n    tag_598:\n        /* \"#utility.yul\":4163:4164   */\n      0x00\n        /* \"#utility.yul\":4188:4241   */\n      tag_600\n        /* \"#utility.yul\":4233:4240   */\n      dup6\n        /* \"#utility.yul\":4224:4230   */\n      dup3\n        /* \"#utility.yul\":4213:4222   */\n      dup7\n        /* \"#utility.yul\":4209:4231   */\n      add\n        /* \"#utility.yul\":4188:4241   */\n      tag_452\n      jump\t// in\n    tag_600:\n        /* \"#utility.yul\":4178:4241   */\n      swap3\n      pop\n        /* \"#utility.yul\":4134:4251   */\n      pop\n        /* \"#utility.yul\":4290:4292   */\n      0x20\n        /* \"#utility.yul\":4316:4369   */\n      tag_601\n        /* \"#utility.yul\":4361:4368   */\n      dup6\n        /* \"#utility.yul\":4352:4358   */\n      dup3\n        /* \"#utility.yul\":4341:4350   */\n      dup7\n        /* \"#utility.yul\":4337:4359   */\n      add\n        /* \"#utility.yul\":4316:4369   */\n      tag_452\n      jump\t// in\n    tag_601:\n        /* \"#utility.yul\":4306:4369   */\n      swap2\n      pop\n        /* \"#utility.yul\":4261:4379   */\n      pop\n        /* \"#utility.yul\":3912:4386   */\n      swap3\n      pop\n      swap3\n      swap1\n      pop\n      jump\t// out\n        /* \"#utility.yul\":4392:4514   */\n    tag_464:\n        /* \"#utility.yul\":4465:4489   */\n      tag_603\n        /* \"#utility.yul\":4483:4488   */\n      dup2\n        /* \"#utility.yul\":4465:4489   */\n      tag_455\n      jump\t// in\n    tag_603:\n        /* \"#utility.yul\":4458:4463   */\n      dup2\n        /* \"#utility.yul\":4455:4490   */\n      eq\n        /* \"#utility.yul\":4445:4508   */\n      tag_604\n      jumpi\n        /* \"#utility.yul\":4504:4505   */\n      0x00\n        /* \"#utility.yul\":4501:4502   */\n      dup1\n        /* \"#utility.yul\":4494:4506   */\n      revert\n        /* \"#utility.yul\":4445:4508   */\n    tag_604:\n        /* \"#utility.yul\":4392:4514   */\n      pop\n      jump\t// out\n        /* \"#utility.yul\":4520:4659   */\n    tag_465:\n        /* \"#utility.yul\":4566:4571   */\n      0x00\n        /* \"#utility.yul\":4604:4610   */\n      dup2\n        /* \"#utility.yul\":4591:4611   */\n      calldataload\n        /* \"#utility.yul\":4582:4611   */\n      swap1\n      pop\n        /* \"#utility.yul\":4620:4653   */\n      tag_606\n        /* \"#utility.yul\":4647:4652   */\n      dup2\n        /* \"#utility.yul\":4620:4653   */\n      tag_464\n      jump\t// in\n    tag_606:\n        /* \"#utility.yul\":4520:4659   */\n      swap3\n      swap2\n      pop\n      pop\n      jump\t// out\n        /* \"#utility.yul\":4665:4994   */\n    tag_44:\n        /* \"#utility.yul\":4724:4730   */\n      0x00\n        /* \"#utility.yul\":4773:4775   */\n      0x20\n        /* \"#utility.yul\":4761:4770   */\n      dup3\n        /* \"#utility.yul\":4752:4759   */\n      dup5\n        /* \"#utility.yul\":4748:4771   */\n      sub\n        /* \"#utility.yul\":4744:4776   */\n      slt\n        /* \"#utility.yul\":4741:4860   */\n      iszero\n      tag_608\n      jumpi\n        /* \"#utility.yul\":4779:4858   */\n      tag_609\n      tag_448\n      jump\t// in\n    tag_609:\n        /* \"#utility.yul\":4741:4860   */\n    tag_608:\n        /* \"#utility.yul\":4899:4900   */\n      0x00\n        /* \"#utility.yul\":4924:4977   */\n      tag_610\n        /* \"#utility.yul\":4969:4976   */\n      dup5\n        /* \"#utility.yul\":4960:4966   */\n      dup3\n        /* \"#utility.yul\":4949:4958   */\n      dup6\n        /* \"#utility.yul\":4945:4967   */\n      add\n        /* \"#utility.yul\":4924:4977   */\n      tag_465\n      jump\t// in\n    tag_610:\n        /* \"#utility.yul\":4914:4977   */\n      swap2\n      pop\n        /* \"#utility.yul\":4870:4987   */\n      pop\n        /* \"#utility.yul\":4665:4994   */\n      swap3\n      swap2\n      pop\n      pop\n      jump\t// out\n        /* \"#utility.yul\":5000:5114   */\n    tag_466:\n        /* \"#utility.yul\":5067:5073   */\n      0x00\n        /* \"#utility.yul\":5101:5106   */\n      dup2\n        /* \"#utility.yul\":5095:5107   */\n      mload\n        /* \"#utility.yul\":5085:5107   */\n      swap1\n      pop\n        /* \"#utility.yul\":5000:5114   */\n      swap2\n      swap1\n      pop\n      jump\t// out\n        /* \"#utility.yul\":5120:5304   */\n    tag_467:\n        /* \"#utility.yul\":5219:5230   */\n      0x00\n        /* \"#utility.yul\":5253:5259   */\n      dup3\n        /* \"#utility.yul\":5248:5251   */\n      dup3\n        /* \"#utility.yul\":5241:5260   */\n      mstore\n        /* \"#utility.yul\":5293:5297   */\n      0x20\n        /* \"#utility.yul\":5288:5291   */\n      dup3\n        /* \"#utility.yul\":5284:5298   */\n      add\n        /* \"#utility.yul\":5269:5298   */\n      swap1\n      pop\n        /* \"#utility.yul\":5120:5304   */\n      swap3\n      swap2\n      pop\n      pop\n      jump\t// out\n        /* \"#utility.yul\":5310:5442   */\n    tag_468:\n        /* \"#utility.yul\":5377:5381   */\n      0x00\n        /* \"#utility.yul\":5400:5403   */\n      dup2\n        /* \"#utility.yul\":5392:5403   */\n      swap1\n      pop\n        /* \"#utility.yul\":5430:5434   */\n      0x20\n        /* \"#utility.yul\":5425:5428   */\n      dup3\n        /* \"#utility.yul\":5421:5435   */\n      add\n        /* \"#utility.yul\":5413:5435   */\n      swap1\n      pop\n        /* \"#utility.yul\":5310:5442   */\n      swap2\n      swap1\n      pop\n      jump\t// out\n        /* \"#utility.yul\":5448:5556   */\n    tag_469:\n        /* \"#utility.yul\":5525:5549   */\n      tag_615\n        /* \"#utility.yul\":5543:5548   */\n      dup2\n        /* \"#utility.yul\":5525:5549   */\n      tag_450\n      jump\t// in\n    tag_615:\n        /* \"#utility.yul\":5520:5523   */\n      dup3\n        /* \"#utility.yul\":5513:5550   */\n      mstore\n        /* \"#utility.yul\":5448:5556   */\n      pop\n      pop\n      jump\t// out\n        /* \"#utility.yul\":5562:5741   */\n    tag_470:\n        /* \"#utility.yul\":5631:5641   */\n      0x00\n        /* \"#utility.yul\":5652:5698   */\n      tag_617\n        /* \"#utility.yul\":5694:5697   */\n      dup4\n        /* \"#utility.yul\":5686:5692   */\n      dup4\n        /* \"#utility.yul\":5652:5698   */\n      tag_469\n      jump\t// in\n    tag_617:\n        /* \"#utility.yul\":5730:5734   */\n      0x20\n        /* \"#utility.yul\":5725:5728   */\n      dup4\n        /* \"#utility.yul\":5721:5735   */\n      add\n        /* \"#utility.yul\":5707:5735   */\n      swap1\n      pop\n        /* \"#utility.yul\":5562:5741   */\n      swap3\n      swap2\n      pop\n      pop\n      jump\t// out\n        /* \"#utility.yul\":5747:5860   */\n    tag_471:\n        /* \"#utility.yul\":5817:5821   */\n      0x00\n        /* \"#utility.yul\":5849:5853   */\n      0x20\n        /* \"#utility.yul\":5844:5847   */\n      dup3\n        /* \"#utility.yul\":5840:5854   */\n      add\n        /* \"#utility.yul\":5832:5854   */\n      swap1\n      pop\n        /* \"#utility.yul\":5747:5860   */\n      swap2\n      swap1\n      pop\n      jump\t// out\n        /* \"#utility.yul\":5896:6628   */\n    tag_472:\n        /* \"#utility.yul\":6015:6018   */\n      0x00\n        /* \"#utility.yul\":6044:6098   */\n      tag_620\n        /* \"#utility.yul\":6092:6097   */\n      dup3\n        /* \"#utility.yul\":6044:6098   */\n      tag_466\n      jump\t// in\n    tag_620:\n        /* \"#utility.yul\":6114:6200   */\n      tag_621\n        /* \"#utility.yul\":6193:6199   */\n      dup2\n        /* \"#utility.yul\":6188:6191   */\n      dup6\n        /* \"#utility.yul\":6114:6200   */\n      tag_467\n      jump\t// in\n    tag_621:\n        /* \"#utility.yul\":6107:6200   */\n      swap4\n      pop\n        /* \"#utility.yul\":6224:6280   */\n      tag_622\n        /* \"#utility.yul\":6274:6279   */\n      dup4\n        /* \"#utility.yul\":6224:6280   */\n      tag_468\n      jump\t// in\n    tag_622:\n        /* \"#utility.yul\":6303:6310   */\n      dup1\n        /* \"#utility.yul\":6334:6335   */\n      0x00\n        /* \"#utility.yul\":6319:6603   */\n    tag_623:\n        /* \"#utility.yul\":6344:6350   */\n      dup4\n        /* \"#utility.yul\":6341:6342   */\n      dup2\n        /* \"#utility.yul\":6338:6351   */\n      lt\n        /* \"#utility.yul\":6319:6603   */\n      iszero\n      tag_625\n      jumpi\n        /* \"#utility.yul\":6420:6426   */\n      dup2\n        /* \"#utility.yul\":6414:6427   */\n      mload\n        /* \"#utility.yul\":6447:6510   */\n      tag_626\n        /* \"#utility.yul\":6506:6509   */\n      dup9\n        /* \"#utility.yul\":6491:6504   */\n      dup3\n        /* \"#utility.yul\":6447:6510   */\n      tag_470\n      jump\t// in\n    tag_626:\n        /* \"#utility.yul\":6440:6510   */\n      swap8\n      pop\n        /* \"#utility.yul\":6533:6593   */\n      tag_627\n        /* \"#utility.yul\":6586:6592   */\n      dup4\n        /* \"#utility.yul\":6533:6593   */\n      tag_471\n      jump\t// in\n    tag_627:\n        /* \"#utility.yul\":6523:6593   */\n      swap3\n      pop\n        /* \"#utility.yul\":6379:6603   */\n      pop\n        /* \"#utility.yul\":6366:6367   */\n      0x01\n        /* \"#utility.yul\":6363:6364   */\n      dup2\n        /* \"#utility.yul\":6359:6368   */\n      add\n        /* \"#utility.yul\":6354:6368   */\n      swap1\n      pop\n        /* \"#utility.yul\":6319:6603   */\n      jump(tag_623)\n    tag_625:\n        /* \"#utility.yul\":6323:6337   */\n      pop\n        /* \"#utility.yul\":6619:6622   */\n      dup6\n        /* \"#utility.yul\":6612:6622   */\n      swap4\n      pop\n        /* \"#utility.yul\":6020:6628   */\n      pop\n      pop\n      pop\n        /* \"#utility.yul\":5896:6628   */\n      swap3\n      swap2\n      pop\n      pop\n      jump\t// out\n        /* \"#utility.yul\":6634:7268   */\n    tag_47:\n        /* \"#utility.yul\":6855:6859   */\n      0x00\n        /* \"#utility.yul\":6893:6895   */\n      0x40\n        /* \"#utility.yul\":6882:6891   */\n      dup3\n        /* \"#utility.yul\":6878:6896   */\n      add\n        /* \"#utility.yul\":6870:6896   */\n      swap1\n      pop\n        /* \"#utility.yul\":6942:6951   */\n      dup2\n        /* \"#utility.yul\":6936:6940   */\n      dup2\n        /* \"#utility.yul\":6932:6952   */\n      sub\n        /* \"#utility.yul\":6928:6929   */\n      0x00\n        /* \"#utility.yul\":6917:6926   */\n      dup4\n        /* \"#utility.yul\":6913:6930   */\n      add\n        /* \"#utility.yul\":6906:6953   */\n      mstore\n        /* \"#utility.yul\":6970:7078   */\n      tag_629\n        /* \"#utility.yul\":7073:7077   */\n      dup2\n        /* \"#utility.yul\":7064:7070   */\n      dup6\n        /* \"#utility.yul\":6970:7078   */\n      tag_472\n      jump\t// in\n    tag_629:\n        /* \"#utility.yul\":6962:7078   */\n      swap1\n      pop\n        /* \"#utility.yul\":7125:7134   */\n      dup2\n        /* \"#utility.yul\":7119:7123   */\n      dup2\n        /* \"#utility.yul\":7115:7135   */\n      sub\n        /* \"#utility.yul\":7110:7112   */\n      0x20\n        /* \"#utility.yul\":7099:7108   */\n      dup4\n        /* \"#utility.yul\":7095:7113   */\n      add\n        /* \"#utility.yul\":7088:7136   */\n      mstore\n        /* \"#utility.yul\":7153:7261   */\n      tag_630\n        /* \"#utility.yul\":7256:7260   */\n      dup2\n        /* \"#utility.yul\":7247:7253   */\n      dup5\n        /* \"#utility.yul\":7153:7261   */\n      tag_472\n      jump\t// in\n    tag_630:\n        /* \"#utility.yul\":7145:7261   */\n      swap1\n      pop\n        /* \"#utility.yul\":6634:7268   */\n      swap4\n      swap3\n      pop\n      pop\n      pop\n      jump\t// out\n        /* \"#utility.yul\":7274:7391   */\n    tag_473:\n        /* \"#utility.yul\":7383:7384   */\n      0x00\n        /* \"#utility.yul\":7380:7381   */\n      dup1\n        /* \"#utility.yul\":7373:7385   */\n      revert\n        /* \"#utility.yul\":7397:7514   */\n    tag_474:\n        /* \"#utility.yul\":7506:7507   */\n      0x00\n        /* \"#utility.yul\":7503:7504   */\n      dup1\n        /* \"#utility.yul\":7496:7508   */\n      revert\n        /* \"#utility.yul\":7520:7700   */\n    tag_205:\n        /* \"#utility.yul\":7568:7645   */\n      0x4e487b7100000000000000000000000000000000000000000000000000000000\n        /* \"#utility.yul\":7565:7566   */\n      0x00\n        /* \"#utility.yul\":7558:7646   */\n      mstore\n        /* \"#utility.yul\":7665:7669   */\n      0x41\n        /* \"#utility.yul\":7662:7663   */\n      0x04\n        /* \"#utility.yul\":7655:7670   */\n      mstore\n        /* \"#utility.yul\":7689:7693   */\n      0x24\n        /* \"#utility.yul\":7686:7687   */\n      0x00\n        /* \"#utility.yul\":7679:7694   */\n      revert\n        /* \"#utility.yul\":7706:7987   */\n    tag_475:\n        /* \"#utility.yul\":7789:7816   */\n      tag_635\n        /* \"#utility.yul\":7811:7815   */\n      dup3\n        /* \"#utility.yul\":7789:7816   */\n      tag_460\n      jump\t// in\n    tag_635:\n        /* \"#utility.yul\":7781:7787   */\n      dup2\n        /* \"#utility.yul\":7777:7817   */\n      add\n        /* \"#utility.yul\":7919:7925   */\n      dup2\n        /* \"#utility.yul\":7907:7917   */\n      dup2\n        /* \"#utility.yul\":7904:7926   */\n      lt\n        /* \"#utility.yul\":7883:7901   */\n      0xffffffffffffffff\n        /* \"#utility.yul\":7871:7881   */\n      dup3\n        /* \"#utility.yul\":7868:7902   */\n      gt\n        /* \"#utility.yul\":7865:7927   */\n      or\n        /* \"#utility.yul\":7862:7950   */\n      iszero\n      tag_636\n      jumpi\n        /* \"#utility.yul\":7930:7948   */\n      tag_637\n      tag_205\n      jump\t// in\n    tag_637:\n        /* \"#utility.yul\":7862:7950   */\n    tag_636:\n        /* \"#utility.yul\":7970:7980   */\n      dup1\n        /* \"#utility.yul\":7966:7968   */\n      0x40\n        /* \"#utility.yul\":7959:7981   */\n      mstore\n        /* \"#utility.yul\":7749:7987   */\n      pop\n        /* \"#utility.yul\":7706:7987   */\n      pop\n      pop\n      jump\t// out\n        /* \"#utility.yul\":7993:8122   */\n    tag_476:\n        /* \"#utility.yul\":8027:8033   */\n      0x00\n        /* \"#utility.yul\":8054:8074   */\n      tag_639\n      tag_447\n      jump\t// in\n    tag_639:\n        /* \"#utility.yul\":8044:8074   */\n      swap1\n      pop\n        /* \"#utility.yul\":8083:8116   */\n      tag_640\n        /* \"#utility.yul\":8111:8115   */\n      dup3\n        /* \"#utility.yul\":8103:8109   */\n      dup3\n        /* \"#utility.yul\":8083:8116   */\n      tag_475\n      jump\t// in\n    tag_640:\n        /* \"#utility.yul\":7993:8122   */\n      swap2\n      swap1\n      pop\n      jump\t// out\n        /* \"#utility.yul\":8128:8436   */\n    tag_477:\n        /* \"#utility.yul\":8190:8194   */\n      0x00\n        /* \"#utility.yul\":8280:8298   */\n      0xffffffffffffffff\n        /* \"#utility.yul\":8272:8278   */\n      dup3\n        /* \"#utility.yul\":8269:8299   */\n      gt\n        /* \"#utility.yul\":8266:8322   */\n      iszero\n      tag_642\n      jumpi\n        /* \"#utility.yul\":8302:8320   */\n      tag_643\n      tag_205\n      jump\t// in\n    tag_643:\n        /* \"#utility.yul\":8266:8322   */\n    tag_642:\n        /* \"#utility.yul\":8340:8369   */\n      tag_644\n        /* \"#utility.yul\":8362:8368   */\n      dup3\n        /* \"#utility.yul\":8340:8369   */\n      tag_460\n      jump\t// in\n    tag_644:\n        /* \"#utility.yul\":8332:8369   */\n      swap1\n      pop\n        /* \"#utility.yul\":8424:8428   */\n      0x20\n        /* \"#utility.yul\":8418:8422   */\n      dup2\n        /* \"#utility.yul\":8414:8429   */\n      add\n        /* \"#utility.yul\":8406:8429   */\n      swap1\n      pop\n        /* \"#utility.yul\":8128:8436   */\n      swap2\n      swap1\n      pop\n      jump\t// out\n        /* \"#utility.yul\":8442:8590   */\n    tag_478:\n        /* \"#utility.yul\":8540:8546   */\n      dup3\n        /* \"#utility.yul\":8535:8538   */\n      dup2\n        /* \"#utility.yul\":8530:8533   */\n      dup4\n        /* \"#utility.yul\":8517:8547   */\n      calldatacopy\n        /* \"#utility.yul\":8581:8582   */\n      0x00\n        /* \"#utility.yul\":8572:8578   */\n      dup4\n        /* \"#utility.yul\":8567:8570   */\n      dup4\n        /* \"#utility.yul\":8563:8579   */\n      add\n        /* \"#utility.yul\":8556:8583   */\n      mstore\n        /* \"#utility.yul\":8442:8590   */\n      pop\n      pop\n      pop\n      jump\t// out\n        /* \"#utility.yul\":8596:9021   */\n    tag_479:\n        /* \"#utility.yul\":8674:8679   */\n      0x00\n        /* \"#utility.yul\":8699:8765   */\n      tag_647\n        /* \"#utility.yul\":8715:8764   */\n      tag_648\n        /* \"#utility.yul\":8757:8763   */\n      dup5\n        /* \"#utility.yul\":8715:8764   */\n      tag_477\n      jump\t// in\n    tag_648:\n        /* \"#utility.yul\":8699:8765   */\n      tag_476\n      jump\t// in\n    tag_647:\n        /* \"#utility.yul\":8690:8765   */\n      swap1\n      pop\n        /* \"#utility.yul\":8788:8794   */\n      dup3\n        /* \"#utility.yul\":8781:8786   */\n      dup2\n        /* \"#utility.yul\":8774:8795   */\n      mstore\n        /* \"#utility.yul\":8826:8830   */\n      0x20\n        /* \"#utility.yul\":8819:8824   */\n      dup2\n        /* \"#utility.yul\":8815:8831   */\n      add\n        /* \"#utility.yul\":8864:8867   */\n      dup5\n        /* \"#utility.yul\":8855:8861   */\n      dup5\n        /* \"#utility.yul\":8850:8853   */\n      dup5\n        /* \"#utility.yul\":8846:8862   */\n      add\n        /* \"#utility.yul\":8843:8868   */\n      gt\n        /* \"#utility.yul\":8840:8952   */\n      iszero\n      tag_649\n      jumpi\n        /* \"#utility.yul\":8871:8950   */\n      tag_650\n      tag_474\n      jump\t// in\n    tag_650:\n        /* \"#utility.yul\":8840:8952   */\n    tag_649:\n        /* \"#utility.yul\":8961:9015   */\n      tag_651\n        /* \"#utility.yul\":9008:9014   */\n      dup5\n        /* \"#utility.yul\":9003:9006   */\n      dup3\n        /* \"#utility.yul\":8998:9001   */\n      dup6\n        /* \"#utility.yul\":8961:9015   */\n      tag_478\n      jump\t// in\n    tag_651:\n        /* \"#utility.yul\":8680:9021   */\n      pop\n        /* \"#utility.yul\":8596:9021   */\n      swap4\n      swap3\n      pop\n      pop\n      pop\n      jump\t// out\n        /* \"#utility.yul\":9041:9381   */\n    tag_480:\n        /* \"#utility.yul\":9097:9102   */\n      0x00\n        /* \"#utility.yul\":9146:9149   */\n      dup3\n        /* \"#utility.yul\":9139:9143   */\n      0x1f\n        /* \"#utility.yul\":9131:9137   */\n      dup4\n        /* \"#utility.yul\":9127:9144   */\n      add\n        /* \"#utility.yul\":9123:9150   */\n      slt\n        /* \"#utility.yul\":9113:9235   */\n      tag_653\n      jumpi\n        /* \"#utility.yul\":9154:9233   */\n      tag_654\n      tag_473\n      jump\t// in\n    tag_654:\n        /* \"#utility.yul\":9113:9235   */\n    tag_653:\n        /* \"#utility.yul\":9271:9277   */\n      dup2\n        /* \"#utility.yul\":9258:9278   */\n      calldataload\n        /* \"#utility.yul\":9296:9375   */\n      tag_655\n        /* \"#utility.yul\":9371:9374   */\n      dup5\n        /* \"#utility.yul\":9363:9369   */\n      dup3\n        /* \"#utility.yul\":9356:9360   */\n      0x20\n        /* \"#utility.yul\":9348:9354   */\n      dup7\n        /* \"#utility.yul\":9344:9361   */\n      add\n        /* \"#utility.yul\":9296:9375   */\n      tag_479\n      jump\t// in\n    tag_655:\n        /* \"#utility.yul\":9287:9375   */\n      swap2\n      pop\n        /* \"#utility.yul\":9103:9381   */\n      pop\n        /* \"#utility.yul\":9041:9381   */\n      swap3\n      swap2\n      pop\n      pop\n      jump\t// out\n        /* \"#utility.yul\":9387:10186   */\n    tag_50:\n        /* \"#utility.yul\":9474:9480   */\n      0x00\n        /* \"#utility.yul\":9482:9488   */\n      dup1\n        /* \"#utility.yul\":9490:9496   */\n      0x00\n        /* \"#utility.yul\":9539:9541   */\n      0x60\n        /* \"#utility.yul\":9527:9536   */\n      dup5\n        /* \"#utility.yul\":9518:9525   */\n      dup7\n        /* \"#utility.yul\":9514:9537   */\n      sub\n        /* \"#utility.yul\":9510:9542   */\n      slt\n        /* \"#utility.yul\":9507:9626   */\n      iszero\n      tag_657\n      jumpi\n        /* \"#utility.yul\":9545:9624   */\n      tag_658\n      tag_448\n      jump\t// in\n    tag_658:\n        /* \"#utility.yul\":9507:9626   */\n    tag_657:\n        /* \"#utility.yul\":9693:9694   */\n      0x00\n        /* \"#utility.yul\":9682:9691   */\n      dup5\n        /* \"#utility.yul\":9678:9695   */\n      add\n        /* \"#utility.yul\":9665:9696   */\n      calldataload\n        /* \"#utility.yul\":9723:9741   */\n      0xffffffffffffffff\n        /* \"#utility.yul\":9715:9721   */\n      dup2\n        /* \"#utility.yul\":9712:9742   */\n      gt\n        /* \"#utility.yul\":9709:9826   */\n      iszero\n      tag_659\n      jumpi\n        /* \"#utility.yul\":9745:9824   */\n      tag_660\n      tag_449\n      jump\t// in\n    tag_660:\n        /* \"#utility.yul\":9709:9826   */\n    tag_659:\n        /* \"#utility.yul\":9850:9913   */\n      tag_661\n        /* \"#utility.yul\":9905:9912   */\n      dup7\n        /* \"#utility.yul\":9896:9902   */\n      dup3\n        /* \"#utility.yul\":9885:9894   */\n      dup8\n        /* \"#utility.yul\":9881:9903   */\n      add\n        /* \"#utility.yul\":9850:9913   */\n      tag_480\n      jump\t// in\n    tag_661:\n        /* \"#utility.yul\":9840:9913   */\n      swap4\n      pop\n        /* \"#utility.yul\":9636:9923   */\n      pop\n        /* \"#utility.yul\":9962:9964   */\n      0x20\n        /* \"#utility.yul\":9988:10041   */\n      tag_662\n        /* \"#utility.yul\":10033:10040   */\n      dup7\n        /* \"#utility.yul\":10024:10030   */\n      dup3\n        /* \"#utility.yul\":10013:10022   */\n      dup8\n        /* \"#utility.yul\":10009:10031   */\n      add\n        /* \"#utility.yul\":9988:10041   */\n      tag_452\n      jump\t// in\n    tag_662:\n        /* \"#utility.yul\":9978:10041   */\n      swap3\n      pop\n        /* \"#utility.yul\":9933:10051   */\n      pop\n        /* \"#utility.yul\":10090:10092   */\n      0x40\n        /* \"#utility.yul\":10116:10169   */\n      tag_663\n        /* \"#utility.yul\":10161:10168   */\n      dup7\n        /* \"#utility.yul\":10152:10158   */\n      dup3\n        /* \"#utility.yul\":10141:10150   */\n      dup8\n        /* \"#utility.yul\":10137:10159   */\n      add\n        /* \"#utility.yul\":10116:10169   */\n      tag_452\n      jump\t// in\n    tag_663:\n        /* \"#utility.yul\":10106:10169   */\n      swap2\n      pop\n        /* \"#utility.yul\":10061:10179   */\n      pop\n        /* \"#utility.yul\":9387:10186   */\n      swap3\n      pop\n      swap3\n      pop\n      swap3\n      jump\t// out\n        /* \"#utility.yul\":10192:10334   */\n    tag_481:\n        /* \"#utility.yul\":10287:10293   */\n      0x00\n        /* \"#utility.yul\":10321:10326   */\n      dup2\n        /* \"#utility.yul\":10315:10327   */\n      mload\n        /* \"#utility.yul\":10305:10327   */\n      swap1\n      pop\n        /* \"#utility.yul\":10192:10334   */\n      swap2\n      swap1\n      pop\n      jump\t// out\n        /* \"#utility.yul\":10340:10552   */\n    tag_482:\n        /* \"#utility.yul\":10467:10478   */\n      0x00\n        /* \"#utility.yul\":10501:10507   */\n      dup3\n        /* \"#utility.yul\":10496:10499   */\n      dup3\n        /* \"#utility.yul\":10489:10508   */\n      mstore\n        /* \"#utility.yul\":10541:10545   */\n      0x20\n        /* \"#utility.yul\":10536:10539   */\n      dup3\n        /* \"#utility.yul\":10532:10546   */\n      add\n        /* \"#utility.yul\":10517:10546   */\n      swap1\n      pop\n        /* \"#utility.yul\":10340:10552   */\n      swap3\n      swap2\n      pop\n      pop\n      jump\t// out\n        /* \"#utility.yul\":10558:10718   */\n    tag_483:\n        /* \"#utility.yul\":10653:10657   */\n      0x00\n        /* \"#utility.yul\":10676:10679   */\n      dup2\n        /* \"#utility.yul\":10668:10679   */\n      swap1\n      pop\n        /* \"#utility.yul\":10706:10710   */\n      0x20\n        /* \"#utility.yul\":10701:10704   */\n      dup3\n        /* \"#utility.yul\":10697:10711   */\n      add\n        /* \"#utility.yul\":10689:10711   */\n      swap1\n      pop\n        /* \"#utility.yul\":10558:10718   */\n      swap2\n      swap1\n      pop\n      jump\t// out\n        /* \"#utility.yul\":10724:10832   */\n    tag_484:\n        /* \"#utility.yul\":10801:10825   */\n      tag_668\n        /* \"#utility.yul\":10819:10824   */\n      dup2\n        /* \"#utility.yul\":10801:10825   */\n      tag_455\n      jump\t// in\n    tag_668:\n        /* \"#utility.yul\":10796:10799   */\n      dup3\n        /* \"#utility.yul\":10789:10826   */\n      mstore\n        /* \"#utility.yul\":10724:10832   */\n      pop\n      pop\n      jump\t// out\n        /* \"#utility.yul\":10838:10997   */\n    tag_485:\n        /* \"#utility.yul\":10912:10923   */\n      0x00\n        /* \"#utility.yul\":10946:10952   */\n      dup3\n        /* \"#utility.yul\":10941:10944   */\n      dup3\n        /* \"#utility.yul\":10934:10953   */\n      mstore\n        /* \"#utility.yul\":10986:10990   */\n      0x20\n        /* \"#utility.yul\":10981:10984   */\n      dup3\n        /* \"#utility.yul\":10977:10991   */\n      add\n        /* \"#utility.yul\":10962:10991   */\n      swap1\n      pop\n        /* \"#utility.yul\":10838:10997   */\n      swap3\n      swap2\n      pop\n      pop\n      jump\t// out\n        /* \"#utility.yul\":11003:11360   */\n    tag_486:\n        /* \"#utility.yul\":11081:11084   */\n      0x00\n        /* \"#utility.yul\":11109:11148   */\n      tag_671\n        /* \"#utility.yul\":11142:11147   */\n      dup3\n        /* \"#utility.yul\":11109:11148   */\n      tag_457\n      jump\t// in\n    tag_671:\n        /* \"#utility.yul\":11164:11225   */\n      tag_672\n        /* \"#utility.yul\":11218:11224   */\n      dup2\n        /* \"#utility.yul\":11213:11216   */\n      dup6\n        /* \"#utility.yul\":11164:11225   */\n      tag_485\n      jump\t// in\n    tag_672:\n        /* \"#utility.yul\":11157:11225   */\n      swap4\n      pop\n        /* \"#utility.yul\":11234:11299   */\n      tag_673\n        /* \"#utility.yul\":11292:11298   */\n      dup2\n        /* \"#utility.yul\":11287:11290   */\n      dup6\n        /* \"#utility.yul\":11280:11284   */\n      0x20\n        /* \"#utility.yul\":11273:11278   */\n      dup7\n        /* \"#utility.yul\":11269:11285   */\n      add\n        /* \"#utility.yul\":11234:11299   */\n      tag_459\n      jump\t// in\n    tag_673:\n        /* \"#utility.yul\":11324:11353   */\n      tag_674\n        /* \"#utility.yul\":11346:11352   */\n      dup2\n        /* \"#utility.yul\":11324:11353   */\n      tag_460\n      jump\t// in\n    tag_674:\n        /* \"#utility.yul\":11319:11322   */\n      dup5\n        /* \"#utility.yul\":11315:11354   */\n      add\n        /* \"#utility.yul\":11308:11354   */\n      swap2\n      pop\n        /* \"#utility.yul\":11085:11360   */\n      pop\n        /* \"#utility.yul\":11003:11360   */\n      swap3\n      swap2\n      pop\n      pop\n      jump\t// out\n        /* \"#utility.yul\":11366:11465   */\n    tag_487:\n        /* \"#utility.yul\":11437:11458   */\n      tag_676\n        /* \"#utility.yul\":11452:11457   */\n      dup2\n        /* \"#utility.yul\":11437:11458   */\n      tag_462\n      jump\t// in\n    tag_676:\n        /* \"#utility.yul\":11432:11435   */\n      dup3\n        /* \"#utility.yul\":11425:11459   */\n      mstore\n        /* \"#utility.yul\":11366:11465   */\n      pop\n      pop\n      jump\t// out\n        /* \"#utility.yul\":11547:13231   */\n    tag_488:\n        /* \"#utility.yul\":11662:11665   */\n      0x00\n        /* \"#utility.yul\":11698:11704   */\n      0x0100\n        /* \"#utility.yul\":11693:11696   */\n      dup4\n        /* \"#utility.yul\":11689:11705   */\n      add\n        /* \"#utility.yul\":11793:11797   */\n      0x00\n        /* \"#utility.yul\":11786:11791   */\n      dup4\n        /* \"#utility.yul\":11782:11798   */\n      add\n        /* \"#utility.yul\":11776:11799   */\n      mload\n        /* \"#utility.yul\":11812:11875   */\n      tag_678\n        /* \"#utility.yul\":11869:11873   */\n      0x00\n        /* \"#utility.yul\":11864:11867   */\n      dup7\n        /* \"#utility.yul\":11860:11874   */\n      add\n        /* \"#utility.yul\":11846:11858   */\n      dup3\n        /* \"#utility.yul\":11812:11875   */\n      tag_469\n      jump\t// in\n    tag_678:\n        /* \"#utility.yul\":11715:11885   */\n      pop\n        /* \"#utility.yul\":11975:11979   */\n      0x20\n        /* \"#utility.yul\":11968:11973   */\n      dup4\n        /* \"#utility.yul\":11964:11980   */\n      add\n        /* \"#utility.yul\":11958:11981   */\n      mload\n        /* \"#utility.yul\":11994:12057   */\n      tag_679\n        /* \"#utility.yul\":12051:12055   */\n      0x20\n        /* \"#utility.yul\":12046:12049   */\n      dup7\n        /* \"#utility.yul\":12042:12056   */\n      add\n        /* \"#utility.yul\":12028:12040   */\n      dup3\n        /* \"#utility.yul\":11994:12057   */\n      tag_484\n      jump\t// in\n    tag_679:\n        /* \"#utility.yul\":11895:12067   */\n      pop\n        /* \"#utility.yul\":12150:12154   */\n      0x40\n        /* \"#utility.yul\":12143:12148   */\n      dup4\n        /* \"#utility.yul\":12139:12155   */\n      add\n        /* \"#utility.yul\":12133:12156   */\n      mload\n        /* \"#utility.yul\":12203:12206   */\n      dup5\n        /* \"#utility.yul\":12197:12201   */\n      dup3\n        /* \"#utility.yul\":12193:12207   */\n      sub\n        /* \"#utility.yul\":12186:12190   */\n      0x40\n        /* \"#utility.yul\":12181:12184   */\n      dup7\n        /* \"#utility.yul\":12177:12191   */\n      add\n        /* \"#utility.yul\":12170:12208   */\n      mstore\n        /* \"#utility.yul\":12229:12302   */\n      tag_680\n        /* \"#utility.yul\":12297:12301   */\n      dup3\n        /* \"#utility.yul\":12283:12295   */\n      dup3\n        /* \"#utility.yul\":12229:12302   */\n      tag_486\n      jump\t// in\n    tag_680:\n        /* \"#utility.yul\":12221:12302   */\n      swap2\n      pop\n        /* \"#utility.yul\":12077:12313   */\n      pop\n        /* \"#utility.yul\":12401:12405   */\n      0x60\n        /* \"#utility.yul\":12394:12399   */\n      dup4\n        /* \"#utility.yul\":12390:12406   */\n      add\n        /* \"#utility.yul\":12384:12407   */\n      mload\n        /* \"#utility.yul\":12420:12483   */\n      tag_681\n        /* \"#utility.yul\":12477:12481   */\n      0x60\n        /* \"#utility.yul\":12472:12475   */\n      dup7\n        /* \"#utility.yul\":12468:12482   */\n      add\n        /* \"#utility.yul\":12454:12466   */\n      dup3\n        /* \"#utility.yul\":12420:12483   */\n      tag_469\n      jump\t// in\n    tag_681:\n        /* \"#utility.yul\":12323:12493   */\n      pop\n        /* \"#utility.yul\":12584:12588   */\n      0x80\n        /* \"#utility.yul\":12577:12582   */\n      dup4\n        /* \"#utility.yul\":12573:12589   */\n      add\n        /* \"#utility.yul\":12567:12590   */\n      mload\n        /* \"#utility.yul\":12603:12666   */\n      tag_682\n        /* \"#utility.yul\":12660:12664   */\n      0x80\n        /* \"#utility.yul\":12655:12658   */\n      dup7\n        /* \"#utility.yul\":12651:12665   */\n      add\n        /* \"#utility.yul\":12637:12649   */\n      dup3\n        /* \"#utility.yul\":12603:12666   */\n      tag_469\n      jump\t// in\n    tag_682:\n        /* \"#utility.yul\":12503:12676   */\n      pop\n        /* \"#utility.yul\":12766:12770   */\n      0xa0\n        /* \"#utility.yul\":12759:12764   */\n      dup4\n        /* \"#utility.yul\":12755:12771   */\n      add\n        /* \"#utility.yul\":12749:12772   */\n      mload\n        /* \"#utility.yul\":12785:12848   */\n      tag_683\n        /* \"#utility.yul\":12842:12846   */\n      0xa0\n        /* \"#utility.yul\":12837:12840   */\n      dup7\n        /* \"#utility.yul\":12833:12847   */\n      add\n        /* \"#utility.yul\":12819:12831   */\n      dup3\n        /* \"#utility.yul\":12785:12848   */\n      tag_469\n      jump\t// in\n    tag_683:\n        /* \"#utility.yul\":12686:12858   */\n      pop\n        /* \"#utility.yul\":12945:12949   */\n      0xc0\n        /* \"#utility.yul\":12938:12943   */\n      dup4\n        /* \"#utility.yul\":12934:12950   */\n      add\n        /* \"#utility.yul\":12928:12951   */\n      mload\n        /* \"#utility.yul\":12964:13021   */\n      tag_684\n        /* \"#utility.yul\":13015:13019   */\n      0xc0\n        /* \"#utility.yul\":13010:13013   */\n      dup7\n        /* \"#utility.yul\":13006:13020   */\n      add\n        /* \"#utility.yul\":12992:13004   */\n      dup3\n        /* \"#utility.yul\":12964:13021   */\n      tag_487\n      jump\t// in\n    tag_684:\n        /* \"#utility.yul\":12868:13031   */\n      pop\n        /* \"#utility.yul\":13118:13122   */\n      0xe0\n        /* \"#utility.yul\":13111:13116   */\n      dup4\n        /* \"#utility.yul\":13107:13123   */\n      add\n        /* \"#utility.yul\":13101:13124   */\n      mload\n        /* \"#utility.yul\":13137:13194   */\n      tag_685\n        /* \"#utility.yul\":13188:13192   */\n      0xe0\n        /* \"#utility.yul\":13183:13186   */\n      dup7\n        /* \"#utility.yul\":13179:13193   */\n      add\n        /* \"#utility.yul\":13165:13177   */\n      dup3\n        /* \"#utility.yul\":13137:13194   */\n      tag_487\n      jump\t// in\n    tag_685:\n        /* \"#utility.yul\":13041:13204   */\n      pop\n        /* \"#utility.yul\":13221:13225   */\n      dup1\n        /* \"#utility.yul\":13214:13225   */\n      swap2\n      pop\n        /* \"#utility.yul\":11667:13231   */\n      pop\n        /* \"#utility.yul\":11547:13231   */\n      swap3\n      swap2\n      pop\n      pop\n      jump\t// out\n        /* \"#utility.yul\":13237:13505   */\n    tag_489:\n        /* \"#utility.yul\":13362:13372   */\n      0x00\n        /* \"#utility.yul\":13397:13499   */\n      tag_687\n        /* \"#utility.yul\":13495:13498   */\n      dup4\n        /* \"#utility.yul\":13487:13493   */\n      dup4\n        /* \"#utility.yul\":13397:13499   */\n      tag_488\n      jump\t// in\n    tag_687:\n        /* \"#utility.yul\":13383:13499   */\n      swap1\n      pop\n        /* \"#utility.yul\":13237:13505   */\n      swap3\n      swap2\n      pop\n      pop\n      jump\t// out\n        /* \"#utility.yul\":13511:13652   */\n    tag_490:\n        /* \"#utility.yul\":13609:13613   */\n      0x00\n        /* \"#utility.yul\":13641:13645   */\n      0x20\n        /* \"#utility.yul\":13636:13639   */\n      dup3\n        /* \"#utility.yul\":13632:13646   */\n      add\n        /* \"#utility.yul\":13624:13646   */\n      swap1\n      pop\n        /* \"#utility.yul\":13511:13652   */\n      swap2\n      swap1\n      pop\n      jump\t// out\n        /* \"#utility.yul\":13738:14873   */\n    tag_491:\n        /* \"#utility.yul\":13913:13916   */\n      0x00\n        /* \"#utility.yul\":13942:14024   */\n      tag_690\n        /* \"#utility.yul\":14018:14023   */\n      dup3\n        /* \"#utility.yul\":13942:14024   */\n      tag_481\n      jump\t// in\n    tag_690:\n        /* \"#utility.yul\":14040:14154   */\n      tag_691\n        /* \"#utility.yul\":14147:14153   */\n      dup2\n        /* \"#utility.yul\":14142:14145   */\n      dup6\n        /* \"#utility.yul\":14040:14154   */\n      tag_482\n      jump\t// in\n    tag_691:\n        /* \"#utility.yul\":14033:14154   */\n      swap4\n      pop\n        /* \"#utility.yul\":14180:14183   */\n      dup4\n        /* \"#utility.yul\":14225:14229   */\n      0x20\n        /* \"#utility.yul\":14217:14223   */\n      dup3\n        /* \"#utility.yul\":14213:14230   */\n      mul\n        /* \"#utility.yul\":14208:14211   */\n      dup6\n        /* \"#utility.yul\":14204:14231   */\n      add\n        /* \"#utility.yul\":14255:14339   */\n      tag_692\n        /* \"#utility.yul\":14333:14338   */\n      dup6\n        /* \"#utility.yul\":14255:14339   */\n      tag_483\n      jump\t// in\n    tag_692:\n        /* \"#utility.yul\":14362:14369   */\n      dup1\n        /* \"#utility.yul\":14393:14394   */\n      0x00\n        /* \"#utility.yul\":14378:14828   */\n    tag_693:\n        /* \"#utility.yul\":14403:14409   */\n      dup6\n        /* \"#utility.yul\":14400:14401   */\n      dup2\n        /* \"#utility.yul\":14397:14410   */\n      lt\n        /* \"#utility.yul\":14378:14828   */\n      iszero\n      tag_695\n      jumpi\n        /* \"#utility.yul\":14474:14483   */\n      dup5\n        /* \"#utility.yul\":14468:14472   */\n      dup5\n        /* \"#utility.yul\":14464:14484   */\n      sub\n        /* \"#utility.yul\":14459:14462   */\n      dup10\n        /* \"#utility.yul\":14452:14485   */\n      mstore\n        /* \"#utility.yul\":14525:14531   */\n      dup2\n        /* \"#utility.yul\":14519:14532   */\n      mload\n        /* \"#utility.yul\":14553:14673   */\n      tag_696\n        /* \"#utility.yul\":14668:14672   */\n      dup6\n        /* \"#utility.yul\":14653:14666   */\n      dup3\n        /* \"#utility.yul\":14553:14673   */\n      tag_489\n      jump\t// in\n    tag_696:\n        /* \"#utility.yul\":14545:14673   */\n      swap5\n      pop\n        /* \"#utility.yul\":14696:14784   */\n      tag_697\n        /* \"#utility.yul\":14777:14783   */\n      dup4\n        /* \"#utility.yul\":14696:14784   */\n      tag_490\n      jump\t// in\n    tag_697:\n        /* \"#utility.yul\":14686:14784   */\n      swap3\n      pop\n        /* \"#utility.yul\":14813:14817   */\n      0x20\n        /* \"#utility.yul\":14808:14811   */\n      dup11\n        /* \"#utility.yul\":14804:14818   */\n      add\n        /* \"#utility.yul\":14797:14818   */\n      swap10\n      pop\n        /* \"#utility.yul\":14438:14828   */\n      pop\n        /* \"#utility.yul\":14425:14426   */\n      0x01\n        /* \"#utility.yul\":14422:14423   */\n      dup2\n        /* \"#utility.yul\":14418:14427   */\n      add\n        /* \"#utility.yul\":14413:14427   */\n      swap1\n      pop\n        /* \"#utility.yul\":14378:14828   */\n      jump(tag_693)\n    tag_695:\n        /* \"#utility.yul\":14382:14396   */\n      pop\n        /* \"#utility.yul\":14844:14848   */\n      dup3\n        /* \"#utility.yul\":14837:14848   */\n      swap8\n      pop\n        /* \"#utility.yul\":14864:14867   */\n      dup8\n        /* \"#utility.yul\":14857:14867   */\n      swap6\n      pop\n        /* \"#utility.yul\":13918:14873   */\n      pop\n      pop\n      pop\n      pop\n      pop\n        /* \"#utility.yul\":13738:14873   */\n      swap3\n      swap2\n      pop\n      pop\n      jump\t// out\n        /* \"#utility.yul\":14879:15364   */\n    tag_56:\n        /* \"#utility.yul\":15078:15082   */\n      0x00\n        /* \"#utility.yul\":15116:15118   */\n      0x20\n        /* \"#utility.yul\":15105:15114   */\n      dup3\n        /* \"#utility.yul\":15101:15119   */\n      add\n        /* \"#utility.yul\":15093:15119   */\n      swap1\n      pop\n        /* \"#utility.yul\":15165:15174   */\n      dup2\n        /* \"#utility.yul\":15159:15163   */\n      dup2\n        /* \"#utility.yul\":15155:15175   */\n      sub\n        /* \"#utility.yul\":15151:15152   */\n      0x00\n        /* \"#utility.yul\":15140:15149   */\n      dup4\n        /* \"#utility.yul\":15136:15153   */\n      add\n        /* \"#utility.yul\":15129:15176   */\n      mstore\n        /* \"#utility.yul\":15193:15357   */\n      tag_699\n        /* \"#utility.yul\":15352:15356   */\n      dup2\n        /* \"#utility.yul\":15343:15349   */\n      dup5\n        /* \"#utility.yul\":15193:15357   */\n      tag_491\n      jump\t// in\n    tag_699:\n        /* \"#utility.yul\":15185:15357   */\n      swap1\n      pop\n        /* \"#utility.yul\":14879:15364   */\n      swap3\n      swap2\n      pop\n      pop\n      jump\t// out\n        /* \"#utility.yul\":15370:15592   */\n    tag_68:\n        /* \"#utility.yul\":15463:15467   */\n      0x00\n        /* \"#utility.yul\":15501:15503   */\n      0x20\n        /* \"#utility.yul\":15490:15499   */\n      dup3\n        /* \"#utility.yul\":15486:15504   */\n      add\n        /* \"#utility.yul\":15478:15504   */\n      swap1\n      pop\n        /* \"#utility.yul\":15514:15585   */\n      tag_701\n        /* \"#utility.yul\":15582:15583   */\n      0x00\n        /* \"#utility.yul\":15571:15580   */\n      dup4\n        /* \"#utility.yul\":15567:15584   */\n      add\n        /* \"#utility.yul\":15558:15564   */\n      dup5\n        /* \"#utility.yul\":15514:15585   */\n      tag_453\n      jump\t// in\n    tag_701:\n        /* \"#utility.yul\":15370:15592   */\n      swap3\n      swap2\n      pop\n      pop\n      jump\t// out\n        /* \"#utility.yul\":15598:15820   */\n    tag_81:\n        /* \"#utility.yul\":15691:15695   */\n      0x00\n        /* \"#utility.yul\":15729:15731   */\n      0x20\n        /* \"#utility.yul\":15718:15727   */\n      dup3\n        /* \"#utility.yul\":15714:15732   */\n      add\n        /* \"#utility.yul\":15706:15732   */\n      swap1\n      pop\n        /* \"#utility.yul\":15742:15813   */\n      tag_703\n        /* \"#utility.yul\":15810:15811   */\n      0x00\n        /* \"#utility.yul\":15799:15808   */\n      dup4\n        /* \"#utility.yul\":15795:15812   */\n      add\n        /* \"#utility.yul\":15786:15792   */\n      dup5\n        /* \"#utility.yul\":15742:15813   */\n      tag_456\n      jump\t// in\n    tag_703:\n        /* \"#utility.yul\":15598:15820   */\n      swap3\n      swap2\n      pop\n      pop\n      jump\t// out\n        /* \"#utility.yul\":15826:15940   */\n    tag_492:\n        /* \"#utility.yul\":15893:15899   */\n      0x00\n        /* \"#utility.yul\":15927:15932   */\n      dup2\n        /* \"#utility.yul\":15921:15933   */\n      mload\n        /* \"#utility.yul\":15911:15933   */\n      swap1\n      pop\n        /* \"#utility.yul\":15826:15940   */\n      swap2\n      swap1\n      pop\n      jump\t// out\n        /* \"#utility.yul\":15946:16130   */\n    tag_493:\n        /* \"#utility.yul\":16045:16056   */\n      0x00\n        /* \"#utility.yul\":16079:16085   */\n      dup3\n        /* \"#utility.yul\":16074:16077   */\n      dup3\n        /* \"#utility.yul\":16067:16086   */\n      mstore\n        /* \"#utility.yul\":16119:16123   */\n      0x20\n        /* \"#utility.yul\":16114:16117   */\n      dup3\n        /* \"#utility.yul\":16110:16124   */\n      add\n        /* \"#utility.yul\":16095:16124   */\n      swap1\n      pop\n        /* \"#utility.yul\":15946:16130   */\n      swap3\n      swap2\n      pop\n      pop\n      jump\t// out\n        /* \"#utility.yul\":16136:16268   */\n    tag_494:\n        /* \"#utility.yul\":16203:16207   */\n      0x00\n        /* \"#utility.yul\":16226:16229   */\n      dup2\n        /* \"#utility.yul\":16218:16229   */\n      swap1\n      pop\n        /* \"#utility.yul\":16256:16260   */\n      0x20\n        /* \"#utility.yul\":16251:16254   */\n      dup3\n        /* \"#utility.yul\":16247:16261   */\n      add\n        /* \"#utility.yul\":16239:16261   */\n      swap1\n      pop\n        /* \"#utility.yul\":16136:16268   */\n      swap2\n      swap1\n      pop\n      jump\t// out\n        /* \"#utility.yul\":16274:16453   */\n    tag_495:\n        /* \"#utility.yul\":16343:16353   */\n      0x00\n        /* \"#utility.yul\":16364:16410   */\n      tag_708\n        /* \"#utility.yul\":16406:16409   */\n      dup4\n        /* \"#utility.yul\":16398:16404   */\n      dup4\n        /* \"#utility.yul\":16364:16410   */\n      tag_484\n      jump\t// in\n    tag_708:\n        /* \"#utility.yul\":16442:16446   */\n      0x20\n        /* \"#utility.yul\":16437:16440   */\n      dup4\n        /* \"#utility.yul\":16433:16447   */\n      add\n        /* \"#utility.yul\":16419:16447   */\n      swap1\n      pop\n        /* \"#utility.yul\":16274:16453   */\n      swap3\n      swap2\n      pop\n      pop\n      jump\t// out\n        /* \"#utility.yul\":16459:16572   */\n    tag_496:\n        /* \"#utility.yul\":16529:16533   */\n      0x00\n        /* \"#utility.yul\":16561:16565   */\n      0x20\n        /* \"#utility.yul\":16556:16559   */\n      dup3\n        /* \"#utility.yul\":16552:16566   */\n      add\n        /* \"#utility.yul\":16544:16566   */\n      swap1\n      pop\n        /* \"#utility.yul\":16459:16572   */\n      swap2\n      swap1\n      pop\n      jump\t// out\n        /* \"#utility.yul\":16608:17340   */\n    tag_497:\n        /* \"#utility.yul\":16727:16730   */\n      0x00\n        /* \"#utility.yul\":16756:16810   */\n      tag_711\n        /* \"#utility.yul\":16804:16809   */\n      dup3\n        /* \"#utility.yul\":16756:16810   */\n      tag_492\n      jump\t// in\n    tag_711:\n        /* \"#utility.yul\":16826:16912   */\n      tag_712\n        /* \"#utility.yul\":16905:16911   */\n      dup2\n        /* \"#utility.yul\":16900:16903   */\n      dup6\n        /* \"#utility.yul\":16826:16912   */\n      tag_493\n      jump\t// in\n    tag_712:\n        /* \"#utility.yul\":16819:16912   */\n      swap4\n      pop\n        /* \"#utility.yul\":16936:16992   */\n      tag_713\n        /* \"#utility.yul\":16986:16991   */\n      dup4\n        /* \"#utility.yul\":16936:16992   */\n      tag_494\n      jump\t// in\n    tag_713:\n        /* \"#utility.yul\":17015:17022   */\n      dup1\n        /* \"#utility.yul\":17046:17047   */\n      0x00\n        /* \"#utility.yul\":17031:17315   */\n    tag_714:\n        /* \"#utility.yul\":17056:17062   */\n      dup4\n        /* \"#utility.yul\":17053:17054   */\n      dup2\n        /* \"#utility.yul\":17050:17063   */\n      lt\n        /* \"#utility.yul\":17031:17315   */\n      iszero\n      tag_716\n      jumpi\n        /* \"#utility.yul\":17132:17138   */\n      dup2\n        /* \"#utility.yul\":17126:17139   */\n      mload\n        /* \"#utility.yul\":17159:17222   */\n      tag_717\n        /* \"#utility.yul\":17218:17221   */\n      dup9\n        /* \"#utility.yul\":17203:17216   */\n      dup3\n        /* \"#utility.yul\":17159:17222   */\n      tag_495\n      jump\t// in\n    tag_717:\n        /* \"#utility.yul\":17152:17222   */\n      swap8\n      pop\n        /* \"#utility.yul\":17245:17305   */\n      tag_718\n        /* \"#utility.yul\":17298:17304   */\n      dup4\n        /* \"#utility.yul\":17245:17305   */\n      tag_496\n      jump\t// in\n    tag_718:\n        /* \"#utility.yul\":17235:17305   */\n      swap3\n      pop\n        /* \"#utility.yul\":17091:17315   */\n      pop\n        /* \"#utility.yul\":17078:17079   */\n      0x01\n        /* \"#utility.yul\":17075:17076   */\n      dup2\n        /* \"#utility.yul\":17071:17080   */\n      add\n        /* \"#utility.yul\":17066:17080   */\n      swap1\n      pop\n        /* \"#utility.yul\":17031:17315   */\n      jump(tag_714)\n    tag_716:\n        /* \"#utility.yul\":17035:17049   */\n      pop\n        /* \"#utility.yul\":17331:17334   */\n      dup6\n        /* \"#utility.yul\":17324:17334   */\n      swap4\n      pop\n        /* \"#utility.yul\":16732:17340   */\n      pop\n      pop\n      pop\n        /* \"#utility.yul\":16608:17340   */\n      swap3\n      swap2\n      pop\n      pop\n      jump\t// out\n        /* \"#utility.yul\":17346:17980   */\n    tag_99:\n        /* \"#utility.yul\":17567:17571   */\n      0x00\n        /* \"#utility.yul\":17605:17607   */\n      0x40\n        /* \"#utility.yul\":17594:17603   */\n      dup3\n        /* \"#utility.yul\":17590:17608   */\n      add\n        /* \"#utility.yul\":17582:17608   */\n      swap1\n      pop\n        /* \"#utility.yul\":17654:17663   */\n      dup2\n        /* \"#utility.yul\":17648:17652   */\n      dup2\n        /* \"#utility.yul\":17644:17664   */\n      sub\n        /* \"#utility.yul\":17640:17641   */\n      0x00\n        /* \"#utility.yul\":17629:17638   */\n      dup4\n        /* \"#utility.yul\":17625:17642   */\n      add\n        /* \"#utility.yul\":17618:17665   */\n      mstore\n        /* \"#utility.yul\":17682:17790   */\n      tag_720\n        /* \"#utility.yul\":17785:17789   */\n      dup2\n        /* \"#utility.yul\":17776:17782   */\n      dup6\n        /* \"#utility.yul\":17682:17790   */\n      tag_497\n      jump\t// in\n    tag_720:\n        /* \"#utility.yul\":17674:17790   */\n      swap1\n      pop\n        /* \"#utility.yul\":17837:17846   */\n      dup2\n        /* \"#utility.yul\":17831:17835   */\n      dup2\n        /* \"#utility.yul\":17827:17847   */\n      sub\n        /* \"#utility.yul\":17822:17824   */\n      0x20\n        /* \"#utility.yul\":17811:17820   */\n      dup4\n        /* \"#utility.yul\":17807:17825   */\n      add\n        /* \"#utility.yul\":17800:17848   */\n      mstore\n        /* \"#utility.yul\":17865:17973   */\n      tag_721\n        /* \"#utility.yul\":17968:17972   */\n      dup2\n        /* \"#utility.yul\":17959:17965   */\n      dup5\n        /* \"#utility.yul\":17865:17973   */\n      tag_472\n      jump\t// in\n    tag_721:\n        /* \"#utility.yul\":17857:17973   */\n      swap1\n      pop\n        /* \"#utility.yul\":17346:17980   */\n      swap4\n      swap3\n      pop\n      pop\n      pop\n      jump\t// out\n        /* \"#utility.yul\":17986:18196   */\n    tag_110:\n        /* \"#utility.yul\":18073:18077   */\n      0x00\n        /* \"#utility.yul\":18111:18113   */\n      0x20\n        /* \"#utility.yul\":18100:18109   */\n      dup3\n        /* \"#utility.yul\":18096:18114   */\n      add\n        /* \"#utility.yul\":18088:18114   */\n      swap1\n      pop\n        /* \"#utility.yul\":18124:18189   */\n      tag_723\n        /* \"#utility.yul\":18186:18187   */\n      0x00\n        /* \"#utility.yul\":18175:18184   */\n      dup4\n        /* \"#utility.yul\":18171:18188   */\n      add\n        /* \"#utility.yul\":18162:18168   */\n      dup5\n        /* \"#utility.yul\":18124:18189   */\n      tag_463\n      jump\t// in\n    tag_723:\n        /* \"#utility.yul\":17986:18196   */\n      swap3\n      swap2\n      pop\n      pop\n      jump\t// out\n        /* \"#utility.yul\":18202:18429   */\n    tag_498:\n        /* \"#utility.yul\":18342:18376   */\n      0x4f6e6c792074686520636f6e7472616374206f776e65722063616e2065786563\n        /* \"#utility.yul\":18338:18339   */\n      0x00\n        /* \"#utility.yul\":18330:18336   */\n      dup3\n        /* \"#utility.yul\":18326:18340   */\n      add\n        /* \"#utility.yul\":18319:18377   */\n      mstore\n        /* \"#utility.yul\":18411:18421   */\n      0x7574652074686973000000000000000000000000000000000000000000000000\n        /* \"#utility.yul\":18406:18408   */\n      0x20\n        /* \"#utility.yul\":18398:18404   */\n      dup3\n        /* \"#utility.yul\":18394:18409   */\n      add\n        /* \"#utility.yul\":18387:18422   */\n      mstore\n        /* \"#utility.yul\":18202:18429   */\n      pop\n      jump\t// out\n        /* \"#utility.yul\":18435:18801   */\n    tag_499:\n        /* \"#utility.yul\":18577:18580   */\n      0x00\n        /* \"#utility.yul\":18598:18665   */\n      tag_726\n        /* \"#utility.yul\":18662:18664   */\n      0x28\n        /* \"#utility.yul\":18657:18660   */\n      dup4\n        /* \"#utility.yul\":18598:18665   */\n      tag_458\n      jump\t// in\n    tag_726:\n        /* \"#utility.yul\":18591:18665   */\n      swap2\n      pop\n        /* \"#utility.yul\":18674:18767   */\n      tag_727\n        /* \"#utility.yul\":18763:18766   */\n      dup3\n        /* \"#utility.yul\":18674:18767   */\n      tag_498\n      jump\t// in\n    tag_727:\n        /* \"#utility.yul\":18792:18794   */\n      0x40\n        /* \"#utility.yul\":18787:18790   */\n      dup3\n        /* \"#utility.yul\":18783:18795   */\n      add\n        /* \"#utility.yul\":18776:18795   */\n      swap1\n      pop\n        /* \"#utility.yul\":18435:18801   */\n      swap2\n      swap1\n      pop\n      jump\t// out\n        /* \"#utility.yul\":18807:19226   */\n    tag_131:\n        /* \"#utility.yul\":18973:18977   */\n      0x00\n        /* \"#utility.yul\":19011:19013   */\n      0x20\n        /* \"#utility.yul\":19000:19009   */\n      dup3\n        /* \"#utility.yul\":18996:19014   */\n      add\n        /* \"#utility.yul\":18988:19014   */\n      swap1\n      pop\n        /* \"#utility.yul\":19060:19069   */\n      dup2\n        /* \"#utility.yul\":19054:19058   */\n      dup2\n        /* \"#utility.yul\":19050:19070   */\n      sub\n        /* \"#utility.yul\":19046:19047   */\n      0x00\n        /* \"#utility.yul\":19035:19044   */\n      dup4\n        /* \"#utility.yul\":19031:19048   */\n      add\n        /* \"#utility.yul\":19024:19071   */\n      mstore\n        /* \"#utility.yul\":19088:19219   */\n      tag_729\n        /* \"#utility.yul\":19214:19218   */\n      dup2\n        /* \"#utility.yul\":19088:19219   */\n      tag_499\n      jump\t// in\n    tag_729:\n        /* \"#utility.yul\":19080:19219   */\n      swap1\n      pop\n        /* \"#utility.yul\":18807:19226   */\n      swap2\n      swap1\n      pop\n      jump\t// out\n        /* \"#utility.yul\":19232:19404   */\n    tag_500:\n        /* \"#utility.yul\":19372:19396   */\n      0x436f6e7472616374206973206e6f742061637469766500000000000000000000\n        /* \"#utility.yul\":19368:19369   */\n      0x00\n        /* \"#utility.yul\":19360:19366   */\n      dup3\n        /* \"#utility.yul\":19356:19370   */\n      add\n        /* \"#utility.yul\":19349:19397   */\n      mstore\n        /* \"#utility.yul\":19232:19404   */\n      pop\n      jump\t// out\n        /* \"#utility.yul\":19410:19776   */\n    tag_501:\n        /* \"#utility.yul\":19552:19555   */\n      0x00\n        /* \"#utility.yul\":19573:19640   */\n      tag_732\n        /* \"#utility.yul\":19637:19639   */\n      0x16\n        /* \"#utility.yul\":19632:19635   */\n      dup4\n        /* \"#utility.yul\":19573:19640   */\n      tag_458\n      jump\t// in\n    tag_732:\n        /* \"#utility.yul\":19566:19640   */\n      swap2\n      pop\n        /* \"#utility.yul\":19649:19742   */\n      tag_733\n        /* \"#utility.yul\":19738:19741   */\n      dup3\n        /* \"#utility.yul\":19649:19742   */\n      tag_500\n      jump\t// in\n    tag_733:\n        /* \"#utility.yul\":19767:19769   */\n      0x20\n        /* \"#utility.yul\":19762:19765   */\n      dup3\n        /* \"#utility.yul\":19758:19770   */\n      add\n        /* \"#utility.yul\":19751:19770   */\n      swap1\n      pop\n        /* \"#utility.yul\":19410:19776   */\n      swap2\n      swap1\n      pop\n      jump\t// out\n        /* \"#utility.yul\":19782:20201   */\n    tag_135:\n        /* \"#utility.yul\":19948:19952   */\n      0x00\n        /* \"#utility.yul\":19986:19988   */\n      0x20\n        /* \"#utility.yul\":19975:19984   */\n      dup3\n        /* \"#utility.yul\":19971:19989   */\n      add\n        /* \"#utility.yul\":19963:19989   */\n      swap1\n      pop\n        /* \"#utility.yul\":20035:20044   */\n      dup2\n        /* \"#utility.yul\":20029:20033   */\n      dup2\n        /* \"#utility.yul\":20025:20045   */\n      sub\n        /* \"#utility.yul\":20021:20022   */\n      0x00\n        /* \"#utility.yul\":20010:20019   */\n      dup4\n        /* \"#utility.yul\":20006:20023   */\n      add\n        /* \"#utility.yul\":19999:20046   */\n      mstore\n        /* \"#utility.yul\":20063:20194   */\n      tag_735\n        /* \"#utility.yul\":20189:20193   */\n      dup2\n        /* \"#utility.yul\":20063:20194   */\n      tag_501\n      jump\t// in\n    tag_735:\n        /* \"#utility.yul\":20055:20194   */\n      swap1\n      pop\n        /* \"#utility.yul\":19782:20201   */\n      swap2\n      swap1\n      pop\n      jump\t// out\n        /* \"#utility.yul\":20207:20387   */\n    tag_147:\n        /* \"#utility.yul\":20255:20332   */\n      0x4e487b7100000000000000000000000000000000000000000000000000000000\n        /* \"#utility.yul\":20252:20253   */\n      0x00\n        /* \"#utility.yul\":20245:20333   */\n      mstore\n        /* \"#utility.yul\":20352:20356   */\n      0x32\n        /* \"#utility.yul\":20349:20350   */\n      0x04\n        /* \"#utility.yul\":20342:20357   */\n      mstore\n        /* \"#utility.yul\":20376:20380   */\n      0x24\n        /* \"#utility.yul\":20373:20374   */\n      0x00\n        /* \"#utility.yul\":20366:20381   */\n      revert\n        /* \"#utility.yul\":20393:20573   */\n    tag_502:\n        /* \"#utility.yul\":20441:20518   */\n      0x4e487b7100000000000000000000000000000000000000000000000000000000\n        /* \"#utility.yul\":20438:20439   */\n      0x00\n        /* \"#utility.yul\":20431:20519   */\n      mstore\n        /* \"#utility.yul\":20538:20542   */\n      0x11\n        /* \"#utility.yul\":20535:20536   */\n      0x04\n        /* \"#utility.yul\":20528:20543   */\n      mstore\n        /* \"#utility.yul\":20562:20566   */\n      0x24\n        /* \"#utility.yul\":20559:20560   */\n      0x00\n        /* \"#utility.yul\":20552:20567   */\n      revert\n        /* \"#utility.yul\":20579:20989   */\n    tag_150:\n        /* \"#utility.yul\":20619:20626   */\n      0x00\n        /* \"#utility.yul\":20642:20662   */\n      tag_739\n        /* \"#utility.yul\":20660:20661   */\n      dup3\n        /* \"#utility.yul\":20642:20662   */\n      tag_450\n      jump\t// in\n    tag_739:\n        /* \"#utility.yul\":20637:20662   */\n      swap2\n      pop\n        /* \"#utility.yul\":20676:20696   */\n      tag_740\n        /* \"#utility.yul\":20694:20695   */\n      dup4\n        /* \"#utility.yul\":20676:20696   */\n      tag_450\n      jump\t// in\n    tag_740:\n        /* \"#utility.yul\":20671:20696   */\n      swap3\n      pop\n        /* \"#utility.yul\":20731:20732   */\n      dup3\n        /* \"#utility.yul\":20728:20729   */\n      dup3\n        /* \"#utility.yul\":20724:20733   */\n      mul\n        /* \"#utility.yul\":20753:20783   */\n      tag_741\n        /* \"#utility.yul\":20771:20782   */\n      dup2\n        /* \"#utility.yul\":20753:20783   */\n      tag_450\n      jump\t// in\n    tag_741:\n        /* \"#utility.yul\":20742:20783   */\n      swap2\n      pop\n        /* \"#utility.yul\":20932:20933   */\n      dup3\n        /* \"#utility.yul\":20923:20930   */\n      dup3\n        /* \"#utility.yul\":20919:20934   */\n      div\n        /* \"#utility.yul\":20916:20917   */\n      dup5\n        /* \"#utility.yul\":20913:20935   */\n      eq\n        /* \"#utility.yul\":20893:20894   */\n      dup4\n        /* \"#utility.yul\":20886:20895   */\n      iszero\n        /* \"#utility.yul\":20866:20949   */\n      or\n        /* \"#utility.yul\":20843:20982   */\n      tag_742\n      jumpi\n        /* \"#utility.yul\":20962:20980   */\n      tag_743\n      tag_502\n      jump\t// in\n    tag_743:\n        /* \"#utility.yul\":20843:20982   */\n    tag_742:\n        /* \"#utility.yul\":20627:20989   */\n      pop\n        /* \"#utility.yul\":20579:20989   */\n      swap3\n      swap2\n      pop\n      pop\n      jump\t// out\n        /* \"#utility.yul\":20995:21186   */\n    tag_152:\n        /* \"#utility.yul\":21035:21038   */\n      0x00\n        /* \"#utility.yul\":21054:21074   */\n      tag_745\n        /* \"#utility.yul\":21072:21073   */\n      dup3\n        /* \"#utility.yul\":21054:21074   */\n      tag_450\n      jump\t// in\n    tag_745:\n        /* \"#utility.yul\":21049:21074   */\n      swap2\n      pop\n        /* \"#utility.yul\":21088:21108   */\n      tag_746\n        /* \"#utility.yul\":21106:21107   */\n      dup4\n        /* \"#utility.yul\":21088:21108   */\n      tag_450\n      jump\t// in\n    tag_746:\n        /* \"#utility.yul\":21083:21108   */\n      swap3\n      pop\n        /* \"#utility.yul\":21131:21132   */\n      dup3\n        /* \"#utility.yul\":21128:21129   */\n      dup3\n        /* \"#utility.yul\":21124:21133   */\n      add\n        /* \"#utility.yul\":21117:21133   */\n      swap1\n      pop\n        /* \"#utility.yul\":21152:21155   */\n      dup1\n        /* \"#utility.yul\":21149:21150   */\n      dup3\n        /* \"#utility.yul\":21146:21156   */\n      gt\n        /* \"#utility.yul\":21143:21179   */\n      iszero\n      tag_747\n      jumpi\n        /* \"#utility.yul\":21159:21177   */\n      tag_748\n      tag_502\n      jump\t// in\n    tag_748:\n        /* \"#utility.yul\":21143:21179   */\n    tag_747:\n        /* \"#utility.yul\":20995:21186   */\n      swap3\n      swap2\n      pop\n      pop\n      jump\t// out\n        /* \"#utility.yul\":21192:21372   */\n    tag_503:\n        /* \"#utility.yul\":21240:21317   */\n      0x4e487b7100000000000000000000000000000000000000000000000000000000\n        /* \"#utility.yul\":21237:21238   */\n      0x00\n        /* \"#utility.yul\":21230:21318   */\n      mstore\n        /* \"#utility.yul\":21337:21341   */\n      0x22\n        /* \"#utility.yul\":21334:21335   */\n      0x04\n        /* \"#utility.yul\":21327:21342   */\n      mstore\n        /* \"#utility.yul\":21361:21365   */\n      0x24\n        /* \"#utility.yul\":21358:21359   */\n      0x00\n        /* \"#utility.yul\":21351:21366   */\n      revert\n        /* \"#utility.yul\":21378:21698   */\n    tag_154:\n        /* \"#utility.yul\":21422:21428   */\n      0x00\n        /* \"#utility.yul\":21459:21460   */\n      0x02\n        /* \"#utility.yul\":21453:21457   */\n      dup3\n        /* \"#utility.yul\":21449:21461   */\n      div\n        /* \"#utility.yul\":21439:21461   */\n      swap1\n      pop\n        /* \"#utility.yul\":21506:21507   */\n      0x01\n        /* \"#utility.yul\":21500:21504   */\n      dup3\n        /* \"#utility.yul\":21496:21508   */\n      and\n        /* \"#utility.yul\":21527:21545   */\n      dup1\n        /* \"#utility.yul\":21517:21598   */\n      tag_751\n      jumpi\n        /* \"#utility.yul\":21583:21587   */\n      0x7f\n        /* \"#utility.yul\":21575:21581   */\n      dup3\n        /* \"#utility.yul\":21571:21588   */\n      and\n        /* \"#utility.yul\":21561:21588   */\n      swap2\n      pop\n        /* \"#utility.yul\":21517:21598   */\n    tag_751:\n        /* \"#utility.yul\":21645:21647   */\n      0x20\n        /* \"#utility.yul\":21637:21643   */\n      dup3\n        /* \"#utility.yul\":21634:21648   */\n      lt\n        /* \"#utility.yul\":21614:21632   */\n      dup2\n        /* \"#utility.yul\":21611:21649   */\n      sub\n        /* \"#utility.yul\":21608:21692   */\n      tag_752\n      jumpi\n        /* \"#utility.yul\":21664:21682   */\n      tag_753\n      tag_503\n      jump\t// in\n    tag_753:\n        /* \"#utility.yul\":21608:21692   */\n    tag_752:\n        /* \"#utility.yul\":21429:21698   */\n      pop\n        /* \"#utility.yul\":21378:21698   */\n      swap2\n      swap1\n      pop\n      jump\t// out\n        /* \"#utility.yul\":21704:21939   */\n    tag_504:\n        /* \"#utility.yul\":21844:21878   */\n      0x54686520636f6e7472616374206f776e65722063616e277420706572666f726d\n        /* \"#utility.yul\":21840:21841   */\n      0x00\n        /* \"#utility.yul\":21832:21838   */\n      dup3\n        /* \"#utility.yul\":21828:21842   */\n      add\n        /* \"#utility.yul\":21821:21879   */\n      mstore\n        /* \"#utility.yul\":21913:21931   */\n      0x206675727468657220616374696f6e7300000000000000000000000000000000\n        /* \"#utility.yul\":21908:21910   */\n      0x20\n        /* \"#utility.yul\":21900:21906   */\n      dup3\n        /* \"#utility.yul\":21896:21911   */\n      add\n        /* \"#utility.yul\":21889:21932   */\n      mstore\n        /* \"#utility.yul\":21704:21939   */\n      pop\n      jump\t// out\n        /* \"#utility.yul\":21945:22311   */\n    tag_505:\n        /* \"#utility.yul\":22087:22090   */\n      0x00\n        /* \"#utility.yul\":22108:22175   */\n      tag_756\n        /* \"#utility.yul\":22172:22174   */\n      0x30\n        /* \"#utility.yul\":22167:22170   */\n      dup4\n        /* \"#utility.yul\":22108:22175   */\n      tag_458\n      jump\t// in\n    tag_756:\n        /* \"#utility.yul\":22101:22175   */\n      swap2\n      pop\n        /* \"#utility.yul\":22184:22277   */\n      tag_757\n        /* \"#utility.yul\":22273:22276   */\n      dup3\n        /* \"#utility.yul\":22184:22277   */\n      tag_504\n      jump\t// in\n    tag_757:\n        /* \"#utility.yul\":22302:22304   */\n      0x40\n        /* \"#utility.yul\":22297:22300   */\n      dup3\n        /* \"#utility.yul\":22293:22305   */\n      add\n        /* \"#utility.yul\":22286:22305   */\n      swap1\n      pop\n        /* \"#utility.yul\":21945:22311   */\n      swap2\n      swap1\n      pop\n      jump\t// out\n        /* \"#utility.yul\":22317:22736   */\n    tag_162:\n        /* \"#utility.yul\":22483:22487   */\n      0x00\n        /* \"#utility.yul\":22521:22523   */\n      0x20\n        /* \"#utility.yul\":22510:22519   */\n      dup3\n        /* \"#utility.yul\":22506:22524   */\n      add\n        /* \"#utility.yul\":22498:22524   */\n      swap1\n      pop\n        /* \"#utility.yul\":22570:22579   */\n      dup2\n        /* \"#utility.yul\":22564:22568   */\n      dup2\n        /* \"#utility.yul\":22560:22580   */\n      sub\n        /* \"#utility.yul\":22556:22557   */\n      0x00\n        /* \"#utility.yul\":22545:22554   */\n      dup4\n        /* \"#utility.yul\":22541:22558   */\n      add\n        /* \"#utility.yul\":22534:22581   */\n      mstore\n        /* \"#utility.yul\":22598:22729   */\n      tag_759\n        /* \"#utility.yul\":22724:22728   */\n      dup2\n        /* \"#utility.yul\":22598:22729   */\n      tag_505\n      jump\t// in\n    tag_759:\n        /* \"#utility.yul\":22590:22729   */\n      swap1\n      pop\n        /* \"#utility.yul\":22317:22736   */\n      swap2\n      swap1\n      pop\n      jump\t// out\n        /* \"#utility.yul\":22742:22909   */\n    tag_506:\n        /* \"#utility.yul\":22882:22901   */\n      0x416464726573732069732062616e6e6564000000000000000000000000000000\n        /* \"#utility.yul\":22878:22879   */\n      0x00\n        /* \"#utility.yul\":22870:22876   */\n      dup3\n        /* \"#utility.yul\":22866:22880   */\n      add\n        /* \"#utility.yul\":22859:22902   */\n      mstore\n        /* \"#utility.yul\":22742:22909   */\n      pop\n      jump\t// out\n        /* \"#utility.yul\":22915:23281   */\n    tag_507:\n        /* \"#utility.yul\":23057:23060   */\n      0x00\n        /* \"#utility.yul\":23078:23145   */\n      tag_762\n        /* \"#utility.yul\":23142:23144   */\n      0x11\n        /* \"#utility.yul\":23137:23140   */\n      dup4\n        /* \"#utility.yul\":23078:23145   */\n      tag_458\n      jump\t// in\n    tag_762:\n        /* \"#utility.yul\":23071:23145   */\n      swap2\n      pop\n        /* \"#utility.yul\":23154:23247   */\n      tag_763\n        /* \"#utility.yul\":23243:23246   */\n      dup3\n        /* \"#utility.yul\":23154:23247   */\n      tag_506\n      jump\t// in\n    tag_763:\n        /* \"#utility.yul\":23272:23274   */\n      0x20\n        /* \"#utility.yul\":23267:23270   */\n      dup3\n        /* \"#utility.yul\":23263:23275   */\n      add\n        /* \"#utility.yul\":23256:23275   */\n      swap1\n      pop\n        /* \"#utility.yul\":22915:23281   */\n      swap2\n      swap1\n      pop\n      jump\t// out\n        /* \"#utility.yul\":23287:23706   */\n    tag_166:\n        /* \"#utility.yul\":23453:23457   */\n      0x00\n        /* \"#utility.yul\":23491:23493   */\n      0x20\n        /* \"#utility.yul\":23480:23489   */\n      dup3\n        /* \"#utility.yul\":23476:23494   */\n      add\n        /* \"#utility.yul\":23468:23494   */\n      swap1\n      pop\n        /* \"#utility.yul\":23540:23549   */\n      dup2\n        /* \"#utility.yul\":23534:23538   */\n      dup2\n        /* \"#utility.yul\":23530:23550   */\n      sub\n        /* \"#utility.yul\":23526:23527   */\n      0x00\n        /* \"#utility.yul\":23515:23524   */\n      dup4\n        /* \"#utility.yul\":23511:23528   */\n      add\n        /* \"#utility.yul\":23504:23551   */\n      mstore\n        /* \"#utility.yul\":23568:23699   */\n      tag_765\n        /* \"#utility.yul\":23694:23698   */\n      dup2\n        /* \"#utility.yul\":23568:23699   */\n      tag_507\n      jump\t// in\n    tag_765:\n        /* \"#utility.yul\":23560:23699   */\n      swap1\n      pop\n        /* \"#utility.yul\":23287:23706   */\n      swap2\n      swap1\n      pop\n      jump\t// out\n        /* \"#utility.yul\":23712:23884   */\n    tag_508:\n        /* \"#utility.yul\":23852:23876   */\n      0x43616d706169676e206973206e6f742061637469766500000000000000000000\n        /* \"#utility.yul\":23848:23849   */\n      0x00\n        /* \"#utility.yul\":23840:23846   */\n      dup3\n        /* \"#utility.yul\":23836:23850   */\n      add\n        /* \"#utility.yul\":23829:23877   */\n      mstore\n        /* \"#utility.yul\":23712:23884   */\n      pop\n      jump\t// out\n        /* \"#utility.yul\":23890:24256   */\n    tag_509:\n        /* \"#utility.yul\":24032:24035   */\n      0x00\n        /* \"#utility.yul\":24053:24120   */\n      tag_768\n        /* \"#utility.yul\":24117:24119   */\n      0x16\n        /* \"#utility.yul\":24112:24115   */\n      dup4\n        /* \"#utility.yul\":24053:24120   */\n      tag_458\n      jump\t// in\n    tag_768:\n        /* \"#utility.yul\":24046:24120   */\n      swap2\n      pop\n        /* \"#utility.yul\":24129:24222   */\n      tag_769\n        /* \"#utility.yul\":24218:24221   */\n      dup3\n        /* \"#utility.yul\":24129:24222   */\n      tag_508\n      jump\t// in\n    tag_769:\n        /* \"#utility.yul\":24247:24249   */\n      0x20\n        /* \"#utility.yul\":24242:24245   */\n      dup3\n        /* \"#utility.yul\":24238:24250   */\n      add\n        /* \"#utility.yul\":24231:24250   */\n      swap1\n      pop\n        /* \"#utility.yul\":23890:24256   */\n      swap2\n      swap1\n      pop\n      jump\t// out\n        /* \"#utility.yul\":24262:24681   */\n    tag_170:\n        /* \"#utility.yul\":24428:24432   */\n      0x00\n        /* \"#utility.yul\":24466:24468   */\n      0x20\n        /* \"#utility.yul\":24455:24464   */\n      dup3\n        /* \"#utility.yul\":24451:24469   */\n      add\n        /* \"#utility.yul\":24443:24469   */\n      swap1\n      pop\n        /* \"#utility.yul\":24515:24524   */\n      dup2\n        /* \"#utility.yul\":24509:24513   */\n      dup2\n        /* \"#utility.yul\":24505:24525   */\n      sub\n        /* \"#utility.yul\":24501:24502   */\n      0x00\n        /* \"#utility.yul\":24490:24499   */\n      dup4\n        /* \"#utility.yul\":24486:24503   */\n      add\n        /* \"#utility.yul\":24479:24526   */\n      mstore\n        /* \"#utility.yul\":24543:24674   */\n      tag_771\n        /* \"#utility.yul\":24669:24673   */\n      dup2\n        /* \"#utility.yul\":24543:24674   */\n      tag_509\n      jump\t// in\n    tag_771:\n        /* \"#utility.yul\":24535:24674   */\n      swap1\n      pop\n        /* \"#utility.yul\":24262:24681   */\n      swap2\n      swap1\n      pop\n      jump\t// out\n        /* \"#utility.yul\":24687:24858   */\n    tag_510:\n        /* \"#utility.yul\":24827:24850   */\n      0x43616d706169676e2069732063616e63656c6c65640000000000000000000000\n        /* \"#utility.yul\":24823:24824   */\n      0x00\n        /* \"#utility.yul\":24815:24821   */\n      dup3\n        /* \"#utility.yul\":24811:24825   */\n      add\n        /* \"#utility.yul\":24804:24851   */\n      mstore\n        /* \"#utility.yul\":24687:24858   */\n      pop\n      jump\t// out\n        /* \"#utility.yul\":24864:25230   */\n    tag_511:\n        /* \"#utility.yul\":25006:25009   */\n      0x00\n        /* \"#utility.yul\":25027:25094   */\n      tag_774\n        /* \"#utility.yul\":25091:25093   */\n      0x15\n        /* \"#utility.yul\":25086:25089   */\n      dup4\n        /* \"#utility.yul\":25027:25094   */\n      tag_458\n      jump\t// in\n    tag_774:\n        /* \"#utility.yul\":25020:25094   */\n      swap2\n      pop\n        /* \"#utility.yul\":25103:25196   */\n      tag_775\n        /* \"#utility.yul\":25192:25195   */\n      dup3\n        /* \"#utility.yul\":25103:25196   */\n      tag_510\n      jump\t// in\n    tag_775:\n        /* \"#utility.yul\":25221:25223   */\n      0x20\n        /* \"#utility.yul\":25216:25219   */\n      dup3\n        /* \"#utility.yul\":25212:25224   */\n      add\n        /* \"#utility.yul\":25205:25224   */\n      swap1\n      pop\n        /* \"#utility.yul\":24864:25230   */\n      swap2\n      swap1\n      pop\n      jump\t// out\n        /* \"#utility.yul\":25236:25655   */\n    tag_174:\n        /* \"#utility.yul\":25402:25406   */\n      0x00\n        /* \"#utility.yul\":25440:25442   */\n      0x20\n        /* \"#utility.yul\":25429:25438   */\n      dup3\n        /* \"#utility.yul\":25425:25443   */\n      add\n        /* \"#utility.yul\":25417:25443   */\n      swap1\n      pop\n        /* \"#utility.yul\":25489:25498   */\n      dup2\n        /* \"#utility.yul\":25483:25487   */\n      dup2\n        /* \"#utility.yul\":25479:25499   */\n      sub\n        /* \"#utility.yul\":25475:25476   */\n      0x00\n        /* \"#utility.yul\":25464:25473   */\n      dup4\n        /* \"#utility.yul\":25460:25477   */\n      add\n        /* \"#utility.yul\":25453:25500   */\n      mstore\n        /* \"#utility.yul\":25517:25648   */\n      tag_777\n        /* \"#utility.yul\":25643:25647   */\n      dup2\n        /* \"#utility.yul\":25517:25648   */\n      tag_511\n      jump\t// in\n    tag_777:\n        /* \"#utility.yul\":25509:25648   */\n      swap1\n      pop\n        /* \"#utility.yul\":25236:25655   */\n      swap2\n      swap1\n      pop\n      jump\t// out\n        /* \"#utility.yul\":25661:25840   */\n    tag_512:\n        /* \"#utility.yul\":25801:25832   */\n      0x43616d706169676e20697320616c726561647920636f6d706c65746564000000\n        /* \"#utility.yul\":25797:25798   */\n      0x00\n        /* \"#utility.yul\":25789:25795   */\n      dup3\n        /* \"#utility.yul\":25785:25799   */\n      add\n        /* \"#utility.yul\":25778:25833   */\n      mstore\n        /* \"#utility.yul\":25661:25840   */\n      pop\n      jump\t// out\n        /* \"#utility.yul\":25846:26212   */\n    tag_513:\n        /* \"#utility.yul\":25988:25991   */\n      0x00\n        /* \"#utility.yul\":26009:26076   */\n      tag_780\n        /* \"#utility.yul\":26073:26075   */\n      0x1d\n        /* \"#utility.yul\":26068:26071   */\n      dup4\n        /* \"#utility.yul\":26009:26076   */\n      tag_458\n      jump\t// in\n    tag_780:\n        /* \"#utility.yul\":26002:26076   */\n      swap2\n      pop\n        /* \"#utility.yul\":26085:26178   */\n      tag_781\n        /* \"#utility.yul\":26174:26177   */\n      dup3\n        /* \"#utility.yul\":26085:26178   */\n      tag_512\n      jump\t// in\n    tag_781:\n        /* \"#utility.yul\":26203:26205   */\n      0x20\n        /* \"#utility.yul\":26198:26201   */\n      dup3\n        /* \"#utility.yul\":26194:26206   */\n      add\n        /* \"#utility.yul\":26187:26206   */\n      swap1\n      pop\n        /* \"#utility.yul\":25846:26212   */\n      swap2\n      swap1\n      pop\n      jump\t// out\n        /* \"#utility.yul\":26218:26637   */\n    tag_178:\n        /* \"#utility.yul\":26384:26388   */\n      0x00\n        /* \"#utility.yul\":26422:26424   */\n      0x20\n        /* \"#utility.yul\":26411:26420   */\n      dup3\n        /* \"#utility.yul\":26407:26425   */\n      add\n        /* \"#utility.yul\":26399:26425   */\n      swap1\n      pop\n        /* \"#utility.yul\":26471:26480   */\n      dup2\n        /* \"#utility.yul\":26465:26469   */\n      dup2\n        /* \"#utility.yul\":26461:26481   */\n      sub\n        /* \"#utility.yul\":26457:26458   */\n      0x00\n        /* \"#utility.yul\":26446:26455   */\n      dup4\n        /* \"#utility.yul\":26442:26459   */\n      add\n        /* \"#utility.yul\":26435:26482   */\n      mstore\n        /* \"#utility.yul\":26499:26630   */\n      tag_783\n        /* \"#utility.yul\":26625:26629   */\n      dup2\n        /* \"#utility.yul\":26499:26630   */\n      tag_513\n      jump\t// in\n    tag_783:\n        /* \"#utility.yul\":26491:26630   */\n      swap1\n      pop\n        /* \"#utility.yul\":26218:26637   */\n      swap2\n      swap1\n      pop\n      jump\t// out\n        /* \"#utility.yul\":26643:26820   */\n    tag_514:\n        /* \"#utility.yul\":26783:26812   */\n      0x54686520656e7472657072656e6575722063616e27742066756e640000000000\n        /* \"#utility.yul\":26779:26780   */\n      0x00\n        /* \"#utility.yul\":26771:26777   */\n      dup3\n        /* \"#utility.yul\":26767:26781   */\n      add\n        /* \"#utility.yul\":26760:26813   */\n      mstore\n        /* \"#utility.yul\":26643:26820   */\n      pop\n      jump\t// out\n        /* \"#utility.yul\":26826:27192   */\n    tag_515:\n        /* \"#utility.yul\":26968:26971   */\n      0x00\n        /* \"#utility.yul\":26989:27056   */\n      tag_786\n        /* \"#utility.yul\":27053:27055   */\n      0x1b\n        /* \"#utility.yul\":27048:27051   */\n      dup4\n        /* \"#utility.yul\":26989:27056   */\n      tag_458\n      jump\t// in\n    tag_786:\n        /* \"#utility.yul\":26982:27056   */\n      swap2\n      pop\n        /* \"#utility.yul\":27065:27158   */\n      tag_787\n        /* \"#utility.yul\":27154:27157   */\n      dup3\n        /* \"#utility.yul\":27065:27158   */\n      tag_514\n      jump\t// in\n    tag_787:\n        /* \"#utility.yul\":27183:27185   */\n      0x20\n        /* \"#utility.yul\":27178:27181   */\n      dup3\n        /* \"#utility.yul\":27174:27186   */\n      add\n        /* \"#utility.yul\":27167:27186   */\n      swap1\n      pop\n        /* \"#utility.yul\":26826:27192   */\n      swap2\n      swap1\n      pop\n      jump\t// out\n        /* \"#utility.yul\":27198:27617   */\n    tag_185:\n        /* \"#utility.yul\":27364:27368   */\n      0x00\n        /* \"#utility.yul\":27402:27404   */\n      0x20\n        /* \"#utility.yul\":27391:27400   */\n      dup3\n        /* \"#utility.yul\":27387:27405   */\n      add\n        /* \"#utility.yul\":27379:27405   */\n      swap1\n      pop\n        /* \"#utility.yul\":27451:27460   */\n      dup2\n        /* \"#utility.yul\":27445:27449   */\n      dup2\n        /* \"#utility.yul\":27441:27461   */\n      sub\n        /* \"#utility.yul\":27437:27438   */\n      0x00\n        /* \"#utility.yul\":27426:27435   */\n      dup4\n        /* \"#utility.yul\":27422:27439   */\n      add\n        /* \"#utility.yul\":27415:27462   */\n      mstore\n        /* \"#utility.yul\":27479:27610   */\n      tag_789\n        /* \"#utility.yul\":27605:27609   */\n      dup2\n        /* \"#utility.yul\":27479:27610   */\n      tag_515\n      jump\t// in\n    tag_789:\n        /* \"#utility.yul\":27471:27610   */\n      swap1\n      pop\n        /* \"#utility.yul\":27198:27617   */\n      swap2\n      swap1\n      pop\n      jump\t// out\n        /* \"#utility.yul\":27623:27797   */\n    tag_516:\n        /* \"#utility.yul\":27763:27789   */\n      0x496e636f7272656374205765692076616c75652073656e740000000000000000\n        /* \"#utility.yul\":27759:27760   */\n      0x00\n        /* \"#utility.yul\":27751:27757   */\n      dup3\n        /* \"#utility.yul\":27747:27761   */\n      add\n        /* \"#utility.yul\":27740:27790   */\n      mstore\n        /* \"#utility.yul\":27623:27797   */\n      pop\n      jump\t// out\n        /* \"#utility.yul\":27803:28169   */\n    tag_517:\n        /* \"#utility.yul\":27945:27948   */\n      0x00\n        /* \"#utility.yul\":27966:28033   */\n      tag_792\n        /* \"#utility.yul\":28030:28032   */\n      0x18\n        /* \"#utility.yul\":28025:28028   */\n      dup4\n        /* \"#utility.yul\":27966:28033   */\n      tag_458\n      jump\t// in\n    tag_792:\n        /* \"#utility.yul\":27959:28033   */\n      swap2\n      pop\n        /* \"#utility.yul\":28042:28135   */\n      tag_793\n        /* \"#utility.yul\":28131:28134   */\n      dup3\n        /* \"#utility.yul\":28042:28135   */\n      tag_516\n      jump\t// in\n    tag_793:\n        /* \"#utility.yul\":28160:28162   */\n      0x20\n        /* \"#utility.yul\":28155:28158   */\n      dup3\n        /* \"#utility.yul\":28151:28163   */\n      add\n        /* \"#utility.yul\":28144:28163   */\n      swap1\n      pop\n        /* \"#utility.yul\":27803:28169   */\n      swap2\n      swap1\n      pop\n      jump\t// out\n        /* \"#utility.yul\":28175:28594   */\n    tag_189:\n        /* \"#utility.yul\":28341:28345   */\n      0x00\n        /* \"#utility.yul\":28379:28381   */\n      0x20\n        /* \"#utility.yul\":28368:28377   */\n      dup3\n        /* \"#utility.yul\":28364:28382   */\n      add\n        /* \"#utility.yul\":28356:28382   */\n      swap1\n      pop\n        /* \"#utility.yul\":28428:28437   */\n      dup2\n        /* \"#utility.yul\":28422:28426   */\n      dup2\n        /* \"#utility.yul\":28418:28438   */\n      sub\n        /* \"#utility.yul\":28414:28415   */\n      0x00\n        /* \"#utility.yul\":28403:28412   */\n      dup4\n        /* \"#utility.yul\":28399:28416   */\n      add\n        /* \"#utility.yul\":28392:28439   */\n      mstore\n        /* \"#utility.yul\":28456:28587   */\n      tag_795\n        /* \"#utility.yul\":28582:28586   */\n      dup2\n        /* \"#utility.yul\":28456:28587   */\n      tag_517\n      jump\t// in\n    tag_795:\n        /* \"#utility.yul\":28448:28587   */\n      swap1\n      pop\n        /* \"#utility.yul\":28175:28594   */\n      swap2\n      swap1\n      pop\n      jump\t// out\n        /* \"#utility.yul\":28600:29042   */\n    tag_195:\n        /* \"#utility.yul\":28749:28753   */\n      0x00\n        /* \"#utility.yul\":28787:28789   */\n      0x60\n        /* \"#utility.yul\":28776:28785   */\n      dup3\n        /* \"#utility.yul\":28772:28790   */\n      add\n        /* \"#utility.yul\":28764:28790   */\n      swap1\n      pop\n        /* \"#utility.yul\":28800:28871   */\n      tag_797\n        /* \"#utility.yul\":28868:28869   */\n      0x00\n        /* \"#utility.yul\":28857:28866   */\n      dup4\n        /* \"#utility.yul\":28853:28870   */\n      add\n        /* \"#utility.yul\":28844:28850   */\n      dup7\n        /* \"#utility.yul\":28800:28871   */\n      tag_453\n      jump\t// in\n    tag_797:\n        /* \"#utility.yul\":28881:28953   */\n      tag_798\n        /* \"#utility.yul\":28949:28951   */\n      0x20\n        /* \"#utility.yul\":28938:28947   */\n      dup4\n        /* \"#utility.yul\":28934:28952   */\n      add\n        /* \"#utility.yul\":28925:28931   */\n      dup6\n        /* \"#utility.yul\":28881:28953   */\n      tag_456\n      jump\t// in\n    tag_798:\n        /* \"#utility.yul\":28963:29035   */\n      tag_799\n        /* \"#utility.yul\":29031:29033   */\n      0x40\n        /* \"#utility.yul\":29020:29029   */\n      dup4\n        /* \"#utility.yul\":29016:29034   */\n      add\n        /* \"#utility.yul\":29007:29013   */\n      dup5\n        /* \"#utility.yul\":28963:29035   */\n      tag_453\n      jump\t// in\n    tag_799:\n        /* \"#utility.yul\":28600:29042   */\n      swap5\n      swap4\n      pop\n      pop\n      pop\n      pop\n      jump\t// out\n        /* \"#utility.yul\":29048:29281   */\n    tag_202:\n        /* \"#utility.yul\":29087:29090   */\n      0x00\n        /* \"#utility.yul\":29110:29134   */\n      tag_801\n        /* \"#utility.yul\":29128:29133   */\n      dup3\n        /* \"#utility.yul\":29110:29134   */\n      tag_450\n      jump\t// in\n    tag_801:\n        /* \"#utility.yul\":29101:29134   */\n      swap2\n      pop\n        /* \"#utility.yul\":29156:29222   */\n      0xffffffffffffffffffffffffffffffffffffffffffffffffffffffffffffffff\n        /* \"#utility.yul\":29149:29154   */\n      dup3\n        /* \"#utility.yul\":29146:29223   */\n      sub\n        /* \"#utility.yul\":29143:29246   */\n      tag_802\n      jumpi\n        /* \"#utility.yul\":29226:29244   */\n      tag_803\n      tag_502\n      jump\t// in\n    tag_803:\n        /* \"#utility.yul\":29143:29246   */\n    tag_802:\n        /* \"#utility.yul\":29273:29274   */\n      0x01\n        /* \"#utility.yul\":29266:29271   */\n      dup3\n        /* \"#utility.yul\":29262:29275   */\n      add\n        /* \"#utility.yul\":29255:29275   */\n      swap1\n      pop\n        /* \"#utility.yul\":29048:29281   */\n      swap2\n      swap1\n      pop\n      jump\t// out\n        /* \"#utility.yul\":29287:29459   */\n    tag_518:\n        /* \"#utility.yul\":29427:29451   */\n      0x496e636f72726563742063616d706169676e2066656500000000000000000000\n        /* \"#utility.yul\":29423:29424   */\n      0x00\n        /* \"#utility.yul\":29415:29421   */\n      dup3\n        /* \"#utility.yul\":29411:29425   */\n      add\n        /* \"#utility.yul\":29404:29452   */\n      mstore\n        /* \"#utility.yul\":29287:29459   */\n      pop\n      jump\t// out\n        /* \"#utility.yul\":29465:29831   */\n    tag_519:\n        /* \"#utility.yul\":29607:29610   */\n      0x00\n        /* \"#utility.yul\":29628:29695   */\n      tag_806\n        /* \"#utility.yul\":29692:29694   */\n      0x16\n        /* \"#utility.yul\":29687:29690   */\n      dup4\n        /* \"#utility.yul\":29628:29695   */\n      tag_458\n      jump\t// in\n    tag_806:\n        /* \"#utility.yul\":29621:29695   */\n      swap2\n      pop\n        /* \"#utility.yul\":29704:29797   */\n      tag_807\n        /* \"#utility.yul\":29793:29796   */\n      dup3\n        /* \"#utility.yul\":29704:29797   */\n      tag_518\n      jump\t// in\n    tag_807:\n        /* \"#utility.yul\":29822:29824   */\n      0x20\n        /* \"#utility.yul\":29817:29820   */\n      dup3\n        /* \"#utility.yul\":29813:29825   */\n      add\n        /* \"#utility.yul\":29806:29825   */\n      swap1\n      pop\n        /* \"#utility.yul\":29465:29831   */\n      swap2\n      swap1\n      pop\n      jump\t// out\n        /* \"#utility.yul\":29837:30256   */\n    tag_228:\n        /* \"#utility.yul\":30003:30007   */\n      0x00\n        /* \"#utility.yul\":30041:30043   */\n      0x20\n        /* \"#utility.yul\":30030:30039   */\n      dup3\n        /* \"#utility.yul\":30026:30044   */\n      add\n        /* \"#utility.yul\":30018:30044   */\n      swap1\n      pop\n        /* \"#utility.yul\":30090:30099   */\n      dup2\n        /* \"#utility.yul\":30084:30088   */\n      dup2\n        /* \"#utility.yul\":30080:30100   */\n      sub\n        /* \"#utility.yul\":30076:30077   */\n      0x00\n        /* \"#utility.yul\":30065:30074   */\n      dup4\n        /* \"#utility.yul\":30061:30078   */\n      add\n        /* \"#utility.yul\":30054:30101   */\n      mstore\n        /* \"#utility.yul\":30118:30249   */\n      tag_809\n        /* \"#utility.yul\":30244:30248   */\n      dup2\n        /* \"#utility.yul\":30118:30249   */\n      tag_519\n      jump\t// in\n    tag_809:\n        /* \"#utility.yul\":30110:30249   */\n      swap1\n      pop\n        /* \"#utility.yul\":29837:30256   */\n      swap2\n      swap1\n      pop\n      jump\t// out\n        /* \"#utility.yul\":30262:30487   */\n    tag_520:\n        /* \"#utility.yul\":30402:30436   */\n      0x546f74616c20736861726573206d757374206265206772656174657220746861\n        /* \"#utility.yul\":30398:30399   */\n      0x00\n        /* \"#utility.yul\":30390:30396   */\n      dup3\n        /* \"#utility.yul\":30386:30400   */\n      add\n        /* \"#utility.yul\":30379:30437   */\n      mstore\n        /* \"#utility.yul\":30471:30479   */\n      0x6e207a65726f0000000000000000000000000000000000000000000000000000\n        /* \"#utility.yul\":30466:30468   */\n      0x20\n        /* \"#utility.yul\":30458:30464   */\n      dup3\n        /* \"#utility.yul\":30454:30469   */\n      add\n        /* \"#utility.yul\":30447:30480   */\n      mstore\n        /* \"#utility.yul\":30262:30487   */\n      pop\n      jump\t// out\n        /* \"#utility.yul\":30493:30859   */\n    tag_521:\n        /* \"#utility.yul\":30635:30638   */\n      0x00\n        /* \"#utility.yul\":30656:30723   */\n      tag_812\n        /* \"#utility.yul\":30720:30722   */\n      0x26\n        /* \"#utility.yul\":30715:30718   */\n      dup4\n        /* \"#utility.yul\":30656:30723   */\n      tag_458\n      jump\t// in\n    tag_812:\n        /* \"#utility.yul\":30649:30723   */\n      swap2\n      pop\n        /* \"#utility.yul\":30732:30825   */\n      tag_813\n        /* \"#utility.yul\":30821:30824   */\n      dup3\n        /* \"#utility.yul\":30732:30825   */\n      tag_520\n      jump\t// in\n    tag_813:\n        /* \"#utility.yul\":30850:30852   */\n      0x40\n        /* \"#utility.yul\":30845:30848   */\n      dup3\n        /* \"#utility.yul\":30841:30853   */\n      add\n        /* \"#utility.yul\":30834:30853   */\n      swap1\n      pop\n        /* \"#utility.yul\":30493:30859   */\n      swap2\n      swap1\n      pop\n      jump\t// out\n        /* \"#utility.yul\":30865:31284   */\n    tag_232:\n        /* \"#utility.yul\":31031:31035   */\n      0x00\n        /* \"#utility.yul\":31069:31071   */\n      0x20\n        /* \"#utility.yul\":31058:31067   */\n      dup3\n        /* \"#utility.yul\":31054:31072   */\n      add\n        /* \"#utility.yul\":31046:31072   */\n      swap1\n      pop\n        /* \"#utility.yul\":31118:31127   */\n      dup2\n        /* \"#utility.yul\":31112:31116   */\n      dup2\n        /* \"#utility.yul\":31108:31128   */\n      sub\n        /* \"#utility.yul\":31104:31105   */\n      0x00\n        /* \"#utility.yul\":31093:31102   */\n      dup4\n        /* \"#utility.yul\":31089:31106   */\n      add\n        /* \"#utility.yul\":31082:31129   */\n      mstore\n        /* \"#utility.yul\":31146:31277   */\n      tag_815\n        /* \"#utility.yul\":31272:31276   */\n      dup2\n        /* \"#utility.yul\":31146:31277   */\n      tag_521\n      jump\t// in\n    tag_815:\n        /* \"#utility.yul\":31138:31277   */\n      swap1\n      pop\n        /* \"#utility.yul\":30865:31284   */\n      swap2\n      swap1\n      pop\n      jump\t// out\n        /* \"#utility.yul\":31290:31431   */\n    tag_522:\n        /* \"#utility.yul\":31339:31343   */\n      0x00\n        /* \"#utility.yul\":31362:31365   */\n      dup2\n        /* \"#utility.yul\":31354:31365   */\n      swap1\n      pop\n        /* \"#utility.yul\":31385:31388   */\n      dup2\n        /* \"#utility.yul\":31382:31383   */\n      0x00\n        /* \"#utility.yul\":31375:31389   */\n      mstore\n        /* \"#utility.yul\":31419:31423   */\n      0x20\n        /* \"#utility.yul\":31416:31417   */\n      0x00\n        /* \"#utility.yul\":31406:31424   */\n      keccak256\n        /* \"#utility.yul\":31398:31424   */\n      swap1\n      pop\n        /* \"#utility.yul\":31290:31431   */\n      swap2\n      swap1\n      pop\n      jump\t// out\n        /* \"#utility.yul\":31437:31530   */\n    tag_523:\n        /* \"#utility.yul\":31474:31480   */\n      0x00\n        /* \"#utility.yul\":31521:31523   */\n      0x20\n        /* \"#utility.yul\":31516:31518   */\n      0x1f\n        /* \"#utility.yul\":31509:31514   */\n      dup4\n        /* \"#utility.yul\":31505:31519   */\n      add\n        /* \"#utility.yul\":31501:31524   */\n      div\n        /* \"#utility.yul\":31491:31524   */\n      swap1\n      pop\n        /* \"#utility.yul\":31437:31530   */\n      swap2\n      swap1\n      pop\n      jump\t// out\n        /* \"#utility.yul\":31536:31643   */\n    tag_524:\n        /* \"#utility.yul\":31580:31588   */\n      0x00\n        /* \"#utility.yul\":31630:31635   */\n      dup3\n        /* \"#utility.yul\":31624:31628   */\n      dup3\n        /* \"#utility.yul\":31620:31636   */\n      shl\n        /* \"#utility.yul\":31599:31636   */\n      swap1\n      pop\n        /* \"#utility.yul\":31536:31643   */\n      swap3\n      swap2\n      pop\n      pop\n      jump\t// out\n        /* \"#utility.yul\":31649:32042   */\n    tag_525:\n        /* \"#utility.yul\":31718:31724   */\n      0x00\n        /* \"#utility.yul\":31768:31769   */\n      0x08\n        /* \"#utility.yul\":31756:31766   */\n      dup4\n        /* \"#utility.yul\":31752:31770   */\n      mul\n        /* \"#utility.yul\":31791:31888   */\n      tag_820\n        /* \"#utility.yul\":31821:31887   */\n      0xffffffffffffffffffffffffffffffffffffffffffffffffffffffffffffffff\n        /* \"#utility.yul\":31810:31819   */\n      dup3\n        /* \"#utility.yul\":31791:31888   */\n      tag_524\n      jump\t// in\n    tag_820:\n        /* \"#utility.yul\":31909:31948   */\n      tag_821\n        /* \"#utility.yul\":31939:31947   */\n      dup7\n        /* \"#utility.yul\":31928:31937   */\n      dup4\n        /* \"#utility.yul\":31909:31948   */\n      tag_524\n      jump\t// in\n    tag_821:\n        /* \"#utility.yul\":31897:31948   */\n      swap6\n      pop\n        /* \"#utility.yul\":31981:31985   */\n      dup1\n        /* \"#utility.yul\":31977:31986   */\n      not\n        /* \"#utility.yul\":31970:31975   */\n      dup5\n        /* \"#utility.yul\":31966:31987   */\n      and\n        /* \"#utility.yul\":31957:31987   */\n      swap4\n      pop\n        /* \"#utility.yul\":32030:32034   */\n      dup1\n        /* \"#utility.yul\":32020:32028   */\n      dup7\n        /* \"#utility.yul\":32016:32035   */\n      and\n        /* \"#utility.yul\":32009:32014   */\n      dup5\n        /* \"#utility.yul\":32006:32036   */\n      or\n        /* \"#utility.yul\":31996:32036   */\n      swap3\n      pop\n        /* \"#utility.yul\":31725:32042   */\n      pop\n      pop\n        /* \"#utility.yul\":31649:32042   */\n      swap4\n      swap3\n      pop\n      pop\n      pop\n      jump\t// out\n        /* \"#utility.yul\":32048:32108   */\n    tag_526:\n        /* \"#utility.yul\":32076:32079   */\n      0x00\n        /* \"#utility.yul\":32097:32102   */\n      dup2\n        /* \"#utility.yul\":32090:32102   */\n      swap1\n      pop\n        /* \"#utility.yul\":32048:32108   */\n      swap2\n      swap1\n      pop\n      jump\t// out\n        /* \"#utility.yul\":32114:32256   */\n    tag_527:\n        /* \"#utility.yul\":32164:32173   */\n      0x00\n        /* \"#utility.yul\":32197:32250   */\n      tag_824\n        /* \"#utility.yul\":32215:32249   */\n      tag_825\n        /* \"#utility.yul\":32224:32248   */\n      tag_826\n        /* \"#utility.yul\":32242:32247   */\n      dup5\n        /* \"#utility.yul\":32224:32248   */\n      tag_450\n      jump\t// in\n    tag_826:\n        /* \"#utility.yul\":32215:32249   */\n      tag_526\n      jump\t// in\n    tag_825:\n        /* \"#utility.yul\":32197:32250   */\n      tag_450\n      jump\t// in\n    tag_824:\n        /* \"#utility.yul\":32184:32250   */\n      swap1\n      pop\n        /* \"#utility.yul\":32114:32256   */\n      swap2\n      swap1\n      pop\n      jump\t// out\n        /* \"#utility.yul\":32262:32337   */\n    tag_528:\n        /* \"#utility.yul\":32305:32308   */\n      0x00\n        /* \"#utility.yul\":32326:32331   */\n      dup2\n        /* \"#utility.yul\":32319:32331   */\n      swap1\n      pop\n        /* \"#utility.yul\":32262:32337   */\n      swap2\n      swap1\n      pop\n      jump\t// out\n        /* \"#utility.yul\":32343:32612   */\n    tag_529:\n        /* \"#utility.yul\":32453:32492   */\n      tag_829\n        /* \"#utility.yul\":32484:32491   */\n      dup4\n        /* \"#utility.yul\":32453:32492   */\n      tag_527\n      jump\t// in\n    tag_829:\n        /* \"#utility.yul\":32514:32605   */\n      tag_830\n        /* \"#utility.yul\":32563:32604   */\n      tag_831\n        /* \"#utility.yul\":32587:32603   */\n      dup3\n        /* \"#utility.yul\":32563:32604   */\n      tag_528\n      jump\t// in\n    tag_831:\n        /* \"#utility.yul\":32555:32561   */\n      dup5\n        /* \"#utility.yul\":32548:32552   */\n      dup5\n        /* \"#utility.yul\":32542:32553   */\n      sload\n        /* \"#utility.yul\":32514:32605   */\n      tag_525\n      jump\t// in\n    tag_830:\n        /* \"#utility.yul\":32508:32512   */\n      dup3\n        /* \"#utility.yul\":32501:32606   */\n      sstore\n        /* \"#utility.yul\":32419:32612   */\n      pop\n        /* \"#utility.yul\":32343:32612   */\n      pop\n      pop\n      pop\n      jump\t// out\n        /* \"#utility.yul\":32618:32691   */\n    tag_530:\n        /* \"#utility.yul\":32663:32666   */\n      0x00\n        /* \"#utility.yul\":32618:32691   */\n      swap1\n      jump\t// out\n        /* \"#utility.yul\":32697:32886   */\n    tag_531:\n        /* \"#utility.yul\":32774:32806   */\n      tag_834\n      tag_530\n      jump\t// in\n    tag_834:\n        /* \"#utility.yul\":32815:32880   */\n      tag_835\n        /* \"#utility.yul\":32873:32879   */\n      dup2\n        /* \"#utility.yul\":32865:32871   */\n      dup5\n        /* \"#utility.yul\":32859:32863   */\n      dup5\n        /* \"#utility.yul\":32815:32880   */\n      tag_529\n      jump\t// in\n    tag_835:\n        /* \"#utility.yul\":32750:32886   */\n      pop\n        /* \"#utility.yul\":32697:32886   */\n      pop\n      pop\n      jump\t// out\n        /* \"#utility.yul\":32892:33078   */\n    tag_532:\n        /* \"#utility.yul\":32952:33072   */\n    tag_837:\n        /* \"#utility.yul\":32969:32972   */\n      dup2\n        /* \"#utility.yul\":32962:32967   */\n      dup2\n        /* \"#utility.yul\":32959:32973   */\n      lt\n        /* \"#utility.yul\":32952:33072   */\n      iszero\n      tag_839\n      jumpi\n        /* \"#utility.yul\":33023:33062   */\n      tag_840\n        /* \"#utility.yul\":33060:33061   */\n      0x00\n        /* \"#utility.yul\":33053:33058   */\n      dup3\n        /* \"#utility.yul\":33023:33062   */\n      tag_531\n      jump\t// in\n    tag_840:\n        /* \"#utility.yul\":32996:32997   */\n      0x01\n        /* \"#utility.yul\":32989:32994   */\n      dup2\n        /* \"#utility.yul\":32985:32998   */\n      add\n        /* \"#utility.yul\":32976:32998   */\n      swap1\n      pop\n        /* \"#utility.yul\":32952:33072   */\n      jump(tag_837)\n    tag_839:\n        /* \"#utility.yul\":32892:33078   */\n      pop\n      pop\n      jump\t// out\n        /* \"#utility.yul\":33084:33627   */\n    tag_533:\n        /* \"#utility.yul\":33185:33187   */\n      0x1f\n        /* \"#utility.yul\":33180:33183   */\n      dup3\n        /* \"#utility.yul\":33177:33188   */\n      gt\n        /* \"#utility.yul\":33174:33620   */\n      iszero\n      tag_842\n      jumpi\n        /* \"#utility.yul\":33219:33257   */\n      tag_843\n        /* \"#utility.yul\":33251:33256   */\n      dup2\n        /* \"#utility.yul\":33219:33257   */\n      tag_522\n      jump\t// in\n    tag_843:\n        /* \"#utility.yul\":33303:33332   */\n      tag_844\n        /* \"#utility.yul\":33321:33331   */\n      dup5\n        /* \"#utility.yul\":33303:33332   */\n      tag_523\n      jump\t// in\n    tag_844:\n        /* \"#utility.yul\":33293:33301   */\n      dup2\n        /* \"#utility.yul\":33289:33333   */\n      add\n        /* \"#utility.yul\":33486:33488   */\n      0x20\n        /* \"#utility.yul\":33474:33484   */\n      dup6\n        /* \"#utility.yul\":33471:33489   */\n      lt\n        /* \"#utility.yul\":33468:33517   */\n      iszero\n      tag_845\n      jumpi\n        /* \"#utility.yul\":33507:33515   */\n      dup2\n        /* \"#utility.yul\":33492:33515   */\n      swap1\n      pop\n        /* \"#utility.yul\":33468:33517   */\n    tag_845:\n        /* \"#utility.yul\":33530:33610   */\n      tag_846\n        /* \"#utility.yul\":33586:33608   */\n      tag_847\n        /* \"#utility.yul\":33604:33607   */\n      dup6\n        /* \"#utility.yul\":33586:33608   */\n      tag_523\n      jump\t// in\n    tag_847:\n        /* \"#utility.yul\":33576:33584   */\n      dup4\n        /* \"#utility.yul\":33572:33609   */\n      add\n        /* \"#utility.yul\":33559:33570   */\n      dup3\n        /* \"#utility.yul\":33530:33610   */\n      tag_532\n      jump\t// in\n    tag_846:\n        /* \"#utility.yul\":33189:33620   */\n      pop\n      pop\n        /* \"#utility.yul\":33174:33620   */\n    tag_842:\n        /* \"#utility.yul\":33084:33627   */\n      pop\n      pop\n      pop\n      jump\t// out\n        /* \"#utility.yul\":33633:33750   */\n    tag_534:\n        /* \"#utility.yul\":33687:33695   */\n      0x00\n        /* \"#utility.yul\":33737:33742   */\n      dup3\n        /* \"#utility.yul\":33731:33735   */\n      dup3\n        /* \"#utility.yul\":33727:33743   */\n      shr\n        /* \"#utility.yul\":33706:33743   */\n      swap1\n      pop\n        /* \"#utility.yul\":33633:33750   */\n      swap3\n      swap2\n      pop\n      pop\n      jump\t// out\n        /* \"#utility.yul\":33756:33925   */\n    tag_535:\n        /* \"#utility.yul\":33800:33806   */\n      0x00\n        /* \"#utility.yul\":33833:33884   */\n      tag_850\n        /* \"#utility.yul\":33881:33882   */\n      0x00\n        /* \"#utility.yul\":33877:33883   */\n      not\n        /* \"#utility.yul\":33869:33874   */\n      dup5\n        /* \"#utility.yul\":33866:33867   */\n      0x08\n        /* \"#utility.yul\":33862:33875   */\n      mul\n        /* \"#utility.yul\":33833:33884   */\n      tag_534\n      jump\t// in\n    tag_850:\n        /* \"#utility.yul\":33829:33885   */\n      not\n        /* \"#utility.yul\":33914:33918   */\n      dup1\n        /* \"#utility.yul\":33908:33912   */\n      dup4\n        /* \"#utility.yul\":33904:33919   */\n      and\n        /* \"#utility.yul\":33894:33919   */\n      swap2\n      pop\n        /* \"#utility.yul\":33807:33925   */\n      pop\n        /* \"#utility.yul\":33756:33925   */\n      swap3\n      swap2\n      pop\n      pop\n      jump\t// out\n        /* \"#utility.yul\":33930:34225   */\n    tag_536:\n        /* \"#utility.yul\":34006:34010   */\n      0x00\n        /* \"#utility.yul\":34152:34181   */\n      tag_852\n        /* \"#utility.yul\":34177:34180   */\n      dup4\n        /* \"#utility.yul\":34171:34175   */\n      dup4\n        /* \"#utility.yul\":34152:34181   */\n      tag_535\n      jump\t// in\n    tag_852:\n        /* \"#utility.yul\":34144:34181   */\n      swap2\n      pop\n        /* \"#utility.yul\":34214:34217   */\n      dup3\n        /* \"#utility.yul\":34211:34212   */\n      0x02\n        /* \"#utility.yul\":34207:34218   */\n      mul\n        /* \"#utility.yul\":34201:34205   */\n      dup3\n        /* \"#utility.yul\":34198:34219   */\n      or\n        /* \"#utility.yul\":34190:34219   */\n      swap1\n      pop\n        /* \"#utility.yul\":33930:34225   */\n      swap3\n      swap2\n      pop\n      pop\n      jump\t// out\n        /* \"#utility.yul\":34230:35625   */\n    tag_238:\n        /* \"#utility.yul\":34347:34384   */\n      tag_854\n        /* \"#utility.yul\":34380:34383   */\n      dup3\n        /* \"#utility.yul\":34347:34384   */\n      tag_457\n      jump\t// in\n    tag_854:\n        /* \"#utility.yul\":34449:34467   */\n      0xffffffffffffffff\n        /* \"#utility.yul\":34441:34447   */\n      dup2\n        /* \"#utility.yul\":34438:34468   */\n      gt\n        /* \"#utility.yul\":34435:34491   */\n      iszero\n      tag_855\n      jumpi\n        /* \"#utility.yul\":34471:34489   */\n      tag_856\n      tag_205\n      jump\t// in\n    tag_856:\n        /* \"#utility.yul\":34435:34491   */\n    tag_855:\n        /* \"#utility.yul\":34515:34553   */\n      tag_857\n        /* \"#utility.yul\":34547:34551   */\n      dup3\n        /* \"#utility.yul\":34541:34552   */\n      sload\n        /* \"#utility.yul\":34515:34553   */\n      tag_154\n      jump\t// in\n    tag_857:\n        /* \"#utility.yul\":34600:34667   */\n      tag_858\n        /* \"#utility.yul\":34660:34666   */\n      dup3\n        /* \"#utility.yul\":34652:34658   */\n      dup3\n        /* \"#utility.yul\":34646:34650   */\n      dup6\n        /* \"#utility.yul\":34600:34667   */\n      tag_533\n      jump\t// in\n    tag_858:\n        /* \"#utility.yul\":34694:34695   */\n      0x00\n        /* \"#utility.yul\":34718:34722   */\n      0x20\n        /* \"#utility.yul\":34705:34722   */\n      swap1\n      pop\n        /* \"#utility.yul\":34750:34752   */\n      0x1f\n        /* \"#utility.yul\":34742:34748   */\n      dup4\n        /* \"#utility.yul\":34739:34753   */\n      gt\n        /* \"#utility.yul\":34767:34768   */\n      0x01\n        /* \"#utility.yul\":34762:35380   */\n      dup2\n      eq\n      tag_860\n      jumpi\n        /* \"#utility.yul\":35424:35425   */\n      0x00\n        /* \"#utility.yul\":35441:35447   */\n      dup5\n        /* \"#utility.yul\":35438:35515   */\n      iszero\n      tag_861\n      jumpi\n        /* \"#utility.yul\":35490:35499   */\n      dup3\n        /* \"#utility.yul\":35485:35488   */\n      dup8\n        /* \"#utility.yul\":35481:35500   */\n      add\n        /* \"#utility.yul\":35475:35501   */\n      mload\n        /* \"#utility.yul\":35466:35501   */\n      swap1\n      pop\n        /* \"#utility.yul\":35438:35515   */\n    tag_861:\n        /* \"#utility.yul\":35541:35608   */\n      tag_862\n        /* \"#utility.yul\":35601:35607   */\n      dup6\n        /* \"#utility.yul\":35594:35599   */\n      dup3\n        /* \"#utility.yul\":35541:35608   */\n      tag_536\n      jump\t// in\n    tag_862:\n        /* \"#utility.yul\":35535:35539   */\n      dup7\n        /* \"#utility.yul\":35528:35609   */\n      sstore\n        /* \"#utility.yul\":35397:35619   */\n      pop\n        /* \"#utility.yul\":34732:35619   */\n      jump(tag_859)\n        /* \"#utility.yul\":34762:35380   */\n    tag_860:\n        /* \"#utility.yul\":34814:34818   */\n      0x1f\n        /* \"#utility.yul\":34810:34819   */\n      not\n        /* \"#utility.yul\":34802:34808   */\n      dup5\n        /* \"#utility.yul\":34798:34820   */\n      and\n        /* \"#utility.yul\":34848:34885   */\n      tag_863\n        /* \"#utility.yul\":34880:34884   */\n      dup7\n        /* \"#utility.yul\":34848:34885   */\n      tag_522\n      jump\t// in\n    tag_863:\n        /* \"#utility.yul\":34907:34908   */\n      0x00\n        /* \"#utility.yul\":34921:35129   */\n    tag_864:\n        /* \"#utility.yul\":34935:34942   */\n      dup3\n        /* \"#utility.yul\":34932:34933   */\n      dup2\n        /* \"#utility.yul\":34929:34943   */\n      lt\n        /* \"#utility.yul\":34921:35129   */\n      iszero\n      tag_866\n      jumpi\n        /* \"#utility.yul\":35014:35023   */\n      dup5\n        /* \"#utility.yul\":35009:35012   */\n      dup10\n        /* \"#utility.yul\":35005:35024   */\n      add\n        /* \"#utility.yul\":34999:35025   */\n      mload\n        /* \"#utility.yul\":34991:34997   */\n      dup3\n        /* \"#utility.yul\":34984:35026   */\n      sstore\n        /* \"#utility.yul\":35065:35066   */\n      0x01\n        /* \"#utility.yul\":35057:35063   */\n      dup3\n        /* \"#utility.yul\":35053:35067   */\n      add\n        /* \"#utility.yul\":35043:35067   */\n      swap2\n      pop\n        /* \"#utility.yul\":35112:35114   */\n      0x20\n        /* \"#utility.yul\":35101:35110   */\n      dup6\n        /* \"#utility.yul\":35097:35115   */\n      add\n        /* \"#utility.yul\":35084:35115   */\n      swap5\n      pop\n        /* \"#utility.yul\":34958:34962   */\n      0x20\n        /* \"#utility.yul\":34955:34956   */\n      dup2\n        /* \"#utility.yul\":34951:34963   */\n      add\n        /* \"#utility.yul\":34946:34963   */\n      swap1\n      pop\n        /* \"#utility.yul\":34921:35129   */\n      jump(tag_864)\n    tag_866:\n        /* \"#utility.yul\":35157:35163   */\n      dup7\n        /* \"#utility.yul\":35148:35155   */\n      dup4\n        /* \"#utility.yul\":35145:35164   */\n      lt\n        /* \"#utility.yul\":35142:35321   */\n      iszero\n      tag_867\n      jumpi\n        /* \"#utility.yul\":35215:35224   */\n      dup5\n        /* \"#utility.yul\":35210:35213   */\n      dup10\n        /* \"#utility.yul\":35206:35225   */\n      add\n        /* \"#utility.yul\":35200:35226   */\n      mload\n        /* \"#utility.yul\":35258:35306   */\n      tag_868\n        /* \"#utility.yul\":35300:35304   */\n      0x1f\n        /* \"#utility.yul\":35292:35298   */\n      dup10\n        /* \"#utility.yul\":35288:35305   */\n      and\n        /* \"#utility.yul\":35277:35286   */\n      dup3\n        /* \"#utility.yul\":35258:35306   */\n      tag_535\n      jump\t// in\n    tag_868:\n        /* \"#utility.yul\":35250:35256   */\n      dup4\n        /* \"#utility.yul\":35243:35307   */\n      sstore\n        /* \"#utility.yul\":35165:35321   */\n      pop\n        /* \"#utility.yul\":35142:35321   */\n    tag_867:\n        /* \"#utility.yul\":35367:35368   */\n      0x01\n        /* \"#utility.yul\":35363:35364   */\n      0x02\n        /* \"#utility.yul\":35355:35361   */\n      dup9\n        /* \"#utility.yul\":35351:35365   */\n      mul\n        /* \"#utility.yul\":35347:35369   */\n      add\n        /* \"#utility.yul\":35341:35345   */\n      dup9\n        /* \"#utility.yul\":35334:35370   */\n      sstore\n        /* \"#utility.yul\":34769:35380   */\n      pop\n      pop\n      pop\n        /* \"#utility.yul\":34732:35619   */\n    tag_859:\n      pop\n        /* \"#utility.yul\":34322:35625   */\n      pop\n      pop\n      pop\n        /* \"#utility.yul\":34230:35625   */\n      pop\n      pop\n      jump\t// out\n        /* \"#utility.yul\":35631:36164   */\n    tag_242:\n        /* \"#utility.yul\":35800:35804   */\n      0x00\n        /* \"#utility.yul\":35838:35840   */\n      0x60\n        /* \"#utility.yul\":35827:35836   */\n      dup3\n        /* \"#utility.yul\":35823:35841   */\n      add\n        /* \"#utility.yul\":35815:35841   */\n      swap1\n      pop\n        /* \"#utility.yul\":35851:35922   */\n      tag_870\n        /* \"#utility.yul\":35919:35920   */\n      0x00\n        /* \"#utility.yul\":35908:35917   */\n      dup4\n        /* \"#utility.yul\":35904:35921   */\n      add\n        /* \"#utility.yul\":35895:35901   */\n      dup7\n        /* \"#utility.yul\":35851:35922   */\n      tag_453\n      jump\t// in\n    tag_870:\n        /* \"#utility.yul\":35932:36004   */\n      tag_871\n        /* \"#utility.yul\":36000:36002   */\n      0x20\n        /* \"#utility.yul\":35989:35998   */\n      dup4\n        /* \"#utility.yul\":35985:36003   */\n      add\n        /* \"#utility.yul\":35976:35982   */\n      dup6\n        /* \"#utility.yul\":35932:36004   */\n      tag_456\n      jump\t// in\n    tag_871:\n        /* \"#utility.yul\":36051:36060   */\n      dup2\n        /* \"#utility.yul\":36045:36049   */\n      dup2\n        /* \"#utility.yul\":36041:36061   */\n      sub\n        /* \"#utility.yul\":36036:36038   */\n      0x40\n        /* \"#utility.yul\":36025:36034   */\n      dup4\n        /* \"#utility.yul\":36021:36039   */\n      add\n        /* \"#utility.yul\":36014:36062   */\n      mstore\n        /* \"#utility.yul\":36079:36157   */\n      tag_872\n        /* \"#utility.yul\":36152:36156   */\n      dup2\n        /* \"#utility.yul\":36143:36149   */\n      dup5\n        /* \"#utility.yul\":36079:36157   */\n      tag_461\n      jump\t// in\n    tag_872:\n        /* \"#utility.yul\":36071:36157   */\n      swap1\n      pop\n        /* \"#utility.yul\":35631:36164   */\n      swap5\n      swap4\n      pop\n      pop\n      pop\n      pop\n      jump\t// out\n        /* \"#utility.yul\":36170:36364   */\n    tag_270:\n        /* \"#utility.yul\":36210:36214   */\n      0x00\n        /* \"#utility.yul\":36230:36250   */\n      tag_874\n        /* \"#utility.yul\":36248:36249   */\n      dup3\n        /* \"#utility.yul\":36230:36250   */\n      tag_450\n      jump\t// in\n    tag_874:\n        /* \"#utility.yul\":36225:36250   */\n      swap2\n      pop\n        /* \"#utility.yul\":36264:36284   */\n      tag_875\n        /* \"#utility.yul\":36282:36283   */\n      dup4\n        /* \"#utility.yul\":36264:36284   */\n      tag_450\n      jump\t// in\n    tag_875:\n        /* \"#utility.yul\":36259:36284   */\n      swap3\n      pop\n        /* \"#utility.yul\":36308:36309   */\n      dup3\n        /* \"#utility.yul\":36305:36306   */\n      dup3\n        /* \"#utility.yul\":36301:36310   */\n      sub\n        /* \"#utility.yul\":36293:36310   */\n      swap1\n      pop\n        /* \"#utility.yul\":36332:36333   */\n      dup2\n        /* \"#utility.yul\":36326:36330   */\n      dup2\n        /* \"#utility.yul\":36323:36334   */\n      gt\n        /* \"#utility.yul\":36320:36357   */\n      iszero\n      tag_876\n      jumpi\n        /* \"#utility.yul\":36337:36355   */\n      tag_877\n      tag_502\n      jump\t// in\n    tag_877:\n        /* \"#utility.yul\":36320:36357   */\n    tag_876:\n        /* \"#utility.yul\":36170:36364   */\n      swap3\n      swap2\n      pop\n      pop\n      jump\t// out\n        /* \"#utility.yul\":36370:36612   */\n    tag_537:\n        /* \"#utility.yul\":36510:36544   */\n      0x4f6e6c792074686520656e7472657072656e657572206f72206f776e65722063\n        /* \"#utility.yul\":36506:36507   */\n      0x00\n        /* \"#utility.yul\":36498:36504   */\n      dup3\n        /* \"#utility.yul\":36494:36508   */\n      add\n        /* \"#utility.yul\":36487:36545   */\n      mstore\n        /* \"#utility.yul\":36579:36604   */\n      0x616e2063616e63656c20746869732063616d706169676e000000000000000000\n        /* \"#utility.yul\":36574:36576   */\n      0x20\n        /* \"#utility.yul\":36566:36572   */\n      dup3\n        /* \"#utility.yul\":36562:36577   */\n      add\n        /* \"#utility.yul\":36555:36605   */\n      mstore\n        /* \"#utility.yul\":36370:36612   */\n      pop\n      jump\t// out\n        /* \"#utility.yul\":36618:36984   */\n    tag_538:\n        /* \"#utility.yul\":36760:36763   */\n      0x00\n        /* \"#utility.yul\":36781:36848   */\n      tag_880\n        /* \"#utility.yul\":36845:36847   */\n      0x37\n        /* \"#utility.yul\":36840:36843   */\n      dup4\n        /* \"#utility.yul\":36781:36848   */\n      tag_458\n      jump\t// in\n    tag_880:\n        /* \"#utility.yul\":36774:36848   */\n      swap2\n      pop\n        /* \"#utility.yul\":36857:36950   */\n      tag_881\n        /* \"#utility.yul\":36946:36949   */\n      dup3\n        /* \"#utility.yul\":36857:36950   */\n      tag_537\n      jump\t// in\n    tag_881:\n        /* \"#utility.yul\":36975:36977   */\n      0x40\n        /* \"#utility.yul\":36970:36973   */\n      dup3\n        /* \"#utility.yul\":36966:36978   */\n      add\n        /* \"#utility.yul\":36959:36978   */\n      swap1\n      pop\n        /* \"#utility.yul\":36618:36984   */\n      swap2\n      swap1\n      pop\n      jump\t// out\n        /* \"#utility.yul\":36990:37409   */\n    tag_287:\n        /* \"#utility.yul\":37156:37160   */\n      0x00\n        /* \"#utility.yul\":37194:37196   */\n      0x20\n        /* \"#utility.yul\":37183:37192   */\n      dup3\n        /* \"#utility.yul\":37179:37197   */\n      add\n        /* \"#utility.yul\":37171:37197   */\n      swap1\n      pop\n        /* \"#utility.yul\":37243:37252   */\n      dup2\n        /* \"#utility.yul\":37237:37241   */\n      dup2\n        /* \"#utility.yul\":37233:37253   */\n      sub\n        /* \"#utility.yul\":37229:37230   */\n      0x00\n        /* \"#utility.yul\":37218:37227   */\n      dup4\n        /* \"#utility.yul\":37214:37231   */\n      add\n        /* \"#utility.yul\":37207:37254   */\n      mstore\n        /* \"#utility.yul\":37271:37402   */\n      tag_883\n        /* \"#utility.yul\":37397:37401   */\n      dup2\n        /* \"#utility.yul\":37271:37402   */\n      tag_538\n      jump\t// in\n    tag_883:\n        /* \"#utility.yul\":37263:37402   */\n      swap1\n      pop\n        /* \"#utility.yul\":36990:37409   */\n      swap2\n      swap1\n      pop\n      jump\t// out\n        /* \"#utility.yul\":37439:38270   */\n    tag_539:\n        /* \"#utility.yul\":37524:37527   */\n      0x00\n        /* \"#utility.yul\":37561:37566   */\n      dup2\n        /* \"#utility.yul\":37555:37567   */\n      sload\n        /* \"#utility.yul\":37590:37626   */\n      tag_885\n        /* \"#utility.yul\":37616:37625   */\n      dup2\n        /* \"#utility.yul\":37590:37626   */\n      tag_154\n      jump\t// in\n    tag_885:\n        /* \"#utility.yul\":37642:37713   */\n      tag_886\n        /* \"#utility.yul\":37706:37712   */\n      dup2\n        /* \"#utility.yul\":37701:37704   */\n      dup7\n        /* \"#utility.yul\":37642:37713   */\n      tag_458\n      jump\t// in\n    tag_886:\n        /* \"#utility.yul\":37635:37713   */\n      swap5\n      pop\n        /* \"#utility.yul\":37744:37745   */\n      0x01\n        /* \"#utility.yul\":37733:37742   */\n      dup3\n        /* \"#utility.yul\":37729:37746   */\n      and\n        /* \"#utility.yul\":37760:37761   */\n      0x00\n        /* \"#utility.yul\":37755:37919   */\n      dup2\n      eq\n      tag_888\n      jumpi\n        /* \"#utility.yul\":37933:37934   */\n      0x01\n        /* \"#utility.yul\":37928:38264   */\n      dup2\n      eq\n      tag_889\n      jumpi\n        /* \"#utility.yul\":37722:38264   */\n      jump(tag_887)\n        /* \"#utility.yul\":37755:37919   */\n    tag_888:\n        /* \"#utility.yul\":37839:37843   */\n      0xff\n        /* \"#utility.yul\":37835:37844   */\n      not\n        /* \"#utility.yul\":37824:37833   */\n      dup4\n        /* \"#utility.yul\":37820:37845   */\n      and\n        /* \"#utility.yul\":37815:37818   */\n      dup7\n        /* \"#utility.yul\":37808:37846   */\n      mstore\n        /* \"#utility.yul\":37899:37905   */\n      dup2\n        /* \"#utility.yul\":37892:37906   */\n      iszero\n        /* \"#utility.yul\":37885:37907   */\n      iszero\n        /* \"#utility.yul\":37879:37883   */\n      0x20\n        /* \"#utility.yul\":37875:37908   */\n      mul\n        /* \"#utility.yul\":37870:37873   */\n      dup7\n        /* \"#utility.yul\":37866:37909   */\n      add\n        /* \"#utility.yul\":37859:37909   */\n      swap4\n      pop\n        /* \"#utility.yul\":37755:37919   */\n      jump(tag_887)\n        /* \"#utility.yul\":37928:38264   */\n    tag_889:\n        /* \"#utility.yul\":37995:38033   */\n      tag_890\n        /* \"#utility.yul\":38027:38032   */\n      dup6\n        /* \"#utility.yul\":37995:38033   */\n      tag_522\n      jump\t// in\n    tag_890:\n        /* \"#utility.yul\":38055:38056   */\n      0x00\n        /* \"#utility.yul\":38069:38223   */\n    tag_891:\n        /* \"#utility.yul\":38083:38089   */\n      dup4\n        /* \"#utility.yul\":38080:38081   */\n      dup2\n        /* \"#utility.yul\":38077:38090   */\n      lt\n        /* \"#utility.yul\":38069:38223   */\n      iszero\n      tag_893\n      jumpi\n        /* \"#utility.yul\":38157:38164   */\n      dup2\n        /* \"#utility.yul\":38151:38165   */\n      sload\n        /* \"#utility.yul\":38147:38148   */\n      dup2\n        /* \"#utility.yul\":38142:38145   */\n      dup10\n        /* \"#utility.yul\":38138:38149   */\n      add\n        /* \"#utility.yul\":38131:38166   */\n      mstore\n        /* \"#utility.yul\":38207:38208   */\n      0x01\n        /* \"#utility.yul\":38198:38205   */\n      dup3\n        /* \"#utility.yul\":38194:38209   */\n      add\n        /* \"#utility.yul\":38183:38209   */\n      swap2\n      pop\n        /* \"#utility.yul\":38105:38109   */\n      0x20\n        /* \"#utility.yul\":38102:38103   */\n      dup2\n        /* \"#utility.yul\":38098:38110   */\n      add\n        /* \"#utility.yul\":38093:38110   */\n      swap1\n      pop\n        /* \"#utility.yul\":38069:38223   */\n      jump(tag_891)\n    tag_893:\n        /* \"#utility.yul\":38252:38253   */\n      dup1\n        /* \"#utility.yul\":38247:38250   */\n      dup9\n        /* \"#utility.yul\":38243:38254   */\n      add\n        /* \"#utility.yul\":38236:38254   */\n      swap6\n      pop\n        /* \"#utility.yul\":37935:38264   */\n      pop\n      pop\n        /* \"#utility.yul\":37722:38264   */\n    tag_887:\n      pop\n        /* \"#utility.yul\":37528:38270   */\n      pop\n      pop\n        /* \"#utility.yul\":37439:38270   */\n      swap3\n      swap2\n      pop\n      pop\n      jump\t// out\n        /* \"#utility.yul\":38276:38803   */\n    tag_297:\n        /* \"#utility.yul\":38442:38446   */\n      0x00\n        /* \"#utility.yul\":38480:38482   */\n      0x60\n        /* \"#utility.yul\":38469:38478   */\n      dup3\n        /* \"#utility.yul\":38465:38483   */\n      add\n        /* \"#utility.yul\":38457:38483   */\n      swap1\n      pop\n        /* \"#utility.yul\":38493:38564   */\n      tag_895\n        /* \"#utility.yul\":38561:38562   */\n      0x00\n        /* \"#utility.yul\":38550:38559   */\n      dup4\n        /* \"#utility.yul\":38546:38563   */\n      add\n        /* \"#utility.yul\":38537:38543   */\n      dup7\n        /* \"#utility.yul\":38493:38564   */\n      tag_453\n      jump\t// in\n    tag_895:\n        /* \"#utility.yul\":38574:38646   */\n      tag_896\n        /* \"#utility.yul\":38642:38644   */\n      0x20\n        /* \"#utility.yul\":38631:38640   */\n      dup4\n        /* \"#utility.yul\":38627:38645   */\n      add\n        /* \"#utility.yul\":38618:38624   */\n      dup6\n        /* \"#utility.yul\":38574:38646   */\n      tag_456\n      jump\t// in\n    tag_896:\n        /* \"#utility.yul\":38693:38702   */\n      dup2\n        /* \"#utility.yul\":38687:38691   */\n      dup2\n        /* \"#utility.yul\":38683:38703   */\n      sub\n        /* \"#utility.yul\":38678:38680   */\n      0x40\n        /* \"#utility.yul\":38667:38676   */\n      dup4\n        /* \"#utility.yul\":38663:38681   */\n      add\n        /* \"#utility.yul\":38656:38704   */\n      mstore\n        /* \"#utility.yul\":38721:38796   */\n      tag_897\n        /* \"#utility.yul\":38791:38795   */\n      dup2\n        /* \"#utility.yul\":38782:38788   */\n      dup5\n        /* \"#utility.yul\":38721:38796   */\n      tag_539\n      jump\t// in\n    tag_897:\n        /* \"#utility.yul\":38713:38796   */\n      swap1\n      pop\n        /* \"#utility.yul\":38276:38803   */\n      swap5\n      swap4\n      pop\n      pop\n      pop\n      pop\n      jump\t// out\n        /* \"#utility.yul\":38809:39141   */\n    tag_309:\n        /* \"#utility.yul\":38930:38934   */\n      0x00\n        /* \"#utility.yul\":38968:38970   */\n      0x40\n        /* \"#utility.yul\":38957:38966   */\n      dup3\n        /* \"#utility.yul\":38953:38971   */\n      add\n        /* \"#utility.yul\":38945:38971   */\n      swap1\n      pop\n        /* \"#utility.yul\":38981:39052   */\n      tag_899\n        /* \"#utility.yul\":39049:39050   */\n      0x00\n        /* \"#utility.yul\":39038:39047   */\n      dup4\n        /* \"#utility.yul\":39034:39051   */\n      add\n        /* \"#utility.yul\":39025:39031   */\n      dup6\n        /* \"#utility.yul\":38981:39052   */\n      tag_456\n      jump\t// in\n    tag_899:\n        /* \"#utility.yul\":39062:39134   */\n      tag_900\n        /* \"#utility.yul\":39130:39132   */\n      0x20\n        /* \"#utility.yul\":39119:39128   */\n      dup4\n        /* \"#utility.yul\":39115:39133   */\n      add\n        /* \"#utility.yul\":39106:39112   */\n      dup5\n        /* \"#utility.yul\":39062:39134   */\n      tag_453\n      jump\t// in\n    tag_900:\n        /* \"#utility.yul\":38809:39141   */\n      swap4\n      swap3\n      pop\n      pop\n      pop\n      jump\t// out\n        /* \"#utility.yul\":39147:39391   */\n    tag_540:\n        /* \"#utility.yul\":39287:39321   */\n      0x4f6e6c792074686520656e7472657072656e657572206f72206f776e65722063\n        /* \"#utility.yul\":39283:39284   */\n      0x00\n        /* \"#utility.yul\":39275:39281   */\n      dup3\n        /* \"#utility.yul\":39271:39285   */\n      add\n        /* \"#utility.yul\":39264:39322   */\n      mstore\n        /* \"#utility.yul\":39356:39383   */\n      0x616e20636f6d706c65746520746869732063616d706169676e00000000000000\n        /* \"#utility.yul\":39351:39353   */\n      0x20\n        /* \"#utility.yul\":39343:39349   */\n      dup3\n        /* \"#utility.yul\":39339:39354   */\n      add\n        /* \"#utility.yul\":39332:39384   */\n      mstore\n        /* \"#utility.yul\":39147:39391   */\n      pop\n      jump\t// out\n        /* \"#utility.yul\":39397:39763   */\n    tag_541:\n        /* \"#utility.yul\":39539:39542   */\n      0x00\n        /* \"#utility.yul\":39560:39627   */\n      tag_903\n        /* \"#utility.yul\":39624:39626   */\n      0x39\n        /* \"#utility.yul\":39619:39622   */\n      dup4\n        /* \"#utility.yul\":39560:39627   */\n      tag_458\n      jump\t// in\n    tag_903:\n        /* \"#utility.yul\":39553:39627   */\n      swap2\n      pop\n        /* \"#utility.yul\":39636:39729   */\n      tag_904\n        /* \"#utility.yul\":39725:39728   */\n      dup3\n        /* \"#utility.yul\":39636:39729   */\n      tag_540\n      jump\t// in\n    tag_904:\n        /* \"#utility.yul\":39754:39756   */\n      0x40\n        /* \"#utility.yul\":39749:39752   */\n      dup3\n        /* \"#utility.yul\":39745:39757   */\n      add\n        /* \"#utility.yul\":39738:39757   */\n      swap1\n      pop\n        /* \"#utility.yul\":39397:39763   */\n      swap2\n      swap1\n      pop\n      jump\t// out\n        /* \"#utility.yul\":39769:40188   */\n    tag_332:\n        /* \"#utility.yul\":39935:39939   */\n      0x00\n        /* \"#utility.yul\":39973:39975   */\n      0x20\n        /* \"#utility.yul\":39962:39971   */\n      dup3\n        /* \"#utility.yul\":39958:39976   */\n      add\n        /* \"#utility.yul\":39950:39976   */\n      swap1\n      pop\n        /* \"#utility.yul\":40022:40031   */\n      dup2\n        /* \"#utility.yul\":40016:40020   */\n      dup2\n        /* \"#utility.yul\":40012:40032   */\n      sub\n        /* \"#utility.yul\":40008:40009   */\n      0x00\n        /* \"#utility.yul\":39997:40006   */\n      dup4\n        /* \"#utility.yul\":39993:40010   */\n      add\n        /* \"#utility.yul\":39986:40033   */\n      mstore\n        /* \"#utility.yul\":40050:40181   */\n      tag_906\n        /* \"#utility.yul\":40176:40180   */\n      dup2\n        /* \"#utility.yul\":40050:40181   */\n      tag_541\n      jump\t// in\n    tag_906:\n        /* \"#utility.yul\":40042:40181   */\n      swap1\n      pop\n        /* \"#utility.yul\":39769:40188   */\n      swap2\n      swap1\n      pop\n      jump\t// out\n        /* \"#utility.yul\":40194:40417   */\n    tag_542:\n        /* \"#utility.yul\":40334:40368   */\n      0x43616d706169676e20646f6573206e6f74206861766520656e6f756768207368\n        /* \"#utility.yul\":40330:40331   */\n      0x00\n        /* \"#utility.yul\":40322:40328   */\n      dup3\n        /* \"#utility.yul\":40318:40332   */\n      add\n        /* \"#utility.yul\":40311:40369   */\n      mstore\n        /* \"#utility.yul\":40403:40409   */\n      0x6172657300000000000000000000000000000000000000000000000000000000\n        /* \"#utility.yul\":40398:40400   */\n      0x20\n        /* \"#utility.yul\":40390:40396   */\n      dup3\n        /* \"#utility.yul\":40386:40401   */\n      add\n        /* \"#utility.yul\":40379:40410   */\n      mstore\n        /* \"#utility.yul\":40194:40417   */\n      pop\n      jump\t// out\n        /* \"#utility.yul\":40423:40789   */\n    tag_543:\n        /* \"#utility.yul\":40565:40568   */\n      0x00\n        /* \"#utility.yul\":40586:40653   */\n      tag_909\n        /* \"#utility.yul\":40650:40652   */\n      0x24\n        /* \"#utility.yul\":40645:40648   */\n      dup4\n        /* \"#utility.yul\":40586:40653   */\n      tag_458\n      jump\t// in\n    tag_909:\n        /* \"#utility.yul\":40579:40653   */\n      swap2\n      pop\n        /* \"#utility.yul\":40662:40755   */\n      tag_910\n        /* \"#utility.yul\":40751:40754   */\n      dup3\n        /* \"#utility.yul\":40662:40755   */\n      tag_542\n      jump\t// in\n    tag_910:\n        /* \"#utility.yul\":40780:40782   */\n      0x40\n        /* \"#utility.yul\":40775:40778   */\n      dup3\n        /* \"#utility.yul\":40771:40783   */\n      add\n        /* \"#utility.yul\":40764:40783   */\n      swap1\n      pop\n        /* \"#utility.yul\":40423:40789   */\n      swap2\n      swap1\n      pop\n      jump\t// out\n        /* \"#utility.yul\":40795:41214   */\n    tag_335:\n        /* \"#utility.yul\":40961:40965   */\n      0x00\n        /* \"#utility.yul\":40999:41001   */\n      0x20\n        /* \"#utility.yul\":40988:40997   */\n      dup3\n        /* \"#utility.yul\":40984:41002   */\n      add\n        /* \"#utility.yul\":40976:41002   */\n      swap1\n      pop\n        /* \"#utility.yul\":41048:41057   */\n      dup2\n        /* \"#utility.yul\":41042:41046   */\n      dup2\n        /* \"#utility.yul\":41038:41058   */\n      sub\n        /* \"#utility.yul\":41034:41035   */\n      0x00\n        /* \"#utility.yul\":41023:41032   */\n      dup4\n        /* \"#utility.yul\":41019:41036   */\n      add\n        /* \"#utility.yul\":41012:41059   */\n      mstore\n        /* \"#utility.yul\":41076:41207   */\n      tag_912\n        /* \"#utility.yul\":41202:41206   */\n      dup2\n        /* \"#utility.yul\":41076:41207   */\n      tag_543\n      jump\t// in\n    tag_912:\n        /* \"#utility.yul\":41068:41207   */\n      swap1\n      pop\n        /* \"#utility.yul\":40795:41214   */\n      swap2\n      swap1\n      pop\n      jump\t// out\n        /* \"#utility.yul\":41220:41400   */\n    tag_544:\n        /* \"#utility.yul\":41268:41345   */\n      0x4e487b7100000000000000000000000000000000000000000000000000000000\n        /* \"#utility.yul\":41265:41266   */\n      0x00\n        /* \"#utility.yul\":41258:41346   */\n      mstore\n        /* \"#utility.yul\":41365:41369   */\n      0x12\n        /* \"#utility.yul\":41362:41363   */\n      0x04\n        /* \"#utility.yul\":41355:41370   */\n      mstore\n        /* \"#utility.yul\":41389:41393   */\n      0x24\n        /* \"#utility.yul\":41386:41387   */\n      0x00\n        /* \"#utility.yul\":41379:41394   */\n      revert\n        /* \"#utility.yul\":41406:41591   */\n    tag_339:\n        /* \"#utility.yul\":41446:41447   */\n      0x00\n        /* \"#utility.yul\":41463:41483   */\n      tag_915\n        /* \"#utility.yul\":41481:41482   */\n      dup3\n        /* \"#utility.yul\":41463:41483   */\n      tag_450\n      jump\t// in\n    tag_915:\n        /* \"#utility.yul\":41458:41483   */\n      swap2\n      pop\n        /* \"#utility.yul\":41497:41517   */\n      tag_916\n        /* \"#utility.yul\":41515:41516   */\n      dup4\n        /* \"#utility.yul\":41497:41517   */\n      tag_450\n      jump\t// in\n    tag_916:\n        /* \"#utility.yul\":41492:41517   */\n      swap3\n      pop\n        /* \"#utility.yul\":41536:41537   */\n      dup3\n        /* \"#utility.yul\":41526:41561   */\n      tag_917\n      jumpi\n        /* \"#utility.yul\":41541:41559   */\n      tag_918\n      tag_544\n      jump\t// in\n    tag_918:\n        /* \"#utility.yul\":41526:41561   */\n    tag_917:\n        /* \"#utility.yul\":41583:41584   */\n      dup3\n        /* \"#utility.yul\":41580:41581   */\n      dup3\n        /* \"#utility.yul\":41576:41585   */\n      div\n        /* \"#utility.yul\":41571:41585   */\n      swap1\n      pop\n        /* \"#utility.yul\":41406:41591   */\n      swap3\n      swap2\n      pop\n      pop\n      jump\t// out\n        /* \"#utility.yul\":41597:41820   */\n    tag_545:\n        /* \"#utility.yul\":41737:41771   */\n      0x4e6577206f776e65722063616e6e6f7420626520746865207a65726f20616464\n        /* \"#utility.yul\":41733:41734   */\n      0x00\n        /* \"#utility.yul\":41725:41731   */\n      dup3\n        /* \"#utility.yul\":41721:41735   */\n      add\n        /* \"#utility.yul\":41714:41772   */\n      mstore\n        /* \"#utility.yul\":41806:41812   */\n      0x7265737300000000000000000000000000000000000000000000000000000000\n        /* \"#utility.yul\":41801:41803   */\n      0x20\n        /* \"#utility.yul\":41793:41799   */\n      dup3\n        /* \"#utility.yul\":41789:41804   */\n      add\n        /* \"#utility.yul\":41782:41813   */\n      mstore\n        /* \"#utility.yul\":41597:41820   */\n      pop\n      jump\t// out\n        /* \"#utility.yul\":41826:42192   */\n    tag_546:\n        /* \"#utility.yul\":41968:41971   */\n      0x00\n        /* \"#utility.yul\":41989:42056   */\n      tag_921\n        /* \"#utility.yul\":42053:42055   */\n      0x24\n        /* \"#utility.yul\":42048:42051   */\n      dup4\n        /* \"#utility.yul\":41989:42056   */\n      tag_458\n      jump\t// in\n    tag_921:\n        /* \"#utility.yul\":41982:42056   */\n      swap2\n      pop\n        /* \"#utility.yul\":42065:42158   */\n      tag_922\n        /* \"#utility.yul\":42154:42157   */\n      dup3\n        /* \"#utility.yul\":42065:42158   */\n      tag_545\n      jump\t// in\n    tag_922:\n        /* \"#utility.yul\":42183:42185   */\n      0x40\n        /* \"#utility.yul\":42178:42181   */\n      dup3\n        /* \"#utility.yul\":42174:42186   */\n      add\n        /* \"#utility.yul\":42167:42186   */\n      swap1\n      pop\n        /* \"#utility.yul\":41826:42192   */\n      swap2\n      swap1\n      pop\n      jump\t// out\n        /* \"#utility.yul\":42198:42617   */\n    tag_354:\n        /* \"#utility.yul\":42364:42368   */\n      0x00\n        /* \"#utility.yul\":42402:42404   */\n      0x20\n        /* \"#utility.yul\":42391:42400   */\n      dup3\n        /* \"#utility.yul\":42387:42405   */\n      add\n        /* \"#utility.yul\":42379:42405   */\n      swap1\n      pop\n        /* \"#utility.yul\":42451:42460   */\n      dup2\n        /* \"#utility.yul\":42445:42449   */\n      dup2\n        /* \"#utility.yul\":42441:42461   */\n      sub\n        /* \"#utility.yul\":42437:42438   */\n      0x00\n        /* \"#utility.yul\":42426:42435   */\n      dup4\n        /* \"#utility.yul\":42422:42439   */\n      add\n        /* \"#utility.yul\":42415:42462   */\n      mstore\n        /* \"#utility.yul\":42479:42610   */\n      tag_924\n        /* \"#utility.yul\":42605:42609   */\n      dup2\n        /* \"#utility.yul\":42479:42610   */\n      tag_546\n      jump\t// in\n    tag_924:\n        /* \"#utility.yul\":42471:42610   */\n      swap1\n      pop\n        /* \"#utility.yul\":42198:42617   */\n      swap2\n      swap1\n      pop\n      jump\t// out\n        /* \"#utility.yul\":42623:42792   */\n    tag_547:\n        /* \"#utility.yul\":42763:42784   */\n      0x496e76616c69642063616d706169676e20494400000000000000000000000000\n        /* \"#utility.yul\":42759:42760   */\n      0x00\n        /* \"#utility.yul\":42751:42757   */\n      dup3\n        /* \"#utility.yul\":42747:42761   */\n      add\n        /* \"#utility.yul\":42740:42785   */\n      mstore\n        /* \"#utility.yul\":42623:42792   */\n      pop\n      jump\t// out\n        /* \"#utility.yul\":42798:43164   */\n    tag_548:\n        /* \"#utility.yul\":42940:42943   */\n      0x00\n        /* \"#utility.yul\":42961:43028   */\n      tag_927\n        /* \"#utility.yul\":43025:43027   */\n      0x13\n        /* \"#utility.yul\":43020:43023   */\n      dup4\n        /* \"#utility.yul\":42961:43028   */\n      tag_458\n      jump\t// in\n    tag_927:\n        /* \"#utility.yul\":42954:43028   */\n      swap2\n      pop\n        /* \"#utility.yul\":43037:43130   */\n      tag_928\n        /* \"#utility.yul\":43126:43129   */\n      dup3\n        /* \"#utility.yul\":43037:43130   */\n      tag_547\n      jump\t// in\n    tag_928:\n        /* \"#utility.yul\":43155:43157   */\n      0x20\n        /* \"#utility.yul\":43150:43153   */\n      dup3\n        /* \"#utility.yul\":43146:43158   */\n      add\n        /* \"#utility.yul\":43139:43158   */\n      swap1\n      pop\n        /* \"#utility.yul\":42798:43164   */\n      swap2\n      swap1\n      pop\n      jump\t// out\n        /* \"#utility.yul\":43170:43589   */\n    tag_362:\n        /* \"#utility.yul\":43336:43340   */\n      0x00\n        /* \"#utility.yul\":43374:43376   */\n      0x20\n        /* \"#utility.yul\":43363:43372   */\n      dup3\n        /* \"#utility.yul\":43359:43377   */\n      add\n        /* \"#utility.yul\":43351:43377   */\n      swap1\n      pop\n        /* \"#utility.yul\":43423:43432   */\n      dup2\n        /* \"#utility.yul\":43417:43421   */\n      dup2\n        /* \"#utility.yul\":43413:43433   */\n      sub\n        /* \"#utility.yul\":43409:43410   */\n      0x00\n        /* \"#utility.yul\":43398:43407   */\n      dup4\n        /* \"#utility.yul\":43394:43411   */\n      add\n        /* \"#utility.yul\":43387:43434   */\n      mstore\n        /* \"#utility.yul\":43451:43582   */\n      tag_930\n        /* \"#utility.yul\":43577:43581   */\n      dup2\n        /* \"#utility.yul\":43451:43582   */\n      tag_548\n      jump\t// in\n    tag_930:\n        /* \"#utility.yul\":43443:43582   */\n      swap1\n      pop\n        /* \"#utility.yul\":43170:43589   */\n      swap2\n      swap1\n      pop\n      jump\t// out\n        /* \"#utility.yul\":43595:43819   */\n    tag_549:\n        /* \"#utility.yul\":43735:43769   */\n      0x4e6f20726566756e6420617661696c61626c6520666f72207468697320696e76\n        /* \"#utility.yul\":43731:43732   */\n      0x00\n        /* \"#utility.yul\":43723:43729   */\n      dup3\n        /* \"#utility.yul\":43719:43733   */\n      add\n        /* \"#utility.yul\":43712:43770   */\n      mstore\n        /* \"#utility.yul\":43804:43811   */\n      0x6573746f72000000000000000000000000000000000000000000000000000000\n        /* \"#utility.yul\":43799:43801   */\n      0x20\n        /* \"#utility.yul\":43791:43797   */\n      dup3\n        /* \"#utility.yul\":43787:43802   */\n      add\n        /* \"#utility.yul\":43780:43812   */\n      mstore\n        /* \"#utility.yul\":43595:43819   */\n      pop\n      jump\t// out\n        /* \"#utility.yul\":43825:44191   */\n    tag_550:\n        /* \"#utility.yul\":43967:43970   */\n      0x00\n        /* \"#utility.yul\":43988:44055   */\n      tag_933\n        /* \"#utility.yul\":44052:44054   */\n      0x25\n        /* \"#utility.yul\":44047:44050   */\n      dup4\n        /* \"#utility.yul\":43988:44055   */\n      tag_458\n      jump\t// in\n    tag_933:\n        /* \"#utility.yul\":43981:44055   */\n      swap2\n      pop\n        /* \"#utility.yul\":44064:44157   */\n      tag_934\n        /* \"#utility.yul\":44153:44156   */\n      dup3\n        /* \"#utility.yul\":44064:44157   */\n      tag_549\n      jump\t// in\n    tag_934:\n        /* \"#utility.yul\":44182:44184   */\n      0x40\n        /* \"#utility.yul\":44177:44180   */\n      dup3\n        /* \"#utility.yul\":44173:44185   */\n      add\n        /* \"#utility.yul\":44166:44185   */\n      swap1\n      pop\n        /* \"#utility.yul\":43825:44191   */\n      swap2\n      swap1\n      pop\n      jump\t// out\n        /* \"#utility.yul\":44197:44616   */\n    tag_443:\n        /* \"#utility.yul\":44363:44367   */\n      0x00\n        /* \"#utility.yul\":44401:44403   */\n      0x20\n        /* \"#utility.yul\":44390:44399   */\n      dup3\n        /* \"#utility.yul\":44386:44404   */\n      add\n        /* \"#utility.yul\":44378:44404   */\n      swap1\n      pop\n        /* \"#utility.yul\":44450:44459   */\n      dup2\n        /* \"#utility.yul\":44444:44448   */\n      dup2\n        /* \"#utility.yul\":44440:44460   */\n      sub\n        /* \"#utility.yul\":44436:44437   */\n      0x00\n        /* \"#utility.yul\":44425:44434   */\n      dup4\n        /* \"#utility.yul\":44421:44438   */\n      add\n        /* \"#utility.yul\":44414:44461   */\n      mstore\n        /* \"#utility.yul\":44478:44609   */\n      tag_936\n        /* \"#utility.yul\":44604:44608   */\n      dup2\n        /* \"#utility.yul\":44478:44609   */\n      tag_550\n      jump\t// in\n    tag_936:\n        /* \"#utility.yul\":44470:44609   */\n      swap1\n      pop\n        /* \"#utility.yul\":44197:44616   */\n      swap2\n      swap1\n      pop\n      jump\t// out\n\n    auxdata: 0xa264697066735822122047d21f16301553438307ea9f0ddd585c68a54cda0a7a4e963f0c84eb976676c264736f6c634300081a0033\n}\n",
				"bytecode": {
					"linkReferences": {},
					"object": "608060405234801561001057600080fd5b50604051614791380380614791833981810160405281019061003291906100dd565b336000806101000a81548173ffffffffffffffffffffffffffffffffffffffff021916908373ffffffffffffffffffffffffffffffffffffffff160217905550806001819055506001600960006101000a81548160ff02191690831515021790555060006002819055505061010a565b600080fd5b6000819050919050565b6100ba816100a7565b81146100c557600080fd5b50565b6000815190506100d7816100b1565b92915050565b6000602082840312156100f3576100f26100a2565b5b6000610101848285016100c8565b91505092915050565b614678806101196000396000f3fe6080604052600436106101355760003560e01c80638da5cb5b116100ab578063bc3da5351161006f578063bc3da535146103dc578063bd424ee714610419578063c0751ba414610456578063c362b15614610481578063ed68b685146104ac578063ff53c5a3146104e957610135565b80638da5cb5b146102f65780639553f18014610321578063a6f9dae11461034a578063ad59be9914610373578063b41ead0a1461039e57610135565b80633c3ae5b8116100fd5780633c3ae5b81461020c57806345598b4a14610237578063476343ee1461026057806360c6d8ae146102775780638a5be9b7146102a25780638bc95413146102cd57610135565b8063092a5cce1461013a578063141961bc146101515780632b7393fb146101965780632cdda7d5146101b25780633020580b146101f0575b600080fd5b34801561014657600080fd5b5061014f610512565b005b34801561015d57600080fd5b5061017860048036038101906101739190612fd7565b6107c8565b60405161018d999897969594939291906130ff565b60405180910390f35b6101b060048036038101906101ab9190613193565b6108e5565b005b3480156101be57600080fd5b506101d960048036038101906101d491906131ff565b610de2565b6040516101e79291906132ea565b60405180910390f35b61020a60048036038101906102059190613456565b610fd6565b005b34801561021857600080fd5b506102216112e7565b60405161022e919061369f565b60405180910390f35b34801561024357600080fd5b5061025e60048036038101906102599190612fd7565b6116a0565b005b34801561026c57600080fd5b50610275611a4d565b005b34801561028357600080fd5b5061028c611c0d565b60405161029991906136c1565b60405180910390f35b3480156102ae57600080fd5b506102b7611c13565b6040516102c491906136c1565b60405180910390f35b3480156102d957600080fd5b506102f460048036038101906102ef91906131ff565b611c19565b005b34801561030257600080fd5b5061030b611e59565b60405161031891906136dc565b60405180910390f35b34801561032d57600080fd5b5061034860048036038101906103439190612fd7565b611e7d565b005b34801561035657600080fd5b50610371600480360381019061036c91906131ff565b6121d9565b005b34801561037f57600080fd5b50610388612368565b60405161039591906136c1565b60405180910390f35b3480156103aa57600080fd5b506103c560048036038101906103c09190612fd7565b61236e565b6040516103d39291906137a6565b60405180910390f35b3480156103e857600080fd5b5061040360048036038101906103fe91906131ff565b6125e1565b60405161041091906136c1565b60405180910390f35b34801561042557600080fd5b50610440600480360381019061043b91906131ff565b6125f9565b60405161044d91906137dd565b60405180910390f35b34801561046257600080fd5b5061046b612619565b604051610478919061369f565b60405180910390f35b34801561048d57600080fd5b50610496612957565b6040516104a3919061369f565b60405180910390f35b3480156104b857600080fd5b506104d360048036038101906104ce9190612fd7565b612d12565b6040516104e091906136dc565b60405180910390f35b3480156104f557600080fd5b50610510600480360381019061050b91906131ff565b612d51565b005b60008054906101000a900473ffffffffffffffffffffffffffffffffffffffff1673ffffffffffffffffffffffffffffffffffffffff163373ffffffffffffffffffffffffffffffffffffffff16146105a0576040517f08c379a00000000000000000000000000000000000000000000000000000000081526004016105979061386a565b60405180910390fd5b600960009054906101000a900460ff166105ef576040517f08c379a00000000000000000000000000000000000000000000000000000000081526004016105e6906138d6565b60405180910390fd5b60005b6003548110156107aa5760006004600083815260200190815260200160002090508060060160019054906101000a900460ff168061063e57508060060160029054906101000a900460ff165b15610649575061079d565b60008160060160006101000a81548160ff02191690831515021790555060018160060160016101000a81548160ff02191690831515021790555060005b816007018054905081101561079a5760008260070182815481106106ad576106ac6138f6565b5b9060005260206000200160009054906101000a900473ffffffffffffffffffffffffffffffffffffffff16905060008360080160008373ffffffffffffffffffffffffffffffffffffffff1673ffffffffffffffffffffffffffffffffffffffff16815260200190815260200160002054905060008460030154826107329190613954565b905080600860008573ffffffffffffffffffffffffffffffffffffffff1673ffffffffffffffffffffffffffffffffffffffff16815260200190815260200160002060008282546107839190613996565b925050819055505050508080600101915050610686565b50505b80806001019150506105f2565b506000600960006101000a81548160ff021916908315150217905550565b60046020528060005260406000206000915090508060000154908060010160009054906101000a900473ffffffffffffffffffffffffffffffffffffffff1690806002018054610817906139f9565b80601f0160208091040260200160405190810160405280929190818152602001828054610843906139f9565b80156108905780601f1061086557610100808354040283529160200191610890565b820191906000526020600020905b81548152906001019060200180831161087357829003601f168201915b5050505050908060030154908060040154908060050154908060060160009054906101000a900460ff16908060060160019054906101000a900460ff16908060060160029054906101000a900460ff16905089565b60008054906101000a900473ffffffffffffffffffffffffffffffffffffffff1673ffffffffffffffffffffffffffffffffffffffff163373ffffffffffffffffffffffffffffffffffffffff1603610973576040517f08c379a000000000000000000000000000000000000000000000000000000000815260040161096a90613a9c565b60405180910390fd5b600660003373ffffffffffffffffffffffffffffffffffffffff1673ffffffffffffffffffffffffffffffffffffffff16815260200190815260200160002060009054906101000a900460ff1615610a00576040517f08c379a00000000000000000000000000000000000000000000000000000000081526004016109f790613b08565b60405180910390fd5b806004600082815260200190815260200160002060060160009054906101000a900460ff16610a64576040517f08c379a0000000000000000000000000000000000000000000000000000000008152600401610a5b90613b74565b60405180910390fd5b816004600082815260200190815260200160002060060160019054906101000a900460ff1615610ac9576040517f08c379a0000000000000000000000000000000000000000000000000000000008152600401610ac090613be0565b60405180910390fd5b826004600082815260200190815260200160002060060160029054906101000a900460ff1615610b2e576040517f08c379a0000000000000000000000000000000000000000000000000000000008152600401610b2590613c4c565b60405180910390fd5b600960009054906101000a900460ff16610b7d576040517f08c379a0000000000000000000000000000000000000000000000000000000008152600401610b74906138d6565b60405180910390fd5b60006004600086815260200190815260200160002090508060010160009054906101000a900473ffffffffffffffffffffffffffffffffffffffff1673ffffffffffffffffffffffffffffffffffffffff163373ffffffffffffffffffffffffffffffffffffffff1603610c26576040517f08c379a0000000000000000000000000000000000000000000000000000000008152600401610c1d90613cb8565b60405180910390fd5b6000868260030154610c389190613954565b9050803414610c7c576040517f08c379a0000000000000000000000000000000000000000000000000000000008152600401610c7390613d24565b60405180910390fd5b86826005016000828254610c909190613996565b9250508190555060008260080160003373ffffffffffffffffffffffffffffffffffffffff1673ffffffffffffffffffffffffffffffffffffffff1681526020019081526020016000205403610d465781600701339080600181540180825580915050600190039060005260206000200160009091909190916101000a81548173ffffffffffffffffffffffffffffffffffffffff021916908373ffffffffffffffffffffffffffffffffffffffff1602179055505b868260080160003373ffffffffffffffffffffffffffffffffffffffff1673ffffffffffffffffffffffffffffffffffffffff1681526020019081526020016000206000828254610d979190613996565b925050819055507fd4a7a37d339805413b4085e0f8e0932dfb0a4f84f08f98a6e53673b5ee8eee15863389604051610dd193929190613d44565b60405180910390a150505050505050565b6060806000805b600354811015610e6b5760006004600083815260200190815260200160002060080160008773ffffffffffffffffffffffffffffffffffffffff1673ffffffffffffffffffffffffffffffffffffffff168152602001908152602001600020541115610e5e578180610e5a90613d7b565b9250505b8080600101915050610de9565b508067ffffffffffffffff811115610e8657610e8561332b565b5b604051908082528060200260200182016040528015610eb45781602001602082028036833780820191505090505b5092508067ffffffffffffffff811115610ed157610ed061332b565b5b604051908082528060200260200182016040528015610eff5781602001602082028036833780820191505090505b5091506000805b600354811015610fce5760006004600083815260200190815260200160002060080160008873ffffffffffffffffffffffffffffffffffffffff1673ffffffffffffffffffffffffffffffffffffffff1681526020019081526020016000205490506000811115610fc05781868481518110610f8557610f846138f6565b5b60200260200101818152505080858481518110610fa557610fa46138f6565b5b6020026020010181815250508280610fbc90613d7b565b9350505b508080600101915050610f06565b505050915091565b60008054906101000a900473ffffffffffffffffffffffffffffffffffffffff1673ffffffffffffffffffffffffffffffffffffffff163373ffffffffffffffffffffffffffffffffffffffff1603611064576040517f08c379a000000000000000000000000000000000000000000000000000000000815260040161105b90613a9c565b60405180910390fd5b600660003373ffffffffffffffffffffffffffffffffffffffff1673ffffffffffffffffffffffffffffffffffffffff16815260200190815260200160002060009054906101000a900460ff16156110f1576040517f08c379a00000000000000000000000000000000000000000000000000000000081526004016110e890613b08565b60405180910390fd5b6001543414611135576040517f08c379a000000000000000000000000000000000000000000000000000000000815260040161112c90613e0f565b60405180910390fd5b8060008111611179576040517f08c379a000000000000000000000000000000000000000000000000000000000815260040161117090613ea1565b60405180910390fd5b600960009054906101000a900460ff166111c8576040517f08c379a00000000000000000000000000000000000000000000000000000000081526004016111bf906138d6565b60405180910390fd5b600060046000600354815260200190815260200160002090506003548160000181905550338160010160006101000a81548173ffffffffffffffffffffffffffffffffffffffff021916908373ffffffffffffffffffffffffffffffffffffffff16021790555084816002019081611240919061406d565b5083816003018190555082816004018190555060018160060160006101000a81548160ff0219169083151502179055506003600081548092919061128390613d7b565b91905055506001546002600082825461129c9190613996565b925050819055507fc04c663886cae794dc52158f70fe6c8ee3b0140d4f48647282f9b693ff688a6560035433876040516112d89392919061413f565b60405180910390a15050505050565b6060600960009054906101000a900460ff16611338576040517f08c379a000000000000000000000000000000000000000000000000000000000815260040161132f906138d6565b60405180910390fd5b6000805b6003548110156113b8576004600082815260200190815260200160002060060160029054906101000a900460ff16801561139757506004600082815260200190815260200160002060060160019054906101000a900460ff16155b156113ab5781806113a790613d7b565b9250505b808060010191505061133c565b5060008167ffffffffffffffff8111156113d5576113d461332b565b5b60405190808252806020026020018201604052801561140e57816020015b6113fb612f2e565b8152602001906001900390816113f35790505b5090506000805b600354811015611696576004600082815260200190815260200160002060060160029054906101000a900460ff16801561147057506004600082815260200190815260200160002060060160019054906101000a900460ff16155b1561168957604051806101000160405280600460008481526020019081526020016000206000015481526020016004600084815260200190815260200160002060010160009054906101000a900473ffffffffffffffffffffffffffffffffffffffff1673ffffffffffffffffffffffffffffffffffffffff168152602001600460008481526020019081526020016000206002018054611510906139f9565b80601f016020809104026020016040519081016040528092919081815260200182805461153c906139f9565b80156115895780601f1061155e57610100808354040283529160200191611589565b820191906000526020600020905b81548152906001019060200180831161156c57829003601f168201915b5050505050815260200160046000848152602001908152602001600020600301548152602001600460008481526020019081526020016000206005015460046000858152602001908152602001600020600401546115e7919061417d565b8152602001600460008481526020019081526020016000206005015481526020016004600084815260200190815260200160002060060160029054906101000a900460ff16151581526020016004600084815260200190815260200160002060060160019054906101000a900460ff16151581525083838151811061166f5761166e6138f6565b5b6020026020010181905250818061168590613d7b565b9250505b8080600101915050611415565b5081935050505090565b806004600082815260200190815260200160002060060160009054906101000a900460ff16611704576040517f08c379a00000000000000000000000000000000000000000000000000000000081526004016116fb90613b74565b60405180910390fd5b816004600082815260200190815260200160002060060160029054906101000a900460ff1615611769576040517f08c379a000000000000000000000000000000000000000000000000000000000815260040161176090613c4c565b60405180910390fd5b600960009054906101000a900460ff166117b8576040517f08c379a00000000000000000000000000000000000000000000000000000000081526004016117af906138d6565b60405180910390fd5b60006004600085815260200190815260200160002090508060010160009054906101000a900473ffffffffffffffffffffffffffffffffffffffff1673ffffffffffffffffffffffffffffffffffffffff163373ffffffffffffffffffffffffffffffffffffffff161480611878575060008054906101000a900473ffffffffffffffffffffffffffffffffffffffff1673ffffffffffffffffffffffffffffffffffffffff163373ffffffffffffffffffffffffffffffffffffffff16145b6118b7576040517f08c379a00000000000000000000000000000000000000000000000000000000081526004016118ae90614223565b60405180910390fd5b60008160060160006101000a81548160ff02191690831515021790555060018160060160016101000a81548160ff02191690831515021790555060005b8160070180549050811015611a0857600082600701828154811061191b5761191a6138f6565b5b9060005260206000200160009054906101000a900473ffffffffffffffffffffffffffffffffffffffff16905060008360080160008373ffffffffffffffffffffffffffffffffffffffff1673ffffffffffffffffffffffffffffffffffffffff16815260200190815260200160002054905060008460030154826119a09190613954565b905080600860008573ffffffffffffffffffffffffffffffffffffffff1673ffffffffffffffffffffffffffffffffffffffff16815260200190815260200160002060008282546119f19190613996565b9250508190555050505080806001019150506118f4565b507f57bf3fc7e1999f61d60bf6bf729b85a5423c5d0883a1629cf9794f2162ae2aba843383600201604051611a3f939291906142c7565b60405180910390a150505050565b60008054906101000a900473ffffffffffffffffffffffffffffffffffffffff1673ffffffffffffffffffffffffffffffffffffffff163373ffffffffffffffffffffffffffffffffffffffff1614611adb576040517f08c379a0000000000000000000000000000000000000000000000000000000008152600401611ad29061386a565b60405180910390fd5b600960009054906101000a900460ff16611b2a576040517f08c379a0000000000000000000000000000000000000000000000000000000008152600401611b21906138d6565b60405180910390fd5b60006002549050600060028190555060008054906101000a900473ffffffffffffffffffffffffffffffffffffffff1673ffffffffffffffffffffffffffffffffffffffff166108fc829081150290604051600060405180830381858888f19350505050158015611b9f573d6000803e3d6000fd5b5060004790507fc0819c13be868895eb93e40eaceb96de976442fa1d404e5c55f14bb65a8c489a60008054906101000a900473ffffffffffffffffffffffffffffffffffffffff168284611bf39190613996565b604051611c01929190614305565b60405180910390a15050565b60025481565b60015481565b600960009054906101000a900460ff16611c68576040517f08c379a0000000000000000000000000000000000000000000000000000000008152600401611c5f906138d6565b60405180910390fd5b60008054906101000a900473ffffffffffffffffffffffffffffffffffffffff1673ffffffffffffffffffffffffffffffffffffffff163373ffffffffffffffffffffffffffffffffffffffff1614611cf6576040517f08c379a0000000000000000000000000000000000000000000000000000000008152600401611ced9061386a565b60405180910390fd5b600660003373ffffffffffffffffffffffffffffffffffffffff1673ffffffffffffffffffffffffffffffffffffffff16815260200190815260200160002060009054906101000a900460ff1615611d83576040517f08c379a0000000000000000000000000000000000000000000000000000000008152600401611d7a90613b08565b60405180910390fd5b6001600660008373ffffffffffffffffffffffffffffffffffffffff1673ffffffffffffffffffffffffffffffffffffffff16815260200190815260200160002060006101000a81548160ff0219169083151502179055506007819080600181540180825580915050600190039060005260206000200160009091909190916101000a81548173ffffffffffffffffffffffffffffffffffffffff021916908373ffffffffffffffffffffffffffffffffffffffff16021790555060056000815480929190611e5190613d7b565b919050555050565b60008054906101000a900473ffffffffffffffffffffffffffffffffffffffff1681565b806004600082815260200190815260200160002060060160009054906101000a900460ff16611ee1576040517f08c379a0000000000000000000000000000000000000000000000000000000008152600401611ed890613b74565b60405180910390fd5b816004600082815260200190815260200160002060060160019054906101000a900460ff1615611f46576040517f08c379a0000000000000000000000000000000000000000000000000000000008152600401611f3d90613be0565b60405180910390fd5b60006004600085815260200190815260200160002090508060010160009054906101000a900473ffffffffffffffffffffffffffffffffffffffff1673ffffffffffffffffffffffffffffffffffffffff163373ffffffffffffffffffffffffffffffffffffffff161480612006575060008054906101000a900473ffffffffffffffffffffffffffffffffffffffff1673ffffffffffffffffffffffffffffffffffffffff163373ffffffffffffffffffffffffffffffffffffffff16145b612045576040517f08c379a000000000000000000000000000000000000000000000000000000000815260040161203c906143a0565b60405180910390fd5b806004015481600501541461208f576040517f08c379a000000000000000000000000000000000000000000000000000000000815260040161208690614432565b60405180910390fd5b6000816003015482600501546120a59190613954565b9050600060646050836120b89190613954565b6120c29190614481565b90508260010160009054906101000a900473ffffffffffffffffffffffffffffffffffffffff1673ffffffffffffffffffffffffffffffffffffffff166108fc829081150290604051600060405180830381858888f1935050505015801561212e573d6000803e3d6000fd5b506000818361213d919061417d565b905080600260008282546121519190613996565b9250508190555060008460060160006101000a81548160ff02191690831515021790555060018460060160026101000a81548160ff0219169083151502179055507f8074ef78c691c15ac249ef0c702e350affe9388afdbbafd37c0d19703cd0c7db8733866002016040516121c8939291906142c7565b60405180910390a150505050505050565b60008054906101000a900473ffffffffffffffffffffffffffffffffffffffff1673ffffffffffffffffffffffffffffffffffffffff163373ffffffffffffffffffffffffffffffffffffffff1614612267576040517f08c379a000000000000000000000000000000000000000000000000000000000815260040161225e9061386a565b60405180910390fd5b600960009054906101000a900460ff166122b6576040517f08c379a00000000000000000000000000000000000000000000000000000000081526004016122ad906138d6565b60405180910390fd5b600073ffffffffffffffffffffffffffffffffffffffff168173ffffffffffffffffffffffffffffffffffffffff1603612325576040517f08c379a000000000000000000000000000000000000000000000000000000000815260040161231c90614524565b60405180910390fd5b806000806101000a81548173ffffffffffffffffffffffffffffffffffffffff021916908373ffffffffffffffffffffffffffffffffffffffff16021790555050565b60055481565b606080600960009054906101000a900460ff166123c0576040517f08c379a00000000000000000000000000000000000000000000000000000000081526004016123b7906138d6565b60405180910390fd5b826000811180156123d357506003548111155b612412576040517f08c379a000000000000000000000000000000000000000000000000000000000815260040161240990614590565b60405180910390fd5b60006004600086815260200190815260200160002090506000816007018054905090508067ffffffffffffffff81111561244f5761244e61332b565b5b60405190808252806020026020018201604052801561247d5781602001602082028036833780820191505090505b5094508067ffffffffffffffff81111561249a5761249961332b565b5b6040519080825280602002602001820160405280156124c85781602001602082028036833780820191505090505b50935060005b818110156125d85760008360070182815481106124ee576124ed6138f6565b5b9060005260206000200160009054906101000a900473ffffffffffffffffffffffffffffffffffffffff1690508087838151811061252f5761252e6138f6565b5b602002602001019073ffffffffffffffffffffffffffffffffffffffff16908173ffffffffffffffffffffffffffffffffffffffff16815250508360080160008273ffffffffffffffffffffffffffffffffffffffff1673ffffffffffffffffffffffffffffffffffffffff168152602001908152602001600020548683815181106125be576125bd6138f6565b5b6020026020010181815250505080806001019150506124ce565b50505050915091565b60086020528060005260406000206000915090505481565b60066020528060005260406000206000915054906101000a900460ff1681565b6060600960009054906101000a900460ff1661266a576040517f08c379a0000000000000000000000000000000000000000000000000000000008152600401612661906138d6565b60405180910390fd5b6000805b6003548110156126bd576004600082815260200190815260200160002060060160019054906101000a900460ff16156126b05781806126ac90613d7b565b9250505b808060010191505061266e565b5060008167ffffffffffffffff8111156126da576126d961332b565b5b60405190808252806020026020018201604052801561271357816020015b612700612f2e565b8152602001906001900390816126f85790505b5090506000805b60035481101561294d576004600082815260200190815260200160002060060160019054906101000a900460ff161561294057604051806101000160405280600460008481526020019081526020016000206000015481526020016004600084815260200190815260200160002060010160009054906101000a900473ffffffffffffffffffffffffffffffffffffffff1673ffffffffffffffffffffffffffffffffffffffff1681526020016004600084815260200190815260200160002060020180546127e8906139f9565b80601f0160208091040260200160405190810160405280929190818152602001828054612814906139f9565b80156128615780601f1061283657610100808354040283529160200191612861565b820191906000526020600020905b81548152906001019060200180831161284457829003601f168201915b505050505081526020016004600084815260200190815260200160002060030154815260200160046000848152602001908152602001600020600401548152602001600460008481526020019081526020016000206005015481526020016004600084815260200190815260200160002060060160029054906101000a900460ff16151581526020016004600084815260200190815260200160002060060160019054906101000a900460ff161515815250838381518110612926576129256138f6565b5b6020026020010181905250818061293c90613d7b565b9250505b808060010191505061271a565b5081935050505090565b6060600960009054906101000a900460ff166129a8576040517f08c379a000000000000000000000000000000000000000000000000000000000815260040161299f906138d6565b60405180910390fd5b6000805b600354811015612a29576004600082815260200190815260200160002060060160029054906101000a900460ff16158015612a0857506004600082815260200190815260200160002060060160019054906101000a900460ff16155b15612a1c578180612a1890613d7b565b9250505b80806001019150506129ac565b5060008167ffffffffffffffff811115612a4657612a4561332b565b5b604051908082528060200260200182016040528015612a7f57816020015b612a6c612f2e565b815260200190600190039081612a645790505b5090506000805b600354811015612d08576004600082815260200190815260200160002060060160029054906101000a900460ff16158015612ae257506004600082815260200190815260200160002060060160019054906101000a900460ff16155b15612cfb57604051806101000160405280600460008481526020019081526020016000206000015481526020016004600084815260200190815260200160002060010160009054906101000a900473ffffffffffffffffffffffffffffffffffffffff1673ffffffffffffffffffffffffffffffffffffffff168152602001600460008481526020019081526020016000206002018054612b82906139f9565b80601f0160208091040260200160405190810160405280929190818152602001828054612bae906139f9565b8015612bfb5780601f10612bd057610100808354040283529160200191612bfb565b820191906000526020600020905b815481529060010190602001808311612bde57829003601f168201915b505050505081526020016004600084815260200190815260200160002060030154815260200160046000848152602001908152602001600020600501546004600085815260200190815260200160002060040154612c59919061417d565b8152602001600460008481526020019081526020016000206005015481526020016004600084815260200190815260200160002060060160029054906101000a900460ff16151581526020016004600084815260200190815260200160002060060160019054906101000a900460ff161515815250838381518110612ce157612ce06138f6565b5b60200260200101819052508180612cf790613d7b565b9250505b8080600101915050612a86565b5081935050505090565b60078181548110612d2257600080fd5b906000526020600020016000915054906101000a900473ffffffffffffffffffffffffffffffffffffffff1681565b600660003373ffffffffffffffffffffffffffffffffffffffff1673ffffffffffffffffffffffffffffffffffffffff16815260200190815260200160002060009054906101000a900460ff1615612dde576040517f08c379a0000000000000000000000000000000000000000000000000000000008152600401612dd590613b08565b60405180910390fd5b6000600860008373ffffffffffffffffffffffffffffffffffffffff1673ffffffffffffffffffffffffffffffffffffffff16815260200190815260200160002054905060008111612e65576040517f08c379a0000000000000000000000000000000000000000000000000000000008152600401612e5c90614622565b60405180910390fd5b6000600860008473ffffffffffffffffffffffffffffffffffffffff1673ffffffffffffffffffffffffffffffffffffffff168152602001908152602001600020819055508173ffffffffffffffffffffffffffffffffffffffff166108fc829081150290604051600060405180830381858888f19350505050158015612ef0573d6000803e3d6000fd5b507f08d40e9c27d77b658952cbaacaa582b75d323ce97d3904729b9674ddf5d5f13e8282604051612f22929190614305565b60405180910390a15050565b60405180610100016040528060008152602001600073ffffffffffffffffffffffffffffffffffffffff168152602001606081526020016000815260200160008152602001600081526020016000151581526020016000151581525090565b6000604051905090565b600080fd5b600080fd5b6000819050919050565b612fb481612fa1565b8114612fbf57600080fd5b50565b600081359050612fd181612fab565b92915050565b600060208284031215612fed57612fec612f97565b5b6000612ffb84828501612fc2565b91505092915050565b61300d81612fa1565b82525050565b600073ffffffffffffffffffffffffffffffffffffffff82169050919050565b600061303e82613013565b9050919050565b61304e81613033565b82525050565b600081519050919050565b600082825260208201905092915050565b60005b8381101561308e578082015181840152602081019050613073565b60008484015250505050565b6000601f19601f8301169050919050565b60006130b682613054565b6130c0818561305f565b93506130d0818560208601613070565b6130d98161309a565b840191505092915050565b60008115159050919050565b6130f9816130e4565b82525050565b600061012082019050613115600083018c613004565b613122602083018b613045565b8181036040830152613134818a6130ab565b90506131436060830189613004565b6131506080830188613004565b61315d60a0830187613004565b61316a60c08301866130f0565b61317760e08301856130f0565b6131856101008301846130f0565b9a9950505050505050505050565b600080604083850312156131aa576131a9612f97565b5b60006131b885828601612fc2565b92505060206131c985828601612fc2565b9150509250929050565b6131dc81613033565b81146131e757600080fd5b50565b6000813590506131f9816131d3565b92915050565b60006020828403121561321557613214612f97565b5b6000613223848285016131ea565b91505092915050565b600081519050919050565b600082825260208201905092915050565b6000819050602082019050919050565b61326181612fa1565b82525050565b60006132738383613258565b60208301905092915050565b6000602082019050919050565b60006132978261322c565b6132a18185613237565b93506132ac83613248565b8060005b838110156132dd5781516132c48882613267565b97506132cf8361327f565b9250506001810190506132b0565b5085935050505092915050565b60006040820190508181036000830152613304818561328c565b90508181036020830152613318818461328c565b90509392505050565b600080fd5b600080fd5b7f4e487b7100000000000000000000000000000000000000000000000000000000600052604160045260246000fd5b6133638261309a565b810181811067ffffffffffffffff821117156133825761338161332b565b5b80604052505050565b6000613395612f8d565b90506133a1828261335a565b919050565b600067ffffffffffffffff8211156133c1576133c061332b565b5b6133ca8261309a565b9050602081019050919050565b82818337600083830152505050565b60006133f96133f4846133a6565b61338b565b90508281526020810184848401111561341557613414613326565b5b6134208482856133d7565b509392505050565b600082601f83011261343d5761343c613321565b5b813561344d8482602086016133e6565b91505092915050565b60008060006060848603121561346f5761346e612f97565b5b600084013567ffffffffffffffff81111561348d5761348c612f9c565b5b61349986828701613428565b93505060206134aa86828701612fc2565b92505060406134bb86828701612fc2565b9150509250925092565b600081519050919050565b600082825260208201905092915050565b6000819050602082019050919050565b6134fa81613033565b82525050565b600082825260208201905092915050565b600061351c82613054565b6135268185613500565b9350613536818560208601613070565b61353f8161309a565b840191505092915050565b613553816130e4565b82525050565b6000610100830160008301516135726000860182613258565b50602083015161358560208601826134f1565b506040830151848203604086015261359d8282613511565b91505060608301516135b26060860182613258565b5060808301516135c56080860182613258565b5060a08301516135d860a0860182613258565b5060c08301516135eb60c086018261354a565b5060e08301516135fe60e086018261354a565b508091505092915050565b60006136158383613559565b905092915050565b6000602082019050919050565b6000613635826134c5565b61363f81856134d0565b935083602082028501613651856134e1565b8060005b8581101561368d578484038952815161366e8582613609565b94506136798361361d565b925060208a01995050600181019050613655565b50829750879550505050505092915050565b600060208201905081810360008301526136b9818461362a565b905092915050565b60006020820190506136d66000830184613004565b92915050565b60006020820190506136f16000830184613045565b92915050565b600081519050919050565b600082825260208201905092915050565b6000819050602082019050919050565b600061372f83836134f1565b60208301905092915050565b6000602082019050919050565b6000613753826136f7565b61375d8185613702565b935061376883613713565b8060005b838110156137995781516137808882613723565b975061378b8361373b565b92505060018101905061376c565b5085935050505092915050565b600060408201905081810360008301526137c08185613748565b905081810360208301526137d4818461328c565b90509392505050565b60006020820190506137f260008301846130f0565b92915050565b7f4f6e6c792074686520636f6e7472616374206f776e65722063616e206578656360008201527f7574652074686973000000000000000000000000000000000000000000000000602082015250565b600061385460288361305f565b915061385f826137f8565b604082019050919050565b6000602082019050818103600083015261388381613847565b9050919050565b7f436f6e7472616374206973206e6f742061637469766500000000000000000000600082015250565b60006138c060168361305f565b91506138cb8261388a565b602082019050919050565b600060208201905081810360008301526138ef816138b3565b9050919050565b7f4e487b7100000000000000000000000000000000000000000000000000000000600052603260045260246000fd5b7f4e487b7100000000000000000000000000000000000000000000000000000000600052601160045260246000fd5b600061395f82612fa1565b915061396a83612fa1565b925082820261397881612fa1565b9150828204841483151761398f5761398e613925565b5b5092915050565b60006139a182612fa1565b91506139ac83612fa1565b92508282019050808211156139c4576139c3613925565b5b92915050565b7f4e487b7100000000000000000000000000000000000000000000000000000000600052602260045260246000fd5b60006002820490506001821680613a1157607f821691505b602082108103613a2457613a236139ca565b5b50919050565b7f54686520636f6e7472616374206f776e65722063616e277420706572666f726d60008201527f206675727468657220616374696f6e7300000000000000000000000000000000602082015250565b6000613a8660308361305f565b9150613a9182613a2a565b604082019050919050565b60006020820190508181036000830152613ab581613a79565b9050919050565b7f416464726573732069732062616e6e6564000000000000000000000000000000600082015250565b6000613af260118361305f565b9150613afd82613abc565b602082019050919050565b60006020820190508181036000830152613b2181613ae5565b9050919050565b7f43616d706169676e206973206e6f742061637469766500000000000000000000600082015250565b6000613b5e60168361305f565b9150613b6982613b28565b602082019050919050565b60006020820190508181036000830152613b8d81613b51565b9050919050565b7f43616d706169676e2069732063616e63656c6c65640000000000000000000000600082015250565b6000613bca60158361305f565b9150613bd582613b94565b602082019050919050565b60006020820190508181036000830152613bf981613bbd565b9050919050565b7f43616d706169676e20697320616c726561647920636f6d706c65746564000000600082015250565b6000613c36601d8361305f565b9150613c4182613c00565b602082019050919050565b60006020820190508181036000830152613c6581613c29565b9050919050565b7f54686520656e7472657072656e6575722063616e27742066756e640000000000600082015250565b6000613ca2601b8361305f565b9150613cad82613c6c565b602082019050919050565b60006020820190508181036000830152613cd181613c95565b9050919050565b7f496e636f7272656374205765692076616c75652073656e740000000000000000600082015250565b6000613d0e60188361305f565b9150613d1982613cd8565b602082019050919050565b60006020820190508181036000830152613d3d81613d01565b9050919050565b6000606082019050613d596000830186613004565b613d666020830185613045565b613d736040830184613004565b949350505050565b6000613d8682612fa1565b91507fffffffffffffffffffffffffffffffffffffffffffffffffffffffffffffffff8203613db857613db7613925565b5b600182019050919050565b7f496e636f72726563742063616d706169676e2066656500000000000000000000600082015250565b6000613df960168361305f565b9150613e0482613dc3565b602082019050919050565b60006020820190508181036000830152613e2881613dec565b9050919050565b7f546f74616c20736861726573206d75737420626520677265617465722074686160008201527f6e207a65726f0000000000000000000000000000000000000000000000000000602082015250565b6000613e8b60268361305f565b9150613e9682613e2f565b604082019050919050565b60006020820190508181036000830152613eba81613e7e565b9050919050565b60008190508160005260206000209050919050565b60006020601f8301049050919050565b600082821b905092915050565b600060088302613f237fffffffffffffffffffffffffffffffffffffffffffffffffffffffffffffffff82613ee6565b613f2d8683613ee6565b95508019841693508086168417925050509392505050565b6000819050919050565b6000613f6a613f65613f6084612fa1565b613f45565b612fa1565b9050919050565b6000819050919050565b613f8483613f4f565b613f98613f9082613f71565b848454613ef3565b825550505050565b600090565b613fad613fa0565b613fb8818484613f7b565b505050565b5b81811015613fdc57613fd1600082613fa5565b600181019050613fbe565b5050565b601f82111561402157613ff281613ec1565b613ffb84613ed6565b8101602085101561400a578190505b61401e61401685613ed6565b830182613fbd565b50505b505050565b600082821c905092915050565b600061404460001984600802614026565b1980831691505092915050565b600061405d8383614033565b9150826002028217905092915050565b61407682613054565b67ffffffffffffffff81111561408f5761408e61332b565b5b61409982546139f9565b6140a4828285613fe0565b600060209050601f8311600181146140d757600084156140c5578287015190505b6140cf8582614051565b865550614137565b601f1984166140e586613ec1565b60005b8281101561410d578489015182556001820191506020850194506020810190506140e8565b8683101561412a5784890151614126601f891682614033565b8355505b6001600288020188555050505b505050505050565b60006060820190506141546000830186613004565b6141616020830185613045565b818103604083015261417381846130ab565b9050949350505050565b600061418882612fa1565b915061419383612fa1565b92508282039050818111156141ab576141aa613925565b5b92915050565b7f4f6e6c792074686520656e7472657072656e657572206f72206f776e6572206360008201527f616e2063616e63656c20746869732063616d706169676e000000000000000000602082015250565b600061420d60378361305f565b9150614218826141b1565b604082019050919050565b6000602082019050818103600083015261423c81614200565b9050919050565b60008154614250816139f9565b61425a818661305f565b94506001821660008114614275576001811461428b576142be565b60ff1983168652811515602002860193506142be565b61429485613ec1565b60005b838110156142b657815481890152600182019150602081019050614297565b808801955050505b50505092915050565b60006060820190506142dc6000830186613004565b6142e96020830185613045565b81810360408301526142fb8184614243565b9050949350505050565b600060408201905061431a6000830185613045565b6143276020830184613004565b9392505050565b7f4f6e6c792074686520656e7472657072656e657572206f72206f776e6572206360008201527f616e20636f6d706c65746520746869732063616d706169676e00000000000000602082015250565b600061438a60398361305f565b91506143958261432e565b604082019050919050565b600060208201905081810360008301526143b98161437d565b9050919050565b7f43616d706169676e20646f6573206e6f74206861766520656e6f75676820736860008201527f6172657300000000000000000000000000000000000000000000000000000000602082015250565b600061441c60248361305f565b9150614427826143c0565b604082019050919050565b6000602082019050818103600083015261444b8161440f565b9050919050565b7f4e487b7100000000000000000000000000000000000000000000000000000000600052601260045260246000fd5b600061448c82612fa1565b915061449783612fa1565b9250826144a7576144a6614452565b5b828204905092915050565b7f4e6577206f776e65722063616e6e6f7420626520746865207a65726f2061646460008201527f7265737300000000000000000000000000000000000000000000000000000000602082015250565b600061450e60248361305f565b9150614519826144b2565b604082019050919050565b6000602082019050818103600083015261453d81614501565b9050919050565b7f496e76616c69642063616d706169676e20494400000000000000000000000000600082015250565b600061457a60138361305f565b915061458582614544565b602082019050919050565b600060208201905081810360008301526145a98161456d565b9050919050565b7f4e6f20726566756e6420617661696c61626c6520666f72207468697320696e7660008201527f6573746f72000000000000000000000000000000000000000000000000000000602082015250565b600061460c60258361305f565b9150614617826145b0565b604082019050919050565b6000602082019050818103600083015261463b816145ff565b905091905056fea264697066735822122047d21f16301553438307ea9f0ddd585c68a54cda0a7a4e963f0c84eb976676c264736f6c634300081a0033",
					"opcodes": "PUSH1 0x80 PUSH1 0x40 MSTORE CALLVALUE DUP1 ISZERO PUSH2 0x10 JUMPI PUSH1 0x0 DUP1 REVERT JUMPDEST POP PUSH1 0x40 MLOAD PUSH2 0x4791 CODESIZE SUB DUP1 PUSH2 0x4791 DUP4 CODECOPY DUP2 DUP2 ADD PUSH1 0x40 MSTORE DUP2 ADD SWAP1 PUSH2 0x32 SWAP2 SWAP1 PUSH2 0xDD JUMP JUMPDEST CALLER PUSH1 0x0 DUP1 PUSH2 0x100 EXP DUP2 SLOAD DUP2 PUSH20 0xFFFFFFFFFFFFFFFFFFFFFFFFFFFFFFFFFFFFFFFF MUL NOT AND SWAP1 DUP4 PUSH20 0xFFFFFFFFFFFFFFFFFFFFFFFFFFFFFFFFFFFFFFFF AND MUL OR SWAP1 SSTORE POP DUP1 PUSH1 0x1 DUP2 SWAP1 SSTORE POP PUSH1 0x1 PUSH1 0x9 PUSH1 0x0 PUSH2 0x100 EXP DUP2 SLOAD DUP2 PUSH1 0xFF MUL NOT AND SWAP1 DUP4 ISZERO ISZERO MUL OR SWAP1 SSTORE POP PUSH1 0x0 PUSH1 0x2 DUP2 SWAP1 SSTORE POP POP PUSH2 0x10A JUMP JUMPDEST PUSH1 0x0 DUP1 REVERT JUMPDEST PUSH1 0x0 DUP2 SWAP1 POP SWAP2 SWAP1 POP JUMP JUMPDEST PUSH2 0xBA DUP2 PUSH2 0xA7 JUMP JUMPDEST DUP2 EQ PUSH2 0xC5 JUMPI PUSH1 0x0 DUP1 REVERT JUMPDEST POP JUMP JUMPDEST PUSH1 0x0 DUP2 MLOAD SWAP1 POP PUSH2 0xD7 DUP2 PUSH2 0xB1 JUMP JUMPDEST SWAP3 SWAP2 POP POP JUMP JUMPDEST PUSH1 0x0 PUSH1 0x20 DUP3 DUP5 SUB SLT ISZERO PUSH2 0xF3 JUMPI PUSH2 0xF2 PUSH2 0xA2 JUMP JUMPDEST JUMPDEST PUSH1 0x0 PUSH2 0x101 DUP5 DUP3 DUP6 ADD PUSH2 0xC8 JUMP JUMPDEST SWAP2 POP POP SWAP3 SWAP2 POP POP JUMP JUMPDEST PUSH2 0x4678 DUP1 PUSH2 0x119 PUSH1 0x0 CODECOPY PUSH1 0x0 RETURN INVALID PUSH1 0x80 PUSH1 0x40 MSTORE PUSH1 0x4 CALLDATASIZE LT PUSH2 0x135 JUMPI PUSH1 0x0 CALLDATALOAD PUSH1 0xE0 SHR DUP1 PUSH4 0x8DA5CB5B GT PUSH2 0xAB JUMPI DUP1 PUSH4 0xBC3DA535 GT PUSH2 0x6F JUMPI DUP1 PUSH4 0xBC3DA535 EQ PUSH2 0x3DC JUMPI DUP1 PUSH4 0xBD424EE7 EQ PUSH2 0x419 JUMPI DUP1 PUSH4 0xC0751BA4 EQ PUSH2 0x456 JUMPI DUP1 PUSH4 0xC362B156 EQ PUSH2 0x481 JUMPI DUP1 PUSH4 0xED68B685 EQ PUSH2 0x4AC JUMPI DUP1 PUSH4 0xFF53C5A3 EQ PUSH2 0x4E9 JUMPI PUSH2 0x135 JUMP JUMPDEST DUP1 PUSH4 0x8DA5CB5B EQ PUSH2 0x2F6 JUMPI DUP1 PUSH4 0x9553F180 EQ PUSH2 0x321 JUMPI DUP1 PUSH4 0xA6F9DAE1 EQ PUSH2 0x34A JUMPI DUP1 PUSH4 0xAD59BE99 EQ PUSH2 0x373 JUMPI DUP1 PUSH4 0xB41EAD0A EQ PUSH2 0x39E JUMPI PUSH2 0x135 JUMP JUMPDEST DUP1 PUSH4 0x3C3AE5B8 GT PUSH2 0xFD JUMPI DUP1 PUSH4 0x3C3AE5B8 EQ PUSH2 0x20C JUMPI DUP1 PUSH4 0x45598B4A EQ PUSH2 0x237 JUMPI DUP1 PUSH4 0x476343EE EQ PUSH2 0x260 JUMPI DUP1 PUSH4 0x60C6D8AE EQ PUSH2 0x277 JUMPI DUP1 PUSH4 0x8A5BE9B7 EQ PUSH2 0x2A2 JUMPI DUP1 PUSH4 0x8BC95413 EQ PUSH2 0x2CD JUMPI PUSH2 0x135 JUMP JUMPDEST DUP1 PUSH4 0x92A5CCE EQ PUSH2 0x13A JUMPI DUP1 PUSH4 0x141961BC EQ PUSH2 0x151 JUMPI DUP1 PUSH4 0x2B7393FB EQ PUSH2 0x196 JUMPI DUP1 PUSH4 0x2CDDA7D5 EQ PUSH2 0x1B2 JUMPI DUP1 PUSH4 0x3020580B EQ PUSH2 0x1F0 JUMPI JUMPDEST PUSH1 0x0 DUP1 REVERT JUMPDEST CALLVALUE DUP1 ISZERO PUSH2 0x146 JUMPI PUSH1 0x0 DUP1 REVERT JUMPDEST POP PUSH2 0x14F PUSH2 0x512 JUMP JUMPDEST STOP JUMPDEST CALLVALUE DUP1 ISZERO PUSH2 0x15D JUMPI PUSH1 0x0 DUP1 REVERT JUMPDEST POP PUSH2 0x178 PUSH1 0x4 DUP1 CALLDATASIZE SUB DUP2 ADD SWAP1 PUSH2 0x173 SWAP2 SWAP1 PUSH2 0x2FD7 JUMP JUMPDEST PUSH2 0x7C8 JUMP JUMPDEST PUSH1 0x40 MLOAD PUSH2 0x18D SWAP10 SWAP9 SWAP8 SWAP7 SWAP6 SWAP5 SWAP4 SWAP3 SWAP2 SWAP1 PUSH2 0x30FF JUMP JUMPDEST PUSH1 0x40 MLOAD DUP1 SWAP2 SUB SWAP1 RETURN JUMPDEST PUSH2 0x1B0 PUSH1 0x4 DUP1 CALLDATASIZE SUB DUP2 ADD SWAP1 PUSH2 0x1AB SWAP2 SWAP1 PUSH2 0x3193 JUMP JUMPDEST PUSH2 0x8E5 JUMP JUMPDEST STOP JUMPDEST CALLVALUE DUP1 ISZERO PUSH2 0x1BE JUMPI PUSH1 0x0 DUP1 REVERT JUMPDEST POP PUSH2 0x1D9 PUSH1 0x4 DUP1 CALLDATASIZE SUB DUP2 ADD SWAP1 PUSH2 0x1D4 SWAP2 SWAP1 PUSH2 0x31FF JUMP JUMPDEST PUSH2 0xDE2 JUMP JUMPDEST PUSH1 0x40 MLOAD PUSH2 0x1E7 SWAP3 SWAP2 SWAP1 PUSH2 0x32EA JUMP JUMPDEST PUSH1 0x40 MLOAD DUP1 SWAP2 SUB SWAP1 RETURN JUMPDEST PUSH2 0x20A PUSH1 0x4 DUP1 CALLDATASIZE SUB DUP2 ADD SWAP1 PUSH2 0x205 SWAP2 SWAP1 PUSH2 0x3456 JUMP JUMPDEST PUSH2 0xFD6 JUMP JUMPDEST STOP JUMPDEST CALLVALUE DUP1 ISZERO PUSH2 0x218 JUMPI PUSH1 0x0 DUP1 REVERT JUMPDEST POP PUSH2 0x221 PUSH2 0x12E7 JUMP JUMPDEST PUSH1 0x40 MLOAD PUSH2 0x22E SWAP2 SWAP1 PUSH2 0x369F JUMP JUMPDEST PUSH1 0x40 MLOAD DUP1 SWAP2 SUB SWAP1 RETURN JUMPDEST CALLVALUE DUP1 ISZERO PUSH2 0x243 JUMPI PUSH1 0x0 DUP1 REVERT JUMPDEST POP PUSH2 0x25E PUSH1 0x4 DUP1 CALLDATASIZE SUB DUP2 ADD SWAP1 PUSH2 0x259 SWAP2 SWAP1 PUSH2 0x2FD7 JUMP JUMPDEST PUSH2 0x16A0 JUMP JUMPDEST STOP JUMPDEST CALLVALUE DUP1 ISZERO PUSH2 0x26C JUMPI PUSH1 0x0 DUP1 REVERT JUMPDEST POP PUSH2 0x275 PUSH2 0x1A4D JUMP JUMPDEST STOP JUMPDEST CALLVALUE DUP1 ISZERO PUSH2 0x283 JUMPI PUSH1 0x0 DUP1 REVERT JUMPDEST POP PUSH2 0x28C PUSH2 0x1C0D JUMP JUMPDEST PUSH1 0x40 MLOAD PUSH2 0x299 SWAP2 SWAP1 PUSH2 0x36C1 JUMP JUMPDEST PUSH1 0x40 MLOAD DUP1 SWAP2 SUB SWAP1 RETURN JUMPDEST CALLVALUE DUP1 ISZERO PUSH2 0x2AE JUMPI PUSH1 0x0 DUP1 REVERT JUMPDEST POP PUSH2 0x2B7 PUSH2 0x1C13 JUMP JUMPDEST PUSH1 0x40 MLOAD PUSH2 0x2C4 SWAP2 SWAP1 PUSH2 0x36C1 JUMP JUMPDEST PUSH1 0x40 MLOAD DUP1 SWAP2 SUB SWAP1 RETURN JUMPDEST CALLVALUE DUP1 ISZERO PUSH2 0x2D9 JUMPI PUSH1 0x0 DUP1 REVERT JUMPDEST POP PUSH2 0x2F4 PUSH1 0x4 DUP1 CALLDATASIZE SUB DUP2 ADD SWAP1 PUSH2 0x2EF SWAP2 SWAP1 PUSH2 0x31FF JUMP JUMPDEST PUSH2 0x1C19 JUMP JUMPDEST STOP JUMPDEST CALLVALUE DUP1 ISZERO PUSH2 0x302 JUMPI PUSH1 0x0 DUP1 REVERT JUMPDEST POP PUSH2 0x30B PUSH2 0x1E59 JUMP JUMPDEST PUSH1 0x40 MLOAD PUSH2 0x318 SWAP2 SWAP1 PUSH2 0x36DC JUMP JUMPDEST PUSH1 0x40 MLOAD DUP1 SWAP2 SUB SWAP1 RETURN JUMPDEST CALLVALUE DUP1 ISZERO PUSH2 0x32D JUMPI PUSH1 0x0 DUP1 REVERT JUMPDEST POP PUSH2 0x348 PUSH1 0x4 DUP1 CALLDATASIZE SUB DUP2 ADD SWAP1 PUSH2 0x343 SWAP2 SWAP1 PUSH2 0x2FD7 JUMP JUMPDEST PUSH2 0x1E7D JUMP JUMPDEST STOP JUMPDEST CALLVALUE DUP1 ISZERO PUSH2 0x356 JUMPI PUSH1 0x0 DUP1 REVERT JUMPDEST POP PUSH2 0x371 PUSH1 0x4 DUP1 CALLDATASIZE SUB DUP2 ADD SWAP1 PUSH2 0x36C SWAP2 SWAP1 PUSH2 0x31FF JUMP JUMPDEST PUSH2 0x21D9 JUMP JUMPDEST STOP JUMPDEST CALLVALUE DUP1 ISZERO PUSH2 0x37F JUMPI PUSH1 0x0 DUP1 REVERT JUMPDEST POP PUSH2 0x388 PUSH2 0x2368 JUMP JUMPDEST PUSH1 0x40 MLOAD PUSH2 0x395 SWAP2 SWAP1 PUSH2 0x36C1 JUMP JUMPDEST PUSH1 0x40 MLOAD DUP1 SWAP2 SUB SWAP1 RETURN JUMPDEST CALLVALUE DUP1 ISZERO PUSH2 0x3AA JUMPI PUSH1 0x0 DUP1 REVERT JUMPDEST POP PUSH2 0x3C5 PUSH1 0x4 DUP1 CALLDATASIZE SUB DUP2 ADD SWAP1 PUSH2 0x3C0 SWAP2 SWAP1 PUSH2 0x2FD7 JUMP JUMPDEST PUSH2 0x236E JUMP JUMPDEST PUSH1 0x40 MLOAD PUSH2 0x3D3 SWAP3 SWAP2 SWAP1 PUSH2 0x37A6 JUMP JUMPDEST PUSH1 0x40 MLOAD DUP1 SWAP2 SUB SWAP1 RETURN JUMPDEST CALLVALUE DUP1 ISZERO PUSH2 0x3E8 JUMPI PUSH1 0x0 DUP1 REVERT JUMPDEST POP PUSH2 0x403 PUSH1 0x4 DUP1 CALLDATASIZE SUB DUP2 ADD SWAP1 PUSH2 0x3FE SWAP2 SWAP1 PUSH2 0x31FF JUMP JUMPDEST PUSH2 0x25E1 JUMP JUMPDEST PUSH1 0x40 MLOAD PUSH2 0x410 SWAP2 SWAP1 PUSH2 0x36C1 JUMP JUMPDEST PUSH1 0x40 MLOAD DUP1 SWAP2 SUB SWAP1 RETURN JUMPDEST CALLVALUE DUP1 ISZERO PUSH2 0x425 JUMPI PUSH1 0x0 DUP1 REVERT JUMPDEST POP PUSH2 0x440 PUSH1 0x4 DUP1 CALLDATASIZE SUB DUP2 ADD SWAP1 PUSH2 0x43B SWAP2 SWAP1 PUSH2 0x31FF JUMP JUMPDEST PUSH2 0x25F9 JUMP JUMPDEST PUSH1 0x40 MLOAD PUSH2 0x44D SWAP2 SWAP1 PUSH2 0x37DD JUMP JUMPDEST PUSH1 0x40 MLOAD DUP1 SWAP2 SUB SWAP1 RETURN JUMPDEST CALLVALUE DUP1 ISZERO PUSH2 0x462 JUMPI PUSH1 0x0 DUP1 REVERT JUMPDEST POP PUSH2 0x46B PUSH2 0x2619 JUMP JUMPDEST PUSH1 0x40 MLOAD PUSH2 0x478 SWAP2 SWAP1 PUSH2 0x369F JUMP JUMPDEST PUSH1 0x40 MLOAD DUP1 SWAP2 SUB SWAP1 RETURN JUMPDEST CALLVALUE DUP1 ISZERO PUSH2 0x48D JUMPI PUSH1 0x0 DUP1 REVERT JUMPDEST POP PUSH2 0x496 PUSH2 0x2957 JUMP JUMPDEST PUSH1 0x40 MLOAD PUSH2 0x4A3 SWAP2 SWAP1 PUSH2 0x369F JUMP JUMPDEST PUSH1 0x40 MLOAD DUP1 SWAP2 SUB SWAP1 RETURN JUMPDEST CALLVALUE DUP1 ISZERO PUSH2 0x4B8 JUMPI PUSH1 0x0 DUP1 REVERT JUMPDEST POP PUSH2 0x4D3 PUSH1 0x4 DUP1 CALLDATASIZE SUB DUP2 ADD SWAP1 PUSH2 0x4CE SWAP2 SWAP1 PUSH2 0x2FD7 JUMP JUMPDEST PUSH2 0x2D12 JUMP JUMPDEST PUSH1 0x40 MLOAD PUSH2 0x4E0 SWAP2 SWAP1 PUSH2 0x36DC JUMP JUMPDEST PUSH1 0x40 MLOAD DUP1 SWAP2 SUB SWAP1 RETURN JUMPDEST CALLVALUE DUP1 ISZERO PUSH2 0x4F5 JUMPI PUSH1 0x0 DUP1 REVERT JUMPDEST POP PUSH2 0x510 PUSH1 0x4 DUP1 CALLDATASIZE SUB DUP2 ADD SWAP1 PUSH2 0x50B SWAP2 SWAP1 PUSH2 0x31FF JUMP JUMPDEST PUSH2 0x2D51 JUMP JUMPDEST STOP JUMPDEST PUSH1 0x0 DUP1 SLOAD SWAP1 PUSH2 0x100 EXP SWAP1 DIV PUSH20 0xFFFFFFFFFFFFFFFFFFFFFFFFFFFFFFFFFFFFFFFF AND PUSH20 0xFFFFFFFFFFFFFFFFFFFFFFFFFFFFFFFFFFFFFFFF AND CALLER PUSH20 0xFFFFFFFFFFFFFFFFFFFFFFFFFFFFFFFFFFFFFFFF AND EQ PUSH2 0x5A0 JUMPI PUSH1 0x40 MLOAD PUSH32 0x8C379A000000000000000000000000000000000000000000000000000000000 DUP2 MSTORE PUSH1 0x4 ADD PUSH2 0x597 SWAP1 PUSH2 0x386A JUMP JUMPDEST PUSH1 0x40 MLOAD DUP1 SWAP2 SUB SWAP1 REVERT JUMPDEST PUSH1 0x9 PUSH1 0x0 SWAP1 SLOAD SWAP1 PUSH2 0x100 EXP SWAP1 DIV PUSH1 0xFF AND PUSH2 0x5EF JUMPI PUSH1 0x40 MLOAD PUSH32 0x8C379A000000000000000000000000000000000000000000000000000000000 DUP2 MSTORE PUSH1 0x4 ADD PUSH2 0x5E6 SWAP1 PUSH2 0x38D6 JUMP JUMPDEST PUSH1 0x40 MLOAD DUP1 SWAP2 SUB SWAP1 REVERT JUMPDEST PUSH1 0x0 JUMPDEST PUSH1 0x3 SLOAD DUP2 LT ISZERO PUSH2 0x7AA JUMPI PUSH1 0x0 PUSH1 0x4 PUSH1 0x0 DUP4 DUP2 MSTORE PUSH1 0x20 ADD SWAP1 DUP2 MSTORE PUSH1 0x20 ADD PUSH1 0x0 KECCAK256 SWAP1 POP DUP1 PUSH1 0x6 ADD PUSH1 0x1 SWAP1 SLOAD SWAP1 PUSH2 0x100 EXP SWAP1 DIV PUSH1 0xFF AND DUP1 PUSH2 0x63E JUMPI POP DUP1 PUSH1 0x6 ADD PUSH1 0x2 SWAP1 SLOAD SWAP1 PUSH2 0x100 EXP SWAP1 DIV PUSH1 0xFF AND JUMPDEST ISZERO PUSH2 0x649 JUMPI POP PUSH2 0x79D JUMP JUMPDEST PUSH1 0x0 DUP2 PUSH1 0x6 ADD PUSH1 0x0 PUSH2 0x100 EXP DUP2 SLOAD DUP2 PUSH1 0xFF MUL NOT AND SWAP1 DUP4 ISZERO ISZERO MUL OR SWAP1 SSTORE POP PUSH1 0x1 DUP2 PUSH1 0x6 ADD PUSH1 0x1 PUSH2 0x100 EXP DUP2 SLOAD DUP2 PUSH1 0xFF MUL NOT AND SWAP1 DUP4 ISZERO ISZERO MUL OR SWAP1 SSTORE POP PUSH1 0x0 JUMPDEST DUP2 PUSH1 0x7 ADD DUP1 SLOAD SWAP1 POP DUP2 LT ISZERO PUSH2 0x79A JUMPI PUSH1 0x0 DUP3 PUSH1 0x7 ADD DUP3 DUP2 SLOAD DUP2 LT PUSH2 0x6AD JUMPI PUSH2 0x6AC PUSH2 0x38F6 JUMP JUMPDEST JUMPDEST SWAP1 PUSH1 0x0 MSTORE PUSH1 0x20 PUSH1 0x0 KECCAK256 ADD PUSH1 0x0 SWAP1 SLOAD SWAP1 PUSH2 0x100 EXP SWAP1 DIV PUSH20 0xFFFFFFFFFFFFFFFFFFFFFFFFFFFFFFFFFFFFFFFF AND SWAP1 POP PUSH1 0x0 DUP4 PUSH1 0x8 ADD PUSH1 0x0 DUP4 PUSH20 0xFFFFFFFFFFFFFFFFFFFFFFFFFFFFFFFFFFFFFFFF AND PUSH20 0xFFFFFFFFFFFFFFFFFFFFFFFFFFFFFFFFFFFFFFFF AND DUP2 MSTORE PUSH1 0x20 ADD SWAP1 DUP2 MSTORE PUSH1 0x20 ADD PUSH1 0x0 KECCAK256 SLOAD SWAP1 POP PUSH1 0x0 DUP5 PUSH1 0x3 ADD SLOAD DUP3 PUSH2 0x732 SWAP2 SWAP1 PUSH2 0x3954 JUMP JUMPDEST SWAP1 POP DUP1 PUSH1 0x8 PUSH1 0x0 DUP6 PUSH20 0xFFFFFFFFFFFFFFFFFFFFFFFFFFFFFFFFFFFFFFFF AND PUSH20 0xFFFFFFFFFFFFFFFFFFFFFFFFFFFFFFFFFFFFFFFF AND DUP2 MSTORE PUSH1 0x20 ADD SWAP1 DUP2 MSTORE PUSH1 0x20 ADD PUSH1 0x0 KECCAK256 PUSH1 0x0 DUP3 DUP3 SLOAD PUSH2 0x783 SWAP2 SWAP1 PUSH2 0x3996 JUMP JUMPDEST SWAP3 POP POP DUP2 SWAP1 SSTORE POP POP POP POP DUP1 DUP1 PUSH1 0x1 ADD SWAP2 POP POP PUSH2 0x686 JUMP JUMPDEST POP POP JUMPDEST DUP1 DUP1 PUSH1 0x1 ADD SWAP2 POP POP PUSH2 0x5F2 JUMP JUMPDEST POP PUSH1 0x0 PUSH1 0x9 PUSH1 0x0 PUSH2 0x100 EXP DUP2 SLOAD DUP2 PUSH1 0xFF MUL NOT AND SWAP1 DUP4 ISZERO ISZERO MUL OR SWAP1 SSTORE POP JUMP JUMPDEST PUSH1 0x4 PUSH1 0x20 MSTORE DUP1 PUSH1 0x0 MSTORE PUSH1 0x40 PUSH1 0x0 KECCAK256 PUSH1 0x0 SWAP2 POP SWAP1 POP DUP1 PUSH1 0x0 ADD SLOAD SWAP1 DUP1 PUSH1 0x1 ADD PUSH1 0x0 SWAP1 SLOAD SWAP1 PUSH2 0x100 EXP SWAP1 DIV PUSH20 0xFFFFFFFFFFFFFFFFFFFFFFFFFFFFFFFFFFFFFFFF AND SWAP1 DUP1 PUSH1 0x2 ADD DUP1 SLOAD PUSH2 0x817 SWAP1 PUSH2 0x39F9 JUMP JUMPDEST DUP1 PUSH1 0x1F ADD PUSH1 0x20 DUP1 SWAP2 DIV MUL PUSH1 0x20 ADD PUSH1 0x40 MLOAD SWAP1 DUP2 ADD PUSH1 0x40 MSTORE DUP1 SWAP3 SWAP2 SWAP1 DUP2 DUP2 MSTORE PUSH1 0x20 ADD DUP3 DUP1 SLOAD PUSH2 0x843 SWAP1 PUSH2 0x39F9 JUMP JUMPDEST DUP1 ISZERO PUSH2 0x890 JUMPI DUP1 PUSH1 0x1F LT PUSH2 0x865 JUMPI PUSH2 0x100 DUP1 DUP4 SLOAD DIV MUL DUP4 MSTORE SWAP2 PUSH1 0x20 ADD SWAP2 PUSH2 0x890 JUMP JUMPDEST DUP3 ADD SWAP2 SWAP1 PUSH1 0x0 MSTORE PUSH1 0x20 PUSH1 0x0 KECCAK256 SWAP1 JUMPDEST DUP2 SLOAD DUP2 MSTORE SWAP1 PUSH1 0x1 ADD SWAP1 PUSH1 0x20 ADD DUP1 DUP4 GT PUSH2 0x873 JUMPI DUP3 SWAP1 SUB PUSH1 0x1F AND DUP3 ADD SWAP2 JUMPDEST POP POP POP POP POP SWAP1 DUP1 PUSH1 0x3 ADD SLOAD SWAP1 DUP1 PUSH1 0x4 ADD SLOAD SWAP1 DUP1 PUSH1 0x5 ADD SLOAD SWAP1 DUP1 PUSH1 0x6 ADD PUSH1 0x0 SWAP1 SLOAD SWAP1 PUSH2 0x100 EXP SWAP1 DIV PUSH1 0xFF AND SWAP1 DUP1 PUSH1 0x6 ADD PUSH1 0x1 SWAP1 SLOAD SWAP1 PUSH2 0x100 EXP SWAP1 DIV PUSH1 0xFF AND SWAP1 DUP1 PUSH1 0x6 ADD PUSH1 0x2 SWAP1 SLOAD SWAP1 PUSH2 0x100 EXP SWAP1 DIV PUSH1 0xFF AND SWAP1 POP DUP10 JUMP JUMPDEST PUSH1 0x0 DUP1 SLOAD SWAP1 PUSH2 0x100 EXP SWAP1 DIV PUSH20 0xFFFFFFFFFFFFFFFFFFFFFFFFFFFFFFFFFFFFFFFF AND PUSH20 0xFFFFFFFFFFFFFFFFFFFFFFFFFFFFFFFFFFFFFFFF AND CALLER PUSH20 0xFFFFFFFFFFFFFFFFFFFFFFFFFFFFFFFFFFFFFFFF AND SUB PUSH2 0x973 JUMPI PUSH1 0x40 MLOAD PUSH32 0x8C379A000000000000000000000000000000000000000000000000000000000 DUP2 MSTORE PUSH1 0x4 ADD PUSH2 0x96A SWAP1 PUSH2 0x3A9C JUMP JUMPDEST PUSH1 0x40 MLOAD DUP1 SWAP2 SUB SWAP1 REVERT JUMPDEST PUSH1 0x6 PUSH1 0x0 CALLER PUSH20 0xFFFFFFFFFFFFFFFFFFFFFFFFFFFFFFFFFFFFFFFF AND PUSH20 0xFFFFFFFFFFFFFFFFFFFFFFFFFFFFFFFFFFFFFFFF AND DUP2 MSTORE PUSH1 0x20 ADD SWAP1 DUP2 MSTORE PUSH1 0x20 ADD PUSH1 0x0 KECCAK256 PUSH1 0x0 SWAP1 SLOAD SWAP1 PUSH2 0x100 EXP SWAP1 DIV PUSH1 0xFF AND ISZERO PUSH2 0xA00 JUMPI PUSH1 0x40 MLOAD PUSH32 0x8C379A000000000000000000000000000000000000000000000000000000000 DUP2 MSTORE PUSH1 0x4 ADD PUSH2 0x9F7 SWAP1 PUSH2 0x3B08 JUMP JUMPDEST PUSH1 0x40 MLOAD DUP1 SWAP2 SUB SWAP1 REVERT JUMPDEST DUP1 PUSH1 0x4 PUSH1 0x0 DUP3 DUP2 MSTORE PUSH1 0x20 ADD SWAP1 DUP2 MSTORE PUSH1 0x20 ADD PUSH1 0x0 KECCAK256 PUSH1 0x6 ADD PUSH1 0x0 SWAP1 SLOAD SWAP1 PUSH2 0x100 EXP SWAP1 DIV PUSH1 0xFF AND PUSH2 0xA64 JUMPI PUSH1 0x40 MLOAD PUSH32 0x8C379A000000000000000000000000000000000000000000000000000000000 DUP2 MSTORE PUSH1 0x4 ADD PUSH2 0xA5B SWAP1 PUSH2 0x3B74 JUMP JUMPDEST PUSH1 0x40 MLOAD DUP1 SWAP2 SUB SWAP1 REVERT JUMPDEST DUP2 PUSH1 0x4 PUSH1 0x0 DUP3 DUP2 MSTORE PUSH1 0x20 ADD SWAP1 DUP2 MSTORE PUSH1 0x20 ADD PUSH1 0x0 KECCAK256 PUSH1 0x6 ADD PUSH1 0x1 SWAP1 SLOAD SWAP1 PUSH2 0x100 EXP SWAP1 DIV PUSH1 0xFF AND ISZERO PUSH2 0xAC9 JUMPI PUSH1 0x40 MLOAD PUSH32 0x8C379A000000000000000000000000000000000000000000000000000000000 DUP2 MSTORE PUSH1 0x4 ADD PUSH2 0xAC0 SWAP1 PUSH2 0x3BE0 JUMP JUMPDEST PUSH1 0x40 MLOAD DUP1 SWAP2 SUB SWAP1 REVERT JUMPDEST DUP3 PUSH1 0x4 PUSH1 0x0 DUP3 DUP2 MSTORE PUSH1 0x20 ADD SWAP1 DUP2 MSTORE PUSH1 0x20 ADD PUSH1 0x0 KECCAK256 PUSH1 0x6 ADD PUSH1 0x2 SWAP1 SLOAD SWAP1 PUSH2 0x100 EXP SWAP1 DIV PUSH1 0xFF AND ISZERO PUSH2 0xB2E JUMPI PUSH1 0x40 MLOAD PUSH32 0x8C379A000000000000000000000000000000000000000000000000000000000 DUP2 MSTORE PUSH1 0x4 ADD PUSH2 0xB25 SWAP1 PUSH2 0x3C4C JUMP JUMPDEST PUSH1 0x40 MLOAD DUP1 SWAP2 SUB SWAP1 REVERT JUMPDEST PUSH1 0x9 PUSH1 0x0 SWAP1 SLOAD SWAP1 PUSH2 0x100 EXP SWAP1 DIV PUSH1 0xFF AND PUSH2 0xB7D JUMPI PUSH1 0x40 MLOAD PUSH32 0x8C379A000000000000000000000000000000000000000000000000000000000 DUP2 MSTORE PUSH1 0x4 ADD PUSH2 0xB74 SWAP1 PUSH2 0x38D6 JUMP JUMPDEST PUSH1 0x40 MLOAD DUP1 SWAP2 SUB SWAP1 REVERT JUMPDEST PUSH1 0x0 PUSH1 0x4 PUSH1 0x0 DUP7 DUP2 MSTORE PUSH1 0x20 ADD SWAP1 DUP2 MSTORE PUSH1 0x20 ADD PUSH1 0x0 KECCAK256 SWAP1 POP DUP1 PUSH1 0x1 ADD PUSH1 0x0 SWAP1 SLOAD SWAP1 PUSH2 0x100 EXP SWAP1 DIV PUSH20 0xFFFFFFFFFFFFFFFFFFFFFFFFFFFFFFFFFFFFFFFF AND PUSH20 0xFFFFFFFFFFFFFFFFFFFFFFFFFFFFFFFFFFFFFFFF AND CALLER PUSH20 0xFFFFFFFFFFFFFFFFFFFFFFFFFFFFFFFFFFFFFFFF AND SUB PUSH2 0xC26 JUMPI PUSH1 0x40 MLOAD PUSH32 0x8C379A000000000000000000000000000000000000000000000000000000000 DUP2 MSTORE PUSH1 0x4 ADD PUSH2 0xC1D SWAP1 PUSH2 0x3CB8 JUMP JUMPDEST PUSH1 0x40 MLOAD DUP1 SWAP2 SUB SWAP1 REVERT JUMPDEST PUSH1 0x0 DUP7 DUP3 PUSH1 0x3 ADD SLOAD PUSH2 0xC38 SWAP2 SWAP1 PUSH2 0x3954 JUMP JUMPDEST SWAP1 POP DUP1 CALLVALUE EQ PUSH2 0xC7C JUMPI PUSH1 0x40 MLOAD PUSH32 0x8C379A000000000000000000000000000000000000000000000000000000000 DUP2 MSTORE PUSH1 0x4 ADD PUSH2 0xC73 SWAP1 PUSH2 0x3D24 JUMP JUMPDEST PUSH1 0x40 MLOAD DUP1 SWAP2 SUB SWAP1 REVERT JUMPDEST DUP7 DUP3 PUSH1 0x5 ADD PUSH1 0x0 DUP3 DUP3 SLOAD PUSH2 0xC90 SWAP2 SWAP1 PUSH2 0x3996 JUMP JUMPDEST SWAP3 POP POP DUP2 SWAP1 SSTORE POP PUSH1 0x0 DUP3 PUSH1 0x8 ADD PUSH1 0x0 CALLER PUSH20 0xFFFFFFFFFFFFFFFFFFFFFFFFFFFFFFFFFFFFFFFF AND PUSH20 0xFFFFFFFFFFFFFFFFFFFFFFFFFFFFFFFFFFFFFFFF AND DUP2 MSTORE PUSH1 0x20 ADD SWAP1 DUP2 MSTORE PUSH1 0x20 ADD PUSH1 0x0 KECCAK256 SLOAD SUB PUSH2 0xD46 JUMPI DUP2 PUSH1 0x7 ADD CALLER SWAP1 DUP1 PUSH1 0x1 DUP2 SLOAD ADD DUP1 DUP3 SSTORE DUP1 SWAP2 POP POP PUSH1 0x1 SWAP1 SUB SWAP1 PUSH1 0x0 MSTORE PUSH1 0x20 PUSH1 0x0 KECCAK256 ADD PUSH1 0x0 SWAP1 SWAP2 SWAP1 SWAP2 SWAP1 SWAP2 PUSH2 0x100 EXP DUP2 SLOAD DUP2 PUSH20 0xFFFFFFFFFFFFFFFFFFFFFFFFFFFFFFFFFFFFFFFF MUL NOT AND SWAP1 DUP4 PUSH20 0xFFFFFFFFFFFFFFFFFFFFFFFFFFFFFFFFFFFFFFFF AND MUL OR SWAP1 SSTORE POP JUMPDEST DUP7 DUP3 PUSH1 0x8 ADD PUSH1 0x0 CALLER PUSH20 0xFFFFFFFFFFFFFFFFFFFFFFFFFFFFFFFFFFFFFFFF AND PUSH20 0xFFFFFFFFFFFFFFFFFFFFFFFFFFFFFFFFFFFFFFFF AND DUP2 MSTORE PUSH1 0x20 ADD SWAP1 DUP2 MSTORE PUSH1 0x20 ADD PUSH1 0x0 KECCAK256 PUSH1 0x0 DUP3 DUP3 SLOAD PUSH2 0xD97 SWAP2 SWAP1 PUSH2 0x3996 JUMP JUMPDEST SWAP3 POP POP DUP2 SWAP1 SSTORE POP PUSH32 0xD4A7A37D339805413B4085E0F8E0932DFB0A4F84F08F98A6E53673B5EE8EEE15 DUP7 CALLER DUP10 PUSH1 0x40 MLOAD PUSH2 0xDD1 SWAP4 SWAP3 SWAP2 SWAP1 PUSH2 0x3D44 JUMP JUMPDEST PUSH1 0x40 MLOAD DUP1 SWAP2 SUB SWAP1 LOG1 POP POP POP POP POP POP POP JUMP JUMPDEST PUSH1 0x60 DUP1 PUSH1 0x0 DUP1 JUMPDEST PUSH1 0x3 SLOAD DUP2 LT ISZERO PUSH2 0xE6B JUMPI PUSH1 0x0 PUSH1 0x4 PUSH1 0x0 DUP4 DUP2 MSTORE PUSH1 0x20 ADD SWAP1 DUP2 MSTORE PUSH1 0x20 ADD PUSH1 0x0 KECCAK256 PUSH1 0x8 ADD PUSH1 0x0 DUP8 PUSH20 0xFFFFFFFFFFFFFFFFFFFFFFFFFFFFFFFFFFFFFFFF AND PUSH20 0xFFFFFFFFFFFFFFFFFFFFFFFFFFFFFFFFFFFFFFFF AND DUP2 MSTORE PUSH1 0x20 ADD SWAP1 DUP2 MSTORE PUSH1 0x20 ADD PUSH1 0x0 KECCAK256 SLOAD GT ISZERO PUSH2 0xE5E JUMPI DUP2 DUP1 PUSH2 0xE5A SWAP1 PUSH2 0x3D7B JUMP JUMPDEST SWAP3 POP POP JUMPDEST DUP1 DUP1 PUSH1 0x1 ADD SWAP2 POP POP PUSH2 0xDE9 JUMP JUMPDEST POP DUP1 PUSH8 0xFFFFFFFFFFFFFFFF DUP2 GT ISZERO PUSH2 0xE86 JUMPI PUSH2 0xE85 PUSH2 0x332B JUMP JUMPDEST JUMPDEST PUSH1 0x40 MLOAD SWAP1 DUP1 DUP3 MSTORE DUP1 PUSH1 0x20 MUL PUSH1 0x20 ADD DUP3 ADD PUSH1 0x40 MSTORE DUP1 ISZERO PUSH2 0xEB4 JUMPI DUP2 PUSH1 0x20 ADD PUSH1 0x20 DUP3 MUL DUP1 CALLDATASIZE DUP4 CALLDATACOPY DUP1 DUP3 ADD SWAP2 POP POP SWAP1 POP JUMPDEST POP SWAP3 POP DUP1 PUSH8 0xFFFFFFFFFFFFFFFF DUP2 GT ISZERO PUSH2 0xED1 JUMPI PUSH2 0xED0 PUSH2 0x332B JUMP JUMPDEST JUMPDEST PUSH1 0x40 MLOAD SWAP1 DUP1 DUP3 MSTORE DUP1 PUSH1 0x20 MUL PUSH1 0x20 ADD DUP3 ADD PUSH1 0x40 MSTORE DUP1 ISZERO PUSH2 0xEFF JUMPI DUP2 PUSH1 0x20 ADD PUSH1 0x20 DUP3 MUL DUP1 CALLDATASIZE DUP4 CALLDATACOPY DUP1 DUP3 ADD SWAP2 POP POP SWAP1 POP JUMPDEST POP SWAP2 POP PUSH1 0x0 DUP1 JUMPDEST PUSH1 0x3 SLOAD DUP2 LT ISZERO PUSH2 0xFCE JUMPI PUSH1 0x0 PUSH1 0x4 PUSH1 0x0 DUP4 DUP2 MSTORE PUSH1 0x20 ADD SWAP1 DUP2 MSTORE PUSH1 0x20 ADD PUSH1 0x0 KECCAK256 PUSH1 0x8 ADD PUSH1 0x0 DUP9 PUSH20 0xFFFFFFFFFFFFFFFFFFFFFFFFFFFFFFFFFFFFFFFF AND PUSH20 0xFFFFFFFFFFFFFFFFFFFFFFFFFFFFFFFFFFFFFFFF AND DUP2 MSTORE PUSH1 0x20 ADD SWAP1 DUP2 MSTORE PUSH1 0x20 ADD PUSH1 0x0 KECCAK256 SLOAD SWAP1 POP PUSH1 0x0 DUP2 GT ISZERO PUSH2 0xFC0 JUMPI DUP2 DUP7 DUP5 DUP2 MLOAD DUP2 LT PUSH2 0xF85 JUMPI PUSH2 0xF84 PUSH2 0x38F6 JUMP JUMPDEST JUMPDEST PUSH1 0x20 MUL PUSH1 0x20 ADD ADD DUP2 DUP2 MSTORE POP POP DUP1 DUP6 DUP5 DUP2 MLOAD DUP2 LT PUSH2 0xFA5 JUMPI PUSH2 0xFA4 PUSH2 0x38F6 JUMP JUMPDEST JUMPDEST PUSH1 0x20 MUL PUSH1 0x20 ADD ADD DUP2 DUP2 MSTORE POP POP DUP3 DUP1 PUSH2 0xFBC SWAP1 PUSH2 0x3D7B JUMP JUMPDEST SWAP4 POP POP JUMPDEST POP DUP1 DUP1 PUSH1 0x1 ADD SWAP2 POP POP PUSH2 0xF06 JUMP JUMPDEST POP POP POP SWAP2 POP SWAP2 JUMP JUMPDEST PUSH1 0x0 DUP1 SLOAD SWAP1 PUSH2 0x100 EXP SWAP1 DIV PUSH20 0xFFFFFFFFFFFFFFFFFFFFFFFFFFFFFFFFFFFFFFFF AND PUSH20 0xFFFFFFFFFFFFFFFFFFFFFFFFFFFFFFFFFFFFFFFF AND CALLER PUSH20 0xFFFFFFFFFFFFFFFFFFFFFFFFFFFFFFFFFFFFFFFF AND SUB PUSH2 0x1064 JUMPI PUSH1 0x40 MLOAD PUSH32 0x8C379A000000000000000000000000000000000000000000000000000000000 DUP2 MSTORE PUSH1 0x4 ADD PUSH2 0x105B SWAP1 PUSH2 0x3A9C JUMP JUMPDEST PUSH1 0x40 MLOAD DUP1 SWAP2 SUB SWAP1 REVERT JUMPDEST PUSH1 0x6 PUSH1 0x0 CALLER PUSH20 0xFFFFFFFFFFFFFFFFFFFFFFFFFFFFFFFFFFFFFFFF AND PUSH20 0xFFFFFFFFFFFFFFFFFFFFFFFFFFFFFFFFFFFFFFFF AND DUP2 MSTORE PUSH1 0x20 ADD SWAP1 DUP2 MSTORE PUSH1 0x20 ADD PUSH1 0x0 KECCAK256 PUSH1 0x0 SWAP1 SLOAD SWAP1 PUSH2 0x100 EXP SWAP1 DIV PUSH1 0xFF AND ISZERO PUSH2 0x10F1 JUMPI PUSH1 0x40 MLOAD PUSH32 0x8C379A000000000000000000000000000000000000000000000000000000000 DUP2 MSTORE PUSH1 0x4 ADD PUSH2 0x10E8 SWAP1 PUSH2 0x3B08 JUMP JUMPDEST PUSH1 0x40 MLOAD DUP1 SWAP2 SUB SWAP1 REVERT JUMPDEST PUSH1 0x1 SLOAD CALLVALUE EQ PUSH2 0x1135 JUMPI PUSH1 0x40 MLOAD PUSH32 0x8C379A000000000000000000000000000000000000000000000000000000000 DUP2 MSTORE PUSH1 0x4 ADD PUSH2 0x112C SWAP1 PUSH2 0x3E0F JUMP JUMPDEST PUSH1 0x40 MLOAD DUP1 SWAP2 SUB SWAP1 REVERT JUMPDEST DUP1 PUSH1 0x0 DUP2 GT PUSH2 0x1179 JUMPI PUSH1 0x40 MLOAD PUSH32 0x8C379A000000000000000000000000000000000000000000000000000000000 DUP2 MSTORE PUSH1 0x4 ADD PUSH2 0x1170 SWAP1 PUSH2 0x3EA1 JUMP JUMPDEST PUSH1 0x40 MLOAD DUP1 SWAP2 SUB SWAP1 REVERT JUMPDEST PUSH1 0x9 PUSH1 0x0 SWAP1 SLOAD SWAP1 PUSH2 0x100 EXP SWAP1 DIV PUSH1 0xFF AND PUSH2 0x11C8 JUMPI PUSH1 0x40 MLOAD PUSH32 0x8C379A000000000000000000000000000000000000000000000000000000000 DUP2 MSTORE PUSH1 0x4 ADD PUSH2 0x11BF SWAP1 PUSH2 0x38D6 JUMP JUMPDEST PUSH1 0x40 MLOAD DUP1 SWAP2 SUB SWAP1 REVERT JUMPDEST PUSH1 0x0 PUSH1 0x4 PUSH1 0x0 PUSH1 0x3 SLOAD DUP2 MSTORE PUSH1 0x20 ADD SWAP1 DUP2 MSTORE PUSH1 0x20 ADD PUSH1 0x0 KECCAK256 SWAP1 POP PUSH1 0x3 SLOAD DUP2 PUSH1 0x0 ADD DUP2 SWAP1 SSTORE POP CALLER DUP2 PUSH1 0x1 ADD PUSH1 0x0 PUSH2 0x100 EXP DUP2 SLOAD DUP2 PUSH20 0xFFFFFFFFFFFFFFFFFFFFFFFFFFFFFFFFFFFFFFFF MUL NOT AND SWAP1 DUP4 PUSH20 0xFFFFFFFFFFFFFFFFFFFFFFFFFFFFFFFFFFFFFFFF AND MUL OR SWAP1 SSTORE POP DUP5 DUP2 PUSH1 0x2 ADD SWAP1 DUP2 PUSH2 0x1240 SWAP2 SWAP1 PUSH2 0x406D JUMP JUMPDEST POP DUP4 DUP2 PUSH1 0x3 ADD DUP2 SWAP1 SSTORE POP DUP3 DUP2 PUSH1 0x4 ADD DUP2 SWAP1 SSTORE POP PUSH1 0x1 DUP2 PUSH1 0x6 ADD PUSH1 0x0 PUSH2 0x100 EXP DUP2 SLOAD DUP2 PUSH1 0xFF MUL NOT AND SWAP1 DUP4 ISZERO ISZERO MUL OR SWAP1 SSTORE POP PUSH1 0x3 PUSH1 0x0 DUP2 SLOAD DUP1 SWAP3 SWAP2 SWAP1 PUSH2 0x1283 SWAP1 PUSH2 0x3D7B JUMP JUMPDEST SWAP2 SWAP1 POP SSTORE POP PUSH1 0x1 SLOAD PUSH1 0x2 PUSH1 0x0 DUP3 DUP3 SLOAD PUSH2 0x129C SWAP2 SWAP1 PUSH2 0x3996 JUMP JUMPDEST SWAP3 POP POP DUP2 SWAP1 SSTORE POP PUSH32 0xC04C663886CAE794DC52158F70FE6C8EE3B0140D4F48647282F9B693FF688A65 PUSH1 0x3 SLOAD CALLER DUP8 PUSH1 0x40 MLOAD PUSH2 0x12D8 SWAP4 SWAP3 SWAP2 SWAP1 PUSH2 0x413F JUMP JUMPDEST PUSH1 0x40 MLOAD DUP1 SWAP2 SUB SWAP1 LOG1 POP POP POP POP POP JUMP JUMPDEST PUSH1 0x60 PUSH1 0x9 PUSH1 0x0 SWAP1 SLOAD SWAP1 PUSH2 0x100 EXP SWAP1 DIV PUSH1 0xFF AND PUSH2 0x1338 JUMPI PUSH1 0x40 MLOAD PUSH32 0x8C379A000000000000000000000000000000000000000000000000000000000 DUP2 MSTORE PUSH1 0x4 ADD PUSH2 0x132F SWAP1 PUSH2 0x38D6 JUMP JUMPDEST PUSH1 0x40 MLOAD DUP1 SWAP2 SUB SWAP1 REVERT JUMPDEST PUSH1 0x0 DUP1 JUMPDEST PUSH1 0x3 SLOAD DUP2 LT ISZERO PUSH2 0x13B8 JUMPI PUSH1 0x4 PUSH1 0x0 DUP3 DUP2 MSTORE PUSH1 0x20 ADD SWAP1 DUP2 MSTORE PUSH1 0x20 ADD PUSH1 0x0 KECCAK256 PUSH1 0x6 ADD PUSH1 0x2 SWAP1 SLOAD SWAP1 PUSH2 0x100 EXP SWAP1 DIV PUSH1 0xFF AND DUP1 ISZERO PUSH2 0x1397 JUMPI POP PUSH1 0x4 PUSH1 0x0 DUP3 DUP2 MSTORE PUSH1 0x20 ADD SWAP1 DUP2 MSTORE PUSH1 0x20 ADD PUSH1 0x0 KECCAK256 PUSH1 0x6 ADD PUSH1 0x1 SWAP1 SLOAD SWAP1 PUSH2 0x100 EXP SWAP1 DIV PUSH1 0xFF AND ISZERO JUMPDEST ISZERO PUSH2 0x13AB JUMPI DUP2 DUP1 PUSH2 0x13A7 SWAP1 PUSH2 0x3D7B JUMP JUMPDEST SWAP3 POP POP JUMPDEST DUP1 DUP1 PUSH1 0x1 ADD SWAP2 POP POP PUSH2 0x133C JUMP JUMPDEST POP PUSH1 0x0 DUP2 PUSH8 0xFFFFFFFFFFFFFFFF DUP2 GT ISZERO PUSH2 0x13D5 JUMPI PUSH2 0x13D4 PUSH2 0x332B JUMP JUMPDEST JUMPDEST PUSH1 0x40 MLOAD SWAP1 DUP1 DUP3 MSTORE DUP1 PUSH1 0x20 MUL PUSH1 0x20 ADD DUP3 ADD PUSH1 0x40 MSTORE DUP1 ISZERO PUSH2 0x140E JUMPI DUP2 PUSH1 0x20 ADD JUMPDEST PUSH2 0x13FB PUSH2 0x2F2E JUMP JUMPDEST DUP2 MSTORE PUSH1 0x20 ADD SWAP1 PUSH1 0x1 SWAP1 SUB SWAP1 DUP2 PUSH2 0x13F3 JUMPI SWAP1 POP JUMPDEST POP SWAP1 POP PUSH1 0x0 DUP1 JUMPDEST PUSH1 0x3 SLOAD DUP2 LT ISZERO PUSH2 0x1696 JUMPI PUSH1 0x4 PUSH1 0x0 DUP3 DUP2 MSTORE PUSH1 0x20 ADD SWAP1 DUP2 MSTORE PUSH1 0x20 ADD PUSH1 0x0 KECCAK256 PUSH1 0x6 ADD PUSH1 0x2 SWAP1 SLOAD SWAP1 PUSH2 0x100 EXP SWAP1 DIV PUSH1 0xFF AND DUP1 ISZERO PUSH2 0x1470 JUMPI POP PUSH1 0x4 PUSH1 0x0 DUP3 DUP2 MSTORE PUSH1 0x20 ADD SWAP1 DUP2 MSTORE PUSH1 0x20 ADD PUSH1 0x0 KECCAK256 PUSH1 0x6 ADD PUSH1 0x1 SWAP1 SLOAD SWAP1 PUSH2 0x100 EXP SWAP1 DIV PUSH1 0xFF AND ISZERO JUMPDEST ISZERO PUSH2 0x1689 JUMPI PUSH1 0x40 MLOAD DUP1 PUSH2 0x100 ADD PUSH1 0x40 MSTORE DUP1 PUSH1 0x4 PUSH1 0x0 DUP5 DUP2 MSTORE PUSH1 0x20 ADD SWAP1 DUP2 MSTORE PUSH1 0x20 ADD PUSH1 0x0 KECCAK256 PUSH1 0x0 ADD SLOAD DUP2 MSTORE PUSH1 0x20 ADD PUSH1 0x4 PUSH1 0x0 DUP5 DUP2 MSTORE PUSH1 0x20 ADD SWAP1 DUP2 MSTORE PUSH1 0x20 ADD PUSH1 0x0 KECCAK256 PUSH1 0x1 ADD PUSH1 0x0 SWAP1 SLOAD SWAP1 PUSH2 0x100 EXP SWAP1 DIV PUSH20 0xFFFFFFFFFFFFFFFFFFFFFFFFFFFFFFFFFFFFFFFF AND PUSH20 0xFFFFFFFFFFFFFFFFFFFFFFFFFFFFFFFFFFFFFFFF AND DUP2 MSTORE PUSH1 0x20 ADD PUSH1 0x4 PUSH1 0x0 DUP5 DUP2 MSTORE PUSH1 0x20 ADD SWAP1 DUP2 MSTORE PUSH1 0x20 ADD PUSH1 0x0 KECCAK256 PUSH1 0x2 ADD DUP1 SLOAD PUSH2 0x1510 SWAP1 PUSH2 0x39F9 JUMP JUMPDEST DUP1 PUSH1 0x1F ADD PUSH1 0x20 DUP1 SWAP2 DIV MUL PUSH1 0x20 ADD PUSH1 0x40 MLOAD SWAP1 DUP2 ADD PUSH1 0x40 MSTORE DUP1 SWAP3 SWAP2 SWAP1 DUP2 DUP2 MSTORE PUSH1 0x20 ADD DUP3 DUP1 SLOAD PUSH2 0x153C SWAP1 PUSH2 0x39F9 JUMP JUMPDEST DUP1 ISZERO PUSH2 0x1589 JUMPI DUP1 PUSH1 0x1F LT PUSH2 0x155E JUMPI PUSH2 0x100 DUP1 DUP4 SLOAD DIV MUL DUP4 MSTORE SWAP2 PUSH1 0x20 ADD SWAP2 PUSH2 0x1589 JUMP JUMPDEST DUP3 ADD SWAP2 SWAP1 PUSH1 0x0 MSTORE PUSH1 0x20 PUSH1 0x0 KECCAK256 SWAP1 JUMPDEST DUP2 SLOAD DUP2 MSTORE SWAP1 PUSH1 0x1 ADD SWAP1 PUSH1 0x20 ADD DUP1 DUP4 GT PUSH2 0x156C JUMPI DUP3 SWAP1 SUB PUSH1 0x1F AND DUP3 ADD SWAP2 JUMPDEST POP POP POP POP POP DUP2 MSTORE PUSH1 0x20 ADD PUSH1 0x4 PUSH1 0x0 DUP5 DUP2 MSTORE PUSH1 0x20 ADD SWAP1 DUP2 MSTORE PUSH1 0x20 ADD PUSH1 0x0 KECCAK256 PUSH1 0x3 ADD SLOAD DUP2 MSTORE PUSH1 0x20 ADD PUSH1 0x4 PUSH1 0x0 DUP5 DUP2 MSTORE PUSH1 0x20 ADD SWAP1 DUP2 MSTORE PUSH1 0x20 ADD PUSH1 0x0 KECCAK256 PUSH1 0x5 ADD SLOAD PUSH1 0x4 PUSH1 0x0 DUP6 DUP2 MSTORE PUSH1 0x20 ADD SWAP1 DUP2 MSTORE PUSH1 0x20 ADD PUSH1 0x0 KECCAK256 PUSH1 0x4 ADD SLOAD PUSH2 0x15E7 SWAP2 SWAP1 PUSH2 0x417D JUMP JUMPDEST DUP2 MSTORE PUSH1 0x20 ADD PUSH1 0x4 PUSH1 0x0 DUP5 DUP2 MSTORE PUSH1 0x20 ADD SWAP1 DUP2 MSTORE PUSH1 0x20 ADD PUSH1 0x0 KECCAK256 PUSH1 0x5 ADD SLOAD DUP2 MSTORE PUSH1 0x20 ADD PUSH1 0x4 PUSH1 0x0 DUP5 DUP2 MSTORE PUSH1 0x20 ADD SWAP1 DUP2 MSTORE PUSH1 0x20 ADD PUSH1 0x0 KECCAK256 PUSH1 0x6 ADD PUSH1 0x2 SWAP1 SLOAD SWAP1 PUSH2 0x100 EXP SWAP1 DIV PUSH1 0xFF AND ISZERO ISZERO DUP2 MSTORE PUSH1 0x20 ADD PUSH1 0x4 PUSH1 0x0 DUP5 DUP2 MSTORE PUSH1 0x20 ADD SWAP1 DUP2 MSTORE PUSH1 0x20 ADD PUSH1 0x0 KECCAK256 PUSH1 0x6 ADD PUSH1 0x1 SWAP1 SLOAD SWAP1 PUSH2 0x100 EXP SWAP1 DIV PUSH1 0xFF AND ISZERO ISZERO DUP2 MSTORE POP DUP4 DUP4 DUP2 MLOAD DUP2 LT PUSH2 0x166F JUMPI PUSH2 0x166E PUSH2 0x38F6 JUMP JUMPDEST JUMPDEST PUSH1 0x20 MUL PUSH1 0x20 ADD ADD DUP2 SWAP1 MSTORE POP DUP2 DUP1 PUSH2 0x1685 SWAP1 PUSH2 0x3D7B JUMP JUMPDEST SWAP3 POP POP JUMPDEST DUP1 DUP1 PUSH1 0x1 ADD SWAP2 POP POP PUSH2 0x1415 JUMP JUMPDEST POP DUP2 SWAP4 POP POP POP POP SWAP1 JUMP JUMPDEST DUP1 PUSH1 0x4 PUSH1 0x0 DUP3 DUP2 MSTORE PUSH1 0x20 ADD SWAP1 DUP2 MSTORE PUSH1 0x20 ADD PUSH1 0x0 KECCAK256 PUSH1 0x6 ADD PUSH1 0x0 SWAP1 SLOAD SWAP1 PUSH2 0x100 EXP SWAP1 DIV PUSH1 0xFF AND PUSH2 0x1704 JUMPI PUSH1 0x40 MLOAD PUSH32 0x8C379A000000000000000000000000000000000000000000000000000000000 DUP2 MSTORE PUSH1 0x4 ADD PUSH2 0x16FB SWAP1 PUSH2 0x3B74 JUMP JUMPDEST PUSH1 0x40 MLOAD DUP1 SWAP2 SUB SWAP1 REVERT JUMPDEST DUP2 PUSH1 0x4 PUSH1 0x0 DUP3 DUP2 MSTORE PUSH1 0x20 ADD SWAP1 DUP2 MSTORE PUSH1 0x20 ADD PUSH1 0x0 KECCAK256 PUSH1 0x6 ADD PUSH1 0x2 SWAP1 SLOAD SWAP1 PUSH2 0x100 EXP SWAP1 DIV PUSH1 0xFF AND ISZERO PUSH2 0x1769 JUMPI PUSH1 0x40 MLOAD PUSH32 0x8C379A000000000000000000000000000000000000000000000000000000000 DUP2 MSTORE PUSH1 0x4 ADD PUSH2 0x1760 SWAP1 PUSH2 0x3C4C JUMP JUMPDEST PUSH1 0x40 MLOAD DUP1 SWAP2 SUB SWAP1 REVERT JUMPDEST PUSH1 0x9 PUSH1 0x0 SWAP1 SLOAD SWAP1 PUSH2 0x100 EXP SWAP1 DIV PUSH1 0xFF AND PUSH2 0x17B8 JUMPI PUSH1 0x40 MLOAD PUSH32 0x8C379A000000000000000000000000000000000000000000000000000000000 DUP2 MSTORE PUSH1 0x4 ADD PUSH2 0x17AF SWAP1 PUSH2 0x38D6 JUMP JUMPDEST PUSH1 0x40 MLOAD DUP1 SWAP2 SUB SWAP1 REVERT JUMPDEST PUSH1 0x0 PUSH1 0x4 PUSH1 0x0 DUP6 DUP2 MSTORE PUSH1 0x20 ADD SWAP1 DUP2 MSTORE PUSH1 0x20 ADD PUSH1 0x0 KECCAK256 SWAP1 POP DUP1 PUSH1 0x1 ADD PUSH1 0x0 SWAP1 SLOAD SWAP1 PUSH2 0x100 EXP SWAP1 DIV PUSH20 0xFFFFFFFFFFFFFFFFFFFFFFFFFFFFFFFFFFFFFFFF AND PUSH20 0xFFFFFFFFFFFFFFFFFFFFFFFFFFFFFFFFFFFFFFFF AND CALLER PUSH20 0xFFFFFFFFFFFFFFFFFFFFFFFFFFFFFFFFFFFFFFFF AND EQ DUP1 PUSH2 0x1878 JUMPI POP PUSH1 0x0 DUP1 SLOAD SWAP1 PUSH2 0x100 EXP SWAP1 DIV PUSH20 0xFFFFFFFFFFFFFFFFFFFFFFFFFFFFFFFFFFFFFFFF AND PUSH20 0xFFFFFFFFFFFFFFFFFFFFFFFFFFFFFFFFFFFFFFFF AND CALLER PUSH20 0xFFFFFFFFFFFFFFFFFFFFFFFFFFFFFFFFFFFFFFFF AND EQ JUMPDEST PUSH2 0x18B7 JUMPI PUSH1 0x40 MLOAD PUSH32 0x8C379A000000000000000000000000000000000000000000000000000000000 DUP2 MSTORE PUSH1 0x4 ADD PUSH2 0x18AE SWAP1 PUSH2 0x4223 JUMP JUMPDEST PUSH1 0x40 MLOAD DUP1 SWAP2 SUB SWAP1 REVERT JUMPDEST PUSH1 0x0 DUP2 PUSH1 0x6 ADD PUSH1 0x0 PUSH2 0x100 EXP DUP2 SLOAD DUP2 PUSH1 0xFF MUL NOT AND SWAP1 DUP4 ISZERO ISZERO MUL OR SWAP1 SSTORE POP PUSH1 0x1 DUP2 PUSH1 0x6 ADD PUSH1 0x1 PUSH2 0x100 EXP DUP2 SLOAD DUP2 PUSH1 0xFF MUL NOT AND SWAP1 DUP4 ISZERO ISZERO MUL OR SWAP1 SSTORE POP PUSH1 0x0 JUMPDEST DUP2 PUSH1 0x7 ADD DUP1 SLOAD SWAP1 POP DUP2 LT ISZERO PUSH2 0x1A08 JUMPI PUSH1 0x0 DUP3 PUSH1 0x7 ADD DUP3 DUP2 SLOAD DUP2 LT PUSH2 0x191B JUMPI PUSH2 0x191A PUSH2 0x38F6 JUMP JUMPDEST JUMPDEST SWAP1 PUSH1 0x0 MSTORE PUSH1 0x20 PUSH1 0x0 KECCAK256 ADD PUSH1 0x0 SWAP1 SLOAD SWAP1 PUSH2 0x100 EXP SWAP1 DIV PUSH20 0xFFFFFFFFFFFFFFFFFFFFFFFFFFFFFFFFFFFFFFFF AND SWAP1 POP PUSH1 0x0 DUP4 PUSH1 0x8 ADD PUSH1 0x0 DUP4 PUSH20 0xFFFFFFFFFFFFFFFFFFFFFFFFFFFFFFFFFFFFFFFF AND PUSH20 0xFFFFFFFFFFFFFFFFFFFFFFFFFFFFFFFFFFFFFFFF AND DUP2 MSTORE PUSH1 0x20 ADD SWAP1 DUP2 MSTORE PUSH1 0x20 ADD PUSH1 0x0 KECCAK256 SLOAD SWAP1 POP PUSH1 0x0 DUP5 PUSH1 0x3 ADD SLOAD DUP3 PUSH2 0x19A0 SWAP2 SWAP1 PUSH2 0x3954 JUMP JUMPDEST SWAP1 POP DUP1 PUSH1 0x8 PUSH1 0x0 DUP6 PUSH20 0xFFFFFFFFFFFFFFFFFFFFFFFFFFFFFFFFFFFFFFFF AND PUSH20 0xFFFFFFFFFFFFFFFFFFFFFFFFFFFFFFFFFFFFFFFF AND DUP2 MSTORE PUSH1 0x20 ADD SWAP1 DUP2 MSTORE PUSH1 0x20 ADD PUSH1 0x0 KECCAK256 PUSH1 0x0 DUP3 DUP3 SLOAD PUSH2 0x19F1 SWAP2 SWAP1 PUSH2 0x3996 JUMP JUMPDEST SWAP3 POP POP DUP2 SWAP1 SSTORE POP POP POP POP DUP1 DUP1 PUSH1 0x1 ADD SWAP2 POP POP PUSH2 0x18F4 JUMP JUMPDEST POP PUSH32 0x57BF3FC7E1999F61D60BF6BF729B85A5423C5D0883A1629CF9794F2162AE2ABA DUP5 CALLER DUP4 PUSH1 0x2 ADD PUSH1 0x40 MLOAD PUSH2 0x1A3F SWAP4 SWAP3 SWAP2 SWAP1 PUSH2 0x42C7 JUMP JUMPDEST PUSH1 0x40 MLOAD DUP1 SWAP2 SUB SWAP1 LOG1 POP POP POP POP JUMP JUMPDEST PUSH1 0x0 DUP1 SLOAD SWAP1 PUSH2 0x100 EXP SWAP1 DIV PUSH20 0xFFFFFFFFFFFFFFFFFFFFFFFFFFFFFFFFFFFFFFFF AND PUSH20 0xFFFFFFFFFFFFFFFFFFFFFFFFFFFFFFFFFFFFFFFF AND CALLER PUSH20 0xFFFFFFFFFFFFFFFFFFFFFFFFFFFFFFFFFFFFFFFF AND EQ PUSH2 0x1ADB JUMPI PUSH1 0x40 MLOAD PUSH32 0x8C379A000000000000000000000000000000000000000000000000000000000 DUP2 MSTORE PUSH1 0x4 ADD PUSH2 0x1AD2 SWAP1 PUSH2 0x386A JUMP JUMPDEST PUSH1 0x40 MLOAD DUP1 SWAP2 SUB SWAP1 REVERT JUMPDEST PUSH1 0x9 PUSH1 0x0 SWAP1 SLOAD SWAP1 PUSH2 0x100 EXP SWAP1 DIV PUSH1 0xFF AND PUSH2 0x1B2A JUMPI PUSH1 0x40 MLOAD PUSH32 0x8C379A000000000000000000000000000000000000000000000000000000000 DUP2 MSTORE PUSH1 0x4 ADD PUSH2 0x1B21 SWAP1 PUSH2 0x38D6 JUMP JUMPDEST PUSH1 0x40 MLOAD DUP1 SWAP2 SUB SWAP1 REVERT JUMPDEST PUSH1 0x0 PUSH1 0x2 SLOAD SWAP1 POP PUSH1 0x0 PUSH1 0x2 DUP2 SWAP1 SSTORE POP PUSH1 0x0 DUP1 SLOAD SWAP1 PUSH2 0x100 EXP SWAP1 DIV PUSH20 0xFFFFFFFFFFFFFFFFFFFFFFFFFFFFFFFFFFFFFFFF AND PUSH20 0xFFFFFFFFFFFFFFFFFFFFFFFFFFFFFFFFFFFFFFFF AND PUSH2 0x8FC DUP3 SWAP1 DUP2 ISZERO MUL SWAP1 PUSH1 0x40 MLOAD PUSH1 0x0 PUSH1 0x40 MLOAD DUP1 DUP4 SUB DUP2 DUP6 DUP9 DUP9 CALL SWAP4 POP POP POP POP ISZERO DUP1 ISZERO PUSH2 0x1B9F JUMPI RETURNDATASIZE PUSH1 0x0 DUP1 RETURNDATACOPY RETURNDATASIZE PUSH1 0x0 REVERT JUMPDEST POP PUSH1 0x0 SELFBALANCE SWAP1 POP PUSH32 0xC0819C13BE868895EB93E40EACEB96DE976442FA1D404E5C55F14BB65A8C489A PUSH1 0x0 DUP1 SLOAD SWAP1 PUSH2 0x100 EXP SWAP1 DIV PUSH20 0xFFFFFFFFFFFFFFFFFFFFFFFFFFFFFFFFFFFFFFFF AND DUP3 DUP5 PUSH2 0x1BF3 SWAP2 SWAP1 PUSH2 0x3996 JUMP JUMPDEST PUSH1 0x40 MLOAD PUSH2 0x1C01 SWAP3 SWAP2 SWAP1 PUSH2 0x4305 JUMP JUMPDEST PUSH1 0x40 MLOAD DUP1 SWAP2 SUB SWAP1 LOG1 POP POP JUMP JUMPDEST PUSH1 0x2 SLOAD DUP2 JUMP JUMPDEST PUSH1 0x1 SLOAD DUP2 JUMP JUMPDEST PUSH1 0x9 PUSH1 0x0 SWAP1 SLOAD SWAP1 PUSH2 0x100 EXP SWAP1 DIV PUSH1 0xFF AND PUSH2 0x1C68 JUMPI PUSH1 0x40 MLOAD PUSH32 0x8C379A000000000000000000000000000000000000000000000000000000000 DUP2 MSTORE PUSH1 0x4 ADD PUSH2 0x1C5F SWAP1 PUSH2 0x38D6 JUMP JUMPDEST PUSH1 0x40 MLOAD DUP1 SWAP2 SUB SWAP1 REVERT JUMPDEST PUSH1 0x0 DUP1 SLOAD SWAP1 PUSH2 0x100 EXP SWAP1 DIV PUSH20 0xFFFFFFFFFFFFFFFFFFFFFFFFFFFFFFFFFFFFFFFF AND PUSH20 0xFFFFFFFFFFFFFFFFFFFFFFFFFFFFFFFFFFFFFFFF AND CALLER PUSH20 0xFFFFFFFFFFFFFFFFFFFFFFFFFFFFFFFFFFFFFFFF AND EQ PUSH2 0x1CF6 JUMPI PUSH1 0x40 MLOAD PUSH32 0x8C379A000000000000000000000000000000000000000000000000000000000 DUP2 MSTORE PUSH1 0x4 ADD PUSH2 0x1CED SWAP1 PUSH2 0x386A JUMP JUMPDEST PUSH1 0x40 MLOAD DUP1 SWAP2 SUB SWAP1 REVERT JUMPDEST PUSH1 0x6 PUSH1 0x0 CALLER PUSH20 0xFFFFFFFFFFFFFFFFFFFFFFFFFFFFFFFFFFFFFFFF AND PUSH20 0xFFFFFFFFFFFFFFFFFFFFFFFFFFFFFFFFFFFFFFFF AND DUP2 MSTORE PUSH1 0x20 ADD SWAP1 DUP2 MSTORE PUSH1 0x20 ADD PUSH1 0x0 KECCAK256 PUSH1 0x0 SWAP1 SLOAD SWAP1 PUSH2 0x100 EXP SWAP1 DIV PUSH1 0xFF AND ISZERO PUSH2 0x1D83 JUMPI PUSH1 0x40 MLOAD PUSH32 0x8C379A000000000000000000000000000000000000000000000000000000000 DUP2 MSTORE PUSH1 0x4 ADD PUSH2 0x1D7A SWAP1 PUSH2 0x3B08 JUMP JUMPDEST PUSH1 0x40 MLOAD DUP1 SWAP2 SUB SWAP1 REVERT JUMPDEST PUSH1 0x1 PUSH1 0x6 PUSH1 0x0 DUP4 PUSH20 0xFFFFFFFFFFFFFFFFFFFFFFFFFFFFFFFFFFFFFFFF AND PUSH20 0xFFFFFFFFFFFFFFFFFFFFFFFFFFFFFFFFFFFFFFFF AND DUP2 MSTORE PUSH1 0x20 ADD SWAP1 DUP2 MSTORE PUSH1 0x20 ADD PUSH1 0x0 KECCAK256 PUSH1 0x0 PUSH2 0x100 EXP DUP2 SLOAD DUP2 PUSH1 0xFF MUL NOT AND SWAP1 DUP4 ISZERO ISZERO MUL OR SWAP1 SSTORE POP PUSH1 0x7 DUP2 SWAP1 DUP1 PUSH1 0x1 DUP2 SLOAD ADD DUP1 DUP3 SSTORE DUP1 SWAP2 POP POP PUSH1 0x1 SWAP1 SUB SWAP1 PUSH1 0x0 MSTORE PUSH1 0x20 PUSH1 0x0 KECCAK256 ADD PUSH1 0x0 SWAP1 SWAP2 SWAP1 SWAP2 SWAP1 SWAP2 PUSH2 0x100 EXP DUP2 SLOAD DUP2 PUSH20 0xFFFFFFFFFFFFFFFFFFFFFFFFFFFFFFFFFFFFFFFF MUL NOT AND SWAP1 DUP4 PUSH20 0xFFFFFFFFFFFFFFFFFFFFFFFFFFFFFFFFFFFFFFFF AND MUL OR SWAP1 SSTORE POP PUSH1 0x5 PUSH1 0x0 DUP2 SLOAD DUP1 SWAP3 SWAP2 SWAP1 PUSH2 0x1E51 SWAP1 PUSH2 0x3D7B JUMP JUMPDEST SWAP2 SWAP1 POP SSTORE POP POP JUMP JUMPDEST PUSH1 0x0 DUP1 SLOAD SWAP1 PUSH2 0x100 EXP SWAP1 DIV PUSH20 0xFFFFFFFFFFFFFFFFFFFFFFFFFFFFFFFFFFFFFFFF AND DUP2 JUMP JUMPDEST DUP1 PUSH1 0x4 PUSH1 0x0 DUP3 DUP2 MSTORE PUSH1 0x20 ADD SWAP1 DUP2 MSTORE PUSH1 0x20 ADD PUSH1 0x0 KECCAK256 PUSH1 0x6 ADD PUSH1 0x0 SWAP1 SLOAD SWAP1 PUSH2 0x100 EXP SWAP1 DIV PUSH1 0xFF AND PUSH2 0x1EE1 JUMPI PUSH1 0x40 MLOAD PUSH32 0x8C379A000000000000000000000000000000000000000000000000000000000 DUP2 MSTORE PUSH1 0x4 ADD PUSH2 0x1ED8 SWAP1 PUSH2 0x3B74 JUMP JUMPDEST PUSH1 0x40 MLOAD DUP1 SWAP2 SUB SWAP1 REVERT JUMPDEST DUP2 PUSH1 0x4 PUSH1 0x0 DUP3 DUP2 MSTORE PUSH1 0x20 ADD SWAP1 DUP2 MSTORE PUSH1 0x20 ADD PUSH1 0x0 KECCAK256 PUSH1 0x6 ADD PUSH1 0x1 SWAP1 SLOAD SWAP1 PUSH2 0x100 EXP SWAP1 DIV PUSH1 0xFF AND ISZERO PUSH2 0x1F46 JUMPI PUSH1 0x40 MLOAD PUSH32 0x8C379A000000000000000000000000000000000000000000000000000000000 DUP2 MSTORE PUSH1 0x4 ADD PUSH2 0x1F3D SWAP1 PUSH2 0x3BE0 JUMP JUMPDEST PUSH1 0x40 MLOAD DUP1 SWAP2 SUB SWAP1 REVERT JUMPDEST PUSH1 0x0 PUSH1 0x4 PUSH1 0x0 DUP6 DUP2 MSTORE PUSH1 0x20 ADD SWAP1 DUP2 MSTORE PUSH1 0x20 ADD PUSH1 0x0 KECCAK256 SWAP1 POP DUP1 PUSH1 0x1 ADD PUSH1 0x0 SWAP1 SLOAD SWAP1 PUSH2 0x100 EXP SWAP1 DIV PUSH20 0xFFFFFFFFFFFFFFFFFFFFFFFFFFFFFFFFFFFFFFFF AND PUSH20 0xFFFFFFFFFFFFFFFFFFFFFFFFFFFFFFFFFFFFFFFF AND CALLER PUSH20 0xFFFFFFFFFFFFFFFFFFFFFFFFFFFFFFFFFFFFFFFF AND EQ DUP1 PUSH2 0x2006 JUMPI POP PUSH1 0x0 DUP1 SLOAD SWAP1 PUSH2 0x100 EXP SWAP1 DIV PUSH20 0xFFFFFFFFFFFFFFFFFFFFFFFFFFFFFFFFFFFFFFFF AND PUSH20 0xFFFFFFFFFFFFFFFFFFFFFFFFFFFFFFFFFFFFFFFF AND CALLER PUSH20 0xFFFFFFFFFFFFFFFFFFFFFFFFFFFFFFFFFFFFFFFF AND EQ JUMPDEST PUSH2 0x2045 JUMPI PUSH1 0x40 MLOAD PUSH32 0x8C379A000000000000000000000000000000000000000000000000000000000 DUP2 MSTORE PUSH1 0x4 ADD PUSH2 0x203C SWAP1 PUSH2 0x43A0 JUMP JUMPDEST PUSH1 0x40 MLOAD DUP1 SWAP2 SUB SWAP1 REVERT JUMPDEST DUP1 PUSH1 0x4 ADD SLOAD DUP2 PUSH1 0x5 ADD SLOAD EQ PUSH2 0x208F JUMPI PUSH1 0x40 MLOAD PUSH32 0x8C379A000000000000000000000000000000000000000000000000000000000 DUP2 MSTORE PUSH1 0x4 ADD PUSH2 0x2086 SWAP1 PUSH2 0x4432 JUMP JUMPDEST PUSH1 0x40 MLOAD DUP1 SWAP2 SUB SWAP1 REVERT JUMPDEST PUSH1 0x0 DUP2 PUSH1 0x3 ADD SLOAD DUP3 PUSH1 0x5 ADD SLOAD PUSH2 0x20A5 SWAP2 SWAP1 PUSH2 0x3954 JUMP JUMPDEST SWAP1 POP PUSH1 0x0 PUSH1 0x64 PUSH1 0x50 DUP4 PUSH2 0x20B8 SWAP2 SWAP1 PUSH2 0x3954 JUMP JUMPDEST PUSH2 0x20C2 SWAP2 SWAP1 PUSH2 0x4481 JUMP JUMPDEST SWAP1 POP DUP3 PUSH1 0x1 ADD PUSH1 0x0 SWAP1 SLOAD SWAP1 PUSH2 0x100 EXP SWAP1 DIV PUSH20 0xFFFFFFFFFFFFFFFFFFFFFFFFFFFFFFFFFFFFFFFF AND PUSH20 0xFFFFFFFFFFFFFFFFFFFFFFFFFFFFFFFFFFFFFFFF AND PUSH2 0x8FC DUP3 SWAP1 DUP2 ISZERO MUL SWAP1 PUSH1 0x40 MLOAD PUSH1 0x0 PUSH1 0x40 MLOAD DUP1 DUP4 SUB DUP2 DUP6 DUP9 DUP9 CALL SWAP4 POP POP POP POP ISZERO DUP1 ISZERO PUSH2 0x212E JUMPI RETURNDATASIZE PUSH1 0x0 DUP1 RETURNDATACOPY RETURNDATASIZE PUSH1 0x0 REVERT JUMPDEST POP PUSH1 0x0 DUP2 DUP4 PUSH2 0x213D SWAP2 SWAP1 PUSH2 0x417D JUMP JUMPDEST SWAP1 POP DUP1 PUSH1 0x2 PUSH1 0x0 DUP3 DUP3 SLOAD PUSH2 0x2151 SWAP2 SWAP1 PUSH2 0x3996 JUMP JUMPDEST SWAP3 POP POP DUP2 SWAP1 SSTORE POP PUSH1 0x0 DUP5 PUSH1 0x6 ADD PUSH1 0x0 PUSH2 0x100 EXP DUP2 SLOAD DUP2 PUSH1 0xFF MUL NOT AND SWAP1 DUP4 ISZERO ISZERO MUL OR SWAP1 SSTORE POP PUSH1 0x1 DUP5 PUSH1 0x6 ADD PUSH1 0x2 PUSH2 0x100 EXP DUP2 SLOAD DUP2 PUSH1 0xFF MUL NOT AND SWAP1 DUP4 ISZERO ISZERO MUL OR SWAP1 SSTORE POP PUSH32 0x8074EF78C691C15AC249EF0C702E350AFFE9388AFDBBAFD37C0D19703CD0C7DB DUP8 CALLER DUP7 PUSH1 0x2 ADD PUSH1 0x40 MLOAD PUSH2 0x21C8 SWAP4 SWAP3 SWAP2 SWAP1 PUSH2 0x42C7 JUMP JUMPDEST PUSH1 0x40 MLOAD DUP1 SWAP2 SUB SWAP1 LOG1 POP POP POP POP POP POP POP JUMP JUMPDEST PUSH1 0x0 DUP1 SLOAD SWAP1 PUSH2 0x100 EXP SWAP1 DIV PUSH20 0xFFFFFFFFFFFFFFFFFFFFFFFFFFFFFFFFFFFFFFFF AND PUSH20 0xFFFFFFFFFFFFFFFFFFFFFFFFFFFFFFFFFFFFFFFF AND CALLER PUSH20 0xFFFFFFFFFFFFFFFFFFFFFFFFFFFFFFFFFFFFFFFF AND EQ PUSH2 0x2267 JUMPI PUSH1 0x40 MLOAD PUSH32 0x8C379A000000000000000000000000000000000000000000000000000000000 DUP2 MSTORE PUSH1 0x4 ADD PUSH2 0x225E SWAP1 PUSH2 0x386A JUMP JUMPDEST PUSH1 0x40 MLOAD DUP1 SWAP2 SUB SWAP1 REVERT JUMPDEST PUSH1 0x9 PUSH1 0x0 SWAP1 SLOAD SWAP1 PUSH2 0x100 EXP SWAP1 DIV PUSH1 0xFF AND PUSH2 0x22B6 JUMPI PUSH1 0x40 MLOAD PUSH32 0x8C379A000000000000000000000000000000000000000000000000000000000 DUP2 MSTORE PUSH1 0x4 ADD PUSH2 0x22AD SWAP1 PUSH2 0x38D6 JUMP JUMPDEST PUSH1 0x40 MLOAD DUP1 SWAP2 SUB SWAP1 REVERT JUMPDEST PUSH1 0x0 PUSH20 0xFFFFFFFFFFFFFFFFFFFFFFFFFFFFFFFFFFFFFFFF AND DUP2 PUSH20 0xFFFFFFFFFFFFFFFFFFFFFFFFFFFFFFFFFFFFFFFF AND SUB PUSH2 0x2325 JUMPI PUSH1 0x40 MLOAD PUSH32 0x8C379A000000000000000000000000000000000000000000000000000000000 DUP2 MSTORE PUSH1 0x4 ADD PUSH2 0x231C SWAP1 PUSH2 0x4524 JUMP JUMPDEST PUSH1 0x40 MLOAD DUP1 SWAP2 SUB SWAP1 REVERT JUMPDEST DUP1 PUSH1 0x0 DUP1 PUSH2 0x100 EXP DUP2 SLOAD DUP2 PUSH20 0xFFFFFFFFFFFFFFFFFFFFFFFFFFFFFFFFFFFFFFFF MUL NOT AND SWAP1 DUP4 PUSH20 0xFFFFFFFFFFFFFFFFFFFFFFFFFFFFFFFFFFFFFFFF AND MUL OR SWAP1 SSTORE POP POP JUMP JUMPDEST PUSH1 0x5 SLOAD DUP2 JUMP JUMPDEST PUSH1 0x60 DUP1 PUSH1 0x9 PUSH1 0x0 SWAP1 SLOAD SWAP1 PUSH2 0x100 EXP SWAP1 DIV PUSH1 0xFF AND PUSH2 0x23C0 JUMPI PUSH1 0x40 MLOAD PUSH32 0x8C379A000000000000000000000000000000000000000000000000000000000 DUP2 MSTORE PUSH1 0x4 ADD PUSH2 0x23B7 SWAP1 PUSH2 0x38D6 JUMP JUMPDEST PUSH1 0x40 MLOAD DUP1 SWAP2 SUB SWAP1 REVERT JUMPDEST DUP3 PUSH1 0x0 DUP2 GT DUP1 ISZERO PUSH2 0x23D3 JUMPI POP PUSH1 0x3 SLOAD DUP2 GT ISZERO JUMPDEST PUSH2 0x2412 JUMPI PUSH1 0x40 MLOAD PUSH32 0x8C379A000000000000000000000000000000000000000000000000000000000 DUP2 MSTORE PUSH1 0x4 ADD PUSH2 0x2409 SWAP1 PUSH2 0x4590 JUMP JUMPDEST PUSH1 0x40 MLOAD DUP1 SWAP2 SUB SWAP1 REVERT JUMPDEST PUSH1 0x0 PUSH1 0x4 PUSH1 0x0 DUP7 DUP2 MSTORE PUSH1 0x20 ADD SWAP1 DUP2 MSTORE PUSH1 0x20 ADD PUSH1 0x0 KECCAK256 SWAP1 POP PUSH1 0x0 DUP2 PUSH1 0x7 ADD DUP1 SLOAD SWAP1 POP SWAP1 POP DUP1 PUSH8 0xFFFFFFFFFFFFFFFF DUP2 GT ISZERO PUSH2 0x244F JUMPI PUSH2 0x244E PUSH2 0x332B JUMP JUMPDEST JUMPDEST PUSH1 0x40 MLOAD SWAP1 DUP1 DUP3 MSTORE DUP1 PUSH1 0x20 MUL PUSH1 0x20 ADD DUP3 ADD PUSH1 0x40 MSTORE DUP1 ISZERO PUSH2 0x247D JUMPI DUP2 PUSH1 0x20 ADD PUSH1 0x20 DUP3 MUL DUP1 CALLDATASIZE DUP4 CALLDATACOPY DUP1 DUP3 ADD SWAP2 POP POP SWAP1 POP JUMPDEST POP SWAP5 POP DUP1 PUSH8 0xFFFFFFFFFFFFFFFF DUP2 GT ISZERO PUSH2 0x249A JUMPI PUSH2 0x2499 PUSH2 0x332B JUMP JUMPDEST JUMPDEST PUSH1 0x40 MLOAD SWAP1 DUP1 DUP3 MSTORE DUP1 PUSH1 0x20 MUL PUSH1 0x20 ADD DUP3 ADD PUSH1 0x40 MSTORE DUP1 ISZERO PUSH2 0x24C8 JUMPI DUP2 PUSH1 0x20 ADD PUSH1 0x20 DUP3 MUL DUP1 CALLDATASIZE DUP4 CALLDATACOPY DUP1 DUP3 ADD SWAP2 POP POP SWAP1 POP JUMPDEST POP SWAP4 POP PUSH1 0x0 JUMPDEST DUP2 DUP2 LT ISZERO PUSH2 0x25D8 JUMPI PUSH1 0x0 DUP4 PUSH1 0x7 ADD DUP3 DUP2 SLOAD DUP2 LT PUSH2 0x24EE JUMPI PUSH2 0x24ED PUSH2 0x38F6 JUMP JUMPDEST JUMPDEST SWAP1 PUSH1 0x0 MSTORE PUSH1 0x20 PUSH1 0x0 KECCAK256 ADD PUSH1 0x0 SWAP1 SLOAD SWAP1 PUSH2 0x100 EXP SWAP1 DIV PUSH20 0xFFFFFFFFFFFFFFFFFFFFFFFFFFFFFFFFFFFFFFFF AND SWAP1 POP DUP1 DUP8 DUP4 DUP2 MLOAD DUP2 LT PUSH2 0x252F JUMPI PUSH2 0x252E PUSH2 0x38F6 JUMP JUMPDEST JUMPDEST PUSH1 0x20 MUL PUSH1 0x20 ADD ADD SWAP1 PUSH20 0xFFFFFFFFFFFFFFFFFFFFFFFFFFFFFFFFFFFFFFFF AND SWAP1 DUP2 PUSH20 0xFFFFFFFFFFFFFFFFFFFFFFFFFFFFFFFFFFFFFFFF AND DUP2 MSTORE POP POP DUP4 PUSH1 0x8 ADD PUSH1 0x0 DUP3 PUSH20 0xFFFFFFFFFFFFFFFFFFFFFFFFFFFFFFFFFFFFFFFF AND PUSH20 0xFFFFFFFFFFFFFFFFFFFFFFFFFFFFFFFFFFFFFFFF AND DUP2 MSTORE PUSH1 0x20 ADD SWAP1 DUP2 MSTORE PUSH1 0x20 ADD PUSH1 0x0 KECCAK256 SLOAD DUP7 DUP4 DUP2 MLOAD DUP2 LT PUSH2 0x25BE JUMPI PUSH2 0x25BD PUSH2 0x38F6 JUMP JUMPDEST JUMPDEST PUSH1 0x20 MUL PUSH1 0x20 ADD ADD DUP2 DUP2 MSTORE POP POP POP DUP1 DUP1 PUSH1 0x1 ADD SWAP2 POP POP PUSH2 0x24CE JUMP JUMPDEST POP POP POP POP SWAP2 POP SWAP2 JUMP JUMPDEST PUSH1 0x8 PUSH1 0x20 MSTORE DUP1 PUSH1 0x0 MSTORE PUSH1 0x40 PUSH1 0x0 KECCAK256 PUSH1 0x0 SWAP2 POP SWAP1 POP SLOAD DUP2 JUMP JUMPDEST PUSH1 0x6 PUSH1 0x20 MSTORE DUP1 PUSH1 0x0 MSTORE PUSH1 0x40 PUSH1 0x0 KECCAK256 PUSH1 0x0 SWAP2 POP SLOAD SWAP1 PUSH2 0x100 EXP SWAP1 DIV PUSH1 0xFF AND DUP2 JUMP JUMPDEST PUSH1 0x60 PUSH1 0x9 PUSH1 0x0 SWAP1 SLOAD SWAP1 PUSH2 0x100 EXP SWAP1 DIV PUSH1 0xFF AND PUSH2 0x266A JUMPI PUSH1 0x40 MLOAD PUSH32 0x8C379A000000000000000000000000000000000000000000000000000000000 DUP2 MSTORE PUSH1 0x4 ADD PUSH2 0x2661 SWAP1 PUSH2 0x38D6 JUMP JUMPDEST PUSH1 0x40 MLOAD DUP1 SWAP2 SUB SWAP1 REVERT JUMPDEST PUSH1 0x0 DUP1 JUMPDEST PUSH1 0x3 SLOAD DUP2 LT ISZERO PUSH2 0x26BD JUMPI PUSH1 0x4 PUSH1 0x0 DUP3 DUP2 MSTORE PUSH1 0x20 ADD SWAP1 DUP2 MSTORE PUSH1 0x20 ADD PUSH1 0x0 KECCAK256 PUSH1 0x6 ADD PUSH1 0x1 SWAP1 SLOAD SWAP1 PUSH2 0x100 EXP SWAP1 DIV PUSH1 0xFF AND ISZERO PUSH2 0x26B0 JUMPI DUP2 DUP1 PUSH2 0x26AC SWAP1 PUSH2 0x3D7B JUMP JUMPDEST SWAP3 POP POP JUMPDEST DUP1 DUP1 PUSH1 0x1 ADD SWAP2 POP POP PUSH2 0x266E JUMP JUMPDEST POP PUSH1 0x0 DUP2 PUSH8 0xFFFFFFFFFFFFFFFF DUP2 GT ISZERO PUSH2 0x26DA JUMPI PUSH2 0x26D9 PUSH2 0x332B JUMP JUMPDEST JUMPDEST PUSH1 0x40 MLOAD SWAP1 DUP1 DUP3 MSTORE DUP1 PUSH1 0x20 MUL PUSH1 0x20 ADD DUP3 ADD PUSH1 0x40 MSTORE DUP1 ISZERO PUSH2 0x2713 JUMPI DUP2 PUSH1 0x20 ADD JUMPDEST PUSH2 0x2700 PUSH2 0x2F2E JUMP JUMPDEST DUP2 MSTORE PUSH1 0x20 ADD SWAP1 PUSH1 0x1 SWAP1 SUB SWAP1 DUP2 PUSH2 0x26F8 JUMPI SWAP1 POP JUMPDEST POP SWAP1 POP PUSH1 0x0 DUP1 JUMPDEST PUSH1 0x3 SLOAD DUP2 LT ISZERO PUSH2 0x294D JUMPI PUSH1 0x4 PUSH1 0x0 DUP3 DUP2 MSTORE PUSH1 0x20 ADD SWAP1 DUP2 MSTORE PUSH1 0x20 ADD PUSH1 0x0 KECCAK256 PUSH1 0x6 ADD PUSH1 0x1 SWAP1 SLOAD SWAP1 PUSH2 0x100 EXP SWAP1 DIV PUSH1 0xFF AND ISZERO PUSH2 0x2940 JUMPI PUSH1 0x40 MLOAD DUP1 PUSH2 0x100 ADD PUSH1 0x40 MSTORE DUP1 PUSH1 0x4 PUSH1 0x0 DUP5 DUP2 MSTORE PUSH1 0x20 ADD SWAP1 DUP2 MSTORE PUSH1 0x20 ADD PUSH1 0x0 KECCAK256 PUSH1 0x0 ADD SLOAD DUP2 MSTORE PUSH1 0x20 ADD PUSH1 0x4 PUSH1 0x0 DUP5 DUP2 MSTORE PUSH1 0x20 ADD SWAP1 DUP2 MSTORE PUSH1 0x20 ADD PUSH1 0x0 KECCAK256 PUSH1 0x1 ADD PUSH1 0x0 SWAP1 SLOAD SWAP1 PUSH2 0x100 EXP SWAP1 DIV PUSH20 0xFFFFFFFFFFFFFFFFFFFFFFFFFFFFFFFFFFFFFFFF AND PUSH20 0xFFFFFFFFFFFFFFFFFFFFFFFFFFFFFFFFFFFFFFFF AND DUP2 MSTORE PUSH1 0x20 ADD PUSH1 0x4 PUSH1 0x0 DUP5 DUP2 MSTORE PUSH1 0x20 ADD SWAP1 DUP2 MSTORE PUSH1 0x20 ADD PUSH1 0x0 KECCAK256 PUSH1 0x2 ADD DUP1 SLOAD PUSH2 0x27E8 SWAP1 PUSH2 0x39F9 JUMP JUMPDEST DUP1 PUSH1 0x1F ADD PUSH1 0x20 DUP1 SWAP2 DIV MUL PUSH1 0x20 ADD PUSH1 0x40 MLOAD SWAP1 DUP2 ADD PUSH1 0x40 MSTORE DUP1 SWAP3 SWAP2 SWAP1 DUP2 DUP2 MSTORE PUSH1 0x20 ADD DUP3 DUP1 SLOAD PUSH2 0x2814 SWAP1 PUSH2 0x39F9 JUMP JUMPDEST DUP1 ISZERO PUSH2 0x2861 JUMPI DUP1 PUSH1 0x1F LT PUSH2 0x2836 JUMPI PUSH2 0x100 DUP1 DUP4 SLOAD DIV MUL DUP4 MSTORE SWAP2 PUSH1 0x20 ADD SWAP2 PUSH2 0x2861 JUMP JUMPDEST DUP3 ADD SWAP2 SWAP1 PUSH1 0x0 MSTORE PUSH1 0x20 PUSH1 0x0 KECCAK256 SWAP1 JUMPDEST DUP2 SLOAD DUP2 MSTORE SWAP1 PUSH1 0x1 ADD SWAP1 PUSH1 0x20 ADD DUP1 DUP4 GT PUSH2 0x2844 JUMPI DUP3 SWAP1 SUB PUSH1 0x1F AND DUP3 ADD SWAP2 JUMPDEST POP POP POP POP POP DUP2 MSTORE PUSH1 0x20 ADD PUSH1 0x4 PUSH1 0x0 DUP5 DUP2 MSTORE PUSH1 0x20 ADD SWAP1 DUP2 MSTORE PUSH1 0x20 ADD PUSH1 0x0 KECCAK256 PUSH1 0x3 ADD SLOAD DUP2 MSTORE PUSH1 0x20 ADD PUSH1 0x4 PUSH1 0x0 DUP5 DUP2 MSTORE PUSH1 0x20 ADD SWAP1 DUP2 MSTORE PUSH1 0x20 ADD PUSH1 0x0 KECCAK256 PUSH1 0x4 ADD SLOAD DUP2 MSTORE PUSH1 0x20 ADD PUSH1 0x4 PUSH1 0x0 DUP5 DUP2 MSTORE PUSH1 0x20 ADD SWAP1 DUP2 MSTORE PUSH1 0x20 ADD PUSH1 0x0 KECCAK256 PUSH1 0x5 ADD SLOAD DUP2 MSTORE PUSH1 0x20 ADD PUSH1 0x4 PUSH1 0x0 DUP5 DUP2 MSTORE PUSH1 0x20 ADD SWAP1 DUP2 MSTORE PUSH1 0x20 ADD PUSH1 0x0 KECCAK256 PUSH1 0x6 ADD PUSH1 0x2 SWAP1 SLOAD SWAP1 PUSH2 0x100 EXP SWAP1 DIV PUSH1 0xFF AND ISZERO ISZERO DUP2 MSTORE PUSH1 0x20 ADD PUSH1 0x4 PUSH1 0x0 DUP5 DUP2 MSTORE PUSH1 0x20 ADD SWAP1 DUP2 MSTORE PUSH1 0x20 ADD PUSH1 0x0 KECCAK256 PUSH1 0x6 ADD PUSH1 0x1 SWAP1 SLOAD SWAP1 PUSH2 0x100 EXP SWAP1 DIV PUSH1 0xFF AND ISZERO ISZERO DUP2 MSTORE POP DUP4 DUP4 DUP2 MLOAD DUP2 LT PUSH2 0x2926 JUMPI PUSH2 0x2925 PUSH2 0x38F6 JUMP JUMPDEST JUMPDEST PUSH1 0x20 MUL PUSH1 0x20 ADD ADD DUP2 SWAP1 MSTORE POP DUP2 DUP1 PUSH2 0x293C SWAP1 PUSH2 0x3D7B JUMP JUMPDEST SWAP3 POP POP JUMPDEST DUP1 DUP1 PUSH1 0x1 ADD SWAP2 POP POP PUSH2 0x271A JUMP JUMPDEST POP DUP2 SWAP4 POP POP POP POP SWAP1 JUMP JUMPDEST PUSH1 0x60 PUSH1 0x9 PUSH1 0x0 SWAP1 SLOAD SWAP1 PUSH2 0x100 EXP SWAP1 DIV PUSH1 0xFF AND PUSH2 0x29A8 JUMPI PUSH1 0x40 MLOAD PUSH32 0x8C379A000000000000000000000000000000000000000000000000000000000 DUP2 MSTORE PUSH1 0x4 ADD PUSH2 0x299F SWAP1 PUSH2 0x38D6 JUMP JUMPDEST PUSH1 0x40 MLOAD DUP1 SWAP2 SUB SWAP1 REVERT JUMPDEST PUSH1 0x0 DUP1 JUMPDEST PUSH1 0x3 SLOAD DUP2 LT ISZERO PUSH2 0x2A29 JUMPI PUSH1 0x4 PUSH1 0x0 DUP3 DUP2 MSTORE PUSH1 0x20 ADD SWAP1 DUP2 MSTORE PUSH1 0x20 ADD PUSH1 0x0 KECCAK256 PUSH1 0x6 ADD PUSH1 0x2 SWAP1 SLOAD SWAP1 PUSH2 0x100 EXP SWAP1 DIV PUSH1 0xFF AND ISZERO DUP1 ISZERO PUSH2 0x2A08 JUMPI POP PUSH1 0x4 PUSH1 0x0 DUP3 DUP2 MSTORE PUSH1 0x20 ADD SWAP1 DUP2 MSTORE PUSH1 0x20 ADD PUSH1 0x0 KECCAK256 PUSH1 0x6 ADD PUSH1 0x1 SWAP1 SLOAD SWAP1 PUSH2 0x100 EXP SWAP1 DIV PUSH1 0xFF AND ISZERO JUMPDEST ISZERO PUSH2 0x2A1C JUMPI DUP2 DUP1 PUSH2 0x2A18 SWAP1 PUSH2 0x3D7B JUMP JUMPDEST SWAP3 POP POP JUMPDEST DUP1 DUP1 PUSH1 0x1 ADD SWAP2 POP POP PUSH2 0x29AC JUMP JUMPDEST POP PUSH1 0x0 DUP2 PUSH8 0xFFFFFFFFFFFFFFFF DUP2 GT ISZERO PUSH2 0x2A46 JUMPI PUSH2 0x2A45 PUSH2 0x332B JUMP JUMPDEST JUMPDEST PUSH1 0x40 MLOAD SWAP1 DUP1 DUP3 MSTORE DUP1 PUSH1 0x20 MUL PUSH1 0x20 ADD DUP3 ADD PUSH1 0x40 MSTORE DUP1 ISZERO PUSH2 0x2A7F JUMPI DUP2 PUSH1 0x20 ADD JUMPDEST PUSH2 0x2A6C PUSH2 0x2F2E JUMP JUMPDEST DUP2 MSTORE PUSH1 0x20 ADD SWAP1 PUSH1 0x1 SWAP1 SUB SWAP1 DUP2 PUSH2 0x2A64 JUMPI SWAP1 POP JUMPDEST POP SWAP1 POP PUSH1 0x0 DUP1 JUMPDEST PUSH1 0x3 SLOAD DUP2 LT ISZERO PUSH2 0x2D08 JUMPI PUSH1 0x4 PUSH1 0x0 DUP3 DUP2 MSTORE PUSH1 0x20 ADD SWAP1 DUP2 MSTORE PUSH1 0x20 ADD PUSH1 0x0 KECCAK256 PUSH1 0x6 ADD PUSH1 0x2 SWAP1 SLOAD SWAP1 PUSH2 0x100 EXP SWAP1 DIV PUSH1 0xFF AND ISZERO DUP1 ISZERO PUSH2 0x2AE2 JUMPI POP PUSH1 0x4 PUSH1 0x0 DUP3 DUP2 MSTORE PUSH1 0x20 ADD SWAP1 DUP2 MSTORE PUSH1 0x20 ADD PUSH1 0x0 KECCAK256 PUSH1 0x6 ADD PUSH1 0x1 SWAP1 SLOAD SWAP1 PUSH2 0x100 EXP SWAP1 DIV PUSH1 0xFF AND ISZERO JUMPDEST ISZERO PUSH2 0x2CFB JUMPI PUSH1 0x40 MLOAD DUP1 PUSH2 0x100 ADD PUSH1 0x40 MSTORE DUP1 PUSH1 0x4 PUSH1 0x0 DUP5 DUP2 MSTORE PUSH1 0x20 ADD SWAP1 DUP2 MSTORE PUSH1 0x20 ADD PUSH1 0x0 KECCAK256 PUSH1 0x0 ADD SLOAD DUP2 MSTORE PUSH1 0x20 ADD PUSH1 0x4 PUSH1 0x0 DUP5 DUP2 MSTORE PUSH1 0x20 ADD SWAP1 DUP2 MSTORE PUSH1 0x20 ADD PUSH1 0x0 KECCAK256 PUSH1 0x1 ADD PUSH1 0x0 SWAP1 SLOAD SWAP1 PUSH2 0x100 EXP SWAP1 DIV PUSH20 0xFFFFFFFFFFFFFFFFFFFFFFFFFFFFFFFFFFFFFFFF AND PUSH20 0xFFFFFFFFFFFFFFFFFFFFFFFFFFFFFFFFFFFFFFFF AND DUP2 MSTORE PUSH1 0x20 ADD PUSH1 0x4 PUSH1 0x0 DUP5 DUP2 MSTORE PUSH1 0x20 ADD SWAP1 DUP2 MSTORE PUSH1 0x20 ADD PUSH1 0x0 KECCAK256 PUSH1 0x2 ADD DUP1 SLOAD PUSH2 0x2B82 SWAP1 PUSH2 0x39F9 JUMP JUMPDEST DUP1 PUSH1 0x1F ADD PUSH1 0x20 DUP1 SWAP2 DIV MUL PUSH1 0x20 ADD PUSH1 0x40 MLOAD SWAP1 DUP2 ADD PUSH1 0x40 MSTORE DUP1 SWAP3 SWAP2 SWAP1 DUP2 DUP2 MSTORE PUSH1 0x20 ADD DUP3 DUP1 SLOAD PUSH2 0x2BAE SWAP1 PUSH2 0x39F9 JUMP JUMPDEST DUP1 ISZERO PUSH2 0x2BFB JUMPI DUP1 PUSH1 0x1F LT PUSH2 0x2BD0 JUMPI PUSH2 0x100 DUP1 DUP4 SLOAD DIV MUL DUP4 MSTORE SWAP2 PUSH1 0x20 ADD SWAP2 PUSH2 0x2BFB JUMP JUMPDEST DUP3 ADD SWAP2 SWAP1 PUSH1 0x0 MSTORE PUSH1 0x20 PUSH1 0x0 KECCAK256 SWAP1 JUMPDEST DUP2 SLOAD DUP2 MSTORE SWAP1 PUSH1 0x1 ADD SWAP1 PUSH1 0x20 ADD DUP1 DUP4 GT PUSH2 0x2BDE JUMPI DUP3 SWAP1 SUB PUSH1 0x1F AND DUP3 ADD SWAP2 JUMPDEST POP POP POP POP POP DUP2 MSTORE PUSH1 0x20 ADD PUSH1 0x4 PUSH1 0x0 DUP5 DUP2 MSTORE PUSH1 0x20 ADD SWAP1 DUP2 MSTORE PUSH1 0x20 ADD PUSH1 0x0 KECCAK256 PUSH1 0x3 ADD SLOAD DUP2 MSTORE PUSH1 0x20 ADD PUSH1 0x4 PUSH1 0x0 DUP5 DUP2 MSTORE PUSH1 0x20 ADD SWAP1 DUP2 MSTORE PUSH1 0x20 ADD PUSH1 0x0 KECCAK256 PUSH1 0x5 ADD SLOAD PUSH1 0x4 PUSH1 0x0 DUP6 DUP2 MSTORE PUSH1 0x20 ADD SWAP1 DUP2 MSTORE PUSH1 0x20 ADD PUSH1 0x0 KECCAK256 PUSH1 0x4 ADD SLOAD PUSH2 0x2C59 SWAP2 SWAP1 PUSH2 0x417D JUMP JUMPDEST DUP2 MSTORE PUSH1 0x20 ADD PUSH1 0x4 PUSH1 0x0 DUP5 DUP2 MSTORE PUSH1 0x20 ADD SWAP1 DUP2 MSTORE PUSH1 0x20 ADD PUSH1 0x0 KECCAK256 PUSH1 0x5 ADD SLOAD DUP2 MSTORE PUSH1 0x20 ADD PUSH1 0x4 PUSH1 0x0 DUP5 DUP2 MSTORE PUSH1 0x20 ADD SWAP1 DUP2 MSTORE PUSH1 0x20 ADD PUSH1 0x0 KECCAK256 PUSH1 0x6 ADD PUSH1 0x2 SWAP1 SLOAD SWAP1 PUSH2 0x100 EXP SWAP1 DIV PUSH1 0xFF AND ISZERO ISZERO DUP2 MSTORE PUSH1 0x20 ADD PUSH1 0x4 PUSH1 0x0 DUP5 DUP2 MSTORE PUSH1 0x20 ADD SWAP1 DUP2 MSTORE PUSH1 0x20 ADD PUSH1 0x0 KECCAK256 PUSH1 0x6 ADD PUSH1 0x1 SWAP1 SLOAD SWAP1 PUSH2 0x100 EXP SWAP1 DIV PUSH1 0xFF AND ISZERO ISZERO DUP2 MSTORE POP DUP4 DUP4 DUP2 MLOAD DUP2 LT PUSH2 0x2CE1 JUMPI PUSH2 0x2CE0 PUSH2 0x38F6 JUMP JUMPDEST JUMPDEST PUSH1 0x20 MUL PUSH1 0x20 ADD ADD DUP2 SWAP1 MSTORE POP DUP2 DUP1 PUSH2 0x2CF7 SWAP1 PUSH2 0x3D7B JUMP JUMPDEST SWAP3 POP POP JUMPDEST DUP1 DUP1 PUSH1 0x1 ADD SWAP2 POP POP PUSH2 0x2A86 JUMP JUMPDEST POP DUP2 SWAP4 POP POP POP POP SWAP1 JUMP JUMPDEST PUSH1 0x7 DUP2 DUP2 SLOAD DUP2 LT PUSH2 0x2D22 JUMPI PUSH1 0x0 DUP1 REVERT JUMPDEST SWAP1 PUSH1 0x0 MSTORE PUSH1 0x20 PUSH1 0x0 KECCAK256 ADD PUSH1 0x0 SWAP2 POP SLOAD SWAP1 PUSH2 0x100 EXP SWAP1 DIV PUSH20 0xFFFFFFFFFFFFFFFFFFFFFFFFFFFFFFFFFFFFFFFF AND DUP2 JUMP JUMPDEST PUSH1 0x6 PUSH1 0x0 CALLER PUSH20 0xFFFFFFFFFFFFFFFFFFFFFFFFFFFFFFFFFFFFFFFF AND PUSH20 0xFFFFFFFFFFFFFFFFFFFFFFFFFFFFFFFFFFFFFFFF AND DUP2 MSTORE PUSH1 0x20 ADD SWAP1 DUP2 MSTORE PUSH1 0x20 ADD PUSH1 0x0 KECCAK256 PUSH1 0x0 SWAP1 SLOAD SWAP1 PUSH2 0x100 EXP SWAP1 DIV PUSH1 0xFF AND ISZERO PUSH2 0x2DDE JUMPI PUSH1 0x40 MLOAD PUSH32 0x8C379A000000000000000000000000000000000000000000000000000000000 DUP2 MSTORE PUSH1 0x4 ADD PUSH2 0x2DD5 SWAP1 PUSH2 0x3B08 JUMP JUMPDEST PUSH1 0x40 MLOAD DUP1 SWAP2 SUB SWAP1 REVERT JUMPDEST PUSH1 0x0 PUSH1 0x8 PUSH1 0x0 DUP4 PUSH20 0xFFFFFFFFFFFFFFFFFFFFFFFFFFFFFFFFFFFFFFFF AND PUSH20 0xFFFFFFFFFFFFFFFFFFFFFFFFFFFFFFFFFFFFFFFF AND DUP2 MSTORE PUSH1 0x20 ADD SWAP1 DUP2 MSTORE PUSH1 0x20 ADD PUSH1 0x0 KECCAK256 SLOAD SWAP1 POP PUSH1 0x0 DUP2 GT PUSH2 0x2E65 JUMPI PUSH1 0x40 MLOAD PUSH32 0x8C379A000000000000000000000000000000000000000000000000000000000 DUP2 MSTORE PUSH1 0x4 ADD PUSH2 0x2E5C SWAP1 PUSH2 0x4622 JUMP JUMPDEST PUSH1 0x40 MLOAD DUP1 SWAP2 SUB SWAP1 REVERT JUMPDEST PUSH1 0x0 PUSH1 0x8 PUSH1 0x0 DUP5 PUSH20 0xFFFFFFFFFFFFFFFFFFFFFFFFFFFFFFFFFFFFFFFF AND PUSH20 0xFFFFFFFFFFFFFFFFFFFFFFFFFFFFFFFFFFFFFFFF AND DUP2 MSTORE PUSH1 0x20 ADD SWAP1 DUP2 MSTORE PUSH1 0x20 ADD PUSH1 0x0 KECCAK256 DUP2 SWAP1 SSTORE POP DUP2 PUSH20 0xFFFFFFFFFFFFFFFFFFFFFFFFFFFFFFFFFFFFFFFF AND PUSH2 0x8FC DUP3 SWAP1 DUP2 ISZERO MUL SWAP1 PUSH1 0x40 MLOAD PUSH1 0x0 PUSH1 0x40 MLOAD DUP1 DUP4 SUB DUP2 DUP6 DUP9 DUP9 CALL SWAP4 POP POP POP POP ISZERO DUP1 ISZERO PUSH2 0x2EF0 JUMPI RETURNDATASIZE PUSH1 0x0 DUP1 RETURNDATACOPY RETURNDATASIZE PUSH1 0x0 REVERT JUMPDEST POP PUSH32 0x8D40E9C27D77B658952CBAACAA582B75D323CE97D3904729B9674DDF5D5F13E DUP3 DUP3 PUSH1 0x40 MLOAD PUSH2 0x2F22 SWAP3 SWAP2 SWAP1 PUSH2 0x4305 JUMP JUMPDEST PUSH1 0x40 MLOAD DUP1 SWAP2 SUB SWAP1 LOG1 POP POP JUMP JUMPDEST PUSH1 0x40 MLOAD DUP1 PUSH2 0x100 ADD PUSH1 0x40 MSTORE DUP1 PUSH1 0x0 DUP2 MSTORE PUSH1 0x20 ADD PUSH1 0x0 PUSH20 0xFFFFFFFFFFFFFFFFFFFFFFFFFFFFFFFFFFFFFFFF AND DUP2 MSTORE PUSH1 0x20 ADD PUSH1 0x60 DUP2 MSTORE PUSH1 0x20 ADD PUSH1 0x0 DUP2 MSTORE PUSH1 0x20 ADD PUSH1 0x0 DUP2 MSTORE PUSH1 0x20 ADD PUSH1 0x0 DUP2 MSTORE PUSH1 0x20 ADD PUSH1 0x0 ISZERO ISZERO DUP2 MSTORE PUSH1 0x20 ADD PUSH1 0x0 ISZERO ISZERO DUP2 MSTORE POP SWAP1 JUMP JUMPDEST PUSH1 0x0 PUSH1 0x40 MLOAD SWAP1 POP SWAP1 JUMP JUMPDEST PUSH1 0x0 DUP1 REVERT JUMPDEST PUSH1 0x0 DUP1 REVERT JUMPDEST PUSH1 0x0 DUP2 SWAP1 POP SWAP2 SWAP1 POP JUMP JUMPDEST PUSH2 0x2FB4 DUP2 PUSH2 0x2FA1 JUMP JUMPDEST DUP2 EQ PUSH2 0x2FBF JUMPI PUSH1 0x0 DUP1 REVERT JUMPDEST POP JUMP JUMPDEST PUSH1 0x0 DUP2 CALLDATALOAD SWAP1 POP PUSH2 0x2FD1 DUP2 PUSH2 0x2FAB JUMP JUMPDEST SWAP3 SWAP2 POP POP JUMP JUMPDEST PUSH1 0x0 PUSH1 0x20 DUP3 DUP5 SUB SLT ISZERO PUSH2 0x2FED JUMPI PUSH2 0x2FEC PUSH2 0x2F97 JUMP JUMPDEST JUMPDEST PUSH1 0x0 PUSH2 0x2FFB DUP5 DUP3 DUP6 ADD PUSH2 0x2FC2 JUMP JUMPDEST SWAP2 POP POP SWAP3 SWAP2 POP POP JUMP JUMPDEST PUSH2 0x300D DUP2 PUSH2 0x2FA1 JUMP JUMPDEST DUP3 MSTORE POP POP JUMP JUMPDEST PUSH1 0x0 PUSH20 0xFFFFFFFFFFFFFFFFFFFFFFFFFFFFFFFFFFFFFFFF DUP3 AND SWAP1 POP SWAP2 SWAP1 POP JUMP JUMPDEST PUSH1 0x0 PUSH2 0x303E DUP3 PUSH2 0x3013 JUMP JUMPDEST SWAP1 POP SWAP2 SWAP1 POP JUMP JUMPDEST PUSH2 0x304E DUP2 PUSH2 0x3033 JUMP JUMPDEST DUP3 MSTORE POP POP JUMP JUMPDEST PUSH1 0x0 DUP2 MLOAD SWAP1 POP SWAP2 SWAP1 POP JUMP JUMPDEST PUSH1 0x0 DUP3 DUP3 MSTORE PUSH1 0x20 DUP3 ADD SWAP1 POP SWAP3 SWAP2 POP POP JUMP JUMPDEST PUSH1 0x0 JUMPDEST DUP4 DUP2 LT ISZERO PUSH2 0x308E JUMPI DUP1 DUP3 ADD MLOAD DUP2 DUP5 ADD MSTORE PUSH1 0x20 DUP2 ADD SWAP1 POP PUSH2 0x3073 JUMP JUMPDEST PUSH1 0x0 DUP5 DUP5 ADD MSTORE POP POP POP POP JUMP JUMPDEST PUSH1 0x0 PUSH1 0x1F NOT PUSH1 0x1F DUP4 ADD AND SWAP1 POP SWAP2 SWAP1 POP JUMP JUMPDEST PUSH1 0x0 PUSH2 0x30B6 DUP3 PUSH2 0x3054 JUMP JUMPDEST PUSH2 0x30C0 DUP2 DUP6 PUSH2 0x305F JUMP JUMPDEST SWAP4 POP PUSH2 0x30D0 DUP2 DUP6 PUSH1 0x20 DUP7 ADD PUSH2 0x3070 JUMP JUMPDEST PUSH2 0x30D9 DUP2 PUSH2 0x309A JUMP JUMPDEST DUP5 ADD SWAP2 POP POP SWAP3 SWAP2 POP POP JUMP JUMPDEST PUSH1 0x0 DUP2 ISZERO ISZERO SWAP1 POP SWAP2 SWAP1 POP JUMP JUMPDEST PUSH2 0x30F9 DUP2 PUSH2 0x30E4 JUMP JUMPDEST DUP3 MSTORE POP POP JUMP JUMPDEST PUSH1 0x0 PUSH2 0x120 DUP3 ADD SWAP1 POP PUSH2 0x3115 PUSH1 0x0 DUP4 ADD DUP13 PUSH2 0x3004 JUMP JUMPDEST PUSH2 0x3122 PUSH1 0x20 DUP4 ADD DUP12 PUSH2 0x3045 JUMP JUMPDEST DUP2 DUP2 SUB PUSH1 0x40 DUP4 ADD MSTORE PUSH2 0x3134 DUP2 DUP11 PUSH2 0x30AB JUMP JUMPDEST SWAP1 POP PUSH2 0x3143 PUSH1 0x60 DUP4 ADD DUP10 PUSH2 0x3004 JUMP JUMPDEST PUSH2 0x3150 PUSH1 0x80 DUP4 ADD DUP9 PUSH2 0x3004 JUMP JUMPDEST PUSH2 0x315D PUSH1 0xA0 DUP4 ADD DUP8 PUSH2 0x3004 JUMP JUMPDEST PUSH2 0x316A PUSH1 0xC0 DUP4 ADD DUP7 PUSH2 0x30F0 JUMP JUMPDEST PUSH2 0x3177 PUSH1 0xE0 DUP4 ADD DUP6 PUSH2 0x30F0 JUMP JUMPDEST PUSH2 0x3185 PUSH2 0x100 DUP4 ADD DUP5 PUSH2 0x30F0 JUMP JUMPDEST SWAP11 SWAP10 POP POP POP POP POP POP POP POP POP POP JUMP JUMPDEST PUSH1 0x0 DUP1 PUSH1 0x40 DUP4 DUP6 SUB SLT ISZERO PUSH2 0x31AA JUMPI PUSH2 0x31A9 PUSH2 0x2F97 JUMP JUMPDEST JUMPDEST PUSH1 0x0 PUSH2 0x31B8 DUP6 DUP3 DUP7 ADD PUSH2 0x2FC2 JUMP JUMPDEST SWAP3 POP POP PUSH1 0x20 PUSH2 0x31C9 DUP6 DUP3 DUP7 ADD PUSH2 0x2FC2 JUMP JUMPDEST SWAP2 POP POP SWAP3 POP SWAP3 SWAP1 POP JUMP JUMPDEST PUSH2 0x31DC DUP2 PUSH2 0x3033 JUMP JUMPDEST DUP2 EQ PUSH2 0x31E7 JUMPI PUSH1 0x0 DUP1 REVERT JUMPDEST POP JUMP JUMPDEST PUSH1 0x0 DUP2 CALLDATALOAD SWAP1 POP PUSH2 0x31F9 DUP2 PUSH2 0x31D3 JUMP JUMPDEST SWAP3 SWAP2 POP POP JUMP JUMPDEST PUSH1 0x0 PUSH1 0x20 DUP3 DUP5 SUB SLT ISZERO PUSH2 0x3215 JUMPI PUSH2 0x3214 PUSH2 0x2F97 JUMP JUMPDEST JUMPDEST PUSH1 0x0 PUSH2 0x3223 DUP5 DUP3 DUP6 ADD PUSH2 0x31EA JUMP JUMPDEST SWAP2 POP POP SWAP3 SWAP2 POP POP JUMP JUMPDEST PUSH1 0x0 DUP2 MLOAD SWAP1 POP SWAP2 SWAP1 POP JUMP JUMPDEST PUSH1 0x0 DUP3 DUP3 MSTORE PUSH1 0x20 DUP3 ADD SWAP1 POP SWAP3 SWAP2 POP POP JUMP JUMPDEST PUSH1 0x0 DUP2 SWAP1 POP PUSH1 0x20 DUP3 ADD SWAP1 POP SWAP2 SWAP1 POP JUMP JUMPDEST PUSH2 0x3261 DUP2 PUSH2 0x2FA1 JUMP JUMPDEST DUP3 MSTORE POP POP JUMP JUMPDEST PUSH1 0x0 PUSH2 0x3273 DUP4 DUP4 PUSH2 0x3258 JUMP JUMPDEST PUSH1 0x20 DUP4 ADD SWAP1 POP SWAP3 SWAP2 POP POP JUMP JUMPDEST PUSH1 0x0 PUSH1 0x20 DUP3 ADD SWAP1 POP SWAP2 SWAP1 POP JUMP JUMPDEST PUSH1 0x0 PUSH2 0x3297 DUP3 PUSH2 0x322C JUMP JUMPDEST PUSH2 0x32A1 DUP2 DUP6 PUSH2 0x3237 JUMP JUMPDEST SWAP4 POP PUSH2 0x32AC DUP4 PUSH2 0x3248 JUMP JUMPDEST DUP1 PUSH1 0x0 JUMPDEST DUP4 DUP2 LT ISZERO PUSH2 0x32DD JUMPI DUP2 MLOAD PUSH2 0x32C4 DUP9 DUP3 PUSH2 0x3267 JUMP JUMPDEST SWAP8 POP PUSH2 0x32CF DUP4 PUSH2 0x327F JUMP JUMPDEST SWAP3 POP POP PUSH1 0x1 DUP2 ADD SWAP1 POP PUSH2 0x32B0 JUMP JUMPDEST POP DUP6 SWAP4 POP POP POP POP SWAP3 SWAP2 POP POP JUMP JUMPDEST PUSH1 0x0 PUSH1 0x40 DUP3 ADD SWAP1 POP DUP2 DUP2 SUB PUSH1 0x0 DUP4 ADD MSTORE PUSH2 0x3304 DUP2 DUP6 PUSH2 0x328C JUMP JUMPDEST SWAP1 POP DUP2 DUP2 SUB PUSH1 0x20 DUP4 ADD MSTORE PUSH2 0x3318 DUP2 DUP5 PUSH2 0x328C JUMP JUMPDEST SWAP1 POP SWAP4 SWAP3 POP POP POP JUMP JUMPDEST PUSH1 0x0 DUP1 REVERT JUMPDEST PUSH1 0x0 DUP1 REVERT JUMPDEST PUSH32 0x4E487B7100000000000000000000000000000000000000000000000000000000 PUSH1 0x0 MSTORE PUSH1 0x41 PUSH1 0x4 MSTORE PUSH1 0x24 PUSH1 0x0 REVERT JUMPDEST PUSH2 0x3363 DUP3 PUSH2 0x309A JUMP JUMPDEST DUP2 ADD DUP2 DUP2 LT PUSH8 0xFFFFFFFFFFFFFFFF DUP3 GT OR ISZERO PUSH2 0x3382 JUMPI PUSH2 0x3381 PUSH2 0x332B JUMP JUMPDEST JUMPDEST DUP1 PUSH1 0x40 MSTORE POP POP POP JUMP JUMPDEST PUSH1 0x0 PUSH2 0x3395 PUSH2 0x2F8D JUMP JUMPDEST SWAP1 POP PUSH2 0x33A1 DUP3 DUP3 PUSH2 0x335A JUMP JUMPDEST SWAP2 SWAP1 POP JUMP JUMPDEST PUSH1 0x0 PUSH8 0xFFFFFFFFFFFFFFFF DUP3 GT ISZERO PUSH2 0x33C1 JUMPI PUSH2 0x33C0 PUSH2 0x332B JUMP JUMPDEST JUMPDEST PUSH2 0x33CA DUP3 PUSH2 0x309A JUMP JUMPDEST SWAP1 POP PUSH1 0x20 DUP2 ADD SWAP1 POP SWAP2 SWAP1 POP JUMP JUMPDEST DUP3 DUP2 DUP4 CALLDATACOPY PUSH1 0x0 DUP4 DUP4 ADD MSTORE POP POP POP JUMP JUMPDEST PUSH1 0x0 PUSH2 0x33F9 PUSH2 0x33F4 DUP5 PUSH2 0x33A6 JUMP JUMPDEST PUSH2 0x338B JUMP JUMPDEST SWAP1 POP DUP3 DUP2 MSTORE PUSH1 0x20 DUP2 ADD DUP5 DUP5 DUP5 ADD GT ISZERO PUSH2 0x3415 JUMPI PUSH2 0x3414 PUSH2 0x3326 JUMP JUMPDEST JUMPDEST PUSH2 0x3420 DUP5 DUP3 DUP6 PUSH2 0x33D7 JUMP JUMPDEST POP SWAP4 SWAP3 POP POP POP JUMP JUMPDEST PUSH1 0x0 DUP3 PUSH1 0x1F DUP4 ADD SLT PUSH2 0x343D JUMPI PUSH2 0x343C PUSH2 0x3321 JUMP JUMPDEST JUMPDEST DUP2 CALLDATALOAD PUSH2 0x344D DUP5 DUP3 PUSH1 0x20 DUP7 ADD PUSH2 0x33E6 JUMP JUMPDEST SWAP2 POP POP SWAP3 SWAP2 POP POP JUMP JUMPDEST PUSH1 0x0 DUP1 PUSH1 0x0 PUSH1 0x60 DUP5 DUP7 SUB SLT ISZERO PUSH2 0x346F JUMPI PUSH2 0x346E PUSH2 0x2F97 JUMP JUMPDEST JUMPDEST PUSH1 0x0 DUP5 ADD CALLDATALOAD PUSH8 0xFFFFFFFFFFFFFFFF DUP2 GT ISZERO PUSH2 0x348D JUMPI PUSH2 0x348C PUSH2 0x2F9C JUMP JUMPDEST JUMPDEST PUSH2 0x3499 DUP7 DUP3 DUP8 ADD PUSH2 0x3428 JUMP JUMPDEST SWAP4 POP POP PUSH1 0x20 PUSH2 0x34AA DUP7 DUP3 DUP8 ADD PUSH2 0x2FC2 JUMP JUMPDEST SWAP3 POP POP PUSH1 0x40 PUSH2 0x34BB DUP7 DUP3 DUP8 ADD PUSH2 0x2FC2 JUMP JUMPDEST SWAP2 POP POP SWAP3 POP SWAP3 POP SWAP3 JUMP JUMPDEST PUSH1 0x0 DUP2 MLOAD SWAP1 POP SWAP2 SWAP1 POP JUMP JUMPDEST PUSH1 0x0 DUP3 DUP3 MSTORE PUSH1 0x20 DUP3 ADD SWAP1 POP SWAP3 SWAP2 POP POP JUMP JUMPDEST PUSH1 0x0 DUP2 SWAP1 POP PUSH1 0x20 DUP3 ADD SWAP1 POP SWAP2 SWAP1 POP JUMP JUMPDEST PUSH2 0x34FA DUP2 PUSH2 0x3033 JUMP JUMPDEST DUP3 MSTORE POP POP JUMP JUMPDEST PUSH1 0x0 DUP3 DUP3 MSTORE PUSH1 0x20 DUP3 ADD SWAP1 POP SWAP3 SWAP2 POP POP JUMP JUMPDEST PUSH1 0x0 PUSH2 0x351C DUP3 PUSH2 0x3054 JUMP JUMPDEST PUSH2 0x3526 DUP2 DUP6 PUSH2 0x3500 JUMP JUMPDEST SWAP4 POP PUSH2 0x3536 DUP2 DUP6 PUSH1 0x20 DUP7 ADD PUSH2 0x3070 JUMP JUMPDEST PUSH2 0x353F DUP2 PUSH2 0x309A JUMP JUMPDEST DUP5 ADD SWAP2 POP POP SWAP3 SWAP2 POP POP JUMP JUMPDEST PUSH2 0x3553 DUP2 PUSH2 0x30E4 JUMP JUMPDEST DUP3 MSTORE POP POP JUMP JUMPDEST PUSH1 0x0 PUSH2 0x100 DUP4 ADD PUSH1 0x0 DUP4 ADD MLOAD PUSH2 0x3572 PUSH1 0x0 DUP7 ADD DUP3 PUSH2 0x3258 JUMP JUMPDEST POP PUSH1 0x20 DUP4 ADD MLOAD PUSH2 0x3585 PUSH1 0x20 DUP7 ADD DUP3 PUSH2 0x34F1 JUMP JUMPDEST POP PUSH1 0x40 DUP4 ADD MLOAD DUP5 DUP3 SUB PUSH1 0x40 DUP7 ADD MSTORE PUSH2 0x359D DUP3 DUP3 PUSH2 0x3511 JUMP JUMPDEST SWAP2 POP POP PUSH1 0x60 DUP4 ADD MLOAD PUSH2 0x35B2 PUSH1 0x60 DUP7 ADD DUP3 PUSH2 0x3258 JUMP JUMPDEST POP PUSH1 0x80 DUP4 ADD MLOAD PUSH2 0x35C5 PUSH1 0x80 DUP7 ADD DUP3 PUSH2 0x3258 JUMP JUMPDEST POP PUSH1 0xA0 DUP4 ADD MLOAD PUSH2 0x35D8 PUSH1 0xA0 DUP7 ADD DUP3 PUSH2 0x3258 JUMP JUMPDEST POP PUSH1 0xC0 DUP4 ADD MLOAD PUSH2 0x35EB PUSH1 0xC0 DUP7 ADD DUP3 PUSH2 0x354A JUMP JUMPDEST POP PUSH1 0xE0 DUP4 ADD MLOAD PUSH2 0x35FE PUSH1 0xE0 DUP7 ADD DUP3 PUSH2 0x354A JUMP JUMPDEST POP DUP1 SWAP2 POP POP SWAP3 SWAP2 POP POP JUMP JUMPDEST PUSH1 0x0 PUSH2 0x3615 DUP4 DUP4 PUSH2 0x3559 JUMP JUMPDEST SWAP1 POP SWAP3 SWAP2 POP POP JUMP JUMPDEST PUSH1 0x0 PUSH1 0x20 DUP3 ADD SWAP1 POP SWAP2 SWAP1 POP JUMP JUMPDEST PUSH1 0x0 PUSH2 0x3635 DUP3 PUSH2 0x34C5 JUMP JUMPDEST PUSH2 0x363F DUP2 DUP6 PUSH2 0x34D0 JUMP JUMPDEST SWAP4 POP DUP4 PUSH1 0x20 DUP3 MUL DUP6 ADD PUSH2 0x3651 DUP6 PUSH2 0x34E1 JUMP JUMPDEST DUP1 PUSH1 0x0 JUMPDEST DUP6 DUP2 LT ISZERO PUSH2 0x368D JUMPI DUP5 DUP5 SUB DUP10 MSTORE DUP2 MLOAD PUSH2 0x366E DUP6 DUP3 PUSH2 0x3609 JUMP JUMPDEST SWAP5 POP PUSH2 0x3679 DUP4 PUSH2 0x361D JUMP JUMPDEST SWAP3 POP PUSH1 0x20 DUP11 ADD SWAP10 POP POP PUSH1 0x1 DUP2 ADD SWAP1 POP PUSH2 0x3655 JUMP JUMPDEST POP DUP3 SWAP8 POP DUP8 SWAP6 POP POP POP POP POP POP SWAP3 SWAP2 POP POP JUMP JUMPDEST PUSH1 0x0 PUSH1 0x20 DUP3 ADD SWAP1 POP DUP2 DUP2 SUB PUSH1 0x0 DUP4 ADD MSTORE PUSH2 0x36B9 DUP2 DUP5 PUSH2 0x362A JUMP JUMPDEST SWAP1 POP SWAP3 SWAP2 POP POP JUMP JUMPDEST PUSH1 0x0 PUSH1 0x20 DUP3 ADD SWAP1 POP PUSH2 0x36D6 PUSH1 0x0 DUP4 ADD DUP5 PUSH2 0x3004 JUMP JUMPDEST SWAP3 SWAP2 POP POP JUMP JUMPDEST PUSH1 0x0 PUSH1 0x20 DUP3 ADD SWAP1 POP PUSH2 0x36F1 PUSH1 0x0 DUP4 ADD DUP5 PUSH2 0x3045 JUMP JUMPDEST SWAP3 SWAP2 POP POP JUMP JUMPDEST PUSH1 0x0 DUP2 MLOAD SWAP1 POP SWAP2 SWAP1 POP JUMP JUMPDEST PUSH1 0x0 DUP3 DUP3 MSTORE PUSH1 0x20 DUP3 ADD SWAP1 POP SWAP3 SWAP2 POP POP JUMP JUMPDEST PUSH1 0x0 DUP2 SWAP1 POP PUSH1 0x20 DUP3 ADD SWAP1 POP SWAP2 SWAP1 POP JUMP JUMPDEST PUSH1 0x0 PUSH2 0x372F DUP4 DUP4 PUSH2 0x34F1 JUMP JUMPDEST PUSH1 0x20 DUP4 ADD SWAP1 POP SWAP3 SWAP2 POP POP JUMP JUMPDEST PUSH1 0x0 PUSH1 0x20 DUP3 ADD SWAP1 POP SWAP2 SWAP1 POP JUMP JUMPDEST PUSH1 0x0 PUSH2 0x3753 DUP3 PUSH2 0x36F7 JUMP JUMPDEST PUSH2 0x375D DUP2 DUP6 PUSH2 0x3702 JUMP JUMPDEST SWAP4 POP PUSH2 0x3768 DUP4 PUSH2 0x3713 JUMP JUMPDEST DUP1 PUSH1 0x0 JUMPDEST DUP4 DUP2 LT ISZERO PUSH2 0x3799 JUMPI DUP2 MLOAD PUSH2 0x3780 DUP9 DUP3 PUSH2 0x3723 JUMP JUMPDEST SWAP8 POP PUSH2 0x378B DUP4 PUSH2 0x373B JUMP JUMPDEST SWAP3 POP POP PUSH1 0x1 DUP2 ADD SWAP1 POP PUSH2 0x376C JUMP JUMPDEST POP DUP6 SWAP4 POP POP POP POP SWAP3 SWAP2 POP POP JUMP JUMPDEST PUSH1 0x0 PUSH1 0x40 DUP3 ADD SWAP1 POP DUP2 DUP2 SUB PUSH1 0x0 DUP4 ADD MSTORE PUSH2 0x37C0 DUP2 DUP6 PUSH2 0x3748 JUMP JUMPDEST SWAP1 POP DUP2 DUP2 SUB PUSH1 0x20 DUP4 ADD MSTORE PUSH2 0x37D4 DUP2 DUP5 PUSH2 0x328C JUMP JUMPDEST SWAP1 POP SWAP4 SWAP3 POP POP POP JUMP JUMPDEST PUSH1 0x0 PUSH1 0x20 DUP3 ADD SWAP1 POP PUSH2 0x37F2 PUSH1 0x0 DUP4 ADD DUP5 PUSH2 0x30F0 JUMP JUMPDEST SWAP3 SWAP2 POP POP JUMP JUMPDEST PUSH32 0x4F6E6C792074686520636F6E7472616374206F776E65722063616E2065786563 PUSH1 0x0 DUP3 ADD MSTORE PUSH32 0x7574652074686973000000000000000000000000000000000000000000000000 PUSH1 0x20 DUP3 ADD MSTORE POP JUMP JUMPDEST PUSH1 0x0 PUSH2 0x3854 PUSH1 0x28 DUP4 PUSH2 0x305F JUMP JUMPDEST SWAP2 POP PUSH2 0x385F DUP3 PUSH2 0x37F8 JUMP JUMPDEST PUSH1 0x40 DUP3 ADD SWAP1 POP SWAP2 SWAP1 POP JUMP JUMPDEST PUSH1 0x0 PUSH1 0x20 DUP3 ADD SWAP1 POP DUP2 DUP2 SUB PUSH1 0x0 DUP4 ADD MSTORE PUSH2 0x3883 DUP2 PUSH2 0x3847 JUMP JUMPDEST SWAP1 POP SWAP2 SWAP1 POP JUMP JUMPDEST PUSH32 0x436F6E7472616374206973206E6F742061637469766500000000000000000000 PUSH1 0x0 DUP3 ADD MSTORE POP JUMP JUMPDEST PUSH1 0x0 PUSH2 0x38C0 PUSH1 0x16 DUP4 PUSH2 0x305F JUMP JUMPDEST SWAP2 POP PUSH2 0x38CB DUP3 PUSH2 0x388A JUMP JUMPDEST PUSH1 0x20 DUP3 ADD SWAP1 POP SWAP2 SWAP1 POP JUMP JUMPDEST PUSH1 0x0 PUSH1 0x20 DUP3 ADD SWAP1 POP DUP2 DUP2 SUB PUSH1 0x0 DUP4 ADD MSTORE PUSH2 0x38EF DUP2 PUSH2 0x38B3 JUMP JUMPDEST SWAP1 POP SWAP2 SWAP1 POP JUMP JUMPDEST PUSH32 0x4E487B7100000000000000000000000000000000000000000000000000000000 PUSH1 0x0 MSTORE PUSH1 0x32 PUSH1 0x4 MSTORE PUSH1 0x24 PUSH1 0x0 REVERT JUMPDEST PUSH32 0x4E487B7100000000000000000000000000000000000000000000000000000000 PUSH1 0x0 MSTORE PUSH1 0x11 PUSH1 0x4 MSTORE PUSH1 0x24 PUSH1 0x0 REVERT JUMPDEST PUSH1 0x0 PUSH2 0x395F DUP3 PUSH2 0x2FA1 JUMP JUMPDEST SWAP2 POP PUSH2 0x396A DUP4 PUSH2 0x2FA1 JUMP JUMPDEST SWAP3 POP DUP3 DUP3 MUL PUSH2 0x3978 DUP2 PUSH2 0x2FA1 JUMP JUMPDEST SWAP2 POP DUP3 DUP3 DIV DUP5 EQ DUP4 ISZERO OR PUSH2 0x398F JUMPI PUSH2 0x398E PUSH2 0x3925 JUMP JUMPDEST JUMPDEST POP SWAP3 SWAP2 POP POP JUMP JUMPDEST PUSH1 0x0 PUSH2 0x39A1 DUP3 PUSH2 0x2FA1 JUMP JUMPDEST SWAP2 POP PUSH2 0x39AC DUP4 PUSH2 0x2FA1 JUMP JUMPDEST SWAP3 POP DUP3 DUP3 ADD SWAP1 POP DUP1 DUP3 GT ISZERO PUSH2 0x39C4 JUMPI PUSH2 0x39C3 PUSH2 0x3925 JUMP JUMPDEST JUMPDEST SWAP3 SWAP2 POP POP JUMP JUMPDEST PUSH32 0x4E487B7100000000000000000000000000000000000000000000000000000000 PUSH1 0x0 MSTORE PUSH1 0x22 PUSH1 0x4 MSTORE PUSH1 0x24 PUSH1 0x0 REVERT JUMPDEST PUSH1 0x0 PUSH1 0x2 DUP3 DIV SWAP1 POP PUSH1 0x1 DUP3 AND DUP1 PUSH2 0x3A11 JUMPI PUSH1 0x7F DUP3 AND SWAP2 POP JUMPDEST PUSH1 0x20 DUP3 LT DUP2 SUB PUSH2 0x3A24 JUMPI PUSH2 0x3A23 PUSH2 0x39CA JUMP JUMPDEST JUMPDEST POP SWAP2 SWAP1 POP JUMP JUMPDEST PUSH32 0x54686520636F6E7472616374206F776E65722063616E277420706572666F726D PUSH1 0x0 DUP3 ADD MSTORE PUSH32 0x206675727468657220616374696F6E7300000000000000000000000000000000 PUSH1 0x20 DUP3 ADD MSTORE POP JUMP JUMPDEST PUSH1 0x0 PUSH2 0x3A86 PUSH1 0x30 DUP4 PUSH2 0x305F JUMP JUMPDEST SWAP2 POP PUSH2 0x3A91 DUP3 PUSH2 0x3A2A JUMP JUMPDEST PUSH1 0x40 DUP3 ADD SWAP1 POP SWAP2 SWAP1 POP JUMP JUMPDEST PUSH1 0x0 PUSH1 0x20 DUP3 ADD SWAP1 POP DUP2 DUP2 SUB PUSH1 0x0 DUP4 ADD MSTORE PUSH2 0x3AB5 DUP2 PUSH2 0x3A79 JUMP JUMPDEST SWAP1 POP SWAP2 SWAP1 POP JUMP JUMPDEST PUSH32 0x416464726573732069732062616E6E6564000000000000000000000000000000 PUSH1 0x0 DUP3 ADD MSTORE POP JUMP JUMPDEST PUSH1 0x0 PUSH2 0x3AF2 PUSH1 0x11 DUP4 PUSH2 0x305F JUMP JUMPDEST SWAP2 POP PUSH2 0x3AFD DUP3 PUSH2 0x3ABC JUMP JUMPDEST PUSH1 0x20 DUP3 ADD SWAP1 POP SWAP2 SWAP1 POP JUMP JUMPDEST PUSH1 0x0 PUSH1 0x20 DUP3 ADD SWAP1 POP DUP2 DUP2 SUB PUSH1 0x0 DUP4 ADD MSTORE PUSH2 0x3B21 DUP2 PUSH2 0x3AE5 JUMP JUMPDEST SWAP1 POP SWAP2 SWAP1 POP JUMP JUMPDEST PUSH32 0x43616D706169676E206973206E6F742061637469766500000000000000000000 PUSH1 0x0 DUP3 ADD MSTORE POP JUMP JUMPDEST PUSH1 0x0 PUSH2 0x3B5E PUSH1 0x16 DUP4 PUSH2 0x305F JUMP JUMPDEST SWAP2 POP PUSH2 0x3B69 DUP3 PUSH2 0x3B28 JUMP JUMPDEST PUSH1 0x20 DUP3 ADD SWAP1 POP SWAP2 SWAP1 POP JUMP JUMPDEST PUSH1 0x0 PUSH1 0x20 DUP3 ADD SWAP1 POP DUP2 DUP2 SUB PUSH1 0x0 DUP4 ADD MSTORE PUSH2 0x3B8D DUP2 PUSH2 0x3B51 JUMP JUMPDEST SWAP1 POP SWAP2 SWAP1 POP JUMP JUMPDEST PUSH32 0x43616D706169676E2069732063616E63656C6C65640000000000000000000000 PUSH1 0x0 DUP3 ADD MSTORE POP JUMP JUMPDEST PUSH1 0x0 PUSH2 0x3BCA PUSH1 0x15 DUP4 PUSH2 0x305F JUMP JUMPDEST SWAP2 POP PUSH2 0x3BD5 DUP3 PUSH2 0x3B94 JUMP JUMPDEST PUSH1 0x20 DUP3 ADD SWAP1 POP SWAP2 SWAP1 POP JUMP JUMPDEST PUSH1 0x0 PUSH1 0x20 DUP3 ADD SWAP1 POP DUP2 DUP2 SUB PUSH1 0x0 DUP4 ADD MSTORE PUSH2 0x3BF9 DUP2 PUSH2 0x3BBD JUMP JUMPDEST SWAP1 POP SWAP2 SWAP1 POP JUMP JUMPDEST PUSH32 0x43616D706169676E20697320616C726561647920636F6D706C65746564000000 PUSH1 0x0 DUP3 ADD MSTORE POP JUMP JUMPDEST PUSH1 0x0 PUSH2 0x3C36 PUSH1 0x1D DUP4 PUSH2 0x305F JUMP JUMPDEST SWAP2 POP PUSH2 0x3C41 DUP3 PUSH2 0x3C00 JUMP JUMPDEST PUSH1 0x20 DUP3 ADD SWAP1 POP SWAP2 SWAP1 POP JUMP JUMPDEST PUSH1 0x0 PUSH1 0x20 DUP3 ADD SWAP1 POP DUP2 DUP2 SUB PUSH1 0x0 DUP4 ADD MSTORE PUSH2 0x3C65 DUP2 PUSH2 0x3C29 JUMP JUMPDEST SWAP1 POP SWAP2 SWAP1 POP JUMP JUMPDEST PUSH32 0x54686520656E7472657072656E6575722063616E27742066756E640000000000 PUSH1 0x0 DUP3 ADD MSTORE POP JUMP JUMPDEST PUSH1 0x0 PUSH2 0x3CA2 PUSH1 0x1B DUP4 PUSH2 0x305F JUMP JUMPDEST SWAP2 POP PUSH2 0x3CAD DUP3 PUSH2 0x3C6C JUMP JUMPDEST PUSH1 0x20 DUP3 ADD SWAP1 POP SWAP2 SWAP1 POP JUMP JUMPDEST PUSH1 0x0 PUSH1 0x20 DUP3 ADD SWAP1 POP DUP2 DUP2 SUB PUSH1 0x0 DUP4 ADD MSTORE PUSH2 0x3CD1 DUP2 PUSH2 0x3C95 JUMP JUMPDEST SWAP1 POP SWAP2 SWAP1 POP JUMP JUMPDEST PUSH32 0x496E636F7272656374205765692076616C75652073656E740000000000000000 PUSH1 0x0 DUP3 ADD MSTORE POP JUMP JUMPDEST PUSH1 0x0 PUSH2 0x3D0E PUSH1 0x18 DUP4 PUSH2 0x305F JUMP JUMPDEST SWAP2 POP PUSH2 0x3D19 DUP3 PUSH2 0x3CD8 JUMP JUMPDEST PUSH1 0x20 DUP3 ADD SWAP1 POP SWAP2 SWAP1 POP JUMP JUMPDEST PUSH1 0x0 PUSH1 0x20 DUP3 ADD SWAP1 POP DUP2 DUP2 SUB PUSH1 0x0 DUP4 ADD MSTORE PUSH2 0x3D3D DUP2 PUSH2 0x3D01 JUMP JUMPDEST SWAP1 POP SWAP2 SWAP1 POP JUMP JUMPDEST PUSH1 0x0 PUSH1 0x60 DUP3 ADD SWAP1 POP PUSH2 0x3D59 PUSH1 0x0 DUP4 ADD DUP7 PUSH2 0x3004 JUMP JUMPDEST PUSH2 0x3D66 PUSH1 0x20 DUP4 ADD DUP6 PUSH2 0x3045 JUMP JUMPDEST PUSH2 0x3D73 PUSH1 0x40 DUP4 ADD DUP5 PUSH2 0x3004 JUMP JUMPDEST SWAP5 SWAP4 POP POP POP POP JUMP JUMPDEST PUSH1 0x0 PUSH2 0x3D86 DUP3 PUSH2 0x2FA1 JUMP JUMPDEST SWAP2 POP PUSH32 0xFFFFFFFFFFFFFFFFFFFFFFFFFFFFFFFFFFFFFFFFFFFFFFFFFFFFFFFFFFFFFFFF DUP3 SUB PUSH2 0x3DB8 JUMPI PUSH2 0x3DB7 PUSH2 0x3925 JUMP JUMPDEST JUMPDEST PUSH1 0x1 DUP3 ADD SWAP1 POP SWAP2 SWAP1 POP JUMP JUMPDEST PUSH32 0x496E636F72726563742063616D706169676E2066656500000000000000000000 PUSH1 0x0 DUP3 ADD MSTORE POP JUMP JUMPDEST PUSH1 0x0 PUSH2 0x3DF9 PUSH1 0x16 DUP4 PUSH2 0x305F JUMP JUMPDEST SWAP2 POP PUSH2 0x3E04 DUP3 PUSH2 0x3DC3 JUMP JUMPDEST PUSH1 0x20 DUP3 ADD SWAP1 POP SWAP2 SWAP1 POP JUMP JUMPDEST PUSH1 0x0 PUSH1 0x20 DUP3 ADD SWAP1 POP DUP2 DUP2 SUB PUSH1 0x0 DUP4 ADD MSTORE PUSH2 0x3E28 DUP2 PUSH2 0x3DEC JUMP JUMPDEST SWAP1 POP SWAP2 SWAP1 POP JUMP JUMPDEST PUSH32 0x546F74616C20736861726573206D757374206265206772656174657220746861 PUSH1 0x0 DUP3 ADD MSTORE PUSH32 0x6E207A65726F0000000000000000000000000000000000000000000000000000 PUSH1 0x20 DUP3 ADD MSTORE POP JUMP JUMPDEST PUSH1 0x0 PUSH2 0x3E8B PUSH1 0x26 DUP4 PUSH2 0x305F JUMP JUMPDEST SWAP2 POP PUSH2 0x3E96 DUP3 PUSH2 0x3E2F JUMP JUMPDEST PUSH1 0x40 DUP3 ADD SWAP1 POP SWAP2 SWAP1 POP JUMP JUMPDEST PUSH1 0x0 PUSH1 0x20 DUP3 ADD SWAP1 POP DUP2 DUP2 SUB PUSH1 0x0 DUP4 ADD MSTORE PUSH2 0x3EBA DUP2 PUSH2 0x3E7E JUMP JUMPDEST SWAP1 POP SWAP2 SWAP1 POP JUMP JUMPDEST PUSH1 0x0 DUP2 SWAP1 POP DUP2 PUSH1 0x0 MSTORE PUSH1 0x20 PUSH1 0x0 KECCAK256 SWAP1 POP SWAP2 SWAP1 POP JUMP JUMPDEST PUSH1 0x0 PUSH1 0x20 PUSH1 0x1F DUP4 ADD DIV SWAP1 POP SWAP2 SWAP1 POP JUMP JUMPDEST PUSH1 0x0 DUP3 DUP3 SHL SWAP1 POP SWAP3 SWAP2 POP POP JUMP JUMPDEST PUSH1 0x0 PUSH1 0x8 DUP4 MUL PUSH2 0x3F23 PUSH32 0xFFFFFFFFFFFFFFFFFFFFFFFFFFFFFFFFFFFFFFFFFFFFFFFFFFFFFFFFFFFFFFFF DUP3 PUSH2 0x3EE6 JUMP JUMPDEST PUSH2 0x3F2D DUP7 DUP4 PUSH2 0x3EE6 JUMP JUMPDEST SWAP6 POP DUP1 NOT DUP5 AND SWAP4 POP DUP1 DUP7 AND DUP5 OR SWAP3 POP POP POP SWAP4 SWAP3 POP POP POP JUMP JUMPDEST PUSH1 0x0 DUP2 SWAP1 POP SWAP2 SWAP1 POP JUMP JUMPDEST PUSH1 0x0 PUSH2 0x3F6A PUSH2 0x3F65 PUSH2 0x3F60 DUP5 PUSH2 0x2FA1 JUMP JUMPDEST PUSH2 0x3F45 JUMP JUMPDEST PUSH2 0x2FA1 JUMP JUMPDEST SWAP1 POP SWAP2 SWAP1 POP JUMP JUMPDEST PUSH1 0x0 DUP2 SWAP1 POP SWAP2 SWAP1 POP JUMP JUMPDEST PUSH2 0x3F84 DUP4 PUSH2 0x3F4F JUMP JUMPDEST PUSH2 0x3F98 PUSH2 0x3F90 DUP3 PUSH2 0x3F71 JUMP JUMPDEST DUP5 DUP5 SLOAD PUSH2 0x3EF3 JUMP JUMPDEST DUP3 SSTORE POP POP POP POP JUMP JUMPDEST PUSH1 0x0 SWAP1 JUMP JUMPDEST PUSH2 0x3FAD PUSH2 0x3FA0 JUMP JUMPDEST PUSH2 0x3FB8 DUP2 DUP5 DUP5 PUSH2 0x3F7B JUMP JUMPDEST POP POP POP JUMP JUMPDEST JUMPDEST DUP2 DUP2 LT ISZERO PUSH2 0x3FDC JUMPI PUSH2 0x3FD1 PUSH1 0x0 DUP3 PUSH2 0x3FA5 JUMP JUMPDEST PUSH1 0x1 DUP2 ADD SWAP1 POP PUSH2 0x3FBE JUMP JUMPDEST POP POP JUMP JUMPDEST PUSH1 0x1F DUP3 GT ISZERO PUSH2 0x4021 JUMPI PUSH2 0x3FF2 DUP2 PUSH2 0x3EC1 JUMP JUMPDEST PUSH2 0x3FFB DUP5 PUSH2 0x3ED6 JUMP JUMPDEST DUP2 ADD PUSH1 0x20 DUP6 LT ISZERO PUSH2 0x400A JUMPI DUP2 SWAP1 POP JUMPDEST PUSH2 0x401E PUSH2 0x4016 DUP6 PUSH2 0x3ED6 JUMP JUMPDEST DUP4 ADD DUP3 PUSH2 0x3FBD JUMP JUMPDEST POP POP JUMPDEST POP POP POP JUMP JUMPDEST PUSH1 0x0 DUP3 DUP3 SHR SWAP1 POP SWAP3 SWAP2 POP POP JUMP JUMPDEST PUSH1 0x0 PUSH2 0x4044 PUSH1 0x0 NOT DUP5 PUSH1 0x8 MUL PUSH2 0x4026 JUMP JUMPDEST NOT DUP1 DUP4 AND SWAP2 POP POP SWAP3 SWAP2 POP POP JUMP JUMPDEST PUSH1 0x0 PUSH2 0x405D DUP4 DUP4 PUSH2 0x4033 JUMP JUMPDEST SWAP2 POP DUP3 PUSH1 0x2 MUL DUP3 OR SWAP1 POP SWAP3 SWAP2 POP POP JUMP JUMPDEST PUSH2 0x4076 DUP3 PUSH2 0x3054 JUMP JUMPDEST PUSH8 0xFFFFFFFFFFFFFFFF DUP2 GT ISZERO PUSH2 0x408F JUMPI PUSH2 0x408E PUSH2 0x332B JUMP JUMPDEST JUMPDEST PUSH2 0x4099 DUP3 SLOAD PUSH2 0x39F9 JUMP JUMPDEST PUSH2 0x40A4 DUP3 DUP3 DUP6 PUSH2 0x3FE0 JUMP JUMPDEST PUSH1 0x0 PUSH1 0x20 SWAP1 POP PUSH1 0x1F DUP4 GT PUSH1 0x1 DUP2 EQ PUSH2 0x40D7 JUMPI PUSH1 0x0 DUP5 ISZERO PUSH2 0x40C5 JUMPI DUP3 DUP8 ADD MLOAD SWAP1 POP JUMPDEST PUSH2 0x40CF DUP6 DUP3 PUSH2 0x4051 JUMP JUMPDEST DUP7 SSTORE POP PUSH2 0x4137 JUMP JUMPDEST PUSH1 0x1F NOT DUP5 AND PUSH2 0x40E5 DUP7 PUSH2 0x3EC1 JUMP JUMPDEST PUSH1 0x0 JUMPDEST DUP3 DUP2 LT ISZERO PUSH2 0x410D JUMPI DUP5 DUP10 ADD MLOAD DUP3 SSTORE PUSH1 0x1 DUP3 ADD SWAP2 POP PUSH1 0x20 DUP6 ADD SWAP5 POP PUSH1 0x20 DUP2 ADD SWAP1 POP PUSH2 0x40E8 JUMP JUMPDEST DUP7 DUP4 LT ISZERO PUSH2 0x412A JUMPI DUP5 DUP10 ADD MLOAD PUSH2 0x4126 PUSH1 0x1F DUP10 AND DUP3 PUSH2 0x4033 JUMP JUMPDEST DUP4 SSTORE POP JUMPDEST PUSH1 0x1 PUSH1 0x2 DUP9 MUL ADD DUP9 SSTORE POP POP POP JUMPDEST POP POP POP POP POP POP JUMP JUMPDEST PUSH1 0x0 PUSH1 0x60 DUP3 ADD SWAP1 POP PUSH2 0x4154 PUSH1 0x0 DUP4 ADD DUP7 PUSH2 0x3004 JUMP JUMPDEST PUSH2 0x4161 PUSH1 0x20 DUP4 ADD DUP6 PUSH2 0x3045 JUMP JUMPDEST DUP2 DUP2 SUB PUSH1 0x40 DUP4 ADD MSTORE PUSH2 0x4173 DUP2 DUP5 PUSH2 0x30AB JUMP JUMPDEST SWAP1 POP SWAP5 SWAP4 POP POP POP POP JUMP JUMPDEST PUSH1 0x0 PUSH2 0x4188 DUP3 PUSH2 0x2FA1 JUMP JUMPDEST SWAP2 POP PUSH2 0x4193 DUP4 PUSH2 0x2FA1 JUMP JUMPDEST SWAP3 POP DUP3 DUP3 SUB SWAP1 POP DUP2 DUP2 GT ISZERO PUSH2 0x41AB JUMPI PUSH2 0x41AA PUSH2 0x3925 JUMP JUMPDEST JUMPDEST SWAP3 SWAP2 POP POP JUMP JUMPDEST PUSH32 0x4F6E6C792074686520656E7472657072656E657572206F72206F776E65722063 PUSH1 0x0 DUP3 ADD MSTORE PUSH32 0x616E2063616E63656C20746869732063616D706169676E000000000000000000 PUSH1 0x20 DUP3 ADD MSTORE POP JUMP JUMPDEST PUSH1 0x0 PUSH2 0x420D PUSH1 0x37 DUP4 PUSH2 0x305F JUMP JUMPDEST SWAP2 POP PUSH2 0x4218 DUP3 PUSH2 0x41B1 JUMP JUMPDEST PUSH1 0x40 DUP3 ADD SWAP1 POP SWAP2 SWAP1 POP JUMP JUMPDEST PUSH1 0x0 PUSH1 0x20 DUP3 ADD SWAP1 POP DUP2 DUP2 SUB PUSH1 0x0 DUP4 ADD MSTORE PUSH2 0x423C DUP2 PUSH2 0x4200 JUMP JUMPDEST SWAP1 POP SWAP2 SWAP1 POP JUMP JUMPDEST PUSH1 0x0 DUP2 SLOAD PUSH2 0x4250 DUP2 PUSH2 0x39F9 JUMP JUMPDEST PUSH2 0x425A DUP2 DUP7 PUSH2 0x305F JUMP JUMPDEST SWAP5 POP PUSH1 0x1 DUP3 AND PUSH1 0x0 DUP2 EQ PUSH2 0x4275 JUMPI PUSH1 0x1 DUP2 EQ PUSH2 0x428B JUMPI PUSH2 0x42BE JUMP JUMPDEST PUSH1 0xFF NOT DUP4 AND DUP7 MSTORE DUP2 ISZERO ISZERO PUSH1 0x20 MUL DUP7 ADD SWAP4 POP PUSH2 0x42BE JUMP JUMPDEST PUSH2 0x4294 DUP6 PUSH2 0x3EC1 JUMP JUMPDEST PUSH1 0x0 JUMPDEST DUP4 DUP2 LT ISZERO PUSH2 0x42B6 JUMPI DUP2 SLOAD DUP2 DUP10 ADD MSTORE PUSH1 0x1 DUP3 ADD SWAP2 POP PUSH1 0x20 DUP2 ADD SWAP1 POP PUSH2 0x4297 JUMP JUMPDEST DUP1 DUP9 ADD SWAP6 POP POP POP JUMPDEST POP POP POP SWAP3 SWAP2 POP POP JUMP JUMPDEST PUSH1 0x0 PUSH1 0x60 DUP3 ADD SWAP1 POP PUSH2 0x42DC PUSH1 0x0 DUP4 ADD DUP7 PUSH2 0x3004 JUMP JUMPDEST PUSH2 0x42E9 PUSH1 0x20 DUP4 ADD DUP6 PUSH2 0x3045 JUMP JUMPDEST DUP2 DUP2 SUB PUSH1 0x40 DUP4 ADD MSTORE PUSH2 0x42FB DUP2 DUP5 PUSH2 0x4243 JUMP JUMPDEST SWAP1 POP SWAP5 SWAP4 POP POP POP POP JUMP JUMPDEST PUSH1 0x0 PUSH1 0x40 DUP3 ADD SWAP1 POP PUSH2 0x431A PUSH1 0x0 DUP4 ADD DUP6 PUSH2 0x3045 JUMP JUMPDEST PUSH2 0x4327 PUSH1 0x20 DUP4 ADD DUP5 PUSH2 0x3004 JUMP JUMPDEST SWAP4 SWAP3 POP POP POP JUMP JUMPDEST PUSH32 0x4F6E6C792074686520656E7472657072656E657572206F72206F776E65722063 PUSH1 0x0 DUP3 ADD MSTORE PUSH32 0x616E20636F6D706C65746520746869732063616D706169676E00000000000000 PUSH1 0x20 DUP3 ADD MSTORE POP JUMP JUMPDEST PUSH1 0x0 PUSH2 0x438A PUSH1 0x39 DUP4 PUSH2 0x305F JUMP JUMPDEST SWAP2 POP PUSH2 0x4395 DUP3 PUSH2 0x432E JUMP JUMPDEST PUSH1 0x40 DUP3 ADD SWAP1 POP SWAP2 SWAP1 POP JUMP JUMPDEST PUSH1 0x0 PUSH1 0x20 DUP3 ADD SWAP1 POP DUP2 DUP2 SUB PUSH1 0x0 DUP4 ADD MSTORE PUSH2 0x43B9 DUP2 PUSH2 0x437D JUMP JUMPDEST SWAP1 POP SWAP2 SWAP1 POP JUMP JUMPDEST PUSH32 0x43616D706169676E20646F6573206E6F74206861766520656E6F756768207368 PUSH1 0x0 DUP3 ADD MSTORE PUSH32 0x6172657300000000000000000000000000000000000000000000000000000000 PUSH1 0x20 DUP3 ADD MSTORE POP JUMP JUMPDEST PUSH1 0x0 PUSH2 0x441C PUSH1 0x24 DUP4 PUSH2 0x305F JUMP JUMPDEST SWAP2 POP PUSH2 0x4427 DUP3 PUSH2 0x43C0 JUMP JUMPDEST PUSH1 0x40 DUP3 ADD SWAP1 POP SWAP2 SWAP1 POP JUMP JUMPDEST PUSH1 0x0 PUSH1 0x20 DUP3 ADD SWAP1 POP DUP2 DUP2 SUB PUSH1 0x0 DUP4 ADD MSTORE PUSH2 0x444B DUP2 PUSH2 0x440F JUMP JUMPDEST SWAP1 POP SWAP2 SWAP1 POP JUMP JUMPDEST PUSH32 0x4E487B7100000000000000000000000000000000000000000000000000000000 PUSH1 0x0 MSTORE PUSH1 0x12 PUSH1 0x4 MSTORE PUSH1 0x24 PUSH1 0x0 REVERT JUMPDEST PUSH1 0x0 PUSH2 0x448C DUP3 PUSH2 0x2FA1 JUMP JUMPDEST SWAP2 POP PUSH2 0x4497 DUP4 PUSH2 0x2FA1 JUMP JUMPDEST SWAP3 POP DUP3 PUSH2 0x44A7 JUMPI PUSH2 0x44A6 PUSH2 0x4452 JUMP JUMPDEST JUMPDEST DUP3 DUP3 DIV SWAP1 POP SWAP3 SWAP2 POP POP JUMP JUMPDEST PUSH32 0x4E6577206F776E65722063616E6E6F7420626520746865207A65726F20616464 PUSH1 0x0 DUP3 ADD MSTORE PUSH32 0x7265737300000000000000000000000000000000000000000000000000000000 PUSH1 0x20 DUP3 ADD MSTORE POP JUMP JUMPDEST PUSH1 0x0 PUSH2 0x450E PUSH1 0x24 DUP4 PUSH2 0x305F JUMP JUMPDEST SWAP2 POP PUSH2 0x4519 DUP3 PUSH2 0x44B2 JUMP JUMPDEST PUSH1 0x40 DUP3 ADD SWAP1 POP SWAP2 SWAP1 POP JUMP JUMPDEST PUSH1 0x0 PUSH1 0x20 DUP3 ADD SWAP1 POP DUP2 DUP2 SUB PUSH1 0x0 DUP4 ADD MSTORE PUSH2 0x453D DUP2 PUSH2 0x4501 JUMP JUMPDEST SWAP1 POP SWAP2 SWAP1 POP JUMP JUMPDEST PUSH32 0x496E76616C69642063616D706169676E20494400000000000000000000000000 PUSH1 0x0 DUP3 ADD MSTORE POP JUMP JUMPDEST PUSH1 0x0 PUSH2 0x457A PUSH1 0x13 DUP4 PUSH2 0x305F JUMP JUMPDEST SWAP2 POP PUSH2 0x4585 DUP3 PUSH2 0x4544 JUMP JUMPDEST PUSH1 0x20 DUP3 ADD SWAP1 POP SWAP2 SWAP1 POP JUMP JUMPDEST PUSH1 0x0 PUSH1 0x20 DUP3 ADD SWAP1 POP DUP2 DUP2 SUB PUSH1 0x0 DUP4 ADD MSTORE PUSH2 0x45A9 DUP2 PUSH2 0x456D JUMP JUMPDEST SWAP1 POP SWAP2 SWAP1 POP JUMP JUMPDEST PUSH32 0x4E6F20726566756E6420617661696C61626C6520666F72207468697320696E76 PUSH1 0x0 DUP3 ADD MSTORE PUSH32 0x6573746F72000000000000000000000000000000000000000000000000000000 PUSH1 0x20 DUP3 ADD MSTORE POP JUMP JUMPDEST PUSH1 0x0 PUSH2 0x460C PUSH1 0x25 DUP4 PUSH2 0x305F JUMP JUMPDEST SWAP2 POP PUSH2 0x4617 DUP3 PUSH2 0x45B0 JUMP JUMPDEST PUSH1 0x40 DUP3 ADD SWAP1 POP SWAP2 SWAP1 POP JUMP JUMPDEST PUSH1 0x0 PUSH1 0x20 DUP3 ADD SWAP1 POP DUP2 DUP2 SUB PUSH1 0x0 DUP4 ADD MSTORE PUSH2 0x463B DUP2 PUSH2 0x45FF JUMP JUMPDEST SWAP1 POP SWAP2 SWAP1 POP JUMP INVALID LOG2 PUSH5 0x6970667358 0x22 SLT KECCAK256 SELFBALANCE 0xD2 0x1F AND ADDRESS ISZERO MSTORE8 NUMBER DUP4 SMOD 0xEA SWAP16 0xD 0xDD PC TLOAD PUSH9 0xA54CDA0A7A4E963F0C DUP5 0xEB SWAP8 PUSH7 0x76C264736F6C63 NUMBER STOP ADDMOD BYTE STOP CALLER "
				},
				"gasEstimates": {
					"creation": {
						"codeDepositCost": "3608000",
						"executionCost": "infinite",
						"totalCost": "infinite"
					},
					"external": {
						"banInvestor(address)": "104446",
						"bannedAddresses(uint256)": "5066",
						"bannedCounter()": "2518",
						"bannedList(address)": "2889",
						"campaignFee()": "2540",
						"campaignFunding(uint256,uint256)": "infinite",
						"campaigns(uint256)": "infinite",
						"cancelCampaign(uint256)": "infinite",
						"changeOwner(address)": "29144",
						"completeCampaign(uint256)": "infinite",
						"createCampaign(string,uint256,uint256)": "infinite",
						"destroyContract()": "infinite",
						"getActiveCampaigns()": "infinite",
						"getCancelledCampaigns()": "infinite",
						"getCompletedCampaigns()": "infinite",
						"getInvestmentsByInvestor(address)": "infinite",
						"getInvestorsAndShares(uint256)": "infinite",
						"owner()": "2534",
						"refundInvestor(address)": "infinite",
						"refunds(address)": "2836",
						"totalFeesCollected()": "2518",
						"withdrawFees()": "infinite"
					}
				},
				"methodIdentifiers": {
					"banInvestor(address)": "8bc95413",
					"bannedAddresses(uint256)": "ed68b685",
					"bannedCounter()": "ad59be99",
					"bannedList(address)": "bd424ee7",
					"campaignFee()": "8a5be9b7",
					"campaignFunding(uint256,uint256)": "2b7393fb",
					"campaigns(uint256)": "141961bc",
					"cancelCampaign(uint256)": "45598b4a",
					"changeOwner(address)": "a6f9dae1",
					"completeCampaign(uint256)": "9553f180",
					"createCampaign(string,uint256,uint256)": "3020580b",
					"destroyContract()": "092a5cce",
					"getActiveCampaigns()": "c362b156",
					"getCancelledCampaigns()": "c0751ba4",
					"getCompletedCampaigns()": "3c3ae5b8",
					"getInvestmentsByInvestor(address)": "2cdda7d5",
					"getInvestorsAndShares(uint256)": "b41ead0a",
					"owner()": "8da5cb5b",
					"refundInvestor(address)": "ff53c5a3",
					"refunds(address)": "bc3da535",
					"totalFeesCollected()": "60c6d8ae",
					"withdrawFees()": "476343ee"
				}
			},
			"storageLayout": {
				"storage": [
					{
						"astId": 46,
						"contract": "contracts/Blockchain_task.sol:Crowdfunding",
						"label": "owner",
						"offset": 0,
						"slot": "0",
						"type": "t_address"
					},
					{
						"astId": 48,
						"contract": "contracts/Blockchain_task.sol:Crowdfunding",
						"label": "campaignFee",
						"offset": 0,
						"slot": "1",
						"type": "t_uint256"
					},
					{
						"astId": 50,
						"contract": "contracts/Blockchain_task.sol:Crowdfunding",
						"label": "totalFeesCollected",
						"offset": 0,
						"slot": "2",
						"type": "t_uint256"
					},
					{
						"astId": 52,
						"contract": "contracts/Blockchain_task.sol:Crowdfunding",
						"label": "campaignCounter",
						"offset": 0,
						"slot": "3",
						"type": "t_uint256"
					},
					{
						"astId": 57,
						"contract": "contracts/Blockchain_task.sol:Crowdfunding",
						"label": "campaigns",
						"offset": 0,
						"slot": "4",
						"type": "t_mapping(t_uint256,t_struct(Campaign)27_storage)"
					},
					{
						"astId": 59,
						"contract": "contracts/Blockchain_task.sol:Crowdfunding",
						"label": "bannedCounter",
						"offset": 0,
						"slot": "5",
						"type": "t_uint256"
					},
					{
						"astId": 63,
						"contract": "contracts/Blockchain_task.sol:Crowdfunding",
						"label": "bannedList",
						"offset": 0,
						"slot": "6",
						"type": "t_mapping(t_address,t_bool)"
					},
					{
						"astId": 66,
						"contract": "contracts/Blockchain_task.sol:Crowdfunding",
						"label": "bannedAddresses",
						"offset": 0,
						"slot": "7",
						"type": "t_array(t_address)dyn_storage"
					},
					{
						"astId": 70,
						"contract": "contracts/Blockchain_task.sol:Crowdfunding",
						"label": "refunds",
						"offset": 0,
						"slot": "8",
						"type": "t_mapping(t_address,t_uint256)"
					},
					{
						"astId": 72,
						"contract": "contracts/Blockchain_task.sol:Crowdfunding",
						"label": "isContractActive",
						"offset": 0,
						"slot": "9",
						"type": "t_bool"
					}
				],
				"types": {
					"t_address": {
						"encoding": "inplace",
						"label": "address",
						"numberOfBytes": "20"
					},
					"t_array(t_address)dyn_storage": {
						"base": "t_address",
						"encoding": "dynamic_array",
						"label": "address[]",
						"numberOfBytes": "32"
					},
					"t_bool": {
						"encoding": "inplace",
						"label": "bool",
						"numberOfBytes": "1"
					},
					"t_mapping(t_address,t_bool)": {
						"encoding": "mapping",
						"key": "t_address",
						"label": "mapping(address => bool)",
						"numberOfBytes": "32",
						"value": "t_bool"
					},
					"t_mapping(t_address,t_uint256)": {
						"encoding": "mapping",
						"key": "t_address",
						"label": "mapping(address => uint256)",
						"numberOfBytes": "32",
						"value": "t_uint256"
					},
					"t_mapping(t_uint256,t_struct(Campaign)27_storage)": {
						"encoding": "mapping",
						"key": "t_uint256",
						"label": "mapping(uint256 => struct Crowdfunding.Campaign)",
						"numberOfBytes": "32",
						"value": "t_struct(Campaign)27_storage"
					},
					"t_string_storage": {
						"encoding": "bytes",
						"label": "string",
						"numberOfBytes": "32"
					},
					"t_struct(Campaign)27_storage": {
						"encoding": "inplace",
						"label": "struct Crowdfunding.Campaign",
						"members": [
							{
								"astId": 3,
								"contract": "contracts/Blockchain_task.sol:Crowdfunding",
								"label": "campaignId",
								"offset": 0,
								"slot": "0",
								"type": "t_uint256"
							},
							{
								"astId": 5,
								"contract": "contracts/Blockchain_task.sol:Crowdfunding",
								"label": "entrepreneur",
								"offset": 0,
								"slot": "1",
								"type": "t_address"
							},
							{
								"astId": 7,
								"contract": "contracts/Blockchain_task.sol:Crowdfunding",
								"label": "title",
								"offset": 0,
								"slot": "2",
								"type": "t_string_storage"
							},
							{
								"astId": 9,
								"contract": "contracts/Blockchain_task.sol:Crowdfunding",
								"label": "sharePrice",
								"offset": 0,
								"slot": "3",
								"type": "t_uint256"
							},
							{
								"astId": 11,
								"contract": "contracts/Blockchain_task.sol:Crowdfunding",
								"label": "totalShares",
								"offset": 0,
								"slot": "4",
								"type": "t_uint256"
							},
							{
								"astId": 13,
								"contract": "contracts/Blockchain_task.sol:Crowdfunding",
								"label": "currentShares",
								"offset": 0,
								"slot": "5",
								"type": "t_uint256"
							},
							{
								"astId": 15,
								"contract": "contracts/Blockchain_task.sol:Crowdfunding",
								"label": "isActive",
								"offset": 0,
								"slot": "6",
								"type": "t_bool"
							},
							{
								"astId": 17,
								"contract": "contracts/Blockchain_task.sol:Crowdfunding",
								"label": "isCancelled",
								"offset": 1,
								"slot": "6",
								"type": "t_bool"
							},
							{
								"astId": 19,
								"contract": "contracts/Blockchain_task.sol:Crowdfunding",
								"label": "isCompleted",
								"offset": 2,
								"slot": "6",
								"type": "t_bool"
							},
							{
								"astId": 22,
								"contract": "contracts/Blockchain_task.sol:Crowdfunding",
								"label": "backers",
								"offset": 0,
								"slot": "7",
								"type": "t_array(t_address)dyn_storage"
							},
							{
								"astId": 26,
								"contract": "contracts/Blockchain_task.sol:Crowdfunding",
								"label": "sharesPerBacker",
								"offset": 0,
								"slot": "8",
								"type": "t_mapping(t_address,t_uint256)"
							}
						],
						"numberOfBytes": "288"
					},
					"t_uint256": {
						"encoding": "inplace",
						"label": "uint256",
						"numberOfBytes": "32"
					}
				}
			},
			"userdoc": {
				"kind": "user",
				"methods": {},
				"version": 1
			}
		}
	}
}